{
  "_format": "hh-sol-artifact-1",
  "contractName": "DOJToken",
  "sourceName": "contracts/dojimachain/DOJToken.sol",
  "abi": [
    {
      "inputs": [],
      "stateMutability": "nonpayable",
      "type": "constructor"
    },
    {
      "anonymous": false,
      "inputs": [
        {
          "indexed": true,
          "internalType": "address",
          "name": "owner",
          "type": "address"
        },
        {
          "indexed": true,
          "internalType": "address",
          "name": "spender",
          "type": "address"
        },
        {
          "indexed": false,
          "internalType": "uint256",
          "name": "value",
          "type": "uint256"
        }
      ],
      "name": "Approval",
      "type": "event"
    },
    {
      "anonymous": false,
      "inputs": [
        {
          "indexed": false,
          "internalType": "bytes32",
          "name": "chainName",
          "type": "bytes32"
        },
        {
          "indexed": false,
          "internalType": "bytes",
          "name": "contractAddress",
          "type": "bytes"
        }
      ],
      "name": "ChainContractMappingUpdated",
      "type": "event"
    },
    {
      "anonymous": false,
      "inputs": [
        {
          "indexed": false,
          "internalType": "address",
          "name": "_outboundStateSender",
          "type": "address"
        },
        {
          "indexed": false,
          "internalType": "address",
          "name": "_stateSyncerVerifier",
          "type": "address"
        }
      ],
      "name": "Initialize",
      "type": "event"
    },
    {
      "anonymous": false,
      "inputs": [
        {
          "indexed": false,
          "internalType": "uint8",
          "name": "version",
          "type": "uint8"
        }
      ],
      "name": "Initialized",
      "type": "event"
    },
    {
      "anonymous": false,
      "inputs": [
        {
          "indexed": true,
          "internalType": "address",
          "name": "previousOwner",
          "type": "address"
        },
        {
          "indexed": true,
          "internalType": "address",
          "name": "newOwner",
          "type": "address"
        }
      ],
      "name": "OwnershipTransferred",
      "type": "event"
    },
    {
      "anonymous": false,
      "inputs": [
        {
          "indexed": true,
          "internalType": "bytes32",
          "name": "role",
          "type": "bytes32"
        },
        {
          "indexed": true,
          "internalType": "bytes32",
          "name": "previousAdminRole",
          "type": "bytes32"
        },
        {
          "indexed": true,
          "internalType": "bytes32",
          "name": "newAdminRole",
          "type": "bytes32"
        }
      ],
      "name": "RoleAdminChanged",
      "type": "event"
    },
    {
      "anonymous": false,
      "inputs": [
        {
          "indexed": true,
          "internalType": "bytes32",
          "name": "role",
          "type": "bytes32"
        },
        {
          "indexed": true,
          "internalType": "address",
          "name": "account",
          "type": "address"
        },
        {
          "indexed": true,
          "internalType": "address",
          "name": "sender",
          "type": "address"
        }
      ],
      "name": "RoleGranted",
      "type": "event"
    },
    {
      "anonymous": false,
      "inputs": [
        {
          "indexed": true,
          "internalType": "bytes32",
          "name": "role",
          "type": "bytes32"
        },
        {
          "indexed": true,
          "internalType": "address",
          "name": "account",
          "type": "address"
        },
        {
          "indexed": true,
          "internalType": "address",
          "name": "sender",
          "type": "address"
        }
      ],
      "name": "RoleRevoked",
      "type": "event"
    },
    {
      "anonymous": false,
      "inputs": [
        {
          "indexed": false,
          "internalType": "bytes32",
          "name": "destinationChain",
          "type": "bytes32"
        },
        {
          "indexed": false,
          "internalType": "bytes",
          "name": "user",
          "type": "bytes"
        },
        {
          "indexed": false,
          "internalType": "uint256",
          "name": "amount",
          "type": "uint256"
        }
      ],
      "name": "TokensTransferredToDestinationChain",
      "type": "event"
    },
    {
      "anonymous": false,
      "inputs": [
        {
          "indexed": true,
          "internalType": "address",
          "name": "from",
          "type": "address"
        },
        {
          "indexed": true,
          "internalType": "address",
          "name": "to",
          "type": "address"
        },
        {
          "indexed": false,
          "internalType": "uint256",
          "name": "value",
          "type": "uint256"
        }
      ],
      "name": "Transfer",
      "type": "event"
    },
    {
      "inputs": [],
      "name": "ADMIN_ROLE",
      "outputs": [
        {
          "internalType": "bytes32",
          "name": "",
          "type": "bytes32"
        }
      ],
      "stateMutability": "view",
      "type": "function"
    },
    {
      "inputs": [],
      "name": "DEFAULT_ADMIN_ROLE",
      "outputs": [
        {
          "internalType": "bytes32",
          "name": "",
          "type": "bytes32"
        }
      ],
      "stateMutability": "view",
      "type": "function"
    },
    {
      "inputs": [],
      "name": "MINTER_ROLE",
      "outputs": [
        {
          "internalType": "bytes32",
          "name": "",
          "type": "bytes32"
        }
      ],
      "stateMutability": "view",
      "type": "function"
    },
    {
      "inputs": [],
      "name": "TOKEN_NAME",
      "outputs": [
        {
          "internalType": "string",
          "name": "",
          "type": "string"
        }
      ],
      "stateMutability": "view",
      "type": "function"
    },
    {
      "inputs": [],
      "name": "TOKEN_SYMBOL",
      "outputs": [
        {
          "internalType": "string",
          "name": "",
          "type": "string"
        }
      ],
      "stateMutability": "view",
      "type": "function"
    },
    {
      "inputs": [
        {
          "internalType": "address",
          "name": "",
          "type": "address"
        },
        {
          "internalType": "address",
          "name": "",
          "type": "address"
        }
      ],
      "name": "allowance",
      "outputs": [
        {
          "internalType": "uint256",
          "name": "",
          "type": "uint256"
        }
      ],
      "stateMutability": "pure",
      "type": "function"
    },
    {
      "inputs": [
        {
          "internalType": "address",
          "name": "",
          "type": "address"
        },
        {
          "internalType": "uint256",
          "name": "",
          "type": "uint256"
        }
      ],
      "name": "approve",
      "outputs": [
        {
          "internalType": "bool",
          "name": "",
          "type": "bool"
        }
      ],
      "stateMutability": "pure",
      "type": "function"
    },
    {
      "inputs": [
        {
          "internalType": "address",
          "name": "account",
          "type": "address"
        }
      ],
      "name": "balanceOf",
      "outputs": [
        {
          "internalType": "uint256",
          "name": "",
          "type": "uint256"
        }
      ],
      "stateMutability": "view",
      "type": "function"
    },
    {
      "inputs": [
        {
          "internalType": "uint256",
          "name": "amount",
          "type": "uint256"
        }
      ],
      "name": "burn",
      "outputs": [],
      "stateMutability": "nonpayable",
      "type": "function"
    },
    {
      "inputs": [
        {
          "internalType": "bytes32",
          "name": "",
          "type": "bytes32"
        }
      ],
      "name": "chainContractMappings",
      "outputs": [
        {
          "internalType": "bytes",
          "name": "",
          "type": "bytes"
        }
      ],
      "stateMutability": "view",
      "type": "function"
    },
    {
      "inputs": [],
      "name": "decimals",
      "outputs": [
        {
          "internalType": "uint8",
          "name": "",
          "type": "uint8"
        }
      ],
      "stateMutability": "view",
      "type": "function"
    },
    {
      "inputs": [
        {
          "internalType": "address",
          "name": "spender",
          "type": "address"
        },
        {
          "internalType": "uint256",
          "name": "subtractedValue",
          "type": "uint256"
        }
      ],
      "name": "decreaseAllowance",
      "outputs": [
        {
          "internalType": "bool",
          "name": "",
          "type": "bool"
        }
      ],
      "stateMutability": "nonpayable",
      "type": "function"
    },
    {
      "inputs": [
        {
          "internalType": "bytes32",
          "name": "role",
          "type": "bytes32"
        }
      ],
      "name": "getRoleAdmin",
      "outputs": [
        {
          "internalType": "bytes32",
          "name": "",
          "type": "bytes32"
        }
      ],
      "stateMutability": "view",
      "type": "function"
    },
    {
      "inputs": [
        {
          "internalType": "bytes32",
          "name": "role",
          "type": "bytes32"
        },
        {
          "internalType": "address",
          "name": "account",
          "type": "address"
        }
      ],
      "name": "grantRole",
      "outputs": [],
      "stateMutability": "nonpayable",
      "type": "function"
    },
    {
      "inputs": [
        {
          "internalType": "bytes32",
          "name": "role",
          "type": "bytes32"
        },
        {
          "internalType": "address",
          "name": "account",
          "type": "address"
        }
      ],
      "name": "hasRole",
      "outputs": [
        {
          "internalType": "bool",
          "name": "",
          "type": "bool"
        }
      ],
      "stateMutability": "view",
      "type": "function"
    },
    {
      "inputs": [
        {
          "internalType": "address",
          "name": "spender",
          "type": "address"
        },
        {
          "internalType": "uint256",
          "name": "addedValue",
          "type": "uint256"
        }
      ],
      "name": "increaseAllowance",
      "outputs": [
        {
          "internalType": "bool",
          "name": "",
          "type": "bool"
        }
      ],
      "stateMutability": "nonpayable",
      "type": "function"
    },
    {
      "inputs": [
        {
          "internalType": "address",
          "name": "_outboundStateSender",
          "type": "address"
        },
        {
          "internalType": "address",
          "name": "_stateSyncerVerifier",
          "type": "address"
        }
      ],
      "name": "initialize",
      "outputs": [],
      "stateMutability": "nonpayable",
      "type": "function"
    },
    {
      "inputs": [],
      "name": "name",
      "outputs": [
        {
          "internalType": "string",
          "name": "",
          "type": "string"
        }
      ],
      "stateMutability": "view",
      "type": "function"
    },
    {
      "inputs": [
        {
          "internalType": "uint256",
          "name": "",
          "type": "uint256"
        },
        {
          "internalType": "bytes",
          "name": "data",
          "type": "bytes"
        }
      ],
      "name": "onStateReceive",
      "outputs": [],
      "stateMutability": "nonpayable",
      "type": "function"
    },
    {
      "inputs": [],
      "name": "outboundStateSender",
      "outputs": [
        {
          "internalType": "contract IOutboundStateSender",
          "name": "",
          "type": "address"
        }
      ],
      "stateMutability": "view",
      "type": "function"
    },
    {
      "inputs": [],
      "name": "owner",
      "outputs": [
        {
          "internalType": "address",
          "name": "",
          "type": "address"
        }
      ],
      "stateMutability": "view",
      "type": "function"
    },
    {
      "inputs": [],
      "name": "renounceOwnership",
      "outputs": [],
      "stateMutability": "nonpayable",
      "type": "function"
    },
    {
      "inputs": [
        {
          "internalType": "bytes32",
          "name": "role",
          "type": "bytes32"
        },
        {
          "internalType": "address",
          "name": "account",
          "type": "address"
        }
      ],
      "name": "renounceRole",
      "outputs": [],
      "stateMutability": "nonpayable",
      "type": "function"
    },
    {
      "inputs": [
        {
          "internalType": "bytes32",
          "name": "role",
          "type": "bytes32"
        },
        {
          "internalType": "address",
          "name": "account",
          "type": "address"
        }
      ],
      "name": "revokeRole",
      "outputs": [],
      "stateMutability": "nonpayable",
      "type": "function"
    },
    {
      "inputs": [],
      "name": "stateVerifier",
      "outputs": [
        {
          "internalType": "contract StateSyncerVerifier",
          "name": "",
          "type": "address"
        }
      ],
      "stateMutability": "view",
      "type": "function"
    },
    {
      "inputs": [
        {
          "internalType": "bytes4",
          "name": "interfaceId",
          "type": "bytes4"
        }
      ],
      "name": "supportsInterface",
      "outputs": [
        {
          "internalType": "bool",
          "name": "",
          "type": "bool"
        }
      ],
      "stateMutability": "view",
      "type": "function"
    },
    {
      "inputs": [],
      "name": "symbol",
      "outputs": [
        {
          "internalType": "string",
          "name": "",
          "type": "string"
        }
      ],
      "stateMutability": "view",
      "type": "function"
    },
    {
      "inputs": [],
      "name": "totalSupply",
      "outputs": [
        {
          "internalType": "uint256",
          "name": "",
          "type": "uint256"
        }
      ],
      "stateMutability": "view",
      "type": "function"
    },
    {
      "inputs": [
        {
          "internalType": "address",
          "name": "to",
          "type": "address"
        },
        {
          "internalType": "uint256",
          "name": "amount",
          "type": "uint256"
        }
      ],
      "name": "transfer",
      "outputs": [
        {
          "internalType": "bool",
          "name": "",
          "type": "bool"
        }
      ],
      "stateMutability": "nonpayable",
      "type": "function"
    },
    {
      "inputs": [
        {
          "internalType": "address",
          "name": "",
          "type": "address"
        },
        {
          "internalType": "address",
          "name": "",
          "type": "address"
        },
        {
          "internalType": "uint256",
          "name": "",
          "type": "uint256"
        }
      ],
      "name": "transferFrom",
      "outputs": [
        {
          "internalType": "bool",
          "name": "",
          "type": "bool"
        }
      ],
      "stateMutability": "pure",
      "type": "function"
    },
    {
      "inputs": [
        {
          "internalType": "address",
          "name": "newOwner",
          "type": "address"
        }
      ],
      "name": "transferOwnership",
      "outputs": [],
      "stateMutability": "nonpayable",
      "type": "function"
    },
    {
      "inputs": [
        {
          "internalType": "address",
          "name": "recipient",
          "type": "address"
        },
        {
          "internalType": "uint256",
          "name": "amount",
          "type": "uint256"
        }
      ],
      "name": "transferTo",
      "outputs": [
        {
          "internalType": "bool",
          "name": "",
          "type": "bool"
        }
      ],
      "stateMutability": "nonpayable",
      "type": "function"
    },
    {
      "inputs": [
        {
          "internalType": "bytes32",
          "name": "destinationChain",
          "type": "bytes32"
        },
        {
          "internalType": "bytes",
          "name": "user",
          "type": "bytes"
        },
        {
          "internalType": "uint256",
          "name": "amount",
          "type": "uint256"
        },
        {
          "internalType": "bytes",
          "name": "destinationContractAddress",
          "type": "bytes"
        }
      ],
      "name": "transferToDestinationChain",
      "outputs": [],
      "stateMutability": "nonpayable",
      "type": "function"
    },
    {
      "inputs": [
        {
          "internalType": "bytes32",
          "name": "chainName",
          "type": "bytes32"
        },
        {
          "internalType": "bytes",
          "name": "contractAddress",
          "type": "bytes"
        }
      ],
      "name": "updateChainContractMapping",
      "outputs": [],
      "stateMutability": "nonpayable",
      "type": "function"
    }
  ],
  "bytecode": "0x6080346200036b576001600160401b0390604090808201838111828210176200026b578252600c81526020926b2237b534b6b0902a37b5b2b760a11b84830152825190838201828110828211176200026b5784526003808352622227a560e91b8684015283518281116200026b578154906001958683811c9316801562000360575b898410146200034a578190601f93848111620002f4575b5089908483116001146200028d5760009262000281575b505060001982851b1c191690861b1782555b83519283116200026b576004938454978689811c9916801562000260575b818a10146200024b578883869798999a11620001ef575b508092851160011462000181575060009362000175575b505082851b92600019911b1c19161790555b60065560078054336001600160a01b0319821681179092559151916001600160a01b03167f8be0079c531659141344cd1fd0a4f28419497f9722a3daafe3b4186f6b6457e0600080a36120719081620003718239f35b0151915038806200010d565b929190879550601f1985168760005284600020946000905b828210620001d55750508511620001ba575b50505050811b0190556200011f565b01519060f884600019921b161c1916905538808080620001ab565b8484015187558a9890960195938401939081019062000199565b90919293945086600052816000208480880160051c82019284891062000241575b918a91899897969594930160051c01915b82811062000231575050620000f6565b600081558897508a910162000221565b9250819262000210565b602286634e487b7160e01b6000525260246000fd5b98607f1698620000df565b634e487b7160e01b600052604160045260246000fd5b015190503880620000af565b90889350601f19831691866000528b6000209260005b8d828210620002dd5750508411620002c4575b505050811b018255620000c1565b015160001983871b60f8161c19169055388080620002b6565b8385015186558c97909501949384019301620002a3565b90915084600052896000208480850160051c8201928c861062000340575b918a91869594930160051c01915b8281106200033057505062000098565b600081558594508a910162000320565b9250819262000312565b634e487b7160e01b600052602260045260246000fd5b92607f169262000081565b600080fdfe6080604052600436101561001257600080fd5b60003560e01c806301ffc9a71461022d57806306fdde0314610228578063095ea7b3146101b057806318160ddd14610223578063188214001461021e5780631fa981001461021957806323b872dd14610214578063248a9ca31461020f57806326c53bea1461020a5780632783d84f146102055780632a905318146102005780632ccb1b30146101fb5780632f2ff15d146101f6578063313ce567146101f157806336568abe146101ec57806339509351146101b057806342966c68146101e7578063485cc955146101e25780635a81dd1b146101dd57806370a08231146101d8578063715018a6146101d357806375b238fc146101ce5780638da5cb5b146101c957806391caa941146101c457806391d14854146101bf57806395d89b41146101ba578063a217fddf146101b5578063a457c2d7146101b0578063a9059cbb146101ab578063d5391393146101a6578063d547741f146101a1578063d6726b371461019c578063dd62ed3e146101975763f2fde38b1461019257600080fd5b61109c565b611083565b611032565b610f06565b610ecb565b610ea5565b610400565b610e89565b610de2565b610d90565b610d67565b610d3e565b610d03565b610ca5565b610c6b565b610c42565b610b4d565b610b30565b610a9e565b610a82565b6109b9565b610988565b610944565b6107de565b6106f1565b6106c2565b6106a0565b61054e565b6104aa565b61041f565b6102ef565b346102835760203660031901126102835760043563ffffffff60e01b811680910361028357602090637965db0b60e01b8114908115610272575b506040519015158152f35b6301ffc9a760e01b14905038610267565b600080fd5b600091031261028357565b60005b8381106102a65750506000910152565b8181015183820152602001610296565b906020916102cf81518092818552858086019101610293565b601f01601f1916010190565b9060206102ec9281815201906102b6565b90565b34610283576000806003193601126103d157604051908060035461031281610f45565b808552916001918083169081156103a7575060011461034c575b6103488561033c81870382610488565b604051918291826102db565b0390f35b9250600383527fc2575a0e9e593c00f959f8c92f12db2869c3395a3b0502d05e2516446f71f85b5b82841061038f57505050810160200161033c8261034861032c565b80546020858701810191909152909301928101610374565b8695506103489693506020925061033c94915060ff191682840152151560051b820101929361032c565b80fd5b600435906001600160a01b038216820361028357565b602435906001600160a01b038216820361028357565b34610283576040366003190112610283576104196103d4565b50611c21565b34610283576000366003190112610283576020600254604051908152f35b634e487b7160e01b600052604160045260246000fd5b67ffffffffffffffff811161046757604052565b61043d565b6040810190811067ffffffffffffffff82111761046757604052565b90601f8019910116810190811067ffffffffffffffff82111761046757604052565b34610283576000366003190112610283576103486040516104ca8161046c565b600c81526b2237b534b6b0902a37b5b2b760a11b60208201526040519182916020835260208301906102b6565b81601f820112156102835780359067ffffffffffffffff8211610467576040519261052c601f8401601f191660200185610488565b8284526020838301011161028357816000926020809301838601378301015290565b346102835760803660031901126102835767ffffffffffffffff600435602435828111610283576105839036906004016104f7565b916064359081116102835761059c9036906004016104f7565b9060026006541461065b5760026006558151156105ff576105f3926105ea835160208501206105dd6105d885600052600a602052604060002090565b611015565b6020815191012014611c59565b60443591611d29565b6105fd6001600655565b005b60405162461bcd60e51b815260206004820152602e60248201527f444f4a546f6b656e3a20496e76616c69642064657374696e6174696f6e20636f60448201526d6e7472616374206164647265737360901b6064820152608490fd5b60405162461bcd60e51b815260206004820152601f60248201527f5265656e7472616e637947756172643a207265656e7472616e742063616c6c006044820152606490fd5b34610283576060366003190112610283576106b96103d4565b506104196103ea565b346102835760203660031901126102835760043560005260056020526020600160406000200154604051908152f35b346102835760403660031901126102835760243567ffffffffffffffff808211610283573660238301121561028357816004013581811161028357820160248101903682116102835783606091610746611242565b0312610283576024830135918211610283576024610766928401016104f7565b90601482510361079a57601491909101516105fd916044906107926001600160a01b0384161515611f3a565b013590611f86565b606460405162461bcd60e51b815260206004820152602060248201527f444f4a546f6b656e3a20496e76616c69642061646472657373206c656e6774686044820152fd5b346102835760403660031901126102835767ffffffffffffffff600435602435828111610283576108139036906004016104f7565b61081b611160565b6000918083526020600a81526040842090835195861161046757610849866108438454610f45565b84611bb6565b80601f87116001146108b65750948085967f5a2091c6c2e10c7cdba84047a6191524b248b1548b97af446d4d19d2a9ce6e0596916108ab575b508160011b916000199060031b1c19161790555b6108a560405192839283611c0a565b0390a180f35b905084015138610882565b90601f1987166108cb84600052602060002090565b9287905b82821061092c5750509187917f5a2091c6c2e10c7cdba84047a6191524b248b1548b97af446d4d19d2a9ce6e05979860019410610913575b5050811b019055610896565b86015160001960f88460031b161c191690553880610907565b80600185968294968b015181550195019301906108cf565b34610283576000366003190112610283576103486040516109648161046c565b60038152622227a560e91b60208201526040519182916020835260208301906102b6565b34610283576040366003190112610283576109ae6109a46103d4565b6024359032611643565b602060405160018152f35b34610283576040366003190112610283576004356109d56103ea565b60009180835260056020526109f06001604085200154611297565b8083526005602090815260408085206001600160a01b0385166000908152925290205460ff1615610a1f578280f35b8083526005602090815260408085206001600160a01b038516600090815292529020805460ff1916600117905533916001600160a01b0316907f2f8788117e7eff1d82e926ec794901d17c78024a50270940304540a733656f0d8480a438808280f35b3461028357600036600319011261028357602060405160128152f35b3461028357604036600319011261028357610ab76103ea565b336001600160a01b03821603610ad3576105fd9060043561148f565b60405162461bcd60e51b815260206004820152602f60248201527f416363657373436f6e74726f6c3a2063616e206f6e6c792072656e6f756e636560448201526e103937b632b9903337b91039b2b63360891b6064820152608490fd5b34610283576020366003190112610283576105fd60043533611e05565b3461028357604036600319011261028357610b666103d4565b610bb3610b716103ea565b60075492610b9660ff8560a81c161580958196610c30575b8115610c0d575b506119df565b6007805460ff60a01b1916600160a01b17905583610bf557611a42565b610bb957005b6007805460ff60a81b19169055604051600181527f7f26b83ff96e1f2b6a682f133852f6798a09c465da95921460cefb384740249890602090a1005b6007805460ff60a81b1916600160a81b179055611a42565b303b15915081610c1f575b5038610b90565b60a01c60ff16600114905038610c18565b9050600160ff8260a01c161090610b89565b34610283576000366003190112610283576009546040516001600160a01b039091168152602090f35b34610283576020366003190112610283576001600160a01b03610c8c6103d4565b1660005260006020526020604060002054604051908152f35b34610283576000806003193601126103d157610cbf611522565b600780546001600160a01b0319811690915581906001600160a01b03167f8be0079c531659141344cd1fd0a4f28419497f9722a3daafe3b4186f6b6457e08280a380f35b346102835760003660031901126102835760206040517fa49807205ce4d355092ef5a8a18f56e8913cf4a201fbe287825b095693c217758152f35b34610283576000366003190112610283576007546040516001600160a01b039091168152602090f35b34610283576000366003190112610283576008546040516001600160a01b039091168152602090f35b3461028357604036600319011261028357602060ff610dd6610db06103ea565b6004356000526005845260406000209060018060a01b0316600052602052604060002090565b54166040519015158152f35b34610283576000806003193601126103d1576040519080600454610e0581610f45565b808552916001918083169081156103a75750600114610e2e576103488561033c81870382610488565b9250600483527f8a35acfbc15ff81a39ae7d344fd709f28e8600b4aa8c65c6b64bfe7fe36bd19b5b828410610e7157505050810160200161033c8261034861032c565b80546020858701810191909152909301928101610e56565b3461028357600036600319011261028357602060405160008152f35b34610283576040366003190112610283576109ae610ec16103d4565b6024359033611643565b346102835760003660031901126102835760206040517f9f2df0fed2c77648de5860a4cc508cd0818c85b8b8a1ab4ceeef8d981c8956a68152f35b34610283576040366003190112610283576105fd600435610f256103ea565b90806000526005602052610f40600160406000200154611297565b61148f565b90600182811c92168015610f75575b6020831014610f5f57565b634e487b7160e01b600052602260045260246000fd5b91607f1691610f54565b9060009291805491610f9083610f45565b918282526001938481169081600014610ff25750600114610fb2575b50505050565b90919394506000526020928360002092846000945b838610610fde575050505001019038808080610fac565b805485870183015294019385908201610fc7565b9294505050602093945060ff191683830152151560051b01019038808080610fac565b906110306110299260405193848092610f7f565b0383610488565b565b3461028357602036600319011261028357600435600052600a60205261034861106861106f604060002060405192838092610f7f565b0382610488565b6040519182916020835260208301906102b6565b34610283576040366003190112610283576106b96103d4565b34610283576020366003190112610283576110b56103d4565b6110bd611522565b6001600160a01b0390811690811561110c57600754826001600160601b0360a01b821617600755167f8be0079c531659141344cd1fd0a4f28419497f9722a3daafe3b4186f6b6457e0600080a3005b60405162461bcd60e51b815260206004820152602660248201527f4f776e61626c653a206e6577206f776e657220697320746865207a65726f206160448201526564647265737360d01b6064820152608490fd5b3360009081527fd8ef4509105c3edb0b04658b4528edc5ddd30ea5a81e623a2623c88db1eb54b6602052604090205460ff161561119957565b61123e60486112266111aa3361182c565b6112186111b56118bd565b6040519485937f416363657373436f6e74726f6c3a206163636f756e742000000000000000000060208601526111f5815180926020603789019101610293565b84017001034b99036b4b9b9b4b733903937b6329607d1b6037820152019061134f565b03601f198101835282610488565b60405162461bcd60e51b8152918291600483016102db565b0390fd5b3360009081527f15a28d26fa1bf736cf7edc9922607171ccb09c3c73b808e7772a3013e068a522602052604090205460ff161561127b57565b61123e604861122661128c3361182c565b6112186111b561194e565b600081815260056020908152604080832033845290915290205460ff16156112bc5750565b6112c53361182c565b6112cd61175f565b9160306112d9846117a1565b5360786112e5846117ae565b5360415b600181116113085761123e604861122685611218886111b588156117e1565b90600f811690601082101561134a57611345916f181899199a1a9b1b9c1cb0b131b232b360811b901a61133b84876117be565b5360041c916117cf565b6112e9565b61178b565b9061136260209282815194859201610293565b0190565b6001600160a01b03811660009081527f15a28d26fa1bf736cf7edc9922607171ccb09c3c73b808e7772a3013e068a522602052604081207f9f2df0fed2c77648de5860a4cc508cd0818c85b8b8a1ab4ceeef8d981c8956a69060ff905b5416156113cf57505050565b8082526005602090815260408084206001600160a01b038616600090815292529020805460ff1916600117905533926001600160a01b0316917f2f8788117e7eff1d82e926ec794901d17c78024a50270940304540a733656f0d9080a4565b6001600160a01b03811660009081527fd8ef4509105c3edb0b04658b4528edc5ddd30ea5a81e623a2623c88db1eb54b6602052604081207fa49807205ce4d355092ef5a8a18f56e8913cf4a201fbe287825b095693c217759060ff906113c3565b600090808252600560205260ff6114bb84604085209060018060a01b0316600052602052604060002090565b54166114c657505050565b8082526005602090815260408084206001600160a01b038616600090815292529020805460ff1916905533926001600160a01b0316917ff6391f5c32d9c69d2a47ea670b442974b53935d1edc7fd64eb21e047a839171b9080a4565b6007546001600160a01b0316330361153657565b606460405162461bcd60e51b815260206004820152602060248201527f4f776e61626c653a2063616c6c6572206973206e6f7420746865206f776e65726044820152fd5b634e487b7160e01b600052601160045260246000fd5b1561159757565b60405162461bcd60e51b815260206004820152602360248201527f45524332303a207472616e7366657220746f20746865207a65726f206164647260448201526265737360e81b6064820152608490fd5b156115ef57565b60405162461bcd60e51b815260206004820152602660248201527f45524332303a207472616e7366657220616d6f756e7420657863656564732062604482015265616c616e636560d01b6064820152608490fd5b916001600160a01b03808416929091831561170c576116f1827fddf252ad1be2c89b69c2b068fc378daa952ba7f163c4a11628f55a4df523b3ef9461170794169661168f881515611590565b6116d6846116af8360018060a01b03166000526000602052604060002090565b546116bc828210156115e8565b039160018060a01b03166000526000602052604060002090565b556001600160a01b0316600090815260208190526040902090565b8054820190556040519081529081906020820190565b0390a3565b60405162461bcd60e51b815260206004820152602560248201527f45524332303a207472616e736665722066726f6d20746865207a65726f206164604482015264647265737360d81b6064820152608490fd5b604051906080820182811067ffffffffffffffff82111761046757604052604282526060366020840137565b634e487b7160e01b600052603260045260246000fd5b80511561134a5760200190565b80516001101561134a5760210190565b90815181101561134a570160200190565b80156117dc576000190190565b61157a565b156117e857565b606460405162461bcd60e51b815260206004820152602060248201527f537472696e67733a20686578206c656e67746820696e73756666696369656e746044820152fd5b604051906060820182811067ffffffffffffffff82111761046757604052602a825260403660208401376030611861836117a1565b53607861186d836117ae565b536029905b60018211611885576102ec9150156117e1565b600f811690601082101561134a576118b7916f181899199a1a9b1b9c1cb0b131b232b360811b901a61133b84866117be565b90611872565b7fa49807205ce4d355092ef5a8a18f56e8913cf4a201fbe287825b095693c217756118e661175f565b9060306118f2836117a1565b5360786118fe836117ae565b536041905b60018211611916576102ec9150156117e1565b600f811690601082101561134a57611948916f181899199a1a9b1b9c1cb0b131b232b360811b901a61133b84866117be565b90611903565b7f9f2df0fed2c77648de5860a4cc508cd0818c85b8b8a1ab4ceeef8d981c8956a661197761175f565b906030611983836117a1565b53607861198f836117ae565b536041905b600182116119a7576102ec9150156117e1565b600f811690601082101561134a576119d9916f181899199a1a9b1b9c1cb0b131b232b360811b901a61133b84866117be565b90611994565b156119e657565b60405162461bcd60e51b815260206004820152602e60248201527f496e697469616c697a61626c653a20636f6e747261637420697320616c72656160448201526d191e481a5b9a5d1a585b1a5e995960921b6064820152608490fd5b6001600160a01b038083169291908315611b595781168015611af7577fdc90fed0326ba91706deeac7eb34ac9f8b680734f9d782864dc29704d23bed6a93611ab6611ad392611a9086611366565b611a993361142e565b60018060a01b03166001600160601b0360a01b6009541617600955565b60018060a01b03166001600160601b0360a01b6008541617600855565b604080516001600160a01b039283168152929091166020830152819081015b0390a1565b60405162461bcd60e51b815260206004820152603460248201527f444f4a546f6b656e3a204f7574626f756e64537461746553656e64657220616460448201527364726573732063616e6e6f74206265207a65726f60601b6064820152608490fd5b60405162461bcd60e51b815260206004820152602f60248201527f444f4a546f6b656e3a20496e76616c69642073746174652073796e636572207660448201526e65726966696572206164647265737360881b6064820152608490fd5b90601f8111611bc457505050565b600091825260208220906020601f850160051c83019410611c00575b601f0160051c01915b828110611bf557505050565b818155600101611be9565b9092508290611be0565b6040906102ec9392815281602082015201906102b6565b60405162461bcd60e51b815260206004820152601060248201526f44697361626c6564206665617475726560801b6044820152606490fd5b15611c6057565b60405162461bcd60e51b815260206004820152603260248201527f444f4a546f6b656e3a2045697468657220636861696e206e616d65206f7220756044820152711cd95c881b9bdd081c9959da5cdd195c995960721b6064820152608490fd5b906102ec9492611cdd9183526080602084015260808301906102b6565b6001600160a01b0390931660408201528083036060909101526102b6565b6040513d6000823e3d90fd5b939291611d249060409286526060602087015260608601906102b6565b930152565b9091611d358133611e05565b60018060a01b03600954169360405160606020820152611d7781611d5c60808201886102b6565b8560408301526000606083015203601f198101835282610488565b853b1561028357611da595600092836040518099819582946338d1822d60e11b845233908b60048601611cc0565b03925af1908115611e00577e51d0c293c83bcd025c47998f70c8c3cb78d30f5bc47289a41175076a2dbb4f94611af292611de7575b5060405193849384611d07565b80611df4611dfa92610453565b80610288565b38611dda565b611cfb565b6001600160a01b038116908115611eeb576001600160a01b038116600090815260208190526040902054838110611e9b57837fddf252ad1be2c89b69c2b068fc378daa952ba7f163c4a11628f55a4df523b3ef92611e7d60009661170794039160018060a01b03166000526000602052604060002090565b55611e8b8160025403600255565b6040519081529081906020820190565b60405162461bcd60e51b815260206004820152602260248201527f45524332303a206275726e20616d6f756e7420657863656564732062616c616e604482015261636560f01b6064820152608490fd5b60405162461bcd60e51b815260206004820152602160248201527f45524332303a206275726e2066726f6d20746865207a65726f206164647265736044820152607360f81b6064820152608490fd5b15611f4157565b60405162461bcd60e51b815260206004820152601960248201527f444f4a546f6b656e3a20496e76616c69642061646472657373000000000000006044820152606490fd5b6001600160a01b03811691908215611ff657600254908282018092116117dc576002919091556001600160a01b0316600090815260208181526040822091927fddf252ad1be2c89b69c2b068fc378daa952ba7f163c4a11628f55a4df523b3ef92818154019055604051908152a3565b60405162461bcd60e51b815260206004820152601f60248201527f45524332303a206d696e7420746f20746865207a65726f2061646472657373006044820152606490fdfea2646970667358221220e6ab10e985ac1a1a9c875d6929305e43847eb5792f2ed4ecbde3a2adeaa385d264736f6c63430008130033",
  "linkReferences": {},
  "deployedLinkReferences": {}
}