{
  "_format": "hh-sol-artifact-1",
  "contractName": "RouterUpgradeable",
  "sourceName": "contracts/router/RouterUpgradable.sol",
  "abi": [
    {
      "inputs": [],
      "stateMutability": "nonpayable",
      "type": "constructor"
    },
    {
      "inputs": [],
      "name": "InvalidAsset",
      "type": "error"
    },
    {
      "anonymous": false,
      "inputs": [
        {
          "indexed": false,
          "internalType": "address",
          "name": "previousAdmin",
          "type": "address"
        },
        {
          "indexed": false,
          "internalType": "address",
          "name": "newAdmin",
          "type": "address"
        }
      ],
      "name": "AdminChanged",
      "type": "event"
    },
    {
      "anonymous": false,
      "inputs": [
        {
          "indexed": true,
          "internalType": "address",
          "name": "beacon",
          "type": "address"
        }
      ],
      "name": "BeaconUpgraded",
      "type": "event"
    },
    {
      "anonymous": false,
      "inputs": [
        {
          "indexed": true,
          "internalType": "address",
          "name": "to",
          "type": "address"
        },
        {
          "indexed": true,
          "internalType": "address",
          "name": "asset",
          "type": "address"
        },
        {
          "indexed": false,
          "internalType": "uint256",
          "name": "amount",
          "type": "uint256"
        },
        {
          "indexed": false,
          "internalType": "string",
          "name": "memo",
          "type": "string"
        }
      ],
      "name": "Deposit",
      "type": "event"
    },
    {
      "anonymous": false,
      "inputs": [
        {
          "indexed": false,
          "internalType": "uint8",
          "name": "version",
          "type": "uint8"
        }
      ],
      "name": "Initialized",
      "type": "event"
    },
    {
      "anonymous": false,
      "inputs": [
        {
          "indexed": true,
          "internalType": "address",
          "name": "previousOwner",
          "type": "address"
        },
        {
          "indexed": true,
          "internalType": "address",
          "name": "newOwner",
          "type": "address"
        }
      ],
      "name": "OwnershipTransferred",
      "type": "event"
    },
    {
      "anonymous": false,
      "inputs": [
        {
          "indexed": true,
          "internalType": "address",
          "name": "oldVault",
          "type": "address"
        },
        {
          "indexed": true,
          "internalType": "address",
          "name": "newVault",
          "type": "address"
        },
        {
          "indexed": false,
          "internalType": "address",
          "name": "asset",
          "type": "address"
        },
        {
          "indexed": false,
          "internalType": "uint256",
          "name": "amount",
          "type": "uint256"
        },
        {
          "indexed": false,
          "internalType": "string",
          "name": "memo",
          "type": "string"
        }
      ],
      "name": "TransferAllowance",
      "type": "event"
    },
    {
      "anonymous": false,
      "inputs": [
        {
          "indexed": true,
          "internalType": "address",
          "name": "vault",
          "type": "address"
        },
        {
          "indexed": true,
          "internalType": "address",
          "name": "to",
          "type": "address"
        },
        {
          "indexed": false,
          "internalType": "address",
          "name": "asset",
          "type": "address"
        },
        {
          "indexed": false,
          "internalType": "uint256",
          "name": "amount",
          "type": "uint256"
        },
        {
          "indexed": false,
          "internalType": "string",
          "name": "memo",
          "type": "string"
        }
      ],
      "name": "TransferOut",
      "type": "event"
    },
    {
      "anonymous": false,
      "inputs": [
        {
          "indexed": true,
          "internalType": "address",
          "name": "vault",
          "type": "address"
        },
        {
          "indexed": false,
          "internalType": "address",
          "name": "target",
          "type": "address"
        },
        {
          "indexed": false,
          "internalType": "uint256",
          "name": "amount",
          "type": "uint256"
        },
        {
          "indexed": false,
          "internalType": "address",
          "name": "finalAsset",
          "type": "address"
        },
        {
          "indexed": false,
          "internalType": "address",
          "name": "to",
          "type": "address"
        },
        {
          "indexed": false,
          "internalType": "uint256",
          "name": "amountOutMin",
          "type": "uint256"
        },
        {
          "indexed": false,
          "internalType": "string",
          "name": "memo",
          "type": "string"
        }
      ],
      "name": "TransferOutAndCall",
      "type": "event"
    },
    {
      "anonymous": false,
      "inputs": [
        {
          "indexed": true,
          "internalType": "address",
          "name": "implementation",
          "type": "address"
        }
      ],
      "name": "Upgraded",
      "type": "event"
    },
    {
      "anonymous": false,
      "inputs": [
        {
          "indexed": true,
          "internalType": "address",
          "name": "oldVault",
          "type": "address"
        },
        {
          "indexed": true,
          "internalType": "address",
          "name": "newVault",
          "type": "address"
        },
        {
          "components": [
            {
              "internalType": "address",
              "name": "asset",
              "type": "address"
            },
            {
              "internalType": "uint256",
              "name": "amount",
              "type": "uint256"
            }
          ],
          "indexed": false,
          "internalType": "struct RouterUpgradeable.Coin[]",
          "name": "coins",
          "type": "tuple[]"
        },
        {
          "indexed": false,
          "internalType": "string",
          "name": "memo",
          "type": "string"
        }
      ],
      "name": "VaultTransfer",
      "type": "event"
    },
    {
      "inputs": [],
      "name": "DOJ_TOKEN",
      "outputs": [
        {
          "internalType": "address",
          "name": "",
          "type": "address"
        }
      ],
      "stateMutability": "view",
      "type": "function"
    },
    {
      "inputs": [
        {
          "internalType": "address",
          "name": "newOwner",
          "type": "address"
        }
      ],
      "name": "changeOwner",
      "outputs": [],
      "stateMutability": "nonpayable",
      "type": "function"
    },
    {
      "inputs": [
        {
          "internalType": "address payable",
          "name": "vault",
          "type": "address"
        },
        {
          "internalType": "address",
          "name": "asset",
          "type": "address"
        },
        {
          "internalType": "uint256",
          "name": "amount",
          "type": "uint256"
        },
        {
          "internalType": "string",
          "name": "memo",
          "type": "string"
        },
        {
          "internalType": "uint256",
          "name": "expiration",
          "type": "uint256"
        }
      ],
      "name": "depositWithExpiry",
      "outputs": [],
      "stateMutability": "payable",
      "type": "function"
    },
    {
      "inputs": [
        {
          "internalType": "address",
          "name": "_dojToken",
          "type": "address"
        }
      ],
      "name": "initialize",
      "outputs": [],
      "stateMutability": "nonpayable",
      "type": "function"
    },
    {
      "inputs": [],
      "name": "owner",
      "outputs": [
        {
          "internalType": "address",
          "name": "",
          "type": "address"
        }
      ],
      "stateMutability": "view",
      "type": "function"
    },
    {
      "inputs": [],
      "name": "proxiableUUID",
      "outputs": [
        {
          "internalType": "bytes32",
          "name": "",
          "type": "bytes32"
        }
      ],
      "stateMutability": "view",
      "type": "function"
    },
    {
      "inputs": [],
      "name": "renounceOwnership",
      "outputs": [],
      "stateMutability": "nonpayable",
      "type": "function"
    },
    {
      "inputs": [
        {
          "internalType": "address",
          "name": "router",
          "type": "address"
        },
        {
          "internalType": "address payable",
          "name": "fortuna",
          "type": "address"
        },
        {
          "components": [
            {
              "internalType": "address",
              "name": "asset",
              "type": "address"
            },
            {
              "internalType": "uint256",
              "name": "amount",
              "type": "uint256"
            }
          ],
          "internalType": "struct RouterUpgradeable.Coin[]",
          "name": "coins",
          "type": "tuple[]"
        },
        {
          "internalType": "string",
          "name": "memo",
          "type": "string"
        }
      ],
      "name": "returnVaultAssets",
      "outputs": [],
      "stateMutability": "payable",
      "type": "function"
    },
    {
      "inputs": [
        {
          "internalType": "address",
          "name": "router",
          "type": "address"
        },
        {
          "internalType": "address",
          "name": "newVault",
          "type": "address"
        },
        {
          "internalType": "address",
          "name": "asset",
          "type": "address"
        },
        {
          "internalType": "uint256",
          "name": "amount",
          "type": "uint256"
        },
        {
          "internalType": "string",
          "name": "memo",
          "type": "string"
        }
      ],
      "name": "transferAllowance",
      "outputs": [],
      "stateMutability": "nonpayable",
      "type": "function"
    },
    {
      "inputs": [
        {
          "internalType": "address payable",
          "name": "to",
          "type": "address"
        },
        {
          "internalType": "address",
          "name": "asset",
          "type": "address"
        },
        {
          "internalType": "uint256",
          "name": "amount",
          "type": "uint256"
        },
        {
          "internalType": "string",
          "name": "memo",
          "type": "string"
        }
      ],
      "name": "transferOut",
      "outputs": [],
      "stateMutability": "payable",
      "type": "function"
    },
    {
      "inputs": [
        {
          "internalType": "address payable",
          "name": "target",
          "type": "address"
        },
        {
          "internalType": "address",
          "name": "finalToken",
          "type": "address"
        },
        {
          "internalType": "address",
          "name": "to",
          "type": "address"
        },
        {
          "internalType": "uint256",
          "name": "amountOutMin",
          "type": "uint256"
        },
        {
          "internalType": "string",
          "name": "memo",
          "type": "string"
        }
      ],
      "name": "transferOutAndCall",
      "outputs": [],
      "stateMutability": "payable",
      "type": "function"
    },
    {
      "inputs": [
        {
          "internalType": "address",
          "name": "newOwner",
          "type": "address"
        }
      ],
      "name": "transferOwnership",
      "outputs": [],
      "stateMutability": "nonpayable",
      "type": "function"
    },
    {
      "inputs": [
        {
          "internalType": "address",
          "name": "newImplementation",
          "type": "address"
        }
      ],
      "name": "upgradeTo",
      "outputs": [],
      "stateMutability": "nonpayable",
      "type": "function"
    },
    {
      "inputs": [
        {
          "internalType": "address",
          "name": "newImplementation",
          "type": "address"
        },
        {
          "internalType": "bytes",
          "name": "data",
          "type": "bytes"
        }
      ],
      "name": "upgradeToAndCall",
      "outputs": [],
      "stateMutability": "payable",
      "type": "function"
    },
    {
      "inputs": [
        {
          "internalType": "address",
          "name": "vault",
          "type": "address"
        },
        {
          "internalType": "address",
          "name": "token",
          "type": "address"
        }
      ],
      "name": "vaultAllowance",
      "outputs": [
        {
          "internalType": "uint256",
          "name": "amount",
          "type": "uint256"
        }
      ],
      "stateMutability": "view",
      "type": "function"
    }
  ],
  "bytecode": "0x60a080604052346100dc57306080526000549060ff8260081c1661008a575060ff8082160361004f575b604051611a7e90816100e282396080518181816105a10152818161069e0152610d190152f35b60ff90811916176000557f7f26b83ff96e1f2b6a682f133852f6798a09c465da95921460cefb3847402498602060405160ff8152a138610029565b62461bcd60e51b815260206004820152602760248201527f496e697469616c697a61626c653a20636f6e747261637420697320696e697469604482015266616c697a696e6760c81b6064820152608490fd5b600080fdfe6080604081815260048036101561001557600080fd5b600092833560e01c908162594c271461132b5750806303b6a673146112e25780631b738b32146112285780632923e82e14610fa55780633659cfe614610cf25780634039fd4b14610b7557806344bc937b146108fc5780634f1ef2861461064e57806352d1902d1461058c578063574da7171461039a578063715018a6146103395780638da5cb5b1461030c578063a6f9dae1146102e1578063c4d66de81461015b5763f2fde38b146100c757600080fd5b34610157576020366003190112610157576100e0611350565b916100e9611470565b6001600160a01b038316156101055783610102846114c8565b80f35b906020608492519162461bcd60e51b8352820152602660248201527f4f776e61626c653a206e6577206f776e657220697320746865207a65726f206160448201526564647265737360d01b6064820152fd5b8280fd5b503461015757602036600319011261015757610175611350565b90835460ff8160081c1615918280936102d4575b80156102bd575b15610263575060ff198116600117855581610252575b50600160fd556101c560ff855460081c166101c081611770565b611770565b6101ce336114c8565b8354916101ed60ff8460081c166101e481611770565b6101c081611770565b600160c95560018060a01b03166bffffffffffffffffffffffff60a01b60fb54161760fb5561021a578280f35b61ff001916825551600181527f7f26b83ff96e1f2b6a682f133852f6798a09c465da95921460cefb384740249890602090a138808280f35b61ffff1916610101178455386101a6565b608490602086519162461bcd60e51b8352820152602e60248201527f496e697469616c697a61626c653a20636f6e747261637420697320616c72656160448201526d191e481a5b9a5d1a585b1a5e995960921b6064820152fd5b50303b1580156101905750600160ff831614610190565b50600160ff831610610189565b5034610157576020366003190112610157576102fb611350565b91610304611470565b6100e9611470565b50503461033557816003193601126103355760975490516001600160a01b039091168152602090f35b5080fd5b8334610397578060031936011261039757610352611470565b609780546001600160a01b031981169091556000906001600160a01b03167f8be0079c531659141344cd1fd0a4f28419497f9722a3daafe3b4186f6b6457e08280a380f35b80fd5b506080366003190112610157576103af611350565b6103b761136b565b9067ffffffffffffffff90604435606435838111610588576103dc9036908701611452565b946103e56117e8565b6001600160a01b03938585168061049957505050503493868581808215928361048f575b8280929181928a8a1690f11561045e575b5050610453907fa9cd03aa3c1b4515114539cd53d22085129d495cb9e9f9af77864526240f1bf79495965b51938493169633968461183e565b0390a3600160c95580f35b868291610485575b8280929181923390f11561047b57863861041a565b85513d88823e3d90fd5b6108fc9150610466565b6108fc9150610409565b969596338a5260fc602052888a2090600052602052876000206104bd848254611862565b9055875190602082019263a9059cbb60e01b84528686166024840152846044840152604483526080830191838310908311176105735750885251889182919082895af1610508611663565b81610544575b5015610540577fa9cd03aa3c1b4515114539cd53d22085129d495cb9e9f9af77864526240f1bf7936104539196610445565b8680fd5b8051801592508215610559575b50503861050e565b61056c92506020809183010191016117d0565b3880610551565b604190634e487b7160e01b6000525260246000fd5b8780fd5b508234610397578060031936011261039757507f00000000000000000000000000000000000000000000000000000000000000006001600160a01b031630036105e65760208251600080516020611a298339815191528152f35b6020608492519162461bcd60e51b8352820152603860248201527f555550535570677261646561626c653a206d757374206e6f742062652063616c60448201527f6c6564207468726f7567682064656c656761746563616c6c00000000000000006064820152fd5b50908060031936011261015757610663611350565b9060243567ffffffffffffffff81116108f857366023820112156108f857610694903690602481870135910161141b565b6001600160a01b037f000000000000000000000000000000000000000000000000000000000000000081169291906106ce30851415611511565b6106eb600080516020611a29833981519152948286541614611572565b6106f3611470565b7f4910fdfa16fed3260ed0e7147f7cc6da11a60208b5b9406d12a635614ffd91435460ff161561072b575050505061010291506115d3565b82516352d1902d60e01b81526020959394918416919086818981865afa600091816108c9575b506107b057855162461bcd60e51b8152808901889052602e60248201527f45524331393637557067726164653a206e657720696d706c656d656e7461746960448201526d6f6e206973206e6f74205555505360901b6064820152608490fd5b969192939495960361087457506107c6836115d3565b7fbc7cd75a20ee27fd9adebab32041f755214dbc6bffa90cc0225b39da2e5c2d3b600080a280511580159061086c575b610802575b5050505080f35b6000809161086295660819985a5b195960ca1b865196610821886113c1565b602788527f416464726573733a206c6f772d6c6576656c2064656c65676174652063616c6c8389015287015281519101845af461085c611663565b91611693565b50388080806107fb565b5060016107f6565b845162461bcd60e51b8152908101869052602960248201527f45524331393637557067726164653a20756e737570706f727465642070726f786044820152681a58589b195555525160ba1b6064820152608490fd5b90918882813d83116108f1575b6108e081836113dd565b810103126103975750519038610751565b503d6108d6565b8480fd5b509060a036600319011261015757610912611350565b61091a61136b565b906044359160643567ffffffffffffffff81116105405761093e9036908701611452565b92608435421015610b40576109516117e8565b6001600160a01b0391821695866109c8575050349086808380156109be575b82809291819286891690f115610540577fef519b7eb82aaf6ac376a6df2d793843ebfd593de5f1a0601d3cc6ab49ebb39593610453915b865194859485528760208601521695830190611730565b6108fc9150610970565b60fb549394938316939291878503610b315734610afd5786516302ccb1b360e41b815230838201908152602081810184905292968b938893929091839182908790829060400103925af18015610af357610ac5575b508360fb541692833b1561015757602490838a519586948593630852cd8d60e31b85528401525af18015610abb57610a7e575b507fef519b7eb82aaf6ac376a6df2d793843ebfd593de5f1a0601d3cc6ab49ebb395939291610453916109a7565b916104539197610ab07fef519b7eb82aaf6ac376a6df2d793843ebfd593de5f1a0601d3cc6ab49ebb395969594611397565b979150919293610a50565b86513d8a823e3d90fd5b610ae59060203d8111610aec575b610add81836113dd565b8101906117d0565b5038610a1d565b503d610ad3565b89513d85823e3d90fd5b865162461bcd60e51b8152602081840152600e60248201526d0eadccaf0e0cac6e8cac840cae8d60931b6044820152606490fd5b508551636448d6e960e11b8152fd5b845162461bcd60e51b8152602081880152600f60248201526e149bdd5d195c8e88195e1c1a5c9959608a1b6044820152606490fd5b5060a036600319011261015757610b8a611350565b90610b9361136b565b90610b9c611381565b90606435916084359367ffffffffffffffff94858111610cee57610bc39036908501611452565b95610bcc6117e8565b60018060a01b0380911695885191806020840194631230c53d60e21b8652169485602485015216948560448401528660648401526064835260a083019183831090831117610cdb5750885251889182919034885af1610c29611663565b5015610c8d575b857f8e5841bcd195b858d53b38bcf91b38d47f3bc800469b6812d35451ab619c6f6c9596519485523460208601528401526060830152608082015260c060a082015280610c82339460c0830190611730565b0390a2600160c95580f35b863415818082610cd2575b81808092883491f115610cad575b5050610c30565b8190610cc9575b8180809234903390f11561047b578638610ca6565b506108fc610cb4565b506108fc610c98565b634e487b7160e01b8b526041905260248afd5b8880fd5b50903461015757602080600319360112610fa157610d0e611350565b916001600160a01b037f0000000000000000000000000000000000000000000000000000000000000000811690610d4730831415611511565b610d64600080516020611a29833981519152928284541614611572565b610d6c611470565b8251918483019183831067ffffffffffffffff841117610f8e578285528884527f4910fdfa16fed3260ed0e7147f7cc6da11a60208b5b9406d12a635614ffd91435460ff1615610dc65750505050505061010291506115d3565b8693949596169085516352d1902d60e01b815287818a81865afa8a9181610f5b575b50610e4757865162461bcd60e51b8152808a01899052602e60248201527f45524331393637557067726164653a206e657720696d706c656d656e7461746960448201526d6f6e206973206e6f74205555505360901b6064820152608490fd5b9791929395949703610f06575090869291610e61856115d3565b7fbc7cd75a20ee27fd9adebab32041f755214dbc6bffa90cc0225b39da2e5c2d3b8480a2855115801590610eff575b610e9e575b50505050505080f35b610ef395660819985a5b195960ca1b837f416464726573733a206c6f772d6c6576656c2064656c65676174652063616c6c86955198610edc8a6113c1565b60278a528901528701525190845af461085c611663565b50388080838180610e95565b5082610e90565b835162461bcd60e51b8152908101869052602960248201527f45524331393637557067726164653a20756e737570706f727465642070726f786044820152681a58589b195555525160ba1b6064820152608490fd5b9091508881813d8311610f87575b610f7381836113dd565b81010312610f8357519038610de8565b8a80fd5b503d610f69565b634e487b7160e01b895260418852602489fd5b8380fd5b50608036600319011261015757610fba611350565b92610fc361136b565b936044359167ffffffffffffffff95868411610335573660238501121561033557838501359487861161121557865197602095611005878960051b018b6113dd565b878a52868a0180986024809160061b84010192368411610588578101915b8383106111bb5750505050606435908111610fa15761104491369101611452565b61104c6117e8565b6001600160a01b0393808516300361115c575094958184169590835b89518110156110a6578061109c8b89611092848b6110896110a19886611894565b51511693611894565b510151908b6118be565b611885565b611068565b508051818152985189820181905294989397929695919460608501939189905b82821061113a575050505093869791937f281daef48d91e5cd3d32db0784f6af69cd8d8d2e8c612a3568dca51ded51e08f8480611111888c9b989a8c9b8c9b03908401523395611730565b0390a35b82903415611130575b34921690f11561039757600160c95580f35b6108fc915061111e565b835180518d1687528501518587015294850194928401926001909101906110c6565b9550969391809391965092818716935b85518110156111a6578061109c8a856111886111a1958b611894565b51511687611196858c611894565b51015190898c61192b565b61116c565b50965086959150859450849350839250611115565b8b83360312610588578b518c810181811087821117611203578d5283356001600160a01b03811681036111ff578152838b01358b8201528152918b01918901611023565b8980fd5b634e487b7160e01b8a5260418852838afd5b634e487b7160e01b835260419052602482fd5b50346101575760a036600319011261015757611242611350565b61124a61136b565b90611253611381565b91606435936084359067ffffffffffffffff82116105885761127791369101611452565b946112806117e8565b6001600160a01b039280841630036112ce575084956104539161044586977f05b90458f953d3fcb2d7fb25616a2fddeca749d0c47cc5c9832d0266b5346eea97866118be565b600160c95580f35b90506112dd959493925061192b565b6112c6565b50503461033557806003193601126103355780602092611300611350565b61130861136b565b6001600160a01b03918216835260fc865283832091168252845220549051908152f35b84903461033557816003193601126103355760fb546001600160a01b03168152602090f35b600435906001600160a01b038216820361136657565b600080fd5b602435906001600160a01b038216820361136657565b604435906001600160a01b038216820361136657565b67ffffffffffffffff81116113ab57604052565b634e487b7160e01b600052604160045260246000fd5b6060810190811067ffffffffffffffff8211176113ab57604052565b90601f8019910116810190811067ffffffffffffffff8211176113ab57604052565b67ffffffffffffffff81116113ab57601f01601f191660200190565b929192611427826113ff565b9161143560405193846113dd565b829481845281830111611366578281602093846000960137010152565b9080601f830112156113665781602061146d9335910161141b565b90565b6097546001600160a01b0316330361148457565b606460405162461bcd60e51b815260206004820152602060248201527f4f776e61626c653a2063616c6c6572206973206e6f7420746865206f776e65726044820152fd5b609780546001600160a01b039283166001600160a01b0319821681179092559091167f8be0079c531659141344cd1fd0a4f28419497f9722a3daafe3b4186f6b6457e0600080a3565b1561151857565b60405162461bcd60e51b815260206004820152602c60248201527f46756e6374696f6e206d7573742062652063616c6c6564207468726f7567682060448201526b19195b1959d85d1958d85b1b60a21b6064820152608490fd5b1561157957565b60405162461bcd60e51b815260206004820152602c60248201527f46756e6374696f6e206d7573742062652063616c6c6564207468726f7567682060448201526b6163746976652070726f787960a01b6064820152608490fd5b803b1561160857600080516020611a2983398151915280546001600160a01b0319166001600160a01b03909216919091179055565b60405162461bcd60e51b815260206004820152602d60248201527f455243313936373a206e657720696d706c656d656e746174696f6e206973206e60448201526c1bdd08184818dbdb9d1c9858dd609a1b6064820152608490fd5b3d1561168e573d90611674826113ff565b9161168260405193846113dd565b82523d6000602084013e565b606090565b919290156116f557508151156116a7575090565b3b156116b05790565b60405162461bcd60e51b815260206004820152601d60248201527f416464726573733a2063616c6c20746f206e6f6e2d636f6e74726163740000006044820152606490fd5b8251909150156117085750805190602001fd5b60405162461bcd60e51b81526020600482015290819061172c906024830190611730565b0390fd5b919082519283825260005b84811061175c575050826000602080949584010152601f8019910116010190565b60208183018101518483018201520161173b565b1561177757565b60405162461bcd60e51b815260206004820152602b60248201527f496e697469616c697a61626c653a20636f6e7472616374206973206e6f74206960448201526a6e697469616c697a696e6760a81b6064820152608490fd5b90816020910312611366575180151581036113665790565b600260c954146117f957600260c955565b60405162461bcd60e51b815260206004820152601f60248201527f5265656e7472616e637947756172643a207265656e7472616e742063616c6c006044820152606490fd5b61146d939260609260018060a01b0316825260208201528160408201520190611730565b9190820391821161186f57565b634e487b7160e01b600052601160045260246000fd5b600019811461186f5760010190565b80518210156118a85760209160051b010190565b634e487b7160e01b600052603260045260246000fd5b60009133835260fc602052604083209160018060a01b0380921692838552602052604084206118ee868254611862565b905516825260fc6020526040822090825260205260408120908154928301809311611917575055565b634e487b7160e01b81526011600452602490fd5b90949360009233845260fc6020526040842092848060018060a01b039384811696878352602052604082206119618a8254611862565b905560405163095ea7b360e01b602082019081526001600160a01b038616602483015260448083018c9052825290839061199c6064826113dd565b51925af16119a8611663565b50156108f857811691823b156108f857849596976119f68692604051998a97889687956344bc937b60e01b87521660048601526024850152604484015260a0606484015260a4830190611730565b600019608483015203925af1908115611a1c5750611a115750565b611a1a90611397565b565b604051903d90823e3d90fdfe360894a13ba1a3210667c828492db98dca3e2076cc3735a920a3ca505d382bbca26469706673582212208f85a702a5be19cfdb874f25d6bcf557ab5f512ffe39a9a0a611be5f4a734bf264736f6c63430008130033",
  "linkReferences": {},
  "deployedLinkReferences": {}
}