{
  "_format": "hh-sol-artifact-1",
  "contractName": "BridgeParentTunnel",
  "sourceName": "contracts/bridge/erc20/ERC20ParentTunnel.sol",
  "abi": [
    {
      "inputs": [
        {
          "internalType": "address",
          "name": "_parent",
          "type": "address"
        },
        {
          "internalType": "address",
          "name": "_ERC20Token",
          "type": "address"
        }
      ],
      "stateMutability": "nonpayable",
      "type": "constructor"
    },
    {
      "anonymous": false,
      "inputs": [
        {
          "indexed": true,
          "internalType": "address",
          "name": "parentToken",
          "type": "address"
        },
        {
          "indexed": true,
          "internalType": "address",
          "name": "depositor",
          "type": "address"
        },
        {
          "indexed": true,
          "internalType": "address",
          "name": "userAddress",
          "type": "address"
        },
        {
          "indexed": false,
          "internalType": "uint256",
          "name": "amount",
          "type": "uint256"
        }
      ],
      "name": "BridgeDepositERC20",
      "type": "event"
    },
    {
      "anonymous": false,
      "inputs": [
        {
          "indexed": true,
          "internalType": "address",
          "name": "parentToken",
          "type": "address"
        },
        {
          "indexed": true,
          "internalType": "address",
          "name": "childToken",
          "type": "address"
        }
      ],
      "name": "BridgeTokenMappedERC20",
      "type": "event"
    },
    {
      "anonymous": false,
      "inputs": [
        {
          "indexed": true,
          "internalType": "address",
          "name": "parentToken",
          "type": "address"
        },
        {
          "indexed": true,
          "internalType": "address",
          "name": "childToken",
          "type": "address"
        },
        {
          "indexed": true,
          "internalType": "address",
          "name": "userAddress",
          "type": "address"
        },
        {
          "indexed": false,
          "internalType": "uint256",
          "name": "amount",
          "type": "uint256"
        }
      ],
      "name": "BridgeWithdrawERC20",
      "type": "event"
    },
    {
      "inputs": [],
      "name": "DEPOSIT",
      "outputs": [
        {
          "internalType": "bytes32",
          "name": "",
          "type": "bytes32"
        }
      ],
      "stateMutability": "view",
      "type": "function"
    },
    {
      "inputs": [],
      "name": "MAP_TOKEN",
      "outputs": [
        {
          "internalType": "bytes32",
          "name": "",
          "type": "bytes32"
        }
      ],
      "stateMutability": "view",
      "type": "function"
    },
    {
      "inputs": [],
      "name": "bridgeChildTunnel",
      "outputs": [
        {
          "internalType": "address",
          "name": "",
          "type": "address"
        }
      ],
      "stateMutability": "view",
      "type": "function"
    },
    {
      "inputs": [],
      "name": "bridgeParent",
      "outputs": [
        {
          "internalType": "contract IBridgeStateSender",
          "name": "",
          "type": "address"
        }
      ],
      "stateMutability": "view",
      "type": "function"
    },
    {
      "inputs": [],
      "name": "childTokenTemplateCodeHash",
      "outputs": [
        {
          "internalType": "bytes32",
          "name": "",
          "type": "bytes32"
        }
      ],
      "stateMutability": "view",
      "type": "function"
    },
    {
      "inputs": [
        {
          "internalType": "bytes32",
          "name": "salt",
          "type": "bytes32"
        },
        {
          "internalType": "bytes32",
          "name": "bytecodeHash",
          "type": "bytes32"
        },
        {
          "internalType": "address",
          "name": "deployer",
          "type": "address"
        }
      ],
      "name": "computedCreate2Address",
      "outputs": [
        {
          "internalType": "address",
          "name": "",
          "type": "address"
        }
      ],
      "stateMutability": "pure",
      "type": "function"
    },
    {
      "inputs": [
        {
          "internalType": "address",
          "name": "parentToken",
          "type": "address"
        },
        {
          "internalType": "address",
          "name": "user",
          "type": "address"
        },
        {
          "internalType": "uint256",
          "name": "amount",
          "type": "uint256"
        },
        {
          "internalType": "bytes",
          "name": "data",
          "type": "bytes"
        }
      ],
      "name": "deposit",
      "outputs": [],
      "stateMutability": "nonpayable",
      "type": "function"
    },
    {
      "inputs": [
        {
          "internalType": "address",
          "name": "parentToken",
          "type": "address"
        }
      ],
      "name": "mapToken",
      "outputs": [],
      "stateMutability": "nonpayable",
      "type": "function"
    },
    {
      "inputs": [
        {
          "internalType": "address",
          "name": "",
          "type": "address"
        }
      ],
      "name": "parentToChildTokens",
      "outputs": [
        {
          "internalType": "address",
          "name": "",
          "type": "address"
        }
      ],
      "stateMutability": "view",
      "type": "function"
    },
    {
      "inputs": [
        {
          "internalType": "address",
          "name": "_bridgeChildTunnel",
          "type": "address"
        }
      ],
      "name": "setBridgeChildTunnel",
      "outputs": [],
      "stateMutability": "nonpayable",
      "type": "function"
    }
  ],
  "bytecode": "0x60a034610119576001600160401b0390601f610c8438819003918201601f19168301918483118484101761010357808492604094855283398101031261011957610054602061004d8361011e565b920161011e565b600180546001600160a01b0319166001600160a01b0390931692909217909155604051693d602d80600a3d3981f360b01b6020820190815269363d3d373d3d3d363d7360b01b602a830152606092831b6001600160601b03191660348301526e5af43d82803e903d91602b57fd5bf360881b604883015260378252918101928311818410176101035782604052519020608052610b519081610133823960805181818161056c015261085e0152f35b634e487b7160e01b600052604160045260246000fd5b600080fd5b51906001600160a01b03821682036101195756fe60806040908082526004918236101561001757600080fd5b600092833560e01c92836340014e4f1461058f5750826369914b3e146105545782637337957f14610511578263886a69ba146104d657826393ca71b01461049b578263ce8cf4b0146103f6578263d81c8e52146103bb578263e5f55ff114610392578263e9c670ad146100bc57505063f4a120f71461009557600080fd5b346100b95760203660031901126100b9576100b66100b16105b3565b6106e8565b80f35b80fd5b9091503461038e57608036600319011261038e576100d86105b3565b602480359360018060a01b039283861680960361038a57604435946064359167ffffffffffffffff80841161035957366023850112156103595783830135918a61012184610622565b9561012e88519788610600565b848752368986830101116103865784899560209a8b9301838a01378701015287811697888c5260028852868c20541615610377575b508451868101906323b872dd60e01b825233848201523060448201528960648201526064815260a081019281841090841117610365578b83928192610209958a526101ad856105ce565b8a85527f5361666545524332303a206c6f772d6c6576656c2063616c6c206661696c656460c08201525190828c5af13d1561035d573d906101ed82610622565b916101fa89519384610600565b82523d8d8a84013e5b8961098d565b8051868115918215610339575b50509050156102e4575050906102da6102c96102d561027c7f9a926a9db99951e9615190328f7ad1f106b961ef7fc86c3fa87131029ea9492c969585519182918a8984015233888401528c60608401528b608084015260a08084015260c08301906106c3565b0390610290601f1992838101835282610600565b85519384917f87a7811f4bfedea3d341ad165680ae306b01aaeacc205d227629cf157dd9f82189840152878084015260608301906106c3565b03908101835282610600565b610a87565b519384523393a480f35b835162461bcd60e51b8152918201859052602a908201527f5361666545524332303a204552433230206f7065726174696f6e20646964206e6044820152691bdd081cdd58d8d9595960b21b6064820152608490fd5b838092935001031261035957850151801515810361035957808638610216565b8980fd5b606090610203565b634e487b7160e01b8c5260418552838cfd5b610380906106e8565b38610163565b5080fd5b8680fd5b8280fd5b83823461038657816003193601126103865760015490516001600160a01b039091168152602090f35b838234610386578160031936011261038657602090517f87a7811f4bfedea3d341ad165680ae306b01aaeacc205d227629cf157dd9f8218152f35b91503461038e57602036600319011261038e576104116105b3565b8354926001600160a01b039283851661043a57505016906001600160601b0360a01b1617815580f35b906020608492519162461bcd60e51b8352820152603560248201527f42617365546f6b656e427269646765506172656e7454756e6e656c3a206368696044820152741b19081d1d5b9b995b08185b1c9958591e481cd95d605a1b6064820152fd5b838234610386576020366003190112610386576020916001600160a01b03908290826104c56105b3565b168152600285522054169051908152f35b838234610386578160031936011261038657602090517f2cef46a936bdc5b7e6e8c71aa04560c41cf7d88bb26901a7e7f4936ff02accad8152f35b9083346100b95760603660031901126100b957604435926001600160a01b039182851685036100b9575060209361054c916024359035610a2a565b915191168152f35b838234610386578160031936011261038657602090517f00000000000000000000000000000000000000000000000000000000000000008152f35b84903461038657816003193601126103865790546001600160a01b03168152602090f35b600435906001600160a01b03821682036105c957565b600080fd5b6040810190811067ffffffffffffffff8211176105ea57604052565b634e487b7160e01b600052604160045260246000fd5b90601f8019910116810190811067ffffffffffffffff8211176105ea57604052565b67ffffffffffffffff81116105ea57601f01601f191660200190565b60005b8381106106515750506000910152565b8181015183820152602001610641565b6020818303126105c95780519067ffffffffffffffff82116105c9570181601f820112156105c957805161069481610622565b926106a26040519485610600565b818452602082840101116105c9576106c0916020808501910161063e565b90565b906020916106dc8151809281855285808601910161063e565b601f01601f1916010190565b9060018060a01b0380831660008181526020926002845260408181842054166109405780516306fdde0360e01b8152968388600481885afa97881561093657849861091a575b5081516395d89b4160e01b8152978489600481895afa9889156109105785996108ec575b50825163313ce56760e01b81529087826004818a5afa9182156108e25786926108a3575b50916108317f2cef46a936bdc5b7e6e8c71aa04560c41cf7d88bb26901a7e7f4936ff02accad6102d58a9b9c8a9b6102c98961081a7f577c51fb18948020c1b9d3cb38ba9d0e22ffb3ec3fa8adcdd54d1717366b749c9e6108839a60ff6108076107f460029f608088519889978c89015287015260a08601906106c3565b601f19998a8683030160608701526106c3565b9116608083015203858101835282610600565b8a519586938401528a8084015260608301906106c3565b8351898101916001600160601b03199060601b16825260148152610854816105ce565b51902084865416907f000000000000000000000000000000000000000000000000000000000000000090610a2a565b96868552528220941693846001600160601b0360a01b82541617905580a3565b9091508781813d83116108db575b6108bb8183610600565b810103126108d7575160ff811681036108d75790610831610776565b8580fd5b503d6108b1565b84513d88823e3d90fd5b6109099199503d8087833e6109018183610600565b810190610661565b9738610752565b83513d87823e3d90fd5b61092f9198503d8086833e6109018183610600565b963861072e565b82513d86823e3d90fd5b5162461bcd60e51b815260048101859052602160248201527f4552433230506172656e7454756e6e656c3a20414c52454144595f4d415050456044820152601160fa1b6064820152608490fd5b919290156109ef57508151156109a1575090565b3b156109aa5790565b60405162461bcd60e51b815260206004820152601d60248201527f416464726573733a2063616c6c20746f206e6f6e2d636f6e74726163740000006044820152606490fd5b825190915015610a025750805190602001fd5b60405162461bcd60e51b815260206004820152908190610a269060248301906106c3565b0390fd5b919060405192602084019260ff60f81b84526001600160601b03199060601b16602185015260358401526055830152605582526080820182811067ffffffffffffffff8211176105ea57604052905190206001600160a01b031690565b9060018060a01b038060015416600091825416813b1561038e57938291610ad3949583604051809781958294633454d3d760e11b845260048401526040602484015260448301906106c3565b03925af18015610b0e57610ae5575050565b67ffffffffffffffff8211610afa5750604052565b634e487b7160e01b81526041600452602490fd5b50604051903d90823e3d90fdfea26469706673582212202e84492159b94d3e619c339c157a1a7daac9844f5e0b06b6d5f118a31c8a006864736f6c63430008130033",
  "linkReferences": {},
  "deployedLinkReferences": {}
}