{
  "_format": "hh-sol-artifact-1",
  "contractName": "StateSender",
  "sourceName": "contracts/StateSender.sol",
  "abi": [
    {
      "inputs": [],
      "stateMutability": "nonpayable",
      "type": "constructor"
    },
    {
      "anonymous": false,
      "inputs": [
        {
          "indexed": false,
          "internalType": "address",
          "name": "previousAdmin",
          "type": "address"
        },
        {
          "indexed": false,
          "internalType": "address",
          "name": "newAdmin",
          "type": "address"
        }
      ],
      "name": "AdminChanged",
      "type": "event"
    },
    {
      "anonymous": false,
      "inputs": [
        {
          "indexed": true,
          "internalType": "address",
          "name": "beacon",
          "type": "address"
        }
      ],
      "name": "BeaconUpgraded",
      "type": "event"
    },
    {
      "anonymous": false,
      "inputs": [
        {
          "indexed": false,
          "internalType": "uint256",
          "name": "depositID",
          "type": "uint256"
        },
        {
          "indexed": true,
          "internalType": "address",
          "name": "destinationContract",
          "type": "address"
        },
        {
          "indexed": false,
          "internalType": "bytes",
          "name": "payload",
          "type": "bytes"
        }
      ],
      "name": "DataTransfer",
      "type": "event"
    },
    {
      "anonymous": false,
      "inputs": [
        {
          "indexed": false,
          "internalType": "uint8",
          "name": "version",
          "type": "uint8"
        }
      ],
      "name": "Initialized",
      "type": "event"
    },
    {
      "anonymous": false,
      "inputs": [
        {
          "indexed": true,
          "internalType": "address",
          "name": "user",
          "type": "address"
        },
        {
          "indexed": true,
          "internalType": "address",
          "name": "sender",
          "type": "address"
        },
        {
          "indexed": true,
          "internalType": "address",
          "name": "receiver",
          "type": "address"
        }
      ],
      "name": "NewRegistration",
      "type": "event"
    },
    {
      "anonymous": false,
      "inputs": [
        {
          "indexed": true,
          "internalType": "address",
          "name": "previousOwner",
          "type": "address"
        },
        {
          "indexed": true,
          "internalType": "address",
          "name": "newOwner",
          "type": "address"
        }
      ],
      "name": "OwnershipTransferred",
      "type": "event"
    },
    {
      "anonymous": false,
      "inputs": [
        {
          "indexed": true,
          "internalType": "uint256",
          "name": "Id",
          "type": "uint256"
        },
        {
          "indexed": false,
          "internalType": "address",
          "name": "destinationContract",
          "type": "address"
        },
        {
          "indexed": false,
          "internalType": "string",
          "name": "memo",
          "type": "string"
        }
      ],
      "name": "PayloadExecuted",
      "type": "event"
    },
    {
      "anonymous": false,
      "inputs": [
        {
          "indexed": true,
          "internalType": "address",
          "name": "user",
          "type": "address"
        },
        {
          "indexed": true,
          "internalType": "address",
          "name": "sender",
          "type": "address"
        },
        {
          "indexed": true,
          "internalType": "address",
          "name": "receiver",
          "type": "address"
        }
      ],
      "name": "RegistrationUpdated",
      "type": "event"
    },
    {
      "anonymous": false,
      "inputs": [
        {
          "indexed": true,
          "internalType": "bytes32",
          "name": "role",
          "type": "bytes32"
        },
        {
          "indexed": true,
          "internalType": "bytes32",
          "name": "previousAdminRole",
          "type": "bytes32"
        },
        {
          "indexed": true,
          "internalType": "bytes32",
          "name": "newAdminRole",
          "type": "bytes32"
        }
      ],
      "name": "RoleAdminChanged",
      "type": "event"
    },
    {
      "anonymous": false,
      "inputs": [
        {
          "indexed": true,
          "internalType": "bytes32",
          "name": "role",
          "type": "bytes32"
        },
        {
          "indexed": true,
          "internalType": "address",
          "name": "account",
          "type": "address"
        },
        {
          "indexed": true,
          "internalType": "address",
          "name": "sender",
          "type": "address"
        }
      ],
      "name": "RoleGranted",
      "type": "event"
    },
    {
      "anonymous": false,
      "inputs": [
        {
          "indexed": true,
          "internalType": "bytes32",
          "name": "role",
          "type": "bytes32"
        },
        {
          "indexed": true,
          "internalType": "address",
          "name": "account",
          "type": "address"
        },
        {
          "indexed": true,
          "internalType": "address",
          "name": "sender",
          "type": "address"
        }
      ],
      "name": "RoleRevoked",
      "type": "event"
    },
    {
      "anonymous": false,
      "inputs": [
        {
          "indexed": false,
          "internalType": "uint256",
          "name": "depositID",
          "type": "uint256"
        },
        {
          "indexed": true,
          "internalType": "bytes32",
          "name": "destinationChain",
          "type": "bytes32"
        },
        {
          "indexed": true,
          "internalType": "address",
          "name": "destinationContract",
          "type": "address"
        },
        {
          "indexed": false,
          "internalType": "address",
          "name": "asset",
          "type": "address"
        },
        {
          "indexed": false,
          "internalType": "uint256",
          "name": "tokenAmount",
          "type": "uint256"
        },
        {
          "indexed": false,
          "internalType": "bytes",
          "name": "payload",
          "type": "bytes"
        }
      ],
      "name": "TokenTransfer",
      "type": "event"
    },
    {
      "anonymous": false,
      "inputs": [
        {
          "indexed": true,
          "internalType": "address",
          "name": "implementation",
          "type": "address"
        }
      ],
      "name": "Upgraded",
      "type": "event"
    },
    {
      "inputs": [],
      "name": "DEFAULT_ADMIN_ROLE",
      "outputs": [
        {
          "internalType": "bytes32",
          "name": "",
          "type": "bytes32"
        }
      ],
      "stateMutability": "view",
      "type": "function"
    },
    {
      "inputs": [],
      "name": "DOJIMA_CHAIN",
      "outputs": [
        {
          "internalType": "bytes32",
          "name": "",
          "type": "bytes32"
        }
      ],
      "stateMutability": "view",
      "type": "function"
    },
    {
      "inputs": [],
      "name": "dojimaChainEventCounter",
      "outputs": [
        {
          "internalType": "uint256",
          "name": "",
          "type": "uint256"
        }
      ],
      "stateMutability": "view",
      "type": "function"
    },
    {
      "inputs": [
        {
          "internalType": "bytes32",
          "name": "role",
          "type": "bytes32"
        }
      ],
      "name": "getRoleAdmin",
      "outputs": [
        {
          "internalType": "bytes32",
          "name": "",
          "type": "bytes32"
        }
      ],
      "stateMutability": "view",
      "type": "function"
    },
    {
      "inputs": [
        {
          "internalType": "bytes32",
          "name": "role",
          "type": "bytes32"
        },
        {
          "internalType": "address",
          "name": "account",
          "type": "address"
        }
      ],
      "name": "grantRole",
      "outputs": [],
      "stateMutability": "nonpayable",
      "type": "function"
    },
    {
      "inputs": [
        {
          "internalType": "bytes32",
          "name": "role",
          "type": "bytes32"
        },
        {
          "internalType": "address",
          "name": "account",
          "type": "address"
        }
      ],
      "name": "hasRole",
      "outputs": [
        {
          "internalType": "bool",
          "name": "",
          "type": "bool"
        }
      ],
      "stateMutability": "view",
      "type": "function"
    },
    {
      "inputs": [],
      "name": "initialize",
      "outputs": [],
      "stateMutability": "nonpayable",
      "type": "function"
    },
    {
      "inputs": [],
      "name": "isOwner",
      "outputs": [
        {
          "internalType": "bool",
          "name": "",
          "type": "bool"
        }
      ],
      "stateMutability": "view",
      "type": "function"
    },
    {
      "inputs": [],
      "name": "owner",
      "outputs": [
        {
          "internalType": "address",
          "name": "",
          "type": "address"
        }
      ],
      "stateMutability": "view",
      "type": "function"
    },
    {
      "inputs": [],
      "name": "proxiableUUID",
      "outputs": [
        {
          "internalType": "bytes32",
          "name": "",
          "type": "bytes32"
        }
      ],
      "stateMutability": "view",
      "type": "function"
    },
    {
      "inputs": [
        {
          "internalType": "uint256",
          "name": "Id",
          "type": "uint256"
        },
        {
          "internalType": "address",
          "name": "destinationContract",
          "type": "address"
        },
        {
          "internalType": "bytes",
          "name": "payload",
          "type": "bytes"
        },
        {
          "internalType": "string",
          "name": "memo",
          "type": "string"
        }
      ],
      "name": "receivePayload",
      "outputs": [],
      "stateMutability": "payable",
      "type": "function"
    },
    {
      "inputs": [
        {
          "internalType": "address",
          "name": "sender",
          "type": "address"
        },
        {
          "internalType": "address",
          "name": "receiver",
          "type": "address"
        }
      ],
      "name": "register",
      "outputs": [],
      "stateMutability": "nonpayable",
      "type": "function"
    },
    {
      "inputs": [
        {
          "internalType": "address",
          "name": "",
          "type": "address"
        }
      ],
      "name": "registry",
      "outputs": [
        {
          "internalType": "address",
          "name": "",
          "type": "address"
        }
      ],
      "stateMutability": "view",
      "type": "function"
    },
    {
      "inputs": [
        {
          "internalType": "bytes32",
          "name": "chainName",
          "type": "bytes32"
        }
      ],
      "name": "removeWhitelistChain",
      "outputs": [],
      "stateMutability": "nonpayable",
      "type": "function"
    },
    {
      "inputs": [],
      "name": "renounceOwnership",
      "outputs": [],
      "stateMutability": "nonpayable",
      "type": "function"
    },
    {
      "inputs": [
        {
          "internalType": "bytes32",
          "name": "role",
          "type": "bytes32"
        },
        {
          "internalType": "address",
          "name": "account",
          "type": "address"
        }
      ],
      "name": "renounceRole",
      "outputs": [],
      "stateMutability": "nonpayable",
      "type": "function"
    },
    {
      "inputs": [
        {
          "internalType": "bytes32",
          "name": "role",
          "type": "bytes32"
        },
        {
          "internalType": "address",
          "name": "account",
          "type": "address"
        }
      ],
      "name": "revokeRole",
      "outputs": [],
      "stateMutability": "nonpayable",
      "type": "function"
    },
    {
      "inputs": [
        {
          "internalType": "bytes4",
          "name": "interfaceId",
          "type": "bytes4"
        }
      ],
      "name": "supportsInterface",
      "outputs": [
        {
          "internalType": "bool",
          "name": "",
          "type": "bool"
        }
      ],
      "stateMutability": "view",
      "type": "function"
    },
    {
      "inputs": [
        {
          "internalType": "bytes32",
          "name": "destinationChain",
          "type": "bytes32"
        },
        {
          "internalType": "address",
          "name": "destinationContract",
          "type": "address"
        },
        {
          "internalType": "address",
          "name": "asset",
          "type": "address"
        },
        {
          "internalType": "uint256",
          "name": "tokenAmount",
          "type": "uint256"
        },
        {
          "internalType": "bytes",
          "name": "payload",
          "type": "bytes"
        }
      ],
      "name": "tokenTransferWithPayload",
      "outputs": [],
      "stateMutability": "nonpayable",
      "type": "function"
    },
    {
      "inputs": [
        {
          "internalType": "address",
          "name": "newOwner",
          "type": "address"
        }
      ],
      "name": "transferOwnership",
      "outputs": [],
      "stateMutability": "nonpayable",
      "type": "function"
    },
    {
      "inputs": [
        {
          "internalType": "address",
          "name": "destinationContract",
          "type": "address"
        },
        {
          "internalType": "bytes",
          "name": "payload",
          "type": "bytes"
        }
      ],
      "name": "transferPayload",
      "outputs": [],
      "stateMutability": "nonpayable",
      "type": "function"
    },
    {
      "inputs": [
        {
          "internalType": "bytes32",
          "name": "chainName",
          "type": "bytes32"
        }
      ],
      "name": "updateWhitelistChain",
      "outputs": [],
      "stateMutability": "nonpayable",
      "type": "function"
    },
    {
      "inputs": [
        {
          "internalType": "address",
          "name": "newImplementation",
          "type": "address"
        }
      ],
      "name": "upgradeTo",
      "outputs": [],
      "stateMutability": "nonpayable",
      "type": "function"
    },
    {
      "inputs": [
        {
          "internalType": "address",
          "name": "newImplementation",
          "type": "address"
        },
        {
          "internalType": "bytes",
          "name": "data",
          "type": "bytes"
        }
      ],
      "name": "upgradeToAndCall",
      "outputs": [],
      "stateMutability": "payable",
      "type": "function"
    },
    {
      "inputs": [
        {
          "internalType": "bytes32",
          "name": "",
          "type": "bytes32"
        }
      ],
      "name": "whitelistChains",
      "outputs": [
        {
          "internalType": "bool",
          "name": "",
          "type": "bool"
        }
      ],
      "stateMutability": "view",
      "type": "function"
    }
  ],
  "bytecode": "0x60a080604052346100dc57306080526000549060ff8260081c1661008a575060ff8082160361004f575b604051611ed090816100e28239608051818181610a4901528181610b4701526110af0152f35b60ff90811916176000557f7f26b83ff96e1f2b6a682f133852f6798a09c465da95921460cefb3847402498602060405160ff8152a138610029565b62461bcd60e51b815260206004820152602760248201527f496e697469616c697a61626c653a20636f6e747261637420697320696e697469604482015266616c697a696e6760c81b6064820152608490fd5b600080fdfe60806040908082526004918236101561001757600080fd5b600091823560e01c90816301ffc9a71461150557508063038defd7146114ca5780631f13eac6146114ab578063248a9ca3146114805780632f2ff15d146113d357806336568abe146113425780633659cfe6146110875780633a6bd04114610dce5780634f1ef28614610af657806352d1902d14610a33578063715018a6146109d35780638129fc1c1461086c5780638bde11831461083e5780638da5cb5b146108165780638f32d59b146107ee57806391d14854146107a757806395d61ba0146107125780639bc22f1e146106ef578063a217fddf146106d5578063aa6773541461054d578063d0f2ebc614610326578063d4a8590b146102e7578063d547741f146102ab578063f2fde38b146102155763f50aa84b1461013857600080fd5b34610211578060031936011261021157610150611559565b9060243567ffffffffffffffff811161020d57610170903690860161158a565b9061017c821515611da0565b6001600160a01b0393841680865261012e6020528386205490946101a291163314611df8565b61012f91825492600184018094116101fa57916101f491847f12d04950b1806ca3d7306f43a2ac191549357b671e5e3f846c42431b5f32aa339695945584519485948552806020860152840191611e59565b0390a280f35b634e487b7160e01b875260118852602487fd5b8380fd5b5080fd5b5082346102a75760203660031901126102a757610230611559565b91610239611a33565b6001600160a01b03831615610255578361025284611a8b565b80f35b906020608492519162461bcd60e51b8352820152602660248201527f4f776e61626c653a206e6577206f776e657220697320746865207a65726f206160448201526564647265737360d01b6064820152fd5b8280fd5b508290346102a757806003193601126102a75761025291356102e260016102d0611574565b9383875260fb6020528620015461165f565b6119bd565b5082346102a75760203660031901126102a75735610303611a33565b61030e811515611d46565b825261012d6020528120805460ff1916600117905580f35b50346102115760a0366003190112610211578235610342611574565b6001600160a01b039260443584811692908390036105495760643560843567ffffffffffffffff81116105455761037c9036908a0161158a565b91909261038a871515611d46565b81156104f45786895261012d60205260ff858a205416156104a657876103cc916103b5851515611da0565b1697888a5261012e602052858a2054163314611df8565b65444f4a494d4160d01b86036104575761012f9384549460018601809611610444577f4d3de7646ef1e621dd38af45f6a3cbbca4e6a20f7597b33bd37ed45613fad3ac9798999a50908561043e9594939255805196879687526020870152850152608060608501526080840191611e59565b0390a380f35b634e487b7160e01b8a5260118b5260248afd5b7f4d3de7646ef1e621dd38af45f6a3cbbca4e6a20f7597b33bd37ed45613fad3ac95969798509061043e9291849594519586958b87526020870152850152608060608501526080840191611e59565b845162461bcd60e51b81526020818c0152602260248201527f537461746553656e6465723a20436861696e206e6f742077686974656c697374604482015261195960f21b6064820152608490fd5b845162461bcd60e51b81526020818c0152602560248201527f537461746553656e6465723a20746f6b656e20616d6f756e742063616e6e6f74604482015264020626520360dc1b6064820152608490fd5b8780fd5b8580fd5b508290346102a757806003193601126102a757610568611559565b906001600160a01b03908161057b611574565b1693841561068757826097541633148015610670575b15610615575083855261012e6020528420911690816bffffffffffffffffffffffff60a01b82541617905580156000146105ed57337f3f4512aacd7a664fdb321a48e8340120d63253a91c6367a143abd19ecf68aedd8480a480f35b337fc51cb1a93ec91e927852b3445875ec77b148271953e5c0b43698c968ad6fc47d8480a480f35b6020608492519162461bcd60e51b8352820152603060248201527f537461746553656e6465722e72656769737465723a204e6f7420617574686f7260448201526f34bd32b2103a37903932b3b4b9ba32b960811b6064820152fd5b5084865261012e6020523383838820541614610591565b6020608492519162461bcd60e51b83528201526024808201527f537461746553656e6465723a20616464726573732063616e6e6f7420626520656044820152636d70747960e01b6064820152fd5b503461021157816003193601126102115751908152602090f35b50346102115781600319360112610211575165444f4a494d4160d01b8152602090f35b5082346102a75760203660031901126102a757803561072f611a33565b61073a811515611d46565b80845261012d918260205260ff848620541615610764575083526020528120805460ff1916905580f35b606490602085519162461bcd60e51b8352820152601860248201527f436861696e206973206e6f742077686974656c697374656400000000000000006044820152fd5b5082346102a757816003193601126102a7578160209360ff926107c8611574565b9035825260fb86528282206001600160a01b039091168252855220549151911615158152f35b503461021157816003193601126102115760209060018060a01b036097541690519033148152f35b503461021157816003193601126102115760975490516001600160a01b039091168152602090f35b5082346102a75760203660031901126102a7578160209360ff9235815261012d855220541690519015158152f35b5082346102a757826003193601126102a757825460ff8160081c1615918280936109c6575b80156109af575b15610955575060ff1981811660011785559082610944575b506108ca60ff855460081c166108c581611ce6565b611ce6565b6108d333611a8b565b6108e760ff855460081c166108c581611ce6565b65444f4a494d4160d01b845261012d6020528284208054909116600117905561090e575080f35b60207f7f26b83ff96e1f2b6a682f133852f6798a09c465da95921460cefb38474024989161ff001984541684555160018152a180f35b61ffff1916610101178455846108b0565b608490602085519162461bcd60e51b8352820152602e60248201527f496e697469616c697a61626c653a20636f6e747261637420697320616c72656160448201526d191e481a5b9a5d1a585b1a5e995960921b6064820152fd5b50303b1580156108985750600160ff831614610898565b50600160ff831610610891565b8234610a305780600319360112610a30576109ec611a33565b609780546001600160a01b0319811690915581906001600160a01b03167f8be0079c531659141344cd1fd0a4f28419497f9722a3daafe3b4186f6b6457e08280a380f35b80fd5b50919034610a305780600319360112610a3057507f00000000000000000000000000000000000000000000000000000000000000006001600160a01b03163003610a8e5760208251600080516020611e7b8339815191528152f35b6020608492519162461bcd60e51b8352820152603860248201527f555550535570677261646561626c653a206d757374206e6f742062652063616c60448201527f6c6564207468726f7567682064656c656761746563616c6c00000000000000006064820152fd5b508083916003193601126102a757610b0c611559565b9060243567ffffffffffffffff8111610dca5736602382011215610dca57610b3d9036906024818701359101611628565b6001600160a01b037f00000000000000000000000000000000000000000000000000000000000000008116929190610b7730851415611ad4565b610b94600080516020611e7b833981519152948286541614611b35565b610b9c611a33565b7f4910fdfa16fed3260ed0e7147f7cc6da11a60208b5b9406d12a635614ffd91435460ff1615610bd457505050506102529150611b96565b82516352d1902d60e01b81526020959394918416919086818981865afa899181610d97575b50610c5857855162461bcd60e51b8152808901889052602e60248201527f45524331393637557067726164653a206e657720696d706c656d656e7461746960448201526d6f6e206973206e6f74205555505360901b6064820152608490fd5b9691929594939603610d425750610c6e85611b96565b7fbc7cd75a20ee27fd9adebab32041f755214dbc6bffa90cc0225b39da2e5c2d3b8680a2825115801590610d3a575b610ca9575b5050505080f35b610d26938580835195610cbb876115b8565b602787527f416464726573733a206c6f772d6c6576656c2064656c65676174652063616c6c86880152660819985a5b195960ca1b858801528581519101845af4913d15610d30573d610d18610d0f8261160c565b925192836115ea565b81528681943d92013e611c26565b5081808080610ca2565b5060609250611c26565b506001610c9d565b825162461bcd60e51b8152908101849052602960248201527f45524331393637557067726164653a20756e737570706f727465642070726f786044820152681a58589b195555525160ba1b6064820152608490fd5b9091508781813d8311610dc3575b610daf81836115ea565b81010312610dbf5751908a610bf9565b8980fd5b503d610da5565b8480fd5b5091608036600319011261021157803590610de7611574565b60449081359267ffffffffffffffff9384811161108357610e0b903690830161158a565b939094606435908111610545573660238201121561054557610e37602491369083818701359101611628565b93610e43861515611da0565b84511561103757610100855111610fdd5763ffffffff813b1615610f7f5760018060a01b03169489519063409de0e360e11b825288858301528a838301528180610e9460209a8b9488840191611e59565b03818c8a5af1908115610f75578991610f3b575b5015610eec575050506101f49086807fdfd109da8de4d9659054e5a16d261c38c8742adb47fad14fad3e5ebdd9d70e42969798519586958652850152830190611998565b885162461bcd60e51b81529283018690526025908301527f537461746553656e6465723a205061796c6f616420657865637574696f6e20669082015264185a5b195960da1b6064820152608490fd5b90508681813d8311610f6e575b610f5281836115ea565b81010312610f6a57518015158103610f6a5738610ea8565b8880fd5b503d610f48565b8a513d8b823e3d90fd5b506084929160337f537461746553656e6465723a2064657374696e6174696f6e20636f6e747261639260208c519562461bcd60e51b8752860152840152820152721d081a5cc81b9bdd08184818dbdb9d1c9858dd606a1b6064820152fd5b5060849291602f7f537461746553656e6465723a206d656d6f2063616e6e6f74206265206d6f72659260208c519562461bcd60e51b87528601528401528201526e207468616e2032353620627974657360881b6064820152fd5b506084929160217f537461746553656e6465723a206d656d6f2063616e6e6f7420626520656d70749260208c519562461bcd60e51b8752860152840152820152607960f81b6064820152fd5b8680fd5b508290346102a75760208060031936011261020d576110a4611559565b916001600160a01b037f000000000000000000000000000000000000000000000000000000000000000081166110dc30821415611ad4565b6110f9600080516020611e7b833981519152918383541614611b35565b611101611a33565b8251908482019282841067ffffffffffffffff85111761132f578385528883527f4910fdfa16fed3260ed0e7147f7cc6da11a60208b5b9406d12a635614ffd91435460ff161561115b575050505050506102529150611b96565b869293949596169085516352d1902d60e01b815287818a81865afa8a91816112fc575b506111dd57865162461bcd60e51b8152808a01899052602e60248201527f45524331393637557067726164653a206e657720696d706c656d656e7461746960448201526d6f6e206973206e6f74205555505360901b6064820152608490fd5b9791929396959497036112a757506111f482611b96565b7fbc7cd75a20ee27fd9adebab32041f755214dbc6bffa90cc0225b39da2e5c2d3b8780a2858451158015906112a0575b611232575b50505050505080f35b8061129496845196611243886115b8565b602788527f416464726573733a206c6f772d6c6576656c2064656c65676174652063616c6c87890152660819985a5b195960ca1b868901525190845af4913d15610d30573d610d18610d0f8261160c565b50818080808085611229565b5080611224565b835162461bcd60e51b8152908101859052602960248201527f45524331393637557067726164653a20756e737570706f727465642070726f786044820152681a58589b195555525160ba1b6064820152608490fd5b9091508881813d8311611328575b61131481836115ea565b810103126113245751908b61117e565b8a80fd5b503d61130a565b634e487b7160e01b895260418852602489fd5b50913461021157826003193601126102115761135c611574565b90336001600160a01b03831603611378579061025291356119bd565b608490602085519162461bcd60e51b8352820152602f60248201527f416363657373436f6e74726f6c3a2063616e206f6e6c792072656e6f756e636560448201526e103937b632b9903337b91039b2b63360891b6064820152fd5b5082346102a757816003193601126102a75735906113ef611574565b9082845260fb6020526114076001828620015461165f565b82845260fb60209081528185206001600160a01b039093168086529290528084205460ff1615611435578380f35b82845260fb6020528084208285526020528320600160ff1982541617905533917f2f8788117e7eff1d82e926ec794901d17c78024a50270940304540a733656f0d8480a48180808380f35b5082346102a75760203660031901126102a7578160209360019235815260fb85522001549051908152f35b503461021157816003193601126102115760209061012f549051908152f35b5034610211576020366003190112610211576020916001600160a01b03908290826114f3611559565b16815261012e85522054169051908152f35b839085346102a75760203660031901126102a7573563ffffffff60e01b81168091036102a75760209250637965db0b60e01b8114908115611548575b5015158152f35b6301ffc9a760e01b14905083611541565b600435906001600160a01b038216820361156f57565b600080fd5b602435906001600160a01b038216820361156f57565b9181601f8401121561156f5782359167ffffffffffffffff831161156f576020838186019501011161156f57565b6060810190811067ffffffffffffffff8211176115d457604052565b634e487b7160e01b600052604160045260246000fd5b90601f8019910116810190811067ffffffffffffffff8211176115d457604052565b67ffffffffffffffff81116115d457601f01601f191660200190565b9291926116348261160c565b9161164260405193846115ea565b82948184528183011161156f578281602093846000960137010152565b60009080825260209060fb8252604092838120338252835260ff8482205416156116895750505050565b33845192611696846115b8565b602a84528484019086368337845115611961576030825384519260019384101561194d576078602187015360295b8481116118e357506118a1578651926080840184811067ffffffffffffffff82111761188d57885260428452868401946060368737845115611879576030865384518210156118795790607860218601536041915b81831161180b575050506117c9576117c59386936117a99361179a6048946117719a519a8b957f416363657373436f6e74726f6c3a206163636f756e74200000000000000000008c8801525180926037880190611975565b8401917001034b99036b4b9b9b4b733903937b6329607d1b603784015251809386840190611975565b010360288101875201856115ea565b5192839262461bcd60e51b845260048401526024830190611998565b0390fd5b60648587519062461bcd60e51b825280600483015260248201527f537472696e67733a20686578206c656e67746820696e73756666696369656e746044820152fd5b909192600f81166010811015611865576f181899199a1a9b1b9c1cb0b131b232b360811b901a61183b8588611cbf565b5360041c92801561185157600019019190611719565b634e487b7160e01b82526011600452602482fd5b634e487b7160e01b83526032600452602483fd5b634e487b7160e01b81526032600452602490fd5b634e487b7160e01b86526041600452602486fd5b60648688519062461bcd60e51b825280600483015260248201527f537472696e67733a20686578206c656e67746820696e73756666696369656e746044820152fd5b90600f81166010811015611939576f181899199a1a9b1b9c1cb0b131b232b360811b901a6119118389611cbf565b5360041c90801561192557600019016116c4565b634e487b7160e01b86526011600452602486fd5b634e487b7160e01b87526032600452602487fd5b634e487b7160e01b85526032600452602485fd5b634e487b7160e01b84526032600452602484fd5b60005b8381106119885750506000910152565b8181015183820152602001611978565b906020916119b181518092818552858086019101611975565b601f01601f1916010190565b9060009180835260fb602052604083209160018060a01b03169182845260205260ff6040842054166119ee57505050565b80835260fb602052604083208284526020526040832060ff1981541690557ff6391f5c32d9c69d2a47ea670b442974b53935d1edc7fd64eb21e047a839171b339380a4565b6097546001600160a01b03163303611a4757565b606460405162461bcd60e51b815260206004820152602060248201527f4f776e61626c653a2063616c6c6572206973206e6f7420746865206f776e65726044820152fd5b609780546001600160a01b039283166001600160a01b0319821681179092559091167f8be0079c531659141344cd1fd0a4f28419497f9722a3daafe3b4186f6b6457e0600080a3565b15611adb57565b60405162461bcd60e51b815260206004820152602c60248201527f46756e6374696f6e206d7573742062652063616c6c6564207468726f7567682060448201526b19195b1959d85d1958d85b1b60a21b6064820152608490fd5b15611b3c57565b60405162461bcd60e51b815260206004820152602c60248201527f46756e6374696f6e206d7573742062652063616c6c6564207468726f7567682060448201526b6163746976652070726f787960a01b6064820152608490fd5b803b15611bcb57600080516020611e7b83398151915280546001600160a01b0319166001600160a01b03909216919091179055565b60405162461bcd60e51b815260206004820152602d60248201527f455243313936373a206e657720696d706c656d656e746174696f6e206973206e60448201526c1bdd08184818dbdb9d1c9858dd609a1b6064820152608490fd5b91929015611c885750815115611c3a575090565b3b15611c435790565b60405162461bcd60e51b815260206004820152601d60248201527f416464726573733a2063616c6c20746f206e6f6e2d636f6e74726163740000006044820152606490fd5b825190915015611c9b5750805190602001fd5b60405162461bcd60e51b8152602060048201529081906117c5906024830190611998565b908151811015611cd0570160200190565b634e487b7160e01b600052603260045260246000fd5b15611ced57565b60405162461bcd60e51b815260206004820152602b60248201527f496e697469616c697a61626c653a20636f6e7472616374206973206e6f74206960448201526a6e697469616c697a696e6760a81b6064820152608490fd5b15611d4d57565b60405162461bcd60e51b815260206004820152602560248201527f537461746553656e6465723a20496e76616c69642064657374696e6174696f6e60448201526421b430b4b760d91b6064820152608490fd5b15611da757565b60405162461bcd60e51b8152602060048201526024808201527f537461746553656e6465723a207061796c6f61642063616e6e6f7420626520656044820152636d70747960e01b6064820152608490fd5b15611dff57565b60405162461bcd60e51b815260206004820152602c60248201527f537461746553656e6465723a2072656365697665722061646472657373206e6f60448201526b1d081c9959da5cdd195c995960a21b6064820152608490fd5b908060209392818452848401376000828201840152601f01601f191601019056fe360894a13ba1a3210667c828492db98dca3e2076cc3735a920a3ca505d382bbca2646970667358221220e9b91dce169c974b1351c654a5ed41873531a4910307a3fa5ef442cb436d90e964736f6c63430008130033",
  "linkReferences": {},
  "deployedLinkReferences": {}
}