{
  "_format": "hh-sol-artifact-1",
  "contractName": "ETHTokenWallet",
  "sourceName": "contracts/templates/eth_wallet/ETHTokenWallet.sol",
  "abi": [
    {
      "inputs": [
        {
          "internalType": "string",
          "name": "chainName",
          "type": "string"
        }
      ],
      "stateMutability": "nonpayable",
      "type": "constructor"
    },
    {
      "anonymous": false,
      "inputs": [
        {
          "indexed": false,
          "internalType": "string",
          "name": "chain",
          "type": "string"
        },
        {
          "indexed": true,
          "internalType": "address",
          "name": "owner",
          "type": "address"
        },
        {
          "indexed": true,
          "internalType": "address",
          "name": "token",
          "type": "address"
        },
        {
          "indexed": false,
          "internalType": "uint256",
          "name": "amountOrNFTId",
          "type": "uint256"
        },
        {
          "indexed": false,
          "internalType": "uint256",
          "name": "depositId",
          "type": "uint256"
        }
      ],
      "name": "Deposit",
      "type": "event"
    },
    {
      "anonymous": false,
      "inputs": [
        {
          "indexed": true,
          "internalType": "address",
          "name": "withdrawer",
          "type": "address"
        },
        {
          "indexed": true,
          "internalType": "address",
          "name": "tokenAddress",
          "type": "address"
        },
        {
          "indexed": false,
          "internalType": "uint256",
          "name": "amount",
          "type": "uint256"
        }
      ],
      "name": "Withdrawal",
      "type": "event"
    },
    {
      "inputs": [
        {
          "internalType": "address",
          "name": "account",
          "type": "address"
        },
        {
          "internalType": "address",
          "name": "tokenAddress",
          "type": "address"
        }
      ],
      "name": "balanceOf",
      "outputs": [
        {
          "internalType": "uint256",
          "name": "",
          "type": "uint256"
        }
      ],
      "stateMutability": "view",
      "type": "function"
    },
    {
      "inputs": [
        {
          "internalType": "address",
          "name": "tokenAddress",
          "type": "address"
        },
        {
          "internalType": "uint256",
          "name": "amount",
          "type": "uint256"
        }
      ],
      "name": "deposit",
      "outputs": [],
      "stateMutability": "nonpayable",
      "type": "function"
    },
    {
      "inputs": [],
      "name": "depositIdCounter",
      "outputs": [
        {
          "internalType": "uint256",
          "name": "",
          "type": "uint256"
        }
      ],
      "stateMutability": "view",
      "type": "function"
    },
    {
      "inputs": [
        {
          "internalType": "uint256",
          "name": "",
          "type": "uint256"
        }
      ],
      "name": "deposits",
      "outputs": [
        {
          "internalType": "bytes32",
          "name": "depositHash",
          "type": "bytes32"
        },
        {
          "internalType": "uint256",
          "name": "createdAt",
          "type": "uint256"
        }
      ],
      "stateMutability": "view",
      "type": "function"
    },
    {
      "inputs": [
        {
          "internalType": "address",
          "name": "childChain",
          "type": "address"
        },
        {
          "internalType": "address",
          "name": "stateSender",
          "type": "address"
        }
      ],
      "name": "updateChildChainAndStateSender",
      "outputs": [],
      "stateMutability": "nonpayable",
      "type": "function"
    }
  ],
  "bytecode": "0x608060405234610238576109a5803803806100198161023d565b928339810190602080828403126102385781516001600160401b0392838211610238570192601f908082860112156102385784518481116101d457601f19956100678285018816860161023d565b9282845285838301011161023857849060005b838110610224575050600091830101528051156101ea5780519384116101d457600254926001938481811c911680156101ca575b828210146101b45783811161016d575b50809285116001146101075750839450908392916000946100fc575b50501b916000199060031b1c1916176002555b60405161074290816102638239f35b0151925038806100da565b929484908116600260005284600020946000905b88838310610153575050501061013a575b505050811b016002556100ed565b015160001960f88460031b161c1916905538808061012c565b85870151885590960195948501948793509081019061011b565b6002600052816000208480880160051c8201928489106101ab575b0160051c019085905b82811061019f5750506100be565b60008155018590610191565b92508192610188565b634e487b7160e01b600052602260045260246000fd5b90607f16906100ae565b634e487b7160e01b600052604160045260246000fd5b60405162461bcd60e51b8152600481018490526012602482015271496e76616c696420636861696e206e616d6560701b6044820152606490fd5b81810183015185820184015286920161007a565b600080fd5b6040519190601f01601f191682016001600160401b038111838210176101d45760405256fe608060408181526004918236101561001657600080fd5b600092833560e01c918263118f2844146104b15750816347e7ef2414610100578163533573fe146100e1578163b02c43d0146100ab575063f7888aec1461005c57600080fd5b346100a757806003193601126100a7576020916100776105c5565b826100806105e0565b6001600160a01b039283168452838652922091166000908152908352819020549051908152f35b5080fd5b9050346100dd5760203660031901126100dd579181923581526005602052206001815491015482519182526020820152f35b8280fd5b5050346100a757816003193601126100a7576020906003549051908152f35b839150346100a757826003193601126100a75761011b6105c5565b60249384359060018060a01b0390818416948151906323b872dd60e01b825233818301523089830152846044830152602095606492878185818d8d5af19081156104a7578a9161046d575b501561043b57338952888752838920888a5287528389208054908782018092116104295755600354946001918287018097116104295786600355855189810191818d8c816002546101b68161062e565b92818b169182156104035750506001146103a7575b505090604891610207933360601b82526bffffffffffffffffffffffff199060601b1660148201528c60288201520360288101845201826105f6565b5190209185518b8782019467ffffffffffffffff9583811087821117610395578985949360058f8998958f95855287528087019442865283525220925183555191015554169083541693855160a08a8201528061026660c08201610668565b33898301528c60608301528a60808301528960a08301520390610291601f19928381018352826105f6565b833b1561039157918c93918e9793898051998a9663f50aa84b60e01b88528a8801528601528051908160448701528d875b83811061036d5750505091848692601f858585859886010152011681010301925af1801561036357610339575b50505090817f9f272854a1345068284b41d3d26e70102df3f0ffd70608d6ba0475808bbdc16f939251926060845261032960608501610668565b958401528201528033930390a380f35b829893981161035157508652949550858780806102ef565b634e487b7160e01b8352604190528782fd5b84513d8b823e3d90fd5b82819395979950829496985001015186828c01015201918e9593918d8a96946102c2565b8c80fd5b634e487b7160e01b8352604188528f83fd5b8e925060028152887f405787fa12a823e0f2b7631cc41b3ba8828b3321ca811111fa75cd3aa3bb5ace5b8383106103e7575050508201016102078f6101cb565b8091929493955054838589010152019101918492888f936103d1565b90925060489594506102079693915060ff1916885280151502830101919250928f6101cb565b634e487b7160e01b8b52601184528b8bfd5b50825162461bcd60e51b8152908101869052600f818a01526e151c985b9cd9995c8819985a5b1959608a1b6044820152fd5b90508781813d83116104a0575b61048481836105f6565b8101031261049c5751801515810361049c578b610166565b8980fd5b503d61047a565b85513d8c823e3d90fd5b929150346105c157816003193601126105c1576104cc6105c5565b916001600160a01b0390816104df6105e0565b1694851561058057508183549416809285161461051857506bffffffffffffffffffffffff60a01b809316179055600154161760015580f35b5162461bcd60e51b8152602081840152603e60248201527f41746c65617374206f6e65206f6620737461746553656e646572206f7220636860448201527f696c64436861696e20616464726573732073686f756c64206368616e676500006064820152608490fd5b62461bcd60e51b8152602084820152601c60248201527f496e76616c69642073746174652073656e6465722061646472657373000000006044820152606490fd5b8380fd5b600435906001600160a01b03821682036105db57565b600080fd5b602435906001600160a01b03821682036105db57565b90601f8019910116810190811067ffffffffffffffff82111761061857604052565b634e487b7160e01b600052604160045260246000fd5b90600182811c9216801561065e575b602083101461064857565b634e487b7160e01b600052602260045260246000fd5b91607f169161063d565b600254600092916106788261062e565b808252916001908181169081156106ef575060011461069657505050565b9192935060026000527f405787fa12a823e0f2b7631cc41b3ba8828b3321ca811111fa75cd3aa3bb5ace916000925b8484106106d757505060209250010190565b805460208585018101919091529093019281016106c5565b915050602093945060ff929192191683830152151560051b01019056fea264697066735822122049f3bd8376f00e4f9431c41d27687977d99213e6fd86d8496a4a269108d098bc64736f6c63430008130033",
  "linkReferences": {},
  "deployedLinkReferences": {}
}