{
  "_format": "hh-sol-artifact-1",
  "contractName": "DojimaWeth",
  "sourceName": "contracts/common/tokens/DojimaWETH.sol",
  "abi": [
    {
      "inputs": [],
      "stateMutability": "nonpayable",
      "type": "constructor"
    },
    {
      "anonymous": false,
      "inputs": [
        {
          "indexed": true,
          "internalType": "address",
          "name": "owner",
          "type": "address"
        },
        {
          "indexed": true,
          "internalType": "address",
          "name": "spender",
          "type": "address"
        },
        {
          "indexed": false,
          "internalType": "uint256",
          "name": "value",
          "type": "uint256"
        }
      ],
      "name": "Approval",
      "type": "event"
    },
    {
      "anonymous": false,
      "inputs": [
        {
          "indexed": true,
          "internalType": "address",
          "name": "dst",
          "type": "address"
        },
        {
          "indexed": false,
          "internalType": "uint256",
          "name": "wad",
          "type": "uint256"
        }
      ],
      "name": "Deposit",
      "type": "event"
    },
    {
      "anonymous": false,
      "inputs": [
        {
          "indexed": true,
          "internalType": "address",
          "name": "from",
          "type": "address"
        },
        {
          "indexed": true,
          "internalType": "address",
          "name": "to",
          "type": "address"
        },
        {
          "indexed": false,
          "internalType": "uint256",
          "name": "value",
          "type": "uint256"
        }
      ],
      "name": "Transfer",
      "type": "event"
    },
    {
      "anonymous": false,
      "inputs": [
        {
          "indexed": true,
          "internalType": "address",
          "name": "src",
          "type": "address"
        },
        {
          "indexed": false,
          "internalType": "uint256",
          "name": "wad",
          "type": "uint256"
        }
      ],
      "name": "Withdrawal",
      "type": "event"
    },
    {
      "inputs": [],
      "name": "_decimals",
      "outputs": [
        {
          "internalType": "uint8",
          "name": "",
          "type": "uint8"
        }
      ],
      "stateMutability": "view",
      "type": "function"
    },
    {
      "inputs": [],
      "name": "_name",
      "outputs": [
        {
          "internalType": "string",
          "name": "",
          "type": "string"
        }
      ],
      "stateMutability": "view",
      "type": "function"
    },
    {
      "inputs": [],
      "name": "_symbol",
      "outputs": [
        {
          "internalType": "string",
          "name": "",
          "type": "string"
        }
      ],
      "stateMutability": "view",
      "type": "function"
    },
    {
      "inputs": [
        {
          "internalType": "address",
          "name": "owner",
          "type": "address"
        },
        {
          "internalType": "address",
          "name": "spender",
          "type": "address"
        }
      ],
      "name": "allowance",
      "outputs": [
        {
          "internalType": "uint256",
          "name": "",
          "type": "uint256"
        }
      ],
      "stateMutability": "view",
      "type": "function"
    },
    {
      "inputs": [
        {
          "internalType": "address",
          "name": "spender",
          "type": "address"
        },
        {
          "internalType": "uint256",
          "name": "amount",
          "type": "uint256"
        }
      ],
      "name": "approve",
      "outputs": [
        {
          "internalType": "bool",
          "name": "",
          "type": "bool"
        }
      ],
      "stateMutability": "nonpayable",
      "type": "function"
    },
    {
      "inputs": [
        {
          "internalType": "address",
          "name": "account",
          "type": "address"
        }
      ],
      "name": "balanceOf",
      "outputs": [
        {
          "internalType": "uint256",
          "name": "",
          "type": "uint256"
        }
      ],
      "stateMutability": "view",
      "type": "function"
    },
    {
      "inputs": [],
      "name": "decimals",
      "outputs": [
        {
          "internalType": "uint8",
          "name": "",
          "type": "uint8"
        }
      ],
      "stateMutability": "view",
      "type": "function"
    },
    {
      "inputs": [
        {
          "internalType": "address",
          "name": "spender",
          "type": "address"
        },
        {
          "internalType": "uint256",
          "name": "subtractedValue",
          "type": "uint256"
        }
      ],
      "name": "decreaseAllowance",
      "outputs": [
        {
          "internalType": "bool",
          "name": "",
          "type": "bool"
        }
      ],
      "stateMutability": "nonpayable",
      "type": "function"
    },
    {
      "inputs": [],
      "name": "deposit",
      "outputs": [],
      "stateMutability": "payable",
      "type": "function"
    },
    {
      "inputs": [
        {
          "internalType": "address",
          "name": "spender",
          "type": "address"
        },
        {
          "internalType": "uint256",
          "name": "addedValue",
          "type": "uint256"
        }
      ],
      "name": "increaseAllowance",
      "outputs": [
        {
          "internalType": "bool",
          "name": "",
          "type": "bool"
        }
      ],
      "stateMutability": "nonpayable",
      "type": "function"
    },
    {
      "inputs": [],
      "name": "name",
      "outputs": [
        {
          "internalType": "string",
          "name": "",
          "type": "string"
        }
      ],
      "stateMutability": "view",
      "type": "function"
    },
    {
      "inputs": [],
      "name": "symbol",
      "outputs": [
        {
          "internalType": "string",
          "name": "",
          "type": "string"
        }
      ],
      "stateMutability": "view",
      "type": "function"
    },
    {
      "inputs": [],
      "name": "totalSupply",
      "outputs": [
        {
          "internalType": "uint256",
          "name": "",
          "type": "uint256"
        }
      ],
      "stateMutability": "view",
      "type": "function"
    },
    {
      "inputs": [
        {
          "internalType": "address",
          "name": "to",
          "type": "address"
        },
        {
          "internalType": "uint256",
          "name": "amount",
          "type": "uint256"
        }
      ],
      "name": "transfer",
      "outputs": [
        {
          "internalType": "bool",
          "name": "",
          "type": "bool"
        }
      ],
      "stateMutability": "nonpayable",
      "type": "function"
    },
    {
      "inputs": [
        {
          "internalType": "address",
          "name": "from",
          "type": "address"
        },
        {
          "internalType": "address",
          "name": "to",
          "type": "address"
        },
        {
          "internalType": "uint256",
          "name": "amount",
          "type": "uint256"
        }
      ],
      "name": "transferFrom",
      "outputs": [
        {
          "internalType": "bool",
          "name": "",
          "type": "bool"
        }
      ],
      "stateMutability": "nonpayable",
      "type": "function"
    },
    {
      "inputs": [
        {
          "internalType": "uint256",
          "name": "wad",
          "type": "uint256"
        },
        {
          "internalType": "address",
          "name": "user",
          "type": "address"
        }
      ],
      "name": "withdraw",
      "outputs": [],
      "stateMutability": "nonpayable",
      "type": "function"
    },
    {
      "inputs": [
        {
          "internalType": "uint256",
          "name": "wad",
          "type": "uint256"
        }
      ],
      "name": "withdraw",
      "outputs": [],
      "stateMutability": "nonpayable",
      "type": "function"
    }
  ],
  "bytecode": "0x608080604052346200045957600060059081546200001d816200045e565b8085526001918083169081156200043b5750600114620003fa575b50601f93601f19926001600160401b03929082900386018416820183811183821017620002ba5780604052848782600060065462000076816200045e565b80845290878116908115620003de57506001146200037c575b50030116810181811085821117620002ba576040528251848111620002ba5780600394620000be86546200045e565b8a81116200033f575b506020908a8311600114620002dc57600092620002d0575b505060001982861b1c191690831b1783555b8051938411620002ba57620001086004546200045e565b8781116200027c575b5060209087851160011462000211578495509084929160009562000205575b50501b92600019911b1c1916176004555b6200014d81546200045e565b828111620001e2575b507f577261707065642045746865720000000000000000000000000000000000001a815560065462000188906200045e565b90828211620001bd575b6008630ae8aa8960e31b016006556007805460ff19166012179055604051610dc69081620004b58239f35b620001d992600660005260206000209201901c8101906200049b565b38808062000192565b620001fe90826000528360206000209101831c8101906200049b565b3862000156565b01519350388062000130565b929194841692600460005284826000209460005b88828210620002625750501062000247575b50505050811b0160045562000141565b01519060f884600019921b161c191690553880808062000237565b848601518855909601956020948501948893500162000225565b620002a99060046000526020600020898088018a1c82019260208910620002b0575b01891c01906200049b565b3862000111565b925081926200029e565b634e487b7160e01b600052604160045260246000fd5b015190503880620000df565b90888694169187600052816000209260005b81811062000326575084116200030d575b505050811b018355620000f1565b015160001983881b60f8161c19169055388080620002ff565b82840151855588969094019360209384019301620002ee565b6200036b908760005260206000208c8086018d1c8201926020871062000372575b018c1c01906200049b565b38620000c7565b9250819262000360565b600660009081526020925090877ff652222313e28459528d920b65115c16c04f3efc82aaedc97be59f3f377c0d3f5b828410620003c057505050820101386200008f565b80548985018601528c97508e965088955092840192899101620003ab565b90506020925060ff19168284015215158a1b820101386200008f565b909150826000526020908160002082846000925b84841062000426575050509050840101903862000038565b805483858b010152019101908484916200040e565b9050602092935060ff1916828601521515831b840101903862000038565b600080fd5b90600182811c9216801562000490575b60208310146200047a57565b634e487b7160e01b600052602260045260246000fd5b91607f16916200046e565b818110620004a7575050565b600081556001016200049b56fe6040608081526004908136101561001557600080fd5b600091823560e01c908162f714ce146108e257816306fdde0314610808578163095ea7b3146107de57816318160ddd146107bf57816323b872dd146106f55781632e1a7d4d1461066b578163313ce5671461064f57816332424aa31461062d57816339509351146105dd57816370a08231146105a657816395d89b41146104ce578163a457c2d714610426578163a9059cbb146103f5578163b09f12661461031b578163d0e30db014610249578163d28d885214610128575063dd62ed3e146100dd57600080fd5b34610124578060031936011261012457806020926100f9610997565b61010161097c565b6001600160a01b0391821683526001865283832091168252845220549051908152f35b5080fd5b83833461012457816003193601126101245780519082600554600181811c9080831692831561023f575b602093848410811461022c5783885290811561021057506001146101ba575b505050829003601f01601f191682019267ffffffffffffffff8411838510176101a757508291826101a39252826109ad565b0390f35b634e487b7160e01b815260418552602490fd5b600587529192508591837f036b6384b5eca791c62761152d0c79bb0604c104a5fb6f4eb0703f3154bb3db05b8385106101fc5750505050830101858080610171565b8054888601830152930192849082016101e6565b60ff1916878501525050151560051b8401019050858080610171565b634e487b7160e01b895260228a52602489fd5b91607f1691610152565b9050826003193601126103175733156102d55750610269346002546109f6565b600255338252816020528082203481540190558051348152827fddf252ad1be2c89b69c2b068fc378daa952ba7f163c4a11628f55a4df523b3ef60203393a3513481527fe1fffcc4923d04b559f4d29a8bfc6cda04eb5b0d3c460751c2402c5c5cc9109c60203392a280f35b6020606492519162461bcd60e51b8352820152601f60248201527f45524332303a206d696e7420746f20746865207a65726f2061646472657373006044820152fd5b8280fd5b83833461012457816003193601126101245780519082600654600181811c908083169283156103eb575b602093848410811461022c57838852908115610210575060011461039557505050829003601f01601f191682019267ffffffffffffffff8411838510176101a757508291826101a39252826109ad565b600687529192508591837ff652222313e28459528d920b65115c16c04f3efc82aaedc97be59f3f377c0d3f5b8385106103d75750505050830101858080610171565b8054888601830152930192849082016103c1565b91607f1691610345565b50503461012457806003193601126101245760209061041f610415610997565b6024359033610a19565b5160018152f35b905082346104cb57826003193601126104cb57610441610997565b918360243592338152600160205281812060018060a01b038616825260205220549082821061047a5760208561041f8585038733610b87565b608490602086519162461bcd60e51b8352820152602560248201527f45524332303a2064656372656173656420616c6c6f77616e63652062656c6f77604482015264207a65726f60d81b6064820152fd5b80fd5b838334610124578160031936011261012457805190828454600181811c9080831692831561059c575b602093848410811461022c57838852908115610210575060011461054757505050829003601f01601f191682019267ffffffffffffffff8411838510176101a757508291826101a39252826109ad565b8787529192508591837f8a35acfbc15ff81a39ae7d344fd709f28e8600b4aa8c65c6b64bfe7fe36bd19b5b8385106105885750505050830101858080610171565b805488860183015293019284908201610572565b91607f16916104f7565b5050346101245760203660031901126101245760209181906001600160a01b036105ce610997565b16815280845220549051908152f35b50503461012457806003193601126101245761041f602092610626610600610997565b338352600186528483206001600160a01b038216845286529184902054602435906109f6565b9033610b87565b50503461012457816003193601126101245760209060ff600754169051908152f35b5050346101245781600319360112610124576020905160128152f35b905034610317576020366003190112610317573590338352826020528181842054106103175761069b8233610c89565b82808380156106eb575b8280929181923390f1156106e057519081527f7fcf532c15f0a6db0bd6d0e038bea71d30d808c7d98cb3bf7268a95bf5081b6560203392a280f35b51913d9150823e3d90fd5b6108fc91506106a5565b8391503461012457606036600319011261012457610711610997565b61071961097c565b91846044359460018060a01b038416815260016020528181203382526020522054906000198203610753575b60208661041f878787610a19565b84821061077c57509183916107716020969561041f95033383610b87565b919394819350610745565b606490602087519162461bcd60e51b8352820152601d60248201527f45524332303a20696e73756666696369656e7420616c6c6f77616e63650000006044820152fd5b5050346101245781600319360112610124576020906002549051908152f35b50503461012457806003193601126101245760209061041f6107fe610997565b6024359033610b87565b83833461012457816003193601126101245780519082600354600181811c908083169283156108d8575b602093848410811461022c57838852908115610210575060011461088257505050829003601f01601f191682019267ffffffffffffffff8411838510176101a757508291826101a39252826109ad565b600387529192508591837fc2575a0e9e593c00f959f8c92f12db2869c3395a3b0502d05e2516446f71f85b5b8385106108c45750505050830101858080610171565b8054888601830152930192849082016108ae565b91607f1691610832565b905034610317578160031936011261031757356108fd61097c565b33845283602052818385205410610978576109188233610c89565b6001600160a01b03169183828482821561096f575b839283928392f115610966577f7fcf532c15f0a6db0bd6d0e038bea71d30d808c7d98cb3bf7268a95bf5081b659160209151908152a280f35b513d84823e3d90fd5b506108fc61092d565b8380fd5b602435906001600160a01b038216820361099257565b600080fd5b600435906001600160a01b038216820361099257565b6020808252825181830181905290939260005b8281106109e257505060409293506000838284010152601f8019910116010190565b8181018601518482016040015285016109c0565b91908201809211610a0357565b634e487b7160e01b600052601160045260246000fd5b6001600160a01b03908116918215610b345716918215610ae357600082815280602052604081205491808310610a8f57604082827fddf252ad1be2c89b69c2b068fc378daa952ba7f163c4a11628f55a4df523b3ef958760209652828652038282205586815220818154019055604051908152a3565b60405162461bcd60e51b815260206004820152602660248201527f45524332303a207472616e7366657220616d6f756e7420657863656564732062604482015265616c616e636560d01b6064820152608490fd5b60405162461bcd60e51b815260206004820152602360248201527f45524332303a207472616e7366657220746f20746865207a65726f206164647260448201526265737360e81b6064820152608490fd5b60405162461bcd60e51b815260206004820152602560248201527f45524332303a207472616e736665722066726f6d20746865207a65726f206164604482015264647265737360d81b6064820152608490fd5b6001600160a01b03908116918215610c385716918215610be85760207f8c5be1e5ebec7d5bd14f71427d1e84f3dd0314c0f7b2291e5b200ac8c7c3b925918360005260018252604060002085600052825280604060002055604051908152a3565b60405162461bcd60e51b815260206004820152602260248201527f45524332303a20617070726f766520746f20746865207a65726f206164647265604482015261737360f01b6064820152608490fd5b60405162461bcd60e51b8152602060048201526024808201527f45524332303a20617070726f76652066726f6d20746865207a65726f206164646044820152637265737360e01b6064820152608490fd5b6001600160a01b03168015610d4157600091818352826020526040832054818110610cf157817fddf252ad1be2c89b69c2b068fc378daa952ba7f163c4a11628f55a4df523b3ef926020928587528684520360408620558060025403600255604051908152a3565b60405162461bcd60e51b815260206004820152602260248201527f45524332303a206275726e20616d6f756e7420657863656564732062616c616e604482015261636560f01b6064820152608490fd5b60405162461bcd60e51b815260206004820152602160248201527f45524332303a206275726e2066726f6d20746865207a65726f206164647265736044820152607360f81b6064820152608490fdfea2646970667358221220c3d0729fc5fdf8b4837d6274fb7362b0efbaf8e9dc8d4aea65645d39d3ad8c8764736f6c63430008130033",
  "linkReferences": {},
  "deployedLinkReferences": {}
}