{
  "_format": "hh-sol-artifact-1",
  "contractName": "OmniChainERC20",
  "sourceName": "contracts/templates/omnichaintokens/OmniChainERC20.sol",
  "abi": [
    {
      "inputs": [
        {
          "internalType": "address",
          "name": "_xTokenAddress",
          "type": "address"
        },
        {
          "internalType": "address",
          "name": "_outboundStateSender",
          "type": "address"
        },
        {
          "internalType": "address",
          "name": "_stateSyncerVerifier",
          "type": "address"
        }
      ],
      "stateMutability": "nonpayable",
      "type": "constructor"
    },
    {
      "anonymous": false,
      "inputs": [
        {
          "indexed": false,
          "internalType": "bytes32",
          "name": "chainName",
          "type": "bytes32"
        },
        {
          "indexed": false,
          "internalType": "bytes",
          "name": "contractAddress",
          "type": "bytes"
        }
      ],
      "name": "ChainContractMappingUpdated",
      "type": "event"
    },
    {
      "anonymous": false,
      "inputs": [
        {
          "indexed": true,
          "internalType": "bytes32",
          "name": "role",
          "type": "bytes32"
        },
        {
          "indexed": true,
          "internalType": "bytes32",
          "name": "previousAdminRole",
          "type": "bytes32"
        },
        {
          "indexed": true,
          "internalType": "bytes32",
          "name": "newAdminRole",
          "type": "bytes32"
        }
      ],
      "name": "RoleAdminChanged",
      "type": "event"
    },
    {
      "anonymous": false,
      "inputs": [
        {
          "indexed": true,
          "internalType": "bytes32",
          "name": "role",
          "type": "bytes32"
        },
        {
          "indexed": true,
          "internalType": "address",
          "name": "account",
          "type": "address"
        },
        {
          "indexed": true,
          "internalType": "address",
          "name": "sender",
          "type": "address"
        }
      ],
      "name": "RoleGranted",
      "type": "event"
    },
    {
      "anonymous": false,
      "inputs": [
        {
          "indexed": true,
          "internalType": "bytes32",
          "name": "role",
          "type": "bytes32"
        },
        {
          "indexed": true,
          "internalType": "address",
          "name": "account",
          "type": "address"
        },
        {
          "indexed": true,
          "internalType": "address",
          "name": "sender",
          "type": "address"
        }
      ],
      "name": "RoleRevoked",
      "type": "event"
    },
    {
      "anonymous": false,
      "inputs": [
        {
          "indexed": false,
          "internalType": "bytes32",
          "name": "destinationChain",
          "type": "bytes32"
        },
        {
          "indexed": false,
          "internalType": "bytes",
          "name": "user",
          "type": "bytes"
        },
        {
          "indexed": false,
          "internalType": "uint256",
          "name": "amount",
          "type": "uint256"
        }
      ],
      "name": "TokensTransferredToChain",
      "type": "event"
    },
    {
      "inputs": [],
      "name": "ADMIN_ROLE",
      "outputs": [
        {
          "internalType": "bytes32",
          "name": "",
          "type": "bytes32"
        }
      ],
      "stateMutability": "view",
      "type": "function"
    },
    {
      "inputs": [],
      "name": "DEFAULT_ADMIN_ROLE",
      "outputs": [
        {
          "internalType": "bytes32",
          "name": "",
          "type": "bytes32"
        }
      ],
      "stateMutability": "view",
      "type": "function"
    },
    {
      "inputs": [],
      "name": "MINTER_ROLE",
      "outputs": [
        {
          "internalType": "bytes32",
          "name": "",
          "type": "bytes32"
        }
      ],
      "stateMutability": "view",
      "type": "function"
    },
    {
      "inputs": [
        {
          "internalType": "bytes32",
          "name": "",
          "type": "bytes32"
        }
      ],
      "name": "chainContractMappings",
      "outputs": [
        {
          "internalType": "bytes",
          "name": "",
          "type": "bytes"
        }
      ],
      "stateMutability": "view",
      "type": "function"
    },
    {
      "inputs": [
        {
          "internalType": "bytes32",
          "name": "role",
          "type": "bytes32"
        }
      ],
      "name": "getRoleAdmin",
      "outputs": [
        {
          "internalType": "bytes32",
          "name": "",
          "type": "bytes32"
        }
      ],
      "stateMutability": "view",
      "type": "function"
    },
    {
      "inputs": [
        {
          "internalType": "bytes32",
          "name": "role",
          "type": "bytes32"
        },
        {
          "internalType": "address",
          "name": "account",
          "type": "address"
        }
      ],
      "name": "grantRole",
      "outputs": [],
      "stateMutability": "nonpayable",
      "type": "function"
    },
    {
      "inputs": [
        {
          "internalType": "bytes32",
          "name": "role",
          "type": "bytes32"
        },
        {
          "internalType": "address",
          "name": "account",
          "type": "address"
        }
      ],
      "name": "hasRole",
      "outputs": [
        {
          "internalType": "bool",
          "name": "",
          "type": "bool"
        }
      ],
      "stateMutability": "view",
      "type": "function"
    },
    {
      "inputs": [
        {
          "internalType": "uint256",
          "name": "",
          "type": "uint256"
        },
        {
          "internalType": "bytes",
          "name": "data",
          "type": "bytes"
        }
      ],
      "name": "onStateReceive",
      "outputs": [],
      "stateMutability": "nonpayable",
      "type": "function"
    },
    {
      "inputs": [],
      "name": "outboundStateSender",
      "outputs": [
        {
          "internalType": "contract IOutboundStateSender",
          "name": "",
          "type": "address"
        }
      ],
      "stateMutability": "view",
      "type": "function"
    },
    {
      "inputs": [
        {
          "internalType": "bytes32",
          "name": "role",
          "type": "bytes32"
        },
        {
          "internalType": "address",
          "name": "account",
          "type": "address"
        }
      ],
      "name": "renounceRole",
      "outputs": [],
      "stateMutability": "nonpayable",
      "type": "function"
    },
    {
      "inputs": [
        {
          "internalType": "bytes32",
          "name": "role",
          "type": "bytes32"
        },
        {
          "internalType": "address",
          "name": "account",
          "type": "address"
        }
      ],
      "name": "revokeRole",
      "outputs": [],
      "stateMutability": "nonpayable",
      "type": "function"
    },
    {
      "inputs": [
        {
          "internalType": "bytes4",
          "name": "interfaceId",
          "type": "bytes4"
        }
      ],
      "name": "supportsInterface",
      "outputs": [
        {
          "internalType": "bool",
          "name": "",
          "type": "bool"
        }
      ],
      "stateMutability": "view",
      "type": "function"
    },
    {
      "inputs": [
        {
          "internalType": "bytes32",
          "name": "destinationChain",
          "type": "bytes32"
        },
        {
          "internalType": "bytes",
          "name": "user",
          "type": "bytes"
        },
        {
          "internalType": "uint256",
          "name": "amount",
          "type": "uint256"
        },
        {
          "internalType": "bytes",
          "name": "destinationContractAddress",
          "type": "bytes"
        }
      ],
      "name": "transferToChain",
      "outputs": [],
      "stateMutability": "payable",
      "type": "function"
    },
    {
      "inputs": [
        {
          "internalType": "bytes32",
          "name": "chainName",
          "type": "bytes32"
        },
        {
          "internalType": "bytes",
          "name": "contractAddress",
          "type": "bytes"
        }
      ],
      "name": "updateChainContractMapping",
      "outputs": [],
      "stateMutability": "nonpayable",
      "type": "function"
    },
    {
      "inputs": [],
      "name": "xToken",
      "outputs": [
        {
          "internalType": "contract XTokenContract",
          "name": "",
          "type": "address"
        }
      ],
      "stateMutability": "view",
      "type": "function"
    }
  ],
  "bytecode": "0x6080346200028d57601f6200158438819003918201601f191683019291906001600160401b03841183851017620002925781606092849260409687528339810103126200028d576200005181620002a8565b9060206200006e8462000066838501620002a8565b9301620002a8565b60016000908155936001600160a01b0390811693919291841562000233578116928315620001c957169384156200015f577fa49807205ce4d355092ef5a8a18f56e8913cf4a201fbe287825b095693c217759182825260018152868220338352815260ff87832054161562000112575b50505060018060a01b0319918260025416176002558160045416176004556003541617600355516112c69081620002be8239f35b828252600181528682209033835252858120600160ff1982541617905533917f2f8788117e7eff1d82e926ec794901d17c78024a50270940304540a733656f0d339280a4388080620000de565b855162461bcd60e51b815260048101839052603560248201527f4f6d6e69436861696e45524332303a20496e76616c696420737461746520737960448201527f6e636572207665726966696572206164647265737300000000000000000000006064820152608490fd5b865162461bcd60e51b815260048101849052603a60248201527f4f6d6e69436861696e45524332303a204f7574626f756e64537461746553656e60448201527f64657220616464726573732063616e6e6f74206265207a65726f0000000000006064820152608490fd5b865162461bcd60e51b815260048101849052602d60248201527f4f6d6e69436861696e45524332303a2058546f6b656e2061646472657373206360448201526c616e6e6f74206265207a65726f60981b6064820152608490fd5b600080fd5b634e487b7160e01b600052604160045260246000fd5b51906001600160a01b03821682036200028d5756fe6080604052600436101561001257600080fd5b60003560e01c806301ffc9a714610107578063088b699e14610102578063248a9ca3146100fd57806326c53bea146100f85780632783d84f146100f35780632f2ff15d146100ee57806336568abe146100e95780635a81dd1b146100e457806375b238fc146100df5780638dc58a87146100da57806391d14854146100d5578063a217fddf146100d0578063d5391393146100cb578063d547741f146100c65763d6726b37146100c157600080fd5b610b12565b6109a8565b61096d565b610951565b6108fb565b6106dc565b6106a1565b610678565b6105e2565b610515565b61039e565b6101c5565b610196565b61016d565b3461015d57602036600319011261015d5760043563ffffffff60e01b811680910361015d57602090637965db0b60e01b811490811561014c575b506040519015158152f35b6301ffc9a760e01b14905038610141565b600080fd5b600091031261015d57565b3461015d57600036600319011261015d576002546040516001600160a01b039091168152602090f35b3461015d57602036600319011261015d5760043560005260016020526020600160406000200154604051908152f35b3461015d57604036600319011261015d5760243567ffffffffffffffff80821161015d573660238301121561015d57816004013590811161015d57366024828401011161015d5760035460405163f4ef4d6960e01b81526001600160a01b03916020908290600490829086165afa9081156102f1576000916102b4575b5016330361025857602461025692016111d1565b005b60405162461bcd60e51b815260206004820152602e60248201527f4f6d6e69436861696e45524332303a2043616c6c6572206973206e6f7420746860448201526d329039ba30ba329039bcb731b2b960911b6064820152608490fd5b906020823d82116102e9575b816102cd60209383610325565b810103126102e65750516102e081610504565b38610242565b80fd5b3d91506102c0565b61109d565b634e487b7160e01b600052604160045260246000fd5b67ffffffffffffffff811161032057604052565b6102f6565b90601f8019910116810190811067ffffffffffffffff82111761032057604052565b81601f8201121561015d5780359067ffffffffffffffff8211610320576040519261037c601f8401601f191660200185610325565b8284526020838301011161015d57816000926020809301838601378301015290565b3461015d57604036600319011261015d5767ffffffffffffffff60043560243582811161015d576103d3903690600401610347565b6103db610b56565b60009180835260206005815260408420908351958611610320576104098661040384546109ea565b84610fc0565b80601f87116001146104765750948085967f5a2091c6c2e10c7cdba84047a6191524b248b1548b97af446d4d19d2a9ce6e05969161046b575b508160011b916000199060031b1c19161790555b61046560405192839283611014565b0390a180f35b905084015138610442565b90601f19871661048b84600052602060002090565b9287905b8282106104ec5750509187917f5a2091c6c2e10c7cdba84047a6191524b248b1548b97af446d4d19d2a9ce6e059798600194106104d3575b5050811b019055610456565b86015160001960f88460031b161c1916905538806104c7565b80600185968294968b0151815501950193019061048f565b6001600160a01b0381160361015d57565b3461015d57604036600319011261015d5760043560243561053581610504565b60009180835260016020526105506001604085200154610c38565b8083526001602090815260408085206001600160a01b0385166000908152925290205460ff161561057f578280f35b8083526001602090815260408085206001600160a01b038516600090815292529020805460ff1916600117905533916001600160a01b0316907f2f8788117e7eff1d82e926ec794901d17c78024a50270940304540a733656f0d8480a438808280f35b3461015d57604036600319011261015d576024356105ff81610504565b336001600160a01b0382160361061b5761025690600435610d23565b60405162461bcd60e51b815260206004820152602f60248201527f416363657373436f6e74726f6c3a2063616e206f6e6c792072656e6f756e636560448201526e103937b632b9903337b91039b2b63360891b6064820152608490fd5b3461015d57600036600319011261015d576004546040516001600160a01b039091168152602090f35b3461015d57600036600319011261015d5760206040517fa49807205ce4d355092ef5a8a18f56e8913cf4a201fbe287825b095693c217758152f35b608036600319011261015d57600467ffffffffffffffff813560243582811161015d5761070c9036908501610347565b906044359260643590811161015d576107289036908601610347565b9260009460028654146108b7576002865561076c8551602087012061075f61075a866000526005602052604060002090565b610a24565b602081519101201461102b565b600254610789906001600160a01b03165b6001600160a01b031690565b90813b156108b35760408051632770a7eb60e21b815233838201908152602081018690529093899285928391859183910103925af19182156102f15787926108a0575b5080546107e1906001600160a01b031661077d565b60405191610805836107f7878a602084016110a9565b03601f198101855284610325565b813b1561089c5761082e97604051988994859384936338d1822d60e11b85528a339286016110cd565b039134905af19081156102f1577f6481e19439b3dd27df442058dc7d8aead048f4585207761e8a41d113fd5b348c9461087392610883575b5060405193849384611108565b0390a16108806001600055565b80f35b806108906108969261030c565b80610162565b38610866565b8380fd5b806108906108ad9261030c565b386107cc565b8680fd5b60649060206040519162461bcd60e51b8352820152601f60248201527f5265656e7472616e637947756172643a207265656e7472616e742063616c6c006044820152fd5b3461015d57604036600319011261015d57602060ff61094560243561091f81610504565b6004356000526001845260406000209060018060a01b0316600052602052604060002090565b54166040519015158152f35b3461015d57600036600319011261015d57602060405160008152f35b3461015d57600036600319011261015d5760206040517f9f2df0fed2c77648de5860a4cc508cd0818c85b8b8a1ab4ceeef8d981c8956a68152f35b3461015d57604036600319011261015d576102566024356004356109cb82610504565b8060005260016020526109e5600160406000200154610c38565b610d23565b90600182811c92168015610a1a575b6020831014610a0457565b634e487b7160e01b600052602260045260246000fd5b91607f16916109f9565b9060405191826000825492610a38846109ea565b908184526001948581169081600014610aa75750600114610a64575b5050610a6292500383610325565b565b9093915060005260209081600020936000915b818310610a8f575050610a6293508201013880610a54565b85548884018501529485019487945091830191610a77565b915050610a6294506020925060ff191682840152151560051b8201013880610a54565b60005b838110610add5750506000910152565b8181015183820152602001610acd565b90602091610b0681518092818552858086019101610aca565b601f01601f1916010190565b3461015d57602036600319011261015d576004356000526005602052610b52610b3e6040600020610a24565b604051918291602083526020830190610aed565b0390f35b3360009081527f50efbde2d46c37e9785f1791697f77e94bb7b701e19f1930a668820722d37694602052604090205460ff1615610b8f57565b610c346048610c1c610ba033610e94565b610c0e610bab610f2f565b6040519485937f416363657373436f6e74726f6c3a206163636f756e74200000000000000000006020860152610beb815180926020603789019101610aca565b84017001034b99036b4b9b9b4b733903937b6329607d1b60378201520190610cf8565b03601f198101835282610325565b60405162461bcd60e51b815291829160048301610d0f565b0390fd5b60008181526001602081815260408084203385529091529091205490919060ff1615610c62575050565b610c6b33610e94565b90610c74610db6565b926030610c8085610df8565b536078610c8c85610e05565b536041905b808211610caf57610c346048610c1c86610c0e89610bab8915610e49565b9091600f8116906010821015610cf357610ced916f181899199a1a9b1b9c1cb0b131b232b360811b901a610ce38588610e15565b5360041c92610e26565b90610c91565b610de2565b90610d0b60209282815194859201610aca565b0190565b906020610d20928181520190610aed565b90565b600090808252600160205260ff610d4f84604085209060018060a01b0316600052602052604060002090565b5416610d5a57505050565b8082526001602090815260408084206001600160a01b038616600090815292529020805460ff1916905533926001600160a01b0316917ff6391f5c32d9c69d2a47ea670b442974b53935d1edc7fd64eb21e047a839171b9080a4565b604051906080820182811067ffffffffffffffff82111761032057604052604282526060366020840137565b634e487b7160e01b600052603260045260246000fd5b805115610cf35760200190565b805160011015610cf35760210190565b908151811015610cf3570160200190565b8015610e33576000190190565b634e487b7160e01b600052601160045260246000fd5b15610e5057565b606460405162461bcd60e51b815260206004820152602060248201527f537472696e67733a20686578206c656e67746820696e73756666696369656e746044820152fd5b604051906060820182811067ffffffffffffffff82111761032057604052602a825260403660208401376030610ec983610df8565b536078610ed583610e05565b536029905b60018211610eed57610d20915015610e49565b600f8116906010821015610cf357610f29916f181899199a1a9b1b9c1cb0b131b232b360811b901a610f1f8486610e15565b5360041c91610e26565b90610eda565b7fa49807205ce4d355092ef5a8a18f56e8913cf4a201fbe287825b095693c21775610f58610db6565b906030610f6483610df8565b536078610f7083610e05565b536041905b60018211610f8857610d20915015610e49565b600f8116906010821015610cf357610fba916f181899199a1a9b1b9c1cb0b131b232b360811b901a610f1f8486610e15565b90610f75565b90601f8111610fce57505050565b600091825260208220906020601f850160051c8301941061100a575b601f0160051c01915b828110610fff57505050565b818155600101610ff3565b9092508290610fea565b604090610d20939281528160208201520190610aed565b1561103257565b60405162461bcd60e51b815260206004820152603b60248201527f4f6d6e69436861696e45524332303a2044657374696e6174696f6e20636f6e7460448201527f72616374206164647265737320646f6573206e6f74206d6174636800000000006064820152608490fd5b6040513d6000823e3d90fd5b6040906110c3600093959495606083526060830190610aed565b9460208201520152565b90610d2094926110ea918352608060208401526080830190610aed565b6001600160a01b039093166040820152808303606090910152610aed565b939291611125906040928652606060208701526060860190610aed565b930152565b1561113157565b60405162461bcd60e51b815260206004820152602660248201527f4f6d6e69436861696e45524332303a20496e76616c69642061646472657373206044820152650d8cadccee8d60d31b6064820152608490fd5b1561118c57565b60405162461bcd60e51b815260206004820152601f60248201527f4f6d6e69436861696e45524332303a20496e76616c69642061646472657373006044820152606490fd5b90810160608282031261015d57813567ffffffffffffffff811161015d576014916111fd918401610347565b6112098282511461112a565b0151906112206001600160a01b0383161515611185565b600254611235906001600160a01b031661077d565b91823b1561015d576040516340c10f1960e01b81526001600160a01b03919091166004820152602091909101356024820152906000908290604490829084905af180156102f1576112835750565b80610890610a629261030c56fea26469706673582212208cbd77b972133f3a1f51c4c13347183b3531967af41ae558026a18fe8a829e0a64736f6c63430008130033",
  "linkReferences": {},
  "deployedLinkReferences": {}
}