{
  "_format": "hh-sol-artifact-1",
  "contractName": "OmniChainNFTContract",
  "sourceName": "contracts/templates/omnichainnft/OmniChainNFTContract.sol",
  "abi": [
    {
      "anonymous": false,
      "inputs": [
        {
          "indexed": false,
          "internalType": "address",
          "name": "previousAdmin",
          "type": "address"
        },
        {
          "indexed": false,
          "internalType": "address",
          "name": "newAdmin",
          "type": "address"
        }
      ],
      "name": "AdminChanged",
      "type": "event"
    },
    {
      "anonymous": false,
      "inputs": [
        {
          "indexed": true,
          "internalType": "address",
          "name": "beacon",
          "type": "address"
        }
      ],
      "name": "BeaconUpgraded",
      "type": "event"
    },
    {
      "anonymous": false,
      "inputs": [
        {
          "indexed": false,
          "internalType": "bytes32",
          "name": "chainName",
          "type": "bytes32"
        },
        {
          "indexed": false,
          "internalType": "bytes",
          "name": "contractAddress",
          "type": "bytes"
        }
      ],
      "name": "ChainContractMappingUpdated",
      "type": "event"
    },
    {
      "anonymous": false,
      "inputs": [
        {
          "indexed": false,
          "internalType": "uint8",
          "name": "version",
          "type": "uint8"
        }
      ],
      "name": "Initialized",
      "type": "event"
    },
    {
      "anonymous": false,
      "inputs": [
        {
          "indexed": false,
          "internalType": "bytes32",
          "name": "destinationChain",
          "type": "bytes32"
        },
        {
          "indexed": false,
          "internalType": "bytes",
          "name": "user",
          "type": "bytes"
        },
        {
          "indexed": false,
          "internalType": "uint256",
          "name": "tokenId",
          "type": "uint256"
        }
      ],
      "name": "NFTsTransferredToChain",
      "type": "event"
    },
    {
      "anonymous": false,
      "inputs": [
        {
          "indexed": true,
          "internalType": "bytes32",
          "name": "role",
          "type": "bytes32"
        },
        {
          "indexed": true,
          "internalType": "bytes32",
          "name": "previousAdminRole",
          "type": "bytes32"
        },
        {
          "indexed": true,
          "internalType": "bytes32",
          "name": "newAdminRole",
          "type": "bytes32"
        }
      ],
      "name": "RoleAdminChanged",
      "type": "event"
    },
    {
      "anonymous": false,
      "inputs": [
        {
          "indexed": true,
          "internalType": "bytes32",
          "name": "role",
          "type": "bytes32"
        },
        {
          "indexed": true,
          "internalType": "address",
          "name": "account",
          "type": "address"
        },
        {
          "indexed": true,
          "internalType": "address",
          "name": "sender",
          "type": "address"
        }
      ],
      "name": "RoleGranted",
      "type": "event"
    },
    {
      "anonymous": false,
      "inputs": [
        {
          "indexed": true,
          "internalType": "bytes32",
          "name": "role",
          "type": "bytes32"
        },
        {
          "indexed": true,
          "internalType": "address",
          "name": "account",
          "type": "address"
        },
        {
          "indexed": true,
          "internalType": "address",
          "name": "sender",
          "type": "address"
        }
      ],
      "name": "RoleRevoked",
      "type": "event"
    },
    {
      "anonymous": false,
      "inputs": [
        {
          "indexed": true,
          "internalType": "address",
          "name": "implementation",
          "type": "address"
        }
      ],
      "name": "Upgraded",
      "type": "event"
    },
    {
      "inputs": [],
      "name": "ADMIN_ROLE",
      "outputs": [
        {
          "internalType": "bytes32",
          "name": "",
          "type": "bytes32"
        }
      ],
      "stateMutability": "view",
      "type": "function"
    },
    {
      "inputs": [],
      "name": "DEFAULT_ADMIN_ROLE",
      "outputs": [
        {
          "internalType": "bytes32",
          "name": "",
          "type": "bytes32"
        }
      ],
      "stateMutability": "view",
      "type": "function"
    },
    {
      "inputs": [],
      "name": "MINTER_ROLE",
      "outputs": [
        {
          "internalType": "bytes32",
          "name": "",
          "type": "bytes32"
        }
      ],
      "stateMutability": "view",
      "type": "function"
    },
    {
      "inputs": [
        {
          "internalType": "bytes32",
          "name": "",
          "type": "bytes32"
        }
      ],
      "name": "chainContractMappings",
      "outputs": [
        {
          "internalType": "bytes",
          "name": "",
          "type": "bytes"
        }
      ],
      "stateMutability": "view",
      "type": "function"
    },
    {
      "inputs": [
        {
          "internalType": "bytes32",
          "name": "role",
          "type": "bytes32"
        }
      ],
      "name": "getRoleAdmin",
      "outputs": [
        {
          "internalType": "bytes32",
          "name": "",
          "type": "bytes32"
        }
      ],
      "stateMutability": "view",
      "type": "function"
    },
    {
      "inputs": [
        {
          "internalType": "bytes32",
          "name": "role",
          "type": "bytes32"
        },
        {
          "internalType": "address",
          "name": "account",
          "type": "address"
        }
      ],
      "name": "grantRole",
      "outputs": [],
      "stateMutability": "nonpayable",
      "type": "function"
    },
    {
      "inputs": [
        {
          "internalType": "bytes32",
          "name": "role",
          "type": "bytes32"
        },
        {
          "internalType": "address",
          "name": "account",
          "type": "address"
        }
      ],
      "name": "hasRole",
      "outputs": [
        {
          "internalType": "bool",
          "name": "",
          "type": "bool"
        }
      ],
      "stateMutability": "view",
      "type": "function"
    },
    {
      "inputs": [
        {
          "internalType": "address",
          "name": "_xNFTAddress",
          "type": "address"
        },
        {
          "internalType": "address",
          "name": "_outboundStateSender",
          "type": "address"
        },
        {
          "internalType": "address",
          "name": "_stateSyncerVerifier",
          "type": "address"
        }
      ],
      "name": "initialize",
      "outputs": [],
      "stateMutability": "nonpayable",
      "type": "function"
    },
    {
      "inputs": [
        {
          "internalType": "uint256",
          "name": "",
          "type": "uint256"
        },
        {
          "internalType": "bytes",
          "name": "data",
          "type": "bytes"
        }
      ],
      "name": "onStateReceive",
      "outputs": [],
      "stateMutability": "nonpayable",
      "type": "function"
    },
    {
      "inputs": [],
      "name": "outboundStateSender",
      "outputs": [
        {
          "internalType": "contract IOutboundStateSender",
          "name": "",
          "type": "address"
        }
      ],
      "stateMutability": "view",
      "type": "function"
    },
    {
      "inputs": [],
      "name": "proxiableUUID",
      "outputs": [
        {
          "internalType": "bytes32",
          "name": "",
          "type": "bytes32"
        }
      ],
      "stateMutability": "view",
      "type": "function"
    },
    {
      "inputs": [
        {
          "internalType": "bytes32",
          "name": "role",
          "type": "bytes32"
        },
        {
          "internalType": "address",
          "name": "account",
          "type": "address"
        }
      ],
      "name": "renounceRole",
      "outputs": [],
      "stateMutability": "nonpayable",
      "type": "function"
    },
    {
      "inputs": [
        {
          "internalType": "bytes32",
          "name": "role",
          "type": "bytes32"
        },
        {
          "internalType": "address",
          "name": "account",
          "type": "address"
        }
      ],
      "name": "revokeRole",
      "outputs": [],
      "stateMutability": "nonpayable",
      "type": "function"
    },
    {
      "inputs": [
        {
          "internalType": "bytes4",
          "name": "interfaceId",
          "type": "bytes4"
        }
      ],
      "name": "supportsInterface",
      "outputs": [
        {
          "internalType": "bool",
          "name": "",
          "type": "bool"
        }
      ],
      "stateMutability": "view",
      "type": "function"
    },
    {
      "inputs": [
        {
          "internalType": "bytes32",
          "name": "destinationChain",
          "type": "bytes32"
        },
        {
          "internalType": "bytes",
          "name": "user",
          "type": "bytes"
        },
        {
          "internalType": "uint256",
          "name": "tokenId",
          "type": "uint256"
        },
        {
          "internalType": "bytes",
          "name": "destinationContractAddress",
          "type": "bytes"
        }
      ],
      "name": "transferToChain",
      "outputs": [],
      "stateMutability": "nonpayable",
      "type": "function"
    },
    {
      "inputs": [
        {
          "internalType": "bytes32",
          "name": "chainName",
          "type": "bytes32"
        },
        {
          "internalType": "bytes",
          "name": "contractAddress",
          "type": "bytes"
        }
      ],
      "name": "updateChainContractMapping",
      "outputs": [],
      "stateMutability": "nonpayable",
      "type": "function"
    },
    {
      "inputs": [
        {
          "internalType": "address",
          "name": "newImplementation",
          "type": "address"
        }
      ],
      "name": "upgradeTo",
      "outputs": [],
      "stateMutability": "nonpayable",
      "type": "function"
    },
    {
      "inputs": [
        {
          "internalType": "address",
          "name": "newImplementation",
          "type": "address"
        },
        {
          "internalType": "bytes",
          "name": "data",
          "type": "bytes"
        }
      ],
      "name": "upgradeToAndCall",
      "outputs": [],
      "stateMutability": "payable",
      "type": "function"
    },
    {
      "inputs": [],
      "name": "xNFT",
      "outputs": [
        {
          "internalType": "contract XNFTContract",
          "name": "",
          "type": "address"
        }
      ],
      "stateMutability": "view",
      "type": "function"
    }
  ],
  "bytecode": "0x60a080604052346100315730608052611eb59081610037823960805181818161070d01528181610886015261099b0152f35b600080fdfe6080604052600436101561001257600080fd5b60003560e01c806301ffc9a714610147578063100aff8b14610142578063248a9ca31461013d57806326c53bea146101385780632783d84f146101335780632f2ff15d1461012e57806336568abe146101295780633659cfe6146101245780634f1ef2861461011f57806352d1902d1461011a5780635a81dd1b1461011557806375b238fc146101105780638dc58a871461010b57806391d1485414610106578063a217fddf14610101578063c0c53b8b146100fc578063d5391393146100f7578063d547741f146100f25763d6726b37146100ed57600080fd5b610ff0565b610e86565b610e4b565b610d45565b610d29565b610cd3565b610ab5565b610a7a565b610a51565b610988565b610844565b6106e6565b610650565b610583565b61040c565b610205565b6101d6565b6101ad565b3461019d57602036600319011261019d5760043563ffffffff60e01b811680910361019d57602090637965db0b60e01b811490811561018c575b506040519015158152f35b6301ffc9a760e01b14905038610181565b600080fd5b600091031261019d57565b3461019d57600036600319011261019d576098546040516001600160a01b039091168152602090f35b3461019d57602036600319011261019d5760043560005260976020526020600160406000200154604051908152f35b3461019d57604036600319011261019d5760243567ffffffffffffffff80821161019d573660238301121561019d57816004013590811161019d57366024828401011161019d57609a5460405163f4ef4d6960e01b81526001600160a01b03916020908290600490829086165afa908115610337576000916102fa575b501633036102985760246102969201611da0565b005b60405162461bcd60e51b815260206004820152603460248201527f4f6d6e69436861696e4e4654436f6e74726163743a2043616c6c6572206973206044820152733737ba103a34329039ba30ba329039bcb731b2b960611b6064820152608490fd5b906020823d821161032f575b8161031360209383610387565b8101031261032c57505161032681610572565b38610282565b80fd5b3d9150610306565b61112d565b634e487b7160e01b600052604160045260246000fd5b67ffffffffffffffff811161036657604052565b61033c565b6060810190811067ffffffffffffffff82111761036657604052565b90601f8019910116810190811067ffffffffffffffff82111761036657604052565b67ffffffffffffffff811161036657601f01601f191660200190565b81601f8201121561019d578035906103dc826103a9565b926103ea6040519485610387565b8284526020838301011161019d57816000926020809301838601378301015290565b3461019d57604036600319011261019d5767ffffffffffffffff60043560243582811161019d576104419036906004016103c5565b610449611451565b6000918083526020609b81526040842090835195861161036657610477866104718454610ec8565b84611b7d565b80601f87116001146104e45750948085967f5a2091c6c2e10c7cdba84047a6191524b248b1548b97af446d4d19d2a9ce6e0596916104d9575b508160011b916000199060031b1c19161790555b6104d360405192839283611bd1565b0390a180f35b9050840151386104b0565b90601f1987166104f984600052602060002090565b9287905b82821061055a5750509187917f5a2091c6c2e10c7cdba84047a6191524b248b1548b97af446d4d19d2a9ce6e05979860019410610541575b5050811b0190556104c4565b86015160001960f88460031b161c191690553880610535565b80600185968294968b015181550195019301906104fd565b6001600160a01b0381160361019d57565b3461019d57604036600319011261019d576004356024356105a381610572565b60009180835260976020526105be600160408520015461152f565b8083526097602090815260408085206001600160a01b0385166000908152925290205460ff16156105ed578280f35b8083526097602090815260408085206001600160a01b038516600090815292529020805460ff1916600117905533916001600160a01b0316907f2f8788117e7eff1d82e926ec794901d17c78024a50270940304540a733656f0d8480a438808280f35b3461019d57604036600319011261019d5760243561066d81610572565b336001600160a01b0382160361068957610296906004356116c4565b60405162461bcd60e51b815260206004820152602f60248201527f416363657373436f6e74726f6c3a2063616e206f6e6c792072656e6f756e636560448201526e103937b632b9903337b91039b2b63360891b6064820152608490fd5b3461019d57602036600319011261019d5760043561070381610572565b6001600160a01b037f00000000000000000000000000000000000000000000000000000000000000008116919061073c30841415611030565b610759600080516020611e60833981519152938285541614611091565b610761611451565b604051906020820182811067ffffffffffffffff82111761036657604052600082527f4910fdfa16fed3260ed0e7147f7cc6da11a60208b5b9406d12a635614ffd91435460ff16156107b957505061029691506111e6565b6020600491604094939451928380926352d1902d60e01b825286165afa60009181610814575b506108015760405162461bcd60e51b8152806107fd60048201611197565b0390fd5b6102969361080f9114611139565b61135c565b61083691925060203d811161083d575b61082e8183610387565b81019061111e565b90386107df565b503d610824565b604036600319011261019d5760043561085c81610572565b60243567ffffffffffffffff811161019d5761087c9036906004016103c5565b6001600160a01b037f000000000000000000000000000000000000000000000000000000000000000081169291906108b630851415611030565b6108d3600080516020611e60833981519152948286541614611091565b6108db611451565b7f4910fdfa16fed3260ed0e7147f7cc6da11a60208b5b9406d12a635614ffd91435460ff161561091157505061029691506111e6565b6020600491604094939451928380926352d1902d60e01b825286165afa60009181610968575b506109555760405162461bcd60e51b8152806107fd60048201611197565b610296936109639114611139565b611276565b61098191925060203d811161083d5761082e8183610387565b9038610937565b3461019d57600036600319011261019d577f00000000000000000000000000000000000000000000000000000000000000006001600160a01b031630036109e657604051600080516020611e608339815191528152602090f35b0390f35b60405162461bcd60e51b815260206004820152603860248201527f555550535570677261646561626c653a206d757374206e6f742062652063616c60448201527f6c6564207468726f7567682064656c656761746563616c6c00000000000000006064820152608490fd5b3461019d57600036600319011261019d576099546040516001600160a01b039091168152602090f35b3461019d57600036600319011261019d5760206040517fa49807205ce4d355092ef5a8a18f56e8913cf4a201fbe287825b095693c217758152f35b3461019d57608036600319011261019d57600467ffffffffffffffff813560243582811161019d57610aea90369085016103c5565b906044359260643590811161019d57610b0690369086016103c5565b92600260655414610c8f576002606555610b4984516020860120610b3c610b3785600052609b602052604060002090565b610f02565b6020815191012014611be8565b609854610b66906001600160a01b03165b6001600160a01b031690565b803b1561019d57604051958691630852cd8d60e31b83526000978891818381610b96898883019190602083019252565b03925af1918215610337578792610c7c575b50609954610bbe906001600160a01b0316610b5a565b60405191610be283610bd4878a60208401611c64565b03601f198101855284610387565b813b15610c785783610c0c98604051998a95869485936338d1822d60e11b85528b33928601611c88565b03925af1908115610337577f234461fc0466ab9609e7b1b9092a4adc3d4566cc2bf556902434f3520e9c1f8794610c4f92610c5f575b5060405193849384611cc3565b0390a1610c5c6001606555565b80f35b80610c6c610c7292610352565b806101a2565b38610c42565b8380fd5b80610c6c610c8992610352565b38610ba8565b60405162461bcd60e51b8152602081870152601f60248201527f5265656e7472616e637947756172643a207265656e7472616e742063616c6c006044820152606490fd5b3461019d57604036600319011261019d57602060ff610d1d602435610cf781610572565b6004356000526097845260406000209060018060a01b0316600052602052604060002090565b54166040519015158152f35b3461019d57600036600319011261019d57602060405160008152f35b3461019d57606036600319011261019d57600435610d6281610572565b610dbf602435610d7181610572565b60443590610d7e82610572565b60005493610da360ff8660081c161580968197610e3d575b8115610e1d575b5061191a565b84610db6600160ff196000541617600055565b610e045761197d565b610dc557005b610dd561ff001960005416600055565b604051600181527f7f26b83ff96e1f2b6a682f133852f6798a09c465da95921460cefb384740249890602090a1005b610e1861010061ff00196000541617600055565b61197d565b303b15915081610e2f575b5038610d9d565b6001915060ff161438610e28565b600160ff8216109150610d96565b3461019d57600036600319011261019d5760206040517f9f2df0fed2c77648de5860a4cc508cd0818c85b8b8a1ab4ceeef8d981c8956a68152f35b3461019d57604036600319011261019d57610296602435600435610ea982610572565b806000526097602052610ec360016040600020015461152f565b6116c4565b90600182811c92168015610ef8575b6020831014610ee257565b634e487b7160e01b600052602260045260246000fd5b91607f1691610ed7565b9060405191826000825492610f1684610ec8565b908184526001948581169081600014610f855750600114610f42575b5050610f4092500383610387565b565b9093915060005260209081600020936000915b818310610f6d575050610f4093508201013880610f32565b85548884018501529485019487945091830191610f55565b915050610f4094506020925060ff191682840152151560051b8201013880610f32565b60005b838110610fbb5750506000910152565b8181015183820152602001610fab565b90602091610fe481518092818552858086019101610fa8565b601f01601f1916010190565b3461019d57602036600319011261019d57600435600052609b6020526109e261101c6040600020610f02565b604051918291602083526020830190610fcb565b1561103757565b60405162461bcd60e51b815260206004820152602c60248201527f46756e6374696f6e206d7573742062652063616c6c6564207468726f7567682060448201526b19195b1959d85d1958d85b1b60a21b6064820152608490fd5b1561109857565b60405162461bcd60e51b815260206004820152602c60248201527f46756e6374696f6e206d7573742062652063616c6c6564207468726f7567682060448201526b6163746976652070726f787960a01b6064820152608490fd5b604051906080820182811067ffffffffffffffff82111761036657604052604282526060366020840137565b9081602091031261019d575190565b6040513d6000823e3d90fd5b1561114057565b60405162461bcd60e51b815260206004820152602960248201527f45524331393637557067726164653a20756e737570706f727465642070726f786044820152681a58589b195555525160ba1b6064820152608490fd5b60809060208152602e60208201527f45524331393637557067726164653a206e657720696d706c656d656e7461746960408201526d6f6e206973206e6f74205555505360901b60608201520190565b803b1561121b57600080516020611e6083398151915280546001600160a01b0319166001600160a01b03909216919091179055565b60405162461bcd60e51b815260206004820152602d60248201527f455243313936373a206e657720696d706c656d656e746174696f6e206973206e60448201526c1bdd08184818dbdb9d1c9858dd609a1b6064820152608490fd5b90611280826111e6565b60006001600160a01b0383167fbc7cd75a20ee27fd9adebab32041f755214dbc6bffa90cc0225b39da2e5c2d3b8280a2815115801590611354575b6112c457505050565b611348928180604051946112d78661036b565b602786527f416464726573733a206c6f772d6c6576656c2064656c65676174652063616c6c6020870152660819985a5b195960ca1b6040870152602081519101845af4903d1561134b573d61132b816103a9565b906113396040519283610387565b8152809360203d92013e6113b0565b50565b606092506113b0565b5060016112bb565b90611366826111e6565b60006001600160a01b0383167fbc7cd75a20ee27fd9adebab32041f755214dbc6bffa90cc0225b39da2e5c2d3b8280a28151158015906113a9576112c457505050565b50806112bb565b9192901561141257508151156113c4575090565b3b156113cd5790565b60405162461bcd60e51b815260206004820152601d60248201527f416464726573733a2063616c6c20746f206e6f6e2d636f6e74726163740000006044820152606490fd5b8251909150156114255750805190602001fd5b60405162461bcd60e51b81529081906107fd90600483015b90602061144e928181520190610fcb565b90565b3360009081527f9805bb80c0cb3b8457cbce774d5adda6e717284b7d1e937eb2fdc8bbff924719602052604090205460ff161561148a57565b6107fd604861151761149b33611809565b6115096114a6611889565b6040519485937f416363657373436f6e74726f6c3a206163636f756e742000000000000000000060208601526114e6815180926020603789019101610fa8565b84017001034b99036b4b9b9b4b733903937b6329607d1b603782015201906115e7565b03601f198101835282610387565b60405162461bcd60e51b81529182916004830161143d565b600081815260976020908152604080832033845290915290205460ff16156115545750565b61155d33611809565b6115656110f2565b9160306115718461176d565b53607861157d8461177a565b5360415b600181116115a0576107fd604861151785611509886114a688156117be565b90600f81169060108210156115e2576115dd916f181899199a1a9b1b9c1cb0b131b232b360811b901a6115d3848761178a565b5360041c9161179b565b611581565b611757565b906115fa60209282815194859201610fa8565b0190565b6001600160a01b03811660009081527f9805bb80c0cb3b8457cbce774d5adda6e717284b7d1e937eb2fdc8bbff92471960205260408120547fa49807205ce4d355092ef5a8a18f56e8913cf4a201fbe287825b095693c217759060ff161561166557505050565b8082526097602090815260408084206001600160a01b038616600090815292529020805460ff1916600117905533926001600160a01b0316917f2f8788117e7eff1d82e926ec794901d17c78024a50270940304540a733656f0d9080a4565b600090808252609760205260ff6116f084604085209060018060a01b0316600052602052604060002090565b54166116fb57505050565b8082526097602090815260408084206001600160a01b038616600090815292529020805460ff1916905533926001600160a01b0316917ff6391f5c32d9c69d2a47ea670b442974b53935d1edc7fd64eb21e047a839171b9080a4565b634e487b7160e01b600052603260045260246000fd5b8051156115e25760200190565b8051600110156115e25760210190565b9081518110156115e2570160200190565b80156117a8576000190190565b634e487b7160e01b600052601160045260246000fd5b156117c557565b606460405162461bcd60e51b815260206004820152602060248201527f537472696e67733a20686578206c656e67746820696e73756666696369656e746044820152fd5b604051906118168261036b565b602a82526040366020840137603061182d8361176d565b5360786118398361177a565b536029905b600182116118515761144e9150156117be565b600f81169060108210156115e257611883916f181899199a1a9b1b9c1cb0b131b232b360811b901a6115d3848661178a565b9061183e565b7fa49807205ce4d355092ef5a8a18f56e8913cf4a201fbe287825b095693c217756118b26110f2565b9060306118be8361176d565b5360786118ca8361177a565b536041905b600182116118e25761144e9150156117be565b600f81169060108210156115e257611914916f181899199a1a9b1b9c1cb0b131b232b360811b901a6115d3848661178a565b906118cf565b1561192157565b60405162461bcd60e51b815260206004820152602e60248201527f496e697469616c697a61626c653a20636f6e747261637420697320616c72656160448201526d191e481a5b9a5d1a585b1a5e995960921b6064820152608490fd5b916001600160a01b0391821691908215611a81578116918215611a16576119d36119f992610f40956119ad611b4b565b6119b5611b5c565b1660018060a01b03166001600160601b0360a01b6098541617609855565b6119dc336115fe565b60018060a01b03166001600160601b0360a01b6099541617609955565b60018060a01b03166001600160601b0360a01b609a541617609a55565b60405162461bcd60e51b815260206004820152603b60248201527f4f6d6e69436861696e4e4654436f6e74726163743a20496e76616c696420737460448201527f6174652073796e636572207665726966696572206164647265737300000000006064820152608490fd5b608460405162461bcd60e51b815260206004820152604060248201527f4f6d6e69436861696e4e4654436f6e74726163743a204f7574626f756e64537460448201527f61746553656e64657220616464726573732063616e6e6f74206265207a65726f6064820152fd5b15611af257565b60405162461bcd60e51b815260206004820152602b60248201527f496e697469616c697a61626c653a20636f6e7472616374206973206e6f74206960448201526a6e697469616c697a696e6760a81b6064820152608490fd5b610f4060ff60005460081c16611aeb565b611b7660ff60005460081c16611b7181611aeb565b611aeb565b6001606555565b90601f8111611b8b57505050565b600091825260208220906020601f850160051c83019410611bc7575b601f0160051c01915b828110611bbc57505050565b818155600101611bb0565b9092508290611ba7565b60409061144e939281528160208201520190610fcb565b15611bef57565b60405162461bcd60e51b815260206004820152604160248201527f4f6d6e69436861696e4e4654436f6e74726163743a2044657374696e6174696f60448201527f6e20636f6e7472616374206164647265737320646f6573206e6f74206d6174636064820152600d60fb1b608482015260a490fd5b604090611c7e600093959495606083526060830190610fcb565b9460208201520152565b9061144e9492611ca5918352608060208401526080830190610fcb565b6001600160a01b039093166040820152808303606090910152610fcb565b939291611ce0906040928652606060208701526060860190610fcb565b930152565b15611cec57565b60405162461bcd60e51b815260206004820152602c60248201527f4f6d6e69436861696e4e4654436f6e74726163743a20496e76616c696420616460448201526b0c8e4cae6e640d8cadccee8d60a31b6064820152608490fd5b15611d4d57565b60405162461bcd60e51b815260206004820152602560248201527f4f6d6e69436861696e4e4654436f6e74726163743a20496e76616c6964206164604482015264647265737360d81b6064820152608490fd5b90810160608282031261019d57813567ffffffffffffffff811161019d57601491611dcc9184016103c5565b611dd882825114611ce5565b015190611def6001600160a01b0383161515611d46565b609854611e04906001600160a01b0316610b5a565b91823b1561019d576040516340c10f1960e01b81526001600160a01b03919091166004820152602091909101356024820152906000908290604490829084905af1801561033757611e525750565b80610c6c610f409261035256fe360894a13ba1a3210667c828492db98dca3e2076cc3735a920a3ca505d382bbca2646970667358221220bce1ff548d03b53d594c3461692fcfbcf54d90005a1621fa3bc36e087a951be664736f6c63430008130033",
  "linkReferences": {},
  "deployedLinkReferences": {}
}