{
  "_format": "hh-sol-artifact-1",
  "contractName": "EthereumDOJToken",
  "sourceName": "contracts/dojimachain/evm/EthereumDOJToken.sol",
  "abi": [
    {
      "inputs": [],
      "stateMutability": "nonpayable",
      "type": "constructor"
    },
    {
      "anonymous": false,
      "inputs": [
        {
          "indexed": false,
          "internalType": "address",
          "name": "previousAdmin",
          "type": "address"
        },
        {
          "indexed": false,
          "internalType": "address",
          "name": "newAdmin",
          "type": "address"
        }
      ],
      "name": "AdminChanged",
      "type": "event"
    },
    {
      "anonymous": false,
      "inputs": [
        {
          "indexed": true,
          "internalType": "address",
          "name": "owner",
          "type": "address"
        },
        {
          "indexed": true,
          "internalType": "address",
          "name": "spender",
          "type": "address"
        },
        {
          "indexed": false,
          "internalType": "uint256",
          "name": "value",
          "type": "uint256"
        }
      ],
      "name": "Approval",
      "type": "event"
    },
    {
      "anonymous": false,
      "inputs": [
        {
          "indexed": true,
          "internalType": "address",
          "name": "beacon",
          "type": "address"
        }
      ],
      "name": "BeaconUpgraded",
      "type": "event"
    },
    {
      "anonymous": false,
      "inputs": [
        {
          "indexed": false,
          "internalType": "uint8",
          "name": "version",
          "type": "uint8"
        }
      ],
      "name": "Initialized",
      "type": "event"
    },
    {
      "anonymous": false,
      "inputs": [
        {
          "indexed": true,
          "internalType": "address",
          "name": "previousOwner",
          "type": "address"
        },
        {
          "indexed": true,
          "internalType": "address",
          "name": "newOwner",
          "type": "address"
        }
      ],
      "name": "OwnershipTransferred",
      "type": "event"
    },
    {
      "anonymous": false,
      "inputs": [
        {
          "indexed": true,
          "internalType": "bytes32",
          "name": "role",
          "type": "bytes32"
        },
        {
          "indexed": true,
          "internalType": "bytes32",
          "name": "previousAdminRole",
          "type": "bytes32"
        },
        {
          "indexed": true,
          "internalType": "bytes32",
          "name": "newAdminRole",
          "type": "bytes32"
        }
      ],
      "name": "RoleAdminChanged",
      "type": "event"
    },
    {
      "anonymous": false,
      "inputs": [
        {
          "indexed": true,
          "internalType": "bytes32",
          "name": "role",
          "type": "bytes32"
        },
        {
          "indexed": true,
          "internalType": "address",
          "name": "account",
          "type": "address"
        },
        {
          "indexed": true,
          "internalType": "address",
          "name": "sender",
          "type": "address"
        }
      ],
      "name": "RoleGranted",
      "type": "event"
    },
    {
      "anonymous": false,
      "inputs": [
        {
          "indexed": true,
          "internalType": "bytes32",
          "name": "role",
          "type": "bytes32"
        },
        {
          "indexed": true,
          "internalType": "address",
          "name": "account",
          "type": "address"
        },
        {
          "indexed": true,
          "internalType": "address",
          "name": "sender",
          "type": "address"
        }
      ],
      "name": "RoleRevoked",
      "type": "event"
    },
    {
      "anonymous": false,
      "inputs": [
        {
          "indexed": true,
          "internalType": "address",
          "name": "user",
          "type": "address"
        },
        {
          "indexed": false,
          "internalType": "address",
          "name": "token",
          "type": "address"
        },
        {
          "indexed": false,
          "internalType": "uint256",
          "name": "amount",
          "type": "uint256"
        },
        {
          "indexed": true,
          "internalType": "uint256",
          "name": "depositId",
          "type": "uint256"
        }
      ],
      "name": "TokenDeposited",
      "type": "event"
    },
    {
      "anonymous": false,
      "inputs": [
        {
          "indexed": true,
          "internalType": "address",
          "name": "from",
          "type": "address"
        },
        {
          "indexed": true,
          "internalType": "address",
          "name": "to",
          "type": "address"
        },
        {
          "indexed": false,
          "internalType": "uint256",
          "name": "value",
          "type": "uint256"
        }
      ],
      "name": "Transfer",
      "type": "event"
    },
    {
      "anonymous": false,
      "inputs": [
        {
          "indexed": true,
          "internalType": "address",
          "name": "implementation",
          "type": "address"
        }
      ],
      "name": "Upgraded",
      "type": "event"
    },
    {
      "inputs": [],
      "name": "DEFAULT_ADMIN_ROLE",
      "outputs": [
        {
          "internalType": "bytes32",
          "name": "",
          "type": "bytes32"
        }
      ],
      "stateMutability": "view",
      "type": "function"
    },
    {
      "inputs": [],
      "name": "EXECUTE_STATE_ROLE",
      "outputs": [
        {
          "internalType": "bytes32",
          "name": "",
          "type": "bytes32"
        }
      ],
      "stateMutability": "view",
      "type": "function"
    },
    {
      "inputs": [],
      "name": "TOKEN_NAME",
      "outputs": [
        {
          "internalType": "string",
          "name": "",
          "type": "string"
        }
      ],
      "stateMutability": "view",
      "type": "function"
    },
    {
      "inputs": [],
      "name": "TOKEN_SYMBOL",
      "outputs": [
        {
          "internalType": "string",
          "name": "",
          "type": "string"
        }
      ],
      "stateMutability": "view",
      "type": "function"
    },
    {
      "inputs": [
        {
          "internalType": "address",
          "name": "owner",
          "type": "address"
        },
        {
          "internalType": "address",
          "name": "spender",
          "type": "address"
        }
      ],
      "name": "allowance",
      "outputs": [
        {
          "internalType": "uint256",
          "name": "",
          "type": "uint256"
        }
      ],
      "stateMutability": "view",
      "type": "function"
    },
    {
      "inputs": [
        {
          "internalType": "address",
          "name": "spender",
          "type": "address"
        },
        {
          "internalType": "uint256",
          "name": "amount",
          "type": "uint256"
        }
      ],
      "name": "approve",
      "outputs": [
        {
          "internalType": "bool",
          "name": "",
          "type": "bool"
        }
      ],
      "stateMutability": "nonpayable",
      "type": "function"
    },
    {
      "inputs": [
        {
          "internalType": "address",
          "name": "_account",
          "type": "address"
        }
      ],
      "name": "assignExecuteStateRole",
      "outputs": [],
      "stateMutability": "nonpayable",
      "type": "function"
    },
    {
      "inputs": [
        {
          "internalType": "address",
          "name": "account",
          "type": "address"
        }
      ],
      "name": "balanceOf",
      "outputs": [
        {
          "internalType": "uint256",
          "name": "",
          "type": "uint256"
        }
      ],
      "stateMutability": "view",
      "type": "function"
    },
    {
      "inputs": [
        {
          "internalType": "uint256",
          "name": "amount",
          "type": "uint256"
        }
      ],
      "name": "burn",
      "outputs": [],
      "stateMutability": "nonpayable",
      "type": "function"
    },
    {
      "inputs": [],
      "name": "decimals",
      "outputs": [
        {
          "internalType": "uint8",
          "name": "",
          "type": "uint8"
        }
      ],
      "stateMutability": "view",
      "type": "function"
    },
    {
      "inputs": [
        {
          "internalType": "address",
          "name": "spender",
          "type": "address"
        },
        {
          "internalType": "uint256",
          "name": "subtractedValue",
          "type": "uint256"
        }
      ],
      "name": "decreaseAllowance",
      "outputs": [
        {
          "internalType": "bool",
          "name": "",
          "type": "bool"
        }
      ],
      "stateMutability": "nonpayable",
      "type": "function"
    },
    {
      "inputs": [],
      "name": "dojimaDOJToken",
      "outputs": [
        {
          "internalType": "address",
          "name": "",
          "type": "address"
        }
      ],
      "stateMutability": "view",
      "type": "function"
    },
    {
      "inputs": [
        {
          "internalType": "uint256",
          "name": "",
          "type": "uint256"
        },
        {
          "internalType": "bytes",
          "name": "stateData",
          "type": "bytes"
        }
      ],
      "name": "executeState",
      "outputs": [],
      "stateMutability": "nonpayable",
      "type": "function"
    },
    {
      "inputs": [
        {
          "internalType": "bytes32",
          "name": "role",
          "type": "bytes32"
        }
      ],
      "name": "getRoleAdmin",
      "outputs": [
        {
          "internalType": "bytes32",
          "name": "",
          "type": "bytes32"
        }
      ],
      "stateMutability": "view",
      "type": "function"
    },
    {
      "inputs": [
        {
          "internalType": "bytes32",
          "name": "role",
          "type": "bytes32"
        },
        {
          "internalType": "address",
          "name": "account",
          "type": "address"
        }
      ],
      "name": "grantRole",
      "outputs": [],
      "stateMutability": "nonpayable",
      "type": "function"
    },
    {
      "inputs": [
        {
          "internalType": "bytes32",
          "name": "role",
          "type": "bytes32"
        },
        {
          "internalType": "address",
          "name": "account",
          "type": "address"
        }
      ],
      "name": "hasRole",
      "outputs": [
        {
          "internalType": "bool",
          "name": "",
          "type": "bool"
        }
      ],
      "stateMutability": "view",
      "type": "function"
    },
    {
      "inputs": [],
      "name": "inboundStateSender",
      "outputs": [
        {
          "internalType": "contract IInboundStateSender",
          "name": "",
          "type": "address"
        }
      ],
      "stateMutability": "view",
      "type": "function"
    },
    {
      "inputs": [
        {
          "internalType": "address",
          "name": "spender",
          "type": "address"
        },
        {
          "internalType": "uint256",
          "name": "addedValue",
          "type": "uint256"
        }
      ],
      "name": "increaseAllowance",
      "outputs": [
        {
          "internalType": "bool",
          "name": "",
          "type": "bool"
        }
      ],
      "stateMutability": "nonpayable",
      "type": "function"
    },
    {
      "inputs": [
        {
          "internalType": "address",
          "name": "_inboundStateSender",
          "type": "address"
        },
        {
          "internalType": "address",
          "name": "_dojimaDOJToken",
          "type": "address"
        }
      ],
      "name": "initialize",
      "outputs": [],
      "stateMutability": "nonpayable",
      "type": "function"
    },
    {
      "inputs": [],
      "name": "name",
      "outputs": [
        {
          "internalType": "string",
          "name": "",
          "type": "string"
        }
      ],
      "stateMutability": "view",
      "type": "function"
    },
    {
      "inputs": [],
      "name": "owner",
      "outputs": [
        {
          "internalType": "address",
          "name": "",
          "type": "address"
        }
      ],
      "stateMutability": "view",
      "type": "function"
    },
    {
      "inputs": [],
      "name": "proxiableUUID",
      "outputs": [
        {
          "internalType": "bytes32",
          "name": "",
          "type": "bytes32"
        }
      ],
      "stateMutability": "view",
      "type": "function"
    },
    {
      "inputs": [],
      "name": "renounceOwnership",
      "outputs": [],
      "stateMutability": "nonpayable",
      "type": "function"
    },
    {
      "inputs": [
        {
          "internalType": "bytes32",
          "name": "role",
          "type": "bytes32"
        },
        {
          "internalType": "address",
          "name": "account",
          "type": "address"
        }
      ],
      "name": "renounceRole",
      "outputs": [],
      "stateMutability": "nonpayable",
      "type": "function"
    },
    {
      "inputs": [
        {
          "internalType": "bytes32",
          "name": "role",
          "type": "bytes32"
        },
        {
          "internalType": "address",
          "name": "account",
          "type": "address"
        }
      ],
      "name": "revokeRole",
      "outputs": [],
      "stateMutability": "nonpayable",
      "type": "function"
    },
    {
      "inputs": [
        {
          "internalType": "bytes4",
          "name": "interfaceId",
          "type": "bytes4"
        }
      ],
      "name": "supportsInterface",
      "outputs": [
        {
          "internalType": "bool",
          "name": "",
          "type": "bool"
        }
      ],
      "stateMutability": "view",
      "type": "function"
    },
    {
      "inputs": [],
      "name": "symbol",
      "outputs": [
        {
          "internalType": "string",
          "name": "",
          "type": "string"
        }
      ],
      "stateMutability": "view",
      "type": "function"
    },
    {
      "inputs": [],
      "name": "totalSupply",
      "outputs": [
        {
          "internalType": "uint256",
          "name": "",
          "type": "uint256"
        }
      ],
      "stateMutability": "view",
      "type": "function"
    },
    {
      "inputs": [
        {
          "internalType": "address",
          "name": "to",
          "type": "address"
        },
        {
          "internalType": "uint256",
          "name": "amount",
          "type": "uint256"
        }
      ],
      "name": "transfer",
      "outputs": [
        {
          "internalType": "bool",
          "name": "",
          "type": "bool"
        }
      ],
      "stateMutability": "nonpayable",
      "type": "function"
    },
    {
      "inputs": [
        {
          "internalType": "address",
          "name": "from",
          "type": "address"
        },
        {
          "internalType": "address",
          "name": "to",
          "type": "address"
        },
        {
          "internalType": "uint256",
          "name": "amount",
          "type": "uint256"
        }
      ],
      "name": "transferFrom",
      "outputs": [
        {
          "internalType": "bool",
          "name": "",
          "type": "bool"
        }
      ],
      "stateMutability": "nonpayable",
      "type": "function"
    },
    {
      "inputs": [
        {
          "internalType": "address",
          "name": "newOwner",
          "type": "address"
        }
      ],
      "name": "transferOwnership",
      "outputs": [],
      "stateMutability": "nonpayable",
      "type": "function"
    },
    {
      "inputs": [
        {
          "internalType": "address",
          "name": "recipient",
          "type": "address"
        },
        {
          "internalType": "uint256",
          "name": "amount",
          "type": "uint256"
        }
      ],
      "name": "transferTo",
      "outputs": [
        {
          "internalType": "bool",
          "name": "",
          "type": "bool"
        }
      ],
      "stateMutability": "nonpayable",
      "type": "function"
    },
    {
      "inputs": [
        {
          "internalType": "bytes",
          "name": "user",
          "type": "bytes"
        },
        {
          "internalType": "uint256",
          "name": "amount",
          "type": "uint256"
        }
      ],
      "name": "transferToOmniChain",
      "outputs": [],
      "stateMutability": "nonpayable",
      "type": "function"
    },
    {
      "inputs": [
        {
          "internalType": "address",
          "name": "newImplementation",
          "type": "address"
        }
      ],
      "name": "upgradeTo",
      "outputs": [],
      "stateMutability": "nonpayable",
      "type": "function"
    },
    {
      "inputs": [
        {
          "internalType": "address",
          "name": "newImplementation",
          "type": "address"
        },
        {
          "internalType": "bytes",
          "name": "data",
          "type": "bytes"
        }
      ],
      "name": "upgradeToAndCall",
      "outputs": [],
      "stateMutability": "payable",
      "type": "function"
    }
  ],
  "bytecode": "0x60a080604052346100dc57306080526000549060ff8260081c1661008a575060ff8082160361004f575b604051612b0b90816100e2823960805181818161089001528181610bb20152610cf10152f35b60ff90811916176000557f7f26b83ff96e1f2b6a682f133852f6798a09c465da95921460cefb3847402498602060405160ff8152a138610029565b62461bcd60e51b815260206004820152602760248201527f496e697469616c697a61626c653a20636f6e747261637420697320696e697469604482015266616c697a696e6760c81b6064820152608490fd5b600080fdfe6080604052600436101561001257600080fd5b60003560e01c806301ffc9a71461024757806306fdde0314610242578063095ea7b31461023d57806318160ddd14610238578063188214001461023357806323b872dd1461022e578063248a9ca3146102295780632a905318146102245780632ccb1b301461021f5780632e7ef5581461021a5780632f2ff15d14610215578063313ce5671461021057806336568abe1461020b5780633659cfe614610206578063395093511461020157806342966c68146101fc578063485cc955146101f75780634f1ef286146101f2578063518882b7146101ed57806352d1902d146101e857806370a08231146101e3578063715018a6146101de578063813bc1c6146101d95780638da5cb5b146101d457806391d14854146101cf57806395d89b41146101ca57806398b8a4fc146101c5578063a217fddf146101c0578063a457c2d7146101bb578063a9059cbb146101b6578063b8ac2e22146101b1578063d547741f146101ac578063dd62ed3e146101a7578063f2fde38b146101a25763fb77900d1461019d57600080fd5b6113e6565b611359565b611301565b6112c2565b611298565b611272565b6111c4565b6111a8565b611135565b61108e565b61103c565b611012565b610e3c565b610ddd565b610da3565b610cde565b610cb4565b610b74565b610a3c565b610a1f565b6109c7565b61086d565b6107d9565b6107bd565b6106f2565b6106c9565b6106a3565b610687565b610639565b61056e565b61053e565b61044b565b61041a565b610309565b3461029d57602036600319011261029d5760043563ffffffff60e01b811680910361029d57602090637965db0b60e01b811490811561028c575b506040519015158152f35b6301ffc9a760e01b14905038610281565b600080fd5b600091031261029d57565b60005b8381106102c05750506000910152565b81810151838201526020016102b0565b906020916102e9815180928185528580860191016102ad565b601f01601f1916010190565b9060206103069281815201906102d0565b90565b3461029d576000806003193601126103eb57604051908060365461032c81611c60565b808552916001918083169081156103c15750600114610366575b61036285610356818703826104d0565b604051918291826102f5565b0390f35b9250603683527f4a11f94e20a93c79f6ec743a1954ec4fc2c08429ae2122118bf234b2185c81b85b8284106103a957505050810160200161035682610362610346565b8054602085870181019190915290930192810161038e565b8695506103629693506020925061035694915060ff191682840152151560051b8201019293610346565b80fd5b600435906001600160a01b038216820361029d57565b602435906001600160a01b038216820361029d57565b3461029d57604036600319011261029d576104406104366103ee565b6024359033611e7d565b602060405160018152f35b3461029d57600036600319011261029d576020603554604051908152f35b634e487b7160e01b600052604160045260246000fd5b67ffffffffffffffff811161049357604052565b610469565b6040810190811067ffffffffffffffff82111761049357604052565b6060810190811067ffffffffffffffff82111761049357604052565b90601f8019910116810190811067ffffffffffffffff82111761049357604052565b67ffffffffffffffff811161049357601f01601f191660200190565b6040519061051b82610498565b60148252732237b534b6b09022aa242fa227a5102a37b5b2b760611b6020830152565b3461029d57600036600319011261029d5761036261055a61050e565b6040519182916020835260208301906102d0565b3461029d57606036600319011261029d576105876103ee565b61058f610404565b6001600160a01b0382166000908152603460209081526040808320338452909152902060443591905492600184016105d8575b6105cc9350611d63565b60405160018152602090f35b8284106105f4576105ef836105cc95033383611e7d565b6105c2565b60405162461bcd60e51b815260206004820152601d60248201527f45524332303a20696e73756666696369656e7420616c6c6f77616e63650000006044820152606490fd5b3461029d57602036600319011261029d5760043560005260fb6020526020600160406000200154604051908152f35b6040519061067582610498565b60038252622227a560e91b6020830152565b3461029d57600036600319011261029d5761036261055a610668565b3461029d57604036600319011261029d576104406106bf6103ee565b6024359032611d63565b3461029d57600036600319011261029d576020604051600080516020612ab68339815191528152f35b3461029d57604036600319011261029d5760043561070e610404565b60009180835260fb6020526107296001604085200154611593565b80835260fb602090815260408085206001600160a01b03851660009081529252902060ff905b54161561075a578280f35b80835260fb602090815260408085206001600160a01b038516600090815292529020805460ff1916600117905533916001600160a01b0316907f2f8788117e7eff1d82e926ec794901d17c78024a50270940304540a733656f0d8480a438808280f35b3461029d57600036600319011261029d57602060405160128152f35b3461029d57604036600319011261029d576107f2610404565b336001600160a01b038216036108105761080e906004356117aa565b005b60405162461bcd60e51b815260206004820152602f60248201527f416363657373436f6e74726f6c3a2063616e206f6e6c792072656e6f756e636560448201526e103937b632b9903337b91039b2b63360891b6064820152608490fd5b3461029d57602036600319011261029d576108866103ee565b6001600160a01b037f0000000000000000000000000000000000000000000000000000000000000000811691906108bf308414156118e0565b6108dc600080516020612a96833981519152938285541614611941565b6108e46114c4565b604051906020820182811067ffffffffffffffff82111761049357604052600082527f4910fdfa16fed3260ed0e7147f7cc6da11a60208b5b9406d12a635614ffd91435460ff161561093c57505061080e9150611a96565b6020600491604094939451928380926352d1902d60e01b825286165afa60009181610997575b506109845760405162461bcd60e51b81528061098060048201611a47565b0390fd5b61080e9361099291146119e9565b611c0c565b6109b991925060203d81116109c0575b6109b181836104d0565b8101906119ce565b9038610962565b503d6109a7565b3461029d57604036600319011261029d576109e06103ee565b3360009081526034602090815260408083206001600160a01b03851684529091529020546024358101809111610a1a576104409133611e7d565b611c9a565b3461029d57602036600319011261029d5761080e600435336127f3565b3461029d57604036600319011261029d57610a556103ee565b610aa1610a60610404565b60005492610a8560ff8560081c161580958196610b1f575b8115610aff575b506121d4565b83610a98600160ff196000541617600055565b610ae657612237565b610aa757005b610ab761ff001960005416600055565b604051600181527f7f26b83ff96e1f2b6a682f133852f6798a09c465da95921460cefb384740249890602090a1005b610afa61010061ff00196000541617600055565b612237565b303b15915081610b11575b5038610a7f565b6001915060ff161438610b0a565b600160ff8216109150610a78565b81601f8201121561029d57803590610b44826104f2565b92610b5260405194856104d0565b8284526020838301011161029d57816000926020809301838601378301015290565b604036600319011261029d57610b886103ee565b60243567ffffffffffffffff811161029d57610ba8903690600401610b2d565b6001600160a01b037f00000000000000000000000000000000000000000000000000000000000000008116929190610be2308514156118e0565b610bff600080516020612a96833981519152948286541614611941565b610c076114c4565b7f4910fdfa16fed3260ed0e7147f7cc6da11a60208b5b9406d12a635614ffd91435460ff1615610c3d57505061080e9150611a96565b6020600491604094939451928380926352d1902d60e01b825286165afa60009181610c94575b50610c815760405162461bcd60e51b81528061098060048201611a47565b61080e93610c8f91146119e9565b611b26565b610cad91925060203d81116109c0576109b181836104d0565b9038610c63565b3461029d57600036600319011261029d57610191546040516001600160a01b039091168152602090f35b3461029d57600036600319011261029d577f00000000000000000000000000000000000000000000000000000000000000006001600160a01b03163003610d3857604051600080516020612a968339815191528152602090f35b60405162461bcd60e51b815260206004820152603860248201527f555550535570677261646561626c653a206d757374206e6f742062652063616c60448201527f6c6564207468726f7567682064656c656761746563616c6c00000000000000006064820152608490fd5b3461029d57602036600319011261029d576001600160a01b03610dc46103ee565b1660005260336020526020604060002054604051908152f35b3461029d576000806003193601126103eb57610df761183d565b61015f80546001600160a01b0319811690915581906001600160a01b03167f8be0079c531659141344cd1fd0a4f28419497f9722a3daafe3b4186f6b6457e08280a380f35b3461029d57604036600319011261029d5767ffffffffffffffff60243581811161029d573660238201121561029d57806004013582811161029d578101916024830136811161029d57610e8d61279c565b3360009081527f66b4e1a9fa05e054f395ddf026be64ee0382f986889965e958c0e99e54a339e0602052604081205490949060ff1615610f6d57836060910312610f69576024830135918211610f69576024610eeb92840101610b2d565b907f080c225c8e9d9f966820ef915f5f555d575e9c3a188f1252d19e94aa2250f09d60646014604484013594610f2382825114612928565b01516001600160a01b0381169390610f47908690610f42871515612985565b6129db565b60408051308152602081019690965291013593a3610f66600161012d55565b80f35b8380fd5b6109806048610ffa610f7e336120d5565b610fec610f89612155565b6040519485937f416363657373436f6e74726f6c3a206163636f756e74200000000000000000006020860152610fc98151809260206037890191016102ad565b84017001034b99036b4b9b9b4b733903937b6329607d1b6037820152019061163c565b03601f1981018352826104d0565b60405162461bcd60e51b8152918291600483016102f5565b3461029d57600036600319011261029d5761015f546040516001600160a01b039091168152602090f35b3461029d57604036600319011261029d57602060ff61108261105c610404565b60043560005260fb845260406000209060018060a01b0316600052602052604060002090565b54166040519015158152f35b3461029d576000806003193601126103eb5760405190806037546110b181611c60565b808552916001918083169081156103c157506001146110da5761036285610356818703826104d0565b9250603783527f42a7b7dd785cd69714a189dffb3fd7d7174edc9ece837694ce50f7078f7c31ae5b82841061111d57505050810160200161035682610362610346565b80546020858701810191909152909301928101611102565b3461029d57602036600319011261029d5761114e6103ee565b6111566114c4565b6001600160a01b03811660009081527f66b4e1a9fa05e054f395ddf026be64ee0382f986889965e958c0e99e54a339e060205260408120909190600080516020612ab68339815191529060ff9061074f565b3461029d57600036600319011261029d57602060405160008152f35b3461029d57604036600319011261029d576111dd6103ee565b6024359033600052603460205261120a8160406000209060018060a01b0316600052602052604060002090565b549180831061121f576105cc92039033611e7d565b60405162461bcd60e51b815260206004820152602560248201527f45524332303a2064656372656173656420616c6c6f77616e63652062656c6f77604482015264207a65726f60d81b6064820152608490fd5b3461029d57604036600319011261029d5761044061128e6103ee565b6024359033611d63565b3461029d57600036600319011261029d57610192546040516001600160a01b039091168152602090f35b3461029d57604036600319011261029d5761080e6004356112e1610404565b908060005260fb6020526112fc600160406000200154611593565b6117aa565b3461029d57604036600319011261029d57602061135061131f6103ee565b611327610404565b6001600160a01b0391821660009081526034855260408082209290931681526020919091522090565b54604051908152f35b3461029d57602036600319011261029d576113726103ee565b61137a61183d565b6001600160a01b038116156113925761080e90611896565b60405162461bcd60e51b815260206004820152602660248201527f4f776e61626c653a206e6577206f776e657220697320746865207a65726f206160448201526564647265737360d01b6064820152608490fd5b3461029d57604036600319011261029d5760043567ffffffffffffffff811161029d57611417903690600401610b2d565b6024359061142361279c565b61142d82336127f3565b610191546001600160a01b031661019254909290611461906001600160a01b031692610fec60405193849260208401612756565b823b1561029d5761148c926000928360405180968195829463f50aa84b60e01b84526004840161277a565b03925af180156114bf576114a6575b61080e600161012d55565b806114b36114b99261047f565b806102a2565b3861149b565b6119dd565b3360009081527fc88390e7e62175be0932452175b6a7222b6b094ab0ef984a5153c620345d8975602052604090205460ff16156114fd57565b611506336120d5565b6000906115116119a2565b91603061151d8461204f565b5360786115298461205c565b5360415b6001811161154c576109806048610ffa85610fec88610f89881561208a565b90600f811690601082101561158e57611589916f181899199a1a9b1b9c1cb0b131b232b360811b901a61157f848761206c565b5360041c9161207d565b61152d565b612039565b600081815260fb6020908152604080832033845290915290205460ff16156115b85750565b6115c1336120d5565b6115c96119a2565b9160306115d58461204f565b5360786115e18461205c565b5360415b60018111611604576109806048610ffa85610fec88610f89881561208a565b90600f811690601082101561158e57611637916f181899199a1a9b1b9c1cb0b131b232b360811b901a61157f848761206c565b6115e5565b9061164f602092828151948592016102ad565b0190565b6001600160a01b03811660009081527fc88390e7e62175be0932452175b6a7222b6b094ab0ef984a5153c620345d8975602052604081205460ff1615611697575050565b80805260fb602090815260408083206001600160a01b038516600090815292529020805460ff1916600117905533916001600160a01b0316907f2f8788117e7eff1d82e926ec794901d17c78024a50270940304540a733656f0d8180a4565b6001600160a01b03811660009081527f66b4e1a9fa05e054f395ddf026be64ee0382f986889965e958c0e99e54a339e06020526040812054600080516020612ab68339815191529060ff161561174b57505050565b80825260fb602090815260408084206001600160a01b038616600090815292529020805460ff1916600117905533926001600160a01b0316917f2f8788117e7eff1d82e926ec794901d17c78024a50270940304540a733656f0d9080a4565b60009080825260fb60205260ff6117d684604085209060018060a01b0316600052602052604060002090565b54166117e157505050565b80825260fb602090815260408084206001600160a01b038616600090815292529020805460ff1916905533926001600160a01b0316917ff6391f5c32d9c69d2a47ea670b442974b53935d1edc7fd64eb21e047a839171b9080a4565b61015f546001600160a01b0316330361185257565b606460405162461bcd60e51b815260206004820152602060248201527f4f776e61626c653a2063616c6c6572206973206e6f7420746865206f776e65726044820152fd5b61015f80546001600160a01b039283166001600160a01b0319821681179092559091167f8be0079c531659141344cd1fd0a4f28419497f9722a3daafe3b4186f6b6457e0600080a3565b156118e757565b60405162461bcd60e51b815260206004820152602c60248201527f46756e6374696f6e206d7573742062652063616c6c6564207468726f7567682060448201526b19195b1959d85d1958d85b1b60a21b6064820152608490fd5b1561194857565b60405162461bcd60e51b815260206004820152602c60248201527f46756e6374696f6e206d7573742062652063616c6c6564207468726f7567682060448201526b6163746976652070726f787960a01b6064820152608490fd5b604051906080820182811067ffffffffffffffff82111761049357604052604282526060366020840137565b9081602091031261029d575190565b6040513d6000823e3d90fd5b156119f057565b60405162461bcd60e51b815260206004820152602960248201527f45524331393637557067726164653a20756e737570706f727465642070726f786044820152681a58589b195555525160ba1b6064820152608490fd5b60809060208152602e60208201527f45524331393637557067726164653a206e657720696d706c656d656e7461746960408201526d6f6e206973206e6f74205555505360901b60608201520190565b803b15611acb57600080516020612a9683398151915280546001600160a01b0319166001600160a01b03909216919091179055565b60405162461bcd60e51b815260206004820152602d60248201527f455243313936373a206e657720696d706c656d656e746174696f6e206973206e60448201526c1bdd08184818dbdb9d1c9858dd609a1b6064820152608490fd5b90611b3082611a96565b60006001600160a01b0383167fbc7cd75a20ee27fd9adebab32041f755214dbc6bffa90cc0225b39da2e5c2d3b8280a2815115801590611c04575b611b7457505050565b611bf892818060405194611b87866104b4565b602786527f416464726573733a206c6f772d6c6576656c2064656c65676174652063616c6c6020870152660819985a5b195960ca1b6040870152602081519101845af4903d15611bfb573d611bdb816104f2565b90611be960405192836104d0565b8152809360203d92013e611fa8565b50565b60609250611fa8565b506001611b6b565b90611c1682611a96565b60006001600160a01b0383167fbc7cd75a20ee27fd9adebab32041f755214dbc6bffa90cc0225b39da2e5c2d3b8280a2815115801590611c5957611b7457505050565b5080611b6b565b90600182811c92168015611c90575b6020831014611c7a57565b634e487b7160e01b600052602260045260246000fd5b91607f1691611c6f565b634e487b7160e01b600052601160045260246000fd5b15611cb757565b60405162461bcd60e51b815260206004820152602360248201527f45524332303a207472616e7366657220746f20746865207a65726f206164647260448201526265737360e81b6064820152608490fd5b15611d0f57565b60405162461bcd60e51b815260206004820152602660248201527f45524332303a207472616e7366657220616d6f756e7420657863656564732062604482015265616c616e636560d01b6064820152608490fd5b916001600160a01b038084169290918315611e2a57611e0f827fddf252ad1be2c89b69c2b068fc378daa952ba7f163c4a11628f55a4df523b3ef94611e25941696611daf881515611cb0565b6001600160a01b0381166000908152603360205260409020611df490859054611dda82821015611d08565b039160018060a01b03166000526033602052604060002090565b556001600160a01b0316600090815260336020526040902090565b8054820190556040519081529081906020820190565b0390a3565b60405162461bcd60e51b815260206004820152602560248201527f45524332303a207472616e736665722066726f6d20746865207a65726f206164604482015264647265737360d81b6064820152608490fd5b6001600160a01b038082169291908315611f57578216938415611f075780611ef67f8c5be1e5ebec7d5bd14f71427d1e84f3dd0314c0f7b2291e5b200ac8c7c3b92594611edf611e259560018060a01b03166000526034602052604060002090565b9060018060a01b0316600052602052604060002090565b556040519081529081906020820190565b60405162461bcd60e51b815260206004820152602260248201527f45524332303a20617070726f766520746f20746865207a65726f206164647265604482015261737360f01b6064820152608490fd5b60405162461bcd60e51b8152602060048201526024808201527f45524332303a20617070726f76652066726f6d20746865207a65726f206164646044820152637265737360e01b6064820152608490fd5b9192901561200a5750815115611fbc575090565b3b15611fc55790565b60405162461bcd60e51b815260206004820152601d60248201527f416464726573733a2063616c6c20746f206e6f6e2d636f6e74726163740000006044820152606490fd5b82519091501561201d5750805190602001fd5b60405162461bcd60e51b815290819061098090600483016102f5565b634e487b7160e01b600052603260045260246000fd5b80511561158e5760200190565b80516001101561158e5760210190565b90815181101561158e570160200190565b8015610a1a576000190190565b1561209157565b606460405162461bcd60e51b815260206004820152602060248201527f537472696e67733a20686578206c656e67746820696e73756666696369656e746044820152fd5b604051906120e2826104b4565b602a8252604036602084013760306120f98361204f565b5360786121058361205c565b536029905b6001821161211d5761030691501561208a565b600f811690601082101561158e5761214f916f181899199a1a9b1b9c1cb0b131b232b360811b901a61157f848661206c565b9061210a565b600080516020612ab683398151915261216c6119a2565b9060306121788361204f565b5360786121848361205c565b536041905b6001821161219c5761030691501561208a565b600f811690601082101561158e576121ce916f181899199a1a9b1b9c1cb0b131b232b360811b901a61157f848661206c565b90612189565b156121db57565b60405162461bcd60e51b815260206004820152602e60248201527f496e697469616c697a61626c653a20636f6e747261637420697320616c72656160448201526d191e481a5b9a5d1a585b1a5e995960921b6064820152608490fd5b6001600160a01b0381811690811561235e578316156122e8576122e6926122bf6122e19261227461226661050e565b61226e610668565b9061247a565b61227c61243a565b612284612429565b61228c612429565b61229461245d565b61229d33611653565b61019180546001600160a01b0319166001600160a01b03909216919091179055565b61019280546001600160a01b0319166001600160a01b03909216919091179055565b6116f6565b565b60405162461bcd60e51b815260206004820152604260248201527f457468657265756d444f4a546f6b656e3a20446f6a696d6120444f4a20746f6b60448201527f656e20636f6e747261637420616464726573732063616e6e6f74206265207a65606482015261726f60f01b608482015260a490fd5b60405162461bcd60e51b815260206004820152603b60248201527f457468657265756d444f4a546f6b656e3a20496e626f756e645374617465536560448201527f6e64657220616464726573732063616e6e6f74206265207a65726f00000000006064820152608490fd5b156123d057565b60405162461bcd60e51b815260206004820152602b60248201527f496e697469616c697a61626c653a20636f6e7472616374206973206e6f74206960448201526a6e697469616c697a696e6760a81b6064820152608490fd5b6122e660ff60005460081c166123c9565b61245460ff60005460081c1661244f816123c9565b6123c9565b6122e633611896565b61247260ff60005460081c1661244f816123c9565b600161012d55565b9061249060ff60005460081c1661244f816123c9565b815167ffffffffffffffff8111610493576124b5816124b0603654611c60565b61258a565b602080601f83116001146124f7575081906122e6946000926124ec575b50508160011b916000199060031b1c19161760365561266c565b0151905038806124d2565b919293601f19841661252b60366000527f4a11f94e20a93c79f6ec743a1954ec4fc2c08429ae2122118bf234b2185c81b890565b936000905b8282106125725750509160019391856122e697969410612559575b505050811b0160365561266c565b015160001960f88460031b161c1916905538808061254b565b80600186978294978701518155019601940190612530565b601f8111612596575050565b600090603682527f4a11f94e20a93c79f6ec743a1954ec4fc2c08429ae2122118bf234b2185c81b8906020601f850160051c830194106125f1575b601f0160051c01915b8281106125e657505050565b8181556001016125da565b90925082906125d1565b601f8111612607575050565b600090603782527f42a7b7dd785cd69714a189dffb3fd7d7174edc9ece837694ce50f7078f7c31ae906020601f850160051c83019410612662575b601f0160051c01915b82811061265757505050565b81815560010161264b565b9092508290612642565b90815167ffffffffffffffff8111610493576126928161268d603754611c60565b6125fb565b602080601f83116001146126ce57508192936000926126c3575b50508160011b916000199060031b1c191617603755565b0151905038806126ac565b90601f1983169461270160376000527f42a7b7dd785cd69714a189dffb3fd7d7174edc9ece837694ce50f7078f7c31ae90565b926000905b87821061273e575050836001959610612725575b505050811b01603755565b015160001960f88460031b161c1916905538808061271a565b80600185968294968601518155019501930190612706565b6040906127706000939594956060835260608301906102d0565b9460208201520152565b6001600160a01b039091168152604060208201819052610306929101906102d0565b61012d60028154146127ae5760029055565b60405162461bcd60e51b815260206004820152601f60248201527f5265656e7472616e637947756172643a207265656e7472616e742063616c6c006044820152606490fd5b6001600160a01b0381169081156128d9576001600160a01b03811660009081526033602052604090205483811061288957837fddf252ad1be2c89b69c2b068fc378daa952ba7f163c4a11628f55a4df523b3ef9261286b600096611e2594039160018060a01b03166000526033602052604060002090565b556128798160355403603555565b6040519081529081906020820190565b60405162461bcd60e51b815260206004820152602260248201527f45524332303a206275726e20616d6f756e7420657863656564732062616c616e604482015261636560f01b6064820152608490fd5b60405162461bcd60e51b815260206004820152602160248201527f45524332303a206275726e2066726f6d20746865207a65726f206164647265736044820152607360f81b6064820152608490fd5b1561292f57565b60405162461bcd60e51b815260206004820152602860248201527f457468657265756d444f4a546f6b656e3a20496e76616c6964206164647265736044820152670e640d8cadccee8d60c31b6064820152608490fd5b1561298c57565b60405162461bcd60e51b815260206004820152602160248201527f457468657265756d444f4a546f6b656e3a20496e76616c6964206164647265736044820152607360f81b6064820152608490fd5b6001600160a01b03811691908215612a505760355490828201809211610a1a57600092612a416020927fddf252ad1be2c89b69c2b068fc378daa952ba7f163c4a11628f55a4df523b3ef9460355560018060a01b03166000526033602052604060002090565b818154019055604051908152a3565b60405162461bcd60e51b815260206004820152601f60248201527f45524332303a206d696e7420746f20746865207a65726f2061646472657373006044820152606490fdfe360894a13ba1a3210667c828492db98dca3e2076cc3735a920a3ca505d382bbc0e2cff25c9cb02b23af25512a7a858cbf5d880a04ea10d3e9cae237254bdcde5a2646970667358221220dcd241d57797bebc339ab24fc4fa23aa9dd37ab3832c2e27ce97b45a1c06030164736f6c63430008130033",
  "linkReferences": {},
  "deployedLinkReferences": {}
}