{
  "_format": "hh-sol-artifact-1",
  "contractName": "Router",
  "sourceName": "contracts/router/RouterDojima.sol",
  "abi": [
    {
      "inputs": [],
      "name": "InvalidAsset",
      "type": "error"
    },
    {
      "anonymous": false,
      "inputs": [
        {
          "indexed": true,
          "internalType": "address",
          "name": "to",
          "type": "address"
        },
        {
          "indexed": true,
          "internalType": "address",
          "name": "asset",
          "type": "address"
        },
        {
          "indexed": false,
          "internalType": "uint256",
          "name": "amount",
          "type": "uint256"
        },
        {
          "indexed": false,
          "internalType": "string",
          "name": "memo",
          "type": "string"
        }
      ],
      "name": "Deposit",
      "type": "event"
    },
    {
      "anonymous": false,
      "inputs": [
        {
          "indexed": true,
          "internalType": "address",
          "name": "previousOwner",
          "type": "address"
        },
        {
          "indexed": true,
          "internalType": "address",
          "name": "newOwner",
          "type": "address"
        }
      ],
      "name": "OwnershipTransferred",
      "type": "event"
    },
    {
      "anonymous": false,
      "inputs": [
        {
          "indexed": true,
          "internalType": "address",
          "name": "to",
          "type": "address"
        },
        {
          "indexed": true,
          "internalType": "address",
          "name": "asset",
          "type": "address"
        },
        {
          "indexed": false,
          "internalType": "uint256",
          "name": "amount",
          "type": "uint256"
        },
        {
          "indexed": false,
          "internalType": "string",
          "name": "memo",
          "type": "string"
        }
      ],
      "name": "Switch",
      "type": "event"
    },
    {
      "anonymous": false,
      "inputs": [
        {
          "indexed": true,
          "internalType": "address",
          "name": "oldVault",
          "type": "address"
        },
        {
          "indexed": true,
          "internalType": "address",
          "name": "newVault",
          "type": "address"
        },
        {
          "indexed": false,
          "internalType": "address",
          "name": "asset",
          "type": "address"
        },
        {
          "indexed": false,
          "internalType": "uint256",
          "name": "amount",
          "type": "uint256"
        },
        {
          "indexed": false,
          "internalType": "string",
          "name": "memo",
          "type": "string"
        }
      ],
      "name": "TransferAllowance",
      "type": "event"
    },
    {
      "anonymous": false,
      "inputs": [
        {
          "indexed": true,
          "internalType": "address",
          "name": "vault",
          "type": "address"
        },
        {
          "indexed": true,
          "internalType": "address",
          "name": "to",
          "type": "address"
        },
        {
          "indexed": false,
          "internalType": "address",
          "name": "asset",
          "type": "address"
        },
        {
          "indexed": false,
          "internalType": "uint256",
          "name": "amount",
          "type": "uint256"
        },
        {
          "indexed": false,
          "internalType": "string",
          "name": "memo",
          "type": "string"
        }
      ],
      "name": "TransferOut",
      "type": "event"
    },
    {
      "anonymous": false,
      "inputs": [
        {
          "indexed": true,
          "internalType": "address",
          "name": "vault",
          "type": "address"
        },
        {
          "indexed": false,
          "internalType": "address",
          "name": "target",
          "type": "address"
        },
        {
          "indexed": false,
          "internalType": "uint256",
          "name": "amount",
          "type": "uint256"
        },
        {
          "indexed": false,
          "internalType": "address",
          "name": "finalAsset",
          "type": "address"
        },
        {
          "indexed": false,
          "internalType": "address",
          "name": "to",
          "type": "address"
        },
        {
          "indexed": false,
          "internalType": "uint256",
          "name": "amountOutMin",
          "type": "uint256"
        },
        {
          "indexed": false,
          "internalType": "string",
          "name": "memo",
          "type": "string"
        }
      ],
      "name": "TransferOutAndCall",
      "type": "event"
    },
    {
      "anonymous": false,
      "inputs": [
        {
          "indexed": true,
          "internalType": "address",
          "name": "oldVault",
          "type": "address"
        },
        {
          "indexed": true,
          "internalType": "address",
          "name": "newVault",
          "type": "address"
        },
        {
          "components": [
            {
              "internalType": "address",
              "name": "asset",
              "type": "address"
            },
            {
              "internalType": "uint256",
              "name": "amount",
              "type": "uint256"
            }
          ],
          "indexed": false,
          "internalType": "struct Router.Coin[]",
          "name": "coins",
          "type": "tuple[]"
        },
        {
          "indexed": false,
          "internalType": "string",
          "name": "memo",
          "type": "string"
        }
      ],
      "name": "VaultTransfer",
      "type": "event"
    },
    {
      "inputs": [],
      "name": "DOJ_TOKEN",
      "outputs": [
        {
          "internalType": "address",
          "name": "",
          "type": "address"
        }
      ],
      "stateMutability": "view",
      "type": "function"
    },
    {
      "inputs": [
        {
          "internalType": "address",
          "name": "newOwner",
          "type": "address"
        }
      ],
      "name": "changeOwner",
      "outputs": [],
      "stateMutability": "nonpayable",
      "type": "function"
    },
    {
      "inputs": [
        {
          "internalType": "address payable",
          "name": "vault",
          "type": "address"
        },
        {
          "internalType": "address",
          "name": "asset",
          "type": "address"
        },
        {
          "internalType": "uint256",
          "name": "amount",
          "type": "uint256"
        },
        {
          "internalType": "string",
          "name": "memo",
          "type": "string"
        },
        {
          "internalType": "uint256",
          "name": "expiration",
          "type": "uint256"
        }
      ],
      "name": "depositWithExpiry",
      "outputs": [],
      "stateMutability": "payable",
      "type": "function"
    },
    {
      "inputs": [
        {
          "internalType": "address",
          "name": "_dojToken",
          "type": "address"
        }
      ],
      "name": "initialize",
      "outputs": [],
      "stateMutability": "nonpayable",
      "type": "function"
    },
    {
      "inputs": [],
      "name": "isOwner",
      "outputs": [
        {
          "internalType": "bool",
          "name": "",
          "type": "bool"
        }
      ],
      "stateMutability": "view",
      "type": "function"
    },
    {
      "inputs": [],
      "name": "owner",
      "outputs": [
        {
          "internalType": "address",
          "name": "",
          "type": "address"
        }
      ],
      "stateMutability": "view",
      "type": "function"
    },
    {
      "inputs": [],
      "name": "renounceOwnership",
      "outputs": [],
      "stateMutability": "nonpayable",
      "type": "function"
    },
    {
      "inputs": [
        {
          "internalType": "address",
          "name": "router",
          "type": "address"
        },
        {
          "internalType": "address payable",
          "name": "fortuna",
          "type": "address"
        },
        {
          "components": [
            {
              "internalType": "address",
              "name": "asset",
              "type": "address"
            },
            {
              "internalType": "uint256",
              "name": "amount",
              "type": "uint256"
            }
          ],
          "internalType": "struct Router.Coin[]",
          "name": "coins",
          "type": "tuple[]"
        },
        {
          "internalType": "string",
          "name": "memo",
          "type": "string"
        }
      ],
      "name": "returnVaultAssets",
      "outputs": [],
      "stateMutability": "payable",
      "type": "function"
    },
    {
      "inputs": [
        {
          "internalType": "address payable",
          "name": "vault",
          "type": "address"
        },
        {
          "internalType": "address",
          "name": "asset",
          "type": "address"
        },
        {
          "internalType": "string",
          "name": "memo",
          "type": "string"
        },
        {
          "internalType": "uint256",
          "name": "expiration",
          "type": "uint256"
        }
      ],
      "name": "switchWithExpiry",
      "outputs": [],
      "stateMutability": "payable",
      "type": "function"
    },
    {
      "inputs": [
        {
          "internalType": "address",
          "name": "router",
          "type": "address"
        },
        {
          "internalType": "address",
          "name": "newVault",
          "type": "address"
        },
        {
          "internalType": "address",
          "name": "asset",
          "type": "address"
        },
        {
          "internalType": "uint256",
          "name": "amount",
          "type": "uint256"
        },
        {
          "internalType": "string",
          "name": "memo",
          "type": "string"
        }
      ],
      "name": "transferAllowance",
      "outputs": [],
      "stateMutability": "nonpayable",
      "type": "function"
    },
    {
      "inputs": [
        {
          "internalType": "address payable",
          "name": "to",
          "type": "address"
        },
        {
          "internalType": "address",
          "name": "asset",
          "type": "address"
        },
        {
          "internalType": "uint256",
          "name": "amount",
          "type": "uint256"
        },
        {
          "internalType": "string",
          "name": "memo",
          "type": "string"
        }
      ],
      "name": "transferOut",
      "outputs": [],
      "stateMutability": "payable",
      "type": "function"
    },
    {
      "inputs": [
        {
          "internalType": "address payable",
          "name": "target",
          "type": "address"
        },
        {
          "internalType": "address",
          "name": "finalToken",
          "type": "address"
        },
        {
          "internalType": "address",
          "name": "to",
          "type": "address"
        },
        {
          "internalType": "uint256",
          "name": "amountOutMin",
          "type": "uint256"
        },
        {
          "internalType": "string",
          "name": "memo",
          "type": "string"
        }
      ],
      "name": "transferOutAndCall",
      "outputs": [],
      "stateMutability": "payable",
      "type": "function"
    },
    {
      "inputs": [
        {
          "internalType": "address",
          "name": "newOwner",
          "type": "address"
        }
      ],
      "name": "transferOwnership",
      "outputs": [],
      "stateMutability": "nonpayable",
      "type": "function"
    },
    {
      "inputs": [
        {
          "internalType": "address",
          "name": "vault",
          "type": "address"
        },
        {
          "internalType": "address",
          "name": "token",
          "type": "address"
        }
      ],
      "name": "vaultAllowance",
      "outputs": [
        {
          "internalType": "uint256",
          "name": "amount",
          "type": "uint256"
        }
      ],
      "stateMutability": "view",
      "type": "function"
    }
  ],
  "bytecode": "0x6080806040523461005f5760008054336001600160a01b0319821681178355916001600160a01b03909116907f8be0079c531659141344cd1fd0a4f28419497f9722a3daafe3b4186f6b6457e09080a3600180556110a790816100658239f35b600080fdfe608060409080825260048036101561001657600080fd5b600092833560e01c928362594c2714610bfc5750826303b6a67314610bb35782631b738b3214610af95782632923e82e146108725782634039fd4b146106f557826344bc937b146105e2578263574da7171461040f578263715018a6146103b35782638da5cb5b1461038b5782638f32d59b14610363578263a6f9dae114610329578263c4d66de814610270578263e4ba5031146100fb57505063f2fde38b146100bf57600080fd5b346100f85760203660031901126100f8576100f56100db610c21565b6100f060018060a01b03600054163314610d33565b610d7e565b80f35b80fd5b909150608036600319011261026c57610112610c21565b61011a610c3c565b60443567ffffffffffffffff8111610268576101399036908601610cec565b6064354210156102335761014b610e05565b6002546001600160a01b0392831695908316929086840361022557873494803b15610221578751637b5d955560e11b8152928391829088905af18015610217576101da575b507f42d55204c6562618d9325f2c06cd486e081e4f73b29ae63bc81ecccabec68ac09392916101d091865194859485528760208601521695830190610dc5565b0390a36001805580f35b916101d0919761020c7f42d55204c6562618d9325f2c06cd486e081e4f73b29ae63bc81ecccabec68ac0969594610c68565b979150919293610190565b86513d8a823e3d90fd5b5080fd5b8551636448d6e960e11b8152fd5b835162461bcd60e51b8152602081870152600f60248201526e14ddda5d18da0e88195e1c1a5c9959608a1b6044820152606490fd5b8580fd5b8280fd5b9091503461026c57602036600319011261026c5761028c610c21565b916002549160ff8360a01c166102da57505060ff60a01b1916600160a01b176002556102b733610d7e565b60018060a01b03166bffffffffffffffffffffffff60a01b600254161760025580f35b906020608492519162461bcd60e51b8352820152602360248201527f54686520636f6e747261637420697320616c726561647920696e697469616c696044820152621e995960ea1b6064820152fd5b83346100f85760203660031901126100f8576100f5610346610c21565b6100f060018060a01b03845416331461035e81610d33565b610d33565b83903461022157816003193601126102215760209160018060a01b0390541633149051908152f35b839034610221578160031936011261022157905490516001600160a01b039091168152602090f35b83346100f857806003193601126100f8578054816001600160a01b0382166103dc338214610d33565b7f8be0079c531659141344cd1fd0a4f28419497f9722a3daafe3b4186f6b6457e08280a36001600160a01b031916815580f35b9150608036600319011261026c57610425610c21565b9061042e610c3c565b90604435906064359067ffffffffffffffff82116105a25761045291369101610cec565b9261045b610e05565b6002546001600160a01b039290848416908416810361050a57505034938685818082159283610500575b8280929181928a8a1690f1156104cf575b50506101d0907fa9cd03aa3c1b4515114539cd53d22085129d495cb9e9f9af77864526240f1bf79495965b519384931696339684610e5b565b8682916104f6575b8280929181923390f1156104ec578638610496565b85513d88823e3d90fd5b6108fc91506104d7565b6108fc9150610485565b949394338852600360205286882090885260205285872061052c828254610e82565b905586808751602081019063a9059cbb60e01b825286861660248201528460448201526044815261055c81610c92565b519082895af161056a610ea5565b816105a6575b50156105a2577fa9cd03aa3c1b4515114539cd53d22085129d495cb9e9f9af77864526240f1bf7936101d091966104c1565b8680fd5b80518015925082156105bb575b505038610570565b81925090602091810103126105de576020015180151581036105de5738806105b3565b8780fd5b90915060a036600319011261026c576105f9610c21565b91610602610c3c565b9260643567ffffffffffffffff8111610268576106229036908401610cec565b916084354210156106c057610635610e05565b6002546001600160a01b03958616959190821686036106b25750349086808380156106a8575b82809291819286891690f1156105a2577fef519b7eb82aaf6ac376a6df2d793843ebfd593de5f1a0601d3cc6ab49ebb395936101d091865194859485528760208601521695830190610dc5565b6108fc915061065b565b8451636448d6e960e11b8152fd5b606490602085519162461bcd60e51b8352820152600f60248201526e149bdd5d195c8e88195e1c1a5c9959608a1b6044820152fd5b915060a036600319011261026c5761070b610c21565b90610714610c3c565b9061071d610c52565b90606435916084359367ffffffffffffffff9485811161086e576107449036908501610cec565b9561074d610e05565b60018060a01b0380911695885191806020840194631230c53d60e21b8652169485602485015216948560448401528660648401526064835260a08301918383109083111761085b5750885251889182919034885af16107aa610ea5565b501561080d575b857f8e5841bcd195b858d53b38bcf91b38d47f3bc800469b6812d35451ab619c6f6c9596519485523460208601528401526060830152608082015260c060a082015280610803339460c0830190610dc5565b0390a26001805580f35b863415818082610852575b81808092883491f11561082d575b50506107b1565b8190610849575b8180809234903390f1156104ec578638610826565b506108fc610834565b506108fc610818565b634e487b7160e01b8b526041905260248afd5b8880fd5b9150608036600319011261026c57610888610c21565b92610891610c3c565b936044359167ffffffffffffffff958684116102215736602385011215610221578385013594878611610ae6578651976020956108d3878960051b018b610cae565b878a52868a0180986024809160061b840101923684116105de578101915b838310610a8c5750505050606435908111610a885761091291369101610cec565b61091a610e05565b6001600160a01b03938085163003610a29575094958184169590835b8951811015610974578061096a8b89610960848b61095761096f9886610ee4565b51511693610ee4565b510151908b610f0e565b610ed5565b610936565b508051818152985189820181905294989397929695919460608501939189905b828210610a07575050505093869791937f281daef48d91e5cd3d32db0784f6af69cd8d8d2e8c612a3568dca51ded51e08f84806109df888c9b989a8c9b8c9b03908401523395610dc5565b0390a35b829034156109fd575b34921690f1156100f8576001805580f35b6108fc91506109ec565b835180518d168752850151858701529485019492840192600190910190610994565b9550969391809391965092818716935b8551811015610a73578061096a8a85610a55610a6e958b610ee4565b51511687610a63858c610ee4565b51015190898c610f7b565b610a39565b509650869591508594508493508392506109e3565b8380fd5b8b833603126105de578b518c810181811087821117610ad4578d5283356001600160a01b0381168103610ad0578152838b01358b8201528152918b019189016108f1565b8980fd5b634e487b7160e01b8a5260418852838afd5b634e487b7160e01b835260419052602482fd5b91503461026c5760a036600319011261026c57610b14610c21565b610b1c610c3c565b90610b25610c52565b91606435936084359067ffffffffffffffff82116105de57610b4991369101610cec565b94610b52610e05565b6001600160a01b03928084163003610b9f575084956101d0916104c186977f05b90458f953d3fcb2d7fb25616a2fddeca749d0c47cc5c9832d0266b5346eea9786610f0e565b6001805580f35b9050610bae9594939250610f7b565b610b98565b83903461022157806003193601126102215780602092610bd1610c21565b610bd9610c3c565b6001600160a01b0391821683526003865283832091168252845220549051908152f35b8490346102215781600319360112610221576002546001600160a01b03168152602090f35b600435906001600160a01b0382168203610c3757565b600080fd5b602435906001600160a01b0382168203610c3757565b604435906001600160a01b0382168203610c3757565b67ffffffffffffffff8111610c7c57604052565b634e487b7160e01b600052604160045260246000fd5b6080810190811067ffffffffffffffff821117610c7c57604052565b90601f8019910116810190811067ffffffffffffffff821117610c7c57604052565b67ffffffffffffffff8111610c7c57601f01601f191660200190565b81601f82011215610c3757803590610d0382610cd0565b92610d116040519485610cae565b82845260208383010111610c3757816000926020809301838601378301015290565b15610d3a57565b606460405162461bcd60e51b815260206004820152602060248201527f4f776e61626c653a2063616c6c6572206973206e6f7420746865206f776e65726044820152fd5b600080546001600160a01b039283166001600160a01b03198216811783559216907f8be0079c531659141344cd1fd0a4f28419497f9722a3daafe3b4186f6b6457e09080a3565b919082519283825260005b848110610df1575050826000602080949584010152601f8019910116010190565b602081830181015184830182015201610dd0565b600260015414610e16576002600155565b60405162461bcd60e51b815260206004820152601f60248201527f5265656e7472616e637947756172643a207265656e7472616e742063616c6c006044820152606490fd5b610e7f939260609260018060a01b0316825260208201528160408201520190610dc5565b90565b91908203918211610e8f57565b634e487b7160e01b600052601160045260246000fd5b3d15610ed0573d90610eb682610cd0565b91610ec46040519384610cae565b82523d6000602084013e565b606090565b6000198114610e8f5760010190565b8051821015610ef85760209160051b010190565b634e487b7160e01b600052603260045260246000fd5b6000913383526003602052604083209160018060a01b038092169283855260205260408420610f3e868254610e82565b905516825260036020526040822090825260205260408120908154928301809311610f67575055565b634e487b7160e01b81526011600452602490fd5b9493909460009233845260036020526040842092848060018060a01b03938481169687835260205260408220610fb28a8254610e82565b9055604051958286602089019263095ea7b360e01b845216978860248201528b604482015260448152610fe481610c92565b51925af1610ff0610ea5565b501561106d57823b1561106d578495969761103b8692604051998a97889687956344bc937b60e01b87521660048601526024850152604484015260a0606484015260a4830190610dc5565b600019608483015203925af190811561106157506110565750565b61105f90610c68565b565b604051903d90823e3d90fd5b8480fdfea2646970667358221220121ee45164fab1bab9a13d930ee8f7f5a62937ac90faa91d92775cd6672b2ab264736f6c63430008130033",
  "linkReferences": {},
  "deployedLinkReferences": {}
}