{
  "_format": "hh-sol-artifact-1",
  "contractName": "ChildTokenProxy",
  "sourceName": "contracts/dojimachain/evm/proxifiedChildToken/ChildTokenProxy.sol",
  "abi": [
    {
      "inputs": [
        {
          "internalType": "address",
          "name": "_proxyTo",
          "type": "address"
        }
      ],
      "stateMutability": "nonpayable",
      "type": "constructor"
    },
    {
      "anonymous": false,
      "inputs": [
        {
          "indexed": false,
          "internalType": "address",
          "name": "_new",
          "type": "address"
        },
        {
          "indexed": false,
          "internalType": "address",
          "name": "_old",
          "type": "address"
        }
      ],
      "name": "OwnerUpdate",
      "type": "event"
    },
    {
      "anonymous": false,
      "inputs": [
        {
          "indexed": true,
          "internalType": "address",
          "name": "_new",
          "type": "address"
        },
        {
          "indexed": true,
          "internalType": "address",
          "name": "_old",
          "type": "address"
        }
      ],
      "name": "ProxyUpdated",
      "type": "event"
    },
    {
      "stateMutability": "payable",
      "type": "fallback"
    },
    {
      "inputs": [],
      "name": "implementation",
      "outputs": [
        {
          "internalType": "address",
          "name": "",
          "type": "address"
        }
      ],
      "stateMutability": "view",
      "type": "function"
    },
    {
      "inputs": [],
      "name": "owner",
      "outputs": [
        {
          "internalType": "address",
          "name": "",
          "type": "address"
        }
      ],
      "stateMutability": "view",
      "type": "function"
    },
    {
      "inputs": [],
      "name": "proxyType",
      "outputs": [
        {
          "internalType": "uint256",
          "name": "proxyTypeId",
          "type": "uint256"
        }
      ],
      "stateMutability": "pure",
      "type": "function"
    },
    {
      "inputs": [
        {
          "internalType": "address",
          "name": "newOwner",
          "type": "address"
        }
      ],
      "name": "transferOwnership",
      "outputs": [],
      "stateMutability": "nonpayable",
      "type": "function"
    },
    {
      "inputs": [
        {
          "internalType": "address",
          "name": "_newProxyTo",
          "type": "address"
        },
        {
          "internalType": "bytes",
          "name": "data",
          "type": "bytes"
        }
      ],
      "name": "updateAndCall",
      "outputs": [],
      "stateMutability": "payable",
      "type": "function"
    },
    {
      "inputs": [
        {
          "internalType": "address",
          "name": "_newProxyTo",
          "type": "address"
        }
      ],
      "name": "updateImplementation",
      "outputs": [],
      "stateMutability": "nonpayable",
      "type": "function"
    },
    {
      "stateMutability": "payable",
      "type": "receive"
    }
  ],
  "bytecode": "0x6080346100a357601f61070738819003918201601f19168301916001600160401b038311848410176100a8578084926020946040528339810103126100a357516001600160a01b03811681036100a357337f479ffb3c275b8ac9b3317421329612c7dc376a0f67c890d7652f9df289f799ae557f8175268aced21c2d790d0bc54ec624a429e9dc88b7ffcb673f98b28666ac520f5560405161064890816100bf8239f35b600080fd5b634e487b7160e01b600052604160045260246000fdfe60806040526004361015610018575b366104a3576104a3565b6000803560e01c908163025b22bc1461007b575080634555d5c9146100765780635c60da1b146100715780638da5cb5b1461006c578063d88ca2c8146100675763f2fde38b0361000e576103df565b6102e5565b610221565b6101eb565b6101cf565b346101b15760203660031901126101b1576100946101b4565b6000805160206105f3833981519152546001600160a01b0391906100bb90831633146104f2565b8181168015610174576100cd8261052a565b156101215761011e926000805160206105d38339815191525416907fd32d24edea94f55e932d9a008afc425a8561462d1b1f57bc6e508e9a6b9509e18580a36000805160206105d383398151915255565b80f35b60405162461bcd60e51b815260206004820152602560248201527f44455354494e4154494f4e5f414444524553535f49535f4e4f545f415f434f4e60448201526415149050d560da1b6064820152608490fd5b60405162461bcd60e51b8152602060048201526015602482015274494e56414c49445f50524f58595f4144445245535360581b6044820152606490fd5b80fd5b600435906001600160a01b03821682036101ca57565b600080fd5b346101ca5760003660031901126101ca57602060405160028152f35b346101ca5760003660031901126101ca576000805160206105d3833981519152546040516001600160a01b039091168152602090f35b346101ca5760003660031901126101ca576000805160206105f3833981519152546040516001600160a01b039091168152602090f35b634e487b7160e01b600052604160045260246000fd5b6040519190601f01601f1916820167ffffffffffffffff81118382101761029357604052565b610257565b67ffffffffffffffff811161029357601f01601f191660200190565b9291926102c86102c383610298565b61026d565b93828552828201116101ca57816000926020928387013784010152565b60403660031901126101ca576102f96101b4565b60243567ffffffffffffffff81116101ca57366023820112156101ca5761032a9036906024816004013591016102b4565b6000805160206105f3833981519152546001600160a01b03919061035a9083163314610355816104f2565b6104f2565b81831680156101745761036c8461052a565b156101215761011e926000805160206105d38339815191525416916103c7600095869485947fd32d24edea94f55e932d9a008afc425a8561462d1b1f57bc6e508e9a6b9509e18680a36000805160206105d383398151915255565b60208151910134305af16103d9610545565b9061056b565b346101ca5760203660031901126101ca576103f86101b4565b6000805160206105f3833981519152546001600160a01b0390811691906104203384146104f2565b8116801561046f5760407f343765429aea5a34b3ff6a3785a98a5abb2597aca87bfbb58632c173d585373a9161046d9482519182526020820152a16000805160206105f383398151915255565b005b60405162461bcd60e51b815260206004820152600c60248201526b5a45524f5f4144445245535360a01b6044820152606490fd5b6000806000805160206105d3833981519152546104c26102c336610298565b3681526020810190368483378360203683010152519161270f195a01f46040513d91826000833e156104f057f35bfd5b156104f957565b60405162461bcd60e51b81526020600482015260096024820152682727aa2fa7aba722a960b91b6044820152606490fd5b6001600160a01b0381161561053f573b151590565b50600090565b3d15610566573d906105596102c383610298565b9182523d6000602084013e565b606090565b156105735750565b6040519062461bcd60e51b82528160208060048301528251908160248401526000935b8285106105b9575050604492506000838284010152601f80199101168101030190fd5b848101820151868601604401529381019385935061059656fe8175268aced21c2d790d0bc54ec624a429e9dc88b7ffcb673f98b28666ac520f479ffb3c275b8ac9b3317421329612c7dc376a0f67c890d7652f9df289f799aea26469706673582212203fc0a33e633ad117b98ae74669431bf5e440397b82ec00a4d6835710897d5a2964736f6c63430008130033",
  "linkReferences": {},
  "deployedLinkReferences": {}
}