{
  "_format": "hh-sol-artifact-1",
  "contractName": "Governance",
  "sourceName": "contracts/common/governance/Governance.sol",
  "abi": [
    {
      "anonymous": false,
      "inputs": [
        {
          "indexed": true,
          "internalType": "address",
          "name": "previousOwner",
          "type": "address"
        },
        {
          "indexed": true,
          "internalType": "address",
          "name": "newOwner",
          "type": "address"
        }
      ],
      "name": "OwnershipTransferred",
      "type": "event"
    },
    {
      "inputs": [],
      "name": "owner",
      "outputs": [
        {
          "internalType": "address",
          "name": "",
          "type": "address"
        }
      ],
      "stateMutability": "view",
      "type": "function"
    },
    {
      "inputs": [],
      "name": "renounceOwnership",
      "outputs": [],
      "stateMutability": "nonpayable",
      "type": "function"
    },
    {
      "inputs": [
        {
          "internalType": "address",
          "name": "newOwner",
          "type": "address"
        }
      ],
      "name": "transferOwnership",
      "outputs": [],
      "stateMutability": "nonpayable",
      "type": "function"
    },
    {
      "inputs": [
        {
          "internalType": "address",
          "name": "target",
          "type": "address"
        },
        {
          "internalType": "bytes",
          "name": "data",
          "type": "bytes"
        }
      ],
      "name": "update",
      "outputs": [],
      "stateMutability": "nonpayable",
      "type": "function"
    }
  ],
  "bytecode": "0x6080806040523461005b5760008054336001600160a01b0319821681178355916001600160a01b03909116907f8be0079c531659141344cd1fd0a4f28419497f9722a3daafe3b4186f6b6457e09080a361037890816100618239f35b600080fdfe6080604052600436101561001257600080fd5b6000803560e01c806302a688ed1461018d578063715018a6146101335780638da5cb5b1461010c5763f2fde38b1461004957600080fd5b3461010957602036600319011261010957610062610277565b61006a6102ea565b6001600160a01b039081169081156100b55782546001600160a01b0319811683178455167f8be0079c531659141344cd1fd0a4f28419497f9722a3daafe3b4186f6b6457e08380a380f35b60405162461bcd60e51b815260206004820152602660248201527f4f776e61626c653a206e6577206f776e657220697320746865207a65726f206160448201526564647265737360d01b6064820152608490fd5b80fd5b5034610109578060031936011261010957546040516001600160a01b039091168152602090f35b503461010957806003193601126101095761014c6102ea565b80546001600160a01b03198116825581906001600160a01b03167f8be0079c531659141344cd1fd0a4f28419497f9722a3daafe3b4186f6b6457e08280a380f35b503461010957604036600319011261010957806101a8610277565b6024359067ffffffffffffffff82116102735736602383011215610273578160040135916101dd6101d8846102ce565b610292565b908382526020820191366024868401011161026f57856020868297602484960187378301015261020b6102ea565b51925af13d1561026a573d6102226101d8826102ce565b9081528260203d92013e5b156102355780f35b60405162461bcd60e51b815260206004820152600d60248201526c155c19185d194819985a5b1959609a1b6044820152606490fd5b61022d565b8580fd5b5050fd5b600435906001600160a01b038216820361028d57565b600080fd5b6040519190601f01601f1916820167ffffffffffffffff8111838210176102b857604052565b634e487b7160e01b600052604160045260246000fd5b67ffffffffffffffff81116102b857601f01601f191660200190565b6000546001600160a01b031633036102fe57565b606460405162461bcd60e51b815260206004820152602060248201527f4f776e61626c653a2063616c6c6572206973206e6f7420746865206f776e65726044820152fdfea2646970667358221220f9f08e384f46ceb1559e191725e5043c3f10291c99c2f29151a44ab60ec4768264736f6c63430008130033",
  "linkReferences": {},
  "deployedLinkReferences": {}
}