{
  "_format": "hh-sol-artifact-1",
  "contractName": "Registry",
  "sourceName": "contracts/common/Registry.sol",
  "abi": [
    {
      "inputs": [
        {
          "internalType": "address",
          "name": "_governance",
          "type": "address"
        }
      ],
      "stateMutability": "nonpayable",
      "type": "constructor"
    },
    {
      "anonymous": false,
      "inputs": [
        {
          "indexed": true,
          "internalType": "bytes32",
          "name": "key",
          "type": "bytes32"
        },
        {
          "indexed": true,
          "internalType": "address",
          "name": "previousContract",
          "type": "address"
        },
        {
          "indexed": true,
          "internalType": "address",
          "name": "newContract",
          "type": "address"
        }
      ],
      "name": "ContractMapUpdated",
      "type": "event"
    },
    {
      "anonymous": false,
      "inputs": [
        {
          "indexed": true,
          "internalType": "address",
          "name": "predicate",
          "type": "address"
        },
        {
          "indexed": true,
          "internalType": "address",
          "name": "from",
          "type": "address"
        }
      ],
      "name": "PredicateAdded",
      "type": "event"
    },
    {
      "anonymous": false,
      "inputs": [
        {
          "indexed": true,
          "internalType": "address",
          "name": "predicate",
          "type": "address"
        },
        {
          "indexed": true,
          "internalType": "address",
          "name": "from",
          "type": "address"
        }
      ],
      "name": "PredicateRemoved",
      "type": "event"
    },
    {
      "anonymous": false,
      "inputs": [
        {
          "indexed": true,
          "internalType": "address",
          "name": "validator",
          "type": "address"
        },
        {
          "indexed": true,
          "internalType": "address",
          "name": "from",
          "type": "address"
        }
      ],
      "name": "ProofValidatorAdded",
      "type": "event"
    },
    {
      "anonymous": false,
      "inputs": [
        {
          "indexed": true,
          "internalType": "address",
          "name": "validator",
          "type": "address"
        },
        {
          "indexed": true,
          "internalType": "address",
          "name": "from",
          "type": "address"
        }
      ],
      "name": "ProofValidatorRemoved",
      "type": "event"
    },
    {
      "anonymous": false,
      "inputs": [
        {
          "indexed": true,
          "internalType": "address",
          "name": "rootToken",
          "type": "address"
        },
        {
          "indexed": true,
          "internalType": "address",
          "name": "childToken",
          "type": "address"
        }
      ],
      "name": "TokenMapped",
      "type": "event"
    },
    {
      "inputs": [
        {
          "internalType": "address",
          "name": "predicate",
          "type": "address"
        }
      ],
      "name": "addErc20Predicate",
      "outputs": [],
      "stateMutability": "nonpayable",
      "type": "function"
    },
    {
      "inputs": [
        {
          "internalType": "address",
          "name": "predicate",
          "type": "address"
        }
      ],
      "name": "addErc721Predicate",
      "outputs": [],
      "stateMutability": "nonpayable",
      "type": "function"
    },
    {
      "inputs": [
        {
          "internalType": "address",
          "name": "predicate",
          "type": "address"
        },
        {
          "internalType": "enum Registry.Type",
          "name": "_type",
          "type": "uint8"
        }
      ],
      "name": "addPredicate",
      "outputs": [],
      "stateMutability": "nonpayable",
      "type": "function"
    },
    {
      "inputs": [
        {
          "internalType": "address",
          "name": "",
          "type": "address"
        }
      ],
      "name": "childToRootToken",
      "outputs": [
        {
          "internalType": "address",
          "name": "",
          "type": "address"
        }
      ],
      "stateMutability": "view",
      "type": "function"
    },
    {
      "inputs": [
        {
          "internalType": "bytes32",
          "name": "",
          "type": "bytes32"
        }
      ],
      "name": "contractMap",
      "outputs": [
        {
          "internalType": "address",
          "name": "",
          "type": "address"
        }
      ],
      "stateMutability": "view",
      "type": "function"
    },
    {
      "inputs": [],
      "name": "erc20Predicate",
      "outputs": [
        {
          "internalType": "address",
          "name": "",
          "type": "address"
        }
      ],
      "stateMutability": "view",
      "type": "function"
    },
    {
      "inputs": [],
      "name": "erc721Predicate",
      "outputs": [
        {
          "internalType": "address",
          "name": "",
          "type": "address"
        }
      ],
      "stateMutability": "view",
      "type": "function"
    },
    {
      "inputs": [],
      "name": "getChildChainAndStateSender",
      "outputs": [
        {
          "internalType": "address",
          "name": "",
          "type": "address"
        },
        {
          "internalType": "address",
          "name": "",
          "type": "address"
        }
      ],
      "stateMutability": "view",
      "type": "function"
    },
    {
      "inputs": [],
      "name": "getDepositManagerAddress",
      "outputs": [
        {
          "internalType": "address",
          "name": "",
          "type": "address"
        }
      ],
      "stateMutability": "view",
      "type": "function"
    },
    {
      "inputs": [],
      "name": "getSlashingManagerAddress",
      "outputs": [
        {
          "internalType": "address",
          "name": "",
          "type": "address"
        }
      ],
      "stateMutability": "view",
      "type": "function"
    },
    {
      "inputs": [],
      "name": "getStakeManagerAddress",
      "outputs": [
        {
          "internalType": "address",
          "name": "",
          "type": "address"
        }
      ],
      "stateMutability": "view",
      "type": "function"
    },
    {
      "inputs": [],
      "name": "getValidatorShareAddress",
      "outputs": [
        {
          "internalType": "address",
          "name": "",
          "type": "address"
        }
      ],
      "stateMutability": "view",
      "type": "function"
    },
    {
      "inputs": [],
      "name": "getWethTokenAddress",
      "outputs": [
        {
          "internalType": "address",
          "name": "",
          "type": "address"
        }
      ],
      "stateMutability": "view",
      "type": "function"
    },
    {
      "inputs": [],
      "name": "getWithdrawManagerAddress",
      "outputs": [
        {
          "internalType": "address",
          "name": "",
          "type": "address"
        }
      ],
      "stateMutability": "view",
      "type": "function"
    },
    {
      "inputs": [],
      "name": "governance",
      "outputs": [
        {
          "internalType": "contract IGovernance",
          "name": "",
          "type": "address"
        }
      ],
      "stateMutability": "view",
      "type": "function"
    },
    {
      "inputs": [
        {
          "internalType": "address",
          "name": "childToken",
          "type": "address"
        }
      ],
      "name": "isChildTokenErc721",
      "outputs": [
        {
          "internalType": "bool",
          "name": "",
          "type": "bool"
        }
      ],
      "stateMutability": "view",
      "type": "function"
    },
    {
      "inputs": [
        {
          "internalType": "address",
          "name": "",
          "type": "address"
        }
      ],
      "name": "isERC721",
      "outputs": [
        {
          "internalType": "bool",
          "name": "",
          "type": "bool"
        }
      ],
      "stateMutability": "view",
      "type": "function"
    },
    {
      "inputs": [
        {
          "internalType": "address",
          "name": "_token",
          "type": "address"
        }
      ],
      "name": "isTokenMapped",
      "outputs": [
        {
          "internalType": "bool",
          "name": "",
          "type": "bool"
        }
      ],
      "stateMutability": "view",
      "type": "function"
    },
    {
      "inputs": [
        {
          "internalType": "address",
          "name": "_token",
          "type": "address"
        }
      ],
      "name": "isTokenMappedAndGetPredicate",
      "outputs": [
        {
          "internalType": "address",
          "name": "",
          "type": "address"
        }
      ],
      "stateMutability": "view",
      "type": "function"
    },
    {
      "inputs": [
        {
          "internalType": "address",
          "name": "_token",
          "type": "address"
        }
      ],
      "name": "isTokenMappedAndIsErc721",
      "outputs": [
        {
          "internalType": "bool",
          "name": "",
          "type": "bool"
        }
      ],
      "stateMutability": "view",
      "type": "function"
    },
    {
      "inputs": [
        {
          "internalType": "address",
          "name": "_rootToken",
          "type": "address"
        },
        {
          "internalType": "address",
          "name": "_childToken",
          "type": "address"
        },
        {
          "internalType": "bool",
          "name": "_isERC721",
          "type": "bool"
        }
      ],
      "name": "mapToken",
      "outputs": [],
      "stateMutability": "nonpayable",
      "type": "function"
    },
    {
      "inputs": [
        {
          "internalType": "address",
          "name": "",
          "type": "address"
        }
      ],
      "name": "predicates",
      "outputs": [
        {
          "internalType": "enum Registry.Type",
          "name": "_type",
          "type": "uint8"
        }
      ],
      "stateMutability": "view",
      "type": "function"
    },
    {
      "inputs": [
        {
          "internalType": "address",
          "name": "",
          "type": "address"
        }
      ],
      "name": "proofValidatorContracts",
      "outputs": [
        {
          "internalType": "bool",
          "name": "",
          "type": "bool"
        }
      ],
      "stateMutability": "view",
      "type": "function"
    },
    {
      "inputs": [
        {
          "internalType": "address",
          "name": "predicate",
          "type": "address"
        }
      ],
      "name": "removePredicate",
      "outputs": [],
      "stateMutability": "nonpayable",
      "type": "function"
    },
    {
      "inputs": [
        {
          "internalType": "address",
          "name": "",
          "type": "address"
        }
      ],
      "name": "rootToChildToken",
      "outputs": [
        {
          "internalType": "address",
          "name": "",
          "type": "address"
        }
      ],
      "stateMutability": "view",
      "type": "function"
    },
    {
      "inputs": [
        {
          "internalType": "bytes32",
          "name": "_key",
          "type": "bytes32"
        },
        {
          "internalType": "address",
          "name": "_address",
          "type": "address"
        }
      ],
      "name": "updateContractMap",
      "outputs": [],
      "stateMutability": "nonpayable",
      "type": "function"
    }
  ],
  "bytecode": "0x60803461007457601f610df838819003918201601f19168301916001600160401b038311848410176100795780849260209460405283398101031261007457516001600160a01b0381169081900361007457600080546001600160a01b031916919091179055604051610d6890816100908239f35b600080fd5b634e487b7160e01b600052604160045260246000fdfe6040608081526004908136101561001557600080fd5b600091823560e01c806301f07db514610bdf57806305f2059514610b145780630c9effd014610ac25780631c9486ef14610a705780632026cfdc146109f3578063287be3e4146109a15780632d4e1dc71461089e57806337b1d585146108455780633af395e5146107905780635aa6e67514610768578063627942da146107315780636416c183146106e7578063648b81781461066a5780636e86b7701461062f5780638b9c9489146105dd578063930df82e1461058b578063b686497614610562578063bbfe7cd3146104cc578063c4b875d31461048e578063c881560f14610465578063cac39a0514610433578063ce2611861461032a578063d580b418146102d8578063daa09e5414610296578063e117694b1461017b5763ea60c7c41461013f57600080fd5b34610177576020366003190112610177576020926001600160a01b039183919083610168610c05565b16825285522054169051908152f35b8280fd5b503461017757606036600319011261017757610195610c05565b61019d610c20565b92604435918215158093036102925785546001600160a01b039182916101c69083163314610c36565b169384151580610287575b1561024c578487526020528186209416936bffffffffffffffffffffffff60a01b90858282541617905584865260056020528382872091825416179055828552600760205284209060ff801983541691161790557f85920d35e6c72f6b2affffa04298b0cecfeba86e4a9f407df661f1cb8ab5e6178380a380f35b606490602084519162461bcd60e51b83528201526015602482015274494e56414c49445f544f4b454e5f4144445245535360581b6044820152fd5b5081861615156101d1565b8580fd5b5050346102d45760203660031901126102d45760209160ff9082906001600160a01b036102c1610c05565b1681526007855220541690519015158152f35b5080fd5b5050346102d457816003193601126102d4577f1ca32e38cf142cb762bc7468b9a3eac49626b43585fcbd6d3b807227216286c2825260036020908152918190205490516001600160a01b039091168152f35b50903461017757602036600319011261017757610345610c05565b8354336001600160a01b03918216149391610384919061036486610c36565b1693846bffffffffffffffffffffffff60a01b6002541617600255610c36565b828452600860205260ff828520541681811015610420576103de575081835260086020528220805460ff1916600217905533907f0ea727f9bef04eb9a0e0da4d8fbb5b5319ddac03834baded53f84e0dcdddfedf8380a380f35b6020606492519162461bcd60e51b8352820152601760248201527f50726564696361746520616c72656164792061646465640000000000000000006044820152fd5b634e487b7160e01b855260218252602485fd5b50346101775760203660031901126101775735825260036020908152918190205490516001600160a01b039091168152f35b5050346102d457816003193601126102d45760025490516001600160a01b039091168152602090f35b5050346102d45760203660031901126102d45760209160ff9082906001600160a01b036104b9610c05565b1681526006855220541690519015158152f35b508290346102d45760203660031901126102d4576001600160a01b03806104f1610c05565b1683526005602052838320541690811561051f5760208460ff81868681526007855220541690519015158152f35b606490602085519162461bcd60e51b8352820152601960248201527f4368696c6420746f6b656e206973206e6f74206d6170706564000000000000006044820152fd5b5050346102d457816003193601126102d45760015490516001600160a01b039091168152602090f35b5050346102d457816003193601126102d4577f261885af88107524c32b47256ca1d87cafbd893a7e8cc972ae41fdfb0270335e825260036020908152918190205490516001600160a01b039091168152f35b5050346102d457816003193601126102d4577f9fa53c3a84542bc4f793667c49cfa1cbb5e8df2ae0612ada001973a5f448154b825260036020908152918190205490516001600160a01b039091168152f35b5050346102d45760203660031901126102d4576020916001600160a01b0390829082610659610c05565b168152600585522054169051908152f35b8284346106e457806003193601126106e4577e52a858f8908b3b8c718b22328d1b5b8914e7252ae32d889f93fb147a19ef2c8152600360205260018060a01b0382818184205416927fa6604f6f9e958c3372fa784685d6216654aef3be0a2255a92dfbab50f7d0b854815220541682519182526020820152f35b80fd5b5050346102d45760203660031901126102d457602090610728610708610c05565b6001600160a01b0390811660009081526004602052604090205416151590565b90519015158152f35b5050346102d45760203660031901126102d457602090610757610752610c05565b610d07565b90516001600160a01b039091168152f35b5050346102d457816003193601126102d457905490516001600160a01b039091168152602090f35b5090346101775780600319360112610177576107aa610c05565b9060243591838310156108415784546001600160a01b0391906107d09083163314610c36565b1692838552600860205260ff82862054168181101561082e576103de5750828452600860205283209060ff8019835416911617905533907f0ea727f9bef04eb9a0e0da4d8fbb5b5319ddac03834baded53f84e0dcdddfedf8380a380f35b634e487b7160e01b865260218252602486fd5b8480fd5b509190346102d45760203660031901126102d4576001600160a01b03610869610c05565b168252600860205260ff81832054169051918382101561088b57602083838152f35b634e487b7160e01b815260218452602490fd5b509034610177576020366003190112610177576108b9610c05565b8354336001600160a01b039182161493916108d385610c36565b1692831561095057600180546001600160a01b031916851790556108f690610c36565b828452600860205260ff828520541681811015610420576103de575081835260086020528220805460ff1916600117905533907f0ea727f9bef04eb9a0e0da4d8fbb5b5319ddac03834baded53f84e0dcdddfedf8380a380f35b506020608492519162461bcd60e51b8352820152602560248201527f43616e206e6f7420616464206e756c6c20616464726573732061732070726564604482015264696361746560d81b6064820152fd5b5050346102d457816003193601126102d4577f56e86af72b94d3aa725a2e35243d6acbf3dc1ada7212033defd5140c5fcb6a9d825260036020908152918190205490516001600160a01b039091168152f35b503461017757816003193601126101775735610a0d610c20565b83546001600160a01b039390610a269085163314610c36565b828552600360205284209280845492169283918316907fffb8cfd9cecbede837eec100fb8e17560ea22bf018e065366ee5e2ff5e0bd10c8780a46001600160a01b03191617905580f35b5050346102d457816003193601126102d4577ff32233bced9bbd82f0754425f51b5ffaf897dacec3c8ac3384a66e38ea701ec8825260036020908152918190205490516001600160a01b039091168152f35b5050346102d457816003193601126102d4577f396a39c7e290685f408e5373e677285002a403b06145527a7a84a38a30d9ef10825260036020908152918190205490516001600160a01b039091168152f35b50903461017757602036600319011261017757610b2f610c05565b83546001600160a01b039190610b489083163314610c36565b1691828452600860205260ff8285205416818110156104205715610b9d57508290828252600860205281205533907fd8b3c0235cefc5e19393dedb56c1ece6b41447ef932d7c6b34eb150a4b5d5f498380a380f35b6020606492519162461bcd60e51b8352820152601860248201527f50726564696361746520646f6573206e6f7420657869737400000000000000006044820152fd5b5050346102d45760203660031901126102d457602090610728610c00610c05565b610c91565b600435906001600160a01b0382168203610c1b57565b600080fd5b602435906001600160a01b0382168203610c1b57565b15610c3d57565b60405162461bcd60e51b815260206004820152602660248201527f4f6e6c7920676f7665726e616e636520636f6e747261637420697320617574686044820152651bdc9a5e995960d21b6064820152608490fd5b6001600160a01b038082166000908152600460205260409020541615610ccf576001600160a01b031660009081526007602052604090205460ff1690565b60405162461bcd60e51b815260206004820152601060248201526f1513d2d15397d393d517d3505414115160821b6044820152606490fd5b610d1090610c91565b610d23576001546001600160a01b031690565b6002546001600160a01b03169056fea2646970667358221220338855620267f99f175b95cc3cb40531f581def1a92faab605f46b8503c44b4a64736f6c63430008130033",
  "linkReferences": {},
  "deployedLinkReferences": {}
}