{
  "_format": "hh-sol-artifact-1",
  "contractName": "AccountBasedChildProxy",
  "sourceName": "contracts/dojimachain/non_evm/AccountBasedProxyChildToken/AccountBasedChildProxy.sol",
  "abi": [
    {
      "inputs": [],
      "stateMutability": "nonpayable",
      "type": "constructor"
    },
    {
      "anonymous": false,
      "inputs": [
        {
          "indexed": true,
          "internalType": "address",
          "name": "owner",
          "type": "address"
        },
        {
          "indexed": true,
          "internalType": "address",
          "name": "spender",
          "type": "address"
        },
        {
          "indexed": false,
          "internalType": "uint256",
          "name": "value",
          "type": "uint256"
        }
      ],
      "name": "Approval",
      "type": "event"
    },
    {
      "anonymous": false,
      "inputs": [
        {
          "indexed": true,
          "internalType": "address",
          "name": "previousAddress",
          "type": "address"
        },
        {
          "indexed": true,
          "internalType": "address",
          "name": "newAddress",
          "type": "address"
        }
      ],
      "name": "ChildChainChanged",
      "type": "event"
    },
    {
      "anonymous": false,
      "inputs": [
        {
          "indexed": true,
          "internalType": "bytes",
          "name": "token",
          "type": "bytes"
        },
        {
          "indexed": true,
          "internalType": "address",
          "name": "from",
          "type": "address"
        },
        {
          "indexed": false,
          "internalType": "uint256",
          "name": "amount",
          "type": "uint256"
        },
        {
          "indexed": false,
          "internalType": "uint256",
          "name": "input1",
          "type": "uint256"
        },
        {
          "indexed": false,
          "internalType": "uint256",
          "name": "output1",
          "type": "uint256"
        }
      ],
      "name": "Deposit",
      "type": "event"
    },
    {
      "anonymous": false,
      "inputs": [
        {
          "indexed": true,
          "internalType": "bytes",
          "name": "token",
          "type": "bytes"
        },
        {
          "indexed": true,
          "internalType": "address",
          "name": "from",
          "type": "address"
        },
        {
          "indexed": true,
          "internalType": "address",
          "name": "to",
          "type": "address"
        },
        {
          "indexed": false,
          "internalType": "uint256",
          "name": "amount",
          "type": "uint256"
        },
        {
          "indexed": false,
          "internalType": "uint256",
          "name": "input1",
          "type": "uint256"
        },
        {
          "indexed": false,
          "internalType": "uint256",
          "name": "input2",
          "type": "uint256"
        },
        {
          "indexed": false,
          "internalType": "uint256",
          "name": "output1",
          "type": "uint256"
        },
        {
          "indexed": false,
          "internalType": "uint256",
          "name": "output2",
          "type": "uint256"
        }
      ],
      "name": "LogFeeTransfer",
      "type": "event"
    },
    {
      "anonymous": false,
      "inputs": [
        {
          "indexed": true,
          "internalType": "bytes",
          "name": "token",
          "type": "bytes"
        },
        {
          "indexed": true,
          "internalType": "address",
          "name": "from",
          "type": "address"
        },
        {
          "indexed": true,
          "internalType": "address",
          "name": "to",
          "type": "address"
        },
        {
          "indexed": false,
          "internalType": "uint256",
          "name": "amount",
          "type": "uint256"
        },
        {
          "indexed": false,
          "internalType": "uint256",
          "name": "fromAddrOldBalance",
          "type": "uint256"
        },
        {
          "indexed": false,
          "internalType": "uint256",
          "name": "toAddrOldBalance",
          "type": "uint256"
        },
        {
          "indexed": false,
          "internalType": "uint256",
          "name": "fromAddrNewBalance",
          "type": "uint256"
        },
        {
          "indexed": false,
          "internalType": "uint256",
          "name": "toAddrNewBalance",
          "type": "uint256"
        }
      ],
      "name": "LogTransfer",
      "type": "event"
    },
    {
      "anonymous": false,
      "inputs": [
        {
          "indexed": true,
          "internalType": "address",
          "name": "previousOwner",
          "type": "address"
        },
        {
          "indexed": true,
          "internalType": "address",
          "name": "newOwner",
          "type": "address"
        }
      ],
      "name": "OwnershipTransferred",
      "type": "event"
    },
    {
      "anonymous": false,
      "inputs": [
        {
          "indexed": true,
          "internalType": "address",
          "name": "previousAddress",
          "type": "address"
        },
        {
          "indexed": true,
          "internalType": "address",
          "name": "newAddress",
          "type": "address"
        }
      ],
      "name": "ParentChanged",
      "type": "event"
    },
    {
      "anonymous": false,
      "inputs": [
        {
          "indexed": true,
          "internalType": "address",
          "name": "previousAddress",
          "type": "address"
        },
        {
          "indexed": true,
          "internalType": "address",
          "name": "newAddress",
          "type": "address"
        }
      ],
      "name": "StateSyncerAddressChanged",
      "type": "event"
    },
    {
      "anonymous": false,
      "inputs": [
        {
          "indexed": true,
          "internalType": "address",
          "name": "from",
          "type": "address"
        },
        {
          "indexed": true,
          "internalType": "address",
          "name": "to",
          "type": "address"
        },
        {
          "indexed": false,
          "internalType": "uint256",
          "name": "value",
          "type": "uint256"
        }
      ],
      "name": "Transfer",
      "type": "event"
    },
    {
      "anonymous": false,
      "inputs": [
        {
          "indexed": true,
          "internalType": "bytes",
          "name": "token",
          "type": "bytes"
        },
        {
          "indexed": true,
          "internalType": "address",
          "name": "from",
          "type": "address"
        },
        {
          "indexed": false,
          "internalType": "uint256",
          "name": "amount",
          "type": "uint256"
        },
        {
          "indexed": false,
          "internalType": "uint256",
          "name": "input1",
          "type": "uint256"
        },
        {
          "indexed": false,
          "internalType": "uint256",
          "name": "output1",
          "type": "uint256"
        }
      ],
      "name": "Withdraw",
      "type": "event"
    },
    {
      "inputs": [],
      "name": "CHAINID",
      "outputs": [
        {
          "internalType": "uint256",
          "name": "",
          "type": "uint256"
        }
      ],
      "stateMutability": "view",
      "type": "function"
    },
    {
      "inputs": [],
      "name": "EIP712_DOMAIN_SCHEMA_HASH",
      "outputs": [
        {
          "internalType": "bytes32",
          "name": "",
          "type": "bytes32"
        }
      ],
      "stateMutability": "view",
      "type": "function"
    },
    {
      "inputs": [],
      "name": "EIP712_TOKEN_TRANSFER_ORDER_SCHEMA_HASH",
      "outputs": [
        {
          "internalType": "bytes32",
          "name": "",
          "type": "bytes32"
        }
      ],
      "stateMutability": "view",
      "type": "function"
    },
    {
      "inputs": [],
      "name": "NETWORK_ID",
      "outputs": [
        {
          "internalType": "bytes",
          "name": "",
          "type": "bytes"
        }
      ],
      "stateMutability": "view",
      "type": "function"
    },
    {
      "inputs": [],
      "name": "_decimals",
      "outputs": [
        {
          "internalType": "uint8",
          "name": "",
          "type": "uint8"
        }
      ],
      "stateMutability": "view",
      "type": "function"
    },
    {
      "inputs": [],
      "name": "_name",
      "outputs": [
        {
          "internalType": "string",
          "name": "",
          "type": "string"
        }
      ],
      "stateMutability": "view",
      "type": "function"
    },
    {
      "inputs": [],
      "name": "_symbol",
      "outputs": [
        {
          "internalType": "string",
          "name": "",
          "type": "string"
        }
      ],
      "stateMutability": "view",
      "type": "function"
    },
    {
      "inputs": [
        {
          "internalType": "address",
          "name": "",
          "type": "address"
        },
        {
          "internalType": "address",
          "name": "",
          "type": "address"
        }
      ],
      "name": "allowance",
      "outputs": [
        {
          "internalType": "uint256",
          "name": "",
          "type": "uint256"
        }
      ],
      "stateMutability": "pure",
      "type": "function"
    },
    {
      "inputs": [
        {
          "internalType": "address",
          "name": "",
          "type": "address"
        },
        {
          "internalType": "uint256",
          "name": "",
          "type": "uint256"
        }
      ],
      "name": "approve",
      "outputs": [
        {
          "internalType": "bool",
          "name": "",
          "type": "bool"
        }
      ],
      "stateMutability": "pure",
      "type": "function"
    },
    {
      "inputs": [
        {
          "internalType": "address",
          "name": "account",
          "type": "address"
        }
      ],
      "name": "balanceOf",
      "outputs": [
        {
          "internalType": "uint256",
          "name": "",
          "type": "uint256"
        }
      ],
      "stateMutability": "view",
      "type": "function"
    },
    {
      "inputs": [
        {
          "internalType": "address",
          "name": "newAddress",
          "type": "address"
        }
      ],
      "name": "changeChildChain",
      "outputs": [],
      "stateMutability": "nonpayable",
      "type": "function"
    },
    {
      "inputs": [
        {
          "internalType": "address",
          "name": "newAddress",
          "type": "address"
        }
      ],
      "name": "changeStateSyncerAddress",
      "outputs": [],
      "stateMutability": "nonpayable",
      "type": "function"
    },
    {
      "inputs": [],
      "name": "childChain",
      "outputs": [
        {
          "internalType": "address",
          "name": "",
          "type": "address"
        }
      ],
      "stateMutability": "view",
      "type": "function"
    },
    {
      "inputs": [],
      "name": "decimals",
      "outputs": [
        {
          "internalType": "uint8",
          "name": "",
          "type": "uint8"
        }
      ],
      "stateMutability": "view",
      "type": "function"
    },
    {
      "inputs": [
        {
          "internalType": "address",
          "name": "user",
          "type": "address"
        },
        {
          "internalType": "uint256",
          "name": "amount",
          "type": "uint256"
        }
      ],
      "name": "deposit",
      "outputs": [],
      "stateMutability": "nonpayable",
      "type": "function"
    },
    {
      "inputs": [
        {
          "internalType": "bytes32",
          "name": "",
          "type": "bytes32"
        }
      ],
      "name": "disabledHashes",
      "outputs": [
        {
          "internalType": "bool",
          "name": "",
          "type": "bool"
        }
      ],
      "stateMutability": "view",
      "type": "function"
    },
    {
      "inputs": [
        {
          "internalType": "bytes32",
          "name": "hash",
          "type": "bytes32"
        },
        {
          "internalType": "bytes",
          "name": "sig",
          "type": "bytes"
        }
      ],
      "name": "ecrecovery",
      "outputs": [
        {
          "internalType": "address",
          "name": "result",
          "type": "address"
        }
      ],
      "stateMutability": "pure",
      "type": "function"
    },
    {
      "inputs": [],
      "name": "eip712DomainHash",
      "outputs": [
        {
          "internalType": "bytes32",
          "name": "",
          "type": "bytes32"
        }
      ],
      "stateMutability": "view",
      "type": "function"
    },
    {
      "inputs": [],
      "name": "getToken",
      "outputs": [
        {
          "internalType": "bytes",
          "name": "",
          "type": "bytes"
        }
      ],
      "stateMutability": "view",
      "type": "function"
    },
    {
      "inputs": [
        {
          "internalType": "address",
          "name": "spender",
          "type": "address"
        },
        {
          "internalType": "uint256",
          "name": "tokenIdOrAmount",
          "type": "uint256"
        },
        {
          "internalType": "bytes32",
          "name": "data",
          "type": "bytes32"
        },
        {
          "internalType": "uint256",
          "name": "expiration",
          "type": "uint256"
        }
      ],
      "name": "getTokenTransferOrderHash",
      "outputs": [
        {
          "internalType": "bytes32",
          "name": "orderHash",
          "type": "bytes32"
        }
      ],
      "stateMutability": "view",
      "type": "function"
    },
    {
      "inputs": [
        {
          "internalType": "bytes",
          "name": "_token",
          "type": "bytes"
        },
        {
          "internalType": "string",
          "name": "name",
          "type": "string"
        },
        {
          "internalType": "string",
          "name": "symbol",
          "type": "string"
        }
      ],
      "name": "initialize",
      "outputs": [],
      "stateMutability": "nonpayable",
      "type": "function"
    },
    {
      "inputs": [],
      "name": "isCallerStateSyncer",
      "outputs": [
        {
          "internalType": "bool",
          "name": "",
          "type": "bool"
        }
      ],
      "stateMutability": "view",
      "type": "function"
    },
    {
      "inputs": [],
      "name": "isOwner",
      "outputs": [
        {
          "internalType": "bool",
          "name": "",
          "type": "bool"
        }
      ],
      "stateMutability": "view",
      "type": "function"
    },
    {
      "inputs": [],
      "name": "name",
      "outputs": [
        {
          "internalType": "string",
          "name": "",
          "type": "string"
        }
      ],
      "stateMutability": "view",
      "type": "function"
    },
    {
      "inputs": [
        {
          "internalType": "uint256",
          "name": "",
          "type": "uint256"
        },
        {
          "internalType": "bytes",
          "name": "data",
          "type": "bytes"
        }
      ],
      "name": "onStateReceive",
      "outputs": [],
      "stateMutability": "nonpayable",
      "type": "function"
    },
    {
      "inputs": [],
      "name": "owner",
      "outputs": [
        {
          "internalType": "address",
          "name": "",
          "type": "address"
        }
      ],
      "stateMutability": "view",
      "type": "function"
    },
    {
      "inputs": [],
      "name": "parent",
      "outputs": [
        {
          "internalType": "address",
          "name": "",
          "type": "address"
        }
      ],
      "stateMutability": "view",
      "type": "function"
    },
    {
      "inputs": [],
      "name": "renounceOwnership",
      "outputs": [],
      "stateMutability": "nonpayable",
      "type": "function"
    },
    {
      "inputs": [
        {
          "internalType": "address",
          "name": "newAddress",
          "type": "address"
        }
      ],
      "name": "setParent",
      "outputs": [],
      "stateMutability": "nonpayable",
      "type": "function"
    },
    {
      "inputs": [],
      "name": "stateSyncer",
      "outputs": [
        {
          "internalType": "address",
          "name": "",
          "type": "address"
        }
      ],
      "stateMutability": "view",
      "type": "function"
    },
    {
      "inputs": [],
      "name": "symbol",
      "outputs": [
        {
          "internalType": "string",
          "name": "",
          "type": "string"
        }
      ],
      "stateMutability": "view",
      "type": "function"
    },
    {
      "inputs": [],
      "name": "token",
      "outputs": [
        {
          "internalType": "bytes",
          "name": "",
          "type": "bytes"
        }
      ],
      "stateMutability": "view",
      "type": "function"
    },
    {
      "inputs": [],
      "name": "totalSupply",
      "outputs": [
        {
          "internalType": "uint256",
          "name": "",
          "type": "uint256"
        }
      ],
      "stateMutability": "view",
      "type": "function"
    },
    {
      "inputs": [
        {
          "internalType": "address",
          "name": "to",
          "type": "address"
        },
        {
          "internalType": "uint256",
          "name": "value",
          "type": "uint256"
        }
      ],
      "name": "transfer",
      "outputs": [
        {
          "internalType": "bool",
          "name": "",
          "type": "bool"
        }
      ],
      "stateMutability": "nonpayable",
      "type": "function"
    },
    {
      "inputs": [
        {
          "internalType": "address",
          "name": "",
          "type": "address"
        },
        {
          "internalType": "address",
          "name": "",
          "type": "address"
        },
        {
          "internalType": "uint256",
          "name": "",
          "type": "uint256"
        }
      ],
      "name": "transferFrom",
      "outputs": [
        {
          "internalType": "bool",
          "name": "",
          "type": "bool"
        }
      ],
      "stateMutability": "pure",
      "type": "function"
    },
    {
      "inputs": [
        {
          "internalType": "address",
          "name": "newOwner",
          "type": "address"
        }
      ],
      "name": "transferOwnership",
      "outputs": [],
      "stateMutability": "nonpayable",
      "type": "function"
    },
    {
      "inputs": [
        {
          "internalType": "bytes",
          "name": "sig",
          "type": "bytes"
        },
        {
          "internalType": "uint256",
          "name": "amount",
          "type": "uint256"
        },
        {
          "internalType": "bytes32",
          "name": "data",
          "type": "bytes32"
        },
        {
          "internalType": "uint256",
          "name": "expiration",
          "type": "uint256"
        },
        {
          "internalType": "address",
          "name": "to",
          "type": "address"
        }
      ],
      "name": "transferWithSig",
      "outputs": [
        {
          "internalType": "address",
          "name": "from",
          "type": "address"
        }
      ],
      "stateMutability": "nonpayable",
      "type": "function"
    },
    {
      "inputs": [
        {
          "internalType": "uint256",
          "name": "amount",
          "type": "uint256"
        }
      ],
      "name": "withdraw",
      "outputs": [],
      "stateMutability": "payable",
      "type": "function"
    }
  ],
  "bytecode": "0x60a0604090808252346200058e5760209067544553542d31324160c01b82820152600881526200002f8162000593565b8251906200003d82620005c5565b60009081835284516200005081620005c5565b8281528254336001600160a01b03198083168217865594916001600160a01b03167f8be0079c531659141344cd1fd0a4f28419497f9722a3daafe3b4186f6b6457e08380a386516001600160401b03959060808101878111828210176200049f57895260528082527f454950373132446f6d61696e28737472696e67206e616d652c737472696e6720898301527f76657273696f6e2c75696e7432353620636861696e49642c61646472657373208a83015271766572696679696e67436f6e74726163742960701b606083015289519189855b838110620005795750505083607283015281526080810190808210888311176200049f5790600e60a08a9493838d528281518783012094620001658162000593565b52016d446f6a696d61204e6574776f726b60901b8152208a51620001898162000593565b600594818680935201640312e302e360dc1b8152208b51918b83019384528c830152606082015261057960808201523060a082015260a0815260c081018181108a82111762000565578b5251902095600196875561100180916006541617600655837f98e6a46aa139a033b9c7f3ae4ad1c103ffdce3e7cf509326808ba8c4b5af11c08180a38451801562000561578781116200049f57806200022e600254620005e1565b96601f978b89821162000526575b50508a90888311600114620004bf578692620004b3575b5050600019600383901b1c191690871b176002555b8051908782116200049f57819062000282600a54620005e1565b8a88821162000464575b50508990878311600114620003fe578592620003f2575b5050600019600383901b1c191690861b17600a555b8251958611620003de57620002cf600b54620005e1565b848111620003a2575b505085928511600114620003395793945084929190836200032d575b50501b916000199060031b1c191617600b555b601260805260ff19600c5416600c55516123c79081620006388239608051816109550152f35b015192503880620002f4565b600b815285812093958591601f198316915b888383106200038757505050106200036d575b505050811b01600b5562000307565b015160001960f88460031b161c191690553880806200035e565b8587015188559096019594850194879350908101906200034b565b620003cc91600b84528884209086808a01821c8301938b8b10620003d4575b01901c01906200061e565b3880620002d8565b93508293620003c1565b634e487b7160e01b82526041600452602482fd5b015190503880620002a3565b600a86528a86208994509190601f198416875b8d8282106200044d575050841162000433575b505050811b01600a55620002b8565b015160001960f88460031b161c1916905538808062000424565b8385015186558c9790950194938401930162000411565b6200048d91600a88528982892091818701891c830193871062000495575b01871c01906200061e565b388a6200028c565b9250819262000482565b634e487b7160e01b84526041600452602484fd5b01519050388062000253565b600287528b87208a94509190601f198416888e5b8282106200050e5750508411620004f4575b505050811b0160025562000268565b015160001960f88460031b161c19169055388080620004e5565b8385015186558d979095019493840193018e620004d3565b6200054f91600289528a828a20918187018a1c830193871062000557575b01881c01906200061e565b388b6200023c565b9250819262000544565b8380fd5b634e487b7160e01b86526041600452602486fd5b818184010151828287010152018a9062000123565b600080fd5b604081019081106001600160401b03821117620005af57604052565b634e487b7160e01b600052604160045260246000fd5b602081019081106001600160401b03821117620005af57604052565b90600182811c9216801562000613575b6020831014620005fd57565b634e487b7160e01b600052602260045260246000fd5b91607f1691620005f1565b8181106200062a575050565b600081556001016200061e56fe6080604052600436101561001257600080fd5b60003560e01c806306fdde03146101e6578063095ea7b3146102635780631499c5921461025e57806318160ddd1461025957806319d27d9c146102545780631c3895ad1461024f57806321df0da7146101be57806323b872dd1461024a57806326c53bea1461024557806328ce8b31146102405780632e1a7d4d1461023b578063313ce5671461023657806332424aa31461023657806342fc47fb1461023157806347e7ef241461022c57806360f96a8f1461022757806370a0823114610222578063715018a61461021d57806377d32e94146102185780638da5cb5b146102135780638f32d59b1461020e57806395d89b41146101fa578063a9059cbb14610209578063abceeba214610204578063acd06cb3146101ff578063b09f1266146101fa578063b789543c146101f5578063c117db0b146101f0578063cc79f97b146101eb578063d28d8852146101e6578063dd62ed3e146101e1578063df555007146101dc578063e614d0d6146101d7578063ed9ef524146101d2578063f2fde38b146101cd578063f4ef4d69146101c8578063f94dc4bc146101c35763fc0c546a146101be57600080fd5b6106c1565b6113f2565b6113c9565b611344565b611235565b61121a565b61109a565b61107e565b6102a8565b611061565b610fa3565b610f4d565b610d1e565b610ee2565b610ebf565b610dc5565b610ce9565b610cc0565b610c60565b610ba9565b610b6c565b610b43565b6109a2565b610979565b61093b565b610923565b6108e0565b61077d565b610756565b610699565b610532565b6104e7565b6103cc565b6103ab565b919082519283825260005b848110610294575050826000602080949584010152601f8019910116010190565b602081830181015184830182015201610273565b3461039557600080600319360112610392576040519080600a546102cb81610f13565b80855291600191808316908115610368575060011461030d575b610309856102f5818703826108bf565b604051918291602083526020830190610268565b0390f35b9250600a83527fc65a7bb8d6351c1cf70c95a316cc6a92839c986682d98bc35f958f4883f9d2a85b8284106103505750505081016020016102f5826103096102e5565b80546020858701810191909152909301928101610335565b869550610309969350602092506102f594915060ff191682840152151560051b82010192936102e5565b80fd5b600080fd5b6001600160a01b0381160361039557565b34610395576040366003190112610395576103c760043561039a565b612319565b34610395576020366003190112610395576004356103e98161039a565b600080516020612372833981519152546001600160a01b039061040f9082163314611443565b81169081156104725760045461047092906001600160a01b03167fc9e4c719f349d4c91a37138eb5cf0ba2670c592a764f8c0b18c603ba9178cc1d600080a360018060a01b03166bffffffffffffffffffffffff60a01b6004541617600455565b005b60405162461bcd60e51b815260206004820152604160248201527f4163636f756e74204261736564204368696c6420746f6b656e3a206e6577207060448201527f6172656e74206164647265737320697320746865207a65726f206164647265736064820152607360f81b608482015260a490fd5b34610395576000366003190112610395576020600954604051908152f35b9181601f84011215610395578235916001600160401b038311610395576020838186019501011161039557565b346103955760a0366003190112610395576004356001600160401b03811161039557610562903690600401610505565b9060243560643590608435926105778461039a565b8115610643576103099461060861060e926105b56105ae8761061e98158015610639575b6105a49061148e565b6044358833611410565b309061154f565b926105dd6105d76105d0866000526005602052604060002090565b5460ff1690565b156114f1565b6106016105f4856000526005602052604060002090565b805460ff19166001179055565b3691610c1a565b90611928565b926001600160a01b0316836116eb565b506040516001600160a01b0390911681529081906020820190565b504381101561059b565b60405162461bcd60e51b815260206004820152602860248201527f4163636f756e74204261736564204261736520546f6b656e3a20696e76616c696044820152671908185b5bdd5b9d60c21b6064820152608490fd5b3461039557600036600319011261039557602060018060a01b03600654163314604051908152f35b34610395576000806003193601126103925760405190806002546106e481610f13565b80855291600191808316908115610368575060011461070d57610309856102f5818703826108bf565b9250600283526000805160206123528339815191525b82841061073e5750505081016020016102f5826103096102e5565b80546020858701810191909152909301928101610723565b346103955760603660031901126103955761077260043561039a565b6103c760243561039a565b34610395576040366003190112610395576024356001600160401b038111610395576107ad903690600401610505565b6006546001600160a01b039291908316330361080b578160409181010312610395576104709160208235926107e18461039a565b0135911681816000526007602052604060002054908110610803575b50611e08565b9150386107fd565b60405162461bcd60e51b815260206004820152603560248201527f53746174652073796e6365723a2063616c6c6572206973206e6f7420746865206044820152741cdd185d19481cde5b98d95c8818dbdb9d1c9858dd605a1b6064820152608490fd5b634e487b7160e01b600052604160045260246000fd5b604081019081106001600160401b0382111761089f57604052565b61086e565b608081019081106001600160401b0382111761089f57604052565b90601f801991011681019081106001600160401b0382111761089f57604052565b346103955760003660031901126103955761030960405161090081610884565b600281526103e960f01b6020820152604051918291602083526020830190610268565b60203660031901126103955761047060043533611e08565b3461039557600036600319011261039557602060405160ff7f0000000000000000000000000000000000000000000000000000000000000000168152f35b34610395576000366003190112610395576003546040516001600160a01b039091168152602090f35b34610395576040366003190112610395576004356109bf8161039a565b60035460243591906001600160a01b039081163303610ae25782151580610ad7575b15610a77576001600160a01b03821660009081526007602052604090207f68ef7ce2640f8727da5ca0ea6d99bb00585c775e7fbfe863016ce3165d985ff291905492610a2d8582612204565b6001600160a01b0381166000908152600760205260409020610a729054610a52611660565b956040519485941697846040919493926060820195825260208201520152565b0390a3005b60405162461bcd60e51b815260206004820152603260248201527f4368696c642053504c3a20696e76616c69642075736572206164647265737320604482015271185b990819195c1bdcda5d08185b5bdd5b9d60721b6064820152608490fd5b5080821615156109e1565b60405162461bcd60e51b815260206004820152603360248201527f4368696c6420746f6b656e3a2063616c6c6572206973206e6f742074686520636044820152721a1a5b190818da185a5b8818dbdb9d1c9858dd606a1b6064820152608490fd5b34610395576000366003190112610395576004546040516001600160a01b039091168152602090f35b3461039557602036600319011261039557600435610b898161039a565b60018060a01b031660005260076020526020604060002054604051908152f35b346103955760008060031936011261039257600080516020612372833981519152546001600160a01b0390610be19082163314611443565b8180549182167f8be0079c531659141344cd1fd0a4f28419497f9722a3daafe3b4186f6b6457e08280a36001600160a01b031916815580f35b9291926001600160401b03821161089f5760405191610c43601f8201601f1916602001846108bf565b829481845281830111610395578281602093846000960137010152565b34610395576040366003190112610395576024356001600160401b038111610395573660238201121561039557610cae610ca66020923690602481600401359101610c1a565b600435611928565b6040516001600160a01b039091168152f35b34610395576000366003190112610395576000546040516001600160a01b039091168152602090f35b3461039557600036600319011261039557602060018060a01b0360008051602061237283398151915254163314604051908152f35b3461039557600080600319360112610392576040519080600b54610d4181610f13565b808552916001918083169081156103685750600114610d6a57610309856102f5818703826108bf565b9250600b83527f0175b7a638427703f0dbe7bb9bbf987a2551717b34e79f33b5b1008d1fa01db95b828410610dad5750505081016020016102f5826103096102e5565b80546020858701810191909152909301928101610d92565b34610395576040366003190112610395576020610df0600435610de78161039a565b60243590611f84565b6040519015158152f35b604051610e06816108a4565b605b8082526020907f546f6b656e5472616e736665724f726465722861646472657373207370656e64828401527f65722c75696e7432353620746f6b656e49644f72416d6f756e742c627974657360408401527f333220646174612c75696e743235362065787069726174696f6e2900000000006060840152604051928260005b838110610eab575050506000607b8401528252610ea3826108a4565b815191012090565b818184010151828288010152018390610e87565b34610395576000366003190112610395576020610eda610dfa565b604051908152f35b34610395576020366003190112610395576004356000526005602052602060ff604060002054166040519015158152f35b90600182811c92168015610f43575b6020831014610f2d57565b634e487b7160e01b600052602260045260246000fd5b91607f1691610f22565b34610395576080366003190112610395576020610eda610f83600435610f728161039a565b606435906044359060243590611410565b6001546042916040519161190160f01b8352600283015260228201522090565b34610395576060366003190112610395576001600160401b0360043581811161039557610fd4903690600401610505565b60249291923582811161039557610fef903690600401610505565b909260443590811161039557611009903690600401610505565b939092600c549560ff871661102b5760016104709760ff191617600c55611cb5565b60405162461bcd60e51b815260206004820152600e60248201526d185b1c9958591e481a5b9a5d195960921b6044820152606490fd5b346103955760003660031901126103955760206040516105798152f35b346103955760403660031901126103955761077260043561039a565b34610395576020366003190112610395576004356110b78161039a565b600080516020612372833981519152546001600160a01b039182916110df9083163314611443565b1690811561112357816006549182167f98e6a46aa139a033b9c7f3ae4ad1c103ffdce3e7cf509326808ba8c4b5af11c0600080a36001600160a01b03191617600655005b60405162461bcd60e51b815260206004820152601d60248201527f53746174652073796e6365723a20696e76616c696420616464726573730000006044820152606490fd5b604051611174816108a4565b60528082526020907f454950373132446f6d61696e28737472696e67206e616d652c737472696e6720828401527f76657273696f6e2c75696e7432353620636861696e49642c6164647265737320604084015271766572696679696e67436f6e74726163742960701b6060840152604051928260005b83811061120657505050600060728401528252610ea3826108a4565b8181840101518282880101520183906111ea565b34610395576000366003190112610395576020610eda611168565b34610395576020366003190112610395576004356112528161039a565b600080516020612372833981519152546001600160a01b0391906112799083163314611443565b81811680156112da5760035461047093166001600160a01b03167f1f9f3556dd336016cdf20adaead7d5c73665dba664b60e8c17e9a4eb91ce1d39600080a360018060a01b03166bffffffffffffffffffffffff60a01b6003541617600355565b608460405162461bcd60e51b815260206004820152604060248201527f4163636f756e74204261736564204368696c6420746f6b656e3a206e6577206360448201527f68696c64206164647265737320697320746865207a65726f20616464726573736064820152fd5b34610395576020366003190112610395576004356113618161039a565b600080516020612372833981519152546001600160a01b0391906113889083163314611443565b600080546001600160a01b0319811692841692831782559092167f8be0079c531659141344cd1fd0a4f28419497f9722a3daafe3b4186f6b6457e08380a380f35b34610395576000366003190112610395576006546040516001600160a01b039091168152602090f35b34610395576000366003190112610395576020600154604051908152f35b9160a0939161141d610dfa565b93604051948552600180871b031660208501526040840152606083015260808201522090565b1561144a57565b606460405162461bcd60e51b815260206004820152602060248201527f4f776e61626c653a2063616c6c6572206973206e6f7420746865206f776e65726044820152fd5b1561149557565b60405162461bcd60e51b815260206004820152602e60248201527f4163636f756e74204261736564204261736520546f6b656e3a205369676e617460448201526d1d5c99481a5cc8195e1c1a5c995960921b6064820152608490fd5b156114f857565b60405162461bcd60e51b815260206004820152602960248201527f4163636f756e74204261736564204261736520546f6b656e3a205369672064656044820152681858dd1a5d985d195960ba1b6064820152608490fd5b611557611168565b6d446f6a696d61204e6574776f726b60901b602060405161157781610884565b600e81520152640312e302e360dc1b602060405161159481610884565b60058152015260405192602084019182527f221f8a440277f355573de882ed84f79b3742ae470474223812e292fd8a8bfa4460408501527f06c015bd22b4c69690933c1058878ebdfef31f9aaae40bbe86d8a09fe1b2972c6060850152610579608085015260018060a01b031660a084015260a0835260c08301928084106001600160401b0385111761089f57604084905251902061190160f01b8352600283015260228201526042902090565b90565b90816020910312610395575190565b6040513d6000823e3d90fd5b60405180600060025461167281610f13565b906001908181169081156116d45750600114611691575b505003902090565b600260009081529192506000805160206123528339815191525b8383106116be5750505081013880611689565b80548684015285945060209092019181016116ab565b60ff19168552505080151502820190503880611689565b6040516370a0823160e01b8082526001600160a01b038316600483015291939260209291908382602481305afa91821561185a5760009261189b575b506040518381526001600160a01b0382166004820152938085602481305afa94851561185a5760009561187c575b506117618683896120ea565b6040518481526001600160a01b03881660048201528181602481305afa90811561185a5760009161185f575b506040519485526001600160a01b03831660048601528185602481305afa90811561185a577fb04c113d65bb862cc6c362d7c4c1271731185b8d36753f810d184768e771c1fc956118239360009361182b575b50506117ea611660565b9660405195869560018060a01b038091169b1699869192608093969594919660a084019784526020840152604083015260608201520152565b0390a4600190565b61184b929350803d10611853575b61184381836108bf565b810190611645565b9038806117e0565b503d611839565b611654565b6118769150823d84116118535761184381836108bf565b3861178d565b816118949296503d87116118535761184381836108bf565b9338611755565b6118b3919250843d86116118535761184381836108bf565b9038611727565b634e487b7160e01b600052601160045260246000fd5b60ff601b9116019060ff82116118e257565b6118ba565b156118ee57565b60405162461bcd60e51b815260206004820152601260248201527122b93937b91034b71032b1b932b1b7bb32b960711b6044820152606490fd5b90600060418251036119e3575060208101519160ff604160408401519301511690601b82106119d3575b60ff8216601b81141590816119c7575b506119be57611996600093602095604051948594859094939260ff6060936080840197845216602083015260408201520152565b838052039060015afa1561185a57600051906119bc6001600160a01b03831615156118e7565b565b50505050600090565b601c9150141538611962565b906119dd906118d0565b90611952565b91505090565b8181106119f4575050565b600081556001016119e9565b90601f8211611a0d575050565b6119bc916002600052600080516020612352833981519152906020601f840160051c83019310611a45575b601f0160051c01906119e9565b9091508190611a38565b90601f8211611a5c575050565b6119bc91600a6000527fc65a7bb8d6351c1cf70c95a316cc6a92839c986682d98bc35f958f4883f9d2a8906020601f840160051c83019310611a4557601f0160051c01906119e9565b90601f8211611ab2575050565b6119bc91600b6000527f0175b7a638427703f0dbe7bb9bbf987a2551717b34e79f33b5b1008d1fa01db9906020601f840160051c83019310611a4557601f0160051c01906119e9565b91906001600160401b03811161089f57611b1f81611b1a600a54610f13565b611a4f565b6000601f8211600114611b5957819293600092611b4e575b50508160011b916000199060031b1c191617600a55565b013590503880611b37565b600a600052601f198216937fc65a7bb8d6351c1cf70c95a316cc6a92839c986682d98bc35f958f4883f9d2a891805b868110611bc05750836001959610611ba6575b505050811b01600a55565b0135600019600384901b60f8161c19169055388080611b9b565b90926020600181928686013581550194019101611b88565b91906001600160401b03811161089f57611bfc81611bf7600b54610f13565b611aa5565b6000601f8211600114611c3657819293600092611c2b575b50508160011b916000199060031b1c191617600b55565b013590503880611c14565b600b600052601f198216937f0175b7a638427703f0dbe7bb9bbf987a2551717b34e79f33b5b1008d1fa01db991805b868110611c9d5750836001959610611c83575b505050811b01600b55565b0135600019600384901b60f8161c19169055388080611c78565b90926020600181928686013581550194019101611c65565b95949392958115611daa576001600160401b03821161089f57611ce282611cdd600254610f13565b611a00565b600090601f8311600114611d2f579180611d1f94926119bc989994600092611d24575b50508160011b916000199060031b1c191617600255611afb565b611bd8565b013590503880611d05565b600260005260008051602061235283398151915291601f198416815b818110611d9257509260019285926119bc9a9b96611d1f989610611d78575b505050811b01600255611afb565b0135600019600384901b60f8161c19169055388080611d6a565b91936020600181928787013581550195019201611d4b565b60405162461bcd60e51b815260206004820152603060248201527f4163636f756e74204368696c642050726f78793a20746f6b656e206c656e677460448201526f682063616e6e6f74206265207a65726f60801b6064820152608490fd5b6001600160a01b038116600081815260076020526040902054909291908315611f27576001600160a01b03821660009081526007602052604090207feba6ac1619d393af4bf202dad828b057aaf28edd445663dc6ec4e30a43cc410a92611ef791859054611e78828210156122be565b03611e958260018060a01b03166000526007602052604060002090565b55611ea38560095403600955565b6000867fddf252ad1be2c89b69c2b068fc378daa952ba7f163c4a11628f55a4df523b3ef60405180611eda8a829190602083019252565b0390a36001600160a01b0316600090815260076020526040902090565b5492611f22611f04611660565b94604051938493846040919493926060820195825260208201520152565b0390a3565b60405162461bcd60e51b815260206004820152601a60248201527f4368696c642053504c3a20696e76616c696420616464726573730000000000006044820152606490fd5b90816020910312610395575180151581036103955790565b6004549091906001600160a01b039081168015159182611fb6575b5050611faf5761164291336116eb565b5050600090565b600092509060646020926040519485938492631ffb811f60e01b8452336004850152891660248401528760448401525af190811561185a57600091611fff575b50153880611f9f565b612020915060203d8111612026575b61201881836108bf565b810190611f6c565b38611ff6565b503d61200e565b1561203457565b60405162461bcd60e51b815260206004820152602860248201527f4368696c6420424550323a207472616e7366657220746f20746865207a65726f604482015267206164647265737360c01b6064820152608490fd5b1561209157565b60405162461bcd60e51b815260206004820152602b60248201527f4368696c6420424550323a207472616e7366657220616d6f756e74206578636560448201526a6564732062616c616e636560a81b6064820152608490fd5b916001600160a01b0380841692909183156121ac57612196827fddf252ad1be2c89b69c2b068fc378daa952ba7f163c4a11628f55a4df523b3ef94611f2294169661213688151561202d565b6001600160a01b038116600090815260076020526040902061217b908590546121618282101561208a565b039160018060a01b03166000526007602052604060002090565b556001600160a01b0316600090815260076020526040902090565b8054820190556040519081529081906020820190565b60405162461bcd60e51b815260206004820152602a60248201527f4368696c6420424550323a207472616e736665722066726f6d20746865207a65604482015269726f206164647265737360b01b6064820152608490fd5b6001600160a01b0381169190821561227957600954908282018092116118e25760009261226a6020927fddf252ad1be2c89b69c2b068fc378daa952ba7f163c4a11628f55a4df523b3ef9460095560018060a01b03166000526007602052604060002090565b818154019055604051908152a3565b60405162461bcd60e51b815260206004820152601a60248201527f4368696c642053504c3a20696e76616c6964206163636f756e740000000000006044820152606490fd5b156122c557565b60405162461bcd60e51b815260206004820152602660248201527f4368696c642053504c3a206275726e20616d6f756e7420657863656564732062604482015265616c616e636560d01b6064820152608490fd5b60405162461bcd60e51b815260206004820152601060248201526f44697361626c6564206665617475726560801b6044820152606490fdfe405787fa12a823e0f2b7631cc41b3ba8828b3321ca811111fa75cd3aa3bb5ace479ffb3c275b8ac9b3317421329612c7dc376a0f67c890d7652f9df289f799aea2646970667358221220083dc6ef04ad2a0902d42e8d7d81a093f3147b35fa7ca2b68f89c27c6959611864736f6c63430008130033",
  "linkReferences": {},
  "deployedLinkReferences": {}
}