{
  "_format": "hh-sol-artifact-1",
  "contractName": "OutboundStateSender",
  "sourceName": "contracts/dojimachain/OutboundStateSender.sol",
  "abi": [
    {
      "anonymous": false,
      "inputs": [
        {
          "indexed": false,
          "internalType": "bytes32",
          "name": "chain",
          "type": "bytes32"
        }
      ],
      "name": "ChainWhitelisted",
      "type": "event"
    },
    {
      "anonymous": false,
      "inputs": [
        {
          "indexed": false,
          "internalType": "uint8",
          "name": "version",
          "type": "uint8"
        }
      ],
      "name": "Initialized",
      "type": "event"
    },
    {
      "anonymous": false,
      "inputs": [
        {
          "indexed": true,
          "internalType": "address",
          "name": "initiator",
          "type": "address"
        },
        {
          "indexed": true,
          "internalType": "uint256",
          "name": "rollupId",
          "type": "uint256"
        },
        {
          "indexed": true,
          "internalType": "uint256",
          "name": "withdrawId",
          "type": "uint256"
        },
        {
          "indexed": false,
          "internalType": "uint256",
          "name": "amount",
          "type": "uint256"
        },
        {
          "indexed": false,
          "internalType": "address",
          "name": "refundAddress",
          "type": "address"
        },
        {
          "indexed": false,
          "internalType": "uint256",
          "name": "gasFee",
          "type": "uint256"
        },
        {
          "indexed": false,
          "internalType": "bytes32",
          "name": "destinationChainId",
          "type": "bytes32"
        },
        {
          "indexed": false,
          "internalType": "bytes",
          "name": "destinationAssetId",
          "type": "bytes"
        },
        {
          "indexed": false,
          "internalType": "bytes",
          "name": "recipientAddress",
          "type": "bytes"
        },
        {
          "indexed": false,
          "internalType": "address",
          "name": "votingContract",
          "type": "address"
        }
      ],
      "name": "InitiateWithdrawal",
      "type": "event"
    },
    {
      "anonymous": false,
      "inputs": [
        {
          "indexed": false,
          "internalType": "bytes32",
          "name": "chain",
          "type": "bytes32"
        },
        {
          "indexed": false,
          "internalType": "address",
          "name": "caller",
          "type": "address"
        },
        {
          "indexed": false,
          "internalType": "bytes",
          "name": "pool",
          "type": "bytes"
        },
        {
          "indexed": false,
          "internalType": "address",
          "name": "poolContract",
          "type": "address"
        }
      ],
      "name": "NewPoolRegistration",
      "type": "event"
    },
    {
      "anonymous": false,
      "inputs": [
        {
          "indexed": false,
          "internalType": "bytes32",
          "name": "chain",
          "type": "bytes32"
        },
        {
          "indexed": false,
          "internalType": "bytes",
          "name": "caller",
          "type": "bytes"
        },
        {
          "indexed": false,
          "internalType": "bytes",
          "name": "sender",
          "type": "bytes"
        },
        {
          "indexed": false,
          "internalType": "bytes",
          "name": "receiver",
          "type": "bytes"
        }
      ],
      "name": "NewRegistration",
      "type": "event"
    },
    {
      "anonymous": false,
      "inputs": [
        {
          "indexed": true,
          "internalType": "address",
          "name": "previousOwner",
          "type": "address"
        },
        {
          "indexed": true,
          "internalType": "address",
          "name": "newOwner",
          "type": "address"
        }
      ],
      "name": "OwnershipTransferred",
      "type": "event"
    },
    {
      "anonymous": false,
      "inputs": [
        {
          "indexed": false,
          "internalType": "bytes32",
          "name": "chain",
          "type": "bytes32"
        },
        {
          "indexed": false,
          "internalType": "address",
          "name": "caller",
          "type": "address"
        },
        {
          "indexed": false,
          "internalType": "bytes",
          "name": "pool",
          "type": "bytes"
        },
        {
          "indexed": false,
          "internalType": "address",
          "name": "poolContract",
          "type": "address"
        }
      ],
      "name": "PoolRegistrationUpdated",
      "type": "event"
    },
    {
      "anonymous": false,
      "inputs": [
        {
          "indexed": false,
          "internalType": "bytes32",
          "name": "chain",
          "type": "bytes32"
        },
        {
          "indexed": false,
          "internalType": "bytes",
          "name": "caller",
          "type": "bytes"
        },
        {
          "indexed": false,
          "internalType": "bytes",
          "name": "sender",
          "type": "bytes"
        },
        {
          "indexed": false,
          "internalType": "bytes",
          "name": "receiver",
          "type": "bytes"
        }
      ],
      "name": "RegistrationUpdated",
      "type": "event"
    },
    {
      "anonymous": false,
      "inputs": [
        {
          "indexed": true,
          "internalType": "bytes32",
          "name": "role",
          "type": "bytes32"
        },
        {
          "indexed": true,
          "internalType": "bytes32",
          "name": "previousAdminRole",
          "type": "bytes32"
        },
        {
          "indexed": true,
          "internalType": "bytes32",
          "name": "newAdminRole",
          "type": "bytes32"
        }
      ],
      "name": "RoleAdminChanged",
      "type": "event"
    },
    {
      "anonymous": false,
      "inputs": [
        {
          "indexed": true,
          "internalType": "bytes32",
          "name": "role",
          "type": "bytes32"
        },
        {
          "indexed": true,
          "internalType": "address",
          "name": "account",
          "type": "address"
        },
        {
          "indexed": true,
          "internalType": "address",
          "name": "sender",
          "type": "address"
        }
      ],
      "name": "RoleGranted",
      "type": "event"
    },
    {
      "anonymous": false,
      "inputs": [
        {
          "indexed": true,
          "internalType": "bytes32",
          "name": "role",
          "type": "bytes32"
        },
        {
          "indexed": true,
          "internalType": "address",
          "name": "account",
          "type": "address"
        },
        {
          "indexed": true,
          "internalType": "address",
          "name": "sender",
          "type": "address"
        }
      ],
      "name": "RoleRevoked",
      "type": "event"
    },
    {
      "anonymous": false,
      "inputs": [
        {
          "indexed": true,
          "internalType": "uint256",
          "name": "assetDepositId",
          "type": "uint256"
        },
        {
          "indexed": true,
          "internalType": "bytes32",
          "name": "destinationChain",
          "type": "bytes32"
        },
        {
          "indexed": false,
          "internalType": "bytes",
          "name": "destinationAddress",
          "type": "bytes"
        },
        {
          "indexed": false,
          "internalType": "address",
          "name": "refundAddress",
          "type": "address"
        },
        {
          "indexed": false,
          "internalType": "uint256",
          "name": "gas",
          "type": "uint256"
        },
        {
          "indexed": false,
          "internalType": "bytes",
          "name": "destinationAsset",
          "type": "bytes"
        },
        {
          "indexed": false,
          "internalType": "uint256",
          "name": "assetAmount",
          "type": "uint256"
        }
      ],
      "name": "TransferAsset",
      "type": "event"
    },
    {
      "anonymous": false,
      "inputs": [
        {
          "indexed": true,
          "internalType": "uint256",
          "name": "depositId",
          "type": "uint256"
        },
        {
          "indexed": true,
          "internalType": "bytes32",
          "name": "destinationChain",
          "type": "bytes32"
        },
        {
          "indexed": false,
          "internalType": "bytes",
          "name": "destinationContract",
          "type": "bytes"
        },
        {
          "indexed": false,
          "internalType": "address",
          "name": "vault",
          "type": "address"
        },
        {
          "indexed": false,
          "internalType": "address",
          "name": "refundAddress",
          "type": "address"
        },
        {
          "indexed": false,
          "internalType": "uint256",
          "name": "gas",
          "type": "uint256"
        },
        {
          "indexed": false,
          "internalType": "bytes",
          "name": "payload",
          "type": "bytes"
        }
      ],
      "name": "TransferPayload",
      "type": "event"
    },
    {
      "anonymous": false,
      "inputs": [
        {
          "indexed": false,
          "internalType": "address",
          "name": "oldVault",
          "type": "address"
        },
        {
          "indexed": false,
          "internalType": "address",
          "name": "newVault",
          "type": "address"
        }
      ],
      "name": "VaultUpdated",
      "type": "event"
    },
    {
      "anonymous": false,
      "inputs": [
        {
          "indexed": true,
          "internalType": "uint128",
          "name": "rollupId",
          "type": "uint128"
        },
        {
          "indexed": true,
          "internalType": "uint128",
          "name": "withdrawEventId",
          "type": "uint128"
        },
        {
          "indexed": true,
          "internalType": "bytes32",
          "name": "txHash",
          "type": "bytes32"
        }
      ],
      "name": "VotingCompleted",
      "type": "event"
    },
    {
      "inputs": [],
      "name": "ADMIN_ROLE",
      "outputs": [
        {
          "internalType": "bytes32",
          "name": "",
          "type": "bytes32"
        }
      ],
      "stateMutability": "view",
      "type": "function"
    },
    {
      "inputs": [],
      "name": "DEFAULT_ADMIN_ROLE",
      "outputs": [
        {
          "internalType": "bytes32",
          "name": "",
          "type": "bytes32"
        }
      ],
      "stateMutability": "view",
      "type": "function"
    },
    {
      "inputs": [],
      "name": "VOTING_CONTRACT_ROLE",
      "outputs": [
        {
          "internalType": "bytes32",
          "name": "",
          "type": "bytes32"
        }
      ],
      "stateMutability": "view",
      "type": "function"
    },
    {
      "inputs": [
        {
          "internalType": "address",
          "name": "sender",
          "type": "address"
        }
      ],
      "name": "addSenderToRegistry",
      "outputs": [],
      "stateMutability": "nonpayable",
      "type": "function"
    },
    {
      "inputs": [
        {
          "internalType": "bytes",
          "name": "",
          "type": "bytes"
        }
      ],
      "name": "assetRegistry",
      "outputs": [
        {
          "internalType": "bool",
          "name": "",
          "type": "bool"
        }
      ],
      "stateMutability": "view",
      "type": "function"
    },
    {
      "inputs": [
        {
          "internalType": "bytes32",
          "name": "role",
          "type": "bytes32"
        }
      ],
      "name": "getRoleAdmin",
      "outputs": [
        {
          "internalType": "bytes32",
          "name": "",
          "type": "bytes32"
        }
      ],
      "stateMutability": "view",
      "type": "function"
    },
    {
      "inputs": [
        {
          "internalType": "bytes32",
          "name": "role",
          "type": "bytes32"
        },
        {
          "internalType": "address",
          "name": "account",
          "type": "address"
        }
      ],
      "name": "grantRole",
      "outputs": [],
      "stateMutability": "nonpayable",
      "type": "function"
    },
    {
      "inputs": [
        {
          "internalType": "uint128",
          "name": "withdrawEventId",
          "type": "uint128"
        },
        {
          "internalType": "uint128",
          "name": "rollupID",
          "type": "uint128"
        },
        {
          "internalType": "bytes32",
          "name": "txHash",
          "type": "bytes32"
        }
      ],
      "name": "handleVotingCompleted",
      "outputs": [],
      "stateMutability": "nonpayable",
      "type": "function"
    },
    {
      "inputs": [
        {
          "internalType": "bytes32",
          "name": "role",
          "type": "bytes32"
        },
        {
          "internalType": "address",
          "name": "account",
          "type": "address"
        }
      ],
      "name": "hasRole",
      "outputs": [
        {
          "internalType": "bool",
          "name": "",
          "type": "bool"
        }
      ],
      "stateMutability": "view",
      "type": "function"
    },
    {
      "inputs": [
        {
          "internalType": "address",
          "name": "votingContractAddress",
          "type": "address"
        },
        {
          "internalType": "address",
          "name": "registryContractAddress",
          "type": "address"
        }
      ],
      "name": "initialize",
      "outputs": [],
      "stateMutability": "nonpayable",
      "type": "function"
    },
    {
      "inputs": [
        {
          "internalType": "uint256",
          "name": "rollupId",
          "type": "uint256"
        },
        {
          "internalType": "uint256",
          "name": "amount",
          "type": "uint256"
        },
        {
          "internalType": "address",
          "name": "refundAddress",
          "type": "address"
        },
        {
          "internalType": "bytes32",
          "name": "destinationChainId",
          "type": "bytes32"
        },
        {
          "internalType": "bytes",
          "name": "destinationAssetId",
          "type": "bytes"
        },
        {
          "internalType": "bytes",
          "name": "recipientAddress",
          "type": "bytes"
        }
      ],
      "name": "initiateWithdrawal",
      "outputs": [],
      "stateMutability": "payable",
      "type": "function"
    },
    {
      "inputs": [],
      "name": "isOwner",
      "outputs": [
        {
          "internalType": "bool",
          "name": "",
          "type": "bool"
        }
      ],
      "stateMutability": "view",
      "type": "function"
    },
    {
      "inputs": [
        {
          "internalType": "bytes32",
          "name": "",
          "type": "bytes32"
        }
      ],
      "name": "outboundAssetCounter",
      "outputs": [
        {
          "internalType": "uint256",
          "name": "",
          "type": "uint256"
        }
      ],
      "stateMutability": "view",
      "type": "function"
    },
    {
      "inputs": [
        {
          "internalType": "bytes32",
          "name": "",
          "type": "bytes32"
        }
      ],
      "name": "outboundEventCounter",
      "outputs": [
        {
          "internalType": "uint256",
          "name": "",
          "type": "uint256"
        }
      ],
      "stateMutability": "view",
      "type": "function"
    },
    {
      "inputs": [],
      "name": "owner",
      "outputs": [
        {
          "internalType": "address",
          "name": "",
          "type": "address"
        }
      ],
      "stateMutability": "view",
      "type": "function"
    },
    {
      "inputs": [
        {
          "internalType": "bytes32",
          "name": "",
          "type": "bytes32"
        },
        {
          "internalType": "bytes",
          "name": "",
          "type": "bytes"
        }
      ],
      "name": "poolRegistry",
      "outputs": [
        {
          "internalType": "address",
          "name": "",
          "type": "address"
        }
      ],
      "stateMutability": "view",
      "type": "function"
    },
    {
      "inputs": [
        {
          "internalType": "bytes32",
          "name": "chain",
          "type": "bytes32"
        },
        {
          "internalType": "bytes",
          "name": "senderAddress",
          "type": "bytes"
        },
        {
          "internalType": "bytes",
          "name": "receiverAddress",
          "type": "bytes"
        }
      ],
      "name": "register",
      "outputs": [],
      "stateMutability": "nonpayable",
      "type": "function"
    },
    {
      "inputs": [
        {
          "internalType": "bytes",
          "name": "asset",
          "type": "bytes"
        }
      ],
      "name": "registerAsset",
      "outputs": [],
      "stateMutability": "nonpayable",
      "type": "function"
    },
    {
      "inputs": [
        {
          "internalType": "bytes32",
          "name": "chain",
          "type": "bytes32"
        },
        {
          "internalType": "bytes",
          "name": "destinationAsset",
          "type": "bytes"
        },
        {
          "internalType": "address",
          "name": "assetContract",
          "type": "address"
        }
      ],
      "name": "registerPool",
      "outputs": [],
      "stateMutability": "nonpayable",
      "type": "function"
    },
    {
      "inputs": [
        {
          "internalType": "bytes32",
          "name": "",
          "type": "bytes32"
        },
        {
          "internalType": "bytes",
          "name": "",
          "type": "bytes"
        }
      ],
      "name": "registry",
      "outputs": [
        {
          "internalType": "bytes",
          "name": "",
          "type": "bytes"
        }
      ],
      "stateMutability": "view",
      "type": "function"
    },
    {
      "inputs": [
        {
          "internalType": "bytes32",
          "name": "chain",
          "type": "bytes32"
        },
        {
          "internalType": "bytes",
          "name": "asset",
          "type": "bytes"
        }
      ],
      "name": "removeAssetFromPool",
      "outputs": [],
      "stateMutability": "nonpayable",
      "type": "function"
    },
    {
      "inputs": [
        {
          "internalType": "bytes",
          "name": "asset",
          "type": "bytes"
        }
      ],
      "name": "removeRegisteredAsset",
      "outputs": [],
      "stateMutability": "nonpayable",
      "type": "function"
    },
    {
      "inputs": [
        {
          "internalType": "address",
          "name": "sender",
          "type": "address"
        }
      ],
      "name": "removeSenderFromRegistry",
      "outputs": [],
      "stateMutability": "nonpayable",
      "type": "function"
    },
    {
      "inputs": [
        {
          "internalType": "bytes32",
          "name": "chain",
          "type": "bytes32"
        }
      ],
      "name": "removeWhitelistChain",
      "outputs": [],
      "stateMutability": "nonpayable",
      "type": "function"
    },
    {
      "inputs": [],
      "name": "renounceOwnership",
      "outputs": [],
      "stateMutability": "nonpayable",
      "type": "function"
    },
    {
      "inputs": [
        {
          "internalType": "bytes32",
          "name": "role",
          "type": "bytes32"
        },
        {
          "internalType": "address",
          "name": "account",
          "type": "address"
        }
      ],
      "name": "renounceRole",
      "outputs": [],
      "stateMutability": "nonpayable",
      "type": "function"
    },
    {
      "inputs": [
        {
          "internalType": "bytes32",
          "name": "role",
          "type": "bytes32"
        },
        {
          "internalType": "address",
          "name": "account",
          "type": "address"
        }
      ],
      "name": "revokeRole",
      "outputs": [],
      "stateMutability": "nonpayable",
      "type": "function"
    },
    {
      "inputs": [],
      "name": "rollupRegistryContract",
      "outputs": [
        {
          "internalType": "contract RegistryContract",
          "name": "",
          "type": "address"
        }
      ],
      "stateMutability": "view",
      "type": "function"
    },
    {
      "inputs": [
        {
          "internalType": "address",
          "name": "",
          "type": "address"
        }
      ],
      "name": "senderRegistry",
      "outputs": [
        {
          "internalType": "bool",
          "name": "",
          "type": "bool"
        }
      ],
      "stateMutability": "view",
      "type": "function"
    },
    {
      "inputs": [
        {
          "internalType": "bytes4",
          "name": "interfaceId",
          "type": "bytes4"
        }
      ],
      "name": "supportsInterface",
      "outputs": [
        {
          "internalType": "bool",
          "name": "",
          "type": "bool"
        }
      ],
      "stateMutability": "view",
      "type": "function"
    },
    {
      "inputs": [
        {
          "internalType": "bytes32",
          "name": "destinationChain",
          "type": "bytes32"
        },
        {
          "internalType": "bytes",
          "name": "destinationAddress",
          "type": "bytes"
        },
        {
          "internalType": "address",
          "name": "refundAddress",
          "type": "address"
        },
        {
          "internalType": "bytes",
          "name": "destinationAsset",
          "type": "bytes"
        },
        {
          "internalType": "uint256",
          "name": "assetAmount",
          "type": "uint256"
        }
      ],
      "name": "transferAsset",
      "outputs": [],
      "stateMutability": "payable",
      "type": "function"
    },
    {
      "inputs": [
        {
          "internalType": "address",
          "name": "newOwner",
          "type": "address"
        }
      ],
      "name": "transferOwnership",
      "outputs": [],
      "stateMutability": "nonpayable",
      "type": "function"
    },
    {
      "inputs": [
        {
          "internalType": "bytes32",
          "name": "destinationChain",
          "type": "bytes32"
        },
        {
          "internalType": "bytes",
          "name": "destinationContract",
          "type": "bytes"
        },
        {
          "internalType": "address",
          "name": "refundAddress",
          "type": "address"
        },
        {
          "internalType": "bytes",
          "name": "payload",
          "type": "bytes"
        }
      ],
      "name": "transferPayload",
      "outputs": [],
      "stateMutability": "payable",
      "type": "function"
    },
    {
      "inputs": [
        {
          "internalType": "address payable",
          "name": "newVault",
          "type": "address"
        }
      ],
      "name": "updateVault",
      "outputs": [],
      "stateMutability": "nonpayable",
      "type": "function"
    },
    {
      "inputs": [
        {
          "internalType": "bytes32",
          "name": "chain",
          "type": "bytes32"
        }
      ],
      "name": "updateWhitelistChain",
      "outputs": [],
      "stateMutability": "nonpayable",
      "type": "function"
    },
    {
      "inputs": [],
      "name": "vault",
      "outputs": [
        {
          "internalType": "address payable",
          "name": "",
          "type": "address"
        }
      ],
      "stateMutability": "view",
      "type": "function"
    },
    {
      "inputs": [],
      "name": "votingContract",
      "outputs": [
        {
          "internalType": "address",
          "name": "",
          "type": "address"
        }
      ],
      "stateMutability": "view",
      "type": "function"
    },
    {
      "inputs": [
        {
          "internalType": "bytes32",
          "name": "",
          "type": "bytes32"
        }
      ],
      "name": "whitelistChains",
      "outputs": [
        {
          "internalType": "bool",
          "name": "",
          "type": "bool"
        }
      ],
      "stateMutability": "view",
      "type": "function"
    },
    {
      "inputs": [],
      "name": "withdrawId",
      "outputs": [
        {
          "internalType": "uint256",
          "name": "",
          "type": "uint256"
        }
      ],
      "stateMutability": "view",
      "type": "function"
    }
  ],
  "bytecode": "0x60808060405234610075576000805462010000600160b01b0319811633601081811b62010000600160b01b03169290921784559291901c6001600160a01b0316907f8be0079c531659141344cd1fd0a4f28419497f9722a3daafe3b4186f6b6457e09080a36000600255612b37908161007b8239f35b600080fdfe608060408181526004918236101561001657600080fd5b600092833560e01c91826301ffc9a714611f27575081630eebc36f14611eb85781631382fa7c14611e90578163248a9ca314611e665781632afd669e14611e245781632dcd251c14611dfb5781632f2ff15d14611d5d57816336568abe14611ccb57816336d43c2414611cac5781633e787b6614611c84578163429c3c9414611a2a578163485cc955146116f357816350d34128146112e3578163715018a61461128157816371a3045a14610f9f57816375b238fc14610f645781637e495d6b14610f0257816389de777214610ec45781638bde118314610e975781638da5cb5b14610e6b5781638f32d59b14610e4057816391d1485414610df957816395d61ba014610d3f578163a02eff0614610cf3578163a217fddf14610cd8578163aa11c69414610b60578163c1fc006a14610b37578163c5ce76fb14610aff578163c73c4a8914610a1f578163ccd75a5f146109e4578163d4a8590b1461096b578163d547741f1461093e578163d56fd7f7146108a0578163dcc817d014610840578163e134716614610607578163e7563f3f14610524578163ebc1b8ff1461023c57508063f2fde38b146101fd5763fbfa77cf146101d257600080fd5b346101f957816003193601126101f95760095490516001600160a01b039091168152602090f35b5080fd5b82346102395760203660031901126102395761023661021a6121e4565b61023160018060a01b03845460101c163314612286565b6122d1565b80f35b80fd5b91905034610520576060366003190112610520578135602435916001600160401b039283811161051c576102739036908601612002565b906044358481116105185761028b9036908701612002565b948551156104c157838752602090600382526102ac60ff848a20541661232f565b8251956102e98388013360601b8152601489526102c889611f7a565b8a543360109190911c6001600160a01b031614908115610492575b5061238e565b858952600583526102fc848a20896120a3565b91855191821161047f575061031182546120c9565b601f811161043c575b5082601f82116001146103d957908060059493928b916103ce575b508160011b916000199060031b1c19161790555b8488525261036261035c828820876120a3565b546120c9565b61039d5793610397917f7b5106d9d86a2568a48f944eb5c4b0d635916c6bcfdfbaadce4fcba1d326e47d9551948594856123f2565b0390a180f35b93610397917fd6cb326c4ce64fbe3f3341cb292e8aa72f14166d5a2fdf01a62d52d7bf81df809551948594856123f2565b905086015138610335565b828a52838a2090601f1983168b5b818110610425575091839160059695946001941061040c575b5050811b019055610349565b88015160001960f88460031b161c191690553880610400565b91928660018192868c0151815501940192016103e7565b828a52838a20601f830160051c810191858410610475575b601f0160051c01905b81811061046a575061031a565b8a815560010161045d565b9091508190610454565b634e487b7160e01b8a5260419052602489fd5b9050878b52600585526104af6104aa878d208c6120a3565b612103565b858151910120908951902014386102e3565b6020608492519162461bcd60e51b8352820152602c60248201527f4f7574626f756e64537461746553656e6465723a20616464726573732063616e60448201526b6e6f7420626520656d70747960a01b6064820152fd5b8680fd5b8580fd5b8280fd5b8383346101f95760203660031901126101f9576001600160a01b03833581811694908590036106035761055e82855460101c163314612286565b84156105ad57507f483bdedaaf23706a9800ac1af0d852b34927780d79f9d6ba60a80c7cad75ea39929360095491816001600160601b0360a01b8416176009558351921682526020820152a180f35b608490602084519162461bcd60e51b8352820152602a60248201527f4f7574626f756e64537461746553656e6465723a20496e76616c6964207661756044820152696c74206164647265737360b01b6064820152fd5b8380fd5b905060a0366003190112610520578035916001600160401b0360243581811161051c576106379036908501612002565b916106406121fa565b91606435908111610518576106589036908601612002565b903415926106668415612606565b8688526020936003855261067f60ff848b20541661232f565b8551156107d7576001600160a01b039182169161069d831515612666565b6106c760ff85518881816106b78b83815193849201612080565b81018d815203019020541661242e565b888a52600686526106e7816106de868d20886120a3565b541633146124c4565b338a52600c86526106fd60ff858c2054166125a4565b61070c6002600e5414156126ca565b6002600e55888a5260088652838a205497600189018099116107c4575092610791959261077e8b8080807f8fb92358aecf2f81e6368532cd767a714d265087bef7756138e4a298a2cc85429c9a978f9a8f6107a79c845260088c52898420556009541682916107ba575b3491f1612716565b815196879660a0885260a08801906121a9565b93860152349085015283820360608501526121a9565b60843560808301520390a36001600e5580f35b6108fc9150610776565b634e487b7160e01b8b526011905260248afd5b825162461bcd60e51b8152808801869052603760248201527f4f7574626f756e64537461746553656e6465723a2064657374696e6174696f6e60448201527f416464726573732063616e6e6f7420626520656d7074790000000000000000006064820152608490fd5b5050346101f95760203660031901126101f95761085b6121e4565b60018060a01b039061087482855460101c163314612286565b16808352600c60205261088c60ff83852054166125a4565b8252600c6020528120805460ff1916905580f35b91905034610520576020366003190112610520578135906001600160401b0382116106035761092a926108d860209336908301612002565b6108ef60018060a01b03875460101c163314612286565b82519261091b60ff83519587818187019861090b81838c612080565b810188815203019020541661242e565b51948593849251928391612080565b820190815203019020805460ff1916905580f35b91905034610520573660031901126101f9576102369061095c6121ce565b90610965612788565b35612210565b905034610520576020366003190112610520577fd4c243710142a458dd440f39b96f24ef272c23a79c5308e71afadb80dedaaadc9160209135906109bc60018060a01b03865460101c163314612286565b6109c7821515612542565b81855260038352808520805460ff1916600117905551908152a180f35b5050346101f957816003193601126101f957602090517ffa9eef122ab53fc7d2c61d79f83c2c9ae0734c167cf26fa6774ebb300205a9b78152f35b9050346105205760203660031901126105205780356001600160401b03811161060357610a4f9036908301612002565b91610a6760018060a01b03855460101c163314612286565b825115610a9e579160209182610a87945194838680955193849201612080565b820190815203019020805460ff1916600117905580f35b906020608492519162461bcd60e51b8352820152603560248201527f4f7574626f756e64537461746553656e6465723a2064657374696e6174696f6e60448201527441737365742063616e6e6f7420626520656d70747960581b6064820152fd5b5050346101f957602091610b2e610b153661204e565b90835260068552918390206001600160a01b03926120a3565b54169051908152f35b5050346101f957816003193601126101f957600b5490516001600160a01b039091168152602090f35b919050346105205760603660031901126105205781356024356001600160401b038111610cd457610b949036908501612002565b9182610bcc60ff610ba36121fa565b968451938480928251610bbc816020998a809701612080565b820190815203019020541661242e565b82865260038152610be260ff838820541661232f565b60018060a01b039081875460101c1633148015610cb1575b610c039061238e565b8387526006815281610c17848920876120a3565b5416610c7757917f2de74f17c8053e4c25a745959c2958c4e20fc50aa7535f69c4559f1ea47922be9591600661039794868a5252610c57828920876120a3565b9083166001600160601b0360a01b8254161790555193849333908561248f565b917fb8b4b6d7798d4bd0eff67a8d826c7a801152eebcd1e6cbfe965f66fbb09f67359591600661039794868a5252610c57828920876120a3565b5083875260068152610c033383610cca868b20896120a3565b5416149050610bfa565b8480fd5b5050346101f957816003193601126101f95751908152602090f35b5050346101f95760203660031901126101f957610d0e6121e4565b60018060a01b0390610d2782855460101c163314612286565b168252600c6020528120805460ff1916600117905580f35b90503461052057602036600319011261052057803590610d6c60018060a01b03855460101c163314612286565b610d77821515612542565b818452600360205260ff838520541615610da05750825260036020528120805460ff1916905580f35b608490602084519162461bcd60e51b8352820152602d60248201527f4f7574626f756e64537461746553656e6465723a20436861696e206973206e6f60448201526c1d081dda1a5d195b1a5cdd1959609a1b6064820152fd5b9050346105205781600319360112610520578160209360ff92610e1a6121ce565b90358252600186528282206001600160a01b039091168252855220549151911615158152f35b5050346101f957816003193601126101f95760209160018060a01b03905460101c1633149051908152f35b5050346101f957816003193601126101f9579054905160109190911c6001600160a01b03168152602090f35b905034610520576020366003190112610520578160209360ff923581526003855220541690519015158152f35b5050346101f95760203660031901126101f95760209160ff9082906001600160a01b03610eef6121e4565b168152600c855220541690519015158152f35b828434610239576020366003190112610239578235906001600160401b0382116102395750610f5060208094610f3d60ff9436908301612002565b9082865194838680955193849201612080565b820190815203019020541690519015158152f35b5050346101f957816003193601126101f957602090517fa49807205ce4d355092ef5a8a18f56e8913cf4a201fbe287825b095693c217758152f35b90506080366003190112610520578281359260249081356001600160401b0390818111610cd457610fd39036908701612002565b92610fdc6121fa565b6064359083821161051857366023830112156105185781880135938411610518573683858401011161051857889034156110168115612606565b82895261105a6104aa8860209b60038d5261103660ff838320541661232f565b6001600160a01b039586169661104d881515612666565b815260058d52208a6120a3565b89815191012087518a8101903360601b82526014815261107981611f7a565b519020036112225785156111cb576110966002600d5414156126ca565b6002600d558a8c5260078952868c20549960018b01809b116111b9578a888e8e815260078d52205582600954169081156111615750927ff91432153ce44b4375f31eda8e77f23a7d323cca9f44b0b76d7c6a3affc0a1d59997959261110f8e8080808c9a976111279f9d9a82916107ba573491f1612716565b60095416958051998a9860a08a5260a08a01906121a9565b9689890152870152346060870152858503608087015282855201858401378181018401899052601f01601f191601030190a36001600d5580f35b885162461bcd60e51b81529081018b9052602d818801527f4f7574626f756e64537461746553656e6465723a205661756c7420616464726560448201526c1cdcc81a5cc81b9bdd081cd95d609a1b6064820152608490fd5b634e487b7160e01b8d5260119052848cfd5b865162461bcd60e51b8152808b018a9052602c818701527f4f7574626f756e64537461746553656e6465723a207061796c6f61642063616e60448201526b6e6f7420626520656d70747960a01b6064820152608490fd5b865162461bcd60e51b8152808b018a90526034818701527f4f7574626f756e64537461746553656e6465723a207265636569766572206164604482015273191c995cdcc81b9bdd081c9959da5cdd195c995960621b6064820152608490fd5b8334610239578060031936011261023957805481601082901c6001600160a01b03166112ae338214612286565b7f8be0079c531659141344cd1fd0a4f28419497f9722a3daafe3b4186f6b6457e08280a362010000600160b01b031916815580f35b905060c0366003190112610520578035906112fc6121fa565b906001600160401b036064356084358281116116ef5761131f9036908501612002565b9060a4358381116116eb5787906113399036908701612002565b93341595861561134890612606565b8a83519889875160209b81818e93848d019161136392612080565b8101868152030190205460ff166113799061242e565b85825260068a529a90206001600160a01b039a8b91829061139a90896120a3565b541633146113a7906124c4565b16916113b4831515612666565b8b8b600a5416918b8287518095819363726791c160e01b83528883015260249687915afa9283156116e057908e9392919261161d575b50505116156115ca57803597881561158a5787511561153e576002546001810180911161152c578d8080938f8294600255600954168291611522575b3491f1156114a6575050927fb24b2541d5ceb6c50c184d471304f89283e677c41c7b97c6f8dd91e059caaa0e95949261148992611497956002549b600b54169982519889528801523490870152606086015260e0608086015260e08501906121a9565b9083820360a08501526121a9565b9260c08201528033930390a480f35b835162461bcd60e51b8152918201899052604b908201527f4f7574626f756e64537461746553656e64657220696e6974696174652077697460448201527f6864726177616c3a206661696c656420746f2073656e642067617320616d6f7560648201526a1b9d081d1bc81d985d5b1d60aa1b608482015260a490fd5b6108fc9150611426565b634e487b7160e01b8e5260118452828efd5b845162461bcd60e51b81528084018b90526021818401527f526563697069656e7420616464726573732063616e6e6f7420626520656d70746044820152607960f81b6064820152608490fd5b6064838b848189519362461bcd60e51b85528401528201527f416d6f756e74206d7573742062652067726561746572207468616e207a65726f6044820152fd5b835162461bcd60e51b81529182018990526028908201527f4f7574626f756e64537461746553656e6465723a20556e617574686f72697a6560448201526706420726f6c6c75760c41b6064820152608490fd5b915091508d3d8091833e6116318183611fc6565b8101908b818303126116dc578051908382116116bf57016080818303126116dc5786519160808301838110858211176116c857885261166f82612aab565b83528c8201518481116116c35781611688918401612abf565b8d840152611697888301612aab565b8884015260608201519384116116bf578e936116b39201612abf565b606082015238806113ea565b8f80fd5b508f80fd5b5050634e487b7160e01b8f5260418552838ffd5b8e80fd5b8751903d90823e3d90fd5b8880fd5b8780fd5b90503461052057816003193601126105205761170d6121e4565b6117156121ce565b9184549060ff8260081c161591828093611a1d575b8015611a06575b156119ac5760019360ff19918486848316178a5561199b575b50611754336122d1565b7fa49807205ce4d355092ef5a8a18f56e8913cf4a201fbe287825b095693c2177595868952602096868852888a20338b52885260ff898b20541615611954575b506001600160a01b039182169283156118f4577ffa9eef122ab53fc7d2c61d79f83c2c9ae0734c167cf26fa6774ebb300205a9b790818b52878952898b20858c52895260ff8a8c205416156118ad575b50506001600160601b0360a01b9283600b541617600b551691821561184b5750600a541617600a55611814578380f35b7f7f26b83ff96e1f2b6a682f133852f6798a09c465da95921460cefb38474024989261ff0019855416855551908152a13880808380f35b865162461bcd60e51b8152908101869052603660248201527f4f7574626f756e64537461746553656e6465723a20496e76616c696420726567604482015275697374727920636f6e7472616374206164647265737360501b6064820152608490fd5b818b52878952898b20858c528952878a8c20918254161790558333917f2f8788117e7eff1d82e926ec794901d17c78024a50270940304540a733656f0d8c80a438806117e4565b885162461bcd60e51b8152808601899052603460248201527f4f7574626f756e64537461746553656e6465723a20496e76616c696420766f74604482015273696e6720636f6e7472616374206164647265737360601b6064820152608490fd5b808a52868852888a20338b528852888a208785825416179055339033907f2f8788117e7eff1d82e926ec794901d17c78024a50270940304540a733656f0d8c80a438611794565b61ffff19166101011788553861174a565b855162461bcd60e51b8152602081840152602e60248201527f496e697469616c697a61626c653a20636f6e747261637420697320616c72656160448201526d191e481a5b9a5d1a585b1a5e995960921b6064820152608490fd5b50303b1580156117315750600160ff821614611731565b50600160ff82161061172a565b91905034610520576060366003190112610520578135906fffffffffffffffffffffffffffffffff92838316809303610cd4576024803594851680950361051c577ffa9eef122ab53fc7d2c61d79f83c2c9ae0734c167cf26fa6774ebb300205a9b792838752600193602094808652828920338a52865260ff838a20541615611ada5788604435888a7f286ea7ef3f4aa6931896100f52b148f6d763935c73f4b5f54b47e7cc432b9f538480a480f35b8890611ae53361299d565b92845191611af283611fab565b60428352888301936060368637835115611c7257603085538351821015611c725790607860218501536041915b818311611c0957505050611bc9576048611bc595938593611bad93611b9e975197889376020b1b1b2b9b9a1b7b73a3937b61d1030b1b1b7bab73a1604d1b8d860152611b758d8251928391603789019101612080565b8401917001034b99036b4b9b9b4b733903937b6329607d1b603784015251809386840190612080565b01036028810186520184611fc6565b5194859462461bcd60e51b86528501528301906121a9565b0390fd5b60648688878188519362461bcd60e51b85528401528201527f537472696e67733a20686578206c656e67746820696e73756666696369656e746044820152fd5b909192600f81166010811015611c60576f181899199a1a9b1b9c1cb0b131b232b360811b901a611c398587612976565b53891c928015611c4e57600019019190611b1f565b634e487b7160e01b825260118a528882fd5b634e487b7160e01b835260328b528983fd5b634e487b7160e01b8152603289528790fd5b9050346105205760203660031901126105205760209282913581526007845220549051908152f35b5050346101f957816003193601126101f9576020906002549051908152f35b839150346101f957826003193601126101f957611ce66121ce565b90336001600160a01b03831603611d0257906102369135612210565b608490602085519162461bcd60e51b8352820152602f60248201527f416363657373436f6e74726f6c3a2063616e206f6e6c792072656e6f756e636560448201526e103937b632b9903337b91039b2b63360891b6064820152fd5b9050346105205781600319360112610520573590611d796121ce565b90611d82612788565b828452600160209081528185206001600160a01b039093168086529290528084205460ff1615611db0578380f35b82845260016020528084208285526020528320600160ff1982541617905533917f2f8788117e7eff1d82e926ec794901d17c78024a50270940304540a733656f0d8480a43880808380f35b5050346101f957816003193601126101f957600a5490516001600160a01b039091168152602090f35b5050346101f957611e4f6104aa611e629383611e3f3661204e565b92908152600560205220906120a3565b90519182916020835260208301906121a9565b0390f35b90503461052057602036600319011261052057816020936001923581528285522001549051908152f35b9050346105205760203660031901126105205760209282913581526008845220549051908152f35b5050346101f957611f1690611ecc3661204e565b9190611f0760018060a01b03611ee981885460101c163314612286565b82875260066020523390611eff858920876120a3565b5416146124c4565b845260066020528320906120a3565b80546001600160a01b031916905580f35b849134610520576020366003190112610520573563ffffffff60e01b81168091036105205760209250637965db0b60e01b8114908115611f69575b5015158152f35b6301ffc9a760e01b14905083611f62565b604081019081106001600160401b03821117611f9557604052565b634e487b7160e01b600052604160045260246000fd5b608081019081106001600160401b03821117611f9557604052565b90601f801991011681019081106001600160401b03821117611f9557604052565b6001600160401b038111611f9557601f01601f191660200190565b81601f820112156120495780359061201982611fe7565b926120276040519485611fc6565b8284526020838301011161204957816000926020809301838601378301015290565b600080fd5b9060406003198301126120495760043591602435906001600160401b0382116120495761207d91600401612002565b90565b60005b8381106120935750506000910152565b8181015183820152602001612083565b6020906120bd928260405194838680955193849201612080565b82019081520301902090565b90600182811c921680156120f9575b60208310146120e357565b634e487b7160e01b600052602260045260246000fd5b91607f16916120d8565b9060405191826000825492612117846120c9565b9081845260019485811690816000146121865750600114612143575b505061214192500383611fc6565b565b9093915060005260209081600020936000915b81831061216e57505061214193508201013880612133565b85548884018501529485019487945091830191612156565b91505061214194506020925060ff191682840152151560051b8201013880612133565b906020916121c281518092818552858086019101612080565b601f01601f1916010190565b602435906001600160a01b038216820361204957565b600435906001600160a01b038216820361204957565b604435906001600160a01b038216820361204957565b906000918083526001602052604083209160018060a01b03169182845260205260ff60408420541661224157505050565b8083526001602052604083208284526020526040832060ff1981541690557ff6391f5c32d9c69d2a47ea670b442974b53935d1edc7fd64eb21e047a839171b339380a4565b1561228d57565b606460405162461bcd60e51b815260206004820152602060248201527f4f776e61626c653a2063616c6c6572206973206e6f7420746865206f776e65726044820152fd5b6000805462010000600160b01b03198116601084811b62010000600160b01b03169190911783556001600160a01b039384169391901c16907f8be0079c531659141344cd1fd0a4f28419497f9722a3daafe3b4186f6b6457e09080a3565b1561233657565b60405162461bcd60e51b815260206004820152602a60248201527f4f7574626f756e64537461746553656e6465723a20436861696e206e6f7420776044820152691a1a5d195b1a5cdd195960b21b6064820152608490fd5b1561239557565b60405162461bcd60e51b815260206004820152602f60248201527f4f7574626f756e64537461746553656e6465723a204e6f7420617574686f726960448201526e3d32b2103a37903932b3b4b9ba32b960891b6064820152608490fd5b9261241261207d95936124209386526080602087015260808601906121a9565b9084820360408601526121a9565b9160608184039101526121a9565b1561243557565b60405162461bcd60e51b815260206004820152602c60248201527f4f7574626f756e64537461746553656e6465723a204173736574206973206e6f60448201526b1d081c9959da5cdd195c995960a21b6064820152608490fd5b926124bd9060609392969596855260018060a01b0380931660208601526080604086015260808501906121a9565b9416910152565b156124cb57565b60405162461bcd60e51b815260206004820152604360248201527f4f7574626f756e64537461746553656e6465723a205472616e73616374696f6e60448201527f206e6f7420646f6e652066726f6d2076616c696420617373657420636f6e74726064820152621858dd60ea1b608482015260a490fd5b1561254957565b60405162461bcd60e51b815260206004820152602d60248201527f4f7574626f756e64537461746553656e6465723a20496e76616c69642064657360448201526c3a34b730ba34b7b721b430b4b760991b6064820152608490fd5b156125ab57565b60405162461bcd60e51b815260206004820152602d60248201527f4f7574626f756e64537461746553656e6465723a2053656e646572206973206e60448201526c1bdd081c9959da5cdd195c9959609a1b6064820152608490fd5b1561260d57565b60405162461bcd60e51b815260206004820152602b60248201527f4f7574626f756e64537461746553656e6465723a2067617320616d6f756e742060448201526a063616e6e6f7420626520360ac1b6064820152608490fd5b1561266d57565b60405162461bcd60e51b815260206004820152602f60248201527f4f7574626f756e64537461746553656e6465723a20726566756e64416464726560448201526e1cdcc81a5cc81b9bdd081d985b1a59608a1b6064820152608490fd5b156126d157565b60405162461bcd60e51b815260206004820152601f60248201527f5265656e7472616e637947756172643a207265656e7472616e742063616c6c006044820152606490fd5b1561271d57565b60405162461bcd60e51b815260206004820152603760248201527f4f7574626f756e64537461746553656e6465723a206661696c656420746f207360448201527f656e642067617320616d6f756e7420746f207661756c740000000000000000006064820152608490fd5b3360009081527f50efbde2d46c37e9785f1791697f77e94bb7b701e19f1930a668820722d37694602090815260408083205490927fa49807205ce4d355092ef5a8a18f56e8913cf4a201fbe287825b095693c217759160019060ff16156127f0575050505050565b6127f93361299d565b9285519161280683611fab565b60428352858301936060368637835115612962576030855383518210156129625790607860218501536041915b8183116128f4575050506128b2576048611bc593869361289693612887985198899376020b1b1b2b9b9a1b7b73a3937b61d1030b1b1b7bab73a1604d1b8a860152611b75815180928c603789019101612080565b01036028810187520185611fc6565b5192839262461bcd60e51b8452600484015260248301906121a9565b60648486519062461bcd60e51b825280600483015260248201527f537472696e67733a20686578206c656e67746820696e73756666696369656e746044820152fd5b909192600f8116601081101561294e576f181899199a1a9b1b9c1cb0b131b232b360811b901a6129248587612976565b5360041c92801561293a57600019019190612833565b634e487b7160e01b82526011600452602482fd5b634e487b7160e01b83526032600452602483fd5b634e487b7160e01b81526032600452602490fd5b908151811015612987570160200190565b634e487b7160e01b600052603260045260246000fd5b60405190606082018281106001600160401b03821117611f9557604052602a82526020820160403682378251156129875760309053815160019081101561298757607860218401536029905b808211612a3d5750506129f95790565b606460405162461bcd60e51b815260206004820152602060248201527f537472696e67733a20686578206c656e67746820696e73756666696369656e746044820152fd5b9091600f81166010811015612a96576f181899199a1a9b1b9c1cb0b131b232b360811b901a612a6c8486612976565b5360041c918015612a815760001901906129e9565b60246000634e487b7160e01b81526011600452fd5b60246000634e487b7160e01b81526032600452fd5b51906001600160a01b038216820361204957565b81601f82011215612049578051612ad581611fe7565b92612ae36040519485611fc6565b818452602082840101116120495761207d916020808501910161208056fea2646970667358221220de9c89f8a3aa563ec6f916b17d55a21078c84fcd4fb7b96c567dc85004e42ce164736f6c63430008130033",
  "linkReferences": {},
  "deployedLinkReferences": {}
}