{
  "_format": "hh-sol-artifact-1",
  "contractName": "TestOutboundStateSender",
  "sourceName": "contracts/test/TestOutboundStateSender.sol",
  "abi": [
    {
      "anonymous": false,
      "inputs": [
        {
          "indexed": false,
          "internalType": "uint8",
          "name": "version",
          "type": "uint8"
        }
      ],
      "name": "Initialized",
      "type": "event"
    },
    {
      "anonymous": false,
      "inputs": [
        {
          "indexed": true,
          "internalType": "address",
          "name": "initiator",
          "type": "address"
        },
        {
          "indexed": true,
          "internalType": "uint256",
          "name": "rollupId",
          "type": "uint256"
        },
        {
          "indexed": true,
          "internalType": "uint256",
          "name": "withdrawId",
          "type": "uint256"
        },
        {
          "indexed": false,
          "internalType": "uint256",
          "name": "amount",
          "type": "uint256"
        },
        {
          "indexed": false,
          "internalType": "address",
          "name": "refundAddress",
          "type": "address"
        },
        {
          "indexed": false,
          "internalType": "uint256",
          "name": "gasFee",
          "type": "uint256"
        },
        {
          "indexed": false,
          "internalType": "bytes32",
          "name": "destinationChainId",
          "type": "bytes32"
        },
        {
          "indexed": false,
          "internalType": "bytes",
          "name": "destinationAssetId",
          "type": "bytes"
        },
        {
          "indexed": false,
          "internalType": "bytes",
          "name": "recipientAddress",
          "type": "bytes"
        },
        {
          "indexed": false,
          "internalType": "address",
          "name": "votingContract",
          "type": "address"
        }
      ],
      "name": "InitiateWithdrawal",
      "type": "event"
    },
    {
      "anonymous": false,
      "inputs": [
        {
          "indexed": false,
          "internalType": "bytes32",
          "name": "chain",
          "type": "bytes32"
        },
        {
          "indexed": false,
          "internalType": "address",
          "name": "caller",
          "type": "address"
        },
        {
          "indexed": false,
          "internalType": "bytes",
          "name": "pool",
          "type": "bytes"
        },
        {
          "indexed": false,
          "internalType": "address",
          "name": "poolContract",
          "type": "address"
        }
      ],
      "name": "NewPoolRegistration",
      "type": "event"
    },
    {
      "anonymous": false,
      "inputs": [
        {
          "indexed": false,
          "internalType": "bytes32",
          "name": "chain",
          "type": "bytes32"
        },
        {
          "indexed": false,
          "internalType": "bytes",
          "name": "caller",
          "type": "bytes"
        },
        {
          "indexed": false,
          "internalType": "bytes",
          "name": "sender",
          "type": "bytes"
        },
        {
          "indexed": false,
          "internalType": "bytes",
          "name": "receiver",
          "type": "bytes"
        }
      ],
      "name": "NewRegistration",
      "type": "event"
    },
    {
      "anonymous": false,
      "inputs": [
        {
          "indexed": true,
          "internalType": "address",
          "name": "previousOwner",
          "type": "address"
        },
        {
          "indexed": true,
          "internalType": "address",
          "name": "newOwner",
          "type": "address"
        }
      ],
      "name": "OwnershipTransferred",
      "type": "event"
    },
    {
      "anonymous": false,
      "inputs": [
        {
          "indexed": false,
          "internalType": "bytes32",
          "name": "chain",
          "type": "bytes32"
        },
        {
          "indexed": false,
          "internalType": "address",
          "name": "caller",
          "type": "address"
        },
        {
          "indexed": false,
          "internalType": "bytes",
          "name": "pool",
          "type": "bytes"
        },
        {
          "indexed": false,
          "internalType": "address",
          "name": "poolContract",
          "type": "address"
        }
      ],
      "name": "PoolRegistrationUpdated",
      "type": "event"
    },
    {
      "anonymous": false,
      "inputs": [
        {
          "indexed": false,
          "internalType": "bytes32",
          "name": "chain",
          "type": "bytes32"
        },
        {
          "indexed": false,
          "internalType": "bytes",
          "name": "caller",
          "type": "bytes"
        },
        {
          "indexed": false,
          "internalType": "bytes",
          "name": "sender",
          "type": "bytes"
        },
        {
          "indexed": false,
          "internalType": "bytes",
          "name": "receiver",
          "type": "bytes"
        }
      ],
      "name": "RegistrationUpdated",
      "type": "event"
    },
    {
      "anonymous": false,
      "inputs": [
        {
          "indexed": true,
          "internalType": "uint256",
          "name": "assetDepositId",
          "type": "uint256"
        },
        {
          "indexed": true,
          "internalType": "bytes32",
          "name": "destinationChain",
          "type": "bytes32"
        },
        {
          "indexed": false,
          "internalType": "bytes",
          "name": "destinationAddress",
          "type": "bytes"
        },
        {
          "indexed": false,
          "internalType": "address",
          "name": "refundAddress",
          "type": "address"
        },
        {
          "indexed": false,
          "internalType": "uint256",
          "name": "gas",
          "type": "uint256"
        },
        {
          "indexed": false,
          "internalType": "bytes",
          "name": "destinationAsset",
          "type": "bytes"
        },
        {
          "indexed": false,
          "internalType": "uint256",
          "name": "assetAmount",
          "type": "uint256"
        }
      ],
      "name": "TransferAsset",
      "type": "event"
    },
    {
      "anonymous": false,
      "inputs": [
        {
          "indexed": true,
          "internalType": "uint256",
          "name": "depositId",
          "type": "uint256"
        },
        {
          "indexed": true,
          "internalType": "bytes32",
          "name": "destinationChain",
          "type": "bytes32"
        },
        {
          "indexed": false,
          "internalType": "bytes",
          "name": "destinationContract",
          "type": "bytes"
        },
        {
          "indexed": false,
          "internalType": "address",
          "name": "vault",
          "type": "address"
        },
        {
          "indexed": false,
          "internalType": "address",
          "name": "refundAddress",
          "type": "address"
        },
        {
          "indexed": false,
          "internalType": "uint256",
          "name": "gas",
          "type": "uint256"
        },
        {
          "indexed": false,
          "internalType": "bytes",
          "name": "payload",
          "type": "bytes"
        }
      ],
      "name": "TransferPayload",
      "type": "event"
    },
    {
      "anonymous": false,
      "inputs": [
        {
          "indexed": true,
          "internalType": "uint128",
          "name": "rollupId",
          "type": "uint128"
        },
        {
          "indexed": true,
          "internalType": "uint128",
          "name": "withdrawEventId",
          "type": "uint128"
        },
        {
          "indexed": true,
          "internalType": "bytes32",
          "name": "txHash",
          "type": "bytes32"
        }
      ],
      "name": "VotingCompleted",
      "type": "event"
    },
    {
      "inputs": [
        {
          "internalType": "bytes",
          "name": "",
          "type": "bytes"
        }
      ],
      "name": "assetRegistry",
      "outputs": [
        {
          "internalType": "bool",
          "name": "",
          "type": "bool"
        }
      ],
      "stateMutability": "view",
      "type": "function"
    },
    {
      "inputs": [
        {
          "internalType": "uint256",
          "name": "",
          "type": "uint256"
        }
      ],
      "name": "authorizedRollups",
      "outputs": [
        {
          "internalType": "bool",
          "name": "",
          "type": "bool"
        }
      ],
      "stateMutability": "view",
      "type": "function"
    },
    {
      "inputs": [
        {
          "internalType": "uint128",
          "name": "rollupId",
          "type": "uint128"
        },
        {
          "internalType": "uint128",
          "name": "withdrawEventId",
          "type": "uint128"
        },
        {
          "internalType": "bytes32",
          "name": "txHash",
          "type": "bytes32"
        }
      ],
      "name": "handleVotingCompleted",
      "outputs": [],
      "stateMutability": "nonpayable",
      "type": "function"
    },
    {
      "inputs": [],
      "name": "initialize",
      "outputs": [],
      "stateMutability": "nonpayable",
      "type": "function"
    },
    {
      "inputs": [
        {
          "internalType": "uint256",
          "name": "rollupId",
          "type": "uint256"
        },
        {
          "internalType": "uint256",
          "name": "amount",
          "type": "uint256"
        },
        {
          "internalType": "address",
          "name": "refundAddress",
          "type": "address"
        },
        {
          "internalType": "bytes32",
          "name": "destinationChainId",
          "type": "bytes32"
        },
        {
          "internalType": "bytes",
          "name": "destinationAssetId",
          "type": "bytes"
        },
        {
          "internalType": "bytes",
          "name": "recipientAddress",
          "type": "bytes"
        }
      ],
      "name": "initiateWithdrawal",
      "outputs": [],
      "stateMutability": "payable",
      "type": "function"
    },
    {
      "inputs": [],
      "name": "isOwner",
      "outputs": [
        {
          "internalType": "bool",
          "name": "",
          "type": "bool"
        }
      ],
      "stateMutability": "view",
      "type": "function"
    },
    {
      "inputs": [
        {
          "internalType": "bytes32",
          "name": "",
          "type": "bytes32"
        }
      ],
      "name": "outboundAssetCounter",
      "outputs": [
        {
          "internalType": "uint256",
          "name": "",
          "type": "uint256"
        }
      ],
      "stateMutability": "view",
      "type": "function"
    },
    {
      "inputs": [
        {
          "internalType": "bytes32",
          "name": "",
          "type": "bytes32"
        }
      ],
      "name": "outboundEventCounter",
      "outputs": [
        {
          "internalType": "uint256",
          "name": "",
          "type": "uint256"
        }
      ],
      "stateMutability": "view",
      "type": "function"
    },
    {
      "inputs": [],
      "name": "owner",
      "outputs": [
        {
          "internalType": "address",
          "name": "",
          "type": "address"
        }
      ],
      "stateMutability": "view",
      "type": "function"
    },
    {
      "inputs": [
        {
          "internalType": "bytes32",
          "name": "",
          "type": "bytes32"
        },
        {
          "internalType": "bytes",
          "name": "",
          "type": "bytes"
        }
      ],
      "name": "poolRegistry",
      "outputs": [
        {
          "internalType": "address",
          "name": "",
          "type": "address"
        }
      ],
      "stateMutability": "view",
      "type": "function"
    },
    {
      "inputs": [
        {
          "internalType": "bytes32",
          "name": "chain",
          "type": "bytes32"
        },
        {
          "internalType": "bytes",
          "name": "senderAddress",
          "type": "bytes"
        },
        {
          "internalType": "bytes",
          "name": "receiverAddress",
          "type": "bytes"
        }
      ],
      "name": "register",
      "outputs": [],
      "stateMutability": "nonpayable",
      "type": "function"
    },
    {
      "inputs": [
        {
          "internalType": "bytes",
          "name": "asset",
          "type": "bytes"
        }
      ],
      "name": "registerAsset",
      "outputs": [],
      "stateMutability": "nonpayable",
      "type": "function"
    },
    {
      "inputs": [
        {
          "internalType": "bytes32",
          "name": "chain",
          "type": "bytes32"
        },
        {
          "internalType": "bytes",
          "name": "destinationAsset",
          "type": "bytes"
        },
        {
          "internalType": "address",
          "name": "assetContract",
          "type": "address"
        }
      ],
      "name": "registerPool",
      "outputs": [],
      "stateMutability": "nonpayable",
      "type": "function"
    },
    {
      "inputs": [
        {
          "internalType": "uint256",
          "name": "rollupId",
          "type": "uint256"
        }
      ],
      "name": "registerRollup",
      "outputs": [],
      "stateMutability": "nonpayable",
      "type": "function"
    },
    {
      "inputs": [
        {
          "internalType": "bytes32",
          "name": "",
          "type": "bytes32"
        },
        {
          "internalType": "bytes",
          "name": "",
          "type": "bytes"
        }
      ],
      "name": "registry",
      "outputs": [
        {
          "internalType": "bytes",
          "name": "",
          "type": "bytes"
        }
      ],
      "stateMutability": "view",
      "type": "function"
    },
    {
      "inputs": [
        {
          "internalType": "bytes",
          "name": "asset",
          "type": "bytes"
        }
      ],
      "name": "removeRegisteredAsset",
      "outputs": [],
      "stateMutability": "nonpayable",
      "type": "function"
    },
    {
      "inputs": [
        {
          "internalType": "bytes32",
          "name": "chain",
          "type": "bytes32"
        }
      ],
      "name": "removeWhitelistChain",
      "outputs": [],
      "stateMutability": "nonpayable",
      "type": "function"
    },
    {
      "inputs": [],
      "name": "renounceOwnership",
      "outputs": [],
      "stateMutability": "nonpayable",
      "type": "function"
    },
    {
      "inputs": [
        {
          "internalType": "bytes32",
          "name": "destinationChain",
          "type": "bytes32"
        },
        {
          "internalType": "bytes",
          "name": "destinationAddress",
          "type": "bytes"
        },
        {
          "internalType": "address",
          "name": "refundAddress",
          "type": "address"
        },
        {
          "internalType": "bytes",
          "name": "destinationAsset",
          "type": "bytes"
        },
        {
          "internalType": "uint256",
          "name": "assetAmount",
          "type": "uint256"
        }
      ],
      "name": "transferAsset",
      "outputs": [],
      "stateMutability": "payable",
      "type": "function"
    },
    {
      "inputs": [
        {
          "internalType": "address",
          "name": "newOwner",
          "type": "address"
        }
      ],
      "name": "transferOwnership",
      "outputs": [],
      "stateMutability": "nonpayable",
      "type": "function"
    },
    {
      "inputs": [
        {
          "internalType": "bytes32",
          "name": "destinationChain",
          "type": "bytes32"
        },
        {
          "internalType": "bytes",
          "name": "destinationContract",
          "type": "bytes"
        },
        {
          "internalType": "address",
          "name": "refundAddress",
          "type": "address"
        },
        {
          "internalType": "bytes",
          "name": "payload",
          "type": "bytes"
        }
      ],
      "name": "transferPayload",
      "outputs": [],
      "stateMutability": "payable",
      "type": "function"
    },
    {
      "inputs": [
        {
          "internalType": "uint256",
          "name": "rollupId",
          "type": "uint256"
        }
      ],
      "name": "unregisterRollup",
      "outputs": [],
      "stateMutability": "nonpayable",
      "type": "function"
    },
    {
      "inputs": [
        {
          "internalType": "address payable",
          "name": "newVault",
          "type": "address"
        }
      ],
      "name": "updateVault",
      "outputs": [],
      "stateMutability": "nonpayable",
      "type": "function"
    },
    {
      "inputs": [
        {
          "internalType": "bytes32",
          "name": "chain",
          "type": "bytes32"
        }
      ],
      "name": "updateWhitelistChain",
      "outputs": [],
      "stateMutability": "nonpayable",
      "type": "function"
    },
    {
      "inputs": [],
      "name": "vault",
      "outputs": [
        {
          "internalType": "address payable",
          "name": "",
          "type": "address"
        }
      ],
      "stateMutability": "view",
      "type": "function"
    },
    {
      "inputs": [
        {
          "internalType": "bytes32",
          "name": "",
          "type": "bytes32"
        }
      ],
      "name": "whitelistChains",
      "outputs": [
        {
          "internalType": "bool",
          "name": "",
          "type": "bool"
        }
      ],
      "stateMutability": "view",
      "type": "function"
    },
    {
      "inputs": [],
      "name": "withdrawId",
      "outputs": [
        {
          "internalType": "uint256",
          "name": "",
          "type": "uint256"
        }
      ],
      "stateMutability": "view",
      "type": "function"
    }
  ],
  "bytecode": "0x60808060405234610075576000805462010000600160b01b0319811633601081811b62010000600160b01b03169290921784559291901c6001600160a01b0316907f8be0079c531659141344cd1fd0a4f28419497f9722a3daafe3b4186f6b6457e09080a3600060015561177b908161007b8239f35b600080fdfe608060408181526004918236101561001657600080fd5b600092833560e01c9182631382fa7c146112ae575081632afd669e146111cc57816336d43c24146111ad5781633e787b6614611185578163429c3c941461114957816350d3412814610f5f578163715018a614610efd57816371a3045a14610cea5781637e495d6b14610c855781638129fc1c14610b6c57816384b7204714610b445781638bde118314610b175781638da5cb5b14610aeb5781638f32d59b14610ac057816395d61ba014610a1d578163a3f986bd146109f2578163aa11c6941461084b578163b90885f61461081e578163c5ce76fb146107e6578163c73c4a8914610704578163d4a8590b146106ce578163d56fd7f71461063c578163e134716614610478578163e7563f3f14610437578163ebc1b8ff146101bf578163f2fde38b14610179575063fbfa77cf1461014e57600080fd5b34610175578160031936011261017557600a5490516001600160a01b039091168152602090f35b5080fd5b839034610175576020366003190112610175576001600160a01b03903581811681036101bb576101b36101b892845460101c163314611458565b6114a3565b80f35b8280fd5b919050346101bb5760603660031901126101bb5781356024359167ffffffffffffffff92838111610433576101f7903690860161130b565b9060443584811161042f5761020f903690870161130b565b948551156103d8578151946020903360601b8288015260148752838701878110828211176103c557845285895282825261024b848a20896113bd565b9085519081116103c55761025f82546113e3565b601f8111610382575b508083601f8211600114610321578b91610316575b508160011b916000199060031b1c19161790555b848852526102aa6102a4828820876113bd565b546113e3565b6102e557936102df917f7b5106d9d86a2568a48f944eb5c4b0d635916c6bcfdfbaadce4fcba1d326e47d955194859485611501565b0390a180f35b936102df917fd6cb326c4ce64fbe3f3341cb292e8aa72f14166d5a2fdf01a62d52d7bf81df80955194859485611501565b90508601513861027d565b838c52848c209150601f1983168c5b8682821061036c5750509083600194939210610353575b5050811b019055610291565b88015160001960f88460031b161c191690553880610347565b600184958293958d015181550194019201610330565b828b52838b20601f830160051c8101918584106103bb575b601f0160051c01905b8181106103b05750610268565b8b81556001016103a3565b909150819061039a565b634e487b7160e01b8a526041845260248afd5b6020608492519162461bcd60e51b8352820152602c60248201527f4f7574626f756e64537461746553656e6465723a20616464726573732063616e60448201526b6e6f7420626520656d70747960a01b6064820152fd5b8680fd5b8580fd5b83903461017557602036600319011261017557356001600160a01b03811690819003610175576bffffffffffffffffffffffff60a01b600a541617600a5580f35b905060a03660031901126101bb5780359167ffffffffffffffff90602435828111610433576104aa903690850161130b565b916104b3611442565b9060643590811161042f576104cb903690860161130b565b906104d7341515611635565b8351156105d3576001600160a01b0316916104f3831515611695565b61051d60ff8251602081865161050c8183858b0161139a565b81016003815203019020541661153d565b61052c6002600b5414156116f9565b6002600b5585875260076020528087205494600186018096116105c05750610595927f8fb92358aecf2f81e6368532cd767a714d265087bef7756138e4a298a2cc854294926105ad92888a52600760205287818b2055805195869560a0875260a087019061141d565b9260208601523490850152838203606085015261141d565b60843560808301520390a36001600b5580f35b634e487b7160e01b885260119052602487fd5b825162461bcd60e51b8152602081870152603760248201527f4f7574626f756e64537461746553656e6465723a2064657374696e6174696f6e60448201527f416464726573732063616e6e6f7420626520656d7074790000000000000000006064820152608490fd5b9050346101bb5760203660031901126101bb5780359167ffffffffffffffff83116106ca576106736020926106b59436910161130b565b61068a60018060a01b03865460101c163314611458565b8151916106a660ff83519486818187019761050c81838b61139a565b5193849283925192839161139a565b8101600381520301902060ff19815416905580f35b8380fd5b9050346101bb5760203660031901126101bb57356106ed8115156115d3565b825260026020528120805460ff1916600117905580f35b919050346101bb5760203660031901126101bb57813567ffffffffffffffff81116106ca57610736903690840161130b565b9161074e60018060a01b03855460101c163314611458565b825115610786575061076e9160208092519382858094519384920161139a565b81016003815203019020600160ff1982541617905580f35b6020608492519162461bcd60e51b8352820152603560248201527f4f7574626f756e64537461746553656e6465723a2064657374696e6174696f6e60448201527441737365742063616e6e6f7420626520656d70747960581b6064820152fd5b505034610175576020916108156107fc36611367565b90835260058552918390206001600160a01b03926113bd565b54169051908152f35b9050346101bb5760203660031901126101bb578160209360ff923581526008855220541690519015158152f35b919050346101bb5760603660031901126101bb57813560243567ffffffffffffffff81116109ee57610880903690850161130b565b91610889611442565b9381516108a660ff828781815161050c816020988980960161139a565b60018060a01b039182885460101c16331480156109d0575b15610977575083875260058152816108d8848920876113bd565b541661093d57917f2de74f17c8053e4c25a745959c2958c4e20fc50aa7535f69c4559f1ea47922be959160056102df94868a5252610918828920876113bd565b9083166bffffffffffffffffffffffff60a01b8254161790555193849333908561159e565b917fb8b4b6d7798d4bd0eff67a8d826c7a801152eebcd1e6cbfe965f66fbb09f6735959160056102df94868a5252610918828920876113bd565b60849184519162461bcd60e51b8352820152602f60248201527f4f7574626f756e64537461746553656e6465723a204e6f7420617574686f726960448201526e3d32b2103a37903932b3b4b9ba32b960891b6064820152fd5b508488526005825233836109e6868b20896113bd565b5416146108be565b8480fd5b9050346101bb5760203660031901126101bb5735825260086020528120805460ff1916600117905580f35b9050346101bb5760203660031901126101bb57803590610a3e8215156115d3565b818452600260205260ff838520541615610a675750825260026020528120805460ff1916905580f35b608490602084519162461bcd60e51b8352820152602d60248201527f4f7574626f756e64537461746553656e6465723a20436861696e206973206e6f60448201526c1d081dda1a5d195b1a5cdd1959609a1b6064820152fd5b50503461017557816003193601126101755760209160018060a01b03905460101c1633149051908152f35b5050346101755781600319360112610175579054905160109190911c6001600160a01b03168152602090f35b9050346101bb5760203660031901126101bb578160209360ff923581526002855220541690519015158152f35b9050346101bb5760203660031901126101bb5735825260086020528120805460ff1916905580f35b9050346101bb57826003193601126101bb57825460ff8160081c161591828093610c78575b8015610c61575b15610c07575060ff198116600117845581610bf6575b50610bb8336114a3565b610bc0575080f35b60207f7f26b83ff96e1f2b6a682f133852f6798a09c465da95921460cefb38474024989161ff001984541684555160018152a180f35b61ffff191661010117835538610bae565b608490602085519162461bcd60e51b8352820152602e60248201527f496e697469616c697a61626c653a20636f6e747261637420697320616c72656160448201526d191e481a5b9a5d1a585b1a5e995960921b6064820152fd5b50303b158015610b985750600160ff831614610b98565b50600160ff831610610b91565b828434610ce7576020366003190112610ce75782359067ffffffffffffffff8211610ce75750610cd26020610cc0819560ff9436910161130b565b8185519382858094519384920161139a565b81016003815203019020541690519015158152f35b80fd5b905060803660031901126101bb5780359160249167ffffffffffffffff90833582811161042f57610d1e903690830161130b565b91610d27611442565b94606435828111610ef95736602382011215610ef95780840135928311610ef95736828483010111610ef957610d5e341515611635565b6001600160a01b03968716610d74811515611695565b8315610ea257610d89600260095414156116f9565b6002600955888a5260209660068852808b20549860018a01809a11610e90578a8c526006895289828d2055600a5416958615610e3a5750928492610e00979592857ff91432153ce44b4375f31eda8e77f23a7d323cca9f44b0b76d7c6a3affc0a1d59a989651998a9860a08a5260a08a019061141d565b9689890152870152346060870152858503608087015282855201858401378181018401899052601f01601f191601030190a3600160095580f35b602d858a608494519362461bcd60e51b85528401528201527f4f7574626f756e64537461746553656e6465723a205661756c7420616464726560448201526c1cdcc81a5cc81b9bdd081cd95d609a1b6064820152fd5b634e487b7160e01b8c5260118752848cfd5b865162461bcd60e51b8152602081870152602c818501527f4f7574626f756e64537461746553656e6465723a207061796c6f61642063616e60448201526b6e6f7420626520656d70747960a01b6064820152608490fd5b8880fd5b8334610ce75780600319360112610ce757805481601082901c6001600160a01b0316610f2a338214611458565b7f8be0079c531659141344cd1fd0a4f28419497f9722a3daafe3b4186f6b6457e08280a362010000600160b01b031916815580f35b91905060c03660031901126101bb5781359060243590610f7d611442565b9067ffffffffffffffff9060843582811161114557610f9f903690880161130b565b9160a43590811161114557610fb7903690880161130b565b928588526020906008825260ff838a2054161561110c5785156110cb5784511561107e5760015497600019891461106b57506001888101905582519586526001600160a01b0316908501523490840152606435606084015260e0608084018190527fb24b2541d5ceb6c50c184d471304f89283e677c41c7b97c6f8dd91e059caaa0e9261105b92909161104d919086019061141d565b9084820360a086015261141d565b918560c08201528033930390a480f35b634e487b7160e01b8a5260119052602489fd5b825162461bcd60e51b8152808901839052602160248201527f526563697069656e7420616464726573732063616e6e6f7420626520656d70746044820152607960f81b6064820152608490fd5b606488838086519262461bcd60e51b845283015260248201527f416d6f756e74206d7573742062652067726561746572207468616e207a65726f6044820152fd5b825162461bcd60e51b815280890183905260136024820152720556e617574686f72697a656420726f6c6c757606c1b6044820152606490fd5b8780fd5b83903461017557606036600319011261017557356fffffffffffffffffffffffffffffffff90818116036101755760243590811603610ce75780f35b9050346101bb5760203660031901126101bb5760209282913581526006845220549051908152f35b5050346101755781600319360112610175576020906001549051908152f35b919050346101bb576111f16111e036611367565b9085526020938452828520906113bd565b815193849181815490611203826113e3565b92838652600192888482169182600014611284575050600114611246575b858861124289611233848a03856112d3565b5192828493845283019061141d565b0390f35b87945081939291528383205b82841061126c575050508201018161123361124238611221565b8054848a018601528895508794909301928101611252565b60ff19168882015294151560051b8701909401945085935061123392506112429150389050611221565b929150346106ca5760203660031901126106ca57926020933581526007845220548152f35b90601f8019910116810190811067ffffffffffffffff8211176112f557604052565b634e487b7160e01b600052604160045260246000fd5b81601f820112156113625780359067ffffffffffffffff82116112f55760405192611340601f8401601f1916602001856112d3565b8284526020838301011161136257816000926020809301838601378301015290565b600080fd5b90604060031983011261136257600435916024359067ffffffffffffffff8211611362576113979160040161130b565b90565b60005b8381106113ad5750506000910152565b818101518382015260200161139d565b6020906113d792826040519483868095519384920161139a565b82019081520301902090565b90600182811c92168015611413575b60208310146113fd57565b634e487b7160e01b600052602260045260246000fd5b91607f16916113f2565b906020916114368151809281855285808601910161139a565b601f01601f1916010190565b604435906001600160a01b038216820361136257565b1561145f57565b606460405162461bcd60e51b815260206004820152602060248201527f4f776e61626c653a2063616c6c6572206973206e6f7420746865206f776e65726044820152fd5b6000805462010000600160b01b03198116601084811b62010000600160b01b03169190911783556001600160a01b039384169391901c16907f8be0079c531659141344cd1fd0a4f28419497f9722a3daafe3b4186f6b6457e09080a3565b92611521611397959361152f93865260806020870152608086019061141d565b90848203604086015261141d565b91606081840391015261141d565b1561154457565b60405162461bcd60e51b815260206004820152602c60248201527f4f7574626f756e64537461746553656e6465723a204173736574206973206e6f60448201526b1d081c9959da5cdd195c995960a21b6064820152608490fd5b926115cc9060609392969596855260018060a01b03809316602086015260806040860152608085019061141d565b9416910152565b156115da57565b60405162461bcd60e51b815260206004820152602d60248201527f4f7574626f756e64537461746553656e6465723a20496e76616c69642064657360448201526c3a34b730ba34b7b721b430b4b760991b6064820152608490fd5b1561163c57565b60405162461bcd60e51b815260206004820152602b60248201527f4f7574626f756e64537461746553656e6465723a2067617320616d6f756e742060448201526a063616e6e6f7420626520360ac1b6064820152608490fd5b1561169c57565b60405162461bcd60e51b815260206004820152602f60248201527f4f7574626f756e64537461746553656e6465723a20726566756e64416464726560448201526e1cdcc81a5b881b9bdd081d985b1a59608a1b6064820152608490fd5b1561170057565b60405162461bcd60e51b815260206004820152601f60248201527f5265656e7472616e637947756172643a207265656e7472616e742063616c6c006044820152606490fdfea264697066735822122035caba092a5998b6982c1875d90e58dd8f235545aa7204fd169f94e64608c1f664736f6c63430008130033",
  "linkReferences": {},
  "deployedLinkReferences": {}
}