{
  "_format": "hh-sol-artifact-1",
  "contractName": "ChildERC20Proxified",
  "sourceName": "contracts/dojimachain/evm/proxifiedChildToken/ChildERC20Proxified.sol",
  "abi": [
    {
      "inputs": [],
      "stateMutability": "nonpayable",
      "type": "constructor"
    },
    {
      "anonymous": false,
      "inputs": [
        {
          "indexed": true,
          "internalType": "address",
          "name": "owner",
          "type": "address"
        },
        {
          "indexed": true,
          "internalType": "address",
          "name": "spender",
          "type": "address"
        },
        {
          "indexed": false,
          "internalType": "uint256",
          "name": "value",
          "type": "uint256"
        }
      ],
      "name": "Approval",
      "type": "event"
    },
    {
      "anonymous": false,
      "inputs": [
        {
          "indexed": true,
          "internalType": "address",
          "name": "previousAddress",
          "type": "address"
        },
        {
          "indexed": true,
          "internalType": "address",
          "name": "newAddress",
          "type": "address"
        }
      ],
      "name": "ChildChainChanged",
      "type": "event"
    },
    {
      "anonymous": false,
      "inputs": [
        {
          "indexed": true,
          "internalType": "address",
          "name": "token",
          "type": "address"
        },
        {
          "indexed": true,
          "internalType": "address",
          "name": "from",
          "type": "address"
        },
        {
          "indexed": false,
          "internalType": "uint256",
          "name": "amount",
          "type": "uint256"
        },
        {
          "indexed": false,
          "internalType": "uint256",
          "name": "oldBalance",
          "type": "uint256"
        },
        {
          "indexed": false,
          "internalType": "uint256",
          "name": "newBalance",
          "type": "uint256"
        }
      ],
      "name": "Deposit",
      "type": "event"
    },
    {
      "anonymous": false,
      "inputs": [
        {
          "indexed": true,
          "internalType": "address",
          "name": "token",
          "type": "address"
        },
        {
          "indexed": true,
          "internalType": "address",
          "name": "from",
          "type": "address"
        },
        {
          "indexed": true,
          "internalType": "address",
          "name": "to",
          "type": "address"
        },
        {
          "indexed": false,
          "internalType": "uint256",
          "name": "amount",
          "type": "uint256"
        },
        {
          "indexed": false,
          "internalType": "uint256",
          "name": "input1",
          "type": "uint256"
        },
        {
          "indexed": false,
          "internalType": "uint256",
          "name": "input2",
          "type": "uint256"
        },
        {
          "indexed": false,
          "internalType": "uint256",
          "name": "output1",
          "type": "uint256"
        },
        {
          "indexed": false,
          "internalType": "uint256",
          "name": "output2",
          "type": "uint256"
        }
      ],
      "name": "LogFeeTransfer",
      "type": "event"
    },
    {
      "anonymous": false,
      "inputs": [
        {
          "indexed": true,
          "internalType": "address",
          "name": "token",
          "type": "address"
        },
        {
          "indexed": true,
          "internalType": "address",
          "name": "from",
          "type": "address"
        },
        {
          "indexed": true,
          "internalType": "address",
          "name": "to",
          "type": "address"
        },
        {
          "indexed": false,
          "internalType": "uint256",
          "name": "amount",
          "type": "uint256"
        },
        {
          "indexed": false,
          "internalType": "uint256",
          "name": "fromAddressOldBalance",
          "type": "uint256"
        },
        {
          "indexed": false,
          "internalType": "uint256",
          "name": "toAddressOldBalance",
          "type": "uint256"
        },
        {
          "indexed": false,
          "internalType": "uint256",
          "name": "fromAddressNewBalance",
          "type": "uint256"
        },
        {
          "indexed": false,
          "internalType": "uint256",
          "name": "toAddressNewBalance",
          "type": "uint256"
        }
      ],
      "name": "LogTransfer",
      "type": "event"
    },
    {
      "anonymous": false,
      "inputs": [
        {
          "indexed": true,
          "internalType": "address",
          "name": "previousOwner",
          "type": "address"
        },
        {
          "indexed": true,
          "internalType": "address",
          "name": "newOwner",
          "type": "address"
        }
      ],
      "name": "OwnershipTransferred",
      "type": "event"
    },
    {
      "anonymous": false,
      "inputs": [
        {
          "indexed": true,
          "internalType": "address",
          "name": "previousAddress",
          "type": "address"
        },
        {
          "indexed": true,
          "internalType": "address",
          "name": "newAddress",
          "type": "address"
        }
      ],
      "name": "ParentChanged",
      "type": "event"
    },
    {
      "anonymous": false,
      "inputs": [
        {
          "indexed": true,
          "internalType": "address",
          "name": "previousAddress",
          "type": "address"
        },
        {
          "indexed": true,
          "internalType": "address",
          "name": "newAddress",
          "type": "address"
        }
      ],
      "name": "StateSyncerAddressChanged",
      "type": "event"
    },
    {
      "anonymous": false,
      "inputs": [
        {
          "indexed": true,
          "internalType": "address",
          "name": "from",
          "type": "address"
        },
        {
          "indexed": true,
          "internalType": "address",
          "name": "to",
          "type": "address"
        },
        {
          "indexed": false,
          "internalType": "uint256",
          "name": "value",
          "type": "uint256"
        }
      ],
      "name": "Transfer",
      "type": "event"
    },
    {
      "anonymous": false,
      "inputs": [
        {
          "indexed": true,
          "internalType": "address",
          "name": "token",
          "type": "address"
        },
        {
          "indexed": true,
          "internalType": "address",
          "name": "from",
          "type": "address"
        },
        {
          "indexed": false,
          "internalType": "uint256",
          "name": "amount",
          "type": "uint256"
        },
        {
          "indexed": false,
          "internalType": "uint256",
          "name": "oldBalance",
          "type": "uint256"
        },
        {
          "indexed": false,
          "internalType": "uint256",
          "name": "newBalance",
          "type": "uint256"
        }
      ],
      "name": "Withdraw",
      "type": "event"
    },
    {
      "inputs": [],
      "name": "CHAINID",
      "outputs": [
        {
          "internalType": "uint256",
          "name": "",
          "type": "uint256"
        }
      ],
      "stateMutability": "view",
      "type": "function"
    },
    {
      "inputs": [],
      "name": "EIP712_DOMAIN_SCHEMA_HASH",
      "outputs": [
        {
          "internalType": "bytes32",
          "name": "",
          "type": "bytes32"
        }
      ],
      "stateMutability": "view",
      "type": "function"
    },
    {
      "inputs": [],
      "name": "EIP712_TOKEN_TRANSFER_ORDER_SCHEMA_HASH",
      "outputs": [
        {
          "internalType": "bytes32",
          "name": "",
          "type": "bytes32"
        }
      ],
      "stateMutability": "view",
      "type": "function"
    },
    {
      "inputs": [],
      "name": "NETWORK_ID",
      "outputs": [
        {
          "internalType": "bytes",
          "name": "",
          "type": "bytes"
        }
      ],
      "stateMutability": "view",
      "type": "function"
    },
    {
      "inputs": [],
      "name": "_decimals",
      "outputs": [
        {
          "internalType": "uint8",
          "name": "",
          "type": "uint8"
        }
      ],
      "stateMutability": "view",
      "type": "function"
    },
    {
      "inputs": [],
      "name": "_name",
      "outputs": [
        {
          "internalType": "string",
          "name": "",
          "type": "string"
        }
      ],
      "stateMutability": "view",
      "type": "function"
    },
    {
      "inputs": [],
      "name": "_symbol",
      "outputs": [
        {
          "internalType": "string",
          "name": "",
          "type": "string"
        }
      ],
      "stateMutability": "view",
      "type": "function"
    },
    {
      "inputs": [
        {
          "internalType": "address",
          "name": "",
          "type": "address"
        },
        {
          "internalType": "address",
          "name": "",
          "type": "address"
        }
      ],
      "name": "allowance",
      "outputs": [
        {
          "internalType": "uint256",
          "name": "",
          "type": "uint256"
        }
      ],
      "stateMutability": "pure",
      "type": "function"
    },
    {
      "inputs": [
        {
          "internalType": "address",
          "name": "",
          "type": "address"
        },
        {
          "internalType": "uint256",
          "name": "",
          "type": "uint256"
        }
      ],
      "name": "approve",
      "outputs": [
        {
          "internalType": "bool",
          "name": "",
          "type": "bool"
        }
      ],
      "stateMutability": "pure",
      "type": "function"
    },
    {
      "inputs": [
        {
          "internalType": "address",
          "name": "account",
          "type": "address"
        }
      ],
      "name": "balanceOf",
      "outputs": [
        {
          "internalType": "uint256",
          "name": "",
          "type": "uint256"
        }
      ],
      "stateMutability": "view",
      "type": "function"
    },
    {
      "inputs": [
        {
          "internalType": "address",
          "name": "newAddress",
          "type": "address"
        }
      ],
      "name": "changeChildChain",
      "outputs": [],
      "stateMutability": "nonpayable",
      "type": "function"
    },
    {
      "inputs": [
        {
          "internalType": "address",
          "name": "newAddress",
          "type": "address"
        }
      ],
      "name": "changeStateSyncerAddress",
      "outputs": [],
      "stateMutability": "nonpayable",
      "type": "function"
    },
    {
      "inputs": [],
      "name": "childChain",
      "outputs": [
        {
          "internalType": "address",
          "name": "",
          "type": "address"
        }
      ],
      "stateMutability": "view",
      "type": "function"
    },
    {
      "inputs": [],
      "name": "decimals",
      "outputs": [
        {
          "internalType": "uint8",
          "name": "",
          "type": "uint8"
        }
      ],
      "stateMutability": "view",
      "type": "function"
    },
    {
      "inputs": [
        {
          "internalType": "address",
          "name": "user",
          "type": "address"
        },
        {
          "internalType": "uint256",
          "name": "amount",
          "type": "uint256"
        }
      ],
      "name": "deposit",
      "outputs": [],
      "stateMutability": "nonpayable",
      "type": "function"
    },
    {
      "inputs": [
        {
          "internalType": "bytes32",
          "name": "",
          "type": "bytes32"
        }
      ],
      "name": "disabledHashes",
      "outputs": [
        {
          "internalType": "bool",
          "name": "",
          "type": "bool"
        }
      ],
      "stateMutability": "view",
      "type": "function"
    },
    {
      "inputs": [
        {
          "internalType": "bytes32",
          "name": "hash",
          "type": "bytes32"
        },
        {
          "internalType": "bytes",
          "name": "sig",
          "type": "bytes"
        }
      ],
      "name": "ecrecovery",
      "outputs": [
        {
          "internalType": "address",
          "name": "result",
          "type": "address"
        }
      ],
      "stateMutability": "pure",
      "type": "function"
    },
    {
      "inputs": [],
      "name": "eip712DomainHash",
      "outputs": [
        {
          "internalType": "bytes32",
          "name": "",
          "type": "bytes32"
        }
      ],
      "stateMutability": "view",
      "type": "function"
    },
    {
      "inputs": [],
      "name": "getToken",
      "outputs": [
        {
          "internalType": "address",
          "name": "",
          "type": "address"
        }
      ],
      "stateMutability": "view",
      "type": "function"
    },
    {
      "inputs": [
        {
          "internalType": "address",
          "name": "spender",
          "type": "address"
        },
        {
          "internalType": "uint256",
          "name": "tokenIdOrAmount",
          "type": "uint256"
        },
        {
          "internalType": "bytes32",
          "name": "data",
          "type": "bytes32"
        },
        {
          "internalType": "uint256",
          "name": "expiration",
          "type": "uint256"
        }
      ],
      "name": "getTokenTransferOrderHash",
      "outputs": [
        {
          "internalType": "bytes32",
          "name": "orderHash",
          "type": "bytes32"
        }
      ],
      "stateMutability": "view",
      "type": "function"
    },
    {
      "inputs": [
        {
          "internalType": "address",
          "name": "_token",
          "type": "address"
        },
        {
          "internalType": "string",
          "name": "name",
          "type": "string"
        },
        {
          "internalType": "string",
          "name": "symbol",
          "type": "string"
        }
      ],
      "name": "initialize",
      "outputs": [],
      "stateMutability": "nonpayable",
      "type": "function"
    },
    {
      "inputs": [],
      "name": "isCallerStateSyncer",
      "outputs": [
        {
          "internalType": "bool",
          "name": "",
          "type": "bool"
        }
      ],
      "stateMutability": "view",
      "type": "function"
    },
    {
      "inputs": [],
      "name": "isOwner",
      "outputs": [
        {
          "internalType": "bool",
          "name": "",
          "type": "bool"
        }
      ],
      "stateMutability": "view",
      "type": "function"
    },
    {
      "inputs": [],
      "name": "name",
      "outputs": [
        {
          "internalType": "string",
          "name": "",
          "type": "string"
        }
      ],
      "stateMutability": "view",
      "type": "function"
    },
    {
      "inputs": [
        {
          "internalType": "uint256",
          "name": "",
          "type": "uint256"
        },
        {
          "internalType": "bytes",
          "name": "data",
          "type": "bytes"
        }
      ],
      "name": "onStateReceive",
      "outputs": [],
      "stateMutability": "nonpayable",
      "type": "function"
    },
    {
      "inputs": [],
      "name": "owner",
      "outputs": [
        {
          "internalType": "address",
          "name": "",
          "type": "address"
        }
      ],
      "stateMutability": "view",
      "type": "function"
    },
    {
      "inputs": [],
      "name": "parent",
      "outputs": [
        {
          "internalType": "address",
          "name": "",
          "type": "address"
        }
      ],
      "stateMutability": "view",
      "type": "function"
    },
    {
      "inputs": [],
      "name": "renounceOwnership",
      "outputs": [],
      "stateMutability": "nonpayable",
      "type": "function"
    },
    {
      "inputs": [
        {
          "internalType": "address",
          "name": "newAddress",
          "type": "address"
        }
      ],
      "name": "setParent",
      "outputs": [],
      "stateMutability": "nonpayable",
      "type": "function"
    },
    {
      "inputs": [],
      "name": "stateSyncer",
      "outputs": [
        {
          "internalType": "address",
          "name": "",
          "type": "address"
        }
      ],
      "stateMutability": "view",
      "type": "function"
    },
    {
      "inputs": [],
      "name": "symbol",
      "outputs": [
        {
          "internalType": "string",
          "name": "",
          "type": "string"
        }
      ],
      "stateMutability": "view",
      "type": "function"
    },
    {
      "inputs": [],
      "name": "token",
      "outputs": [
        {
          "internalType": "address",
          "name": "",
          "type": "address"
        }
      ],
      "stateMutability": "view",
      "type": "function"
    },
    {
      "inputs": [],
      "name": "totalSupply",
      "outputs": [
        {
          "internalType": "uint256",
          "name": "",
          "type": "uint256"
        }
      ],
      "stateMutability": "view",
      "type": "function"
    },
    {
      "inputs": [
        {
          "internalType": "address",
          "name": "to",
          "type": "address"
        },
        {
          "internalType": "uint256",
          "name": "value",
          "type": "uint256"
        }
      ],
      "name": "transfer",
      "outputs": [
        {
          "internalType": "bool",
          "name": "",
          "type": "bool"
        }
      ],
      "stateMutability": "nonpayable",
      "type": "function"
    },
    {
      "inputs": [
        {
          "internalType": "address",
          "name": "",
          "type": "address"
        },
        {
          "internalType": "address",
          "name": "",
          "type": "address"
        },
        {
          "internalType": "uint256",
          "name": "",
          "type": "uint256"
        }
      ],
      "name": "transferFrom",
      "outputs": [
        {
          "internalType": "bool",
          "name": "",
          "type": "bool"
        }
      ],
      "stateMutability": "pure",
      "type": "function"
    },
    {
      "inputs": [
        {
          "internalType": "address",
          "name": "newOwner",
          "type": "address"
        }
      ],
      "name": "transferOwnership",
      "outputs": [],
      "stateMutability": "nonpayable",
      "type": "function"
    },
    {
      "inputs": [
        {
          "internalType": "bytes",
          "name": "sig",
          "type": "bytes"
        },
        {
          "internalType": "uint256",
          "name": "amount",
          "type": "uint256"
        },
        {
          "internalType": "bytes32",
          "name": "data",
          "type": "bytes32"
        },
        {
          "internalType": "uint256",
          "name": "expiration",
          "type": "uint256"
        },
        {
          "internalType": "address",
          "name": "to",
          "type": "address"
        }
      ],
      "name": "transferWithSig",
      "outputs": [
        {
          "internalType": "address",
          "name": "from",
          "type": "address"
        }
      ],
      "stateMutability": "nonpayable",
      "type": "function"
    },
    {
      "inputs": [
        {
          "internalType": "uint256",
          "name": "amount",
          "type": "uint256"
        }
      ],
      "name": "withdraw",
      "outputs": [],
      "stateMutability": "payable",
      "type": "function"
    }
  ],
  "bytecode": "0x60a060409080825234620004e6576200001881620004eb565b60008082528251916200002b83620004eb565b8183528154336001600160a01b03198083168217855592916001600160a01b03167f8be0079c531659141344cd1fd0a4f28419497f9722a3daafe3b4186f6b6457e08580a38451936001600160401b03936080860185811187821017620003b25787526052958681526020967f454950373132446f6d61696e28737472696e67206e616d652c737472696e6720888301527f76657273696f6e2c75696e7432353620636861696e49642c61646472657373208983015271766572696679696e67436f6e74726163742960701b606083015288519188845b838110620004d1575050508260728301528152608081019080821087831117620004a95790600e60a08993838c52828151868301209462000143816200051d565b52016d446f6a696d61204e6574776f726b60901b815220895162000167816200051d565b600593818580935201640312e302e360dc1b8152208a51918a83019384528b830152606082015261057960808201523060a082015260a0815260c0810181811089821117620004bd578a525190206001958691825561100180826006541617600655847f98e6a46aa139a033b9c7f3ae4ad1c103ffdce3e7cf509326808ba8c4b5af11c08180a360025416176002558351868111620004a957600a54948686811c961680156200049e575b898710146200048a578190601f9687811162000438575b508990878311600114620003d2578592620003c6575b5050600019600383901b1c191690861b17600a555b8251958611620003b257600b54908582811c92168015620003a7575b8883101462000393578482116200034c575b505085928511600114620002e3579394508492919083620002d7575b50501b916000199060031b1c191617600b555b601260805260ff19600c5416600c555161215290816200053a8239608051816108ce0152f35b0151925038806200029e565b600b815285812093958591601f198316915b8883831062000331575050501062000317575b505050811b01600b55620002b1565b015160001960f88460031b161c1916905538808062000308565b858701518855909601959485019487935090810190620002f5565b600b83528783209085808901821c8301938a8a1062000389575b01901c019085905b8281106200037d575062000282565b8381550185906200036e565b9350829362000366565b634e487b7160e01b83526022600452602483fd5b91607f169162000270565b634e487b7160e01b82526041600452602482fd5b0151905038806200023f565b600a86528a86208994509190601f198416875b8d82821062000421575050841162000407575b505050811b01600a5562000254565b015160001960f88460031b161c19169055388080620003f8565b8385015186558c97909501949384019301620003e5565b909150600a855289852087808501861c8201928c861062000480575b918a918695949301871c01915b8281106200047157505062000229565b8781558594508a910162000461565b9250819262000454565b634e487b7160e01b84526022600452602484fd5b95607f169562000212565b634e487b7160e01b83526041600452602483fd5b634e487b7160e01b85526041600452602485fd5b81818401015182828701015201899062000102565b600080fd5b602081019081106001600160401b038211176200050757604052565b634e487b7160e01b600052604160045260246000fd5b604081019081106001600160401b03821117620005075760405256fe6080604052600436101561001257600080fd5b60003560e01c806306fdde03146101e6578063095ea7b3146102635780631499c5921461025e57806318160ddd1461025957806319d27d9c146102545780631c3895ad1461024f57806321df0da7146101be57806323b872dd1461024a57806326c53bea1461024557806328ce8b31146102405780632e1a7d4d1461023b578063313ce5671461023657806332424aa31461023657806342fc47fb1461023157806347e7ef241461022c57806360f96a8f1461022757806370a0823114610222578063715018a61461021d57806377d32e94146102185780638da5cb5b146102135780638f32d59b1461020e578063906571471461020957806395d89b41146101f5578063a9059cbb14610204578063abceeba2146101ff578063acd06cb3146101fa578063b09f1266146101f5578063b789543c146101f0578063cc79f97b146101eb578063d28d8852146101e6578063dd62ed3e146101e1578063df555007146101dc578063e614d0d6146101d7578063ed9ef524146101d2578063f2fde38b146101cd578063f4ef4d69146101c8578063f94dc4bc146101c35763fc0c546a146101be57600080fd5b6106a2565b61135c565b611333565b6112ae565b6111a6565b61118b565b61100b565b610fef565b6102a8565b610fd2565b610f7c565b610d4d565b610f11565b610eee565b610df4565b610c9e565b610c69565b610c40565b610bdf565b610b27565b610aea565b610ac1565b61091b565b6108f2565b6108b4565b61089c565b610859565b6106f2565b6106cb565b61067a565b61052b565b6104df565b6103cc565b6103ab565b919082519283825260005b848110610294575050826000602080949584010152601f8019910116010190565b602081830181015184830182015201610273565b3461039557600080600319360112610392576040519080600a546102cb81610f42565b80855291600191808316908115610368575060011461030d575b610309856102f581870382610837565b604051918291602083526020830190610268565b0390f35b9250600a83527fc65a7bb8d6351c1cf70c95a316cc6a92839c986682d98bc35f958f4883f9d2a85b8284106103505750505081016020016102f5826103096102e5565b80546020858701810191909152909301928101610335565b869550610309969350602092506102f594915060ff191682840152151560051b82010192936102e5565b80fd5b600080fd5b6001600160a01b0381160361039557565b34610395576040366003190112610395576103c760043561039a565b611c84565b34610395576020366003190112610395576004356103e98161039a565b6000805160206120fd833981519152546001600160a01b039061040f90821633146113ad565b811690811561047e5760045461047c929061043a906001600160a01b03165b6001600160a01b031690565b7fc9e4c719f349d4c91a37138eb5cf0ba2670c592a764f8c0b18c603ba9178cc1d600080a360018060a01b03166001600160601b0360a01b6004541617600455565b005b60405162461bcd60e51b815260206004820152603360248201527f4368696c6420746f6b656e3a206e657720706172656e74206164647265737320604482015272697320746865207a65726f206164647265737360681b6064820152608490fd5b34610395576000366003190112610395576020600954604051908152f35b9181601f840112156103955782359167ffffffffffffffff8311610395576020838186019501011161039557565b346103955760a03660031901126103955760043567ffffffffffffffff81116103955761055c9036906004016104fd565b9060243560643590608435926105718461039a565b811561063d5761030994610602610608926105af6105a88761061898158015610633575b61059e906113f8565b604435883361137a565b3090611479565b926105d76105d16105ca866000526005602052604060002090565b5460ff1690565b1561143b565b6105fb6105ee856000526005602052604060002090565b805460ff19166001179055565b3691610b98565b90611d0f565b926001600160a01b03168361158b565b506040516001600160a01b0390911681529081906020820190565b5043811015610595565b60405162461bcd60e51b8152602060048201526015602482015274115490cc8c0e881a5b9d985b1a5908185b5bdd5b9d605a1b6044820152606490fd5b3461039557600036600319011261039557602060018060a01b03600654163314604051908152f35b34610395576000366003190112610395576002546040516001600160a01b039091168152602090f35b34610395576060366003190112610395576106e760043561039a565b6103c760243561039a565b346103955760403660031901126103955760243567ffffffffffffffff8111610395576107239036906004016104fd565b6006546001600160a01b03929190831633036107815781604091810103126103955761047c9160208235926107578461039a565b0135911681816000526007602052604060002054908110610779575b5061175e565b915038610773565b60405162461bcd60e51b815260206004820152603560248201527f53746174652073796e6365723a2063616c6c6572206973206e6f7420746865206044820152741cdd185d19481cde5b98d95c8818dbdb9d1c9858dd605a1b6064820152608490fd5b634e487b7160e01b600052604160045260246000fd5b6040810190811067ffffffffffffffff82111761081657604052565b6107e4565b6080810190811067ffffffffffffffff82111761081657604052565b90601f8019910116810190811067ffffffffffffffff82111761081657604052565b3461039557600036600319011261039557610309604051610879816107fa565b600281526103e960f01b6020820152604051918291602083526020830190610268565b60203660031901126103955761047c6004353361175e565b3461039557600036600319011261039557602060405160ff7f0000000000000000000000000000000000000000000000000000000000000000168152f35b34610395576000366003190112610395576003546040516001600160a01b039091168152602090f35b34610395576040366003190112610395576004356109388161039a565b600354602435906001600160a01b039081163303610a605781151580610a55575b156109f9576001600160a01b03831660009081526007602052604090207f4e2ca0515ed1aef1395f66b5303bb5d6f1bf9d61a353fa53f73f8ac9973fa9f6919054936109a58482611b5f565b6002546109f4906001600160a01b03166001600160a01b038316600090815260076020526040902090969054908460405195869516981696846040919493926060820195825260208201520152565b0390a3005b60405162461bcd60e51b815260206004820152602e60248201527f45524332303a20696e76616c69642075736572206164647265737320616e642060448201526d19195c1bdcda5d08185b5bdd5b9d60921b6064820152608490fd5b508083161515610959565b60405162461bcd60e51b815260206004820152603360248201527f4368696c6420746f6b656e3a2063616c6c6572206973206e6f742074686520636044820152721a1a5b190818da185a5b8818dbdb9d1c9858dd606a1b6064820152608490fd5b34610395576000366003190112610395576004546040516001600160a01b039091168152602090f35b3461039557602036600319011261039557600435610b078161039a565b60018060a01b031660005260076020526020604060002054604051908152f35b3461039557600080600319360112610392576000805160206120fd833981519152546001600160a01b0390610b5f90821633146113ad565b8180549182167f8be0079c531659141344cd1fd0a4f28419497f9722a3daafe3b4186f6b6457e08280a36001600160a01b031916815580f35b92919267ffffffffffffffff82116108165760405191610bc2601f8201601f191660200184610837565b829481845281830111610395578281602093846000960137010152565b346103955760403660031901126103955760243567ffffffffffffffff8111610395573660238201121561039557610c2e610c266020923690602481600401359101610b98565b600435611d0f565b6040516001600160a01b039091168152f35b34610395576000366003190112610395576000546040516001600160a01b039091168152602090f35b3461039557600036600319011261039557602060018060a01b036000805160206120fd83398151915254163314604051908152f35b3461039557606036600319011261039557600435610cbb8161039a565b67ffffffffffffffff60243581811161039557610cdc9036906004016104fd565b9160443590811161039557610cf59036906004016104fd565b929091600c549460ff8616610d1757600161047c9660ff191617600c55611f90565b60405162461bcd60e51b815260206004820152600e60248201526d185b1c9958591e481a5b9a5d195960921b6044820152606490fd5b3461039557600080600319360112610392576040519080600b54610d7081610f42565b808552916001918083169081156103685750600114610d9957610309856102f581870382610837565b9250600b83527f0175b7a638427703f0dbe7bb9bbf987a2551717b34e79f33b5b1008d1fa01db95b828410610ddc5750505081016020016102f5826103096102e5565b80546020858701810191909152909301928101610dc1565b34610395576040366003190112610395576020610e1f600435610e168161039a565b602435906118d8565b6040519015158152f35b604051610e358161081b565b605b8082526020907f546f6b656e5472616e736665724f726465722861646472657373207370656e64828401527f65722c75696e7432353620746f6b656e49644f72416d6f756e742c627974657360408401527f333220646174612c75696e743235362065787069726174696f6e2900000000006060840152604051928260005b838110610eda575050506000607b8401528252610ed28261081b565b815191012090565b818184010151828288010152018390610eb6565b34610395576000366003190112610395576020610f09610e29565b604051908152f35b34610395576020366003190112610395576004356000526005602052602060ff604060002054166040519015158152f35b90600182811c92168015610f72575b6020831014610f5c57565b634e487b7160e01b600052602260045260246000fd5b91607f1691610f51565b34610395576080366003190112610395576020610f09610fb2600435610fa18161039a565b60643590604435906024359061137a565b6001546042916040519161190160f01b8352600283015260228201522090565b346103955760003660031901126103955760206040516105798152f35b34610395576040366003190112610395576106e760043561039a565b34610395576020366003190112610395576004356110288161039a565b6000805160206120fd833981519152546001600160a01b0391829161105090831633146113ad565b1690811561109457816006549182167f98e6a46aa139a033b9c7f3ae4ad1c103ffdce3e7cf509326808ba8c4b5af11c0600080a36001600160a01b03191617600655005b60405162461bcd60e51b815260206004820152601d60248201527f53746174652073796e6365723a20696e76616c696420616464726573730000006044820152606490fd5b6040516110e58161081b565b60528082526020907f454950373132446f6d61696e28737472696e67206e616d652c737472696e6720828401527f76657273696f6e2c75696e7432353620636861696e49642c6164647265737320604084015271766572696679696e67436f6e74726163742960701b6060840152604051928260005b83811061117757505050600060728401528252610ed28261081b565b81818401015182828801015201839061115b565b34610395576000366003190112610395576020610f096110d9565b34610395576020366003190112610395576004356111c38161039a565b6000805160206120fd833981519152546001600160a01b03906111e990821633146113ad565b811690811561124e5760035461047c929061120c906001600160a01b031661042e565b7f1f9f3556dd336016cdf20adaead7d5c73665dba664b60e8c17e9a4eb91ce1d39600080a360018060a01b03166001600160601b0360a01b6003541617600355565b60405162461bcd60e51b815260206004820152603260248201527f4368696c6420746f6b656e3a206e6577206368696c64206164647265737320696044820152717320746865207a65726f206164647265737360701b6064820152608490fd5b34610395576020366003190112610395576004356112cb8161039a565b6000805160206120fd833981519152546001600160a01b0391906112f290831633146113ad565b600080546001600160a01b0319811692841692831782559092167f8be0079c531659141344cd1fd0a4f28419497f9722a3daafe3b4186f6b6457e08380a380f35b34610395576000366003190112610395576006546040516001600160a01b039091168152602090f35b34610395576000366003190112610395576020600154604051908152f35b9160a09391611387610e29565b93604051948552600180871b031660208501526040840152606083015260808201522090565b156113b457565b606460405162461bcd60e51b815260206004820152602060248201527f4f776e61626c653a2063616c6c6572206973206e6f7420746865206f776e65726044820152fd5b156113ff57565b60405162461bcd60e51b815260206004820152601460248201527314da59db985d1d5c99481a5cc8195e1c1a5c995960621b6044820152606490fd5b1561144257565b60405162461bcd60e51b815260206004820152600f60248201526e14da59c819195858dd1a5d985d1959608a1b6044820152606490fd5b6114816110d9565b6d446f6a696d61204e6574776f726b60901b60206040516114a1816107fa565b600e81520152640312e302e360dc1b60206040516114be816107fa565b60058152015260405192602084019182527f221f8a440277f355573de882ed84f79b3742ae470474223812e292fd8a8bfa4460408501527f06c015bd22b4c69690933c1058878ebdfef31f9aaae40bbe86d8a09fe1b2972c6060850152610579608085015260018060a01b031660a084015260a0835260c083019280841067ffffffffffffffff85111761081657604084905251902061190160f01b8352600283015260228201526042902090565b90565b90816020910312610395575190565b6040513d6000823e3d90fd5b6040516370a0823160e01b8082526001600160a01b03831660048301529193602093909291908482602481305afa9182156116fe5760009261173f575b506040518381526001600160a01b0382166004820152948086602481305afa9586156116fe57600096611720575b50611602858389611a34565b6002546040518581526001600160a01b03898116600483015290911696908281602481305afa9081156116fe57600091611703575b506040519586526001600160a01b03841660048701528286602481305afa9182156116fe577fe6497e3ee548a3372136af2fcb0696db31fc6cf20260707645068bd3fe97f3c4966116c7946000946116cf575b505060405195869560018060a01b03808092169c169a1698869192608093969594919660a084019784526020840152604083015260608201520152565b0390a4600190565b6116ef929450803d106116f7575b6116e78183610837565b810190611570565b91388061168a565b503d6116dd565b61157f565b61171a9150833d85116116f7576116e78183610837565b38611637565b816117389297503d88116116f7576116e78183610837565b94386115f6565b611757919250853d87116116f7576116e78183610837565b90386115c8565b6001600160a01b03808216600081815260076020526040902054909392909190841561187b576001600160a01b03811660009081526007602052604090207febff2602b3f468259e1e99f613fed6691f3a6526effe6ef3e768ba7ae7a36c4f93611876918690546117d182821015611c2d565b036117ee8460018060a01b03166000526007602052604060002090565b556117fc8660095403600955565b6000877fddf252ad1be2c89b69c2b068fc378daa952ba7f163c4a11628f55a4df523b3ef604051806118338b829190602083019252565b0390a36002546001600160a01b03938416600090815260076020526040902093169254906040519485941696846040919493926060820195825260208201520152565b0390a3565b60405162461bcd60e51b815260206004820152601e60248201527f45524332303a20696e76616c6964206163636f756e74206164647265737300006044820152606490fd5b90816020910312610395575180151581036103955790565b6004549091906001600160a01b03908116801515918261190a575b50506119035761156d913361158b565b5050600090565b600092509060646020926040519485938492631ffb811f60e01b8452336004850152891660248401528760448401525af19081156116fe57600091611953575b501538806118f3565b611974915060203d811161197a575b61196c8183610837565b8101906118c0565b3861194a565b503d611962565b1561198857565b60405162461bcd60e51b815260206004820152602360248201527f45524332303a207472616e7366657220746f20746865207a65726f206164647260448201526265737360e81b6064820152608490fd5b156119e057565b60405162461bcd60e51b815260206004820152602660248201527f45524332303a207472616e7366657220616d6f756e7420657863656564732062604482015265616c616e636560d01b6064820152608490fd5b916001600160a01b038084169290918315611af657611ae0827fddf252ad1be2c89b69c2b068fc378daa952ba7f163c4a11628f55a4df523b3ef94611876941696611a80881515611981565b6001600160a01b0381166000908152600760205260409020611ac590859054611aab828210156119d9565b039160018060a01b03166000526007602052604060002090565b556001600160a01b0316600090815260076020526040902090565b8054820190556040519081529081906020820190565b60405162461bcd60e51b815260206004820152602560248201527f45524332303a207472616e736665722066726f6d20746865207a65726f206164604482015264647265737360d81b6064820152608490fd5b634e487b7160e01b600052601160045260246000fd5b6001600160a01b03811691908215611bd95760095490828201809211611bd457600092611bc56020927fddf252ad1be2c89b69c2b068fc378daa952ba7f163c4a11628f55a4df523b3ef9460095560018060a01b03166000526007602052604060002090565b818154019055604051908152a3565b611b49565b60405162461bcd60e51b815260206004820152602660248201527f45524332303a206d696e7420746f20696e76616c6964206163636f756e74206160448201526564647265737360d01b6064820152608490fd5b15611c3457565b60405162461bcd60e51b815260206004820152602260248201527f45524332303a206275726e20616d6f756e7420657863656564732062616c616e604482015261636560f01b6064820152608490fd5b60405162461bcd60e51b815260206004820152601060248201526f44697361626c6564206665617475726560801b6044820152606490fd5b60ff601b9116019060ff8211611bd457565b15611cd557565b60405162461bcd60e51b815260206004820152601260248201527122b93937b91034b71032b1b932b1b7bb32b960711b6044820152606490fd5b9060006041825103611dca575060208101519160ff604160408401519301511690601b8210611dba575b60ff8216601b8114159081611dae575b50611da557611d7d600093602095604051948594859094939260ff6060936080840197845216602083015260408201520152565b838052039060015afa156116fe5760005190611da36001600160a01b0383161515611cce565b565b50505050600090565b601c9150141538611d49565b90611dc490611cbc565b90611d39565b91505090565b601f8111611ddc575050565b600090600b82527f0175b7a638427703f0dbe7bb9bbf987a2551717b34e79f33b5b1008d1fa01db9906020601f850160051c83019410611e37575b601f0160051c01915b828110611e2c57505050565b818155600101611e20565b9092508290611e17565b601f8111611e4d575050565b600090600a82527fc65a7bb8d6351c1cf70c95a316cc6a92839c986682d98bc35f958f4883f9d2a8906020601f850160051c83019410611ea8575b601f0160051c01915b828110611e9d57505050565b818155600101611e91565b9092508290611e88565b919067ffffffffffffffff811161081657611ed781611ed2600b54610f42565b611dd0565b6000601f8211600114611f1157819293600092611f06575b50508160011b916000199060031b1c191617600b55565b013590503880611eef565b600b600052601f198216937f0175b7a638427703f0dbe7bb9bbf987a2551717b34e79f33b5b1008d1fa01db991805b868110611f785750836001959610611f5e575b505050811b01600b55565b0135600019600384901b60f8161c19169055388080611f53565b90926020600181928686013581550194019101611f40565b9094939291906001600160a01b031680156120a4576001600160601b0360a01b600254161760025567ffffffffffffffff811161081657611fdb81611fd6600a54610f42565b611e41565b6000601f821160011461201c578190611da39596600092612011575b50508160011b916000199060031b1c191617600a55611eb2565b013590503880611ff7565b600a6000527fc65a7bb8d6351c1cf70c95a316cc6a92839c986682d98bc35f958f4883f9d2a890601f198316815b81811061208c575096839291600194611da3989910612072575b505050811b01600a55611eb2565b0135600019600384901b60f8161c19169055388080612064565b9192602060018192868c01358155019401920161204a565b60405162461bcd60e51b815260206004820152602a60248201527f4368696c64455243323050726f7869666965643a20696e76616c696420746f6b604482015269656e206164647265737360b01b6064820152608490fdfe479ffb3c275b8ac9b3317421329612c7dc376a0f67c890d7652f9df289f799aea26469706673582212202fbd581b82160152bb4601d703790c697ec835527aa8ea8d3479529e5eed6ada64736f6c63430008130033",
  "linkReferences": {},
  "deployedLinkReferences": {}
}