{
  "_format": "hh-sol-artifact-1",
  "contractName": "RegistryContract",
  "sourceName": "contracts/dojimachain/rollups/common/RegistryContract.sol",
  "abi": [
    {
      "inputs": [],
      "stateMutability": "nonpayable",
      "type": "constructor"
    },
    {
      "anonymous": false,
      "inputs": [
        {
          "indexed": true,
          "internalType": "bytes32",
          "name": "role",
          "type": "bytes32"
        },
        {
          "indexed": true,
          "internalType": "bytes32",
          "name": "previousAdminRole",
          "type": "bytes32"
        },
        {
          "indexed": true,
          "internalType": "bytes32",
          "name": "newAdminRole",
          "type": "bytes32"
        }
      ],
      "name": "RoleAdminChanged",
      "type": "event"
    },
    {
      "anonymous": false,
      "inputs": [
        {
          "indexed": true,
          "internalType": "bytes32",
          "name": "role",
          "type": "bytes32"
        },
        {
          "indexed": true,
          "internalType": "address",
          "name": "account",
          "type": "address"
        },
        {
          "indexed": true,
          "internalType": "address",
          "name": "sender",
          "type": "address"
        }
      ],
      "name": "RoleGranted",
      "type": "event"
    },
    {
      "anonymous": false,
      "inputs": [
        {
          "indexed": true,
          "internalType": "bytes32",
          "name": "role",
          "type": "bytes32"
        },
        {
          "indexed": true,
          "internalType": "address",
          "name": "account",
          "type": "address"
        },
        {
          "indexed": true,
          "internalType": "address",
          "name": "sender",
          "type": "address"
        }
      ],
      "name": "RoleRevoked",
      "type": "event"
    },
    {
      "anonymous": false,
      "inputs": [
        {
          "indexed": true,
          "internalType": "uint256",
          "name": "rollupID",
          "type": "uint256"
        }
      ],
      "name": "RollupDeregistered",
      "type": "event"
    },
    {
      "anonymous": false,
      "inputs": [
        {
          "indexed": true,
          "internalType": "uint256",
          "name": "rollupID",
          "type": "uint256"
        }
      ],
      "name": "RollupInfoUpdated",
      "type": "event"
    },
    {
      "anonymous": false,
      "inputs": [
        {
          "indexed": true,
          "internalType": "uint256",
          "name": "rollupID",
          "type": "uint256"
        }
      ],
      "name": "RollupRegistered",
      "type": "event"
    },
    {
      "inputs": [],
      "name": "DEFAULT_ADMIN_ROLE",
      "outputs": [
        {
          "internalType": "bytes32",
          "name": "",
          "type": "bytes32"
        }
      ],
      "stateMutability": "view",
      "type": "function"
    },
    {
      "inputs": [
        {
          "internalType": "uint256",
          "name": "rollupID",
          "type": "uint256"
        }
      ],
      "name": "deregisterRollup",
      "outputs": [],
      "stateMutability": "nonpayable",
      "type": "function"
    },
    {
      "inputs": [
        {
          "internalType": "bytes32",
          "name": "role",
          "type": "bytes32"
        }
      ],
      "name": "getRoleAdmin",
      "outputs": [
        {
          "internalType": "bytes32",
          "name": "",
          "type": "bytes32"
        }
      ],
      "stateMutability": "view",
      "type": "function"
    },
    {
      "inputs": [
        {
          "internalType": "uint256",
          "name": "rollupID",
          "type": "uint256"
        }
      ],
      "name": "getRollupInfo",
      "outputs": [
        {
          "components": [
            {
              "internalType": "address",
              "name": "tssAddress",
              "type": "address"
            },
            {
              "internalType": "string",
              "name": "rollupName",
              "type": "string"
            },
            {
              "internalType": "address",
              "name": "rollupAdmin",
              "type": "address"
            },
            {
              "internalType": "string",
              "name": "metadataURI",
              "type": "string"
            }
          ],
          "internalType": "struct RegistryContract.RollupInfo",
          "name": "",
          "type": "tuple"
        }
      ],
      "stateMutability": "view",
      "type": "function"
    },
    {
      "inputs": [
        {
          "internalType": "uint256",
          "name": "rollupID",
          "type": "uint256"
        }
      ],
      "name": "getTSSPublicKey",
      "outputs": [
        {
          "internalType": "address",
          "name": "",
          "type": "address"
        }
      ],
      "stateMutability": "view",
      "type": "function"
    },
    {
      "inputs": [
        {
          "internalType": "bytes32",
          "name": "role",
          "type": "bytes32"
        },
        {
          "internalType": "address",
          "name": "account",
          "type": "address"
        }
      ],
      "name": "grantRole",
      "outputs": [],
      "stateMutability": "nonpayable",
      "type": "function"
    },
    {
      "inputs": [
        {
          "internalType": "bytes32",
          "name": "role",
          "type": "bytes32"
        },
        {
          "internalType": "address",
          "name": "account",
          "type": "address"
        }
      ],
      "name": "hasRole",
      "outputs": [
        {
          "internalType": "bool",
          "name": "",
          "type": "bool"
        }
      ],
      "stateMutability": "view",
      "type": "function"
    },
    {
      "inputs": [
        {
          "internalType": "uint256",
          "name": "rollupID",
          "type": "uint256"
        },
        {
          "components": [
            {
              "internalType": "address",
              "name": "tssAddress",
              "type": "address"
            },
            {
              "internalType": "string",
              "name": "rollupName",
              "type": "string"
            },
            {
              "internalType": "address",
              "name": "rollupAdmin",
              "type": "address"
            },
            {
              "internalType": "string",
              "name": "metadataURI",
              "type": "string"
            }
          ],
          "internalType": "struct RegistryContract.RollupInfo",
          "name": "info",
          "type": "tuple"
        }
      ],
      "name": "registerRollup",
      "outputs": [],
      "stateMutability": "nonpayable",
      "type": "function"
    },
    {
      "inputs": [
        {
          "internalType": "bytes32",
          "name": "role",
          "type": "bytes32"
        },
        {
          "internalType": "address",
          "name": "account",
          "type": "address"
        }
      ],
      "name": "renounceRole",
      "outputs": [],
      "stateMutability": "nonpayable",
      "type": "function"
    },
    {
      "inputs": [
        {
          "internalType": "bytes32",
          "name": "role",
          "type": "bytes32"
        },
        {
          "internalType": "address",
          "name": "account",
          "type": "address"
        }
      ],
      "name": "revokeRole",
      "outputs": [],
      "stateMutability": "nonpayable",
      "type": "function"
    },
    {
      "inputs": [
        {
          "internalType": "bytes4",
          "name": "interfaceId",
          "type": "bytes4"
        }
      ],
      "name": "supportsInterface",
      "outputs": [
        {
          "internalType": "bool",
          "name": "",
          "type": "bool"
        }
      ],
      "stateMutability": "view",
      "type": "function"
    },
    {
      "inputs": [
        {
          "internalType": "uint256",
          "name": "rollupID",
          "type": "uint256"
        },
        {
          "components": [
            {
              "internalType": "address",
              "name": "tssAddress",
              "type": "address"
            },
            {
              "internalType": "string",
              "name": "rollupName",
              "type": "string"
            },
            {
              "internalType": "address",
              "name": "rollupAdmin",
              "type": "address"
            },
            {
              "internalType": "string",
              "name": "metadataURI",
              "type": "string"
            }
          ],
          "internalType": "struct RegistryContract.RollupInfo",
          "name": "newInfo",
          "type": "tuple"
        }
      ],
      "name": "updateRollupInfo",
      "outputs": [],
      "stateMutability": "nonpayable",
      "type": "function"
    }
  ],
  "bytecode": "0x6080806040523461009d573360009081527fad3228b676f7d3cd4284a5443f17f1962b36e491b30a40b2405849e597ba5fb5602052604081205460ff161561004f575b506112b590816100a38239f35b808052806020526040812033825260205260408120600160ff19825416179055339033907f2f8788117e7eff1d82e926ec794901d17c78024a50270940304540a733656f0d8180a438610042565b600080fdfe608060408181526004918236101561001657600080fd5b600092833560e01c91826301ffc9a714610a7457508163248a9ca314610a4a578163261c6a41146109fe5781632f2ff15d1461096057816336568abe146108d857816347eb7a9a1461084957816367a95e0114610579578163726791c11461049057816391d1485414610456578163a217fddf1461043b578163b0082827146100df575063d547741f146100a957600080fd5b346100db5760016100d8916100d36100c036610ac7565b9390928387528660205286200154610d6a565b610ec8565b80f35b5080fd5b91905034610437576100f036610af2565b818552600160208181528487206002015493959294919390916001600160a01b0391821633036103f55786885284835261013082828a205416151561114c565b6101458261013d88611072565b161515611086565b868852848352808820908261015988611072565b166bffffffffffffffffffffffff60a01b908184541617835586830193610182868a018a6110c8565b67ffffffffffffffff96918782116103e257908a8e84936101a88c9a99989796546110fb565b601f9c818e8093116103b5575b505050818c851160011461033f579361020e999795938193829360039b999794610334575b50501b9160001990891b1c19161790555b6101fa60028501938d01611072565b1690825416179055019660608101906110c8565b9490928511610321575061022286546110fb565b8381116102eb575b50879284116001146102885750928293918392889461027d575b50501b916000199060031b1c19161790555b7ff1ff06ec44fb2930e8b903ad4ed560d8aeb21da2b6d0a57ef1bb744b1fea3a4b8280a280f35b013592503880610244565b9183601f198116878a52848a20948a905b888383106102d157505050106102b7575b505050811b019055610256565b0135600019600384901b60f8161c191690553880806102aa565b868601358855909601959384019387935090810190610299565b61031290878a52828a208580880160051c820192858910610318575b0160051c0190611135565b3861022a565b92508192610307565b634e487b7160e01b895260419052602488fd5b0135925038806101da565b91601f9493941984168684528b8420935b8c82821061039657505091600399979593918561020e9c9a9896941061037e575b505050811b0190556101eb565b0135600019838b1b60f8161c19169055388080610371565b91929596849587849396013581550195019201908f9594939291610350565b6103da928886528286209181890160051c8301938910610318570160051c0190611135565b8b8a386101b5565b634e487b7160e01b8e5260418a5260248efd5b5162461bcd60e51b8152808401839052601e60248201527f43616c6c6572206973206e6f742074686520726f6c6c75702061646d696e00006044820152606490fd5b8280fd5b5050346100db57816003193601126100db5751908152602090f35b5050346100db5760ff8160209361046c36610ac7565b9082528186528282206001600160a01b039091168252855220549151911615158152f35b90503461043757602080600319360112610575578261057192359460608083516104b981610e74565b8381528186820152838582015201528581526001835260018060a01b03956104e7878484205416151561114c565b8152600183522090846105578551956104ff87610e74565b828554168752608061051360018701611190565b85890190815261053260038660028a01541698858c01998a5201611190565b9560608a0196875283519a8b9a828c525116908a0152519188015260a0870190610b4b565b925116606085015251838203601f19016080850152610b4b565b0390f35b8380fd5b919050346104375761058a36610af2565b919092610595610b70565b6001600160a01b03916105ab8361013d86611072565b8486526001926020918483528181892054166108075786885284835280882090826105d588611072565b166bffffffffffffffffffffffff60a01b9081845416178355868301936105fe868a018a6110c8565b67ffffffffffffffff96918782116103e257908a8e84936106248c9a99989796546110fb565b601f9c818e8093116107da575b505050818c851160011461077d5793610674999795938193829360039b9997946103345750501b9160001990891b1c19161790556101fa60028501938d01611072565b9490928511610321575061068886546110fb565b838111610751575b50879284116001146106ee575092829391839288946106e3575b50501b916000199060031b1c19161790555b7f8ff6399fef73860f5159c5c33cfc0926bfd0b9e9bb61d243322260d2efad30cf8280a280f35b0135925038806106aa565b9183601f198116878a52848a20948a905b88838310610737575050501061071d575b505050811b0190556106bc565b0135600019600384901b60f8161c19169055388080610710565b8686013588559096019593840193879350908101906106ff565b61077790878a52828a208580880160051c820192858910610318570160051c0190611135565b38610690565b91601f9493941984168684528b8420935b8c8282106107bb5750509160039997959391856106749c9a9896941061037e57505050811b0190556101eb565b91929596849587849396013581550195019201908f959493929161078e565b6107ff928886528286209181890160051c8301938910610318570160051c0190611135565b8b8a38610631565b5162461bcd60e51b8152808401839052601960248201527f526f6c6c757020616c72656164792072656769737465726564000000000000006044820152606490fd5b9050346104375760203660031901126104375760036108b191359261086c610b70565b83855260016020528085205461088c906001600160a01b0316151561114c565b838552600160205284208481556108a560018201611236565b84600282015501611236565b7f092febc153158383e6b3a6492a2f1b7ce6d3e4a8276d16b9fb16e41fff4dad8b8280a280f35b839150346100db576108e936610ac7565b91336001600160a01b038416036109055750906100d891610ec8565b608490602086519162461bcd60e51b8352820152602f60248201527f416363657373436f6e74726f6c3a2063616e206f6e6c792072656e6f756e636560448201526e103937b632b9903337b91039b2b63360891b6064820152fd5b5050346100db5761097036610ac7565b90918284528360205261098860018286200154610d6a565b82845260208481528185206001600160a01b039093168086529290528084205460ff16156109b4578380f35b828452836020528084208285526020528320600160ff1982541617905533917f2f8788117e7eff1d82e926ec794901d17c78024a50270940304540a733656f0d8480a43880808380f35b9050346104375760203660031901126104375735808352600160209081528284205490936001600160a01b03928492610a3a908516151561114c565b8152600185522054169051908152f35b90503461043757602036600319011261043757816020936001923581528085522001549051908152f35b849134610437576020366003190112610437573563ffffffff60e01b81168091036104375760209250637965db0b60e01b8114908115610ab6575b5015158152f35b6301ffc9a760e01b14905083610aaf565b6040906003190112610aed57600435906024356001600160a01b0381168103610aed5790565b600080fd5b90600319604081840112610aed57600435926024359167ffffffffffffffff8311610aed5782608092030112610aed5760040190565b60005b838110610b3b5750506000910152565b8181015183820152602001610b2b565b90602091610b6481518092818552858086019101610b28565b601f01601f1916010190565b3360009081527fad3228b676f7d3cd4284a5443f17f1962b36e491b30a40b2405849e597ba5fb5602090815260408083205490929060ff1615610bb257505050565b610bbb33610f63565b9080845190610bc982610e74565b60428252848201926060368537825115610d565760308453825190600191821015610d565790607860218501536041915b818311610ce857505050610ca6576048610ca2938693610c8693610c77985198899376020b1b1b2b9b9a1b7b73a3937b61d1030b1b1b7bab73a1604d1b8a860152610c4e815180928c603789019101610b28565b8401917001034b99036b4b9b9b4b733903937b6329607d1b603784015251809386840190610b28565b01036028810187520185610ea6565b5192839262461bcd60e51b845260048401526024830190610b4b565b0390fd5b60648486519062461bcd60e51b825280600483015260248201527f537472696e67733a20686578206c656e67746820696e73756666696369656e746044820152fd5b909192600f81166010811015610d42576f181899199a1a9b1b9c1cb0b131b232b360811b901a610d188587610f3c565b5360041c928015610d2e57600019019190610bfa565b634e487b7160e01b82526011600452602482fd5b634e487b7160e01b83526032600452602483fd5b634e487b7160e01b81526032600452602490fd5b600090808252602090828252604092838120338252835260ff848220541615610d935750505050565b610d9c33610f63565b91845190610da982610e74565b60428252848201926060368537825115610d565760308453825190600191821015610d565790607860218501536041915b818311610e2e57505050610ca6576048610ca2938693610c8693610c77985198899376020b1b1b2b9b9a1b7b73a3937b61d1030b1b1b7bab73a1604d1b8a860152610c4e815180928c603789019101610b28565b909192600f81166010811015610d42576f181899199a1a9b1b9c1cb0b131b232b360811b901a610e5e8587610f3c565b5360041c928015610d2e57600019019190610dda565b6080810190811067ffffffffffffffff821117610e9057604052565b634e487b7160e01b600052604160045260246000fd5b90601f8019910116810190811067ffffffffffffffff821117610e9057604052565b9060009180835282602052604083209160018060a01b03169182845260205260ff604084205416610ef857505050565b80835282602052604083208284526020526040832060ff1981541690557ff6391f5c32d9c69d2a47ea670b442974b53935d1edc7fd64eb21e047a839171b339380a4565b908151811015610f4d570160200190565b634e487b7160e01b600052603260045260246000fd5b604051906060820182811067ffffffffffffffff821117610e9057604052602a8252602082016040368237825115610f4d57603090538151600190811015610f4d57607860218401536029905b808211611004575050610fc05790565b606460405162461bcd60e51b815260206004820152602060248201527f537472696e67733a20686578206c656e67746820696e73756666696369656e746044820152fd5b9091600f8116601081101561105d576f181899199a1a9b1b9c1cb0b131b232b360811b901a6110338486610f3c565b5360041c918015611048576000190190610fb0565b60246000634e487b7160e01b81526011600452fd5b60246000634e487b7160e01b81526032600452fd5b356001600160a01b0381168103610aed5790565b1561108d57565b60405162461bcd60e51b8152602060048201526013602482015272496e76616c696420545353206164647265737360681b6044820152606490fd5b903590601e1981360301821215610aed570180359067ffffffffffffffff8211610aed57602001918136038313610aed57565b90600182811c9216801561112b575b602083101461111557565b634e487b7160e01b600052602260045260246000fd5b91607f169161110a565b818110611140575050565b60008155600101611135565b1561115357565b60405162461bcd60e51b8152602060048201526015602482015274149bdb1b1d5c081b9bdd081c9959da5cdd195c9959605a1b6044820152606490fd5b90604051918260008254926111a4846110fb565b90818452600194858116908160001461121357506001146111d0575b50506111ce92500383610ea6565b565b9093915060005260209081600020936000915b8183106111fb5750506111ce935082010138806111c0565b855488840185015294850194879450918301916111e3565b9150506111ce94506020925060ff191682840152151560051b82010138806111c0565b61124081546110fb565b908161124a575050565b81601f6000931160011461125c575055565b90808391825261127b601f60208420940160051c840160018501611135565b555556fea2646970667358221220c5ee8748e618d20b8fb56a842b58c1a4cc6fbec156b090b6c02593bd387483b664736f6c63430008130033",
  "linkReferences": {},
  "deployedLinkReferences": {}
}