{
  "_format": "hh-sol-artifact-1",
  "contractName": "ChildERC20",
  "sourceName": "contracts/dojimachain/evm/ChildERC20.sol",
  "abi": [
    {
      "inputs": [
        {
          "internalType": "address",
          "name": "",
          "type": "address"
        },
        {
          "internalType": "address",
          "name": "_token",
          "type": "address"
        },
        {
          "internalType": "string",
          "name": "name",
          "type": "string"
        },
        {
          "internalType": "string",
          "name": "symbol",
          "type": "string"
        },
        {
          "internalType": "uint8",
          "name": "decimals",
          "type": "uint8"
        }
      ],
      "stateMutability": "nonpayable",
      "type": "constructor"
    },
    {
      "anonymous": false,
      "inputs": [
        {
          "indexed": true,
          "internalType": "address",
          "name": "owner",
          "type": "address"
        },
        {
          "indexed": true,
          "internalType": "address",
          "name": "spender",
          "type": "address"
        },
        {
          "indexed": false,
          "internalType": "uint256",
          "name": "value",
          "type": "uint256"
        }
      ],
      "name": "Approval",
      "type": "event"
    },
    {
      "anonymous": false,
      "inputs": [
        {
          "indexed": true,
          "internalType": "address",
          "name": "previousAddress",
          "type": "address"
        },
        {
          "indexed": true,
          "internalType": "address",
          "name": "newAddress",
          "type": "address"
        }
      ],
      "name": "ChildChainChanged",
      "type": "event"
    },
    {
      "anonymous": false,
      "inputs": [
        {
          "indexed": true,
          "internalType": "address",
          "name": "token",
          "type": "address"
        },
        {
          "indexed": true,
          "internalType": "address",
          "name": "from",
          "type": "address"
        },
        {
          "indexed": false,
          "internalType": "uint256",
          "name": "amount",
          "type": "uint256"
        },
        {
          "indexed": false,
          "internalType": "uint256",
          "name": "oldBalance",
          "type": "uint256"
        },
        {
          "indexed": false,
          "internalType": "uint256",
          "name": "newBalance",
          "type": "uint256"
        }
      ],
      "name": "Deposit",
      "type": "event"
    },
    {
      "anonymous": false,
      "inputs": [
        {
          "indexed": true,
          "internalType": "address",
          "name": "token",
          "type": "address"
        },
        {
          "indexed": true,
          "internalType": "address",
          "name": "from",
          "type": "address"
        },
        {
          "indexed": true,
          "internalType": "address",
          "name": "to",
          "type": "address"
        },
        {
          "indexed": false,
          "internalType": "uint256",
          "name": "amount",
          "type": "uint256"
        },
        {
          "indexed": false,
          "internalType": "uint256",
          "name": "input1",
          "type": "uint256"
        },
        {
          "indexed": false,
          "internalType": "uint256",
          "name": "input2",
          "type": "uint256"
        },
        {
          "indexed": false,
          "internalType": "uint256",
          "name": "output1",
          "type": "uint256"
        },
        {
          "indexed": false,
          "internalType": "uint256",
          "name": "output2",
          "type": "uint256"
        }
      ],
      "name": "LogFeeTransfer",
      "type": "event"
    },
    {
      "anonymous": false,
      "inputs": [
        {
          "indexed": true,
          "internalType": "address",
          "name": "token",
          "type": "address"
        },
        {
          "indexed": true,
          "internalType": "address",
          "name": "from",
          "type": "address"
        },
        {
          "indexed": true,
          "internalType": "address",
          "name": "to",
          "type": "address"
        },
        {
          "indexed": false,
          "internalType": "uint256",
          "name": "amount",
          "type": "uint256"
        },
        {
          "indexed": false,
          "internalType": "uint256",
          "name": "fromAddressOldBalance",
          "type": "uint256"
        },
        {
          "indexed": false,
          "internalType": "uint256",
          "name": "toAddressOldBalance",
          "type": "uint256"
        },
        {
          "indexed": false,
          "internalType": "uint256",
          "name": "fromAddressNewBalance",
          "type": "uint256"
        },
        {
          "indexed": false,
          "internalType": "uint256",
          "name": "toAddressNewBalance",
          "type": "uint256"
        }
      ],
      "name": "LogTransfer",
      "type": "event"
    },
    {
      "anonymous": false,
      "inputs": [
        {
          "indexed": true,
          "internalType": "address",
          "name": "previousOwner",
          "type": "address"
        },
        {
          "indexed": true,
          "internalType": "address",
          "name": "newOwner",
          "type": "address"
        }
      ],
      "name": "OwnershipTransferred",
      "type": "event"
    },
    {
      "anonymous": false,
      "inputs": [
        {
          "indexed": true,
          "internalType": "address",
          "name": "previousAddress",
          "type": "address"
        },
        {
          "indexed": true,
          "internalType": "address",
          "name": "newAddress",
          "type": "address"
        }
      ],
      "name": "ParentChanged",
      "type": "event"
    },
    {
      "anonymous": false,
      "inputs": [
        {
          "indexed": true,
          "internalType": "address",
          "name": "previousAddress",
          "type": "address"
        },
        {
          "indexed": true,
          "internalType": "address",
          "name": "newAddress",
          "type": "address"
        }
      ],
      "name": "StateSyncerAddressChanged",
      "type": "event"
    },
    {
      "anonymous": false,
      "inputs": [
        {
          "indexed": true,
          "internalType": "address",
          "name": "from",
          "type": "address"
        },
        {
          "indexed": true,
          "internalType": "address",
          "name": "to",
          "type": "address"
        },
        {
          "indexed": false,
          "internalType": "uint256",
          "name": "value",
          "type": "uint256"
        }
      ],
      "name": "Transfer",
      "type": "event"
    },
    {
      "anonymous": false,
      "inputs": [
        {
          "indexed": true,
          "internalType": "address",
          "name": "token",
          "type": "address"
        },
        {
          "indexed": true,
          "internalType": "address",
          "name": "from",
          "type": "address"
        },
        {
          "indexed": false,
          "internalType": "uint256",
          "name": "amount",
          "type": "uint256"
        },
        {
          "indexed": false,
          "internalType": "uint256",
          "name": "oldBalance",
          "type": "uint256"
        },
        {
          "indexed": false,
          "internalType": "uint256",
          "name": "newBalance",
          "type": "uint256"
        }
      ],
      "name": "Withdraw",
      "type": "event"
    },
    {
      "inputs": [],
      "name": "CHAINID",
      "outputs": [
        {
          "internalType": "uint256",
          "name": "",
          "type": "uint256"
        }
      ],
      "stateMutability": "view",
      "type": "function"
    },
    {
      "inputs": [],
      "name": "EIP712_DOMAIN_SCHEMA_HASH",
      "outputs": [
        {
          "internalType": "bytes32",
          "name": "",
          "type": "bytes32"
        }
      ],
      "stateMutability": "view",
      "type": "function"
    },
    {
      "inputs": [],
      "name": "EIP712_TOKEN_TRANSFER_ORDER_SCHEMA_HASH",
      "outputs": [
        {
          "internalType": "bytes32",
          "name": "",
          "type": "bytes32"
        }
      ],
      "stateMutability": "view",
      "type": "function"
    },
    {
      "inputs": [],
      "name": "NETWORK_ID",
      "outputs": [
        {
          "internalType": "bytes",
          "name": "",
          "type": "bytes"
        }
      ],
      "stateMutability": "view",
      "type": "function"
    },
    {
      "inputs": [],
      "name": "_decimals",
      "outputs": [
        {
          "internalType": "uint8",
          "name": "",
          "type": "uint8"
        }
      ],
      "stateMutability": "view",
      "type": "function"
    },
    {
      "inputs": [],
      "name": "_name",
      "outputs": [
        {
          "internalType": "string",
          "name": "",
          "type": "string"
        }
      ],
      "stateMutability": "view",
      "type": "function"
    },
    {
      "inputs": [],
      "name": "_symbol",
      "outputs": [
        {
          "internalType": "string",
          "name": "",
          "type": "string"
        }
      ],
      "stateMutability": "view",
      "type": "function"
    },
    {
      "inputs": [
        {
          "internalType": "address",
          "name": "",
          "type": "address"
        },
        {
          "internalType": "address",
          "name": "",
          "type": "address"
        }
      ],
      "name": "allowance",
      "outputs": [
        {
          "internalType": "uint256",
          "name": "",
          "type": "uint256"
        }
      ],
      "stateMutability": "pure",
      "type": "function"
    },
    {
      "inputs": [
        {
          "internalType": "address",
          "name": "",
          "type": "address"
        },
        {
          "internalType": "uint256",
          "name": "",
          "type": "uint256"
        }
      ],
      "name": "approve",
      "outputs": [
        {
          "internalType": "bool",
          "name": "",
          "type": "bool"
        }
      ],
      "stateMutability": "pure",
      "type": "function"
    },
    {
      "inputs": [
        {
          "internalType": "address",
          "name": "account",
          "type": "address"
        }
      ],
      "name": "balanceOf",
      "outputs": [
        {
          "internalType": "uint256",
          "name": "",
          "type": "uint256"
        }
      ],
      "stateMutability": "view",
      "type": "function"
    },
    {
      "inputs": [
        {
          "internalType": "address",
          "name": "newAddress",
          "type": "address"
        }
      ],
      "name": "changeChildChain",
      "outputs": [],
      "stateMutability": "nonpayable",
      "type": "function"
    },
    {
      "inputs": [
        {
          "internalType": "address",
          "name": "newAddress",
          "type": "address"
        }
      ],
      "name": "changeStateSyncerAddress",
      "outputs": [],
      "stateMutability": "nonpayable",
      "type": "function"
    },
    {
      "inputs": [],
      "name": "childChain",
      "outputs": [
        {
          "internalType": "address",
          "name": "",
          "type": "address"
        }
      ],
      "stateMutability": "view",
      "type": "function"
    },
    {
      "inputs": [],
      "name": "decimals",
      "outputs": [
        {
          "internalType": "uint8",
          "name": "",
          "type": "uint8"
        }
      ],
      "stateMutability": "view",
      "type": "function"
    },
    {
      "inputs": [
        {
          "internalType": "address",
          "name": "user",
          "type": "address"
        },
        {
          "internalType": "uint256",
          "name": "amount",
          "type": "uint256"
        }
      ],
      "name": "deposit",
      "outputs": [],
      "stateMutability": "nonpayable",
      "type": "function"
    },
    {
      "inputs": [
        {
          "internalType": "bytes32",
          "name": "",
          "type": "bytes32"
        }
      ],
      "name": "disabledHashes",
      "outputs": [
        {
          "internalType": "bool",
          "name": "",
          "type": "bool"
        }
      ],
      "stateMutability": "view",
      "type": "function"
    },
    {
      "inputs": [
        {
          "internalType": "bytes32",
          "name": "hash",
          "type": "bytes32"
        },
        {
          "internalType": "bytes",
          "name": "sig",
          "type": "bytes"
        }
      ],
      "name": "ecrecovery",
      "outputs": [
        {
          "internalType": "address",
          "name": "result",
          "type": "address"
        }
      ],
      "stateMutability": "pure",
      "type": "function"
    },
    {
      "inputs": [],
      "name": "eip712DomainHash",
      "outputs": [
        {
          "internalType": "bytes32",
          "name": "",
          "type": "bytes32"
        }
      ],
      "stateMutability": "view",
      "type": "function"
    },
    {
      "inputs": [],
      "name": "getToken",
      "outputs": [
        {
          "internalType": "address",
          "name": "",
          "type": "address"
        }
      ],
      "stateMutability": "view",
      "type": "function"
    },
    {
      "inputs": [
        {
          "internalType": "address",
          "name": "spender",
          "type": "address"
        },
        {
          "internalType": "uint256",
          "name": "tokenIdOrAmount",
          "type": "uint256"
        },
        {
          "internalType": "bytes32",
          "name": "data",
          "type": "bytes32"
        },
        {
          "internalType": "uint256",
          "name": "expiration",
          "type": "uint256"
        }
      ],
      "name": "getTokenTransferOrderHash",
      "outputs": [
        {
          "internalType": "bytes32",
          "name": "orderHash",
          "type": "bytes32"
        }
      ],
      "stateMutability": "view",
      "type": "function"
    },
    {
      "inputs": [],
      "name": "isCallerStateSyncer",
      "outputs": [
        {
          "internalType": "bool",
          "name": "",
          "type": "bool"
        }
      ],
      "stateMutability": "view",
      "type": "function"
    },
    {
      "inputs": [],
      "name": "isOwner",
      "outputs": [
        {
          "internalType": "bool",
          "name": "",
          "type": "bool"
        }
      ],
      "stateMutability": "view",
      "type": "function"
    },
    {
      "inputs": [],
      "name": "name",
      "outputs": [
        {
          "internalType": "string",
          "name": "",
          "type": "string"
        }
      ],
      "stateMutability": "view",
      "type": "function"
    },
    {
      "inputs": [
        {
          "internalType": "uint256",
          "name": "",
          "type": "uint256"
        },
        {
          "internalType": "bytes",
          "name": "data",
          "type": "bytes"
        }
      ],
      "name": "onStateReceive",
      "outputs": [],
      "stateMutability": "nonpayable",
      "type": "function"
    },
    {
      "inputs": [],
      "name": "owner",
      "outputs": [
        {
          "internalType": "address",
          "name": "",
          "type": "address"
        }
      ],
      "stateMutability": "view",
      "type": "function"
    },
    {
      "inputs": [],
      "name": "parent",
      "outputs": [
        {
          "internalType": "address",
          "name": "",
          "type": "address"
        }
      ],
      "stateMutability": "view",
      "type": "function"
    },
    {
      "inputs": [],
      "name": "renounceOwnership",
      "outputs": [],
      "stateMutability": "nonpayable",
      "type": "function"
    },
    {
      "inputs": [
        {
          "internalType": "address",
          "name": "newAddress",
          "type": "address"
        }
      ],
      "name": "setParent",
      "outputs": [],
      "stateMutability": "nonpayable",
      "type": "function"
    },
    {
      "inputs": [],
      "name": "stateSyncer",
      "outputs": [
        {
          "internalType": "address",
          "name": "",
          "type": "address"
        }
      ],
      "stateMutability": "view",
      "type": "function"
    },
    {
      "inputs": [],
      "name": "symbol",
      "outputs": [
        {
          "internalType": "string",
          "name": "",
          "type": "string"
        }
      ],
      "stateMutability": "view",
      "type": "function"
    },
    {
      "inputs": [],
      "name": "token",
      "outputs": [
        {
          "internalType": "address",
          "name": "",
          "type": "address"
        }
      ],
      "stateMutability": "view",
      "type": "function"
    },
    {
      "inputs": [],
      "name": "totalSupply",
      "outputs": [
        {
          "internalType": "uint256",
          "name": "",
          "type": "uint256"
        }
      ],
      "stateMutability": "view",
      "type": "function"
    },
    {
      "inputs": [
        {
          "internalType": "address",
          "name": "to",
          "type": "address"
        },
        {
          "internalType": "uint256",
          "name": "value",
          "type": "uint256"
        }
      ],
      "name": "transfer",
      "outputs": [
        {
          "internalType": "bool",
          "name": "",
          "type": "bool"
        }
      ],
      "stateMutability": "nonpayable",
      "type": "function"
    },
    {
      "inputs": [
        {
          "internalType": "address",
          "name": "",
          "type": "address"
        },
        {
          "internalType": "address",
          "name": "",
          "type": "address"
        },
        {
          "internalType": "uint256",
          "name": "",
          "type": "uint256"
        }
      ],
      "name": "transferFrom",
      "outputs": [
        {
          "internalType": "bool",
          "name": "",
          "type": "bool"
        }
      ],
      "stateMutability": "pure",
      "type": "function"
    },
    {
      "inputs": [
        {
          "internalType": "address",
          "name": "newOwner",
          "type": "address"
        }
      ],
      "name": "transferOwnership",
      "outputs": [],
      "stateMutability": "nonpayable",
      "type": "function"
    },
    {
      "inputs": [
        {
          "internalType": "bytes",
          "name": "sig",
          "type": "bytes"
        },
        {
          "internalType": "uint256",
          "name": "amount",
          "type": "uint256"
        },
        {
          "internalType": "bytes32",
          "name": "data",
          "type": "bytes32"
        },
        {
          "internalType": "uint256",
          "name": "expiration",
          "type": "uint256"
        },
        {
          "internalType": "address",
          "name": "to",
          "type": "address"
        }
      ],
      "name": "transferWithSig",
      "outputs": [
        {
          "internalType": "address",
          "name": "from",
          "type": "address"
        }
      ],
      "stateMutability": "nonpayable",
      "type": "function"
    },
    {
      "inputs": [
        {
          "internalType": "uint256",
          "name": "amount",
          "type": "uint256"
        }
      ],
      "name": "withdraw",
      "outputs": [],
      "stateMutability": "payable",
      "type": "function"
    }
  ],
  "bytecode": "0x60a0604090808252346200053b576200234b80380380916200002282856200058e565b8339810160a0828203126200053b576200003c82620005b2565b506020906200004d828401620005b2565b838501516001600160401b0392908381116200053b578162000071918701620005c7565b9060608601518481116200053b576080916200008f918801620005c7565b9501519460ff861686036200053b57600080546001600160a01b031980821633908117845588926001600160a01b03919082167f8be0079c531659141344cd1fd0a4f28419497f9722a3daafe3b4186f6b6457e08680a38a51620000f38162000540565b60528082527f454950373132446f6d61696e28737472696e67206e616d652c737472696e6720858301527f76657273696f6e2c75696e7432353620636861696e49642c61646472657373208d83015271766572696679696e67436f6e74726163742960701b60608301528c5191865b8281106200052657505085607283015281526200017f8162000540565b8381519101208b600e858251620001968162000572565b828152016d446f6a696d61204e6574776f726b60901b8152208151620001bc8162000572565b600596818880935201640312e302e360dc1b815220908251928d8401948552830152606082015261057960808201523060a082015260a0815260c081018181108b82111762000512578d5251902096600197885561100180846006541617600655857f98e6a46aa139a033b9c7f3ae4ad1c103ffdce3e7cf509326808ba8c4b5af11c08180a3169081156200050e5760025416176002558351868111620004fa57600a54948686811c96168015620004ef575b89871014620004db578190601f9687811162000489575b5089908783116001146200042357859262000417575b5050600019600383901b1c191690861b17600a555b82519586116200040357600b54908582811c92168015620003f8575b88831014620003e4578482116200039d575b5050859285116001146200033457939450849291908362000328575b50501b916000199060031b1c191617600b555b60805251611d0c90816200063f8239608051816108db0152f35b015192503880620002fb565b600b815285812093958591601f198316915b8883831062000382575050501062000368575b505050811b01600b556200030e565b015160001960f88460031b161c1916905538808062000359565b85870151885590960195948501948793509081019062000346565b600b83528783209085808901821c8301938a8a10620003da575b01901c019085905b828110620003ce5750620002df565b838155018590620003bf565b93508293620003b7565b634e487b7160e01b83526022600452602483fd5b91607f1691620002cd565b634e487b7160e01b82526041600452602482fd5b0151905038806200029c565b600a86528a86208994509190601f198416875b8d82821062000472575050841162000458575b505050811b01600a55620002b1565b015160001960f88460031b161c1916905538808062000449565b8385015186558c9790950194938401930162000436565b909150600a855289852087808501861c8201928c8610620004d1575b918a918695949301871c01915b828110620004c257505062000286565b8781558594508a9101620004b2565b92508192620004a5565b634e487b7160e01b84526022600452602484fd5b95607f16956200026f565b634e487b7160e01b83526041600452602483fd5b8380fd5b634e487b7160e01b87526041600452602487fd5b8181018701518482018801528c960162000162565b600080fd5b608081019081106001600160401b038211176200055c57604052565b634e487b7160e01b600052604160045260246000fd5b604081019081106001600160401b038211176200055c57604052565b601f909101601f19168101906001600160401b038211908210176200055c57604052565b51906001600160a01b03821682036200053b57565b919080601f840112156200053b578251906001600160401b0382116200055c576040519160209162000603601f8301601f19168401856200058e565b8184528282870101116200053b5760005b8181106200062a57508260009394955001015290565b85810183015184820184015282016200061456fe6080604052600436101561001257600080fd5b60003560e01c806306fdde03146101db578063095ea7b3146102535780631499c5921461024e57806318160ddd1461024957806319d27d9c146102445780631c3895ad1461023f57806321df0da7146101b357806323b872dd1461023a57806326c53bea1461023557806328ce8b31146102305780632e1a7d4d1461022b578063313ce5671461022657806332424aa31461022657806342fc47fb1461022157806347e7ef241461021c57806360f96a8f1461021757806370a0823114610212578063715018a61461020d57806377d32e94146102085780638da5cb5b146102035780638f32d59b146101fe57806395d89b41146101ea578063a9059cbb146101f9578063abceeba2146101f4578063acd06cb3146101ef578063b09f1266146101ea578063b789543c146101e5578063cc79f97b146101e0578063d28d8852146101db578063dd62ed3e146101d6578063df555007146101d1578063e614d0d6146101cc578063ed9ef524146101c7578063f2fde38b146101c2578063f4ef4d69146101bd578063f94dc4bc146101b85763fc0c546a146101b357600080fd5b6106af565b611262565b611239565b6111c6565b6110cb565b6110b0565b610f2f565b610f13565b610298565b610ef6565b610ea0565b610c8a565b610e6f565b610e4c565b610d52565b610c62565b610c39565b610bd8565b610b34565b610af7565b610ace565b610928565b6108ff565b6108c1565b6108a9565b610866565b6106ff565b6106d8565b610687565b610538565b6104ec565b6103e6565b6103c5565b919082519283825260005b848110610284575050826000602080949584010152601f8019910116010190565b602081830181015184830182015201610263565b346103af576000806003193601126103ac576040519080600a549160019183831c928085169182156103a2575b602095868610841461038e5785885287949360208601939291811561036f5750600114610314575b5050506102fc92500383610844565b610310604051928284938452830190610258565b0390f35b600a6000527fc65a7bb8d6351c1cf70c95a316cc6a92839c986682d98bc35f958f4883f9d2a895909350905b86828510610359575050506102fc9350013880806102ed565b8654858501529581019588955090930192610340565b925050506102fc9491925060ff19168252151560051b013880806102ed565b634e487b7160e01b82526022600452602482fd5b93607f16936102c5565b80fd5b600080fd5b6001600160a01b038116036103af57565b346103af5760403660031901126103af576103e16004356103b4565b611b8a565b346103af5760203660031901126103af57600435610403816103b4565b6000546001600160a01b039061041c90821633146112b3565b811690811561048b576004546104899290610447906001600160a01b03165b6001600160a01b031690565b7fc9e4c719f349d4c91a37138eb5cf0ba2670c592a764f8c0b18c603ba9178cc1d600080a360018060a01b03166001600160601b0360a01b6004541617600455565b005b60405162461bcd60e51b815260206004820152603360248201527f4368696c6420746f6b656e3a206e657720706172656e74206164647265737320604482015272697320746865207a65726f206164647265737360681b6064820152608490fd5b346103af5760003660031901126103af576020600954604051908152f35b9181601f840112156103af5782359167ffffffffffffffff83116103af57602083818601950101116103af57565b346103af5760a03660031901126103af5760043567ffffffffffffffff81116103af5761056990369060040161050a565b90602435606435906084359261057e846103b4565b811561064a576103109461060f610615926105bc6105b58761062598158015610640575b6105ab906112fe565b6044358833611280565b309061137f565b926105e46105de6105d7866000526005602052604060002090565b5460ff1690565b15611341565b6106086105fb856000526005602052604060002090565b805460ff19166001179055565b3691610b91565b90611c15565b926001600160a01b031683611491565b506040516001600160a01b0390911681529081906020820190565b50438110156105a2565b60405162461bcd60e51b8152602060048201526015602482015274115490cc8c0e881a5b9d985b1a5908185b5bdd5b9d605a1b6044820152606490fd5b346103af5760003660031901126103af57602060018060a01b03600654163314604051908152f35b346103af5760003660031901126103af576002546040516001600160a01b039091168152602090f35b346103af5760603660031901126103af576106f46004356103b4565b6103e16024356103b4565b346103af5760403660031901126103af5760243567ffffffffffffffff81116103af5761073090369060040161050a565b6006546001600160a01b039291908316330361078e5781604091810103126103af57610489916020823592610764846103b4565b0135911681816000526007602052604060002054908110610786575b50611664565b915038610780565b60405162461bcd60e51b815260206004820152603560248201527f53746174652073796e6365723a2063616c6c6572206973206e6f7420746865206044820152741cdd185d19481cde5b98d95c8818dbdb9d1c9858dd605a1b6064820152608490fd5b634e487b7160e01b600052604160045260246000fd5b6040810190811067ffffffffffffffff82111761082357604052565b6107f1565b6080810190811067ffffffffffffffff82111761082357604052565b90601f8019910116810190811067ffffffffffffffff82111761082357604052565b346103af5760003660031901126103af5761031060405161088681610807565b600281526103e960f01b6020820152604051918291602083526020830190610258565b60203660031901126103af5761048960043533611664565b346103af5760003660031901126103af57602060405160ff7f0000000000000000000000000000000000000000000000000000000000000000168152f35b346103af5760003660031901126103af576003546040516001600160a01b039091168152602090f35b346103af5760403660031901126103af57600435610945816103b4565b600354602435906001600160a01b039081163303610a6d5781151580610a62575b15610a06576001600160a01b03831660009081526007602052604090207f4e2ca0515ed1aef1395f66b5303bb5d6f1bf9d61a353fa53f73f8ac9973fa9f6919054936109b28482611a65565b600254610a01906001600160a01b03166001600160a01b038316600090815260076020526040902090969054908460405195869516981696846040919493926060820195825260208201520152565b0390a3005b60405162461bcd60e51b815260206004820152602e60248201527f45524332303a20696e76616c69642075736572206164647265737320616e642060448201526d19195c1bdcda5d08185b5bdd5b9d60921b6064820152608490fd5b508083161515610966565b60405162461bcd60e51b815260206004820152603360248201527f4368696c6420746f6b656e3a2063616c6c6572206973206e6f742074686520636044820152721a1a5b190818da185a5b8818dbdb9d1c9858dd606a1b6064820152608490fd5b346103af5760003660031901126103af576004546040516001600160a01b039091168152602090f35b346103af5760203660031901126103af57600435610b14816103b4565b60018060a01b031660005260076020526020604060002054604051908152f35b346103af576000806003193601126103ac578054816001600160a01b038216610b5e3382146112b3565b7f8be0079c531659141344cd1fd0a4f28419497f9722a3daafe3b4186f6b6457e08280a36001600160a01b031916815580f35b92919267ffffffffffffffff82116108235760405191610bbb601f8201601f191660200184610844565b8294818452818301116103af578281602093846000960137010152565b346103af5760403660031901126103af5760243567ffffffffffffffff81116103af57366023820112156103af57610c27610c1f6020923690602481600401359101610b91565b600435611c15565b6040516001600160a01b039091168152f35b346103af5760003660031901126103af576000546040516001600160a01b039091168152602090f35b346103af5760003660031901126103af57602060018060a01b03600054163314604051908152f35b346103af576000806003193601126103ac576040519080600b549160019183831c92808516918215610d48575b602095868610841461038e5785885287949360208601939291811561036f5750600114610ced575050506102fc92500383610844565b600b6000527f0175b7a638427703f0dbe7bb9bbf987a2551717b34e79f33b5b1008d1fa01db995909350905b86828510610d32575050506102fc9350013880806102ed565b8654858501529581019588955090930192610d19565b93607f1693610cb7565b346103af5760403660031901126103af576020610d7d600435610d74816103b4565b602435906117de565b6040519015158152f35b604051610d9381610828565b605b8082526020907f546f6b656e5472616e736665724f726465722861646472657373207370656e64828401527f65722c75696e7432353620746f6b656e49644f72416d6f756e742c627974657360408401527f333220646174612c75696e743235362065787069726174696f6e2900000000006060840152604051928260005b838110610e38575050506000607b8401528252610e3082610828565b815191012090565b818184010151828288010152018390610e14565b346103af5760003660031901126103af576020610e67610d87565b604051908152f35b346103af5760203660031901126103af576004356000526005602052602060ff604060002054166040519015158152f35b346103af5760803660031901126103af576020610e67610ed6600435610ec5816103b4565b606435906044359060243590611280565b6001546042916040519161190160f01b8352600283015260228201522090565b346103af5760003660031901126103af5760206040516105798152f35b346103af5760403660031901126103af576106f46004356103b4565b346103af5760203660031901126103af57600435610f4c816103b4565b6000546001600160a01b039190610f6690831633146112b3565b8181168015610fb95761048992600654167f98e6a46aa139a033b9c7f3ae4ad1c103ffdce3e7cf509326808ba8c4b5af11c0600080a360018060a01b03166001600160601b0360a01b6006541617600655565b60405162461bcd60e51b815260206004820152601d60248201527f53746174652073796e6365723a20696e76616c696420616464726573730000006044820152606490fd5b60405161100a81610828565b60528082526020907f454950373132446f6d61696e28737472696e67206e616d652c737472696e6720828401527f76657273696f6e2c75696e7432353620636861696e49642c6164647265737320604084015271766572696679696e67436f6e74726163742960701b6060840152604051928260005b83811061109c57505050600060728401528252610e3082610828565b818184010151828288010152018390611080565b346103af5760003660031901126103af576020610e67610ffe565b346103af5760203660031901126103af576004356110e8816103b4565b6000546001600160a01b039061110190821633146112b3565b8116908115611166576003546104899290611124906001600160a01b031661043b565b7f1f9f3556dd336016cdf20adaead7d5c73665dba664b60e8c17e9a4eb91ce1d39600080a360018060a01b03166001600160601b0360a01b6003541617600355565b60405162461bcd60e51b815260206004820152603260248201527f4368696c6420746f6b656e3a206e6577206368696c64206164647265737320696044820152717320746865207a65726f206164647265737360701b6064820152608490fd5b346103af5760203660031901126103af576004356111e3816103b4565b6000805490916001600160a01b03808316916112003384146112b3565b1680926001600160601b0360a01b161783557f8be0079c531659141344cd1fd0a4f28419497f9722a3daafe3b4186f6b6457e08380a380f35b346103af5760003660031901126103af576006546040516001600160a01b039091168152602090f35b346103af5760003660031901126103af576020600154604051908152f35b9160a0939161128d610d87565b93604051948552600180871b031660208501526040840152606083015260808201522090565b156112ba57565b606460405162461bcd60e51b815260206004820152602060248201527f4f776e61626c653a2063616c6c6572206973206e6f7420746865206f776e65726044820152fd5b1561130557565b60405162461bcd60e51b815260206004820152601460248201527314da59db985d1d5c99481a5cc8195e1c1a5c995960621b6044820152606490fd5b1561134857565b60405162461bcd60e51b815260206004820152600f60248201526e14da59c819195858dd1a5d985d1959608a1b6044820152606490fd5b611387610ffe565b6d446f6a696d61204e6574776f726b60901b60206040516113a781610807565b600e81520152640312e302e360dc1b60206040516113c481610807565b60058152015260405192602084019182527f221f8a440277f355573de882ed84f79b3742ae470474223812e292fd8a8bfa4460408501527f06c015bd22b4c69690933c1058878ebdfef31f9aaae40bbe86d8a09fe1b2972c6060850152610579608085015260018060a01b031660a084015260a0835260c083019280841067ffffffffffffffff85111761082357604084905251902061190160f01b8352600283015260228201526042902090565b90565b908160209103126103af575190565b6040513d6000823e3d90fd5b6040516370a0823160e01b8082526001600160a01b03831660048301529193602093909291908482602481305afa91821561160457600092611645575b506040518381526001600160a01b0382166004820152948086602481305afa95861561160457600096611626575b5061150885838961193a565b6002546040518581526001600160a01b03898116600483015290911696908281602481305afa90811561160457600091611609575b506040519586526001600160a01b03841660048701528286602481305afa918215611604577fe6497e3ee548a3372136af2fcb0696db31fc6cf20260707645068bd3fe97f3c4966115cd946000946115d5575b505060405195869560018060a01b03808092169c169a1698869192608093969594919660a084019784526020840152604083015260608201520152565b0390a4600190565b6115f5929450803d106115fd575b6115ed8183610844565b810190611476565b913880611590565b503d6115e3565b611485565b6116209150833d85116115fd576115ed8183610844565b3861153d565b8161163e9297503d88116115fd576115ed8183610844565b94386114fc565b61165d919250853d87116115fd576115ed8183610844565b90386114ce565b6001600160a01b038082166000818152600760205260409020549093929091908415611781576001600160a01b03811660009081526007602052604090207febff2602b3f468259e1e99f613fed6691f3a6526effe6ef3e768ba7ae7a36c4f9361177c918690546116d782821015611b33565b036116f48460018060a01b03166000526007602052604060002090565b556117028660095403600955565b6000877fddf252ad1be2c89b69c2b068fc378daa952ba7f163c4a11628f55a4df523b3ef604051806117398b829190602083019252565b0390a36002546001600160a01b03938416600090815260076020526040902093169254906040519485941696846040919493926060820195825260208201520152565b0390a3565b60405162461bcd60e51b815260206004820152601e60248201527f45524332303a20696e76616c6964206163636f756e74206164647265737300006044820152606490fd5b908160209103126103af575180151581036103af5790565b6004549091906001600160a01b039081168015159182611810575b5050611809576114739133611491565b5050600090565b600092509060646020926040519485938492631ffb811f60e01b8452336004850152891660248401528760448401525af190811561160457600091611859575b501538806117f9565b61187a915060203d8111611880575b6118728183610844565b8101906117c6565b38611850565b503d611868565b1561188e57565b60405162461bcd60e51b815260206004820152602360248201527f45524332303a207472616e7366657220746f20746865207a65726f206164647260448201526265737360e81b6064820152608490fd5b156118e657565b60405162461bcd60e51b815260206004820152602660248201527f45524332303a207472616e7366657220616d6f756e7420657863656564732062604482015265616c616e636560d01b6064820152608490fd5b916001600160a01b0380841692909183156119fc576119e6827fddf252ad1be2c89b69c2b068fc378daa952ba7f163c4a11628f55a4df523b3ef9461177c941696611986881515611887565b6001600160a01b03811660009081526007602052604090206119cb908590546119b1828210156118df565b039160018060a01b03166000526007602052604060002090565b556001600160a01b0316600090815260076020526040902090565b8054820190556040519081529081906020820190565b60405162461bcd60e51b815260206004820152602560248201527f45524332303a207472616e736665722066726f6d20746865207a65726f206164604482015264647265737360d81b6064820152608490fd5b634e487b7160e01b600052601160045260246000fd5b6001600160a01b03811691908215611adf5760095490828201809211611ada57600092611acb6020927fddf252ad1be2c89b69c2b068fc378daa952ba7f163c4a11628f55a4df523b3ef9460095560018060a01b03166000526007602052604060002090565b818154019055604051908152a3565b611a4f565b60405162461bcd60e51b815260206004820152602660248201527f45524332303a206d696e7420746f20696e76616c6964206163636f756e74206160448201526564647265737360d01b6064820152608490fd5b15611b3a57565b60405162461bcd60e51b815260206004820152602260248201527f45524332303a206275726e20616d6f756e7420657863656564732062616c616e604482015261636560f01b6064820152608490fd5b60405162461bcd60e51b815260206004820152601060248201526f44697361626c6564206665617475726560801b6044820152606490fd5b60ff601b9116019060ff8211611ada57565b15611bdb57565b60405162461bcd60e51b815260206004820152601260248201527122b93937b91034b71032b1b932b1b7bb32b960711b6044820152606490fd5b9060006041825103611cd0575060208101519160ff604160408401519301511690601b8210611cc0575b60ff8216601b8114159081611cb4575b50611cab57611c83600093602095604051948594859094939260ff6060936080840197845216602083015260408201520152565b838052039060015afa156116045760005190611ca96001600160a01b0383161515611bd4565b565b50505050600090565b601c9150141538611c4f565b90611cca90611bc2565b90611c3f565b9150509056fea2646970667358221220d1042ffd1f7a6d48f01a354188916256ca2956297617630e5dbf6a2c5ef7ea2564736f6c63430008130033",
  "linkReferences": {},
  "deployedLinkReferences": {}
}