{
  "_format": "hh-sol-artifact-1",
  "contractName": "EthereumCrossChainToken",
  "sourceName": "contracts/templates/omnichaintokens/crossChainERC20/EthereumCrossChainToken.sol",
  "abi": [
    {
      "inputs": [
        {
          "internalType": "string",
          "name": "_name",
          "type": "string"
        },
        {
          "internalType": "string",
          "name": "_symbol",
          "type": "string"
        },
        {
          "internalType": "address",
          "name": "_inboundStateSender",
          "type": "address"
        },
        {
          "internalType": "address",
          "name": "_omniChainContractAddress",
          "type": "address"
        }
      ],
      "stateMutability": "nonpayable",
      "type": "constructor"
    },
    {
      "anonymous": false,
      "inputs": [
        {
          "indexed": true,
          "internalType": "address",
          "name": "owner",
          "type": "address"
        },
        {
          "indexed": true,
          "internalType": "address",
          "name": "spender",
          "type": "address"
        },
        {
          "indexed": false,
          "internalType": "uint256",
          "name": "value",
          "type": "uint256"
        }
      ],
      "name": "Approval",
      "type": "event"
    },
    {
      "anonymous": false,
      "inputs": [
        {
          "indexed": true,
          "internalType": "bytes32",
          "name": "role",
          "type": "bytes32"
        },
        {
          "indexed": true,
          "internalType": "bytes32",
          "name": "previousAdminRole",
          "type": "bytes32"
        },
        {
          "indexed": true,
          "internalType": "bytes32",
          "name": "newAdminRole",
          "type": "bytes32"
        }
      ],
      "name": "RoleAdminChanged",
      "type": "event"
    },
    {
      "anonymous": false,
      "inputs": [
        {
          "indexed": true,
          "internalType": "bytes32",
          "name": "role",
          "type": "bytes32"
        },
        {
          "indexed": true,
          "internalType": "address",
          "name": "account",
          "type": "address"
        },
        {
          "indexed": true,
          "internalType": "address",
          "name": "sender",
          "type": "address"
        }
      ],
      "name": "RoleGranted",
      "type": "event"
    },
    {
      "anonymous": false,
      "inputs": [
        {
          "indexed": true,
          "internalType": "bytes32",
          "name": "role",
          "type": "bytes32"
        },
        {
          "indexed": true,
          "internalType": "address",
          "name": "account",
          "type": "address"
        },
        {
          "indexed": true,
          "internalType": "address",
          "name": "sender",
          "type": "address"
        }
      ],
      "name": "RoleRevoked",
      "type": "event"
    },
    {
      "anonymous": false,
      "inputs": [
        {
          "indexed": true,
          "internalType": "address",
          "name": "user",
          "type": "address"
        },
        {
          "indexed": false,
          "internalType": "address",
          "name": "token",
          "type": "address"
        },
        {
          "indexed": false,
          "internalType": "uint256",
          "name": "amount",
          "type": "uint256"
        },
        {
          "indexed": true,
          "internalType": "uint256",
          "name": "depositId",
          "type": "uint256"
        }
      ],
      "name": "TokenDeposited",
      "type": "event"
    },
    {
      "anonymous": false,
      "inputs": [
        {
          "indexed": true,
          "internalType": "address",
          "name": "from",
          "type": "address"
        },
        {
          "indexed": true,
          "internalType": "address",
          "name": "to",
          "type": "address"
        },
        {
          "indexed": false,
          "internalType": "uint256",
          "name": "value",
          "type": "uint256"
        }
      ],
      "name": "Transfer",
      "type": "event"
    },
    {
      "inputs": [],
      "name": "DEFAULT_ADMIN_ROLE",
      "outputs": [
        {
          "internalType": "bytes32",
          "name": "",
          "type": "bytes32"
        }
      ],
      "stateMutability": "view",
      "type": "function"
    },
    {
      "inputs": [],
      "name": "EXECUTE_STATE_ROLE",
      "outputs": [
        {
          "internalType": "bytes32",
          "name": "",
          "type": "bytes32"
        }
      ],
      "stateMutability": "view",
      "type": "function"
    },
    {
      "inputs": [
        {
          "internalType": "address",
          "name": "owner",
          "type": "address"
        },
        {
          "internalType": "address",
          "name": "spender",
          "type": "address"
        }
      ],
      "name": "allowance",
      "outputs": [
        {
          "internalType": "uint256",
          "name": "",
          "type": "uint256"
        }
      ],
      "stateMutability": "view",
      "type": "function"
    },
    {
      "inputs": [
        {
          "internalType": "address",
          "name": "spender",
          "type": "address"
        },
        {
          "internalType": "uint256",
          "name": "amount",
          "type": "uint256"
        }
      ],
      "name": "approve",
      "outputs": [
        {
          "internalType": "bool",
          "name": "",
          "type": "bool"
        }
      ],
      "stateMutability": "nonpayable",
      "type": "function"
    },
    {
      "inputs": [
        {
          "internalType": "address",
          "name": "_account",
          "type": "address"
        }
      ],
      "name": "assignExecuteStateRole",
      "outputs": [],
      "stateMutability": "nonpayable",
      "type": "function"
    },
    {
      "inputs": [
        {
          "internalType": "address",
          "name": "account",
          "type": "address"
        }
      ],
      "name": "balanceOf",
      "outputs": [
        {
          "internalType": "uint256",
          "name": "",
          "type": "uint256"
        }
      ],
      "stateMutability": "view",
      "type": "function"
    },
    {
      "inputs": [],
      "name": "decimals",
      "outputs": [
        {
          "internalType": "uint8",
          "name": "",
          "type": "uint8"
        }
      ],
      "stateMutability": "view",
      "type": "function"
    },
    {
      "inputs": [
        {
          "internalType": "address",
          "name": "spender",
          "type": "address"
        },
        {
          "internalType": "uint256",
          "name": "subtractedValue",
          "type": "uint256"
        }
      ],
      "name": "decreaseAllowance",
      "outputs": [
        {
          "internalType": "bool",
          "name": "",
          "type": "bool"
        }
      ],
      "stateMutability": "nonpayable",
      "type": "function"
    },
    {
      "inputs": [
        {
          "internalType": "uint256",
          "name": "",
          "type": "uint256"
        },
        {
          "internalType": "bytes",
          "name": "stateData",
          "type": "bytes"
        }
      ],
      "name": "executeState",
      "outputs": [],
      "stateMutability": "nonpayable",
      "type": "function"
    },
    {
      "inputs": [
        {
          "internalType": "bytes32",
          "name": "role",
          "type": "bytes32"
        }
      ],
      "name": "getRoleAdmin",
      "outputs": [
        {
          "internalType": "bytes32",
          "name": "",
          "type": "bytes32"
        }
      ],
      "stateMutability": "view",
      "type": "function"
    },
    {
      "inputs": [
        {
          "internalType": "bytes32",
          "name": "role",
          "type": "bytes32"
        },
        {
          "internalType": "address",
          "name": "account",
          "type": "address"
        }
      ],
      "name": "grantRole",
      "outputs": [],
      "stateMutability": "nonpayable",
      "type": "function"
    },
    {
      "inputs": [
        {
          "internalType": "bytes32",
          "name": "role",
          "type": "bytes32"
        },
        {
          "internalType": "address",
          "name": "account",
          "type": "address"
        }
      ],
      "name": "hasRole",
      "outputs": [
        {
          "internalType": "bool",
          "name": "",
          "type": "bool"
        }
      ],
      "stateMutability": "view",
      "type": "function"
    },
    {
      "inputs": [],
      "name": "inboundStateSender",
      "outputs": [
        {
          "internalType": "contract IInboundStateSender",
          "name": "",
          "type": "address"
        }
      ],
      "stateMutability": "view",
      "type": "function"
    },
    {
      "inputs": [
        {
          "internalType": "address",
          "name": "spender",
          "type": "address"
        },
        {
          "internalType": "uint256",
          "name": "addedValue",
          "type": "uint256"
        }
      ],
      "name": "increaseAllowance",
      "outputs": [
        {
          "internalType": "bool",
          "name": "",
          "type": "bool"
        }
      ],
      "stateMutability": "nonpayable",
      "type": "function"
    },
    {
      "inputs": [],
      "name": "name",
      "outputs": [
        {
          "internalType": "string",
          "name": "",
          "type": "string"
        }
      ],
      "stateMutability": "view",
      "type": "function"
    },
    {
      "inputs": [],
      "name": "omniChainContractAddress",
      "outputs": [
        {
          "internalType": "address",
          "name": "",
          "type": "address"
        }
      ],
      "stateMutability": "view",
      "type": "function"
    },
    {
      "inputs": [
        {
          "internalType": "bytes32",
          "name": "role",
          "type": "bytes32"
        },
        {
          "internalType": "address",
          "name": "account",
          "type": "address"
        }
      ],
      "name": "renounceRole",
      "outputs": [],
      "stateMutability": "nonpayable",
      "type": "function"
    },
    {
      "inputs": [
        {
          "internalType": "bytes32",
          "name": "role",
          "type": "bytes32"
        },
        {
          "internalType": "address",
          "name": "account",
          "type": "address"
        }
      ],
      "name": "revokeRole",
      "outputs": [],
      "stateMutability": "nonpayable",
      "type": "function"
    },
    {
      "inputs": [
        {
          "internalType": "bytes4",
          "name": "interfaceId",
          "type": "bytes4"
        }
      ],
      "name": "supportsInterface",
      "outputs": [
        {
          "internalType": "bool",
          "name": "",
          "type": "bool"
        }
      ],
      "stateMutability": "view",
      "type": "function"
    },
    {
      "inputs": [],
      "name": "symbol",
      "outputs": [
        {
          "internalType": "string",
          "name": "",
          "type": "string"
        }
      ],
      "stateMutability": "view",
      "type": "function"
    },
    {
      "inputs": [],
      "name": "totalSupply",
      "outputs": [
        {
          "internalType": "uint256",
          "name": "",
          "type": "uint256"
        }
      ],
      "stateMutability": "view",
      "type": "function"
    },
    {
      "inputs": [
        {
          "internalType": "address",
          "name": "to",
          "type": "address"
        },
        {
          "internalType": "uint256",
          "name": "amount",
          "type": "uint256"
        }
      ],
      "name": "transfer",
      "outputs": [
        {
          "internalType": "bool",
          "name": "",
          "type": "bool"
        }
      ],
      "stateMutability": "nonpayable",
      "type": "function"
    },
    {
      "inputs": [
        {
          "internalType": "address",
          "name": "from",
          "type": "address"
        },
        {
          "internalType": "address",
          "name": "to",
          "type": "address"
        },
        {
          "internalType": "uint256",
          "name": "amount",
          "type": "uint256"
        }
      ],
      "name": "transferFrom",
      "outputs": [
        {
          "internalType": "bool",
          "name": "",
          "type": "bool"
        }
      ],
      "stateMutability": "nonpayable",
      "type": "function"
    },
    {
      "inputs": [
        {
          "internalType": "bytes",
          "name": "user",
          "type": "bytes"
        },
        {
          "internalType": "uint256",
          "name": "amount",
          "type": "uint256"
        }
      ],
      "name": "transferToOmniChain",
      "outputs": [],
      "stateMutability": "nonpayable",
      "type": "function"
    }
  ],
  "bytecode": "0x60406080815234620005445762001f0b90813803806200001f8162000549565b9384398201608083820312620005445782516001600160401b039390848111620005445782620000519183016200056f565b602092838301519086821162000544576200006e9184016200056f565b946200008a606062000082878601620005e1565b9401620005e1565b92825191808311620004445760038054936001958686811c9616801562000539575b8987101462000523578190601f96878111620004cd575b50899087831160011462000466576000926200045a575b505060001982841b1c191690861b1781555b8851918211620004445760049384548681811c9116801562000439575b898210146200042457818111620003d9575b50879083116001146200036b5782939495969798996000936200035f575b505082861b92600019911b1c19161782555b60068390556001600160a01b03908116938415620002eb571690811562000277575060008052600584528460002033600052845260ff856000205416156200023a575b60018060a01b03198381600754161760075560085416176008557f0e2cff25c9cb02b23af25512a7a858cbf5d880a04ea10d3e9cae237254bdcde59283600052600581528460002083600052815260ff85600020541615620001fa575b84516118f49081620005f78239f35b836000526005815284600020908360005252836000209060ff19825416179055339160008051602062001eeb833981519152600080a438808080620001eb565b600080526005845284600020336000528452846000208260ff198254161790553333600060008051602062001eeb8339815191528180a46200018e565b855162461bcd60e51b8152908101859052604260248201527f457468657265756d43726f7373436861696e546f6b656e3a204f6d6e6943686160448201527f696e20636f6e747261637420616464726573732063616e6e6f74206265207a65606482015261726f60f01b608482015260a490fd5b865162461bcd60e51b8152808401879052604260248201527f457468657265756d43726f7373436861696e546f6b656e3a20496e626f756e6460448201527f537461746553656e64657220616464726573732063616e6e6f74206265207a65606482015261726f60f01b608482015260a490fd5b01519150388062000139565b90601f1983169185600052886000209260005b818110620003c357509a8488999a9b9c9896979810620003a8575b50505050811b0182556200014b565b01519060f884600019921b161c191690553880808062000399565b8c830151855593880193918a01918a016200037e565b85600052886000208280860160051c8201928b87106200041a575b0160051c019087905b8281106200040d5750506200011b565b60008155018790620003fd565b92508192620003f4565b602286634e487b7160e01b6000525260246000fd5b90607f169062000109565b634e487b7160e01b600052604160045260246000fd5b015190503880620000da565b90889350601f19831691856000528b6000209260005b8d828210620004b657505084116200049d575b505050811b018155620000ec565b015160001983861b60f8161c191690553880806200048f565b8385015186558c979095019493840193016200047c565b90915083600052896000208780850160051c8201928c861062000519575b918a91869594930160051c01915b82811062000509575050620000c3565b600081558594508a9101620004f9565b92508192620004eb565b634e487b7160e01b600052602260045260246000fd5b95607f1695620000ac565b600080fd5b6040519190601f01601f191682016001600160401b038111838210176200044457604052565b919080601f84011215620005445782516001600160401b0381116200044457602090620005a5601f8201601f1916830162000549565b92818452828287010111620005445760005b818110620005cd57508260009394955001015290565b8581018301518482018401528201620005b7565b51906001600160a01b0382168203620005445756fe6080604052600436101561001257600080fd5b60003560e01c806301ffc9a71461019757806306fdde0314610192578063095ea7b31461018d57806318160ddd1461018857806323b872dd14610183578063248a9ca31461017e5780632e7ef558146101795780632f2ff15d14610174578063313ce5671461016f57806336568abe1461016a5780633950935114610165578063518882b71461016057806370a082311461015b578063813bc1c61461015657806391d148541461015157806395d89b411461014c57806398b8a4fc14610147578063a217fddf14610142578063a457c2d71461013d578063a9059cbb14610138578063d547741f14610133578063dd62ed3e1461012e578063ee8ec6a5146101295763fb77900d1461012457600080fd5b610dd4565b610d03565b610cab565b610c6c565b610c46565b610b98565b610b7c565b610a31565b61096e565b61091c565b610749565b61070f565b6106e6565b61068e565b6105fa565b6105de565b610515565b6104da565b6104ab565b6103e0565b6103c2565b610391565b610259565b346101ed5760203660031901126101ed5760043563ffffffff60e01b81168091036101ed57602090637965db0b60e01b81149081156101dc575b506040519015158152f35b6301ffc9a760e01b149050386101d1565b600080fd5b60009103126101ed57565b60005b8381106102105750506000910152565b8181015183820152602001610200565b90602091610239815180928185528580860191016101fd565b601f01601f1916010190565b906020610256928181520190610220565b90565b346101ed576000806003193601126103625760405190806003549060019180831c92808216928315610358575b602092838610851461034457858852602088019490811561032357506001146102ca575b6102c6876102ba81890382610d5b565b60405191829182610245565b0390f35b600360005294509192917fc2575a0e9e593c00f959f8c92f12db2869c3395a3b0502d05e2516446f71f85b5b83861061031257505050910190506102ba826102c638806102aa565b8054858701529482019481016102f6565b60ff191685525050505090151560051b0190506102ba826102c638806102aa565b634e487b7160e01b82526022600452602482fd5b93607f1693610286565b80fd5b600435906001600160a01b03821682036101ed57565b602435906001600160a01b03821682036101ed57565b346101ed5760403660031901126101ed576103b76103ad610365565b60243590336112c2565b602060405160018152f35b346101ed5760003660031901126101ed576020600254604051908152f35b346101ed5760603660031901126101ed576103f9610365565b61040161037b565b6001600160a01b03821660009081526001602090815260408083203384529091529020604435919054926001840161044a575b61043e93506111a6565b60405160018152602090f35b828410610466576104618361043e950333836112c2565b610434565b60405162461bcd60e51b815260206004820152601d60248201527f45524332303a20696e73756666696369656e7420616c6c6f77616e63650000006044820152606490fd5b346101ed5760203660031901126101ed5760043560005260056020526020600160406000200154604051908152f35b346101ed5760003660031901126101ed5760206040517f0e2cff25c9cb02b23af25512a7a858cbf5d880a04ea10d3e9cae237254bdcde58152f35b346101ed5760403660031901126101ed5760043561053161037b565b600091808352600560205261054c6001604085200154610f7b565b8083526005602090815260408085206001600160a01b0385166000908152925290205460ff161561057b578280f35b8083526005602090815260408085206001600160a01b038516600090815292529020805460ff1916600117905533916001600160a01b0316907f2f8788117e7eff1d82e926ec794901d17c78024a50270940304540a733656f0d8480a438808280f35b346101ed5760003660031901126101ed57602060405160128152f35b346101ed5760403660031901126101ed5761061361037b565b336001600160a01b038216036106315761062f9060043561104a565b005b60405162461bcd60e51b815260206004820152602f60248201527f416363657373436f6e74726f6c3a2063616e206f6e6c792072656e6f756e636560448201526e103937b632b9903337b91039b2b63360891b6064820152608490fd5b346101ed5760403660031901126101ed576106a7610365565b3360009081526001602090815260408083206001600160a01b038516845290915290205460243581018091116106e1576103b791336112c2565b6110dd565b346101ed5760003660031901126101ed576007546040516001600160a01b039091168152602090f35b346101ed5760203660031901126101ed576001600160a01b03610730610365565b1660005260006020526020604060002054604051908152f35b346101ed5760403660031901126101ed5767ffffffffffffffff6024358181116101ed57366023820112156101ed5780600401358281116101ed57810191602483013681116101ed5761079a61169b565b3360009081527f35659ac7f989260a34271bd98c7490a98c3633530dea95fdcd86ac75d1ad3c89602052604081205490949060ff1615610879578360609103126108755760248301359182116108755760246107f892840101610d7d565b907f080c225c8e9d9f966820ef915f5f555d575e9c3a188f1252d19e94aa2250f09d6064601460448401359461083082825114611748565b01516001600160a01b038116939061085490869061084f8715156117ac565b611809565b60408051308152602081019690965291013593a36108726001600655565b80f35b8380fd5b610918604861090061088a336114b5565b6108f2610895611546565b60405194859376020b1b1b2b9b9a1b7b73a3937b61d1030b1b1b7bab73a1604d1b60208601526108cf8151809260206037890191016101fd565b84017001034b99036b4b9b9b4b733903937b6329607d1b60378201520190611033565b03601f198101835282610d5b565b60405162461bcd60e51b815291829160048301610245565b0390fd5b346101ed5760403660031901126101ed57602060ff61096261093c61037b565b6004356000526005845260406000209060018060a01b0316600052602052604060002090565b54166040519015158152f35b346101ed576000806003193601126103625760405190806004549060019180831c92808216928315610a27575b602092838610851461034457858852602088019490811561032357506001146109ce576102c6876102ba81890382610d5b565b600460005294509192917f8a35acfbc15ff81a39ae7d344fd709f28e8600b4aa8c65c6b64bfe7fe36bd19b5b838610610a1657505050910190506102ba826102c638806102aa565b8054858701529482019481016109fa565b93607f169361099b565b346101ed576020806003193601126101ed57610a4b610365565b600080805260058352604080822033835260205281205490929060ff1615610b26577f0e2cff25c9cb02b23af25512a7a858cbf5d880a04ea10d3e9cae237254bdcde5908184526005815260ff610ab784604087209060018060a01b0316600052602052604060002090565b541615610ac2578380f35b8184526005905260408084206001600160a01b038416600090815260209190915220805460ff1916600117905533916001600160a01b0316907f2f8788117e7eff1d82e926ec794901d17c78024a50270940304540a733656f0d8480a43880808380f35b6108cf610900610918926108f2610b3c336114b5565b6048610b466115d7565b91604051968576020b1b1b2b9b9a1b7b73a3937b61d1030b1b1b7bab73a1604d1b899788015282519283916037890191016101fd565b346101ed5760003660031901126101ed57602060405160008152f35b346101ed5760403660031901126101ed57610bb1610365565b60243590336000526001602052610bde8160406000209060018060a01b0316600052602052604060002090565b5491808310610bf35761043e920390336112c2565b60405162461bcd60e51b815260206004820152602560248201527f45524332303a2064656372656173656420616c6c6f77616e63652062656c6f77604482015264207a65726f60d81b6064820152608490fd5b346101ed5760403660031901126101ed576103b7610c62610365565b60243590336111a6565b346101ed5760403660031901126101ed5761062f600435610c8b61037b565b90806000526005602052610ca6600160406000200154610f7b565b61104a565b346101ed5760403660031901126101ed576020610cfa610cc9610365565b610cd161037b565b6001600160a01b0391821660009081526001855260408082209290931681526020919091522090565b54604051908152f35b346101ed5760003660031901126101ed576008546040516001600160a01b039091168152602090f35b634e487b7160e01b600052604160045260246000fd5b67ffffffffffffffff8111610d5657604052565b610d2c565b90601f8019910116810190811067ffffffffffffffff821117610d5657604052565b81601f820112156101ed5780359067ffffffffffffffff8211610d565760405192610db2601f8401601f191660200185610d5b565b828452602083830101116101ed57816000926020809301838601378301015290565b346101ed5760403660031901126101ed5760043567ffffffffffffffff81116101ed57610e05903690600401610d7d565b60243590610e1161169b565b3315610f2c57336000908152602081905260409020829054610e35828210156116f1565b3360009081526020819052604090209190039055610e568260025403600255565b6040518281526000928391829033907fddf252ad1be2c89b69c2b068fc378daa952ba7f163c4a11628f55a4df523b3ef90602090a36007546001600160a01b0316600854610ec8906001600160a01b031694610eba60405194859260208401611649565b03601f198101845283610d5b565b803b15610f2857610ef0938360405180968195829463f50aa84b60e01b84526004840161166d565b03925af18015610f2357610f0a575b506108726001600655565b80610f17610f1d92610d42565b806101f2565b38610eff565b61168f565b8280fd5b60405162461bcd60e51b815260206004820152602160248201527f45524332303a206275726e2066726f6d20746865207a65726f206164647265736044820152607360f81b6064820152608490fd5b600081815260056020908152604080832033845290915290205460ff1615610fa05750565b610fa9336114b5565b610fb16113ed565b916030610fbd8461142f565b536078610fc98461143c565b5360415b60018111610fec576109186048610900856108f288610895881561146a565b90600f811690601082101561102e57611029916f181899199a1a9b1b9c1cb0b131b232b360811b901a61101f848761144c565b5360041c9161145d565b610fcd565b611419565b90611046602092828151948592016101fd565b0190565b600090808252600560205260ff61107684604085209060018060a01b0316600052602052604060002090565b541661108157505050565b8082526005602090815260408084206001600160a01b038616600090815292529020805460ff1916905533926001600160a01b0316917ff6391f5c32d9c69d2a47ea670b442974b53935d1edc7fd64eb21e047a839171b9080a4565b634e487b7160e01b600052601160045260246000fd5b156110fa57565b60405162461bcd60e51b815260206004820152602360248201527f45524332303a207472616e7366657220746f20746865207a65726f206164647260448201526265737360e81b6064820152608490fd5b1561115257565b60405162461bcd60e51b815260206004820152602660248201527f45524332303a207472616e7366657220616d6f756e7420657863656564732062604482015265616c616e636560d01b6064820152608490fd5b916001600160a01b03808416929091831561126f57611254827fddf252ad1be2c89b69c2b068fc378daa952ba7f163c4a11628f55a4df523b3ef9461126a9416966111f28815156110f3565b611239846112128360018060a01b03166000526000602052604060002090565b5461121f8282101561114b565b039160018060a01b03166000526000602052604060002090565b556001600160a01b0316600090815260208190526040902090565b8054820190556040519081529081906020820190565b0390a3565b60405162461bcd60e51b815260206004820152602560248201527f45524332303a207472616e736665722066726f6d20746865207a65726f206164604482015264647265737360d81b6064820152608490fd5b6001600160a01b03808216929190831561139c57821693841561134c578061133b7f8c5be1e5ebec7d5bd14f71427d1e84f3dd0314c0f7b2291e5b200ac8c7c3b9259461132461126a9560018060a01b03166000526001602052604060002090565b9060018060a01b0316600052602052604060002090565b556040519081529081906020820190565b60405162461bcd60e51b815260206004820152602260248201527f45524332303a20617070726f766520746f20746865207a65726f206164647265604482015261737360f01b6064820152608490fd5b60405162461bcd60e51b8152602060048201526024808201527f45524332303a20617070726f76652066726f6d20746865207a65726f206164646044820152637265737360e01b6064820152608490fd5b604051906080820182811067ffffffffffffffff821117610d5657604052604282526060366020840137565b634e487b7160e01b600052603260045260246000fd5b80511561102e5760200190565b80516001101561102e5760210190565b90815181101561102e570160200190565b80156106e1576000190190565b1561147157565b606460405162461bcd60e51b815260206004820152602060248201527f537472696e67733a20686578206c656e67746820696e73756666696369656e746044820152fd5b604051906060820182811067ffffffffffffffff821117610d5657604052602a8252604036602084013760306114ea8361142f565b5360786114f68361143c565b536029905b6001821161150e5761025691501561146a565b600f811690601082101561102e57611540916f181899199a1a9b1b9c1cb0b131b232b360811b901a61101f848661144c565b906114fb565b7f0e2cff25c9cb02b23af25512a7a858cbf5d880a04ea10d3e9cae237254bdcde561156f6113ed565b90603061157b8361142f565b5360786115878361143c565b536041905b6001821161159f5761025691501561146a565b600f811690601082101561102e576115d1916f181899199a1a9b1b9c1cb0b131b232b360811b901a61101f848661144c565b9061158c565b60006115e16113ed565b9060306115ed8361142f565b5360786115f98361143c565b536041905b600182116116115761025691501561146a565b600f811690601082101561102e57611643916f181899199a1a9b1b9c1cb0b131b232b360811b901a61101f848661144c565b906115fe565b604090611663600093959495606083526060830190610220565b9460208201520152565b6001600160a01b03909116815260406020820181905261025692910190610220565b6040513d6000823e3d90fd5b6002600654146116ac576002600655565b60405162461bcd60e51b815260206004820152601f60248201527f5265656e7472616e637947756172643a207265656e7472616e742063616c6c006044820152606490fd5b156116f857565b60405162461bcd60e51b815260206004820152602260248201527f45524332303a206275726e20616d6f756e7420657863656564732062616c616e604482015261636560f01b6064820152608490fd5b1561174f57565b60405162461bcd60e51b815260206004820152602f60248201527f457468657265756d43726f7373436861696e546f6b656e3a20496e76616c696460448201526e040c2c8c8e4cae6e640d8cadccee8d608b1b6064820152608490fd5b156117b357565b60405162461bcd60e51b815260206004820152602860248201527f457468657265756d43726f7373436861696e546f6b656e3a20496e76616c6964604482015267206164647265737360c01b6064820152608490fd5b6001600160a01b0381169190821561187957600254908282018092116106e1576002919091556001600160a01b0316600090815260208181526040822091927fddf252ad1be2c89b69c2b068fc378daa952ba7f163c4a11628f55a4df523b3ef92818154019055604051908152a3565b60405162461bcd60e51b815260206004820152601f60248201527f45524332303a206d696e7420746f20746865207a65726f2061646472657373006044820152606490fdfea26469706673582212205747196b44a2834897c32284620473b23a0ead68192a70bc2f960461f6ef86ab64736f6c634300081300332f8788117e7eff1d82e926ec794901d17c78024a50270940304540a733656f0d",
  "linkReferences": {},
  "deployedLinkReferences": {}
}