{
  "_format": "hh-sol-artifact-1",
  "contractName": "AccountBasedChildChain",
  "sourceName": "contracts/dojimachain/non_evm/AccountBasedChildChain.sol",
  "abi": [
    {
      "inputs": [
        {
          "internalType": "address",
          "name": "_outboundStateSender",
          "type": "address"
        }
      ],
      "stateMutability": "nonpayable",
      "type": "constructor"
    },
    {
      "anonymous": false,
      "inputs": [
        {
          "indexed": false,
          "internalType": "string",
          "name": "chainName",
          "type": "string"
        },
        {
          "indexed": true,
          "internalType": "bytes",
          "name": "rootToken",
          "type": "bytes"
        },
        {
          "indexed": true,
          "internalType": "address",
          "name": "token",
          "type": "address"
        },
        {
          "indexed": false,
          "internalType": "uint8",
          "name": "_decimals",
          "type": "uint8"
        }
      ],
      "name": "NewToken",
      "type": "event"
    },
    {
      "anonymous": false,
      "inputs": [
        {
          "indexed": true,
          "internalType": "address",
          "name": "previousOwner",
          "type": "address"
        },
        {
          "indexed": true,
          "internalType": "address",
          "name": "newOwner",
          "type": "address"
        }
      ],
      "name": "OwnershipTransferred",
      "type": "event"
    },
    {
      "anonymous": false,
      "inputs": [
        {
          "indexed": true,
          "internalType": "address",
          "name": "previousAddress",
          "type": "address"
        },
        {
          "indexed": true,
          "internalType": "address",
          "name": "newAddress",
          "type": "address"
        }
      ],
      "name": "StateSyncerAddressChanged",
      "type": "event"
    },
    {
      "anonymous": false,
      "inputs": [
        {
          "indexed": false,
          "internalType": "string",
          "name": "chainName",
          "type": "string"
        },
        {
          "indexed": true,
          "internalType": "bytes",
          "name": "rootToken",
          "type": "bytes"
        },
        {
          "indexed": true,
          "internalType": "address",
          "name": "childToken",
          "type": "address"
        },
        {
          "indexed": true,
          "internalType": "address",
          "name": "user",
          "type": "address"
        },
        {
          "indexed": false,
          "internalType": "uint256",
          "name": "amount",
          "type": "uint256"
        },
        {
          "indexed": false,
          "internalType": "uint256",
          "name": "depositId",
          "type": "uint256"
        }
      ],
      "name": "TokenDeposited",
      "type": "event"
    },
    {
      "anonymous": false,
      "inputs": [
        {
          "indexed": false,
          "internalType": "string",
          "name": "chainName",
          "type": "string"
        },
        {
          "indexed": true,
          "internalType": "bytes",
          "name": "rootToken",
          "type": "bytes"
        },
        {
          "indexed": true,
          "internalType": "address",
          "name": "childToken",
          "type": "address"
        },
        {
          "indexed": true,
          "internalType": "address",
          "name": "user",
          "type": "address"
        },
        {
          "indexed": false,
          "internalType": "uint256",
          "name": "amount",
          "type": "uint256"
        },
        {
          "indexed": false,
          "internalType": "uint256",
          "name": "withrawCount",
          "type": "uint256"
        }
      ],
      "name": "TokenWithdrawn",
      "type": "event"
    },
    {
      "inputs": [
        {
          "internalType": "string",
          "name": "chainName",
          "type": "string"
        },
        {
          "internalType": "address",
          "name": "owner",
          "type": "address"
        },
        {
          "internalType": "bytes",
          "name": "rootToken",
          "type": "bytes"
        },
        {
          "internalType": "string",
          "name": "name",
          "type": "string"
        },
        {
          "internalType": "string",
          "name": "symbol",
          "type": "string"
        },
        {
          "internalType": "uint8",
          "name": "decimals",
          "type": "uint8"
        }
      ],
      "name": "addToken",
      "outputs": [
        {
          "internalType": "address",
          "name": "token",
          "type": "address"
        }
      ],
      "stateMutability": "nonpayable",
      "type": "function"
    },
    {
      "inputs": [
        {
          "internalType": "address",
          "name": "newAddress",
          "type": "address"
        }
      ],
      "name": "changeStateSyncerAddress",
      "outputs": [],
      "stateMutability": "nonpayable",
      "type": "function"
    },
    {
      "inputs": [
        {
          "internalType": "bytes",
          "name": "userBytes",
          "type": "bytes"
        }
      ],
      "name": "convertBytesToAddress",
      "outputs": [
        {
          "internalType": "address",
          "name": "userAddress",
          "type": "address"
        }
      ],
      "stateMutability": "pure",
      "type": "function"
    },
    {
      "inputs": [
        {
          "internalType": "string",
          "name": "",
          "type": "string"
        },
        {
          "internalType": "uint256",
          "name": "",
          "type": "uint256"
        }
      ],
      "name": "deposits",
      "outputs": [
        {
          "internalType": "bool",
          "name": "",
          "type": "bool"
        }
      ],
      "stateMutability": "view",
      "type": "function"
    },
    {
      "inputs": [],
      "name": "isCallerStateSyncer",
      "outputs": [
        {
          "internalType": "bool",
          "name": "",
          "type": "bool"
        }
      ],
      "stateMutability": "view",
      "type": "function"
    },
    {
      "inputs": [],
      "name": "isOwner",
      "outputs": [
        {
          "internalType": "bool",
          "name": "",
          "type": "bool"
        }
      ],
      "stateMutability": "view",
      "type": "function"
    },
    {
      "inputs": [
        {
          "internalType": "string",
          "name": "chainName",
          "type": "string"
        },
        {
          "internalType": "bytes",
          "name": "rootToken",
          "type": "bytes"
        },
        {
          "internalType": "address",
          "name": "token",
          "type": "address"
        }
      ],
      "name": "mapToken",
      "outputs": [],
      "stateMutability": "nonpayable",
      "type": "function"
    },
    {
      "inputs": [
        {
          "internalType": "uint256",
          "name": "",
          "type": "uint256"
        },
        {
          "internalType": "bytes",
          "name": "data",
          "type": "bytes"
        }
      ],
      "name": "onStateReceive",
      "outputs": [],
      "stateMutability": "nonpayable",
      "type": "function"
    },
    {
      "inputs": [],
      "name": "outboundStateSender",
      "outputs": [
        {
          "internalType": "contract IOutboundStateSender",
          "name": "",
          "type": "address"
        }
      ],
      "stateMutability": "view",
      "type": "function"
    },
    {
      "inputs": [],
      "name": "owner",
      "outputs": [
        {
          "internalType": "address",
          "name": "",
          "type": "address"
        }
      ],
      "stateMutability": "view",
      "type": "function"
    },
    {
      "inputs": [],
      "name": "renounceOwnership",
      "outputs": [],
      "stateMutability": "nonpayable",
      "type": "function"
    },
    {
      "inputs": [],
      "name": "stateSyncer",
      "outputs": [
        {
          "internalType": "address",
          "name": "",
          "type": "address"
        }
      ],
      "stateMutability": "view",
      "type": "function"
    },
    {
      "inputs": [
        {
          "internalType": "string",
          "name": "",
          "type": "string"
        },
        {
          "internalType": "bytes",
          "name": "",
          "type": "bytes"
        }
      ],
      "name": "tokens",
      "outputs": [
        {
          "internalType": "address",
          "name": "",
          "type": "address"
        }
      ],
      "stateMutability": "view",
      "type": "function"
    },
    {
      "inputs": [
        {
          "internalType": "address",
          "name": "newOwner",
          "type": "address"
        }
      ],
      "name": "transferOwnership",
      "outputs": [],
      "stateMutability": "nonpayable",
      "type": "function"
    },
    {
      "inputs": [
        {
          "internalType": "address",
          "name": "_outboundStateSender",
          "type": "address"
        }
      ],
      "name": "updateOutboundStateSender",
      "outputs": [],
      "stateMutability": "nonpayable",
      "type": "function"
    },
    {
      "inputs": [
        {
          "internalType": "string",
          "name": "chainName",
          "type": "string"
        },
        {
          "internalType": "bytes",
          "name": "rootToken",
          "type": "bytes"
        },
        {
          "internalType": "bytes",
          "name": "user",
          "type": "bytes"
        },
        {
          "internalType": "uint256",
          "name": "amountOrTokenId",
          "type": "uint256"
        },
        {
          "internalType": "uint256",
          "name": "withdrawId",
          "type": "uint256"
        },
        {
          "internalType": "bytes32",
          "name": "destinationChain",
          "type": "bytes32"
        },
        {
          "internalType": "bytes",
          "name": "destinationAddress",
          "type": "bytes"
        },
        {
          "internalType": "bytes",
          "name": "destinationAsset",
          "type": "bytes"
        }
      ],
      "name": "withdrawTokens",
      "outputs": [],
      "stateMutability": "nonpayable",
      "type": "function"
    },
    {
      "inputs": [
        {
          "internalType": "string",
          "name": "",
          "type": "string"
        },
        {
          "internalType": "uint256",
          "name": "",
          "type": "uint256"
        }
      ],
      "name": "withdraws",
      "outputs": [
        {
          "internalType": "bool",
          "name": "",
          "type": "bool"
        }
      ],
      "stateMutability": "view",
      "type": "function"
    }
  ],
  "bytecode": "0x6080346101d957601f613bce38819003918201601f1916830192916001600160401b039190828511848610176101de57808492604096875283396020938491810103126101d957516001600160a01b0380821693909290918490036101d957600090815460018060a01b031994338683161784553391167f8be0079c531659141344cd1fd0a4f28419497f9722a3daafe3b4186f6b6457e08480a361100180856001541617600155827f98e6a46aa139a033b9c7f3ae4ad1c103ffdce3e7cf509326808ba8c4b5af11c08180a3855190818701908111828210176101c557865260069081815265444f4a494d4160d01b84820152838751935b8381106101b35750505081600260269260279401522085519066444f4a2d36374360c81b825260078201522061101083825416179055821561014a57506005541617600555516139d990816101f58239f35b60849084519062461bcd60e51b82526004820152603e60248201527f4163636f756e74204261736564204368696c6420436861696e3a20496e76616c60448201527f6964204f7574626f756e64537461746553656e646572206164647265737300006064820152fd5b818184010151818601520184906100f8565b634e487b7160e01b83526041600452602483fd5b600080fd5b634e487b7160e01b600052604160045260246000fdfe608060405260043610156200001357600080fd5b60003560e01c80631c3895ad146200014957806326c53bea14620001435780633b82875c146200013d5780635a81dd1b1462000137578063715018a614620001315780638488024c146200012b5780638da5cb5b14620001255780638f32d59b146200011f5780639042764114620001195780639f005a281462000113578063a720bd91146200010d578063c60b45e51462000107578063df5550071462000101578063f2fde38b14620000fb578063f4ef4d6914620000f5578063f941a1f014620000ef5763fbabc61c14620000e957600080fd5b62000c91565b62000c3d565b62000c12565b62000b9d565b62000aca565b620009fa565b6200093b565b62000870565b620007a7565b62000738565b6200070d565b620006ba565b62000620565b620005f5565b62000550565b620001bb565b62000160565b60009103126200015b57565b600080fd5b346200015b5760003660031901126200015b57602060018060a01b03600154163314604051908152f35b9181601f840112156200015b5782359167ffffffffffffffff83116200015b57602083818601950101116200015b57565b346200015b5760403660031901126200015b5767ffffffffffffffff6024358181116200015b57620001f29036906004016200018a565b6001546001600160a01b0392919083163303620003b85781019160a0828403126200015b5781358481116200015b57836200022f9184016200044c565b9360208301358181116200015b57846200024b9185016200044c565b9360408401359182116200015b57620002669184016200044c565b906200027c608060608501359401359462000d16565b620002b1620002aa620002a387620002948a620004d8565b90600052602052604060002090565b5460ff1690565b15620012ef565b620002d2620002c5866200029489620004d8565b805460ff19166001179055565b81620002fa620002ed620002e68962000500565b8662000528565b546001600160a01b031690565b16946200030986151562001374565b853b156200015b576040516311f9fbc960e21b81526001600160a01b03831660048201526024810186905290600082604481838b5af18015620003b2577f8c0bc4381182f9581693e8d78ded7a6f87fcccb2a4a0108a7eb7039ea16c09c0956200038f936200037f9262000394575b5062000fbc565b95604051948594169884620013dc565b0390a4005b80620003a4620003ab9262000431565b806200014f565b3862000378565b62000fb0565b60405162461bcd60e51b815260206004820152603560248201527f53746174652073796e6365723a2063616c6c6572206973206e6f7420746865206044820152741cdd185d19481cde5b98d95c8818dbdb9d1c9858dd605a1b6064820152608490fd5b634e487b7160e01b600052604160045260246000fd5b67ffffffffffffffff81116200044657604052565b6200041b565b81601f820112156200015b5780359067ffffffffffffffff92838311620004465760405193601f8401601f19908116603f01168501908111858210176200044657604052828452602083830101116200015b57816000926020809301838601378301015290565b60005b838110620004c75750506000910152565b8181015183820152602001620004b6565b6020620004f3918160405193828580945193849201620004b3565b8101600381520301902090565b60206200051b918160405193828580945193849201620004b3565b8101600281520301902090565b60209062000544928260405194838680955193849201620004b3565b82019081520301902090565b346200015b5760403660031901126200015b5767ffffffffffffffff6004358181116200015b57620005879036906004016200044c565b6024359182116200015b57620005b1620005aa620005f19336906004016200044c565b9162000500565b906020620005c96040519283815193849201620004b3565b810191825260209181900382019020546040516001600160a01b039091168152918291820190565b0390f35b346200015b5760003660031901126200015b576005546040516001600160a01b039091168152602090f35b346200015b5760008060031936011262000681578054816001600160a01b0382166200064e33821462000cca565b7f8be0079c531659141344cd1fd0a4f28419497f9722a3daafe3b4186f6b6457e08280a36001600160a01b031916815580f35b80fd5b60406003198201126200015b576004359067ffffffffffffffff82116200015b57620006b3916004016200044c565b9060243590565b346200015b576020620006e7620006d13662000684565b92908160405193828580945193849201620004b3565b8101600481520301902090600052602052602060ff604060002054166040519015158152f35b346200015b5760003660031901126200015b576000546040516001600160a01b039091168152602090f35b346200015b5760003660031901126200015b57602060018060a01b03600054163314604051908152f35b600435906001600160a01b03821682036200015b57565b602435906001600160a01b03821682036200015b57565b604435906001600160a01b03821682036200015b57565b346200015b5760203660031901126200015b57620007c462000762565b6000546001600160a01b039190620007e0908316331462000cca565b16801562000800576001600160601b0360a01b6005541617600555600080f35b60405162461bcd60e51b815260206004820152603160248201527f4368696c6420426561636f6e3a20496e76616c6964204f7574626f756e64537460448201527061746553656e646572206164647265737360781b6064820152608490fd5b60a4359060ff821682036200015b57565b346200015b5760c03660031901126200015b5767ffffffffffffffff6004358181116200015b57620008a79036906004016200018a565b9190620008b362000779565b926044358381116200015b57620008cf9036906004016200044c565b6064358481116200015b57620008ea9036906004016200044c565b906084359485116200015b57620005f1956200090f620009219636906004016200044c565b936200091a6200085f565b9562000d83565b6040516001600160a01b0390911681529081906020820190565b346200015b576101003660031901126200015b57600467ffffffffffffffff81358181116200015b576200097390369084016200018a565b6024929192358281116200015b576200099090369086016200044c565b906044358381116200015b57620009ab90369087016200044c565b9360c4358481116200015b57620009c690369088016200044c565b9360e4359081116200015b57620009f896620009e5913691016200044c565b9460a4359360843593606435936200101c565b005b346200015b5760603660031901126200015b5767ffffffffffffffff6004358181116200015b5762000a319036906004016200018a565b6024359283116200015b57602062000aa29162000a57620009f89536906004016200044c565b908262000a6362000790565b9562000a7b60018060a01b0360005416331462000cca565b826040519384928337810160028152030190208260405194838680955193849201620004b3565b82019081520301902080546001600160a01b0319166001600160a01b03909216919091179055565b346200015b5760203660031901126200015b5762000ae762000762565b6000546001600160a01b03919062000b03908316331462000cca565b818116801562000b5857620009f892600154167f98e6a46aa139a033b9c7f3ae4ad1c103ffdce3e7cf509326808ba8c4b5af11c0600080a360018060a01b03166001600160601b0360a01b6001541617600155565b60405162461bcd60e51b815260206004820152601d60248201527f53746174652073796e6365723a20696e76616c696420616464726573730000006044820152606490fd5b346200015b5760203660031901126200015b5762000bba62000762565b6000805490916001600160a01b038083169162000bd933841462000cca565b1680926001600160601b0360a01b161783557f8be0079c531659141344cd1fd0a4f28419497f9722a3daafe3b4186f6b6457e08380a380f35b346200015b5760003660031901126200015b576001546040516001600160a01b039091168152602090f35b346200015b5760203660031901126200015b5760043567ffffffffffffffff81116200015b5762000c7f62000c7960209236906004016200044c565b62000d16565b6040516001600160a01b039091168152f35b346200015b5762000cae62000ca63662000684565b9190620004d8565b90600052602052602060ff604060002054166040519015158152f35b1562000cd257565b606460405162461bcd60e51b815260206004820152602060248201527f4f776e61626c653a2063616c6c6572206973206e6f7420746865206f776e65726044820152fd5b601481510362000d27576014015190565b60405162461bcd60e51b815260206004820152602e60248201527f4f6d6e69436861696e546f6b656e436f6e74726163743a20496e76616c69642060448201526d0c2c8c8e4cae6e640d8cadccee8d60931b6064820152608490fd5b95939091929460018060a01b039362000da28560005416331462000cca565b62000dd38562000dcb620002ed604051888d82376020818a810160028152030190208b62000528565b161562000ecc565b604051926125ad928385019185831067ffffffffffffffff84111762000446578962000e09948a948897620013f7893962000f58565b03906000f0948515620003b25762000e947f28080322976392035ce7bd97add1555c211c86d0d8760be6863774d9bb4045969362000e86971696879662000e808862000e6162000e5a888862000e9a565b8462000528565b80546001600160a01b0319166001600160a01b03909216919091179055565b62000fbc565b946040519384938462000fff565b0390a390565b6020908260405193849283378101600281520301902090565b6020908260405193849283378101600481520301902090565b1562000ed457565b60405162461bcd60e51b815260206004820152602f60248201527f4163636f756e74204261736564204368696c6420436861696e3a20546f6b656e60448201526e08185b1c9958591e481b585c1c1959608a1b6064820152608490fd5b9060209162000f4c81518092818552858086019101620004b3565b601f01601f1916010190565b9362000f9a60809462000f8b60ff9562000fa9959a999a60018060a01b0316895260a060208a015260a089019062000f31565b90878203604089015262000f31565b90858203606087015262000f31565b9416910152565b6040513d6000823e3d90fd5b62000fd690602060405192828480945193849201620004b3565b810103902090565b908060209392818452848401376000828201840152601f01601f1916010190565b9162000fa960209260ff9296959660408652604086019162000fde565b9791949095939692968860018060a01b03958662001091620002ed6200108a8c6000966200104f86895416331462000cca565b6200106f62001068620002a38c62000294868662000eb3565b156200119c565b62001084620002c58b62000294858562000eb3565b62000e9a565b8b62000528565b1699620010a08b15156200120f565b8a3b156200119857604051632e1a7d4d60e01b8152600481018590529083828d8183816024810103925af1918215620003b257620010e59262001181575b5062000d16565b6005549096906001600160a01b031691823b156200117d57908388939262001125876040519a8b978896879563709a38b360e11b87526004870162001282565b03925af18015620003b2577fc066a40a040da4692afd432608f12827ce3f5aa9be83af03ef15867c6467a96a966200117894620011689262000394575062000fbc565b96604051958695169985620012c9565b0390a4565b8380fd5b80620003a4620011919262000431565b38620010de565b8280fd5b15620011a457565b60405162461bcd60e51b815260206004820152603860248201527f4163636f756e7420426173656420436861696e3a20616c72656164792077697460448201527f6864726177616c20666f722074686520676976656e20496400000000000000006064820152608490fd5b156200121757565b60405162461bcd60e51b815260206004820152603860248201527f4163636f756e74204261736564204368696c6420436861696e3a206368696c6460448201527f20746f6b656e206973206e6f74207265676973746572656400000000000000006064820152608490fd5b959493620012a6620012c49360809593895260a060208a015260a089019062000f31565b6001600160a01b039092166040880152868203606088015262000f31565b930152565b90620012e5906040939695949660608452606084019162000fde565b9460208201520152565b15620012f757565b60405162461bcd60e51b815260206004820152604960248201527f4163636f756e74204261736564204368696c6420436861696e3a204465706f7360448201527f697420616c7265616479206d61646520776974682074686520676976656e2064606482015268195c1bdcda5d08125960ba1b608482015260a490fd5b156200137c57565b60405162461bcd60e51b815260206004820152603260248201527f4163636f756e74204261736564204368696c6420436861696e3a20746f6b656e604482015271081a5cc81b9bdd081c9959da5cdd195c995960721b6064820152608490fd5b620012e56040929594939560608352606083019062000f3156fe60a060409080825234620005ea57620025ad80380380916200002282856200063d565b833981019060a081830312620005ea5780516001600160a01b03919082811603620005ea5760208181015190926001600160401b03929091838111620005ea57810190601f91868382011215620005ea57868187620000849351910162000661565b87820151858111620005ea57876200009e918401620006c5565b966060830151868111620005ea57608091620000bc918501620006c5565b9201519660ff88168803620005ea578690600092835460018060a01b031997338983161786553391167f8be0079c531659141344cd1fd0a4f28419497f9722a3daafe3b4186f6b6457e08680a38a516200011681620005ef565b60528082527f454950373132446f6d61696e28737472696e67206e616d652c737472696e6720858301527f76657273696f6e2c75696e7432353620636861696e49642c61646472657373208d83015271766572696679696e67436f6e74726163742960701b60608301528c5191865b828110620005d55750508560728301528152620001a281620005ef565b8381519101208b600e858251620001b98162000621565b828152016d446f6a696d61204e6574776f726b60901b8152208151620001df8162000621565b600596818880935201640312e302e360dc1b815220908251928d8401948552830152606082015261057960808201523060a082015260a0815260c081018181108b821117620005c1578d5251902096600197885561100180916006541617600655847f98e6a46aa139a033b9c7f3ae4ad1c103ffdce3e7cf509326808ba8c4b5af11c08180a38051908115620005bd57888211620005a957819062000286600254620006e5565b8b8982116200056e575b50508a9088831160011462000507578692620004fb575b5050600019600383901b1c191690871b176002555b805190878211620004e7578190620002d6600a54620006e5565b8a888211620004ac575b50508990878311600114620004465785926200043a575b5050600019600383901b1c191690861b17600a555b8251958611620004265762000323600b54620006e5565b848111620003ea575b5050859285116001146200038157939450849291908362000375575b50501b916000199060031b1c191617600b555b60805251611e7190816200073c82396080518161094b0152f35b01519250388062000348565b600b815285812093958591601f198316915b88838310620003cf5750505010620003b5575b505050811b01600b556200035b565b015160001960f88460031b161c19169055388080620003a6565b85870151885590960195948501948793509081019062000393565b6200041491600b84528884209086808a01821c8301938b8b106200041c575b01901c019062000722565b38806200032c565b9350829362000409565b634e487b7160e01b82526041600452602482fd5b015190503880620002f7565b600a86528a86208994509190601f198416875b8d8282106200049557505084116200047b575b505050811b01600a556200030c565b015160001960f88460031b161c191690553880806200046c565b8385015186558c9790950194938401930162000459565b620004d591600a88528982892091818701891c8301938710620004dd575b01871c019062000722565b388a620002e0565b92508192620004ca565b634e487b7160e01b84526041600452602484fd5b015190503880620002a7565b600287528b87208a94509190601f198416888e5b8282106200055657505084116200053c575b505050811b01600255620002bc565b015160001960f88460031b161c191690553880806200052d565b8385015186558d979095019493840193018e6200051b565b6200059791600289528a828a20918187018a1c83019387106200059f575b01881c019062000722565b388b62000290565b925081926200058c565b634e487b7160e01b85526041600452602485fd5b8480fd5b634e487b7160e01b87526041600452602487fd5b8181018701518482018801528c960162000185565b600080fd5b608081019081106001600160401b038211176200060b57604052565b634e487b7160e01b600052604160045260246000fd5b604081019081106001600160401b038211176200060b57604052565b601f909101601f19168101906001600160401b038211908210176200060b57604052565b92906001600160401b0381116200060b57604051602091906200068e601f8301601f19168401826200063d565b809482825282870111620005ea5760005b828110620006b35750600093949550010152565b8681015182820185015283016200069f565b9080601f83011215620005ea578151620006e29260200162000661565b90565b90600182811c9216801562000717575b60208310146200070157565b634e487b7160e01b600052602260045260246000fd5b91607f1691620006f5565b8181106200072e575050565b600081556001016200072256fe6080604052600436101561001257600080fd5b60003560e01c806306fdde03146101db578063095ea7b3146102535780631499c5921461024e57806318160ddd1461024957806319d27d9c146102445780631c3895ad1461023f57806321df0da7146101b357806323b872dd1461023a57806326c53bea1461023557806328ce8b31146102305780632e1a7d4d1461022b578063313ce5671461022657806332424aa31461022657806342fc47fb1461022157806347e7ef241461021c57806360f96a8f1461021757806370a0823114610212578063715018a61461020d57806377d32e94146102085780638da5cb5b146102035780638f32d59b146101fe57806395d89b41146101ea578063a9059cbb146101f9578063abceeba2146101f4578063acd06cb3146101ef578063b09f1266146101ea578063b789543c146101e5578063cc79f97b146101e0578063d28d8852146101db578063dd62ed3e146101d6578063df555007146101d1578063e614d0d6146101cc578063ed9ef524146101c7578063f2fde38b146101c2578063f4ef4d69146101bd578063f94dc4bc146101b85763fc0c546a146101b357600080fd5b6106a1565b6112e8565b6112bf565b61124c565b61114f565b611134565b610fb3565b610f97565b610298565b610f7a565b610f24565b610cf5565b610eb9565b610e96565b610d9c565b610ccd565b610ca4565b610c43565b610b9f565b610b62565b610b39565b610998565b61096f565b610931565b610919565b6108d6565b61076f565b610748565b610679565b610511565b6104c5565b6103bc565b61039b565b919082519283825260005b848110610284575050826000602080949584010152601f8019910116010190565b602081830181015184830182015201610263565b3461038557600080600319360112610382576040519080600a546102bb81610eea565b8085529160019180831690811561035857506001146102fd575b6102f9856102e5818703826108b4565b604051918291602083526020830190610258565b0390f35b9250600a83527fc65a7bb8d6351c1cf70c95a316cc6a92839c986682d98bc35f958f4883f9d2a85b8284106103405750505081016020016102e5826102f96102d5565b80546020858701810191909152909301928101610325565b8695506102f9969350602092506102e594915060ff191682840152151560051b82010192936102d5565b80fd5b600080fd5b6001600160a01b0381160361038557565b34610385576040366003190112610385576103b760043561038a565b611e03565b34610385576020366003190112610385576004356103d98161038a565b6000546001600160a01b03906103f29082163314611339565b81169081156104505760045461044e92906001600160a01b03167fc9e4c719f349d4c91a37138eb5cf0ba2670c592a764f8c0b18c603ba9178cc1d600080a360018060a01b03166001600160601b0360a01b6004541617600455565b005b60405162461bcd60e51b815260206004820152604160248201527f4163636f756e74204261736564204368696c6420746f6b656e3a206e6577207060448201527f6172656e74206164647265737320697320746865207a65726f206164647265736064820152607360f81b608482015260a490fd5b34610385576000366003190112610385576020600954604051908152f35b9181601f840112156103855782359167ffffffffffffffff8311610385576020838186019501011161038557565b346103855760a03660031901126103855760043567ffffffffffffffff8111610385576105429036906004016104e3565b9060243560643590608435926105578461038a565b8115610623576102f9946105e86105ee9261059561058e876105fe98158015610619575b61058490611384565b6044358833611306565b3090611445565b926105bd6105b76105b0866000526005602052604060002090565b5460ff1690565b156113e7565b6105e16105d4856000526005602052604060002090565b805460ff19166001179055565b3691610bfc565b90611831565b926001600160a01b0316836115f4565b506040516001600160a01b0390911681529081906020820190565b504381101561057b565b60405162461bcd60e51b815260206004820152602860248201527f4163636f756e74204261736564204261736520546f6b656e3a20696e76616c696044820152671908185b5bdd5b9d60c21b6064820152608490fd5b3461038557600036600319011261038557602060018060a01b03600654163314604051908152f35b34610385576000806003193601126103825760405190806002546106c481610eea565b8085529160019180831690811561035857506001146106ed576102f9856102e5818703826108b4565b9250600283527f405787fa12a823e0f2b7631cc41b3ba8828b3321ca811111fa75cd3aa3bb5ace5b8284106107305750505081016020016102e5826102f96102d5565b80546020858701810191909152909301928101610715565b346103855760603660031901126103855761076460043561038a565b6103b760243561038a565b346103855760403660031901126103855760243567ffffffffffffffff8111610385576107a09036906004016104e3565b6006546001600160a01b03929190831633036107fe5781604091810103126103855761044e9160208235926107d48461038a565b01359116818160005260076020526040600020549081106107f6575b506118f2565b9150386107f0565b60405162461bcd60e51b815260206004820152603560248201527f53746174652073796e6365723a2063616c6c6572206973206e6f7420746865206044820152741cdd185d19481cde5b98d95c8818dbdb9d1c9858dd605a1b6064820152608490fd5b634e487b7160e01b600052604160045260246000fd5b6040810190811067ffffffffffffffff82111761089357604052565b610861565b6080810190811067ffffffffffffffff82111761089357604052565b90601f8019910116810190811067ffffffffffffffff82111761089357604052565b34610385576000366003190112610385576102f96040516108f681610877565b600281526103e960f01b6020820152604051918291602083526020830190610258565b60203660031901126103855761044e600435336118f2565b3461038557600036600319011261038557602060405160ff7f0000000000000000000000000000000000000000000000000000000000000000168152f35b34610385576000366003190112610385576003546040516001600160a01b039091168152602090f35b34610385576040366003190112610385576004356109b58161038a565b60035460243591906001600160a01b039081163303610ad85782151580610acd575b15610a6d576001600160a01b03821660009081526007602052604090207f68ef7ce2640f8727da5ca0ea6d99bb00585c775e7fbfe863016ce3165d985ff291905492610a238582611cee565b6001600160a01b0381166000908152600760205260409020610a689054610a48611557565b956040519485941697846040919493926060820195825260208201520152565b0390a3005b60405162461bcd60e51b815260206004820152603260248201527f4368696c642053504c3a20696e76616c69642075736572206164647265737320604482015271185b990819195c1bdcda5d08185b5bdd5b9d60721b6064820152608490fd5b5080821615156109d7565b60405162461bcd60e51b815260206004820152603360248201527f4368696c6420746f6b656e3a2063616c6c6572206973206e6f742074686520636044820152721a1a5b190818da185a5b8818dbdb9d1c9858dd606a1b6064820152608490fd5b34610385576000366003190112610385576004546040516001600160a01b039091168152602090f35b3461038557602036600319011261038557600435610b7f8161038a565b60018060a01b031660005260076020526020604060002054604051908152f35b3461038557600080600319360112610382578054816001600160a01b038216610bc9338214611339565b7f8be0079c531659141344cd1fd0a4f28419497f9722a3daafe3b4186f6b6457e08280a36001600160a01b031916815580f35b92919267ffffffffffffffff82116108935760405191610c26601f8201601f1916602001846108b4565b829481845281830111610385578281602093846000960137010152565b346103855760403660031901126103855760243567ffffffffffffffff8111610385573660238201121561038557610c92610c8a6020923690602481600401359101610bfc565b600435611831565b6040516001600160a01b039091168152f35b34610385576000366003190112610385576000546040516001600160a01b039091168152602090f35b3461038557600036600319011261038557602060018060a01b03600054163314604051908152f35b3461038557600080600319360112610382576040519080600b54610d1881610eea565b808552916001918083169081156103585750600114610d41576102f9856102e5818703826108b4565b9250600b83527f0175b7a638427703f0dbe7bb9bbf987a2551717b34e79f33b5b1008d1fa01db95b828410610d845750505081016020016102e5826102f96102d5565b80546020858701810191909152909301928101610d69565b34610385576040366003190112610385576020610dc7600435610dbe8161038a565b60243590611a6e565b6040519015158152f35b604051610ddd81610898565b605b8082526020907f546f6b656e5472616e736665724f726465722861646472657373207370656e64828401527f65722c75696e7432353620746f6b656e49644f72416d6f756e742c627974657360408401527f333220646174612c75696e743235362065787069726174696f6e2900000000006060840152604051928260005b838110610e82575050506000607b8401528252610e7a82610898565b815191012090565b818184010151828288010152018390610e5e565b34610385576000366003190112610385576020610eb1610dd1565b604051908152f35b34610385576020366003190112610385576004356000526005602052602060ff604060002054166040519015158152f35b90600182811c92168015610f1a575b6020831014610f0457565b634e487b7160e01b600052602260045260246000fd5b91607f1691610ef9565b34610385576080366003190112610385576020610eb1610f5a600435610f498161038a565b606435906044359060243590611306565b6001546042916040519161190160f01b8352600283015260228201522090565b346103855760003660031901126103855760206040516105798152f35b346103855760403660031901126103855761076460043561038a565b3461038557602036600319011261038557600435610fd08161038a565b6000546001600160a01b039190610fea9083163314611339565b818116801561103d5761044e92600654167f98e6a46aa139a033b9c7f3ae4ad1c103ffdce3e7cf509326808ba8c4b5af11c0600080a360018060a01b03166001600160601b0360a01b6006541617600655565b60405162461bcd60e51b815260206004820152601d60248201527f53746174652073796e6365723a20696e76616c696420616464726573730000006044820152606490fd5b60405161108e81610898565b60528082526020907f454950373132446f6d61696e28737472696e67206e616d652c737472696e6720828401527f76657273696f6e2c75696e7432353620636861696e49642c6164647265737320604084015271766572696679696e67436f6e74726163742960701b6060840152604051928260005b83811061112057505050600060728401528252610e7a82610898565b818184010151828288010152018390611104565b34610385576000366003190112610385576020610eb1611082565b346103855760203660031901126103855760043561116c8161038a565b6000546001600160a01b0391906111869083163314611339565b81811680156111e25760035461044e93166001600160a01b03167f1f9f3556dd336016cdf20adaead7d5c73665dba664b60e8c17e9a4eb91ce1d39600080a360018060a01b03166001600160601b0360a01b6003541617600355565b608460405162461bcd60e51b815260206004820152604060248201527f4163636f756e74204261736564204368696c6420746f6b656e3a206e6577206360448201527f68696c64206164647265737320697320746865207a65726f20616464726573736064820152fd5b34610385576020366003190112610385576004356112698161038a565b6000805490916001600160a01b0380831691611286338414611339565b1680926001600160601b0360a01b161783557f8be0079c531659141344cd1fd0a4f28419497f9722a3daafe3b4186f6b6457e08380a380f35b34610385576000366003190112610385576006546040516001600160a01b039091168152602090f35b34610385576000366003190112610385576020600154604051908152f35b9160a09391611313610dd1565b93604051948552600180871b031660208501526040840152606083015260808201522090565b1561134057565b606460405162461bcd60e51b815260206004820152602060248201527f4f776e61626c653a2063616c6c6572206973206e6f7420746865206f776e65726044820152fd5b1561138b57565b60405162461bcd60e51b815260206004820152602e60248201527f4163636f756e74204261736564204261736520546f6b656e3a205369676e617460448201526d1d5c99481a5cc8195e1c1a5c995960921b6064820152608490fd5b156113ee57565b60405162461bcd60e51b815260206004820152602960248201527f4163636f756e74204261736564204261736520546f6b656e3a205369672064656044820152681858dd1a5d985d195960ba1b6064820152608490fd5b61144d611082565b6d446f6a696d61204e6574776f726b60901b602060405161146d81610877565b600e81520152640312e302e360dc1b602060405161148a81610877565b60058152015260405192602084019182527f221f8a440277f355573de882ed84f79b3742ae470474223812e292fd8a8bfa4460408501527f06c015bd22b4c69690933c1058878ebdfef31f9aaae40bbe86d8a09fe1b2972c6060850152610579608085015260018060a01b031660a084015260a0835260c083019280841067ffffffffffffffff85111761089357604084905251902061190160f01b8352600283015260228201526042902090565b90565b90816020910312610385575190565b6040513d6000823e3d90fd5b60405180600060025461156981610eea565b906001908181169081156115dd5750600114611588575b505003902090565b600260009081529192507f405787fa12a823e0f2b7631cc41b3ba8828b3321ca811111fa75cd3aa3bb5ace5b8383106115c75750505081013880611580565b80548684015285945060209092019181016115b4565b60ff19168552505080151502820190503880611580565b6040516370a0823160e01b8082526001600160a01b038316600483015291939260209291908382602481305afa918215611763576000926117a4575b506040518381526001600160a01b0382166004820152938085602481305afa94851561176357600095611785575b5061166a868389611bd4565b6040518481526001600160a01b03881660048201528181602481305afa90811561176357600091611768575b506040519485526001600160a01b03831660048601528185602481305afa908115611763577fb04c113d65bb862cc6c362d7c4c1271731185b8d36753f810d184768e771c1fc9561172c93600093611734575b50506116f3611557565b9660405195869560018060a01b038091169b1699869192608093969594919660a084019784526020840152604083015260608201520152565b0390a4600190565b611754929350803d1061175c575b61174c81836108b4565b81019061153c565b9038806116e9565b503d611742565b61154b565b61177f9150823d841161175c5761174c81836108b4565b38611696565b8161179d9296503d871161175c5761174c81836108b4565b933861165e565b6117bc919250843d861161175c5761174c81836108b4565b9038611630565b634e487b7160e01b600052601160045260246000fd5b60ff601b9116019060ff82116117eb57565b6117c3565b156117f757565b60405162461bcd60e51b815260206004820152601260248201527122b93937b91034b71032b1b932b1b7bb32b960711b6044820152606490fd5b90600060418251036118ec575060208101519160ff604160408401519301511690601b82106118dc575b60ff8216601b81141590816118d0575b506118c75761189f600093602095604051948594859094939260ff6060936080840197845216602083015260408201520152565b838052039060015afa1561176357600051906118c56001600160a01b03831615156117f0565b565b50505050600090565b601c915014153861186b565b906118e6906117d9565b9061185b565b91505090565b6001600160a01b038116600081815260076020526040902054909291908315611a11576001600160a01b03821660009081526007602052604090207feba6ac1619d393af4bf202dad828b057aaf28edd445663dc6ec4e30a43cc410a926119e19185905461196282821015611da8565b0361197f8260018060a01b03166000526007602052604060002090565b5561198d8560095403600955565b6000867fddf252ad1be2c89b69c2b068fc378daa952ba7f163c4a11628f55a4df523b3ef604051806119c48a829190602083019252565b0390a36001600160a01b0316600090815260076020526040902090565b5492611a0c6119ee611557565b94604051938493846040919493926060820195825260208201520152565b0390a3565b60405162461bcd60e51b815260206004820152601a60248201527f4368696c642053504c3a20696e76616c696420616464726573730000000000006044820152606490fd5b90816020910312610385575180151581036103855790565b6004549091906001600160a01b039081168015159182611aa0575b5050611a995761153991336115f4565b5050600090565b600092509060646020926040519485938492631ffb811f60e01b8452336004850152891660248401528760448401525af190811561176357600091611ae9575b50153880611a89565b611b0a915060203d8111611b10575b611b0281836108b4565b810190611a56565b38611ae0565b503d611af8565b15611b1e57565b60405162461bcd60e51b815260206004820152602860248201527f4368696c6420424550323a207472616e7366657220746f20746865207a65726f604482015267206164647265737360c01b6064820152608490fd5b15611b7b57565b60405162461bcd60e51b815260206004820152602b60248201527f4368696c6420424550323a207472616e7366657220616d6f756e74206578636560448201526a6564732062616c616e636560a81b6064820152608490fd5b916001600160a01b038084169290918315611c9657611c80827fddf252ad1be2c89b69c2b068fc378daa952ba7f163c4a11628f55a4df523b3ef94611a0c941696611c20881515611b17565b6001600160a01b0381166000908152600760205260409020611c6590859054611c4b82821015611b74565b039160018060a01b03166000526007602052604060002090565b556001600160a01b0316600090815260076020526040902090565b8054820190556040519081529081906020820190565b60405162461bcd60e51b815260206004820152602a60248201527f4368696c6420424550323a207472616e736665722066726f6d20746865207a65604482015269726f206164647265737360b01b6064820152608490fd5b6001600160a01b03811691908215611d6357600954908282018092116117eb57600092611d546020927fddf252ad1be2c89b69c2b068fc378daa952ba7f163c4a11628f55a4df523b3ef9460095560018060a01b03166000526007602052604060002090565b818154019055604051908152a3565b60405162461bcd60e51b815260206004820152601a60248201527f4368696c642053504c3a20696e76616c6964206163636f756e740000000000006044820152606490fd5b15611daf57565b60405162461bcd60e51b815260206004820152602660248201527f4368696c642053504c3a206275726e20616d6f756e7420657863656564732062604482015265616c616e636560d01b6064820152608490fd5b60405162461bcd60e51b815260206004820152601060248201526f44697361626c6564206665617475726560801b6044820152606490fdfea2646970667358221220e1cfb3aa087acd8a1109dc83eb6a1bf15b1586530b355424f340ad1dee5b5c7064736f6c63430008130033a2646970667358221220595d49b3724d3de03288a6684471fe4b07540a3e2cc4092b8c6cca7d00fc138564736f6c63430008130033",
  "linkReferences": {},
  "deployedLinkReferences": {}
}