{
  "_format": "hh-sol-artifact-1",
  "contractName": "TestToken",
  "sourceName": "contracts/common/tokens/TestToken.sol",
  "abi": [
    {
      "inputs": [
        {
          "internalType": "string",
          "name": "_name",
          "type": "string"
        },
        {
          "internalType": "string",
          "name": "_symbol",
          "type": "string"
        }
      ],
      "stateMutability": "nonpayable",
      "type": "constructor"
    },
    {
      "anonymous": false,
      "inputs": [
        {
          "indexed": true,
          "internalType": "address",
          "name": "owner",
          "type": "address"
        },
        {
          "indexed": true,
          "internalType": "address",
          "name": "spender",
          "type": "address"
        },
        {
          "indexed": false,
          "internalType": "uint256",
          "name": "value",
          "type": "uint256"
        }
      ],
      "name": "Approval",
      "type": "event"
    },
    {
      "anonymous": false,
      "inputs": [
        {
          "indexed": true,
          "internalType": "address",
          "name": "from",
          "type": "address"
        },
        {
          "indexed": true,
          "internalType": "address",
          "name": "to",
          "type": "address"
        },
        {
          "indexed": false,
          "internalType": "uint256",
          "name": "value",
          "type": "uint256"
        }
      ],
      "name": "Transfer",
      "type": "event"
    },
    {
      "inputs": [
        {
          "internalType": "address",
          "name": "owner",
          "type": "address"
        },
        {
          "internalType": "address",
          "name": "spender",
          "type": "address"
        }
      ],
      "name": "allowance",
      "outputs": [
        {
          "internalType": "uint256",
          "name": "",
          "type": "uint256"
        }
      ],
      "stateMutability": "view",
      "type": "function"
    },
    {
      "inputs": [
        {
          "internalType": "address",
          "name": "spender",
          "type": "address"
        },
        {
          "internalType": "uint256",
          "name": "amount",
          "type": "uint256"
        }
      ],
      "name": "approve",
      "outputs": [
        {
          "internalType": "bool",
          "name": "",
          "type": "bool"
        }
      ],
      "stateMutability": "nonpayable",
      "type": "function"
    },
    {
      "inputs": [
        {
          "internalType": "address",
          "name": "account",
          "type": "address"
        }
      ],
      "name": "balanceOf",
      "outputs": [
        {
          "internalType": "uint256",
          "name": "",
          "type": "uint256"
        }
      ],
      "stateMutability": "view",
      "type": "function"
    },
    {
      "inputs": [],
      "name": "decimals",
      "outputs": [
        {
          "internalType": "uint8",
          "name": "",
          "type": "uint8"
        }
      ],
      "stateMutability": "view",
      "type": "function"
    },
    {
      "inputs": [],
      "name": "decimals_",
      "outputs": [
        {
          "internalType": "uint8",
          "name": "",
          "type": "uint8"
        }
      ],
      "stateMutability": "view",
      "type": "function"
    },
    {
      "inputs": [
        {
          "internalType": "address",
          "name": "spender",
          "type": "address"
        },
        {
          "internalType": "uint256",
          "name": "subtractedValue",
          "type": "uint256"
        }
      ],
      "name": "decreaseAllowance",
      "outputs": [
        {
          "internalType": "bool",
          "name": "",
          "type": "bool"
        }
      ],
      "stateMutability": "nonpayable",
      "type": "function"
    },
    {
      "inputs": [
        {
          "internalType": "address",
          "name": "spender",
          "type": "address"
        },
        {
          "internalType": "uint256",
          "name": "addedValue",
          "type": "uint256"
        }
      ],
      "name": "increaseAllowance",
      "outputs": [
        {
          "internalType": "bool",
          "name": "",
          "type": "bool"
        }
      ],
      "stateMutability": "nonpayable",
      "type": "function"
    },
    {
      "inputs": [],
      "name": "name",
      "outputs": [
        {
          "internalType": "string",
          "name": "",
          "type": "string"
        }
      ],
      "stateMutability": "view",
      "type": "function"
    },
    {
      "inputs": [],
      "name": "name_",
      "outputs": [
        {
          "internalType": "string",
          "name": "",
          "type": "string"
        }
      ],
      "stateMutability": "view",
      "type": "function"
    },
    {
      "inputs": [],
      "name": "symbol",
      "outputs": [
        {
          "internalType": "string",
          "name": "",
          "type": "string"
        }
      ],
      "stateMutability": "view",
      "type": "function"
    },
    {
      "inputs": [],
      "name": "symbol_",
      "outputs": [
        {
          "internalType": "string",
          "name": "",
          "type": "string"
        }
      ],
      "stateMutability": "view",
      "type": "function"
    },
    {
      "inputs": [],
      "name": "totalSupply",
      "outputs": [
        {
          "internalType": "uint256",
          "name": "",
          "type": "uint256"
        }
      ],
      "stateMutability": "view",
      "type": "function"
    },
    {
      "inputs": [
        {
          "internalType": "address",
          "name": "to",
          "type": "address"
        },
        {
          "internalType": "uint256",
          "name": "amount",
          "type": "uint256"
        }
      ],
      "name": "transfer",
      "outputs": [
        {
          "internalType": "bool",
          "name": "",
          "type": "bool"
        }
      ],
      "stateMutability": "nonpayable",
      "type": "function"
    },
    {
      "inputs": [
        {
          "internalType": "address",
          "name": "from",
          "type": "address"
        },
        {
          "internalType": "address",
          "name": "to",
          "type": "address"
        },
        {
          "internalType": "uint256",
          "name": "amount",
          "type": "uint256"
        }
      ],
      "name": "transferFrom",
      "outputs": [
        {
          "internalType": "bool",
          "name": "",
          "type": "bool"
        }
      ],
      "stateMutability": "nonpayable",
      "type": "function"
    }
  ],
  "bytecode": "0x6080604090808252346200072357620012a2803803809162000022828562000728565b833981018282820312620007235781516001600160401b0390818111620007235782620000519185016200074c565b926020928382015183811162000723576200006d92016200074c565b92845191600090600592835492856200008685620007c3565b9182825260019589878216918260001462000705575050600114620006c1575b620000b49250038662000728565b87519660009460069589875491620000cc83620007c3565b928383528b8982169182600014620006a357505060011462000660575b620000f79250038a62000728565b865192848411620005805760039380620001128654620007c3565b998b601f9b8c811162000609575b50508b908b8311600114620005a25760009262000596575b505060001982871b1c191690871b1784555b8951858111620005805780620001669b8b60049d8e54620007c3565b8c811162000529575b50508b908b8311600114620004c257600092620004b6575b505060001982871b1c191690871b178a555b601260ff196007541617600755805190858211620004a1578190620001bf8454620007c3565b8a81116200044d575b508a908a8311600114620003e657600092620003da575b505060001982861b1c191690861b1781555b8151938411620003c557620002078654620007c3565b908782116200037c575b50508690868411600114620003115793839491849260009562000305575b50501b92600019911b1c19161790555b3315620002c657506002546b204fce5e3e2502611000000092838201809211620002b157506000917fddf252ad1be2c89b69c2b068fc378daa952ba7f163c4a11628f55a4df523b3ef9160025533835282815284832084815401905584519384523393a351610aa19081620008018239f35b601190634e487b7160e01b6000525260246000fd5b90606493519262461bcd60e51b845283015260248201527f45524332303a206d696e7420746f20746865207a65726f2061646472657373006044820152fd5b0151935038806200022f565b9190601f198416928660005284896000209460005b8b8983831062000364575050501062000349575b50505050811b0190556200023f565b01519060f884600019921b161c19169055388080806200033a565b86860151895590970196948501948893500162000326565b86600052886000209088808701821c8301938b8810620003bb575b01901c019085905b828110620003ae575062000211565b600081550185906200039f565b9350829362000397565b604189634e487b7160e01b6000525260246000fd5b015190503880620001df565b60008581528c81208a9550929190601f198516908e5b8282106200043557505084116200041c575b505050811b018155620001f1565b015160001983881b60f8161c191690553880806200040e565b8385015186558c979095019493840193018e620003fc565b909150836000528a6000208a808501861c8201928d861062000497575b918a918695949301871c01915b82811062000487575050620001c8565b600081558594508a910162000477565b925081926200046a565b60418b634e487b7160e01b6000525260246000fd5b01519050388062000187565b60008e81528d81208b9550929190601f198516908f5b828210620005115750508411620004f8575b505050811b018a5562000199565b015160001983891b60f8161c19169055388080620004ea565b8385015186558d979095019493840193018f620004d8565b909192508d6000528b8260002091818601881c830193861062000576575b918b918695949301881c01915b8281106200056657508d91506200016f565b600081558594508b910162000554565b9250819262000547565b634e487b7160e01b600052604160045260246000fd5b01519050388062000138565b60008881528d81208b9550929190601f198516908f5b828210620005f15750508411620005d8575b505050811b0184556200014a565b015160001983891b60f8161c19169055388080620005ca565b8385015186558d979095019493840193018f620005b8565b90919250876000528b8260002091818601881c830193861062000656575b918b918695949301881c01915b8281106200064657508d915062000120565b600081558594508b910162000634565b9250819262000627565b505086600052898980600020886000915b8583106200068a575050620000f79350820101620000e9565b90919383858354920101520191018a90888d9362000671565b60ff191684820152620000f7941515861b8401019150620000e99050565b505084600052858780600020866000915b858310620006eb575050620000b49350820101620000a6565b80919294505483858c0101520191018890868993620006d2565b60ff191684820152620000b4941515891b8401019150620000a69050565b600080fd5b601f909101601f19168101906001600160401b038211908210176200058057604052565b919080601f8401121562000723578251906001600160401b03821162000580576040519160209162000788601f8301601f191684018562000728565b818452828287010111620007235760005b818110620007af57508260009394955001015290565b858101830151848201840152820162000799565b90600182811c92168015620007f5575b6020831014620007df57565b634e487b7160e01b600052602260045260246000fd5b91607f1691620007d356fe608060408181526004918236101561001657600080fd5b600092833560e01c91826306fdde03146106a557508163095ea7b31461067b57816318160ddd1461065c57816323b872dd14610592578163313ce56714610576578163395093511461050f57816370a08231146104d857816395d89b4114610400578163a457c2d714610358578163a9059cbb14610327578163af17dea61461024d578163dd62ed3e14610204578163e2b9e186146100e3575063f785ef72146100bf57600080fd5b346100df57816003193601126100df5760209060ff600754169051908152f35b5080fd5b8383346100df57816003193601126100df5780519082600554600181811c908083169283156101fa575b60209384841081146101e7578388529081156101cb5750600114610175575b505050829003601f01601f191682019267ffffffffffffffff841183851017610162575082918261015e925282610781565b0390f35b634e487b7160e01b815260418552602490fd5b600587529192508591837f036b6384b5eca791c62761152d0c79bb0604c104a5fb6f4eb0703f3154bb3db05b8385106101b7575050505083010185808061012c565b8054888601830152930192849082016101a1565b60ff1916878501525050151560051b840101905085808061012c565b634e487b7160e01b895260228a52602489fd5b91607f169161010d565b5050346100df57806003193601126100df57806020926102226107ca565b61022a6107e5565b6001600160a01b0391821683526001865283832091168252845220549051908152f35b8383346100df57816003193601126100df5780519082600654600181811c9080831692831561031d575b60209384841081146101e7578388529081156101cb57506001146102c757505050829003601f01601f191682019267ffffffffffffffff841183851017610162575082918261015e925282610781565b600687529192508591837ff652222313e28459528d920b65115c16c04f3efc82aaedc97be59f3f377c0d3f5b838510610309575050505083010185808061012c565b8054888601830152930192849082016102f3565b91607f1691610277565b5050346100df57806003193601126100df576020906103516103476107ca565b60243590336107fb565b5160018152f35b905082346103fd57826003193601126103fd576103736107ca565b918360243592338152600160205281812060018060a01b03861682526020522054908282106103ac576020856103518585038733610969565b608490602086519162461bcd60e51b8352820152602560248201527f45524332303a2064656372656173656420616c6c6f77616e63652062656c6f77604482015264207a65726f60d81b6064820152fd5b80fd5b8383346100df57816003193601126100df57805190828454600181811c908083169283156104ce575b60209384841081146101e7578388529081156101cb575060011461047957505050829003601f01601f191682019267ffffffffffffffff841183851017610162575082918261015e925282610781565b8787529192508591837f8a35acfbc15ff81a39ae7d344fd709f28e8600b4aa8c65c6b64bfe7fe36bd19b5b8385106104ba575050505083010185808061012c565b8054888601830152930192849082016104a4565b91607f1691610429565b5050346100df5760203660031901126100df5760209181906001600160a01b036105006107ca565b16815280845220549051908152f35b8284346103fd57816003193601126103fd576105296107ca565b338252600160209081528383206001600160a01b038316845290528282205460243581019290831061056357602084610351858533610969565b634e487b7160e01b815260118552602490fd5b5050346100df57816003193601126100df576020905160128152f35b839150346100df5760603660031901126100df576105ae6107ca565b6105b66107e5565b91846044359460018060a01b0384168152600160205281812033825260205220549060001982036105f0575b6020866103518787876107fb565b848210610619575091839161060e6020969561035195033383610969565b9193948193506105e2565b606490602087519162461bcd60e51b8352820152601d60248201527f45524332303a20696e73756666696369656e7420616c6c6f77616e63650000006044820152fd5b5050346100df57816003193601126100df576020906002549051908152f35b5050346100df57806003193601126100df5760209061035161069b6107ca565b6024359033610969565b8490843461077d578260031936011261077d5782600354600181811c90808316928315610773575b60209384841081146101e7578388529081156101cb575060011461071d57505050829003601f01601f191682019267ffffffffffffffff841183851017610162575082918261015e925282610781565b600387529192508591837fc2575a0e9e593c00f959f8c92f12db2869c3395a3b0502d05e2516446f71f85b5b83851061075f575050505083010185808061012c565b805488860183015293019284908201610749565b91607f16916106cd565b8280fd5b6020808252825181830181905290939260005b8281106107b657505060409293506000838284010152601f8019910116010190565b818101860151848201604001528501610794565b600435906001600160a01b03821682036107e057565b600080fd5b602435906001600160a01b03821682036107e057565b6001600160a01b0390811691821561091657169182156108c55760008281528060205260408120549180831061087157604082827fddf252ad1be2c89b69c2b068fc378daa952ba7f163c4a11628f55a4df523b3ef958760209652828652038282205586815220818154019055604051908152a3565b60405162461bcd60e51b815260206004820152602660248201527f45524332303a207472616e7366657220616d6f756e7420657863656564732062604482015265616c616e636560d01b6064820152608490fd5b60405162461bcd60e51b815260206004820152602360248201527f45524332303a207472616e7366657220746f20746865207a65726f206164647260448201526265737360e81b6064820152608490fd5b60405162461bcd60e51b815260206004820152602560248201527f45524332303a207472616e736665722066726f6d20746865207a65726f206164604482015264647265737360d81b6064820152608490fd5b6001600160a01b03908116918215610a1a57169182156109ca5760207f8c5be1e5ebec7d5bd14f71427d1e84f3dd0314c0f7b2291e5b200ac8c7c3b925918360005260018252604060002085600052825280604060002055604051908152a3565b60405162461bcd60e51b815260206004820152602260248201527f45524332303a20617070726f766520746f20746865207a65726f206164647265604482015261737360f01b6064820152608490fd5b60405162461bcd60e51b8152602060048201526024808201527f45524332303a20617070726f76652066726f6d20746865207a65726f206164646044820152637265737360e01b6064820152608490fdfea264697066735822122079f7dc596242fe52951520c4b3e34db44e76fbbef42de4acea3c7cb05fcb0b3164736f6c63430008130033",
  "linkReferences": {},
  "deployedLinkReferences": {}
}