{
  "_format": "hh-sol-artifact-1",
  "contractName": "BridgeParent",
  "sourceName": "contracts/bridge/BridgeParent.sol",
  "abi": [
    {
      "inputs": [
        {
          "internalType": "address",
          "name": "_stateSender",
          "type": "address"
        }
      ],
      "stateMutability": "nonpayable",
      "type": "constructor"
    },
    {
      "inputs": [],
      "name": "bridgeChild",
      "outputs": [
        {
          "internalType": "address",
          "name": "",
          "type": "address"
        }
      ],
      "stateMutability": "view",
      "type": "function"
    },
    {
      "inputs": [
        {
          "internalType": "address",
          "name": "_receiver",
          "type": "address"
        },
        {
          "internalType": "bytes",
          "name": "_data",
          "type": "bytes"
        }
      ],
      "name": "sendMessageToBridgeChild",
      "outputs": [],
      "stateMutability": "nonpayable",
      "type": "function"
    },
    {
      "inputs": [
        {
          "internalType": "address",
          "name": "_bridgeChild",
          "type": "address"
        }
      ],
      "name": "setChild",
      "outputs": [],
      "stateMutability": "nonpayable",
      "type": "function"
    },
    {
      "inputs": [],
      "name": "stateSender",
      "outputs": [
        {
          "internalType": "contract IInboundStateSender",
          "name": "",
          "type": "address"
        }
      ],
      "stateMutability": "view",
      "type": "function"
    }
  ],
  "bytecode": "0x60803461007457601f61040338819003918201601f19168301916001600160401b038311848410176100795780849260209460405283398101031261007457516001600160a01b0381169081900361007457600080546001600160a01b03191691909117905560405161037390816100908239f35b600080fd5b634e487b7160e01b600052604160045260246000fdfe608060408181526004918236101561001657600080fd5b600092833560e01c9182630de8bed2146102fd575081633998f59d146102ae57816368a9a7ae1461007b575063cb10f94c1461005157600080fd5b34610077578160031936011261007757905490516001600160a01b039091168152602090f35b5080fd5b919050346102aa57806003193601126102aa57610096610322565b91602490813567ffffffffffffffff948582116102a657366023830112156102a65781830135918683116102a257368584830101116102a2578215610252576001600160a01b03918216928315610201579081601f928789519360209733898701528b8601526060808601528260808601520160a08401378960a0828401015260bf828419809581940116810103608081018452011681019788119381891085176101ef57888852838a54169360015416843b156101eb57918993918b959363f50aa84b60e01b8652888601528989860152815191826044870152865b8381106101cf575050506064848093601f848985819786010152011681010301925af180156101c5576101a4578580f35b6101b45750505238808080808580f35b634e487b7160e01b85526041905283fd5b84513d88823e3d90fd5b818101830151968101606401969096528c96508b958201610173565b8a80fd5b634e487b7160e01b8a5260418652868afd5b865162461bcd60e51b81526020818701526026818801527f427269646765506172656e743a20696e76616c6964207265636569766572206160448201526564647265737360d01b6064820152608490fd5b855162461bcd60e51b81526020818601526025818701527f427269646765506172656e743a207061796c6f61642063616e6e6f7420626520604482015264656d70747960d81b6064820152608490fd5b8780fd5b8680fd5b8280fd5b83346102fa5760203660031901126102fa576102c8610322565b600154906001600160a01b03908183166102f65716906bffffffffffffffffffffffff60a01b161760015580f35b8380fd5b80fd5b8490346100775781600319360112610077576001546001600160a01b03168152602090f35b600435906001600160a01b038216820361033857565b600080fdfea264697066735822122028011244de07b74bdda4c674ca509777f5fcd93cad49578de34db2efcd41d07b64736f6c63430008130033",
  "linkReferences": {},
  "deployedLinkReferences": {}
}