{
  "_format": "hh-sol-artifact-1",
  "contractName": "GovernanceProxy",
  "sourceName": "contracts/common/governance/GovernanceProxy.sol",
  "abi": [
    {
      "inputs": [
        {
          "internalType": "address",
          "name": "_proxyTo",
          "type": "address"
        }
      ],
      "stateMutability": "nonpayable",
      "type": "constructor"
    },
    {
      "anonymous": false,
      "inputs": [
        {
          "indexed": false,
          "internalType": "address",
          "name": "_prevOwner",
          "type": "address"
        },
        {
          "indexed": false,
          "internalType": "address",
          "name": "_newOwner",
          "type": "address"
        }
      ],
      "name": "OwnerUpdate",
      "type": "event"
    },
    {
      "anonymous": false,
      "inputs": [
        {
          "indexed": true,
          "internalType": "address",
          "name": "previousOwner",
          "type": "address"
        },
        {
          "indexed": true,
          "internalType": "address",
          "name": "newOwner",
          "type": "address"
        }
      ],
      "name": "OwnershipTransferred",
      "type": "event"
    },
    {
      "anonymous": false,
      "inputs": [
        {
          "indexed": true,
          "internalType": "address",
          "name": "_new",
          "type": "address"
        },
        {
          "indexed": true,
          "internalType": "address",
          "name": "_old",
          "type": "address"
        }
      ],
      "name": "ProxyUpdated",
      "type": "event"
    },
    {
      "stateMutability": "payable",
      "type": "fallback"
    },
    {
      "inputs": [],
      "name": "implementation",
      "outputs": [
        {
          "internalType": "address",
          "name": "",
          "type": "address"
        }
      ],
      "stateMutability": "view",
      "type": "function"
    },
    {
      "inputs": [],
      "name": "owner",
      "outputs": [
        {
          "internalType": "address",
          "name": "",
          "type": "address"
        }
      ],
      "stateMutability": "view",
      "type": "function"
    },
    {
      "inputs": [],
      "name": "proxyType",
      "outputs": [
        {
          "internalType": "uint256",
          "name": "proxyTypeId",
          "type": "uint256"
        }
      ],
      "stateMutability": "pure",
      "type": "function"
    },
    {
      "inputs": [],
      "name": "renounceOwnership",
      "outputs": [],
      "stateMutability": "nonpayable",
      "type": "function"
    },
    {
      "inputs": [
        {
          "internalType": "address",
          "name": "newOwner",
          "type": "address"
        }
      ],
      "name": "transferOwnership",
      "outputs": [],
      "stateMutability": "nonpayable",
      "type": "function"
    },
    {
      "inputs": [
        {
          "internalType": "address",
          "name": "_newProxyTo",
          "type": "address"
        }
      ],
      "name": "updateImplementation",
      "outputs": [],
      "stateMutability": "nonpayable",
      "type": "function"
    }
  ],
  "bytecode": "0x60803461017c57601f61062538819003918201601f19168301916001600160401b038311848410176101815780849260209460405283398101031261017c57516001600160a01b03908181169081810361017c5760008054336001600160a01b031980831682178455939186167f8be0079c531659141344cd1fd0a4f28419497f9722a3daafe3b4186f6b6457e08480a383156101375761009f90610197565b156100e45760015490837fd32d24edea94f55e932d9a008afc425a8561462d1b1f57bc6e508e9a6b9509e16040519684169280a3161760015561047290816101b38239f35b60405162461bcd60e51b815260206004820152602560248201527f44455354494e4154494f4e5f414444524553535f49535f4e4f545f415f434f4e60448201526415149050d560da1b6064820152608490fd5b60405162461bcd60e51b815260206004820152601560248201527f494e56414c49445f50524f58595f4144445245535300000000000000000000006044820152606490fd5b600080fd5b634e487b7160e01b600052604160045260246000fd5b6001600160a01b038116156101ac573b151590565b5060009056fe6080604052600436106103a9576000803560e01c908163025b22bc1461006f575080634555d5c91461006a5780635c60da1b14610065578063715018a6146100605780638da5cb5b1461005b5763f2fde38b036103a957610283565b61025a565b6101ff565b6101d6565b6101ba565b346101905761007d36610193565b61008561033b565b6001600160a01b03908082168015610153576100a082610421565b15610100576001546100fd93166001600160a01b0316907fd32d24edea94f55e932d9a008afc425a8561462d1b1f57bc6e508e9a6b9509e18580a360018060a01b03166bffffffffffffffffffffffff60a01b6001541617600155565b80f35b60405162461bcd60e51b815260206004820152602560248201527f44455354494e4154494f4e5f414444524553535f49535f4e4f545f415f434f4e60448201526415149050d560da1b6064820152608490fd5b60405162461bcd60e51b8152602060048201526015602482015274494e56414c49445f50524f58595f4144445245535360581b6044820152606490fd5b80fd5b60209060031901126101b5576004356001600160a01b03811681036101b55790565b600080fd5b346101b55760003660031901126101b557602060405160028152f35b346101b55760003660031901126101b5576001546040516001600160a01b039091168152602090f35b346101b5576000806003193601126101905761021961033b565b80546001600160a01b03198116825581906001600160a01b03167f8be0079c531659141344cd1fd0a4f28419497f9722a3daafe3b4186f6b6457e08280a380f35b346101b55760003660031901126101b5576000546040516001600160a01b039091168152602090f35b346101b55761029136610193565b61029961033b565b6001600160a01b0390811680156102e757600080546001600160a01b03198116831782559092167f8be0079c531659141344cd1fd0a4f28419497f9722a3daafe3b4186f6b6457e08380a380f35b60405162461bcd60e51b815260206004820152602660248201527f4f776e61626c653a206e6577206f776e657220697320746865207a65726f206160448201526564647265737360d01b6064820152608490fd5b6000546001600160a01b0316330361034f57565b606460405162461bcd60e51b815260206004820152602060248201527f4f776e61626c653a2063616c6c6572206973206e6f7420746865206f776e65726044820152fd5b634e487b7160e01b600052604160045260246000fd5b6001546001600160a01b031667ffffffffffffffff36811061041c576040519136601f01601f19908116603f011683019182118383101761041c5760009283926040523681526020810190368483378360203683010152519161270f195a01f46040513d91826000833e1561041a57f35bfd5b610393565b6001600160a01b03811615610436573b151590565b5060009056fea264697066735822122030c1c0cdd74804244ec1b958780ac5c8c078316040ddd553f2834ce04d091d5264736f6c63430008130033",
  "linkReferences": {},
  "deployedLinkReferences": {}
}