{
  "_format": "hh-sol-artifact-1",
  "contractName": "BridgeChild",
  "sourceName": "contracts/bridge/BridgeChild.sol",
  "abi": [
    {
      "anonymous": false,
      "inputs": [
        {
          "indexed": false,
          "internalType": "address",
          "name": "parentMessageSender",
          "type": "address"
        },
        {
          "indexed": false,
          "internalType": "address",
          "name": "receiver",
          "type": "address"
        },
        {
          "indexed": false,
          "internalType": "bytes",
          "name": "data",
          "type": "bytes"
        }
      ],
      "name": "NewBridgeMessage",
      "type": "event"
    },
    {
      "inputs": [],
      "name": "bridgeParent",
      "outputs": [
        {
          "internalType": "address",
          "name": "",
          "type": "address"
        }
      ],
      "stateMutability": "view",
      "type": "function"
    },
    {
      "inputs": [
        {
          "internalType": "uint256",
          "name": "stateId",
          "type": "uint256"
        },
        {
          "internalType": "bytes",
          "name": "_data",
          "type": "bytes"
        }
      ],
      "name": "onStateReceive",
      "outputs": [],
      "stateMutability": "nonpayable",
      "type": "function"
    },
    {
      "inputs": [
        {
          "internalType": "address",
          "name": "_bridgeParent",
          "type": "address"
        }
      ],
      "name": "setBridgeParent",
      "outputs": [],
      "stateMutability": "nonpayable",
      "type": "function"
    }
  ],
  "bytecode": "0x6080806040523461001657610368908161001c8239f35b600080fdfe6080604081815260048036101561001557600080fd5b600092833560e01c9182630a72f6d91461029957826326c53bea1461006f57505063e5f55ff11461004557600080fd5b3461006b578160031936011261006b57905490516001600160a01b039091168152602090f35b5080fd5b909291503461029557816003193601126102955760249081359367ffffffffffffffff9081861161024d573660238701121561024d578583013582811161029157860184810191368311610245576110013303610251575086606091031261024d576100dc8487016102d9565b6100e8604488016102d9565b9660648101359084821161024957018260438201121561024557858101359084821161023357875193601f19603f81601f86011601168501858110878211176102215789528285528a94939291908183016044011161021d57818592604460209301838701378401015260018060a01b0380911697167f4f8ce2626a2bb9f4ca66eebc31e5fa874d5f437ced2165e2193a45de436258bd87518981528260208201526060898201528061019e60608201866102f2565b0390a1803b15610219576101da97838851809a8195829463d031238560e01b84528a358b8501528b8401526060604484015260648301906102f2565b03925af1801561020f576101ec578580f35b84116101fe5750505238808080808580f35b634e487b7160e01b85526041905283fd5b84513d88823e3d90fd5b8280fd5b8480fd5b634e487b7160e01b8c5260418852888cfd5b634e487b7160e01b8a5260418652868afd5b8880fd5b8980fd5b8680fd5b62461bcd60e51b8152602085820152601b868201527f4272696467654368696c643a20496e76616c69642073656e64657200000000006044820152606490fd5b8780fd5b8380fd5b84903461006b57602036600319011261006b57356001600160a01b0381811691829003610219578254908116610219576001600160a01b03191617815580f35b35906001600160a01b03821682036102ed57565b600080fd5b919082519283825260005b84811061031e575050826000602080949584010152601f8019910116010190565b6020818301810151848301820152016102fd56fea2646970667358221220ae38948f6f94d942ef872f920291ab45ef972a730b21bbf9de9c91a0abe2da3464736f6c63430008130033",
  "linkReferences": {},
  "deployedLinkReferences": {}
}