{
  "_format": "hh-sol-artifact-1",
  "contractName": "EthereumCrossChainNFT",
  "sourceName": "contracts/templates/omnichainnft/crossChainNFT/EthereumCrossChainNFT.sol",
  "abi": [
    {
      "anonymous": false,
      "inputs": [
        {
          "indexed": false,
          "internalType": "address",
          "name": "previousAdmin",
          "type": "address"
        },
        {
          "indexed": false,
          "internalType": "address",
          "name": "newAdmin",
          "type": "address"
        }
      ],
      "name": "AdminChanged",
      "type": "event"
    },
    {
      "anonymous": false,
      "inputs": [
        {
          "indexed": true,
          "internalType": "address",
          "name": "owner",
          "type": "address"
        },
        {
          "indexed": true,
          "internalType": "address",
          "name": "approved",
          "type": "address"
        },
        {
          "indexed": true,
          "internalType": "uint256",
          "name": "tokenId",
          "type": "uint256"
        }
      ],
      "name": "Approval",
      "type": "event"
    },
    {
      "anonymous": false,
      "inputs": [
        {
          "indexed": true,
          "internalType": "address",
          "name": "owner",
          "type": "address"
        },
        {
          "indexed": true,
          "internalType": "address",
          "name": "operator",
          "type": "address"
        },
        {
          "indexed": false,
          "internalType": "bool",
          "name": "approved",
          "type": "bool"
        }
      ],
      "name": "ApprovalForAll",
      "type": "event"
    },
    {
      "anonymous": false,
      "inputs": [
        {
          "indexed": true,
          "internalType": "address",
          "name": "beacon",
          "type": "address"
        }
      ],
      "name": "BeaconUpgraded",
      "type": "event"
    },
    {
      "anonymous": false,
      "inputs": [
        {
          "indexed": false,
          "internalType": "uint8",
          "name": "version",
          "type": "uint8"
        }
      ],
      "name": "Initialized",
      "type": "event"
    },
    {
      "anonymous": false,
      "inputs": [
        {
          "indexed": true,
          "internalType": "address",
          "name": "user",
          "type": "address"
        },
        {
          "indexed": false,
          "internalType": "address",
          "name": "nft",
          "type": "address"
        },
        {
          "indexed": false,
          "internalType": "uint256",
          "name": "tokenId",
          "type": "uint256"
        },
        {
          "indexed": true,
          "internalType": "uint256",
          "name": "depositId",
          "type": "uint256"
        }
      ],
      "name": "NFTDeposited",
      "type": "event"
    },
    {
      "anonymous": false,
      "inputs": [
        {
          "indexed": true,
          "internalType": "bytes32",
          "name": "role",
          "type": "bytes32"
        },
        {
          "indexed": true,
          "internalType": "bytes32",
          "name": "previousAdminRole",
          "type": "bytes32"
        },
        {
          "indexed": true,
          "internalType": "bytes32",
          "name": "newAdminRole",
          "type": "bytes32"
        }
      ],
      "name": "RoleAdminChanged",
      "type": "event"
    },
    {
      "anonymous": false,
      "inputs": [
        {
          "indexed": true,
          "internalType": "bytes32",
          "name": "role",
          "type": "bytes32"
        },
        {
          "indexed": true,
          "internalType": "address",
          "name": "account",
          "type": "address"
        },
        {
          "indexed": true,
          "internalType": "address",
          "name": "sender",
          "type": "address"
        }
      ],
      "name": "RoleGranted",
      "type": "event"
    },
    {
      "anonymous": false,
      "inputs": [
        {
          "indexed": true,
          "internalType": "bytes32",
          "name": "role",
          "type": "bytes32"
        },
        {
          "indexed": true,
          "internalType": "address",
          "name": "account",
          "type": "address"
        },
        {
          "indexed": true,
          "internalType": "address",
          "name": "sender",
          "type": "address"
        }
      ],
      "name": "RoleRevoked",
      "type": "event"
    },
    {
      "anonymous": false,
      "inputs": [
        {
          "indexed": true,
          "internalType": "address",
          "name": "from",
          "type": "address"
        },
        {
          "indexed": true,
          "internalType": "address",
          "name": "to",
          "type": "address"
        },
        {
          "indexed": true,
          "internalType": "uint256",
          "name": "tokenId",
          "type": "uint256"
        }
      ],
      "name": "Transfer",
      "type": "event"
    },
    {
      "anonymous": false,
      "inputs": [
        {
          "indexed": true,
          "internalType": "address",
          "name": "implementation",
          "type": "address"
        }
      ],
      "name": "Upgraded",
      "type": "event"
    },
    {
      "inputs": [],
      "name": "DEFAULT_ADMIN_ROLE",
      "outputs": [
        {
          "internalType": "bytes32",
          "name": "",
          "type": "bytes32"
        }
      ],
      "stateMutability": "view",
      "type": "function"
    },
    {
      "inputs": [],
      "name": "EXECUTE_STATE_ROLE",
      "outputs": [
        {
          "internalType": "bytes32",
          "name": "",
          "type": "bytes32"
        }
      ],
      "stateMutability": "view",
      "type": "function"
    },
    {
      "inputs": [
        {
          "internalType": "address",
          "name": "to",
          "type": "address"
        },
        {
          "internalType": "uint256",
          "name": "tokenId",
          "type": "uint256"
        }
      ],
      "name": "approve",
      "outputs": [],
      "stateMutability": "nonpayable",
      "type": "function"
    },
    {
      "inputs": [
        {
          "internalType": "address",
          "name": "owner",
          "type": "address"
        }
      ],
      "name": "balanceOf",
      "outputs": [
        {
          "internalType": "uint256",
          "name": "",
          "type": "uint256"
        }
      ],
      "stateMutability": "view",
      "type": "function"
    },
    {
      "inputs": [
        {
          "internalType": "uint256",
          "name": "",
          "type": "uint256"
        },
        {
          "internalType": "bytes",
          "name": "stateData",
          "type": "bytes"
        }
      ],
      "name": "executeState",
      "outputs": [],
      "stateMutability": "nonpayable",
      "type": "function"
    },
    {
      "inputs": [
        {
          "internalType": "uint256",
          "name": "tokenId",
          "type": "uint256"
        }
      ],
      "name": "getApproved",
      "outputs": [
        {
          "internalType": "address",
          "name": "",
          "type": "address"
        }
      ],
      "stateMutability": "view",
      "type": "function"
    },
    {
      "inputs": [
        {
          "internalType": "bytes32",
          "name": "role",
          "type": "bytes32"
        }
      ],
      "name": "getRoleAdmin",
      "outputs": [
        {
          "internalType": "bytes32",
          "name": "",
          "type": "bytes32"
        }
      ],
      "stateMutability": "view",
      "type": "function"
    },
    {
      "inputs": [
        {
          "internalType": "bytes32",
          "name": "role",
          "type": "bytes32"
        },
        {
          "internalType": "address",
          "name": "account",
          "type": "address"
        }
      ],
      "name": "grantRole",
      "outputs": [],
      "stateMutability": "nonpayable",
      "type": "function"
    },
    {
      "inputs": [
        {
          "internalType": "bytes32",
          "name": "role",
          "type": "bytes32"
        },
        {
          "internalType": "address",
          "name": "account",
          "type": "address"
        }
      ],
      "name": "hasRole",
      "outputs": [
        {
          "internalType": "bool",
          "name": "",
          "type": "bool"
        }
      ],
      "stateMutability": "view",
      "type": "function"
    },
    {
      "inputs": [],
      "name": "inboundStateSender",
      "outputs": [
        {
          "internalType": "contract IInboundStateSender",
          "name": "",
          "type": "address"
        }
      ],
      "stateMutability": "view",
      "type": "function"
    },
    {
      "inputs": [
        {
          "internalType": "string",
          "name": "_name",
          "type": "string"
        },
        {
          "internalType": "string",
          "name": "_symbol",
          "type": "string"
        },
        {
          "internalType": "address",
          "name": "_inboundStateSender",
          "type": "address"
        },
        {
          "internalType": "address",
          "name": "_omniChainNFTContractAddress",
          "type": "address"
        }
      ],
      "name": "initialize",
      "outputs": [],
      "stateMutability": "nonpayable",
      "type": "function"
    },
    {
      "inputs": [
        {
          "internalType": "address",
          "name": "owner",
          "type": "address"
        },
        {
          "internalType": "address",
          "name": "operator",
          "type": "address"
        }
      ],
      "name": "isApprovedForAll",
      "outputs": [
        {
          "internalType": "bool",
          "name": "",
          "type": "bool"
        }
      ],
      "stateMutability": "view",
      "type": "function"
    },
    {
      "inputs": [],
      "name": "name",
      "outputs": [
        {
          "internalType": "string",
          "name": "",
          "type": "string"
        }
      ],
      "stateMutability": "view",
      "type": "function"
    },
    {
      "inputs": [],
      "name": "omniChainNFTContractAddress",
      "outputs": [
        {
          "internalType": "address",
          "name": "",
          "type": "address"
        }
      ],
      "stateMutability": "view",
      "type": "function"
    },
    {
      "inputs": [
        {
          "internalType": "uint256",
          "name": "tokenId",
          "type": "uint256"
        }
      ],
      "name": "ownerOf",
      "outputs": [
        {
          "internalType": "address",
          "name": "",
          "type": "address"
        }
      ],
      "stateMutability": "view",
      "type": "function"
    },
    {
      "inputs": [],
      "name": "proxiableUUID",
      "outputs": [
        {
          "internalType": "bytes32",
          "name": "",
          "type": "bytes32"
        }
      ],
      "stateMutability": "view",
      "type": "function"
    },
    {
      "inputs": [
        {
          "internalType": "bytes32",
          "name": "role",
          "type": "bytes32"
        },
        {
          "internalType": "address",
          "name": "account",
          "type": "address"
        }
      ],
      "name": "renounceRole",
      "outputs": [],
      "stateMutability": "nonpayable",
      "type": "function"
    },
    {
      "inputs": [
        {
          "internalType": "bytes32",
          "name": "role",
          "type": "bytes32"
        },
        {
          "internalType": "address",
          "name": "account",
          "type": "address"
        }
      ],
      "name": "revokeRole",
      "outputs": [],
      "stateMutability": "nonpayable",
      "type": "function"
    },
    {
      "inputs": [
        {
          "internalType": "address",
          "name": "from",
          "type": "address"
        },
        {
          "internalType": "address",
          "name": "to",
          "type": "address"
        },
        {
          "internalType": "uint256",
          "name": "tokenId",
          "type": "uint256"
        }
      ],
      "name": "safeTransferFrom",
      "outputs": [],
      "stateMutability": "nonpayable",
      "type": "function"
    },
    {
      "inputs": [
        {
          "internalType": "address",
          "name": "from",
          "type": "address"
        },
        {
          "internalType": "address",
          "name": "to",
          "type": "address"
        },
        {
          "internalType": "uint256",
          "name": "tokenId",
          "type": "uint256"
        },
        {
          "internalType": "bytes",
          "name": "data",
          "type": "bytes"
        }
      ],
      "name": "safeTransferFrom",
      "outputs": [],
      "stateMutability": "nonpayable",
      "type": "function"
    },
    {
      "inputs": [
        {
          "internalType": "address",
          "name": "operator",
          "type": "address"
        },
        {
          "internalType": "bool",
          "name": "approved",
          "type": "bool"
        }
      ],
      "name": "setApprovalForAll",
      "outputs": [],
      "stateMutability": "nonpayable",
      "type": "function"
    },
    {
      "inputs": [
        {
          "internalType": "bytes4",
          "name": "interfaceId",
          "type": "bytes4"
        }
      ],
      "name": "supportsInterface",
      "outputs": [
        {
          "internalType": "bool",
          "name": "",
          "type": "bool"
        }
      ],
      "stateMutability": "view",
      "type": "function"
    },
    {
      "inputs": [],
      "name": "symbol",
      "outputs": [
        {
          "internalType": "string",
          "name": "",
          "type": "string"
        }
      ],
      "stateMutability": "view",
      "type": "function"
    },
    {
      "inputs": [
        {
          "internalType": "uint256",
          "name": "tokenId",
          "type": "uint256"
        }
      ],
      "name": "tokenURI",
      "outputs": [
        {
          "internalType": "string",
          "name": "",
          "type": "string"
        }
      ],
      "stateMutability": "view",
      "type": "function"
    },
    {
      "inputs": [
        {
          "internalType": "address",
          "name": "from",
          "type": "address"
        },
        {
          "internalType": "address",
          "name": "to",
          "type": "address"
        },
        {
          "internalType": "uint256",
          "name": "tokenId",
          "type": "uint256"
        }
      ],
      "name": "transferFrom",
      "outputs": [],
      "stateMutability": "nonpayable",
      "type": "function"
    },
    {
      "inputs": [
        {
          "internalType": "address",
          "name": "user",
          "type": "address"
        },
        {
          "internalType": "uint256",
          "name": "tokenId",
          "type": "uint256"
        }
      ],
      "name": "transferToOmniChain",
      "outputs": [],
      "stateMutability": "nonpayable",
      "type": "function"
    },
    {
      "inputs": [
        {
          "internalType": "address",
          "name": "newImplementation",
          "type": "address"
        }
      ],
      "name": "upgradeTo",
      "outputs": [],
      "stateMutability": "nonpayable",
      "type": "function"
    },
    {
      "inputs": [
        {
          "internalType": "address",
          "name": "newImplementation",
          "type": "address"
        },
        {
          "internalType": "bytes",
          "name": "data",
          "type": "bytes"
        }
      ],
      "name": "upgradeToAndCall",
      "outputs": [],
      "stateMutability": "payable",
      "type": "function"
    }
  ],
  "bytecode": "0x60a080604052346100315730608052612be9908161003782396080518181816111f60152818161130f01526115b30152f35b600080fdfe608080604052600436101561001357600080fd5b600090813560e01c90816301ffc9a714611cd957508063043db33d14611b5357806306fdde0314611abf578063081812fc14611aa0578063095ea7b31461192957806323b872dd146118ff578063248a9ca3146118d25780632e7ef558146118975780632f2ff15d146117e457806336568abe146117515780633659cfe61461158e57806342842e0e146115665780634f1ef286146112d1578063518882b7146112a757806352d1902d146111e35780636352211e146111b25780637048a8151461118857806370a08231146110f2578063813bc1c614610d265780638f15b4141461069057806391d148541461064457806395d89b411461055f578063a217fddf14610543578063a22cb4651461046d578063b88d4fde1461041a578063c87b56dd146101ec578063d547741f146101ab5763e985e9c51461015557600080fd5b346101a85760403660031901126101a85761016e611d60565b6040610178611d76565b9260018060a01b038093168152606a602052209116600052602052602060ff604060002054166040519015158152f35b80fd5b50346101a85760403660031901126101a8576101e96004356101cb611d76565b9080845260fb6020526101e460016040862001546120c0565b6121cb565b80f35b50346101a857602090816003193601126101a8576004356000818152606760205260409020549091839161022a906001600160a01b03161515612393565b6040519261023784611e09565b8184528115610400578190807a184f03e93ff9f4daa797ed6e38ed64bf6a1f01000000000000000081818110156103f2575b5050846d04ee2d6d415b85acef8100000000808410156103e4575b5050662386f26fc10000808310156103d5575b506305f5e100808310156103c6575b50612710808310156103b7575b5060648210156103a7575b600a8092101561039d575b600190816021818601956102f56102df88611e91565b976102ed604051998a611e70565b808952611e91565b878a019890601f1901368a3750860101905b610367575b505050509261034d92916103419460405195836103328895518092888089019101611d8c565b84019151809386840190611d8c565b01038084520182611e70565b905b610363604051928284938452830190611daf565b0390f35b600019019083906f181899199a1a9b1b9c1cb0b131b232b360811b8282061a83530491821561039857919082610307565b61030c565b91600101916102c9565b91906064600291049101916102be565b600491939204910191386102b3565b600891939204910191386102a6565b60109193920491019138610297565b930192909104908438610284565b604094500491503880610269565b5050505060405161041081611e09565b600081529061034f565b50346101a85760803660031901126101a857610434611d60565b61043c611d76565b606435916001600160401b0383116104695761045f6101e9933690600401611eac565b91604435916124df565b8380fd5b50346101a85760403660031901126101a857610487611d60565b6024359081151580920361053f576001600160a01b0316903382146104fa57338352606a6020526040832082600052602052604060002060ff1981541660ff83161790556040519081527f17307eab39ab6107e8899845ad3d59bd9653f200f220920489ca2b5937696c3160203392a380f35b60405162461bcd60e51b815260206004820152601960248201527f4552433732313a20617070726f766520746f2063616c6c6572000000000000006044820152606490fd5b8280fd5b50346101a857806003193601126101a857602090604051908152f35b50346101a857806003193601126101a857604051908060665461058181612405565b8085529160019180831690811561061a57506001146105bf575b610363856105ab81870382611e70565b604051918291602083526020830190611daf565b9250606683527f46501879b8ca8525e8c2fd519e2fbfcfa2ebea26501294aa02cbfcfb12e943545b8284106106025750505081016020016105ab8261036361059b565b805460208587018101919091529093019281016105e7565b869550610363969350602092506105ab94915060ff191682840152151560051b820101929361059b565b50346101a85760403660031901126101a8576040610660611d76565b91600435815260fb602052209060018060a01b0316600052602052602060ff604060002054166040519015158152f35b50346101a85760803660031901126101a8576004356001600160401b038111610d22576106c1903690600401611eac565b6024356001600160401b03811161053f576106e0903690600401611eac565b604435906001600160a01b03908183168303610d1d57606435908282168203610d1d5785549460ff8660081c161595868097610d10575b8015610cf9575b15610c9d5760ff198116600117885586610c8c575b5083851615610c165783831615610ba05761075d60ff885460081c1661075881612a70565b612a70565b8051906001600160401b038211610b8c57819061077b606554612405565b601f8111610b1a575b50602090601f8311600114610aa4578992610a99575b50508160011b916000199060031b1c1916176065555b8051906001600160401b038211610a855781906107ce606654612405565b601f8111610a17575b50602090601f8311600114610994578892610989575b50508160011b916000199060031b1c1916176066555b61081760ff865460081c1661075881612a70565b84805260fb602052604085203360005260205260ff604060002054161561093a575b6001600160601b0360a01b61015f83851682825416179055826101609216908254161790557f0e2cff25c9cb02b23af25512a7a858cbf5d880a04ea10d3e9cae237254bdcde59081855260fb6020526040852081841660005260205260ff60406000205416156108e5575b5050506108ae5780f35b61ff001981541681557f7f26b83ff96e1f2b6a682f133852f6798a09c465da95921460cefb3847402498602060405160018152a180f35b81855260fb602052604085208184166000526020526040600020600160ff19825416179055339216907f2f8788117e7eff1d82e926ec794901d17c78024a50270940304540a733656f0d8580a43880806108a4565b84805260fb60205260408520336000526020526040600020600160ff198254161790553333867f2f8788117e7eff1d82e926ec794901d17c78024a50270940304540a733656f0d8180a4610839565b0151905038806107ed565b606689527f46501879b8ca8525e8c2fd519e2fbfcfa2ebea26501294aa02cbfcfb12e943549250601f198416895b8181106109ff57509084600195949392106109e6575b505050811b01606655610803565b015160001960f88460031b161c191690553880806109d8565b929360206001819287860151815501950193016109c2565b909150606688527f46501879b8ca8525e8c2fd519e2fbfcfa2ebea26501294aa02cbfcfb12e94354601f840160051c81019160208510610a7b575b90601f859493920160051c01905b818110610a6d57506107d7565b898155849350600101610a60565b9091508190610a52565b634e487b7160e01b87526041600452602487fd5b01519050388061079a565b925060658952600080516020612b748339815191529089935b601f1984168510610aff576001945083601f19811610610ae6575b505050811b016065556107b0565b015160001960f88460031b161c19169055388080610ad8565b81810151835560209485019460019093019290910190610abd565b90915060658952601f830160051c600080516020612b748339815191520160208410610b77575b908392915b601f820160051c600080516020612b74833981519152018110610b695750610784565b8a8155849350600101610b46565b50600080516020612b74833981519152610b41565b634e487b7160e01b88526041600452602488fd5b60405162461bcd60e51b815260206004820152604260248201527f457468657265756d43726f7373436861696e546f6b656e3a204f6d6e6943686160448201527f696e20636f6e747261637420616464726573732063616e6e6f74206265207a65606482015261726f60f01b608482015260a490fd5b60405162461bcd60e51b815260206004820152604260248201527f457468657265756d43726f7373436861696e546f6b656e3a20496e626f756e6460448201527f537461746553656e64657220616464726573732063616e6e6f74206265207a65606482015261726f60f01b608482015260a490fd5b61ffff191661010117875538610733565b60405162461bcd60e51b815260206004820152602e60248201527f496e697469616c697a61626c653a20636f6e747261637420697320616c72656160448201526d191e481a5b9a5d1a585b1a5e995960921b6064820152608490fd5b50303b15801561071e5750600160ff82161461071e565b50600160ff821610610717565b600080fd5b5080fd5b50346101a85760403660031901126101a85760248035906001600160401b03808311610469573660238401121561046957826004013590811161046957820191368284011161046957610d77612ad0565b3360009081527f66b4e1a9fa05e054f395ddf026be64ee0382f986889965e958c0e99e54a339e060209081526040909120549093907f0e2cff25c9cb02b23af25512a7a858cbf5d880a04ea10d3e9cae237254bdcde59060ff1615610f25575081606091031261046957818101356001600160a01b0381169290839003610f21576044820135908315610edf575060647f724414d5e450a09b21fe7c26f56b1ceb1b2b59eaa91ca885cbf8dc618c4e03849282610e54610e4e604095600052606760205260018060a01b0360406000205416151590565b15612b27565b600081815260676020526040902054610e77906001600160a01b03161515610e4e565b85885260688752838820805460010190558088526067875283882080546001600160a01b0319168717905583519681878a7fddf252ad1be2c89b69c2b068fc378daa952ba7f163c4a11628f55a4df523b3ef8180a4308852870152013593a3600161012d5580f35b606490856040519162461bcd60e51b83528160048401528201527f4552433732313a206d696e7420746f20746865207a65726f20616464726573736044820152fd5b8480fd5b848491610f3133612972565b90604051610f3e81611e55565b604281528381019160603684378151156110dd576030835381516001908110156110c857607860218401536041905b80821161105a57505061101857604861101493610fe993610ff89360405195869376020b1b1b2b9b9a1b7b73a3937b61d1030b1b1b7bab73a1604d1b8a860152610fc0815180928c603789019101611d8c565b8401917001034b99036b4b9b9b4b733903937b6329607d1b603784015251809386840190611d8c565b01036028810184520182611e70565b60405193849362461bcd60e51b85526004850152830190611daf565b0390fd5b606485856040519162461bcd60e51b83528160048401528201527f537472696e67733a20686578206c656e67746820696e73756666696369656e746044820152fd5b9091600f811660108110156110b3576f181899199a1a9b1b9c1cb0b131b232b360811b901a611089848661294b565b5360041c91801561109e576000190190610f6d565b87634e487b7160e01b60005260116004526000fd5b88634e487b7160e01b60005260326004526000fd5b86634e487b7160e01b60005260326004526000fd5b85634e487b7160e01b60005260326004526000fd5b50346101a85760203660031901126101a8576001600160a01b03611114611d60565b168015611131578160409160209352606883522054604051908152f35b60405162461bcd60e51b815260206004820152602960248201527f4552433732313a2061646472657373207a65726f206973206e6f7420612076616044820152683634b21037bbb732b960b91b6064820152608490fd5b50346101a857806003193601126101a857610160546040516001600160a01b039091168152602090f35b50346101a85760203660031901126101a85760206111d16004356123df565b6040516001600160a01b039091168152f35b50346101a857806003193601126101a8577f00000000000000000000000000000000000000000000000000000000000000006001600160a01b0316300361123c576020604051600080516020612b948339815191528152f35b60405162461bcd60e51b815260206004820152603860248201527f555550535570677261646561626c653a206d757374206e6f742062652063616c60448201527f6c6564207468726f7567682064656c656761746563616c6c00000000000000006064820152608490fd5b50346101a857806003193601126101a85761015f546040516001600160a01b039091168152602090f35b5060403660031901126101a8576112e6611d60565b6024356001600160401b03811161053f57611305903690600401611eac565b6001600160a01b037f0000000000000000000000000000000000000000000000000000000000000000811692919061133f30851415612241565b61135c600080516020612b948339815191529482865416146122a2565b611364611ef3565b7f4910fdfa16fed3260ed0e7147f7cc6da11a60208b5b9406d12a635614ffd91435460ff161561139a5750506101e99150612303565b82919216604051936352d1902d60e01b85526020948581600481865afa60009181611537575b506114215760405162461bcd60e51b815260048101879052602e60248201527f45524331393637557067726164653a206e657720696d706c656d656e7461746960448201526d6f6e206973206e6f74205555505360901b6064820152608490fd5b949394036114e05761143282612303565b7fbc7cd75a20ee27fd9adebab32041f755214dbc6bffa90cc0225b39da2e5c2d3b600080a28251158015906114d8575b61146d575b50505080f35b6000806114cf946040519461148186611e3a565b602786527f416464726573733a206c6f772d6c6576656c2064656c65676174652063616c6c81870152660819985a5b195960ca1b604087015281519101845af46114c9612743565b916128b2565b50388080611467565b506001611462565b60405162461bcd60e51b815260048101849052602960248201527f45524331393637557067726164653a20756e737570706f727465642070726f786044820152681a58589b195555525160ba1b6064820152608490fd5b90918782813d831161155f575b61154e8183611e70565b810103126101a857505190386113c0565b503d611544565b50346101a8576101e961157836611dd4565b906040519261158684611e09565b8584526124df565b50346101a857602080600319360112610d22576115a9611d60565b6001600160a01b037f000000000000000000000000000000000000000000000000000000000000000081166115e030821415612241565b6115fd600080516020612b948339815191529183835416146122a2565b611605611ef3565b6040519161161283611e09565b8583527f4910fdfa16fed3260ed0e7147f7cc6da11a60208b5b9406d12a635614ffd91435460ff161561164c575050506101e99150612303565b83929316906040516352d1902d60e01b81528581600481865afa60009181611722575b506116d05760405162461bcd60e51b815260048101879052602e60248201527f45524331393637557067726164653a206e657720696d706c656d656e7461746960448201526d6f6e206973206e6f74205555505360901b6064820152608490fd5b949394036114e0576116e182612303565b7fbc7cd75a20ee27fd9adebab32041f755214dbc6bffa90cc0225b39da2e5c2d3b600080a282511580159061171a5761146d5750505080f35b506000611462565b90918782813d831161174a575b6117398183611e70565b810103126101a8575051903861166f565b503d61172f565b50346101a85760403660031901126101a85761176b611d76565b336001600160a01b03821603611787576101e9906004356121cb565b60405162461bcd60e51b815260206004820152602f60248201527f416363657373436f6e74726f6c3a2063616e206f6e6c792072656e6f756e636560448201526e103937b632b9903337b91039b2b63360891b6064820152608490fd5b50346101a85760403660031901126101a857600435611801611d76565b81835260fb60205261181960016040852001546120c0565b81835260fb602052604083209060018060a01b0316908160005260205260ff6040600020541615611848578280f35b81835260fb60205260408320816000526020526040600020600160ff1982541617905533917f2f8788117e7eff1d82e926ec794901d17c78024a50270940304540a733656f0d8480a438808280f35b50346101a857806003193601126101a85760206040517f0e2cff25c9cb02b23af25512a7a858cbf5d880a04ea10d3e9cae237254bdcde58152f35b50346101a85760203660031901126101a85760016040602092600435815260fb8452200154604051908152f35b50346101a8576101e961191136611dd4565b9161192461191f843361256a565b61247d565b612632565b50346101a85760403660031901126101a857611943611d60565b602435906001600160a01b03808061195a856123df565b16921691808314611a5157803314908115611a2e575b50156119c35782845260696020526040842080546001600160a01b0319168317905561199b836123df565b167f8c5be1e5ebec7d5bd14f71427d1e84f3dd0314c0f7b2291e5b200ac8c7c3b9258480a480f35b60405162461bcd60e51b815260206004820152603d60248201527f4552433732313a20617070726f76652063616c6c6572206973206e6f7420746f60448201527f6b656e206f776e6572206f7220617070726f76656420666f7220616c6c0000006064820152608490fd5b90508452606a602052604084203360005260205260ff6040600020541638611970565b60405162461bcd60e51b815260206004820152602160248201527f4552433732313a20617070726f76616c20746f2063757272656e74206f776e656044820152603960f91b6064820152608490fd5b50346101a85760203660031901126101a85760206111d160043561243f565b50346101a857806003193601126101a8576040519080606554611ae181612405565b8085529160019180831690811561061a5750600114611b0a57610363856105ab81870382611e70565b925060658352600080516020612b748339815191525b828410611b3b5750505081016020016105ab8261036361059b565b80546020858701810191909152909301928101611b20565b50346101a85760403660031901126101a857611b6d611d60565b602435611b78612ad0565b611b81816123df565b50611b8b816123df565b91818452606960205260408420916001600160601b0360a01b9283815416905560018060a01b038094169283865260686020526040862060001981540190558186526067602052604086209081541690558085604051947fddf252ad1be2c89b69c2b068fc378daa952ba7f163c4a11628f55a4df523b3ef8280a48361015f5416938061016054169216602084015260408301528360608301526060825260808201926001600160401b038411928085108417611cc5579085929185604052813b156104695783869391849263f50aa84b60e01b84526084820152604060a4820152607f1990611c7e60c4820182611daf565b0301925af18015611cba57611c98575b82600161012d5580f35b611ca6576040523880611c8e565b634e487b7160e01b82526041600452602482fd5b6040513d85823e3d90fd5b634e487b7160e01b86526041600452602486fd5b905034610d22576020366003190112610d225760043563ffffffff60e01b811680910361053f5760209250637965db0b60e01b8114908115611d1d575b5015158152f35b6380ac58cd60e01b811491508115611d4f575b8115611d3e575b5038611d16565b6301ffc9a760e01b14905038611d37565b635b5e139f60e01b81149150611d30565b600435906001600160a01b0382168203610d1d57565b602435906001600160a01b0382168203610d1d57565b60005b838110611d9f5750506000910152565b8181015183820152602001611d8f565b90602091611dc881518092818552858086019101611d8c565b601f01601f1916010190565b6060906003190112610d1d576001600160a01b03906004358281168103610d1d57916024359081168103610d1d579060443590565b602081019081106001600160401b03821117611e2457604052565b634e487b7160e01b600052604160045260246000fd5b606081019081106001600160401b03821117611e2457604052565b608081019081106001600160401b03821117611e2457604052565b90601f801991011681019081106001600160401b03821117611e2457604052565b6001600160401b038111611e2457601f01601f191660200190565b81601f82011215610d1d57803590611ec382611e91565b92611ed16040519485611e70565b82845260208383010111610d1d57816000926020809301838601378301015290565b3360009081527fc88390e7e62175be0932452175b6a7222b6b094ab0ef984a5153c620345d8975602090815260408083205490929060ff1615611f3557505050565b611f3e33612972565b9080845190611f4c82611e55565b604282528482019260603685378251156120ac57603084538251906001918210156120ac5790607860218501536041915b81831161203e57505050611ffc576048611014938693611fe093611fd1985198899376020b1b1b2b9b9a1b7b73a3937b61d1030b1b1b7bab73a1604d1b8a860152610fc0815180928c603789019101611d8c565b01036028810187520185611e70565b5192839262461bcd60e51b845260048401526024830190611daf565b60648486519062461bcd60e51b825280600483015260248201527f537472696e67733a20686578206c656e67746820696e73756666696369656e746044820152fd5b909192600f81166010811015612098576f181899199a1a9b1b9c1cb0b131b232b360811b901a61206e858761294b565b5360041c92801561208457600019019190611f7d565b634e487b7160e01b82526011600452602482fd5b634e487b7160e01b83526032600452602483fd5b634e487b7160e01b81526032600452602490fd5b60009080825260209060fb8252604092838120338252835260ff8482205416156120ea5750505050565b6120f333612972565b9184519061210082611e55565b604282528482019260603685378251156120ac57603084538251906001918210156120ac5790607860218501536041915b81831161218557505050611ffc576048611014938693611fe093611fd1985198899376020b1b1b2b9b9a1b7b73a3937b61d1030b1b1b7bab73a1604d1b8a860152610fc0815180928c603789019101611d8c565b909192600f81166010811015612098576f181899199a1a9b1b9c1cb0b131b232b360811b901a6121b5858761294b565b5360041c92801561208457600019019190612131565b9060009180835260fb602052604083209160018060a01b03169182845260205260ff6040842054166121fc57505050565b80835260fb602052604083208284526020526040832060ff1981541690557ff6391f5c32d9c69d2a47ea670b442974b53935d1edc7fd64eb21e047a839171b339380a4565b1561224857565b60405162461bcd60e51b815260206004820152602c60248201527f46756e6374696f6e206d7573742062652063616c6c6564207468726f7567682060448201526b19195b1959d85d1958d85b1b60a21b6064820152608490fd5b156122a957565b60405162461bcd60e51b815260206004820152602c60248201527f46756e6374696f6e206d7573742062652063616c6c6564207468726f7567682060448201526b6163746976652070726f787960a01b6064820152608490fd5b803b1561233857600080516020612b9483398151915280546001600160a01b0319166001600160a01b03909216919091179055565b60405162461bcd60e51b815260206004820152602d60248201527f455243313936373a206e657720696d706c656d656e746174696f6e206973206e60448201526c1bdd08184818dbdb9d1c9858dd609a1b6064820152608490fd5b1561239a57565b60405162461bcd60e51b815260206004820152601860248201527f4552433732313a20696e76616c696420746f6b656e20494400000000000000006044820152606490fd5b6000908152606760205260409020546001600160a01b0316612402811515612393565b90565b90600182811c92168015612435575b602083101461241f57565b634e487b7160e01b600052602260045260246000fd5b91607f1691612414565b600081815260676020526040902054612462906001600160a01b03161515612393565b6000908152606960205260409020546001600160a01b031690565b1561248457565b60405162461bcd60e51b815260206004820152602d60248201527f4552433732313a2063616c6c6572206973206e6f7420746f6b656e206f776e6560448201526c1c881bdc88185c1c1c9bdd9959609a1b6064820152608490fd5b906125039392916124f361191f843361256a565b6124fe838383612632565b612773565b1561250a57565b60405162461bcd60e51b815260206004820152603260248201527f4552433732313a207472616e7366657220746f206e6f6e20455243373231526560448201527131b2b4bb32b91034b6b83632b6b2b73a32b960711b6064820152608490fd5b906001600160a01b03808061257e846123df565b169316918383149384156125b1575b50831561259b575b50505090565b6125a79192935061243f565b1614388080612595565b909350600052606a60205260406000208260005260205260ff60406000205416923861258d565b156125df57565b60405162461bcd60e51b815260206004820152602560248201527f4552433732313a207472616e736665722066726f6d20696e636f72726563742060448201526437bbb732b960d91b6064820152608490fd5b9061265a91612640846123df565b6001600160a01b03939184169284929091831684146125d8565b169182156126f2578161267791612670866123df565b16146125d8565b7fddf252ad1be2c89b69c2b068fc378daa952ba7f163c4a11628f55a4df523b3ef60008481526069602052604081206001600160601b0360a01b9081815416905583825260686020526040822060001981540190558482526040822060018154019055858252606760205284604083209182541617905580a4565b60405162461bcd60e51b8152602060048201526024808201527f4552433732313a207472616e7366657220746f20746865207a65726f206164646044820152637265737360e01b6064820152608490fd5b3d1561276e573d9061275482611e91565b916127626040519384611e70565b82523d6000602084013e565b606090565b91926000929190813b156128a8576020916127c99185604051958680958194630a85bd0160e11b9b8c845233600485015260018060a01b0380951660248501526044840152608060648401526084830190611daf565b0393165af190829082612860575b5050612852576127e5612743565b8051908161284d5760405162461bcd60e51b815260206004820152603260248201527f4552433732313a207472616e7366657220746f206e6f6e20455243373231526560448201527131b2b4bb32b91034b6b83632b6b2b73a32b960711b6064820152608490fd5b602001fd5b6001600160e01b0319161490565b909192506020813d82116128a0575b8161287c60209383611e70565b81010312610d225751906001600160e01b0319821682036101a857509038806127d7565b3d915061286f565b5050505050600190565b9192901561291457508151156128c6575090565b3b156128cf5790565b60405162461bcd60e51b815260206004820152601d60248201527f416464726573733a2063616c6c20746f206e6f6e2d636f6e74726163740000006044820152606490fd5b8251909150156129275750805190602001fd5b60405162461bcd60e51b815260206004820152908190611014906024830190611daf565b90815181101561295c570160200190565b634e487b7160e01b600052603260045260246000fd5b6040519061297f82611e3a565b602a825260208201604036823782511561295c5760309053815160019081101561295c57607860218401536029905b808211612a025750506129be5790565b606460405162461bcd60e51b815260206004820152602060248201527f537472696e67733a20686578206c656e67746820696e73756666696369656e746044820152fd5b9091600f81166010811015612a5b576f181899199a1a9b1b9c1cb0b131b232b360811b901a612a31848661294b565b5360041c918015612a465760001901906129ae565b60246000634e487b7160e01b81526011600452fd5b60246000634e487b7160e01b81526032600452fd5b15612a7757565b60405162461bcd60e51b815260206004820152602b60248201527f496e697469616c697a61626c653a20636f6e7472616374206973206e6f74206960448201526a6e697469616c697a696e6760a81b6064820152608490fd5b61012d6002815414612ae25760029055565b60405162461bcd60e51b815260206004820152601f60248201527f5265656e7472616e637947756172643a207265656e7472616e742063616c6c006044820152606490fd5b15612b2e57565b60405162461bcd60e51b815260206004820152601c60248201527f4552433732313a20746f6b656e20616c7265616479206d696e746564000000006044820152606490fdfe8ff97419363ffd7000167f130ef7168fbea05faf9251824ca5043f113cc6a7c7360894a13ba1a3210667c828492db98dca3e2076cc3735a920a3ca505d382bbca264697066735822122008e43bbc30fd02e3888472b5fc5532086b1f00632cf5fad50962c514b890608364736f6c63430008130033",
  "linkReferences": {},
  "deployedLinkReferences": {}
}