{
  "_format": "hh-sol-artifact-1",
  "contractName": "ChildERC721",
  "sourceName": "contracts/dojimachain/evm/ChildERC721.sol",
  "abi": [
    {
      "inputs": [
        {
          "internalType": "address",
          "name": "",
          "type": "address"
        },
        {
          "internalType": "address",
          "name": "_token",
          "type": "address"
        },
        {
          "internalType": "string",
          "name": "name",
          "type": "string"
        },
        {
          "internalType": "string",
          "name": "symbol",
          "type": "string"
        }
      ],
      "stateMutability": "nonpayable",
      "type": "constructor"
    },
    {
      "anonymous": false,
      "inputs": [
        {
          "indexed": true,
          "internalType": "address",
          "name": "owner",
          "type": "address"
        },
        {
          "indexed": true,
          "internalType": "address",
          "name": "approved",
          "type": "address"
        },
        {
          "indexed": true,
          "internalType": "uint256",
          "name": "tokenId",
          "type": "uint256"
        }
      ],
      "name": "Approval",
      "type": "event"
    },
    {
      "anonymous": false,
      "inputs": [
        {
          "indexed": true,
          "internalType": "address",
          "name": "owner",
          "type": "address"
        },
        {
          "indexed": true,
          "internalType": "address",
          "name": "operator",
          "type": "address"
        },
        {
          "indexed": false,
          "internalType": "bool",
          "name": "approved",
          "type": "bool"
        }
      ],
      "name": "ApprovalForAll",
      "type": "event"
    },
    {
      "anonymous": false,
      "inputs": [
        {
          "indexed": true,
          "internalType": "address",
          "name": "previousAddress",
          "type": "address"
        },
        {
          "indexed": true,
          "internalType": "address",
          "name": "newAddress",
          "type": "address"
        }
      ],
      "name": "ChildChainChanged",
      "type": "event"
    },
    {
      "anonymous": false,
      "inputs": [
        {
          "indexed": true,
          "internalType": "address",
          "name": "token",
          "type": "address"
        },
        {
          "indexed": true,
          "internalType": "address",
          "name": "from",
          "type": "address"
        },
        {
          "indexed": false,
          "internalType": "uint256",
          "name": "tokenId",
          "type": "uint256"
        }
      ],
      "name": "Deposit",
      "type": "event"
    },
    {
      "anonymous": false,
      "inputs": [
        {
          "indexed": true,
          "internalType": "address",
          "name": "token",
          "type": "address"
        },
        {
          "indexed": true,
          "internalType": "address",
          "name": "from",
          "type": "address"
        },
        {
          "indexed": true,
          "internalType": "address",
          "name": "to",
          "type": "address"
        },
        {
          "indexed": false,
          "internalType": "uint256",
          "name": "amount",
          "type": "uint256"
        },
        {
          "indexed": false,
          "internalType": "uint256",
          "name": "input1",
          "type": "uint256"
        },
        {
          "indexed": false,
          "internalType": "uint256",
          "name": "input2",
          "type": "uint256"
        },
        {
          "indexed": false,
          "internalType": "uint256",
          "name": "output1",
          "type": "uint256"
        },
        {
          "indexed": false,
          "internalType": "uint256",
          "name": "output2",
          "type": "uint256"
        }
      ],
      "name": "LogFeeTransfer",
      "type": "event"
    },
    {
      "anonymous": false,
      "inputs": [
        {
          "indexed": true,
          "internalType": "address",
          "name": "token",
          "type": "address"
        },
        {
          "indexed": true,
          "internalType": "address",
          "name": "from",
          "type": "address"
        },
        {
          "indexed": true,
          "internalType": "address",
          "name": "to",
          "type": "address"
        },
        {
          "indexed": false,
          "internalType": "uint256",
          "name": "tokenId",
          "type": "uint256"
        }
      ],
      "name": "LogTransfer",
      "type": "event"
    },
    {
      "anonymous": false,
      "inputs": [
        {
          "indexed": true,
          "internalType": "address",
          "name": "previousOwner",
          "type": "address"
        },
        {
          "indexed": true,
          "internalType": "address",
          "name": "newOwner",
          "type": "address"
        }
      ],
      "name": "OwnershipTransferred",
      "type": "event"
    },
    {
      "anonymous": false,
      "inputs": [
        {
          "indexed": true,
          "internalType": "address",
          "name": "previousAddress",
          "type": "address"
        },
        {
          "indexed": true,
          "internalType": "address",
          "name": "newAddress",
          "type": "address"
        }
      ],
      "name": "ParentChanged",
      "type": "event"
    },
    {
      "anonymous": false,
      "inputs": [
        {
          "indexed": true,
          "internalType": "address",
          "name": "previousAddress",
          "type": "address"
        },
        {
          "indexed": true,
          "internalType": "address",
          "name": "newAddress",
          "type": "address"
        }
      ],
      "name": "StateSyncerAddressChanged",
      "type": "event"
    },
    {
      "anonymous": false,
      "inputs": [
        {
          "indexed": true,
          "internalType": "address",
          "name": "from",
          "type": "address"
        },
        {
          "indexed": true,
          "internalType": "address",
          "name": "to",
          "type": "address"
        },
        {
          "indexed": true,
          "internalType": "uint256",
          "name": "tokenId",
          "type": "uint256"
        }
      ],
      "name": "Transfer",
      "type": "event"
    },
    {
      "anonymous": false,
      "inputs": [
        {
          "indexed": true,
          "internalType": "address",
          "name": "token",
          "type": "address"
        },
        {
          "indexed": true,
          "internalType": "address",
          "name": "from",
          "type": "address"
        },
        {
          "indexed": false,
          "internalType": "uint256",
          "name": "tokenId",
          "type": "uint256"
        }
      ],
      "name": "Withdraw",
      "type": "event"
    },
    {
      "inputs": [],
      "name": "CHAINID",
      "outputs": [
        {
          "internalType": "uint256",
          "name": "",
          "type": "uint256"
        }
      ],
      "stateMutability": "view",
      "type": "function"
    },
    {
      "inputs": [],
      "name": "EIP712_DOMAIN_SCHEMA_HASH",
      "outputs": [
        {
          "internalType": "bytes32",
          "name": "",
          "type": "bytes32"
        }
      ],
      "stateMutability": "view",
      "type": "function"
    },
    {
      "inputs": [],
      "name": "EIP712_TOKEN_TRANSFER_ORDER_SCHEMA_HASH",
      "outputs": [
        {
          "internalType": "bytes32",
          "name": "",
          "type": "bytes32"
        }
      ],
      "stateMutability": "view",
      "type": "function"
    },
    {
      "inputs": [],
      "name": "NETWORK_ID",
      "outputs": [
        {
          "internalType": "bytes",
          "name": "",
          "type": "bytes"
        }
      ],
      "stateMutability": "view",
      "type": "function"
    },
    {
      "inputs": [
        {
          "internalType": "address",
          "name": "to",
          "type": "address"
        },
        {
          "internalType": "uint256",
          "name": "tokenId",
          "type": "uint256"
        }
      ],
      "name": "approve",
      "outputs": [],
      "stateMutability": "nonpayable",
      "type": "function"
    },
    {
      "inputs": [
        {
          "internalType": "address",
          "name": "owner",
          "type": "address"
        }
      ],
      "name": "balanceOf",
      "outputs": [
        {
          "internalType": "uint256",
          "name": "",
          "type": "uint256"
        }
      ],
      "stateMutability": "view",
      "type": "function"
    },
    {
      "inputs": [
        {
          "internalType": "address",
          "name": "newAddress",
          "type": "address"
        }
      ],
      "name": "changeChildChain",
      "outputs": [],
      "stateMutability": "nonpayable",
      "type": "function"
    },
    {
      "inputs": [
        {
          "internalType": "address",
          "name": "newAddress",
          "type": "address"
        }
      ],
      "name": "changeStateSyncerAddress",
      "outputs": [],
      "stateMutability": "nonpayable",
      "type": "function"
    },
    {
      "inputs": [],
      "name": "childChain",
      "outputs": [
        {
          "internalType": "address",
          "name": "",
          "type": "address"
        }
      ],
      "stateMutability": "view",
      "type": "function"
    },
    {
      "inputs": [
        {
          "internalType": "address",
          "name": "user",
          "type": "address"
        },
        {
          "internalType": "uint256",
          "name": "tokenId",
          "type": "uint256"
        }
      ],
      "name": "deposit",
      "outputs": [],
      "stateMutability": "nonpayable",
      "type": "function"
    },
    {
      "inputs": [
        {
          "internalType": "bytes32",
          "name": "",
          "type": "bytes32"
        }
      ],
      "name": "disabledHashes",
      "outputs": [
        {
          "internalType": "bool",
          "name": "",
          "type": "bool"
        }
      ],
      "stateMutability": "view",
      "type": "function"
    },
    {
      "inputs": [
        {
          "internalType": "bytes32",
          "name": "hash",
          "type": "bytes32"
        },
        {
          "internalType": "bytes",
          "name": "sig",
          "type": "bytes"
        }
      ],
      "name": "ecrecovery",
      "outputs": [
        {
          "internalType": "address",
          "name": "result",
          "type": "address"
        }
      ],
      "stateMutability": "pure",
      "type": "function"
    },
    {
      "inputs": [],
      "name": "eip712DomainHash",
      "outputs": [
        {
          "internalType": "bytes32",
          "name": "",
          "type": "bytes32"
        }
      ],
      "stateMutability": "view",
      "type": "function"
    },
    {
      "inputs": [
        {
          "internalType": "uint256",
          "name": "tokenId",
          "type": "uint256"
        }
      ],
      "name": "getApproved",
      "outputs": [
        {
          "internalType": "address",
          "name": "operator",
          "type": "address"
        }
      ],
      "stateMutability": "view",
      "type": "function"
    },
    {
      "inputs": [
        {
          "internalType": "address",
          "name": "spender",
          "type": "address"
        },
        {
          "internalType": "uint256",
          "name": "tokenIdOrAmount",
          "type": "uint256"
        },
        {
          "internalType": "bytes32",
          "name": "data",
          "type": "bytes32"
        },
        {
          "internalType": "uint256",
          "name": "expiration",
          "type": "uint256"
        }
      ],
      "name": "getTokenTransferOrderHash",
      "outputs": [
        {
          "internalType": "bytes32",
          "name": "orderHash",
          "type": "bytes32"
        }
      ],
      "stateMutability": "view",
      "type": "function"
    },
    {
      "inputs": [
        {
          "internalType": "address",
          "name": "owner",
          "type": "address"
        },
        {
          "internalType": "address",
          "name": "operator",
          "type": "address"
        }
      ],
      "name": "isApprovedForAll",
      "outputs": [
        {
          "internalType": "bool",
          "name": "",
          "type": "bool"
        }
      ],
      "stateMutability": "view",
      "type": "function"
    },
    {
      "inputs": [],
      "name": "isCallerStateSyncer",
      "outputs": [
        {
          "internalType": "bool",
          "name": "",
          "type": "bool"
        }
      ],
      "stateMutability": "view",
      "type": "function"
    },
    {
      "inputs": [],
      "name": "isOwner",
      "outputs": [
        {
          "internalType": "bool",
          "name": "",
          "type": "bool"
        }
      ],
      "stateMutability": "view",
      "type": "function"
    },
    {
      "inputs": [],
      "name": "name",
      "outputs": [
        {
          "internalType": "string",
          "name": "",
          "type": "string"
        }
      ],
      "stateMutability": "view",
      "type": "function"
    },
    {
      "inputs": [
        {
          "internalType": "uint256",
          "name": "",
          "type": "uint256"
        },
        {
          "internalType": "bytes",
          "name": "data",
          "type": "bytes"
        }
      ],
      "name": "onStateReceive",
      "outputs": [],
      "stateMutability": "nonpayable",
      "type": "function"
    },
    {
      "inputs": [],
      "name": "owner",
      "outputs": [
        {
          "internalType": "address",
          "name": "",
          "type": "address"
        }
      ],
      "stateMutability": "view",
      "type": "function"
    },
    {
      "inputs": [
        {
          "internalType": "uint256",
          "name": "tokenId",
          "type": "uint256"
        }
      ],
      "name": "ownerOf",
      "outputs": [
        {
          "internalType": "address",
          "name": "",
          "type": "address"
        }
      ],
      "stateMutability": "view",
      "type": "function"
    },
    {
      "inputs": [],
      "name": "parent",
      "outputs": [
        {
          "internalType": "address",
          "name": "",
          "type": "address"
        }
      ],
      "stateMutability": "view",
      "type": "function"
    },
    {
      "inputs": [],
      "name": "renounceOwnership",
      "outputs": [],
      "stateMutability": "nonpayable",
      "type": "function"
    },
    {
      "inputs": [
        {
          "internalType": "address",
          "name": "from",
          "type": "address"
        },
        {
          "internalType": "address",
          "name": "to",
          "type": "address"
        },
        {
          "internalType": "uint256",
          "name": "tokenId",
          "type": "uint256"
        }
      ],
      "name": "safeTransferFrom",
      "outputs": [],
      "stateMutability": "nonpayable",
      "type": "function"
    },
    {
      "inputs": [
        {
          "internalType": "address",
          "name": "from",
          "type": "address"
        },
        {
          "internalType": "address",
          "name": "to",
          "type": "address"
        },
        {
          "internalType": "uint256",
          "name": "tokenId",
          "type": "uint256"
        },
        {
          "internalType": "bytes",
          "name": "data",
          "type": "bytes"
        }
      ],
      "name": "safeTransferFrom",
      "outputs": [],
      "stateMutability": "nonpayable",
      "type": "function"
    },
    {
      "inputs": [
        {
          "internalType": "address",
          "name": "operator",
          "type": "address"
        },
        {
          "internalType": "bool",
          "name": "_approved",
          "type": "bool"
        }
      ],
      "name": "setApprovalForAll",
      "outputs": [],
      "stateMutability": "nonpayable",
      "type": "function"
    },
    {
      "inputs": [
        {
          "internalType": "address",
          "name": "newAddress",
          "type": "address"
        }
      ],
      "name": "setParent",
      "outputs": [],
      "stateMutability": "nonpayable",
      "type": "function"
    },
    {
      "inputs": [],
      "name": "stateSyncer",
      "outputs": [
        {
          "internalType": "address",
          "name": "",
          "type": "address"
        }
      ],
      "stateMutability": "view",
      "type": "function"
    },
    {
      "inputs": [
        {
          "internalType": "bytes4",
          "name": "interfaceId",
          "type": "bytes4"
        }
      ],
      "name": "supportsInterface",
      "outputs": [
        {
          "internalType": "bool",
          "name": "",
          "type": "bool"
        }
      ],
      "stateMutability": "view",
      "type": "function"
    },
    {
      "inputs": [],
      "name": "symbol",
      "outputs": [
        {
          "internalType": "string",
          "name": "",
          "type": "string"
        }
      ],
      "stateMutability": "view",
      "type": "function"
    },
    {
      "inputs": [],
      "name": "token",
      "outputs": [
        {
          "internalType": "address",
          "name": "",
          "type": "address"
        }
      ],
      "stateMutability": "view",
      "type": "function"
    },
    {
      "inputs": [
        {
          "internalType": "uint256",
          "name": "tokenId",
          "type": "uint256"
        }
      ],
      "name": "tokenURI",
      "outputs": [
        {
          "internalType": "string",
          "name": "",
          "type": "string"
        }
      ],
      "stateMutability": "view",
      "type": "function"
    },
    {
      "inputs": [
        {
          "internalType": "address",
          "name": "from",
          "type": "address"
        },
        {
          "internalType": "address",
          "name": "to",
          "type": "address"
        },
        {
          "internalType": "uint256",
          "name": "tokenId",
          "type": "uint256"
        }
      ],
      "name": "transferFrom",
      "outputs": [],
      "stateMutability": "nonpayable",
      "type": "function"
    },
    {
      "inputs": [
        {
          "internalType": "address",
          "name": "newOwner",
          "type": "address"
        }
      ],
      "name": "transferOwnership",
      "outputs": [],
      "stateMutability": "nonpayable",
      "type": "function"
    },
    {
      "inputs": [
        {
          "internalType": "bytes",
          "name": "sig",
          "type": "bytes"
        },
        {
          "internalType": "uint256",
          "name": "tokenId",
          "type": "uint256"
        },
        {
          "internalType": "bytes32",
          "name": "data",
          "type": "bytes32"
        },
        {
          "internalType": "uint256",
          "name": "expiration",
          "type": "uint256"
        },
        {
          "internalType": "address",
          "name": "to",
          "type": "address"
        }
      ],
      "name": "transferWithSig",
      "outputs": [
        {
          "internalType": "address",
          "name": "",
          "type": "address"
        }
      ],
      "stateMutability": "nonpayable",
      "type": "function"
    },
    {
      "inputs": [
        {
          "internalType": "uint256",
          "name": "tokenId",
          "type": "uint256"
        }
      ],
      "name": "withdraw",
      "outputs": [],
      "stateMutability": "payable",
      "type": "function"
    }
  ],
  "bytecode": "0x6080604090808252346200052a576200249f80380380916200002282856200057d565b833981016080828203126200052a576200003c82620005a1565b506020906200004d828401620005a1565b838501516001600160401b0394908581116200052a578362000071918301620005b6565b9260608201518681116200052a576200008b9201620005b6565b600080546001600160a01b0319808216339081178455929790966001600160a01b039690949193909287167f8be0079c531659141344cd1fd0a4f28419497f9722a3daafe3b4186f6b6457e08a80a3838951620000e8816200052f565b60528082527f454950373132446f6d61696e28737472696e67206e616d652c737472696e6720838301527f76657273696f6e2c75696e7432353620636861696e49642c61646472657373208c83015271766572696679696e67436f6e74726163742960701b60608301528b51918b5b828110620005155750508a6072830152815262000174816200052f565b818151910120600e828c516200018a8162000561565b828152016d446f6a696d61204e6574776f726b60901b8152208b51620001b08162000561565b600597818980935201640312e302e360dc1b8152208c51918483019384528d830152606082015261057960808201523060a082015260a0815260c081018181108782111762000501578c525190209460019586558351858111620004ed57600654948786811c96168015620004e2575b84871014620004ce578190601f9687811162000479575b5084908d88841160011462000413579262000407575b5050600019600383901b1c191690871b176006555b8251948511620003f357600754908682811c92168015620003e8575b83831014620003d4578482116200038d575b505080928411600114620003235750928293918392899462000317575b50501b916000199060031b1c1916176007555b611001948584600c541617600c555194847f98e6a46aa139a033b9c7f3ae4ad1c103ffdce3e7cf509326808ba8c4b5af11c08180a3169182156200031457506002541617600255611e7190816200062e8239f35b80fd5b015192503880620002ad565b919083601f19811660078b52848b20948b905b8883831062000372575050501062000358575b505050811b01600755620002c0565b015160001960f88460031b161c1916905538808062000349565b85870151885590960195948501948793509081019062000336565b60078b52828b209085808801821c830193858910620003ca575b01901c019086905b828110620003be575062000290565b8b8155018690620003af565b93508293620003a7565b634e487b7160e01b8b52602260045260248bfd5b91607f16916200027e565b634e487b7160e01b8a52604160045260248afd5b0151905038806200024d565b91908a9450601f19841660068452878420935b8882821062000462575050841162000448575b505050811b0160065562000262565b015160001960f88460031b161c1916905538808062000439565b8385015186558d9790950194938401930162000426565b90915060068d52848d2087808501861c820192878610620004c4575b8594939101861c909101908a908f5b838210620004b55750505062000237565b81558594508b91018f620004a4565b9250819262000495565b634e487b7160e01b8c52602260045260248cfd5b95607f169562000220565b634e487b7160e01b8b52604160045260248bfd5b634e487b7160e01b8c52604160045260248cfd5b81810185015184820186015288940162000157565b600080fd5b608081019081106001600160401b038211176200054b57604052565b634e487b7160e01b600052604160045260246000fd5b604081019081106001600160401b038211176200054b57604052565b601f909101601f19168101906001600160401b038211908210176200054b57604052565b51906001600160a01b03821682036200052a57565b919080601f840112156200052a578251906001600160401b0382116200054b5760405191602091620005f2601f8301601f19168401856200057d565b8184528282870101116200052a5760005b8181106200061957508260009394955001015290565b85810183015184820184015282016200060356fe6080604052600436101561001257600080fd5b60003560e01c806301ffc9a71461026757806306fdde0314610262578063081812fc1461025d578063095ea7b3146102585780631499c5921461025357806319d27d9c1461024e5780631c3895ad1461024957806323b872dd1461024457806326c53bea1461023f57806328ce8b311461023a5780632e1a7d4d1461023557806342842e0e1461023057806342fc47fb1461022b57806347e7ef241461022657806360f96a8f146102215780636352211e1461021c57806370a0823114610217578063715018a61461021257806377d32e941461020d5780638da5cb5b146102085780638f32d59b1461020357806395d89b41146101fe578063a22cb465146101f9578063abceeba2146101f4578063acd06cb3146101ef578063b789543c146101ea578063b88d4fde146101e5578063c87b56dd146101e0578063cc79f97b146101db578063df555007146101d6578063e614d0d6146101d1578063e985e9c5146101cc578063ed9ef524146101c7578063f2fde38b146101c2578063f4ef4d69146101bd578063f94dc4bc146101b85763fc0c546a146101b357600080fd5b611500565b6114e2565b6114b9565b611446565b61134b565b61131f565b611304565b611183565b611166565b6110f9565b6110a2565b61104c565b61101b565b610ff8565b610f0c565b610e3f565b610e17565b610dee565b610db0565b610d01565b610c5c565b610c2c565b610c03565b610a53565b610a2a565b610a02565b61099d565b61095a565b6107aa565b610793565b61073f565b610605565b6104d1565b610479565b610451565b610345565b610283565b6001600160e01b031981160361027e57565b600080fd5b3461027e57602036600319011261027e5760206004356102a28161026c565b63ffffffff60e01b166380ac58cd60e01b81149081156102e0575b81156102cf575b506040519015158152f35b6301ffc9a760e01b149050386102c4565b635b5e139f60e01b811491506102bd565b919082519283825260005b84811061031d575050826000602080949584010152601f8019910116010190565b6020818301810151848301820152016102fc565b9060206103429281815201906102f1565b90565b3461027e5760008060031936011261044e5760405190806006549060019180831c92808216928315610444575b602092838610851461043057858852602088019490811561040f57506001146103b6575b6103b2876103a68189038261091c565b60405191829182610331565b0390f35b600660005294509192917ff652222313e28459528d920b65115c16c04f3efc82aaedc97be59f3f377c0d3f5b8386106103fe57505050910190506103a6826103b23880610396565b8054858701529482019481016103e2565b60ff191685525050505090151560051b0190506103a6826103b23880610396565b634e487b7160e01b82526022600452602482fd5b93607f1693610372565b80fd5b3461027e5760203660031901121561049557600080fd5b6001600160a01b0381160361027e57565b3461027e57604036600319011261027e57610495600435610468565b60405162461bcd60e51b815260206004820152601060248201526f44697361626c6564206665617475726560801b6044820152606490fd5b0390fd5b3461027e57602036600319011261027e576004356104ee81610468565b6000546001600160a01b039061050790821633146119b0565b8116908115610576576004546105749290610532906001600160a01b03165b6001600160a01b031690565b7fc9e4c719f349d4c91a37138eb5cf0ba2670c592a764f8c0b18c603ba9178cc1d600080a360018060a01b03166001600160601b0360a01b6004541617600455565b005b60405162461bcd60e51b815260206004820152603360248201527f4368696c6420746f6b656e3a206e657720706172656e74206164647265737320604482015272697320746865207a65726f206164647265737360681b6064820152608490fd5b9181601f8401121561027e5782359167ffffffffffffffff831161027e576020838186019501011161027e57565b3461027e5760a036600319011261027e5760043567ffffffffffffffff811161027e576106369036906004016105d7565b90602435606435906084359261064b84610468565b82158015610735575b156106f9576103b2946106d26106d89261067f6106786106df97604435883361197d565b3090611a39565b926106a76106a161069a866000526005602052604060002090565b5460ff1690565b156119fb565b6106cb6106be856000526005602052604060002090565b805460ff19166001179055565b3691610d5e565b90611d7c565b9283611cc8565b6040516001600160a01b0390911681529081906020820190565b60405162461bcd60e51b815260206004820152601460248201527314da59db985d1d5c99481a5cc8195e1c1a5c995960621b6044820152606490fd5b5082431115610654565b3461027e57600036600319011261027e57602060018060a01b03600c54163314604051908152f35b606090600319011261027e5760043561077f81610468565b9060243561078c81610468565b9060443590565b3461027e576105746107a436610767565b91611c1a565b3461027e57604036600319011261027e5760243567ffffffffffffffff811161027e576107db9036906004016105d7565b600c546001600160a01b039291908316330361084a57816040918101031261027e577f9b1bfa7fa9ee420a16e124f794c35ac9f90472acc99140eb2f6447c714cad8eb60208083359361082d85610468565b01359361083985611b79565b8060025416936040519586521693a3005b60405162461bcd60e51b815260206004820152603560248201527f53746174652073796e6365723a2063616c6c6572206973206e6f7420746865206044820152741cdd185d19481cde5b98d95c8818dbdb9d1c9858dd605a1b6064820152608490fd5b634e487b7160e01b600052604160045260246000fd5b6040810190811067ffffffffffffffff8211176108df57604052565b6108ad565b6020810190811067ffffffffffffffff8211176108df57604052565b6080810190811067ffffffffffffffff8211176108df57604052565b90601f8019910116810190811067ffffffffffffffff8211176108df57604052565b67ffffffffffffffff81116108df57601f01601f191660200190565b3461027e57600036600319011261027e576103b260405161097a816108c3565b600281526103e960f01b60208201526040519182916020835260208301906102f1565b602036600319011261027e576004356109b581611575565b6001600160a01b0390339082160361027e576109d082611b79565b600254166040519182527f9b1bfa7fa9ee420a16e124f794c35ac9f90472acc99140eb2f6447c714cad8eb60203393a3005b3461027e57610574610a1336610767565b9060405192610a21846108e4565b60008452611598565b3461027e57600036600319011261027e576003546040516001600160a01b039091168152602090f35b3461027e57604036600319011261027e57600435610a7081610468565b600354602435906001600160a01b039081163303610ba257821691821561027e57600082815260086020526040902054610b2c9190610ab8906001600160a01b031615611b2d565b600083815260086020526040902054610ada906001600160a01b031615611b2d565b6001600160a01b038116600090815260096020526040902060018154019055610b0d836000526008602052604060002090565b80546001600160a01b0319166001600160a01b03909216919091179055565b7f5548c837ab068cf56a2c2479df0882a4922fd203edb7517321831d95078c5f62604051828460007fddf252ad1be2c89b69c2b068fc378daa952ba7f163c4a11628f55a4df523b3ef8180a46002548190610b9d90610b93906001600160a01b0316610526565b9482526020820190565b0390a3005b60405162461bcd60e51b815260206004820152603360248201527f4368696c6420746f6b656e3a2063616c6c6572206973206e6f742074686520636044820152721a1a5b190818da185a5b8818dbdb9d1c9858dd606a1b6064820152608490fd5b3461027e57600036600319011261027e576004546040516001600160a01b039091168152602090f35b3461027e57602036600319011261027e576020610c4a600435611575565b6040516001600160a01b039091168152f35b3461027e57602036600319011261027e57600435610c7981610468565b6001600160a01b03168015610caa5760005260096020526103b2604060002054604051918291829190602083019252565b60405162461bcd60e51b815260206004820152602960248201527f4552433732313a2061646472657373207a65726f206973206e6f7420612076616044820152683634b21037bbb732b960b91b6064820152608490fd5b3461027e5760008060031936011261044e578054816001600160a01b038216610d2b3382146119b0565b7f8be0079c531659141344cd1fd0a4f28419497f9722a3daafe3b4186f6b6457e08280a36001600160a01b031916815580f35b929192610d6a8261093e565b91610d78604051938461091c565b82948184528183011161027e578281602093846000960137010152565b9080601f8301121561027e5781602061034293359101610d5e565b3461027e57604036600319011261027e5760243567ffffffffffffffff811161027e57610c4a610de66020923690600401610d95565b600435611d7c565b3461027e57600036600319011261027e576000546040516001600160a01b039091168152602090f35b3461027e57600036600319011261027e57602060018060a01b03600054163314604051908152f35b3461027e5760008060031936011261044e5760405190806007549060019180831c92808216928315610ef8575b602092838610851461043057858852602088019490811561040f5750600114610e9f576103b2876103a68189038261091c565b600760005294509192917fa66cc928b5edb82af9bd49922954155ab7b0942694bea4ce44661d9a8736c6885b838610610ee757505050910190506103a6826103b23880610396565b805485870152948201948101610ecb565b93607f1693610e6c565b8015150361027e57565b3461027e57604036600319011261027e57610f28600435610468565b610495602435610f02565b604051610f3f81610900565b605b8082526020907f546f6b656e5472616e736665724f726465722861646472657373207370656e64828401527f65722c75696e7432353620746f6b656e49644f72416d6f756e742c627974657360408401527f333220646174612c75696e743235362065787069726174696f6e2900000000006060840152604051928260005b838110610fe4575050506000607b8401528252610fdc82610900565b815191012090565b818184010151828288010152018390610fc0565b3461027e57600036600319011261027e576020611013610f33565b604051908152f35b3461027e57602036600319011261027e576004356000526005602052602060ff604060002054166040519015158152f35b3461027e57608036600319011261027e57602061101361108260043561107181610468565b60643590604435906024359061197d565b6001546042916040519161190160f01b8352600283015260228201522090565b3461027e57608036600319011261027e576004356110bf81610468565b6024356110cb81610468565b6064359167ffffffffffffffff831161027e576110ef610574933690600401610d95565b9160443591611598565b3461027e57602036600319011261027e57600435600090815260086020526040902054611130906001600160a01b03161515611529565b600060405161113e816108e4565b526103b260405161114e816108e4565b600081526040519182916020835260208301906102f1565b3461027e57600036600319011261027e5760206040516105798152f35b3461027e57602036600319011261027e576004356111a081610468565b6000546001600160a01b0391906111ba90831633146119b0565b818116801561120d5761057492600c54167f98e6a46aa139a033b9c7f3ae4ad1c103ffdce3e7cf509326808ba8c4b5af11c0600080a360018060a01b03166001600160601b0360a01b600c541617600c55565b60405162461bcd60e51b815260206004820152601d60248201527f53746174652073796e6365723a20696e76616c696420616464726573730000006044820152606490fd5b60405161125e81610900565b60528082526020907f454950373132446f6d61696e28737472696e67206e616d652c737472696e6720828401527f76657273696f6e2c75696e7432353620636861696e49642c6164647265737320604084015271766572696679696e67436f6e74726163742960701b6060840152604051928260005b8381106112f057505050600060728401528252610fdc82610900565b8181840101518282880101520183906112d4565b3461027e57600036600319011261027e576020611013611252565b3461027e57604036600319011261027e5761133b600435610468565b611346602435610468565b610495565b3461027e57602036600319011261027e5760043561136881610468565b6000546001600160a01b039061138190821633146119b0565b81169081156113e65760035461057492906113a4906001600160a01b0316610526565b7f1f9f3556dd336016cdf20adaead7d5c73665dba664b60e8c17e9a4eb91ce1d39600080a360018060a01b03166001600160601b0360a01b6003541617600355565b60405162461bcd60e51b815260206004820152603260248201527f4368696c6420746f6b656e3a206e6577206368696c64206164647265737320696044820152717320746865207a65726f206164647265737360701b6064820152608490fd5b3461027e57602036600319011261027e5760043561146381610468565b6000805490916001600160a01b03808316916114803384146119b0565b1680926001600160601b0360a01b161783557f8be0079c531659141344cd1fd0a4f28419497f9722a3daafe3b4186f6b6457e08380a380f35b3461027e57600036600319011261027e57600c546040516001600160a01b039091168152602090f35b3461027e57600036600319011261027e576020600154604051908152f35b3461027e57600036600319011261027e576002546040516001600160a01b039091168152602090f35b1561153057565b60405162461bcd60e51b815260206004820152601860248201527f4552433732313a20696e76616c696420746f6b656e20494400000000000000006044820152606490fd5b6000908152600860205260409020546001600160a01b0316610342811515611529565b9291906001600160a01b036115ac83611575565b16331415806113465780611346576115f257836115cd83836115d2976116fa565b6118ba565b156115d957565b60405162461bcd60e51b8152806104cd6004820161164d565b60405162461bcd60e51b815260206004820152602d60248201527f4552433732313a2063616c6c6572206973206e6f7420746f6b656e206f776e6560448201526c1c881bdc88185c1c1c9bdd9959609a1b6064820152608490fd5b60809060208152603260208201527f4552433732313a207472616e7366657220746f206e6f6e20455243373231526560408201527131b2b4bb32b91034b6b83632b6b2b73a32b960711b60608201520190565b156116a757565b60405162461bcd60e51b815260206004820152602560248201527f4552433732313a207472616e736665722066726f6d20696e636f72726563742060448201526437bbb732b960d91b6064820152608490fd5b61171e9061170784611575565b6001600160a01b03828116939091821684146116a0565b83169283156117e7576117856117c0926117448561173e6105268a611575565b146116a0565b61176b61175b88600052600a602052604060002090565b80546001600160a01b0319169055565b6001600160a01b0316600090815260096020526040902090565b80546000190190556001600160a01b038116600090815260096020526040902060018154019055610b0d856000526008602052604060002090565b7fddf252ad1be2c89b69c2b068fc378daa952ba7f163c4a11628f55a4df523b3ef600080a4565b60405162461bcd60e51b8152602060048201526024808201527f4552433732313a207472616e7366657220746f20746865207a65726f206164646044820152637265737360e01b6064820152608490fd5b9081602091031261027e57516103428161026c565b6001600160a01b039182168152911660208201526040810191909152608060608201819052610342929101906102f1565b6040513d6000823e3d90fd5b3d156118b5573d9061189b8261093e565b916118a9604051938461091c565b82523d6000602084013e565b606090565b92909190823b15611974576118ed926020926000604051809681958294630a85bd0160e11b9a8b8552336004860161184d565b03926001600160a01b03165af160009181611944575b506119365761191061188a565b805190816119315760405162461bcd60e51b8152806104cd6004820161164d565b602001fd5b6001600160e01b0319161490565b61196691925060203d811161196d575b61195e818361091c565b810190611838565b9038611903565b503d611954565b50505050600190565b9160a0939161198a610f33565b93604051948552600180871b031660208501526040840152606083015260808201522090565b156119b757565b606460405162461bcd60e51b815260206004820152602060248201527f4f776e61626c653a2063616c6c6572206973206e6f7420746865206f776e65726044820152fd5b15611a0257565b60405162461bcd60e51b815260206004820152600f60248201526e14da59c819195858dd1a5d985d1959608a1b6044820152606490fd5b611a41611252565b6d446f6a696d61204e6574776f726b60901b6020604051611a61816108c3565b600e81520152640312e302e360dc1b6020604051611a7e816108c3565b60058152015260405192602084019182527f221f8a440277f355573de882ed84f79b3742ae470474223812e292fd8a8bfa4460408501527f06c015bd22b4c69690933c1058878ebdfef31f9aaae40bbe86d8a09fe1b2972c6060850152610579608085015260018060a01b031660a084015260a0835260c083019280841067ffffffffffffffff8511176108df57604084905251902061190160f01b8352600283015260228201526042902090565b15611b3457565b60405162461bcd60e51b815260206004820152601c60248201527f4552433732313a20746f6b656e20616c7265616479206d696e746564000000006044820152606490fd5b611b8281611575565b50611b8c81611575565b6000828152600a6020908152604080832080546001600160a01b03199081169091556001600160a01b0390941680845260098352818420805460001901905585845260089092528220919290919081541690557fddf252ad1be2c89b69c2b068fc378daa952ba7f163c4a11628f55a4df523b3ef8280a4565b9081602091031261027e575161034281610f02565b600454909291906001600160a01b039081168015159182611c4c575b5050611c4757611c4592611cc8565b565b505050565b600092509060646020926040519485938492631ffb811f60e01b8452336004850152881660248401528860448401525af1908115611cc357600091611c95575b50153880611c36565b611cb6915060203d8111611cbc575b611cae818361091c565b810190611c05565b38611c8c565b503d611ca4565b61187e565b9190611cd58282856116fa565b7f6eabe333476233fd382224f233210cb808a7bc4c4de64f9d76628bf63c677b1a602060018060a01b038080600254169460405196875216951693a4565b60ff601b9116019060ff8211611d2557565b634e487b7160e01b600052601160045260246000fd5b15611d4257565b60405162461bcd60e51b815260206004820152601260248201527122b93937b91034b71032b1b932b1b7bb32b960711b6044820152606490fd5b9060006041825103611e35575060208101519160ff604160408401519301511690601b8210611e25575b60ff8216601b8114159081611e19575b50611e1057611dea600093602095604051948594859094939260ff6060936080840197845216602083015260408201520152565b838052039060015afa15611cc35760005190611c456001600160a01b0383161515611d3b565b50505050600090565b601c9150141538611db6565b90611e2f90611d13565b90611da6565b9150509056fea2646970667358221220922efd1d2ea02aeb8e7057651bbb193e318bcee198c021efe68f30d7d5de8d1c64736f6c63430008130033",
  "linkReferences": {},
  "deployedLinkReferences": {}
}