{
  "_format": "hh-sol-artifact-1",
  "contractName": "DRC20",
  "sourceName": "contracts/dojimachain/DRC20.sol",
  "abi": [
    {
      "anonymous": false,
      "inputs": [
        {
          "indexed": false,
          "internalType": "bytes32",
          "name": "chainName",
          "type": "bytes32"
        },
        {
          "indexed": false,
          "internalType": "bytes",
          "name": "contractAddress",
          "type": "bytes"
        }
      ],
      "name": "ChainContractMappingUpdated",
      "type": "event"
    },
    {
      "anonymous": false,
      "inputs": [
        {
          "indexed": true,
          "internalType": "address",
          "name": "previousAddress",
          "type": "address"
        },
        {
          "indexed": true,
          "internalType": "address",
          "name": "newAddress",
          "type": "address"
        }
      ],
      "name": "ChildChainChanged",
      "type": "event"
    },
    {
      "anonymous": false,
      "inputs": [
        {
          "indexed": true,
          "internalType": "address",
          "name": "token",
          "type": "address"
        },
        {
          "indexed": true,
          "internalType": "address",
          "name": "from",
          "type": "address"
        },
        {
          "indexed": false,
          "internalType": "uint256",
          "name": "amount",
          "type": "uint256"
        },
        {
          "indexed": false,
          "internalType": "uint256",
          "name": "input1",
          "type": "uint256"
        },
        {
          "indexed": false,
          "internalType": "uint256",
          "name": "output1",
          "type": "uint256"
        }
      ],
      "name": "Deposit",
      "type": "event"
    },
    {
      "anonymous": false,
      "inputs": [
        {
          "indexed": true,
          "internalType": "address",
          "name": "user",
          "type": "address"
        },
        {
          "indexed": false,
          "internalType": "uint256",
          "name": "amount",
          "type": "uint256"
        },
        {
          "indexed": false,
          "internalType": "uint256",
          "name": "input1",
          "type": "uint256"
        },
        {
          "indexed": false,
          "internalType": "uint256",
          "name": "output1",
          "type": "uint256"
        }
      ],
      "name": "DojTokenDeposited",
      "type": "event"
    },
    {
      "anonymous": false,
      "inputs": [
        {
          "indexed": false,
          "internalType": "string",
          "name": "token",
          "type": "string"
        },
        {
          "indexed": true,
          "internalType": "address",
          "name": "from",
          "type": "address"
        },
        {
          "indexed": false,
          "internalType": "uint256",
          "name": "amount",
          "type": "uint256"
        },
        {
          "indexed": false,
          "internalType": "uint256",
          "name": "input1",
          "type": "uint256"
        },
        {
          "indexed": false,
          "internalType": "uint256",
          "name": "output1",
          "type": "uint256"
        }
      ],
      "name": "DojWithdraw",
      "type": "event"
    },
    {
      "anonymous": false,
      "inputs": [
        {
          "indexed": false,
          "internalType": "address",
          "name": "_outboundStateSender",
          "type": "address"
        },
        {
          "indexed": false,
          "internalType": "address",
          "name": "_stateSyncerVerifier",
          "type": "address"
        }
      ],
      "name": "Initialize",
      "type": "event"
    },
    {
      "anonymous": false,
      "inputs": [
        {
          "indexed": true,
          "internalType": "address",
          "name": "token",
          "type": "address"
        },
        {
          "indexed": true,
          "internalType": "address",
          "name": "from",
          "type": "address"
        },
        {
          "indexed": true,
          "internalType": "address",
          "name": "to",
          "type": "address"
        },
        {
          "indexed": false,
          "internalType": "uint256",
          "name": "amount",
          "type": "uint256"
        },
        {
          "indexed": false,
          "internalType": "uint256",
          "name": "input1",
          "type": "uint256"
        },
        {
          "indexed": false,
          "internalType": "uint256",
          "name": "input2",
          "type": "uint256"
        },
        {
          "indexed": false,
          "internalType": "uint256",
          "name": "output1",
          "type": "uint256"
        },
        {
          "indexed": false,
          "internalType": "uint256",
          "name": "output2",
          "type": "uint256"
        }
      ],
      "name": "LogFeeTransfer",
      "type": "event"
    },
    {
      "anonymous": false,
      "inputs": [
        {
          "indexed": true,
          "internalType": "address",
          "name": "token",
          "type": "address"
        },
        {
          "indexed": true,
          "internalType": "address",
          "name": "from",
          "type": "address"
        },
        {
          "indexed": true,
          "internalType": "address",
          "name": "to",
          "type": "address"
        },
        {
          "indexed": false,
          "internalType": "uint256",
          "name": "amount",
          "type": "uint256"
        },
        {
          "indexed": false,
          "internalType": "uint256",
          "name": "input1",
          "type": "uint256"
        },
        {
          "indexed": false,
          "internalType": "uint256",
          "name": "input2",
          "type": "uint256"
        },
        {
          "indexed": false,
          "internalType": "uint256",
          "name": "output1",
          "type": "uint256"
        },
        {
          "indexed": false,
          "internalType": "uint256",
          "name": "output2",
          "type": "uint256"
        }
      ],
      "name": "LogTransfer",
      "type": "event"
    },
    {
      "anonymous": false,
      "inputs": [
        {
          "indexed": true,
          "internalType": "address",
          "name": "previousOwner",
          "type": "address"
        },
        {
          "indexed": true,
          "internalType": "address",
          "name": "newOwner",
          "type": "address"
        }
      ],
      "name": "OwnershipTransferred",
      "type": "event"
    },
    {
      "anonymous": false,
      "inputs": [
        {
          "indexed": true,
          "internalType": "address",
          "name": "previousAddress",
          "type": "address"
        },
        {
          "indexed": true,
          "internalType": "address",
          "name": "newAddress",
          "type": "address"
        }
      ],
      "name": "ParentChanged",
      "type": "event"
    },
    {
      "anonymous": false,
      "inputs": [
        {
          "indexed": true,
          "internalType": "address",
          "name": "previousAddress",
          "type": "address"
        },
        {
          "indexed": true,
          "internalType": "address",
          "name": "newAddress",
          "type": "address"
        }
      ],
      "name": "StateSyncerAddressChanged",
      "type": "event"
    },
    {
      "anonymous": false,
      "inputs": [
        {
          "indexed": false,
          "internalType": "bytes32",
          "name": "destinationChain",
          "type": "bytes32"
        },
        {
          "indexed": false,
          "internalType": "bytes",
          "name": "user",
          "type": "bytes"
        },
        {
          "indexed": false,
          "internalType": "uint256",
          "name": "amount",
          "type": "uint256"
        }
      ],
      "name": "TokensTransferredToDestinationChain",
      "type": "event"
    },
    {
      "anonymous": false,
      "inputs": [
        {
          "indexed": true,
          "internalType": "address",
          "name": "from",
          "type": "address"
        },
        {
          "indexed": true,
          "internalType": "address",
          "name": "to",
          "type": "address"
        },
        {
          "indexed": false,
          "internalType": "uint256",
          "name": "value",
          "type": "uint256"
        }
      ],
      "name": "Transfer",
      "type": "event"
    },
    {
      "anonymous": false,
      "inputs": [
        {
          "indexed": true,
          "internalType": "address",
          "name": "token",
          "type": "address"
        },
        {
          "indexed": true,
          "internalType": "address",
          "name": "from",
          "type": "address"
        },
        {
          "indexed": false,
          "internalType": "uint256",
          "name": "amount",
          "type": "uint256"
        },
        {
          "indexed": false,
          "internalType": "uint256",
          "name": "input1",
          "type": "uint256"
        },
        {
          "indexed": false,
          "internalType": "uint256",
          "name": "output1",
          "type": "uint256"
        }
      ],
      "name": "Withdraw",
      "type": "event"
    },
    {
      "inputs": [],
      "name": "CHAINID",
      "outputs": [
        {
          "internalType": "uint256",
          "name": "",
          "type": "uint256"
        }
      ],
      "stateMutability": "view",
      "type": "function"
    },
    {
      "inputs": [],
      "name": "EIP712_DOMAIN_SCHEMA_HASH",
      "outputs": [
        {
          "internalType": "bytes32",
          "name": "",
          "type": "bytes32"
        }
      ],
      "stateMutability": "view",
      "type": "function"
    },
    {
      "inputs": [],
      "name": "EIP712_TOKEN_TRANSFER_ORDER_SCHEMA_HASH",
      "outputs": [
        {
          "internalType": "bytes32",
          "name": "",
          "type": "bytes32"
        }
      ],
      "stateMutability": "view",
      "type": "function"
    },
    {
      "inputs": [],
      "name": "NETWORK_ID",
      "outputs": [
        {
          "internalType": "bytes",
          "name": "",
          "type": "bytes"
        }
      ],
      "stateMutability": "view",
      "type": "function"
    },
    {
      "inputs": [
        {
          "internalType": "address",
          "name": "",
          "type": "address"
        },
        {
          "internalType": "address",
          "name": "",
          "type": "address"
        }
      ],
      "name": "allowance",
      "outputs": [
        {
          "internalType": "uint256",
          "name": "",
          "type": "uint256"
        }
      ],
      "stateMutability": "pure",
      "type": "function"
    },
    {
      "inputs": [
        {
          "internalType": "address",
          "name": "",
          "type": "address"
        },
        {
          "internalType": "uint256",
          "name": "",
          "type": "uint256"
        }
      ],
      "name": "approve",
      "outputs": [
        {
          "internalType": "bool",
          "name": "",
          "type": "bool"
        }
      ],
      "stateMutability": "pure",
      "type": "function"
    },
    {
      "inputs": [
        {
          "internalType": "address",
          "name": "account",
          "type": "address"
        }
      ],
      "name": "balanceOf",
      "outputs": [
        {
          "internalType": "uint256",
          "name": "",
          "type": "uint256"
        }
      ],
      "stateMutability": "view",
      "type": "function"
    },
    {
      "inputs": [
        {
          "internalType": "bytes32",
          "name": "",
          "type": "bytes32"
        }
      ],
      "name": "chainContractMappings",
      "outputs": [
        {
          "internalType": "bytes",
          "name": "",
          "type": "bytes"
        }
      ],
      "stateMutability": "view",
      "type": "function"
    },
    {
      "inputs": [
        {
          "internalType": "address",
          "name": "newAddress",
          "type": "address"
        }
      ],
      "name": "changeChildChain",
      "outputs": [],
      "stateMutability": "nonpayable",
      "type": "function"
    },
    {
      "inputs": [
        {
          "internalType": "address",
          "name": "newAddress",
          "type": "address"
        }
      ],
      "name": "changeStateSyncerAddress",
      "outputs": [],
      "stateMutability": "nonpayable",
      "type": "function"
    },
    {
      "inputs": [],
      "name": "childChain",
      "outputs": [
        {
          "internalType": "address",
          "name": "",
          "type": "address"
        }
      ],
      "stateMutability": "view",
      "type": "function"
    },
    {
      "inputs": [],
      "name": "currentSupply",
      "outputs": [
        {
          "internalType": "uint256",
          "name": "",
          "type": "uint256"
        }
      ],
      "stateMutability": "view",
      "type": "function"
    },
    {
      "inputs": [],
      "name": "decimals",
      "outputs": [
        {
          "internalType": "uint8",
          "name": "",
          "type": "uint8"
        }
      ],
      "stateMutability": "pure",
      "type": "function"
    },
    {
      "inputs": [
        {
          "internalType": "address",
          "name": "user",
          "type": "address"
        },
        {
          "internalType": "uint256",
          "name": "amountOrTokenId",
          "type": "uint256"
        }
      ],
      "name": "deposit",
      "outputs": [],
      "stateMutability": "pure",
      "type": "function"
    },
    {
      "inputs": [
        {
          "internalType": "bytes32",
          "name": "",
          "type": "bytes32"
        }
      ],
      "name": "disabledHashes",
      "outputs": [
        {
          "internalType": "bool",
          "name": "",
          "type": "bool"
        }
      ],
      "stateMutability": "view",
      "type": "function"
    },
    {
      "inputs": [
        {
          "internalType": "bytes32",
          "name": "hash",
          "type": "bytes32"
        },
        {
          "internalType": "bytes",
          "name": "sig",
          "type": "bytes"
        }
      ],
      "name": "ecrecovery",
      "outputs": [
        {
          "internalType": "address",
          "name": "result",
          "type": "address"
        }
      ],
      "stateMutability": "pure",
      "type": "function"
    },
    {
      "inputs": [],
      "name": "eip712DomainHash",
      "outputs": [
        {
          "internalType": "bytes32",
          "name": "",
          "type": "bytes32"
        }
      ],
      "stateMutability": "view",
      "type": "function"
    },
    {
      "inputs": [
        {
          "internalType": "address",
          "name": "spender",
          "type": "address"
        },
        {
          "internalType": "uint256",
          "name": "tokenIdOrAmount",
          "type": "uint256"
        },
        {
          "internalType": "bytes32",
          "name": "data",
          "type": "bytes32"
        },
        {
          "internalType": "uint256",
          "name": "expiration",
          "type": "uint256"
        }
      ],
      "name": "getTokenTransferOrderHash",
      "outputs": [
        {
          "internalType": "bytes32",
          "name": "orderHash",
          "type": "bytes32"
        }
      ],
      "stateMutability": "view",
      "type": "function"
    },
    {
      "inputs": [
        {
          "internalType": "address",
          "name": "_outboundStateSender",
          "type": "address"
        },
        {
          "internalType": "address",
          "name": "_stateSyncerVerifier",
          "type": "address"
        }
      ],
      "name": "initialize",
      "outputs": [],
      "stateMutability": "nonpayable",
      "type": "function"
    },
    {
      "inputs": [],
      "name": "isCallerStateSyncer",
      "outputs": [
        {
          "internalType": "bool",
          "name": "",
          "type": "bool"
        }
      ],
      "stateMutability": "view",
      "type": "function"
    },
    {
      "inputs": [],
      "name": "isOwner",
      "outputs": [
        {
          "internalType": "bool",
          "name": "",
          "type": "bool"
        }
      ],
      "stateMutability": "view",
      "type": "function"
    },
    {
      "inputs": [],
      "name": "name",
      "outputs": [
        {
          "internalType": "string",
          "name": "",
          "type": "string"
        }
      ],
      "stateMutability": "pure",
      "type": "function"
    },
    {
      "inputs": [
        {
          "internalType": "uint256",
          "name": "",
          "type": "uint256"
        },
        {
          "internalType": "bytes",
          "name": "data",
          "type": "bytes"
        }
      ],
      "name": "onStateReceive",
      "outputs": [],
      "stateMutability": "nonpayable",
      "type": "function"
    },
    {
      "inputs": [],
      "name": "outboundStateSender",
      "outputs": [
        {
          "internalType": "address",
          "name": "",
          "type": "address"
        }
      ],
      "stateMutability": "view",
      "type": "function"
    },
    {
      "inputs": [],
      "name": "owner",
      "outputs": [
        {
          "internalType": "address",
          "name": "",
          "type": "address"
        }
      ],
      "stateMutability": "view",
      "type": "function"
    },
    {
      "inputs": [],
      "name": "parent",
      "outputs": [
        {
          "internalType": "address",
          "name": "",
          "type": "address"
        }
      ],
      "stateMutability": "view",
      "type": "function"
    },
    {
      "inputs": [],
      "name": "renounceOwnership",
      "outputs": [],
      "stateMutability": "nonpayable",
      "type": "function"
    },
    {
      "inputs": [
        {
          "internalType": "address",
          "name": "",
          "type": "address"
        }
      ],
      "name": "setParent",
      "outputs": [],
      "stateMutability": "pure",
      "type": "function"
    },
    {
      "inputs": [],
      "name": "stateSyncer",
      "outputs": [
        {
          "internalType": "address",
          "name": "",
          "type": "address"
        }
      ],
      "stateMutability": "view",
      "type": "function"
    },
    {
      "inputs": [],
      "name": "stateVerifier",
      "outputs": [
        {
          "internalType": "address",
          "name": "",
          "type": "address"
        }
      ],
      "stateMutability": "view",
      "type": "function"
    },
    {
      "inputs": [],
      "name": "symbol",
      "outputs": [
        {
          "internalType": "string",
          "name": "",
          "type": "string"
        }
      ],
      "stateMutability": "pure",
      "type": "function"
    },
    {
      "inputs": [],
      "name": "token",
      "outputs": [
        {
          "internalType": "address",
          "name": "",
          "type": "address"
        }
      ],
      "stateMutability": "view",
      "type": "function"
    },
    {
      "inputs": [],
      "name": "totalSupply",
      "outputs": [
        {
          "internalType": "uint256",
          "name": "",
          "type": "uint256"
        }
      ],
      "stateMutability": "pure",
      "type": "function"
    },
    {
      "inputs": [
        {
          "internalType": "address",
          "name": "to",
          "type": "address"
        },
        {
          "internalType": "uint256",
          "name": "value",
          "type": "uint256"
        }
      ],
      "name": "transfer",
      "outputs": [
        {
          "internalType": "bool",
          "name": "",
          "type": "bool"
        }
      ],
      "stateMutability": "payable",
      "type": "function"
    },
    {
      "inputs": [
        {
          "internalType": "address",
          "name": "",
          "type": "address"
        },
        {
          "internalType": "address",
          "name": "",
          "type": "address"
        },
        {
          "internalType": "uint256",
          "name": "",
          "type": "uint256"
        }
      ],
      "name": "transferFrom",
      "outputs": [
        {
          "internalType": "bool",
          "name": "",
          "type": "bool"
        }
      ],
      "stateMutability": "pure",
      "type": "function"
    },
    {
      "inputs": [
        {
          "internalType": "address",
          "name": "newOwner",
          "type": "address"
        }
      ],
      "name": "transferOwnership",
      "outputs": [],
      "stateMutability": "nonpayable",
      "type": "function"
    },
    {
      "inputs": [
        {
          "internalType": "bytes32",
          "name": "destinationChain",
          "type": "bytes32"
        },
        {
          "internalType": "bytes",
          "name": "user",
          "type": "bytes"
        },
        {
          "internalType": "bytes",
          "name": "destinationContractAddress",
          "type": "bytes"
        }
      ],
      "name": "transferToDestinationChain",
      "outputs": [],
      "stateMutability": "payable",
      "type": "function"
    },
    {
      "inputs": [
        {
          "internalType": "bytes",
          "name": "",
          "type": "bytes"
        },
        {
          "internalType": "uint256",
          "name": "",
          "type": "uint256"
        },
        {
          "internalType": "bytes32",
          "name": "",
          "type": "bytes32"
        },
        {
          "internalType": "uint256",
          "name": "",
          "type": "uint256"
        },
        {
          "internalType": "address",
          "name": "",
          "type": "address"
        }
      ],
      "name": "transferWithSig",
      "outputs": [
        {
          "internalType": "address",
          "name": "",
          "type": "address"
        }
      ],
      "stateMutability": "pure",
      "type": "function"
    },
    {
      "inputs": [
        {
          "internalType": "bytes32",
          "name": "chainName",
          "type": "bytes32"
        },
        {
          "internalType": "bytes",
          "name": "contractAddress",
          "type": "bytes"
        }
      ],
      "name": "updateChainContractMapping",
      "outputs": [],
      "stateMutability": "nonpayable",
      "type": "function"
    },
    {
      "inputs": [
        {
          "internalType": "uint256",
          "name": "amountOrTokenId",
          "type": "uint256"
        }
      ],
      "name": "withdraw",
      "outputs": [],
      "stateMutability": "payable",
      "type": "function"
    },
    {
      "inputs": [],
      "name": "withdrawDoj",
      "outputs": [],
      "stateMutability": "payable",
      "type": "function"
    }
  ],
  "bytecode": "0x608034620002285760008054336001600160a01b031980831682178455916001600160a01b03167f8be0079c531659141344cd1fd0a4f28419497f9722a3daafe3b4186f6b6457e08480a36001600160401b03926080810184811182821017620002145760409081526052908183526020917f454950373132446f6d61696e28737472696e67206e616d652c737472696e6720838501527f76657273696f6e2c75696e7432353620636861696e49642c61646472657373208285015271766572696679696e67436f6e74726163742960701b606085015281519383875b838110620001ff575050508560728501528352608083019280841087851117620001eb5760a0600e9185845282815186830120966200011b816200022d565b52016d446f6a696d61204e6574776f726b60901b815220600583835162000142816200022d565b82815201640312e302e360dc1b81522090825193840194855282840152606083015261057960808301523060a083015260a0825260c082019582871090871117620001d757859052519020600155600160065561100180916007541617600755817f98e6a46aa139a033b9c7f3ae4ad1c103ffdce3e7cf509326808ba8c4b5af11c08180a3600855611cef9081620002608239f35b634e487b7160e01b85526041600452602485fd5b634e487b7160e01b86526041600452602486fd5b818184010151828289010152018490620000dc565b634e487b7160e01b84526041600452602484fd5b600080fd5b604081019081106001600160401b038211176200024957604052565b634e487b7160e01b600052604160045260246000fdfe6080604052600436101561001257600080fd5b60003560e01c806306fdde03146102a2578063095ea7b3146102665780631499c5921461029d57806318160ddd1461029857806319d27d9c146102935780631c3895ad1461028e57806323b872dd1461028957806326c53bea146102845780632783d84f1461027f57806328ce8b311461027a5780632e1a7d4d14610275578063313ce5671461027057806342fc47fb1461026b57806347e7ef2414610266578063485cc955146102615780635a81dd1b1461025c57806360f96a8f1461025757806370a0823114610252578063715018a61461024d578063771282f61461024857806377d32e941461024357806383704e171461023e5780638da5cb5b146102395780638f32d59b1461023457806391caa9411461022f57806395d89b411461022a578063a9059cbb14610225578063abceeba214610220578063acd06cb31461021b578063b789543c14610216578063cc79f97b14610211578063d6726b371461020c578063dd62ed3e14610207578063df55500714610202578063e614d0d6146101fd578063ed9ef524146101f8578063f2fde38b146101f3578063f4ef4d69146101ee578063f6bb2aaa146101e9578063f94dc4bc146101e45763fc0c546a146101df57600080fd5b6114d3565b6114b5565b6113be565b611395565b61135f565b61125b565b611181565b6110b1565b611098565b611058565b610f5b565b610edb565b610eaa565b610e87565b610d96565b610d52565b610d25565b610cfd565b610cd4565b610b8b565b610b60565b610b42565b610ae2565b610abe565b610a95565b610a6c565b61094b565b610374565b610922565b610906565b6108b5565b610872565b61071e565b610495565b610473565b61044b565b610401565b6103ac565b610393565b6102f7565b60009103126102b257565b600080fd5b919082519283825260005b8481106102e3575050826000602080949584010152601f8019910116010190565b6020818301810151848301820152016102c2565b346102b25760003660031901126102b2576103446040516103178161063a565b600c81526b2237b534b6b0902a37b5b2b760a11b60208201526040519182916020835260208301906102b7565b0390f35b600435906001600160a01b03821682036102b257565b602435906001600160a01b03821682036102b257565b346102b25760403660031901126102b25761038d610348565b506115a4565b346102b25760203660031901126102b25761038d610348565b346102b25760003660031901126102b25760206040516b204fce5e3e250261100000008152f35b9181601f840112156102b25782359167ffffffffffffffff83116102b257602083818601950101116102b257565b346102b25760a03660031901126102b25760043567ffffffffffffffff81116102b2576104329036906004016103d3565b50506084356001600160a01b038116146115a457600080fd5b346102b25760003660031901126102b257602060018060a01b03600754163314604051908152f35b346102b25760603660031901126102b25761048c610348565b5061038d61035e565b346102b25760403660031901126102b25767ffffffffffffffff6024358181116102b2576104c79036906004016103d3565b60075491926001600160a01b0392909190831633036105a85783016060848203126102b25783359182116102b2576105056020916014938601610694565b9301359261051582825114611884565b0151908116916105268315156118cf565b81319061053d6105388260085461191b565b600855565b60008185811561059e575b600092839283928392f115610599576040805191825260208201929092529131908201527f16c53f89484f969bb5c0506355e0d775d62163f08cffbfd8a87dc3b08f2a24c79080606081015b0390a2005b611771565b6108fc9250610548565b60405162461bcd60e51b815260206004820152603560248201527f53746174652073796e6365723a2063616c6c6572206973206e6f7420746865206044820152741cdd185d19481cde5b98d95c8818dbdb9d1c9858dd605a1b6064820152608490fd5b634e487b7160e01b600052604160045260246000fd5b67ffffffffffffffff811161063557604052565b61060b565b6040810190811067ffffffffffffffff82111761063557604052565b6080810190811067ffffffffffffffff82111761063557604052565b90601f8019910116810190811067ffffffffffffffff82111761063557604052565b81601f820112156102b25780359067ffffffffffffffff821161063557604051926106c9601f8401601f191660200185610672565b828452602083830101116102b257816000926020809301838601378301015290565b9060406003198301126102b257600435916024359067ffffffffffffffff82116102b25761071b91600401610694565b90565b346102b25761072c366106eb565b60009061074360018060a01b0383541633146114fc565b828252602092600b84526040832082519467ffffffffffffffff861161063557610777866107718454610f78565b846115dc565b80601f87116001146107e45750948085967f5a2091c6c2e10c7cdba84047a6191524b248b1548b97af446d4d19d2a9ce6e0596916107d9575b508160011b916000199060031b1c19161790555b6107d360405192839283611630565b0390a180f35b9050840151386107b0565b90601f1987166107f984600052602060002090565b9287905b82821061085a5750509187917f5a2091c6c2e10c7cdba84047a6191524b248b1548b97af446d4d19d2a9ce6e05979860019410610841575b5050811b0190556107c4565b86015160001960f88460031b161c191690553880610835565b80600185968294968b015181550195019301906107fd565b346102b25760003660031901126102b2576103446040516108928161063a565b600281526103e960f01b60208201526040519182916020835260208301906102b7565b60203660031901126102b25760405162461bcd60e51b815260206004820152601e60248201527f5769746864726177616c20666561747572652069732064697361626c656400006044820152606490fd5b346102b25760003660031901126102b257602060405160128152f35b346102b25760003660031901126102b2576003546040516001600160a01b039091168152602090f35b346102b25760403660031901126102b257610964610348565b61096c61035e565b60ff60095416610a1b577fdc90fed0326ba91706deeac7eb34ac9f8b680734f9d782864dc29704d23bed6a916109aa600160ff196009541617600955565b6109b333611547565b6109c86b19d971e4fe8401e740000000600855565b600a80546001600160a01b0319166001600160a01b0392831690811790915560098054610100600160a81b031916600885901b610100600160a81b031617905560408051918252929091166020820152a1005b60405162461bcd60e51b815260206004820152602360248201527f54686520636f6e747261637420697320616c726561647920696e697469616c696044820152621e995960ea1b6064820152608490fd5b346102b25760003660031901126102b257600a546040516001600160a01b039091168152602090f35b346102b25760003660031901126102b2576004546040516001600160a01b039091168152602090f35b346102b25760203660031901126102b2576020610ad9610348565b31604051908152f35b346102b257600080600319360112610b3f578054816001600160a01b038216610b0c3382146114fc565b7f8be0079c531659141344cd1fd0a4f28419497f9722a3daafe3b4186f6b6457e08280a36001600160a01b031916815580f35b80fd5b346102b25760003660031901126102b2576020600854604051908152f35b346102b2576020610b79610b73366106eb565b90611bfa565b6040516001600160a01b039091168152f35b60603660031901126102b25760043567ffffffffffffffff6024358181116102b257610bbb903690600401610694565b906044359081116102b257610bd4903690600401610694565b90600260065414610c8f576002600655815115610c3357610c2792610c2283516020850120610c15610c1084600052600b602052604060002090565b610fb2565b6020815191012014611647565b61179f565b610c316001600655565b005b60405162461bcd60e51b815260206004820152602e60248201527f444f4a546f6b656e3a20496e76616c69642064657374696e6174696f6e20636f60448201526d6e7472616374206164647265737360901b6064820152608490fd5b60405162461bcd60e51b815260206004820152601f60248201527f5265656e7472616e637947756172643a207265656e7472616e742063616c6c006044820152606490fd5b346102b25760003660031901126102b2576000546040516001600160a01b039091168152602090f35b346102b25760003660031901126102b257602060018060a01b03600054163314604051908152f35b346102b25760003660031901126102b25760095460405160089190911c6001600160a01b03168152602090f35b346102b25760003660031901126102b257610344604051610d728161063a565b60038152622227a560e91b60208201526040519182916020835260208301906102b7565b60403660031901126102b2576020610db8610daf610348565b60243590611928565b6040519015158152f35b604051610dce81610656565b605b8082526020907f546f6b656e5472616e736665724f726465722861646472657373207370656e64828401527f65722c75696e7432353620746f6b656e49644f72416d6f756e742c627974657360408401527f333220646174612c75696e743235362065787069726174696f6e2900000000006060840152604051928260005b838110610e73575050506000607b8401528252610e6b82610656565b815191012090565b818184010151828288010152018390610e4f565b346102b25760003660031901126102b2576020610ea2610dc2565b604051908152f35b346102b25760203660031901126102b2576004356000526005602052602060ff604060002054166040519015158152f35b346102b25760803660031901126102b257610344604260a0610efb610348565b610f03610dc2565b90604051918252600180841b0316602082015260243560408201526044356060820152606435608082015220600154906040519161190160f01b83526002830152602282015220604051918291829190602083019252565b346102b25760003660031901126102b25760206040516105798152f35b90600182811c92168015610fa8575b6020831014610f9257565b634e487b7160e01b600052602260045260246000fd5b91607f1691610f87565b9060405191826000825492610fc684610f78565b9081845260019485811690816000146110355750600114610ff2575b5050610ff092500383610672565b565b9093915060005260209081600020936000915b81831061101d575050610ff093508201013880610fe2565b85548884018501529485019487945091830191611005565b915050610ff094506020925060ff191682840152151560051b8201013880610fe2565b346102b25760203660031901126102b257600435600052600b6020526103446110846040600020610fb2565b6040519182916020835260208301906102b7565b346102b25760403660031901126102b25761048c610348565b346102b25760203660031901126102b2576110ca610348565b6000546001600160a01b0391906110e490831633146114fc565b818116801561113c57610c3192600754167f98e6a46aa139a033b9c7f3ae4ad1c103ffdce3e7cf509326808ba8c4b5af11c0600080a360018060a01b03166bffffffffffffffffffffffff60a01b6007541617600755565b60405162461bcd60e51b815260206004820152601d60248201527f53746174652073796e6365723a20696e76616c696420616464726573730000006044820152606490fd5b346102b25760003660031901126102b25760405161119e81610656565b6052908181526020917f454950373132446f6d61696e28737472696e67206e616d652c737472696e6720838301527f76657273696f6e2c75696e7432353620636861696e49642c6164647265737320604083015271766572696679696e67436f6e74726163742960701b60608301526040519160005b8281106112485761034484868560006072840152825261123382610656565b81519101206040519081529081906020820190565b8181018501518482018601528401611214565b346102b25760203660031901126102b257611274610348565b6000546001600160a01b039061128d90821633146114fc565b81169081156112ff57600354610c3192906112b8906001600160a01b03165b6001600160a01b031690565b7f1f9f3556dd336016cdf20adaead7d5c73665dba664b60e8c17e9a4eb91ce1d39600080a360018060a01b03166bffffffffffffffffffffffff60a01b6003541617600355565b60405162461bcd60e51b815260206004820152603260248201527f4368696c6420746f6b656e3a206e6577206368696c64206164647265737320696044820152717320746865207a65726f206164647265737360701b6064820152608490fd5b346102b25760203660031901126102b257610c3161137b610348565b61139060018060a01b036000541633146114fc565b611547565b346102b25760003660031901126102b2576007546040516001600160a01b039091168152602090f35b60003660031901126102b257333134156114715760085434810390811161146c57600855604080516080808252602a908201527f307830303030303030303030303030303030303030303030303030303030303060a0820152690303030303030313031360b41b60c0820152346020820152908101919091523380316060830152907f7b5160e1005299de50b09b8969beb889513c47e090350754e2fa130eac137fd8908060e08101610594565b61158e565b606460405162461bcd60e51b815260206004820152602060248201527f416d6f756e74206d7573742062652067726561746572207468616e207a65726f6044820152fd5b346102b25760003660031901126102b2576020600154604051908152f35b346102b25760003660031901126102b2576002546040516001600160a01b039091168152602090f35b1561150357565b606460405162461bcd60e51b815260206004820152602060248201527f4f776e61626c653a2063616c6c6572206973206e6f7420746865206f776e65726044820152fd5b600080546001600160a01b039283166001600160a01b03198216811783559216907f8be0079c531659141344cd1fd0a4f28419497f9722a3daafe3b4186f6b6457e09080a3565b634e487b7160e01b600052601160045260246000fd5b60405162461bcd60e51b815260206004820152601060248201526f44697361626c6564206665617475726560801b6044820152606490fd5b90601f81116115ea57505050565b600091825260208220906020601f850160051c83019410611626575b601f0160051c01915b82811061161b57505050565b81815560010161160f565b9092508290611606565b60409061071b9392815281602082015201906102b7565b1561164e57565b60405162461bcd60e51b815260206004820152603260248201527f444f4a546f6b656e3a2045697468657220636861696e206e616d65206f7220756044820152711cd95c881b9bdd081c9959da5cdd195c995960721b6064820152608490fd5b156116b557565b60405162461bcd60e51b815260206004820152602260248201527f416d6f756e742073686f756c642062652067726561746572207468616e207a65604482015261726f60f01b6064820152608490fd5b9190820391821161146c57565b60409061172c6000939594956060835260608301906102b7565b9460208201520152565b9061071b94926117539183526080602084015260808301906102b7565b6001600160a01b0390931660408201528083036060909101526102b7565b6040513d6000823e3d90fd5b93929161179a9060409286526060602087015260608601906102b7565b930152565b906117ab3415156116ae565b6117ba61053834600854611705565b600a546117d1906112ac906001600160a01b031681565b926040516117f5816117e7348660208401611712565b03601f198101835282610672565b843b156102b25761182394600092836040518098819582946338d1822d60e11b845233908b60048601611736565b03925af1928315610599577e51d0c293c83bcd025c47998f70c8c3cb78d30f5bc47289a41175076a2dbb4f9361186b575b5061186660405192839234918461177d565b0390a1565b8061187861187e92610621565b806102a7565b38611854565b1561188b57565b606460405162461bcd60e51b815260206004820152602060248201527f444f4a546f6b656e3a20496e76616c69642061646472657373206c656e6774686044820152fd5b156118d657565b60405162461bcd60e51b815260206004820152601960248201527f444f4a546f6b656e3a20496e76616c69642061646472657373000000000000006044820152606490fd5b9190820180921161146c57565b90803403611aeb576040516370a0823160e01b808252336004830152602092918381602481305afa90811561059957600091611ace575b506040518281526001600160a01b0386166004820152908482602481305afa91821561059957600092611aaf575b50611999848733611b01565b6002546040518481523360048201526001600160a01b0390911695908181602481305afa90811561059957600091611a92575b506040519485526001600160a01b03881660048601528185602481305afa908115610599577fe6497e3ee548a3372136af2fcb0696db31fc6cf20260707645068bd3fe97f3c495611a5b93600093611a63575b505060405194859460018060a01b03809b169a339a1698869192608093969594919660a084019784526020840152604083015260608201520152565b0390a4600190565b611a83929350803d10611a8b575b611a7b8183610672565b810190611af2565b903880611a1f565b503d611a71565b611aa99150823d8411611a8b57611a7b8183610672565b386119cc565b611ac7919250853d8711611a8b57611a7b8183610672565b903861198d565b611ae59150843d8611611a8b57611a7b8183610672565b3861195f565b5050600090565b908160209103126102b2575190565b6001600160a01b03918216929190308414611b6a57600083858115611b60575b600092839283928392f115610599577fddf252ad1be2c89b69c2b068fc378daa952ba7f163c4a11628f55a4df523b3ef916020916040519485521692a3565b6108fc9250611b21565b60405162461bcd60e51b8152602060048201526015602482015274063616e206e6f742073656e6420746f20445243323605c1b6044820152606490fd5b60ff601b9116019060ff821161146c57565b15611bc057565b60405162461bcd60e51b815260206004820152601260248201527122b93937b91034b71032b1b932b1b7bb32b960711b6044820152606490fd5b9060006041825103611cb3575060208101519160ff604160408401519301511690601b8210611ca3575b60ff8216601b8114159081611c97575b50611c8e57611c68600093602095604051948594859094939260ff6060936080840197845216602083015260408201520152565b838052039060015afa156105995760005190610ff06001600160a01b0383161515611bb9565b50505050600090565b601c9150141538611c34565b90611cad90611ba7565b90611c24565b9150509056fea2646970667358221220e66dd35b322a86f5d802a57fc5bfca9590d5588b37dc9c4aa2fbb32c80dfa1eb64736f6c63430008130033",
  "linkReferences": {},
  "deployedLinkReferences": {}
}