{
  "_format": "hh-sol-artifact-1",
  "contractName": "ERC20ChildTunnel",
  "sourceName": "contracts/bridge/erc20/ERC20ChildTunnle.sol",
  "abi": [
    {
      "inputs": [
        {
          "internalType": "address",
          "name": "_bridgeChild",
          "type": "address"
        },
        {
          "internalType": "address",
          "name": "_tokenTemplate",
          "type": "address"
        }
      ],
      "stateMutability": "nonpayable",
      "type": "constructor"
    },
    {
      "anonymous": false,
      "inputs": [
        {
          "indexed": false,
          "internalType": "bytes",
          "name": "message",
          "type": "bytes"
        }
      ],
      "name": "MessageSent",
      "type": "event"
    },
    {
      "anonymous": false,
      "inputs": [
        {
          "indexed": true,
          "internalType": "address",
          "name": "parentToken",
          "type": "address"
        },
        {
          "indexed": true,
          "internalType": "address",
          "name": "childToken",
          "type": "address"
        }
      ],
      "name": "TokenMapped",
      "type": "event"
    },
    {
      "inputs": [],
      "name": "DEPOSIT",
      "outputs": [
        {
          "internalType": "bytes32",
          "name": "",
          "type": "bytes32"
        }
      ],
      "stateMutability": "view",
      "type": "function"
    },
    {
      "inputs": [],
      "name": "MAP_TOKEN",
      "outputs": [
        {
          "internalType": "bytes32",
          "name": "",
          "type": "bytes32"
        }
      ],
      "stateMutability": "view",
      "type": "function"
    },
    {
      "inputs": [],
      "name": "PREFIX_SYMBOL",
      "outputs": [
        {
          "internalType": "string",
          "name": "",
          "type": "string"
        }
      ],
      "stateMutability": "view",
      "type": "function"
    },
    {
      "inputs": [],
      "name": "SUFFIX_NAME",
      "outputs": [
        {
          "internalType": "string",
          "name": "",
          "type": "string"
        }
      ],
      "stateMutability": "view",
      "type": "function"
    },
    {
      "inputs": [],
      "name": "bridgeChild",
      "outputs": [
        {
          "internalType": "address",
          "name": "",
          "type": "address"
        }
      ],
      "stateMutability": "view",
      "type": "function"
    },
    {
      "inputs": [
        {
          "internalType": "bytes32",
          "name": "salt",
          "type": "bytes32"
        },
        {
          "internalType": "bytes32",
          "name": "bytecodeHash",
          "type": "bytes32"
        },
        {
          "internalType": "address",
          "name": "deployer",
          "type": "address"
        }
      ],
      "name": "computedCreate2Address",
      "outputs": [
        {
          "internalType": "address",
          "name": "",
          "type": "address"
        }
      ],
      "stateMutability": "pure",
      "type": "function"
    },
    {
      "inputs": [
        {
          "internalType": "address",
          "name": "",
          "type": "address"
        }
      ],
      "name": "parentToChildToken",
      "outputs": [
        {
          "internalType": "address",
          "name": "",
          "type": "address"
        }
      ],
      "stateMutability": "view",
      "type": "function"
    },
    {
      "inputs": [],
      "name": "parentTunnel",
      "outputs": [
        {
          "internalType": "address",
          "name": "",
          "type": "address"
        }
      ],
      "stateMutability": "view",
      "type": "function"
    },
    {
      "inputs": [
        {
          "internalType": "uint256",
          "name": "stateId",
          "type": "uint256"
        },
        {
          "internalType": "address",
          "name": "parentMessageSender",
          "type": "address"
        },
        {
          "internalType": "bytes",
          "name": "data",
          "type": "bytes"
        }
      ],
      "name": "processMessageFromParent",
      "outputs": [],
      "stateMutability": "nonpayable",
      "type": "function"
    },
    {
      "inputs": [
        {
          "internalType": "address",
          "name": "_parentTunnel",
          "type": "address"
        }
      ],
      "name": "setParentTunnel",
      "outputs": [],
      "stateMutability": "nonpayable",
      "type": "function"
    },
    {
      "inputs": [],
      "name": "tokenTemplate",
      "outputs": [
        {
          "internalType": "address",
          "name": "",
          "type": "address"
        }
      ],
      "stateMutability": "view",
      "type": "function"
    },
    {
      "inputs": [
        {
          "internalType": "address",
          "name": "childToken",
          "type": "address"
        },
        {
          "internalType": "uint256",
          "name": "amount",
          "type": "uint256"
        }
      ],
      "name": "withdraw",
      "outputs": [],
      "stateMutability": "nonpayable",
      "type": "function"
    },
    {
      "inputs": [
        {
          "internalType": "address",
          "name": "childToken",
          "type": "address"
        },
        {
          "internalType": "address",
          "name": "receiver",
          "type": "address"
        },
        {
          "internalType": "uint256",
          "name": "amount",
          "type": "uint256"
        }
      ],
      "name": "withdrawTo",
      "outputs": [],
      "stateMutability": "nonpayable",
      "type": "function"
    }
  ],
  "bytecode": "0x60a03461010e57601f6110d038819003918201601f19168301916001600160401b0383118484101761011357808492604094855283398101031261010e5780610058602061005163ffffffff94610129565b9201610129565b600080546001600160a01b0319166001600160a01b039093169290921790915560808190523b16156100a357604051610f92908161013e82396080518181816101120152610bb50152f35b60405162461bcd60e51b815260206004820152603660248201527f42726964676545524332304368696c6454756e6e656c3a20546f6b656e20746560448201527f6d706c617465206973206e6f7420636f6e7472616374000000000000000000006064820152608490fd5b600080fd5b634e487b7160e01b600052604160045260246000fd5b51906001600160a01b038216820361010e5756fe6080604052600436101561001257600080fd5b60003560e01c80630814d3dd146100e75780630de8bed2146100e25780633740d5a0146100dd57806338983a0e146100d857806339c6c9e0146100d35780637337957f146100ce578063886a69ba146100c9578063b03f0a13146100c4578063b3ab1bb0146100bf578063c3b35a7e146100ba578063d0312385146100b5578063d81c8e52146100b05763f3fef3a3146100ab57600080fd5b610620565b6105e5565b6104f9565b6104c2565b610499565b6103f8565b6103bd565b61033a565b61031e565b6102be565b610279565b610141565b6100fc565b60009103126100f757565b600080fd5b346100f75760003660031901126100f7576040517f00000000000000000000000000000000000000000000000000000000000000006001600160a01b03168152602090f35b346100f75760003660031901126100f7576000546040516001600160a01b039091168152602090f35b634e487b7160e01b600052604160045260246000fd5b67ffffffffffffffff811161019457604052565b61016a565b6040810190811067ffffffffffffffff82111761019457604052565b6080810190811067ffffffffffffffff82111761019457604052565b90601f8019910116810190811067ffffffffffffffff82111761019457604052565b67ffffffffffffffff811161019457601f01601f191660200190565b6040519061021c82610199565b600682526562726964676560d01b6020830152565b60005b8381106102445750506000910152565b8181015183820152602001610234565b9060209161026d81518092818552858086019101610231565b601f01601f1916010190565b346100f75760003660031901126100f7576102a961029561020f565b604051918291602083526020830190610254565b0390f35b6001600160a01b038116036100f757565b346100f75760203660031901126100f75760206004356102dd816102ad565b60018060a01b038091166000526002825260406000205416604051908152f35b6040519061030a82610199565b6005825264045524332360dc1b6020830152565b346100f75760003660031901126100f7576102a96102956102fd565b346100f75760603660031901126100f7576102a960443561035a816102ad565b60405190602082019060ff60f81b82526bffffffffffffffffffffffff199060601b166021830152600435603583015260243560558301526055825261039f826101b5565b905190206040516001600160a01b0390911681529081906020820190565b346100f75760003660031901126100f75760206040517f2cef46a936bdc5b7e6e8c71aa04560c41cf7d88bb26901a7e7f4936ff02accad8152f35b346100f75760203660031901126100f757600435610415816102ad565b600154906001600160a01b039081831661043d576001600160a01b0319909216911617600155005b60405162461bcd60e51b815260206004820152602e60248201527f427269646765426173654368696c6454756e6e656c3a20524f4f545f54554e4e60448201526d115317d053149150511657d4d15560921b6064820152608490fd5b346100f75760003660031901126100f7576001546040516001600160a01b039091168152602090f35b346100f75760603660031901126100f7576104f76004356104e2816102ad565b6024356104ee816102ad565b604435916106cb565b005b346100f75760603660031901126100f757602435610516816102ad565b60443567ffffffffffffffff918282116100f757366023830112156100f75781600401359283116100f75736602484840101116100f7576000546001600160a01b031633036105925760006020848060246105736104f7986101f3565b9661058160405198896101d1565b828852018387013784010152610853565b60405162461bcd60e51b815260206004820152602560248201527f427269646765426173654368696c6454756e6e656c3a20494e56414c49445f5360448201526422a72222a960d91b6064820152608490fd5b346100f75760003660031901126100f75760206040517f87a7811f4bfedea3d341ad165680ae306b01aaeacc205d227629cf157dd9f8218152f35b346100f75760403660031901126100f7576104f7600435610640816102ad565b6024359033906106cb565b908160209103126100f75751610660816102ad565b90565b6040513d6000823e3d90fd5b1561067657565b60405162461bcd60e51b815260206004820152602760248201527f42726964676545524332304368696c6454756e6e656c3a204e4f5f4d41505045604482015266222faa27a5a2a760c91b6064820152608490fd5b6040516302a2924560e21b8152919290916001600160a01b03808416929060009060208460048185895af19384156107c7578294610823575b508415159081610817575b50806107cf575b61071f9061066f565b833b156107cc57604051632770a7eb60e21b815233600482015260248101839052938490604490829084905af19081156107c7576107ac956107a794610799936107ae575b50604080516001600160a01b0395861660208201529685169087015290921660608501526080840191909152829060a0820190565b03601f1981018352826101d1565b610f1e565b565b806107bb6107c192610180565b806100ec565b38610764565b610663565b80fd5b5061071f61080e6108026107f58660018060a01b03166000526002602052604060002090565b546001600160a01b031690565b6001600160a01b031690565b85149050610716565b9050831615153861070f565b61084591945060203d811161084c575b61083d81836101d1565b81019061064b565b9238610704565b503d610833565b6001546001600160a01b0390811691160361096057805181016040828203126100f75760208201519160408101519167ffffffffffffffff83116100f7576108a29260208092019201016109bd565b907f87a7811f4bfedea3d341ad165680ae306b01aaeacc205d227629cf157dd9f82181036108d457506107ac90610d74565b7f2cef46a936bdc5b7e6e8c71aa04560c41cf7d88bb26901a7e7f4936ff02accad036109065761090390610b1e565b50565b60405162461bcd60e51b815260206004820152602c60248201527f42726964676545524332304368696c6454756e6e656c3a20494e56414c49445f60448201526b5041594c4f41445f5459504560a01b6064820152608490fd5b60405162461bcd60e51b815260206004820152602f60248201527f427269646765426173654368696c6454756e6e656c3a20494e56414c49445f5360448201526e115391115497d19493d357d493d3d5608a1b6064820152608490fd5b81601f820112156100f75780516109d3816101f3565b926109e160405194856101d1565b818452602082840101116100f7576106609160208085019101610231565b6080818303126100f7578051610a14816102ad565b9260208201519267ffffffffffffffff938481116100f75781610a389185016109bd565b9360408401519081116100f757606091610a539185016109bd565b92015160ff811681036100f75790565b15610a6a57565b60405162461bcd60e51b815260206004820152602660248201527f42726964676545524332304368696c6454756e6e656c3a20414c52454144595f60448201526513505414115160d21b6064820152608490fd5b90610ad160209282815194859201610231565b0190565b93610b09608094610b179360ff9599989960018060a01b03809216895216602088015260a0604088015260a0870190610254565b908582036060870152610254565b9416910152565b610b3190602080825183010191016109ff565b6001600160a01b0393841660008181526002602052604090209092610bf9918291610c3391610b6c908990610b65906107f5565b1615610a63565b60405190610c0b610bda6020840184610b9c8b836014916bffffffffffffffffffffffff199060601b1681520190565b0394610bb0601f19968781018352826101d1565b5190207f000000000000000000000000000000000000000000000000000000000000000090610e67565b998a1698610bff610be96102fd565b6040519889936020850190610abe565b90610abe565b038381018752866101d1565b610c27610c1661020f565b916040519586936020850190610abe565b039081018352826101d1565b843b156100f757600091610c5d6040519485938493638420ce9960e01b8552883060048701610ad5565b038183875af180156107c757610cc5575b506001600160a01b03818116600090815260026020526040902080546001600160a01b0319169185169190911790557f85920d35e6c72f6b2affffa04298b0cecfeba86e4a9f407df661f1cb8ab5e617600080a390565b806107bb610cd292610180565b38610c6e565b91909160a0818403126100f7578051610cf0816102ad565b926020820151610cff816102ad565b926040830151610d0e816102ad565b92606081015192608082015167ffffffffffffffff81116100f75761066092016109bd565b6001600160a01b0391821681529181166020830152918216604082015291166060820152608081019190915260c060a0820181905261066092910190610254565b610d879060208082518301019101610cd8565b6001600160a01b0394851660008181526002602052604090209094938616939290610db1906107f5565b90868216803b156100f7576040516340c10f1960e01b81526001600160a01b038716600482015260248101839052906000908290604490829084905af180156107c757610e54575b5063ffffffff853b16610e10575b50505050505050565b600096610799889794610e4093888a97604051978896602088019b630b32406160e11b8d52169160248801610d33565b5192621e8480f15038808080808080610e07565b806107bb610e6192610180565b38610df9565b604051733d602d80600a3d3981f3363d3d373d3d3d363d7360601b815260609290921b6bffffffffffffffffffffffff191660148301526e5af43d82803e903d91602b57fd5bf360881b6028830152906037906000f5906001600160a01b03821615610ecf57565b60405162461bcd60e51b815260206004820152602160248201527f437265617465323a204661696c6564206f6e206d696e696d616c206465706c6f6044820152607960f81b6064820152608490fd5b610f577f8c5261668696ce22758910d05bab8f186d6eb247ceac2af2e82c7dc17669b03691604051918291602083526020830190610254565b0390a156fea26469706673582212202b95237cd30c10b50dcffe0c8e07eecfa03a42a8aa2988703474db9709d31a5f64736f6c63430008130033",
  "linkReferences": {},
  "deployedLinkReferences": {}
}