{
  "_format": "hh-sol-artifact-1",
  "contractName": "XNFTContract",
  "sourceName": "contracts/templates/omnichainnft/XNFTContract.sol",
  "abi": [
    {
      "inputs": [
        {
          "internalType": "string",
          "name": "name",
          "type": "string"
        },
        {
          "internalType": "string",
          "name": "symbol",
          "type": "string"
        }
      ],
      "stateMutability": "nonpayable",
      "type": "constructor"
    },
    {
      "anonymous": false,
      "inputs": [
        {
          "indexed": true,
          "internalType": "address",
          "name": "owner",
          "type": "address"
        },
        {
          "indexed": true,
          "internalType": "address",
          "name": "approved",
          "type": "address"
        },
        {
          "indexed": true,
          "internalType": "uint256",
          "name": "tokenId",
          "type": "uint256"
        }
      ],
      "name": "Approval",
      "type": "event"
    },
    {
      "anonymous": false,
      "inputs": [
        {
          "indexed": true,
          "internalType": "address",
          "name": "owner",
          "type": "address"
        },
        {
          "indexed": true,
          "internalType": "address",
          "name": "operator",
          "type": "address"
        },
        {
          "indexed": false,
          "internalType": "bool",
          "name": "approved",
          "type": "bool"
        }
      ],
      "name": "ApprovalForAll",
      "type": "event"
    },
    {
      "anonymous": false,
      "inputs": [
        {
          "indexed": false,
          "internalType": "address",
          "name": "omniChainContract",
          "type": "address"
        }
      ],
      "name": "OmniChainNFTContractUpdated",
      "type": "event"
    },
    {
      "anonymous": false,
      "inputs": [
        {
          "indexed": true,
          "internalType": "bytes32",
          "name": "role",
          "type": "bytes32"
        },
        {
          "indexed": true,
          "internalType": "bytes32",
          "name": "previousAdminRole",
          "type": "bytes32"
        },
        {
          "indexed": true,
          "internalType": "bytes32",
          "name": "newAdminRole",
          "type": "bytes32"
        }
      ],
      "name": "RoleAdminChanged",
      "type": "event"
    },
    {
      "anonymous": false,
      "inputs": [
        {
          "indexed": true,
          "internalType": "bytes32",
          "name": "role",
          "type": "bytes32"
        },
        {
          "indexed": true,
          "internalType": "address",
          "name": "account",
          "type": "address"
        },
        {
          "indexed": true,
          "internalType": "address",
          "name": "sender",
          "type": "address"
        }
      ],
      "name": "RoleGranted",
      "type": "event"
    },
    {
      "anonymous": false,
      "inputs": [
        {
          "indexed": true,
          "internalType": "bytes32",
          "name": "role",
          "type": "bytes32"
        },
        {
          "indexed": true,
          "internalType": "address",
          "name": "account",
          "type": "address"
        },
        {
          "indexed": true,
          "internalType": "address",
          "name": "sender",
          "type": "address"
        }
      ],
      "name": "RoleRevoked",
      "type": "event"
    },
    {
      "anonymous": false,
      "inputs": [
        {
          "indexed": true,
          "internalType": "address",
          "name": "from",
          "type": "address"
        },
        {
          "indexed": true,
          "internalType": "address",
          "name": "to",
          "type": "address"
        },
        {
          "indexed": true,
          "internalType": "uint256",
          "name": "tokenId",
          "type": "uint256"
        }
      ],
      "name": "Transfer",
      "type": "event"
    },
    {
      "inputs": [],
      "name": "ADMIN_ROLE",
      "outputs": [
        {
          "internalType": "bytes32",
          "name": "",
          "type": "bytes32"
        }
      ],
      "stateMutability": "view",
      "type": "function"
    },
    {
      "inputs": [],
      "name": "DEFAULT_ADMIN_ROLE",
      "outputs": [
        {
          "internalType": "bytes32",
          "name": "",
          "type": "bytes32"
        }
      ],
      "stateMutability": "view",
      "type": "function"
    },
    {
      "inputs": [
        {
          "internalType": "address",
          "name": "to",
          "type": "address"
        },
        {
          "internalType": "uint256",
          "name": "tokenId",
          "type": "uint256"
        }
      ],
      "name": "approve",
      "outputs": [],
      "stateMutability": "nonpayable",
      "type": "function"
    },
    {
      "inputs": [
        {
          "internalType": "address",
          "name": "owner",
          "type": "address"
        }
      ],
      "name": "balanceOf",
      "outputs": [
        {
          "internalType": "uint256",
          "name": "",
          "type": "uint256"
        }
      ],
      "stateMutability": "view",
      "type": "function"
    },
    {
      "inputs": [
        {
          "internalType": "uint256",
          "name": "tokenId",
          "type": "uint256"
        }
      ],
      "name": "burn",
      "outputs": [],
      "stateMutability": "nonpayable",
      "type": "function"
    },
    {
      "inputs": [
        {
          "internalType": "uint256",
          "name": "tokenId",
          "type": "uint256"
        }
      ],
      "name": "getApproved",
      "outputs": [
        {
          "internalType": "address",
          "name": "",
          "type": "address"
        }
      ],
      "stateMutability": "view",
      "type": "function"
    },
    {
      "inputs": [
        {
          "internalType": "bytes32",
          "name": "role",
          "type": "bytes32"
        }
      ],
      "name": "getRoleAdmin",
      "outputs": [
        {
          "internalType": "bytes32",
          "name": "",
          "type": "bytes32"
        }
      ],
      "stateMutability": "view",
      "type": "function"
    },
    {
      "inputs": [
        {
          "internalType": "bytes32",
          "name": "role",
          "type": "bytes32"
        },
        {
          "internalType": "address",
          "name": "account",
          "type": "address"
        }
      ],
      "name": "grantRole",
      "outputs": [],
      "stateMutability": "nonpayable",
      "type": "function"
    },
    {
      "inputs": [
        {
          "internalType": "bytes32",
          "name": "role",
          "type": "bytes32"
        },
        {
          "internalType": "address",
          "name": "account",
          "type": "address"
        }
      ],
      "name": "hasRole",
      "outputs": [
        {
          "internalType": "bool",
          "name": "",
          "type": "bool"
        }
      ],
      "stateMutability": "view",
      "type": "function"
    },
    {
      "inputs": [
        {
          "internalType": "address",
          "name": "owner",
          "type": "address"
        },
        {
          "internalType": "address",
          "name": "operator",
          "type": "address"
        }
      ],
      "name": "isApprovedForAll",
      "outputs": [
        {
          "internalType": "bool",
          "name": "",
          "type": "bool"
        }
      ],
      "stateMutability": "view",
      "type": "function"
    },
    {
      "inputs": [
        {
          "internalType": "address",
          "name": "to",
          "type": "address"
        },
        {
          "internalType": "uint256",
          "name": "tokenId",
          "type": "uint256"
        }
      ],
      "name": "mint",
      "outputs": [],
      "stateMutability": "nonpayable",
      "type": "function"
    },
    {
      "inputs": [],
      "name": "name",
      "outputs": [
        {
          "internalType": "string",
          "name": "",
          "type": "string"
        }
      ],
      "stateMutability": "view",
      "type": "function"
    },
    {
      "inputs": [],
      "name": "omniChainNFTContract",
      "outputs": [
        {
          "internalType": "address",
          "name": "",
          "type": "address"
        }
      ],
      "stateMutability": "view",
      "type": "function"
    },
    {
      "inputs": [
        {
          "internalType": "uint256",
          "name": "tokenId",
          "type": "uint256"
        }
      ],
      "name": "ownerOf",
      "outputs": [
        {
          "internalType": "address",
          "name": "",
          "type": "address"
        }
      ],
      "stateMutability": "view",
      "type": "function"
    },
    {
      "inputs": [
        {
          "internalType": "bytes32",
          "name": "role",
          "type": "bytes32"
        },
        {
          "internalType": "address",
          "name": "account",
          "type": "address"
        }
      ],
      "name": "renounceRole",
      "outputs": [],
      "stateMutability": "nonpayable",
      "type": "function"
    },
    {
      "inputs": [
        {
          "internalType": "bytes32",
          "name": "role",
          "type": "bytes32"
        },
        {
          "internalType": "address",
          "name": "account",
          "type": "address"
        }
      ],
      "name": "revokeRole",
      "outputs": [],
      "stateMutability": "nonpayable",
      "type": "function"
    },
    {
      "inputs": [
        {
          "internalType": "address",
          "name": "from",
          "type": "address"
        },
        {
          "internalType": "address",
          "name": "to",
          "type": "address"
        },
        {
          "internalType": "uint256",
          "name": "tokenId",
          "type": "uint256"
        }
      ],
      "name": "safeTransferFrom",
      "outputs": [],
      "stateMutability": "nonpayable",
      "type": "function"
    },
    {
      "inputs": [
        {
          "internalType": "address",
          "name": "from",
          "type": "address"
        },
        {
          "internalType": "address",
          "name": "to",
          "type": "address"
        },
        {
          "internalType": "uint256",
          "name": "tokenId",
          "type": "uint256"
        },
        {
          "internalType": "bytes",
          "name": "data",
          "type": "bytes"
        }
      ],
      "name": "safeTransferFrom",
      "outputs": [],
      "stateMutability": "nonpayable",
      "type": "function"
    },
    {
      "inputs": [
        {
          "internalType": "address",
          "name": "operator",
          "type": "address"
        },
        {
          "internalType": "bool",
          "name": "approved",
          "type": "bool"
        }
      ],
      "name": "setApprovalForAll",
      "outputs": [],
      "stateMutability": "nonpayable",
      "type": "function"
    },
    {
      "inputs": [
        {
          "internalType": "address",
          "name": "_omniChainNFTContract",
          "type": "address"
        }
      ],
      "name": "setOmniChainContract",
      "outputs": [],
      "stateMutability": "nonpayable",
      "type": "function"
    },
    {
      "inputs": [
        {
          "internalType": "bytes4",
          "name": "interfaceId",
          "type": "bytes4"
        }
      ],
      "name": "supportsInterface",
      "outputs": [
        {
          "internalType": "bool",
          "name": "",
          "type": "bool"
        }
      ],
      "stateMutability": "view",
      "type": "function"
    },
    {
      "inputs": [],
      "name": "symbol",
      "outputs": [
        {
          "internalType": "string",
          "name": "",
          "type": "string"
        }
      ],
      "stateMutability": "view",
      "type": "function"
    },
    {
      "inputs": [
        {
          "internalType": "uint256",
          "name": "tokenId",
          "type": "uint256"
        }
      ],
      "name": "tokenURI",
      "outputs": [
        {
          "internalType": "string",
          "name": "",
          "type": "string"
        }
      ],
      "stateMutability": "view",
      "type": "function"
    },
    {
      "inputs": [
        {
          "internalType": "address",
          "name": "from",
          "type": "address"
        },
        {
          "internalType": "address",
          "name": "to",
          "type": "address"
        },
        {
          "internalType": "uint256",
          "name": "tokenId",
          "type": "uint256"
        }
      ],
      "name": "transferFrom",
      "outputs": [],
      "stateMutability": "nonpayable",
      "type": "function"
    }
  ],
  "bytecode": "0x60406080815234620003a75762001e0c90813803806200001f81620003ac565b93843982018183820312620003a75782516001600160401b0390818111620003a757826200004f918601620003d2565b9360209283820151838111620003a7576200006b9201620003d2565b9380519180831162000391576000928354906001938483811c9316801562000386575b8784101462000372578190601f938481116200031f575b508790848311600114620002bb578792620002af575b5050600019600383901b1c191690841b1784555b86519182116200029b5782548381811c9116801562000290575b868210146200027c5781811162000234575b5084908211600114620001d1578394959682939492620001c5575b5050600019600383901b1c191690821b1781555b7fa49807205ce4d355092ef5a8a18f56e8913cf4a201fbe287825b095693c217759283835260068152848320338452815260ff85842054161562000178575b84516119c79081620004458239f35b8383526006815284832090338452528382209060ff1982541617905533917f2f8788117e7eff1d82e926ec794901d17c78024a50270940304540a733656f0d339280a43880808062000169565b01519050388062000116565b82845284842090601f198316855b8181106200021e5750978385969798991062000204575b505050811b0181556200012a565b015160001960f88460031b161c19169055388080620001f6565b89830151845592850192918701918701620001df565b8385528585208280850160051c82019288861062000272575b0160051c019084905b82811062000266575050620000fb565b86815501849062000256565b925081926200024d565b634e487b7160e01b85526022600452602485fd5b90607f1690620000e9565b634e487b7160e01b84526041600452602484fd5b015190503880620000bb565b8780528888208794509190601f198416895b8b828210620003085750508411620002ee575b505050811b018455620000cf565b015160001960f88460031b161c19169055388080620002e0565b8385015186558a97909501949384019301620002cd565b9091508680528787208480850160051c8201928a861062000368575b918891869594930160051c01915b82811062000359575050620000a5565b89815585945088910162000349565b925081926200033b565b634e487b7160e01b86526022600452602486fd5b92607f16926200008e565b634e487b7160e01b600052604160045260246000fd5b600080fd5b6040519190601f01601f191682016001600160401b038111838210176200039157604052565b919080601f84011215620003a75782516001600160401b038111620003915760209062000408601f8201601f19168301620003ac565b92818452828287010111620003a75760005b8181106200043057508260009394955001015290565b85810183015184820184015282016200041a56fe608060408181526004918236101561001657600080fd5b600092833560e01c91826301ffc9a714610ed55750816306fdde0314610e0a578163081812fc14610dea578163095ea7b314610c7c57816323b872dd14610c57578163248a9ca314610c2c5781632768b466146109b85781632f2ff15d1461090b57816336568abe1461087957816340c10f191461073557816342842e0e146107015783826342966c6814610658575081634d032c0e1461062f5781636352211e146105fe57816370a082311461056857816375b238fc1461052d57816391d14854146104e657816395d89b41146103d0578163a217fddf146103b5578163a22cb465146102e5578163b88d4fde14610231578163c87b56dd146101c2578163d547741f1461017f575063e985e9c51461012f57600080fd5b3461017b578060031936011261017b5760ff8160209361014d610fa2565b610155610fbd565b6001600160a01b0391821683526005875283832091168252855220549151911615158152f35b5080fd5b919050346101be57806003193601126101be576101bb91356101b660016101a4610fbd565b93838752600660205286200154611094565b611248565b80f35b8280fd5b83833461017b57602036600319011261017b576102006101fb61022d9435600052600260205260018060a01b0360406000205416151590565b6112be565b81815161020c81611008565b5280519161021983611008565b825251918291602083526020830190610f7d565b0390f35b919050346101be5760803660031901126101be5761024d610fa2565b90610256610fbd565b604435906064359467ffffffffffffffff86116102e157366023870112156102e1578501359361029161028886611078565b94519485611056565b8484528636602487890101116102de576020866102d99760246101bb9a0183890137860101526102c96102c48433611443565b61136e565b6102d483838361150b565b611738565b611423565b80fd5b8680fd5b919050346101be57806003193601126101be57610300610fa2565b90602435918215158093036103b1576001600160a01b03169233841461036f5750338452600560205280842083855260205280842060ff1981541660ff8416179055519081527f17307eab39ab6107e8899845ad3d59bd9653f200f220920489ca2b5937696c3160203392a380f35b6020606492519162461bcd60e51b8352820152601960248201527f4552433732313a20617070726f766520746f2063616c6c6572000000000000006044820152fd5b8480fd5b50503461017b578160031936011261017b5751908152602090f35b8284346102de57806003193601126102de578151918160019283549384811c918186169586156104dc575b60209687851081146104c9578899509688969785829a5291826000146104a2575050600114610447575b50505061022d9291610438910385611056565b51928284938452830190610f7d565b91908693508083527fb10e2d527612073b26eecdfd717e6a320cf44b4afac2b0732d9fcbe2b7fa0cf65b82841061048a575050508201018161043861022d610425565b8054848a018601528895508794909301928101610471565b60ff19168782015293151560051b86019093019350849250610438915061022d9050610425565b634e487b7160e01b835260228a52602483fd5b92607f16926103fb565b9050346101be57816003193601126101be578160209360ff92610507610fbd565b90358252600686528282206001600160a01b039091168252855220549151911615158152f35b50503461017b578160031936011261017b57602090517fa49807205ce4d355092ef5a8a18f56e8913cf4a201fbe287825b095693c217758152f35b8391503461017b57602036600319011261017b576001600160a01b0361058c610fa2565b169081156105a95760208480858581526003845220549051908152f35b608490602085519162461bcd60e51b8352820152602960248201527f4552433732313a2061646472657373207a65726f206973206e6f7420612076616044820152683634b21037bbb732b960b91b6064820152fd5b8284346102de5760203660031901126102de575061061e6020923561130a565b90516001600160a01b039091168152f35b50503461017b578160031936011261017b5760075490516001600160a01b039091168152602090f35b9150913461017b57602036600319011261017b5782359260018060a01b03610685816007541633146118f9565b61068e8561130a565b506106988561130a565b91858552602052828420916001600160601b0360a01b92838154169055169182845260036020528084206000198154019055848452600260205283209081541690557fddf252ad1be2c89b69c2b068fc378daa952ba7f163c4a11628f55a4df523b3ef8280a480f35b50503461017b576102d96101bb9161071836610fd3565b9192519261072584611008565b8684526102c96102c48433611443565b8391503461017b578260031936011261017b57610750610fa2565b6007546001600160a01b0392602435929161076e90851633146118f9565b85519361077a85611008565b85855282169081156108365750916101bb9391816102d994886107bb6107b584600052600260205260018060a01b0360406000205416151590565b15611945565b6000838152600260205260409020546107de906001600160a01b031615156107b5565b81895260036020528089206001815401905582895260026020528820816001600160601b0360a01b825416179055877fddf252ad1be2c89b69c2b068fc378daa952ba7f163c4a11628f55a4df523b3ef8180a461161c565b606490602088519162461bcd60e51b8352820152602060248201527f4552433732313a206d696e7420746f20746865207a65726f20616464726573736044820152fd5b8391503461017b578260031936011261017b57610894610fbd565b90336001600160a01b038316036108b057906101bb9135611248565b608490602085519162461bcd60e51b8352820152602f60248201527f416363657373436f6e74726f6c3a2063616e206f6e6c792072656e6f756e636560448201526e103937b632b9903337b91039b2b63360891b6064820152fd5b9050346101be57816003193601126101be573590610927610fbd565b90828452600660205261093f60018286200154611094565b828452600660209081528185206001600160a01b039093168086529290528084205460ff161561096d578380f35b82845260066020528084208285526020528320600160ff1982541617905533917f2f8788117e7eff1d82e926ec794901d17c78024a50270940304540a733656f0d8480a43880808380f35b919050346101be5760209182600319360112610c28576109d6610fa2565b907fa49807205ce4d355092ef5a8a18f56e8913cf4a201fbe287825b095693c2177580865260068552838620338752855260ff848720541615610a6057600780546001600160a01b0319166001600160a01b038516908117909155845190815286907f1b6e089f8d0805731b5a9f181290a83a802a70c6b9eb1c187273aa17f982cc8c908790a180f35b91509293610a6d336117ea565b91835190610a7a8261103a565b60428252868201926060368537825115610c155760308453825190600191821015610c025790607860218501536041915b818311610b9757505050610b56576048610b29938593610b3893610b52975196879376020b1b1b2b9b9a1b7b73a3937b61d1030b1b1b7bab73a1604d1b8c860152610b008c8251928391603789019101610f5a565b8401917001034b99036b4b9b9b4b733903937b6329607d1b603784015251809386840190610f5a565b01036028810185520183611056565b5193849362461bcd60e51b85528401526024830190610f7d565b0390fd5b606485878087519262461bcd60e51b845283015260248201527f537472696e67733a20686578206c656e67746820696e73756666696369656e746044820152fd5b909192600f81166010811015610bef576f181899199a1a9b1b9c1cb0b131b232b360811b901a610bc785876117c3565b53881c928015610bdc57600019019190610aab565b634e487b7160e01b825260118952602482fd5b634e487b7160e01b835260328a52602483fd5b634e487b7160e01b815260328852602490fd5b634e487b7160e01b815260328752602490fd5b8380fd5b9050346101be5760203660031901126101be5781602093600192358152600685522001549051908152f35b83346102de576101bb610c6936610fd3565b91610c776102c48433611443565b61150b565b9050346101be57816003193601126101be57610c96610fa2565b6024359290916001600160a01b0391908280610cb18761130a565b16941693808514610d9d57803314908115610d7e575b5015610d1657848652602052842080546001600160a01b03191683179055610cee8361130a565b167f8c5be1e5ebec7d5bd14f71427d1e84f3dd0314c0f7b2291e5b200ac8c7c3b9258480a480f35b6020608492519162461bcd60e51b8352820152603d60248201527f4552433732313a20617070726f76652063616c6c6572206973206e6f7420746f60448201527f6b656e206f776e6572206f7220617070726f76656420666f7220616c6c0000006064820152fd5b90508652600560205281862033875260205260ff828720541638610cc7565b506020608492519162461bcd60e51b8352820152602160248201527f4552433732313a20617070726f76616c20746f2063757272656e74206f776e656044820152603960f91b6064820152fd5b8284346102de5760203660031901126102de575061061e60209235611330565b8284346102de57806003193601126102de5781519181825492600184811c91818616958615610ecb575b60209687851081146104c9578899509688969785829a5291826000146104a2575050600114610e705750505061022d9291610438910385611056565b91908693508280527f290decd9548b62a8d60345a988386fc84ba6bc95484008f6362f93160ef3e5635b828410610eb3575050508201018161043861022d610425565b8054848a018601528895508794909301928101610e9a565b92607f1692610e34565b8491346101be5760203660031901126101be573563ffffffff60e01b81168091036101be5760209250637965db0b60e01b8114908115610f17575b5015158152f35b6380ac58cd60e01b811491508115610f49575b8115610f38575b5083610f10565b6301ffc9a760e01b14905083610f31565b635b5e139f60e01b81149150610f2a565b60005b838110610f6d5750506000910152565b8181015183820152602001610f5d565b90602091610f9681518092818552858086019101610f5a565b601f01601f1916010190565b600435906001600160a01b0382168203610fb857565b600080fd5b602435906001600160a01b0382168203610fb857565b6060906003190112610fb8576001600160a01b03906004358281168103610fb857916024359081168103610fb8579060443590565b6020810190811067ffffffffffffffff82111761102457604052565b634e487b7160e01b600052604160045260246000fd5b6080810190811067ffffffffffffffff82111761102457604052565b90601f8019910116810190811067ffffffffffffffff82111761102457604052565b67ffffffffffffffff811161102457601f01601f191660200190565b60009080825260209060068252604092838120338252835260ff8482205416156110be5750505050565b6110c7336117ea565b918451906110d48261103a565b6042825284820192606036853782511561123457603084538251906001918210156112345790607860218501536041915b8183116111c657505050611184576048610b5293869361116893611159985198899376020b1b1b2b9b9a1b7b73a3937b61d1030b1b1b7bab73a1604d1b8a860152610b00815180928c603789019101610f5a565b01036028810187520185611056565b5192839262461bcd60e51b845260048401526024830190610f7d565b60648486519062461bcd60e51b825280600483015260248201527f537472696e67733a20686578206c656e67746820696e73756666696369656e746044820152fd5b909192600f81166010811015611220576f181899199a1a9b1b9c1cb0b131b232b360811b901a6111f685876117c3565b5360041c92801561120c57600019019190611105565b634e487b7160e01b82526011600452602482fd5b634e487b7160e01b83526032600452602483fd5b634e487b7160e01b81526032600452602490fd5b906000918083526006602052604083209160018060a01b03169182845260205260ff60408420541661127957505050565b8083526006602052604083208284526020526040832060ff1981541690557ff6391f5c32d9c69d2a47ea670b442974b53935d1edc7fd64eb21e047a839171b339380a4565b156112c557565b60405162461bcd60e51b815260206004820152601860248201527f4552433732313a20696e76616c696420746f6b656e20494400000000000000006044820152606490fd5b6000908152600260205260409020546001600160a01b031661132d8115156112be565b90565b600081815260026020526040902054611353906001600160a01b031615156112be565b6000908152600460205260409020546001600160a01b031690565b1561137557565b60405162461bcd60e51b815260206004820152602d60248201527f4552433732313a2063616c6c6572206973206e6f7420746f6b656e206f776e6560448201526c1c881bdc88185c1c1c9bdd9959609a1b6064820152608490fd5b60809060208152603260208201527f4552433732313a207472616e7366657220746f206e6f6e20455243373231526560408201527131b2b4bb32b91034b6b83632b6b2b73a32b960711b60608201520190565b1561142a57565b60405162461bcd60e51b815280610b52600482016113d0565b906001600160a01b0380806114578461130a565b1693169183831493841561148a575b508315611474575b50505090565b61148091929350611330565b161438808061146e565b909350600052600560205260406000208260005260205260ff604060002054169238611466565b156114b857565b60405162461bcd60e51b815260206004820152602560248201527f4552433732313a207472616e736665722066726f6d20696e636f72726563742060448201526437bbb732b960d91b6064820152608490fd5b90611533916115198461130a565b6001600160a01b03939184169284929091831684146114b1565b169182156115cb5781611550916115498661130a565b16146114b1565b7fddf252ad1be2c89b69c2b068fc378daa952ba7f163c4a11628f55a4df523b3ef60008481526004602052604081206001600160601b0360a01b9081815416905583825260036020526040822060001981540190558482526040822060018154019055858252600260205284604083209182541617905580a4565b60405162461bcd60e51b8152602060048201526024808201527f4552433732313a207472616e7366657220746f20746865207a65726f206164646044820152637265737360e01b6064820152608490fd5b9192600092909190803b1561172e5761166a946040518092630a85bd0160e11b9485835233600484015287602484015260448301526080606483015281878160209a8b966084830190610f7d565b03926001600160a01b03165af18491816116ee575b506116dd575050503d6000146116d5573d61169981611078565b906116a76040519283611056565b81528091833d92013e5b805191826116d25760405162461bcd60e51b815280610b52600482016113d0565b01fd5b5060606116b1565b6001600160e01b0319161492509050565b9091508581813d8311611727575b6117068183611056565b810103126103b157516001600160e01b0319811681036103b157903861167f565b503d6116fc565b5050915050600190565b9293600093909291803b156117b8579484916117929660405180948193630a85bd0160e11b9788845233600485015260018060a01b0380921660248501526044840152608060648401528260209b8c976084830190610f7d565b0393165af18491816116ee57506116dd575050503d6000146116d5573d61169981611078565b505050915050600190565b9081518110156117d4570160200190565b634e487b7160e01b600052603260045260246000fd5b604051906060820182811067ffffffffffffffff82111761102457604052602a82526020820160403682378251156117d4576030905381516001908110156117d457607860218401536029905b80821161188b5750506118475790565b606460405162461bcd60e51b815260206004820152602060248201527f537472696e67733a20686578206c656e67746820696e73756666696369656e746044820152fd5b9091600f811660108110156118e4576f181899199a1a9b1b9c1cb0b131b232b360811b901a6118ba84866117c3565b5360041c9180156118cf576000190190611837565b60246000634e487b7160e01b81526011600452fd5b60246000634e487b7160e01b81526032600452fd5b1561190057565b60405162461bcd60e51b815260206004820152601a60248201527f584e4654436f6e74726163743a20556e617574686f72697a65640000000000006044820152606490fd5b1561194c57565b60405162461bcd60e51b815260206004820152601c60248201527f4552433732313a20746f6b656e20616c7265616479206d696e746564000000006044820152606490fdfea26469706673582212209e4c5429a75e4c19765204cf414c9cd5cba23c23f85747a333fba5c90ead050864736f6c63430008130033",
  "linkReferences": {},
  "deployedLinkReferences": {}
}