{
  "_format": "hh-sol-artifact-1",
  "contractName": "TestAccountBasedChildProxy",
  "sourceName": "contracts/test/account_based_contracts/TestAccountBasedChildProxy.sol",
  "abi": [
    {
      "inputs": [],
      "stateMutability": "nonpayable",
      "type": "constructor"
    },
    {
      "anonymous": false,
      "inputs": [
        {
          "indexed": true,
          "internalType": "address",
          "name": "owner",
          "type": "address"
        },
        {
          "indexed": true,
          "internalType": "address",
          "name": "spender",
          "type": "address"
        },
        {
          "indexed": false,
          "internalType": "uint256",
          "name": "value",
          "type": "uint256"
        }
      ],
      "name": "Approval",
      "type": "event"
    },
    {
      "anonymous": false,
      "inputs": [
        {
          "indexed": true,
          "internalType": "address",
          "name": "previousAddress",
          "type": "address"
        },
        {
          "indexed": true,
          "internalType": "address",
          "name": "newAddress",
          "type": "address"
        }
      ],
      "name": "ChildChainChanged",
      "type": "event"
    },
    {
      "anonymous": false,
      "inputs": [
        {
          "indexed": true,
          "internalType": "bytes",
          "name": "token",
          "type": "bytes"
        },
        {
          "indexed": true,
          "internalType": "address",
          "name": "from",
          "type": "address"
        },
        {
          "indexed": false,
          "internalType": "uint256",
          "name": "amount",
          "type": "uint256"
        },
        {
          "indexed": false,
          "internalType": "uint256",
          "name": "input1",
          "type": "uint256"
        },
        {
          "indexed": false,
          "internalType": "uint256",
          "name": "output1",
          "type": "uint256"
        }
      ],
      "name": "Deposit",
      "type": "event"
    },
    {
      "anonymous": false,
      "inputs": [
        {
          "indexed": true,
          "internalType": "bytes",
          "name": "token",
          "type": "bytes"
        },
        {
          "indexed": true,
          "internalType": "address",
          "name": "from",
          "type": "address"
        },
        {
          "indexed": true,
          "internalType": "address",
          "name": "to",
          "type": "address"
        },
        {
          "indexed": false,
          "internalType": "uint256",
          "name": "amount",
          "type": "uint256"
        },
        {
          "indexed": false,
          "internalType": "uint256",
          "name": "input1",
          "type": "uint256"
        },
        {
          "indexed": false,
          "internalType": "uint256",
          "name": "input2",
          "type": "uint256"
        },
        {
          "indexed": false,
          "internalType": "uint256",
          "name": "output1",
          "type": "uint256"
        },
        {
          "indexed": false,
          "internalType": "uint256",
          "name": "output2",
          "type": "uint256"
        }
      ],
      "name": "LogFeeTransfer",
      "type": "event"
    },
    {
      "anonymous": false,
      "inputs": [
        {
          "indexed": true,
          "internalType": "bytes",
          "name": "token",
          "type": "bytes"
        },
        {
          "indexed": true,
          "internalType": "address",
          "name": "from",
          "type": "address"
        },
        {
          "indexed": true,
          "internalType": "address",
          "name": "to",
          "type": "address"
        },
        {
          "indexed": false,
          "internalType": "uint256",
          "name": "amount",
          "type": "uint256"
        },
        {
          "indexed": false,
          "internalType": "uint256",
          "name": "fromAddrOldBalance",
          "type": "uint256"
        },
        {
          "indexed": false,
          "internalType": "uint256",
          "name": "toAddrOldBalance",
          "type": "uint256"
        },
        {
          "indexed": false,
          "internalType": "uint256",
          "name": "fromAddrNewBalance",
          "type": "uint256"
        },
        {
          "indexed": false,
          "internalType": "uint256",
          "name": "toAddrNewBalance",
          "type": "uint256"
        }
      ],
      "name": "LogTransfer",
      "type": "event"
    },
    {
      "anonymous": false,
      "inputs": [
        {
          "indexed": true,
          "internalType": "address",
          "name": "previousOwner",
          "type": "address"
        },
        {
          "indexed": true,
          "internalType": "address",
          "name": "newOwner",
          "type": "address"
        }
      ],
      "name": "OwnershipTransferred",
      "type": "event"
    },
    {
      "anonymous": false,
      "inputs": [
        {
          "indexed": true,
          "internalType": "address",
          "name": "previousAddress",
          "type": "address"
        },
        {
          "indexed": true,
          "internalType": "address",
          "name": "newAddress",
          "type": "address"
        }
      ],
      "name": "ParentChanged",
      "type": "event"
    },
    {
      "anonymous": false,
      "inputs": [
        {
          "indexed": true,
          "internalType": "address",
          "name": "from",
          "type": "address"
        },
        {
          "indexed": true,
          "internalType": "address",
          "name": "to",
          "type": "address"
        },
        {
          "indexed": false,
          "internalType": "uint256",
          "name": "value",
          "type": "uint256"
        }
      ],
      "name": "Transfer",
      "type": "event"
    },
    {
      "anonymous": false,
      "inputs": [
        {
          "indexed": true,
          "internalType": "bytes",
          "name": "token",
          "type": "bytes"
        },
        {
          "indexed": true,
          "internalType": "address",
          "name": "from",
          "type": "address"
        },
        {
          "indexed": false,
          "internalType": "uint256",
          "name": "amount",
          "type": "uint256"
        },
        {
          "indexed": false,
          "internalType": "uint256",
          "name": "input1",
          "type": "uint256"
        },
        {
          "indexed": false,
          "internalType": "uint256",
          "name": "output1",
          "type": "uint256"
        }
      ],
      "name": "Withdraw",
      "type": "event"
    },
    {
      "inputs": [],
      "name": "CHAINID",
      "outputs": [
        {
          "internalType": "uint256",
          "name": "",
          "type": "uint256"
        }
      ],
      "stateMutability": "view",
      "type": "function"
    },
    {
      "inputs": [],
      "name": "EIP712_DOMAIN_SCHEMA_HASH",
      "outputs": [
        {
          "internalType": "bytes32",
          "name": "",
          "type": "bytes32"
        }
      ],
      "stateMutability": "view",
      "type": "function"
    },
    {
      "inputs": [],
      "name": "EIP712_TOKEN_TRANSFER_ORDER_SCHEMA_HASH",
      "outputs": [
        {
          "internalType": "bytes32",
          "name": "",
          "type": "bytes32"
        }
      ],
      "stateMutability": "view",
      "type": "function"
    },
    {
      "inputs": [],
      "name": "NETWORK_ID",
      "outputs": [
        {
          "internalType": "bytes",
          "name": "",
          "type": "bytes"
        }
      ],
      "stateMutability": "view",
      "type": "function"
    },
    {
      "inputs": [],
      "name": "_decimals",
      "outputs": [
        {
          "internalType": "uint8",
          "name": "",
          "type": "uint8"
        }
      ],
      "stateMutability": "view",
      "type": "function"
    },
    {
      "inputs": [],
      "name": "_name",
      "outputs": [
        {
          "internalType": "string",
          "name": "",
          "type": "string"
        }
      ],
      "stateMutability": "view",
      "type": "function"
    },
    {
      "inputs": [],
      "name": "_symbol",
      "outputs": [
        {
          "internalType": "string",
          "name": "",
          "type": "string"
        }
      ],
      "stateMutability": "view",
      "type": "function"
    },
    {
      "inputs": [
        {
          "internalType": "address",
          "name": "",
          "type": "address"
        },
        {
          "internalType": "address",
          "name": "",
          "type": "address"
        }
      ],
      "name": "allowance",
      "outputs": [
        {
          "internalType": "uint256",
          "name": "",
          "type": "uint256"
        }
      ],
      "stateMutability": "pure",
      "type": "function"
    },
    {
      "inputs": [
        {
          "internalType": "address",
          "name": "",
          "type": "address"
        },
        {
          "internalType": "uint256",
          "name": "",
          "type": "uint256"
        }
      ],
      "name": "approve",
      "outputs": [
        {
          "internalType": "bool",
          "name": "",
          "type": "bool"
        }
      ],
      "stateMutability": "pure",
      "type": "function"
    },
    {
      "inputs": [
        {
          "internalType": "address",
          "name": "account",
          "type": "address"
        }
      ],
      "name": "balanceOf",
      "outputs": [
        {
          "internalType": "uint256",
          "name": "",
          "type": "uint256"
        }
      ],
      "stateMutability": "view",
      "type": "function"
    },
    {
      "inputs": [
        {
          "internalType": "address",
          "name": "newAddress",
          "type": "address"
        }
      ],
      "name": "changeChildChain",
      "outputs": [],
      "stateMutability": "nonpayable",
      "type": "function"
    },
    {
      "inputs": [],
      "name": "childChain",
      "outputs": [
        {
          "internalType": "address",
          "name": "",
          "type": "address"
        }
      ],
      "stateMutability": "view",
      "type": "function"
    },
    {
      "inputs": [],
      "name": "decimals",
      "outputs": [
        {
          "internalType": "uint8",
          "name": "",
          "type": "uint8"
        }
      ],
      "stateMutability": "view",
      "type": "function"
    },
    {
      "inputs": [
        {
          "internalType": "address",
          "name": "user",
          "type": "address"
        },
        {
          "internalType": "uint256",
          "name": "amount",
          "type": "uint256"
        }
      ],
      "name": "deposit",
      "outputs": [],
      "stateMutability": "nonpayable",
      "type": "function"
    },
    {
      "inputs": [
        {
          "internalType": "bytes32",
          "name": "",
          "type": "bytes32"
        }
      ],
      "name": "disabledHashes",
      "outputs": [
        {
          "internalType": "bool",
          "name": "",
          "type": "bool"
        }
      ],
      "stateMutability": "view",
      "type": "function"
    },
    {
      "inputs": [
        {
          "internalType": "bytes32",
          "name": "hash",
          "type": "bytes32"
        },
        {
          "internalType": "bytes",
          "name": "sig",
          "type": "bytes"
        }
      ],
      "name": "ecrecovery",
      "outputs": [
        {
          "internalType": "address",
          "name": "result",
          "type": "address"
        }
      ],
      "stateMutability": "pure",
      "type": "function"
    },
    {
      "inputs": [],
      "name": "eip712DomainHash",
      "outputs": [
        {
          "internalType": "bytes32",
          "name": "",
          "type": "bytes32"
        }
      ],
      "stateMutability": "view",
      "type": "function"
    },
    {
      "inputs": [],
      "name": "getToken",
      "outputs": [
        {
          "internalType": "bytes",
          "name": "",
          "type": "bytes"
        }
      ],
      "stateMutability": "view",
      "type": "function"
    },
    {
      "inputs": [
        {
          "internalType": "address",
          "name": "spender",
          "type": "address"
        },
        {
          "internalType": "uint256",
          "name": "tokenIdOrAmount",
          "type": "uint256"
        },
        {
          "internalType": "bytes32",
          "name": "data",
          "type": "bytes32"
        },
        {
          "internalType": "uint256",
          "name": "expiration",
          "type": "uint256"
        }
      ],
      "name": "getTokenTransferOrderHash",
      "outputs": [
        {
          "internalType": "bytes32",
          "name": "orderHash",
          "type": "bytes32"
        }
      ],
      "stateMutability": "view",
      "type": "function"
    },
    {
      "inputs": [
        {
          "internalType": "bytes",
          "name": "_token",
          "type": "bytes"
        },
        {
          "internalType": "string",
          "name": "name",
          "type": "string"
        },
        {
          "internalType": "string",
          "name": "symbol",
          "type": "string"
        }
      ],
      "name": "initialize",
      "outputs": [],
      "stateMutability": "nonpayable",
      "type": "function"
    },
    {
      "inputs": [],
      "name": "isOwner",
      "outputs": [
        {
          "internalType": "bool",
          "name": "",
          "type": "bool"
        }
      ],
      "stateMutability": "view",
      "type": "function"
    },
    {
      "inputs": [],
      "name": "name",
      "outputs": [
        {
          "internalType": "string",
          "name": "",
          "type": "string"
        }
      ],
      "stateMutability": "view",
      "type": "function"
    },
    {
      "inputs": [
        {
          "internalType": "uint256",
          "name": "",
          "type": "uint256"
        },
        {
          "internalType": "bytes",
          "name": "data",
          "type": "bytes"
        }
      ],
      "name": "onStateReceive",
      "outputs": [],
      "stateMutability": "nonpayable",
      "type": "function"
    },
    {
      "inputs": [],
      "name": "owner",
      "outputs": [
        {
          "internalType": "address",
          "name": "",
          "type": "address"
        }
      ],
      "stateMutability": "view",
      "type": "function"
    },
    {
      "inputs": [],
      "name": "parent",
      "outputs": [
        {
          "internalType": "address",
          "name": "",
          "type": "address"
        }
      ],
      "stateMutability": "view",
      "type": "function"
    },
    {
      "inputs": [],
      "name": "renounceOwnership",
      "outputs": [],
      "stateMutability": "nonpayable",
      "type": "function"
    },
    {
      "inputs": [
        {
          "internalType": "address",
          "name": "newAddress",
          "type": "address"
        }
      ],
      "name": "setParent",
      "outputs": [],
      "stateMutability": "nonpayable",
      "type": "function"
    },
    {
      "inputs": [],
      "name": "symbol",
      "outputs": [
        {
          "internalType": "string",
          "name": "",
          "type": "string"
        }
      ],
      "stateMutability": "view",
      "type": "function"
    },
    {
      "inputs": [],
      "name": "token",
      "outputs": [
        {
          "internalType": "bytes",
          "name": "",
          "type": "bytes"
        }
      ],
      "stateMutability": "view",
      "type": "function"
    },
    {
      "inputs": [],
      "name": "totalSupply",
      "outputs": [
        {
          "internalType": "uint256",
          "name": "",
          "type": "uint256"
        }
      ],
      "stateMutability": "view",
      "type": "function"
    },
    {
      "inputs": [
        {
          "internalType": "address",
          "name": "to",
          "type": "address"
        },
        {
          "internalType": "uint256",
          "name": "value",
          "type": "uint256"
        }
      ],
      "name": "transfer",
      "outputs": [
        {
          "internalType": "bool",
          "name": "",
          "type": "bool"
        }
      ],
      "stateMutability": "nonpayable",
      "type": "function"
    },
    {
      "inputs": [
        {
          "internalType": "address",
          "name": "",
          "type": "address"
        },
        {
          "internalType": "address",
          "name": "",
          "type": "address"
        },
        {
          "internalType": "uint256",
          "name": "",
          "type": "uint256"
        }
      ],
      "name": "transferFrom",
      "outputs": [
        {
          "internalType": "bool",
          "name": "",
          "type": "bool"
        }
      ],
      "stateMutability": "pure",
      "type": "function"
    },
    {
      "inputs": [
        {
          "internalType": "address",
          "name": "newOwner",
          "type": "address"
        }
      ],
      "name": "transferOwnership",
      "outputs": [],
      "stateMutability": "nonpayable",
      "type": "function"
    },
    {
      "inputs": [
        {
          "internalType": "bytes",
          "name": "sig",
          "type": "bytes"
        },
        {
          "internalType": "uint256",
          "name": "amount",
          "type": "uint256"
        },
        {
          "internalType": "bytes32",
          "name": "data",
          "type": "bytes32"
        },
        {
          "internalType": "uint256",
          "name": "expiration",
          "type": "uint256"
        },
        {
          "internalType": "address",
          "name": "to",
          "type": "address"
        }
      ],
      "name": "transferWithSig",
      "outputs": [
        {
          "internalType": "address",
          "name": "from",
          "type": "address"
        }
      ],
      "stateMutability": "nonpayable",
      "type": "function"
    },
    {
      "inputs": [
        {
          "internalType": "uint256",
          "name": "amount",
          "type": "uint256"
        }
      ],
      "name": "withdraw",
      "outputs": [],
      "stateMutability": "payable",
      "type": "function"
    }
  ],
  "bytecode": "0x60a0604090808252346200056c5760209067544553542d31324160c01b82820152600881526200002f8162000571565b82516200003c81620005a3565b60009182825284516200004f81620005a3565b8381528354336001600160a01b0319821681178655906001600160a01b03167f8be0079c531659141344cd1fd0a4f28419497f9722a3daafe3b4186f6b6457e08680a385516001600160401b03949060808101868111828210176200054357885260528082527f454950373132446f6d61696e28737472696e67206e616d652c737472696e6720888301527f76657273696f6e2c75696e7432353620636861696e49642c61646472657373208983015271766572696679696e67436f6e74726163742960701b606083015288519188845b83811062000557575050508260728301528152608081019080821087831117620005435790600e60a08993838c528281518683012094620001618162000571565b52016d446f6a696d61204e6574776f726b60901b8152208951620001858162000571565b600593818580935201640312e302e360dc1b8152208a51918a83019384528b830152606082015261057960808201523060a082015260a0815260c08101818110898211176200052f578a52519020946001958655845180156200052b57878111620004695780620001f8600254620005bf565b96601f978b898211620004f0575b50508a90888311600114620004895786926200047d575b5050600019600383901b1c191690871b176002555b805190878211620004695781906200024c600954620005bf565b8a8882116200042e575b50508990878311600114620003c8578592620003bc575b5050600019600383901b1c191690861b176009555b8251958611620003a85762000299600a54620005bf565b8481116200036c575b50508592851160011462000303579394508492919083620002f7575b50501b916000199060031b1c191617600a555b601260805260ff19600b5416600b55516121ad90816200061682396080518161088d0152f35b015192503880620002be565b600a815285812093958591601f198316915b8883831062000351575050501062000337575b505050811b01600a55620002d1565b015160001960f88460031b161c1916905538808062000328565b85870151885590960195948501948793509081019062000315565b6200039691600a84528884209086808a01821c8301938b8b106200039e575b01901c0190620005fc565b3880620002a2565b935082936200038b565b634e487b7160e01b82526041600452602482fd5b0151905038806200026d565b600986528a86208994509190601f198416875b8d828210620004175750508411620003fd575b505050811b0160095562000282565b015160001960f88460031b161c19169055388080620003ee565b8385015186558c97909501949384019301620003db565b6200045791600988528982892091818701891c83019387106200045f575b01871c0190620005fc565b388a62000256565b925081926200044c565b634e487b7160e01b84526041600452602484fd5b0151905038806200021d565b600287528b87208a94509190601f198416888e5b828210620004d85750508411620004be575b505050811b0160025562000232565b015160001960f88460031b161c19169055388080620004af565b8385015186558d979095019493840193018e6200049d565b6200051991600289528a828a20918187018a1c830193871062000521575b01881c0190620005fc565b388b62000206565b925081926200050e565b8380fd5b634e487b7160e01b85526041600452602485fd5b634e487b7160e01b83526041600452602483fd5b81818401015182828701015201899062000120565b600080fd5b604081019081106001600160401b038211176200058d57604052565b634e487b7160e01b600052604160045260246000fd5b602081019081106001600160401b038211176200058d57604052565b90600182811c92168015620005f1575b6020831014620005db57565b634e487b7160e01b600052602260045260246000fd5b91607f1691620005cf565b81811062000608575050565b60008155600101620005fc56fe6080604052600436101561001257600080fd5b60003560e01c806306fdde03146101bb578063095ea7b3146102335780631499c5921461022e57806318160ddd1461022957806319d27d9c1461022457806321df0da71461019d57806323b872dd1461021f57806326c53bea1461021a57806328ce8b31146102155780632e1a7d4d14610210578063313ce5671461020b57806332424aa31461020b57806342fc47fb1461020657806347e7ef241461020157806360f96a8f146101fc57806370a08231146101f7578063715018a6146101f257806377d32e94146101ed5780638da5cb5b146101e85780638f32d59b146101e357806395d89b41146101cf578063a9059cbb146101de578063abceeba2146101d9578063acd06cb3146101d4578063b09f1266146101cf578063b789543c146101ca578063c117db0b146101c5578063cc79f97b146101c0578063d28d8852146101bb578063dd62ed3e146101b6578063e614d0d6146101b1578063ed9ef524146101ac578063f2fde38b146101a7578063f94dc4bc146101a25763fc0c546a1461019d57600080fd5b610669565b6111ca565b611145565b611036565b61101b565b610f4d565b610278565b610f30565b610e72565b610e1c565b610bed565b610db1565b610d8e565b610c94565b610bb8565b610b8f565b610b2f565b610a78565b610a3b565b610a12565b6108da565b6108b1565b610873565b61085b565b610818565b610725565b6106fe565b610502565b6104b7565b61039c565b61037b565b919082519283825260005b848110610264575050826000602080949584010152601f8019910116010190565b602081830181015184830182015201610243565b346103655760008060031936011261036257604051908060095461029b81610de2565b8085529160019180831690811561033857506001146102dd575b6102d9856102c5818703826107f7565b604051918291602083526020830190610238565b0390f35b9250600983527f6e1540171b6c0c960b71a7020d9f60077f6af931a8bbf590da0223dacf75c7af5b8284106103205750505081016020016102c5826102d96102b5565b80546020858701810191909152909301928101610305565b8695506102d9969350602092506102c594915060ff191682840152151560051b82010192936102b5565b80fd5b600080fd5b6001600160a01b0381160361036557565b346103655760403660031901126103655761039760043561036a565b6120ff565b34610365576020366003190112610365576004356103b98161036a565b600080516020612158833981519152546001600160a01b03906103df908216331461121b565b81169081156104425760045461044092906001600160a01b03167fc9e4c719f349d4c91a37138eb5cf0ba2670c592a764f8c0b18c603ba9178cc1d600080a360018060a01b03166bffffffffffffffffffffffff60a01b6004541617600455565b005b60405162461bcd60e51b815260206004820152604160248201527f4163636f756e74204261736564204368696c6420746f6b656e3a206e6577207060448201527f6172656e74206164647265737320697320746865207a65726f206164647265736064820152607360f81b608482015260a490fd5b34610365576000366003190112610365576020600854604051908152f35b9181601f84011215610365578235916001600160401b038311610365576020838186019501011161036557565b346103655760a0366003190112610365576004356001600160401b038111610365576105329036906004016104d5565b9060243560643590608435926105478461036a565b8115610613576102d9946105d86105de9261058561057e876105ee98158015610609575b61057490611266565b60443588336111e8565b3090611327565b926105ad6105a76105a0866000526005602052604060002090565b5460ff1690565b156112c9565b6105d16105c4856000526005602052604060002090565b805460ff19166001179055565b3691610ae9565b90611700565b926001600160a01b0316836114c3565b506040516001600160a01b0390911681529081906020820190565b504381101561056b565b60405162461bcd60e51b815260206004820152602860248201527f4163636f756e74204261736564204261736520546f6b656e3a20696e76616c696044820152671908185b5bdd5b9d60c21b6064820152608490fd5b346103655760008060031936011261036257604051908060025461068c81610de2565b8085529160019180831690811561033857506001146106b5576102d9856102c5818703826107f7565b9250600283526000805160206121388339815191525b8284106106e65750505081016020016102c5826102d96102b5565b805460208587018101919091529093019281016106cb565b346103655760603660031901126103655761071a60043561036a565b61039760243561036a565b34610365576040366003190112610365576024356001600160401b0381116103655761075760409136906004016104d5565b9080929181010312610365578060206104409235916107758361036a565b01359060018060a01b03168181600052600660205260406000205490811061079e575b50611bed565b915038610798565b634e487b7160e01b600052604160045260246000fd5b604081019081106001600160401b038211176107d757604052565b6107a6565b608081019081106001600160401b038211176107d757604052565b90601f801991011681019081106001600160401b038211176107d757604052565b34610365576000366003190112610365576102d9604051610838816107bc565b600281526103e960f01b6020820152604051918291602083526020830190610238565b60203660031901126103655761044060043533611bed565b3461036557600036600319011261036557602060405160ff7f0000000000000000000000000000000000000000000000000000000000000000168152f35b34610365576000366003190112610365576003546040516001600160a01b039091168152602090f35b34610365576040366003190112610365576004356108f78161036a565b6024359081151580610a00575b1561099f576001600160a01b03811660009081526006602052604090207f68ef7ce2640f8727da5ca0ea6d99bb00585c775e7fbfe863016ce3165d985ff2905461094e8484611fe9565b6001600160a01b0383166000908152600660205260409020549261099a610973611438565b9460405193849360018060a01b031697846040919493926060820195825260208201520152565b0390a3005b60405162461bcd60e51b815260206004820152603360248201527f4368696c6420424550323a20696e76616c69642075736572206164647265737360448201527208185b990819195c1bdcda5d08185b5bdd5b9d606a1b6064820152608490fd5b506001600160a01b0381161515610904565b34610365576000366003190112610365576004546040516001600160a01b039091168152602090f35b3461036557602036600319011261036557600435610a588161036a565b60018060a01b031660005260066020526020604060002054604051908152f35b346103655760008060031936011261036257600080516020612158833981519152546001600160a01b0390610ab0908216331461121b565b8180549182167f8be0079c531659141344cd1fd0a4f28419497f9722a3daafe3b4186f6b6457e08280a36001600160a01b031916815580f35b9291926001600160401b0382116107d75760405191610b12601f8201601f1916602001846107f7565b829481845281830111610365578281602093846000960137010152565b34610365576040366003190112610365576024356001600160401b038111610365573660238201121561036557610b7d610b756020923690602481600401359101610ae9565b600435611700565b6040516001600160a01b039091168152f35b34610365576000366003190112610365576000546040516001600160a01b039091168152602090f35b3461036557600036600319011261036557602060018060a01b0360008051602061215883398151915254163314604051908152f35b3461036557600080600319360112610362576040519080600a54610c1081610de2565b808552916001918083169081156103385750600114610c39576102d9856102c5818703826107f7565b9250600a83527fc65a7bb8d6351c1cf70c95a316cc6a92839c986682d98bc35f958f4883f9d2a85b828410610c7c5750505081016020016102c5826102d96102b5565b80546020858701810191909152909301928101610c61565b34610365576040366003190112610365576020610cbf600435610cb68161036a565b60243590611d69565b6040519015158152f35b604051610cd5816107dc565b605b8082526020907f546f6b656e5472616e736665724f726465722861646472657373207370656e64828401527f65722c75696e7432353620746f6b656e49644f72416d6f756e742c627974657360408401527f333220646174612c75696e743235362065787069726174696f6e2900000000006060840152604051928260005b838110610d7a575050506000607b8401528252610d72826107dc565b815191012090565b818184010151828288010152018390610d56565b34610365576000366003190112610365576020610da9610cc9565b604051908152f35b34610365576020366003190112610365576004356000526005602052602060ff604060002054166040519015158152f35b90600182811c92168015610e12575b6020831014610dfc57565b634e487b7160e01b600052602260045260246000fd5b91607f1691610df1565b34610365576080366003190112610365576020610da9610e52600435610e418161036a565b6064359060443590602435906111e8565b6001546042916040519161190160f01b8352600283015260228201522090565b34610365576060366003190112610365576001600160401b0360043581811161036557610ea39036906004016104d5565b60249291923582811161036557610ebe9036906004016104d5565b909260443590811161036557610ed89036906004016104d5565b939092600b549560ff8716610efa5760016104409760ff191617600b55611a8d565b60405162461bcd60e51b815260206004820152600e60248201526d185b1c9958591e481a5b9a5d195960921b6044820152606490fd5b346103655760003660031901126103655760206040516105798152f35b346103655760403660031901126103655761071a60043561036a565b604051610f75816107dc565b60528082526020907f454950373132446f6d61696e28737472696e67206e616d652c737472696e6720828401527f76657273696f6e2c75696e7432353620636861696e49642c6164647265737320604084015271766572696679696e67436f6e74726163742960701b6060840152604051928260005b83811061100757505050600060728401528252610d72826107dc565b818184010151828288010152018390610feb565b34610365576000366003190112610365576020610da9610f69565b34610365576020366003190112610365576004356110538161036a565b600080516020612158833981519152546001600160a01b03919061107a908316331461121b565b81811680156110db5760035461044093166001600160a01b03167f1f9f3556dd336016cdf20adaead7d5c73665dba664b60e8c17e9a4eb91ce1d39600080a360018060a01b03166bffffffffffffffffffffffff60a01b6003541617600355565b608460405162461bcd60e51b815260206004820152604060248201527f4163636f756e74204261736564204368696c6420746f6b656e3a206e6577206360448201527f68696c64206164647265737320697320746865207a65726f20616464726573736064820152fd5b34610365576020366003190112610365576004356111628161036a565b600080516020612158833981519152546001600160a01b039190611189908316331461121b565b600080546001600160a01b0319811692841692831782559092167f8be0079c531659141344cd1fd0a4f28419497f9722a3daafe3b4186f6b6457e08380a380f35b34610365576000366003190112610365576020600154604051908152f35b9160a093916111f5610cc9565b93604051948552600180871b031660208501526040840152606083015260808201522090565b1561122257565b606460405162461bcd60e51b815260206004820152602060248201527f4f776e61626c653a2063616c6c6572206973206e6f7420746865206f776e65726044820152fd5b1561126d57565b60405162461bcd60e51b815260206004820152602e60248201527f4163636f756e74204261736564204261736520546f6b656e3a205369676e617460448201526d1d5c99481a5cc8195e1c1a5c995960921b6064820152608490fd5b156112d057565b60405162461bcd60e51b815260206004820152602960248201527f4163636f756e74204261736564204261736520546f6b656e3a205369672064656044820152681858dd1a5d985d195960ba1b6064820152608490fd5b61132f610f69565b6d446f6a696d61204e6574776f726b60901b602060405161134f816107bc565b600e81520152640312e302e360dc1b602060405161136c816107bc565b60058152015260405192602084019182527f221f8a440277f355573de882ed84f79b3742ae470474223812e292fd8a8bfa4460408501527f06c015bd22b4c69690933c1058878ebdfef31f9aaae40bbe86d8a09fe1b2972c6060850152610579608085015260018060a01b031660a084015260a0835260c08301928084106001600160401b038511176107d757604084905251902061190160f01b8352600283015260228201526042902090565b90565b90816020910312610365575190565b6040513d6000823e3d90fd5b60405180600060025461144a81610de2565b906001908181169081156114ac5750600114611469575b505003902090565b600260009081529192506000805160206121388339815191525b8383106114965750505081013880611461565b8054868401528594506020909201918101611483565b60ff19168552505080151502820190503880611461565b6040516370a0823160e01b8082526001600160a01b038316600483015291939260209291908382602481305afa91821561163257600092611673575b506040518381526001600160a01b0382166004820152938085602481305afa94851561163257600095611654575b50611539868389611ecf565b6040518481526001600160a01b03881660048201528181602481305afa90811561163257600091611637575b506040519485526001600160a01b03831660048601528185602481305afa908115611632577fb04c113d65bb862cc6c362d7c4c1271731185b8d36753f810d184768e771c1fc956115fb93600093611603575b50506115c2611438565b9660405195869560018060a01b038091169b1699869192608093969594919660a084019784526020840152604083015260608201520152565b0390a4600190565b611623929350803d1061162b575b61161b81836107f7565b81019061141d565b9038806115b8565b503d611611565b61142c565b61164e9150823d841161162b5761161b81836107f7565b38611565565b8161166c9296503d871161162b5761161b81836107f7565b933861152d565b61168b919250843d861161162b5761161b81836107f7565b90386114ff565b634e487b7160e01b600052601160045260246000fd5b60ff601b9116019060ff82116116ba57565b611692565b156116c657565b60405162461bcd60e51b815260206004820152601260248201527122b93937b91034b71032b1b932b1b7bb32b960711b6044820152606490fd5b90600060418251036117bb575060208101519160ff604160408401519301511690601b82106117ab575b60ff8216601b811415908161179f575b506117965761176e600093602095604051948594859094939260ff6060936080840197845216602083015260408201520152565b838052039060015afa1561163257600051906117946001600160a01b03831615156116bf565b565b50505050600090565b601c915014153861173a565b906117b5906116a8565b9061172a565b91505090565b8181106117cc575050565b600081556001016117c1565b90601f82116117e5575050565b611794916002600052600080516020612138833981519152906020601f840160051c8301931061181d575b601f0160051c01906117c1565b9091508190611810565b90601f8211611834575050565b6117949160096000527f6e1540171b6c0c960b71a7020d9f60077f6af931a8bbf590da0223dacf75c7af906020601f840160051c8301931061181d57601f0160051c01906117c1565b90601f821161188a575050565b61179491600a6000527fc65a7bb8d6351c1cf70c95a316cc6a92839c986682d98bc35f958f4883f9d2a8906020601f840160051c8301931061181d57601f0160051c01906117c1565b91906001600160401b0381116107d7576118f7816118f2600954610de2565b611827565b6000601f821160011461193157819293600092611926575b50508160011b916000199060031b1c191617600955565b01359050388061190f565b6009600052601f198216937f6e1540171b6c0c960b71a7020d9f60077f6af931a8bbf590da0223dacf75c7af91805b868110611998575083600195961061197e575b505050811b01600955565b0135600019600384901b60f8161c19169055388080611973565b90926020600181928686013581550194019101611960565b91906001600160401b0381116107d7576119d4816119cf600a54610de2565b61187d565b6000601f8211600114611a0e57819293600092611a03575b50508160011b916000199060031b1c191617600a55565b0135905038806119ec565b600a600052601f198216937fc65a7bb8d6351c1cf70c95a316cc6a92839c986682d98bc35f958f4883f9d2a891805b868110611a755750836001959610611a5b575b505050811b01600a55565b0135600019600384901b60f8161c19169055388080611a50565b90926020600181928686013581550194019101611a3d565b95949392958115611b82576001600160401b0382116107d757611aba82611ab5600254610de2565b6117d8565b600090601f8311600114611b07579180611af79492611794989994600092611afc575b50508160011b916000199060031b1c1916176002556118d3565b6119b0565b013590503880611add565b600260005260008051602061213883398151915291601f198416815b818110611b6a57509260019285926117949a9b96611af7989610611b50575b505050811b016002556118d3565b0135600019600384901b60f8161c19169055388080611b42565b91936020600181928787013581550195019201611b23565b60405162461bcd60e51b815260206004820152603b60248201527f54657374204163636f756e74204261736564204368696c642050726f78793a2060448201527f746f6b656e206c656e6774682063616e6e6f74206265207a65726f00000000006064820152608490fd5b6001600160a01b038116600081815260066020526040902054909291908315611d0c576001600160a01b03821660009081526006602052604090207feba6ac1619d393af4bf202dad828b057aaf28edd445663dc6ec4e30a43cc410a92611cdc91859054611c5d828210156120a3565b03611c7a8260018060a01b03166000526006602052604060002090565b55611c888560085403600855565b6000867fddf252ad1be2c89b69c2b068fc378daa952ba7f163c4a11628f55a4df523b3ef60405180611cbf8a829190602083019252565b0390a36001600160a01b0316600090815260066020526040902090565b5492611d07611ce9611438565b94604051938493846040919493926060820195825260208201520152565b0390a3565b60405162461bcd60e51b815260206004820152601b60248201527f4368696c6420424550323a20696e76616c6964206164647265737300000000006044820152606490fd5b90816020910312610365575180151581036103655790565b6004549091906001600160a01b039081168015159182611d9b575b5050611d945761141a91336114c3565b5050600090565b600092509060646020926040519485938492631ffb811f60e01b8452336004850152891660248401528760448401525af190811561163257600091611de4575b50153880611d84565b611e05915060203d8111611e0b575b611dfd81836107f7565b810190611d51565b38611ddb565b503d611df3565b15611e1957565b60405162461bcd60e51b815260206004820152602860248201527f4368696c6420424550323a207472616e7366657220746f20746865207a65726f604482015267206164647265737360c01b6064820152608490fd5b15611e7657565b60405162461bcd60e51b815260206004820152602b60248201527f4368696c6420424550323a207472616e7366657220616d6f756e74206578636560448201526a6564732062616c616e636560a81b6064820152608490fd5b916001600160a01b038084169290918315611f9157611f7b827fddf252ad1be2c89b69c2b068fc378daa952ba7f163c4a11628f55a4df523b3ef94611d07941696611f1b881515611e12565b6001600160a01b0381166000908152600660205260409020611f6090859054611f4682821015611e6f565b039160018060a01b03166000526006602052604060002090565b556001600160a01b0316600090815260066020526040902090565b8054820190556040519081529081906020820190565b60405162461bcd60e51b815260206004820152602a60248201527f4368696c6420424550323a207472616e736665722066726f6d20746865207a65604482015269726f206164647265737360b01b6064820152608490fd5b6001600160a01b0381169190821561205e57600854908282018092116116ba5760009261204f6020927fddf252ad1be2c89b69c2b068fc378daa952ba7f163c4a11628f55a4df523b3ef9460085560018060a01b03166000526006602052604060002090565b818154019055604051908152a3565b60405162461bcd60e51b815260206004820152601b60248201527f4368696c6420424550323a20696e76616c6964206163636f756e7400000000006044820152606490fd5b156120aa57565b60405162461bcd60e51b815260206004820152602760248201527f4368696c6420424550323a206275726e20616d6f756e7420657863656564732060448201526662616c616e636560c81b6064820152608490fd5b60405162461bcd60e51b815260206004820152601060248201526f44697361626c6564206665617475726560801b6044820152606490fdfe405787fa12a823e0f2b7631cc41b3ba8828b3321ca811111fa75cd3aa3bb5ace479ffb3c275b8ac9b3317421329612c7dc376a0f67c890d7652f9df289f799aea2646970667358221220563ed8edb185e5979e99dd588089bece719b2fbbe3ca375a4e790068ae69cedb64736f6c63430008130033",
  "linkReferences": {},
  "deployedLinkReferences": {}
}