{
  "_format": "hh-sol-artifact-1",
  "contractName": "RouterThor",
  "sourceName": "contracts/router/Router.sol",
  "abi": [
    {
      "inputs": [],
      "name": "InvalidAsset",
      "type": "error"
    },
    {
      "anonymous": false,
      "inputs": [
        {
          "indexed": true,
          "internalType": "address",
          "name": "to",
          "type": "address"
        },
        {
          "indexed": true,
          "internalType": "address",
          "name": "asset",
          "type": "address"
        },
        {
          "indexed": false,
          "internalType": "uint256",
          "name": "amount",
          "type": "uint256"
        },
        {
          "indexed": false,
          "internalType": "string",
          "name": "memo",
          "type": "string"
        }
      ],
      "name": "Deposit",
      "type": "event"
    },
    {
      "anonymous": false,
      "inputs": [
        {
          "indexed": false,
          "internalType": "uint8",
          "name": "version",
          "type": "uint8"
        }
      ],
      "name": "Initialized",
      "type": "event"
    },
    {
      "anonymous": false,
      "inputs": [
        {
          "indexed": true,
          "internalType": "address",
          "name": "previousOwner",
          "type": "address"
        },
        {
          "indexed": true,
          "internalType": "address",
          "name": "newOwner",
          "type": "address"
        }
      ],
      "name": "OwnershipTransferred",
      "type": "event"
    },
    {
      "anonymous": false,
      "inputs": [
        {
          "indexed": true,
          "internalType": "address",
          "name": "oldVault",
          "type": "address"
        },
        {
          "indexed": true,
          "internalType": "address",
          "name": "newVault",
          "type": "address"
        },
        {
          "indexed": false,
          "internalType": "address",
          "name": "asset",
          "type": "address"
        },
        {
          "indexed": false,
          "internalType": "uint256",
          "name": "amount",
          "type": "uint256"
        },
        {
          "indexed": false,
          "internalType": "string",
          "name": "memo",
          "type": "string"
        }
      ],
      "name": "TransferAllowance",
      "type": "event"
    },
    {
      "anonymous": false,
      "inputs": [
        {
          "indexed": true,
          "internalType": "address",
          "name": "vault",
          "type": "address"
        },
        {
          "indexed": true,
          "internalType": "address",
          "name": "to",
          "type": "address"
        },
        {
          "indexed": false,
          "internalType": "address",
          "name": "asset",
          "type": "address"
        },
        {
          "indexed": false,
          "internalType": "uint256",
          "name": "amount",
          "type": "uint256"
        },
        {
          "indexed": false,
          "internalType": "string",
          "name": "memo",
          "type": "string"
        }
      ],
      "name": "TransferOut",
      "type": "event"
    },
    {
      "anonymous": false,
      "inputs": [
        {
          "indexed": true,
          "internalType": "address",
          "name": "vault",
          "type": "address"
        },
        {
          "indexed": false,
          "internalType": "address",
          "name": "target",
          "type": "address"
        },
        {
          "indexed": false,
          "internalType": "uint256",
          "name": "amount",
          "type": "uint256"
        },
        {
          "indexed": false,
          "internalType": "address",
          "name": "finalAsset",
          "type": "address"
        },
        {
          "indexed": false,
          "internalType": "address",
          "name": "to",
          "type": "address"
        },
        {
          "indexed": false,
          "internalType": "uint256",
          "name": "amountOutMin",
          "type": "uint256"
        },
        {
          "indexed": false,
          "internalType": "string",
          "name": "memo",
          "type": "string"
        }
      ],
      "name": "TransferOutAndCall",
      "type": "event"
    },
    {
      "anonymous": false,
      "inputs": [
        {
          "indexed": true,
          "internalType": "address",
          "name": "oldVault",
          "type": "address"
        },
        {
          "indexed": true,
          "internalType": "address",
          "name": "newVault",
          "type": "address"
        },
        {
          "components": [
            {
              "internalType": "address",
              "name": "asset",
              "type": "address"
            },
            {
              "internalType": "uint256",
              "name": "amount",
              "type": "uint256"
            }
          ],
          "indexed": false,
          "internalType": "struct RouterThor.Coin[]",
          "name": "coins",
          "type": "tuple[]"
        },
        {
          "indexed": false,
          "internalType": "string",
          "name": "memo",
          "type": "string"
        }
      ],
      "name": "VaultTransfer",
      "type": "event"
    },
    {
      "inputs": [],
      "name": "DOJ_TOKEN",
      "outputs": [
        {
          "internalType": "address",
          "name": "",
          "type": "address"
        }
      ],
      "stateMutability": "view",
      "type": "function"
    },
    {
      "inputs": [
        {
          "internalType": "address",
          "name": "newOwner",
          "type": "address"
        }
      ],
      "name": "changeOwner",
      "outputs": [],
      "stateMutability": "nonpayable",
      "type": "function"
    },
    {
      "inputs": [
        {
          "internalType": "address payable",
          "name": "vault",
          "type": "address"
        },
        {
          "internalType": "address",
          "name": "asset",
          "type": "address"
        },
        {
          "internalType": "uint256",
          "name": "amount",
          "type": "uint256"
        },
        {
          "internalType": "string",
          "name": "memo",
          "type": "string"
        },
        {
          "internalType": "uint256",
          "name": "expiration",
          "type": "uint256"
        }
      ],
      "name": "depositWithExpiry",
      "outputs": [],
      "stateMutability": "payable",
      "type": "function"
    },
    {
      "inputs": [
        {
          "internalType": "address",
          "name": "_dojToken",
          "type": "address"
        }
      ],
      "name": "initialize",
      "outputs": [],
      "stateMutability": "nonpayable",
      "type": "function"
    },
    {
      "inputs": [],
      "name": "isOwner",
      "outputs": [
        {
          "internalType": "bool",
          "name": "",
          "type": "bool"
        }
      ],
      "stateMutability": "view",
      "type": "function"
    },
    {
      "inputs": [],
      "name": "owner",
      "outputs": [
        {
          "internalType": "address",
          "name": "",
          "type": "address"
        }
      ],
      "stateMutability": "view",
      "type": "function"
    },
    {
      "inputs": [],
      "name": "renounceOwnership",
      "outputs": [],
      "stateMutability": "nonpayable",
      "type": "function"
    },
    {
      "inputs": [
        {
          "internalType": "address",
          "name": "router",
          "type": "address"
        },
        {
          "internalType": "address payable",
          "name": "fortuna",
          "type": "address"
        },
        {
          "components": [
            {
              "internalType": "address",
              "name": "asset",
              "type": "address"
            },
            {
              "internalType": "uint256",
              "name": "amount",
              "type": "uint256"
            }
          ],
          "internalType": "struct RouterThor.Coin[]",
          "name": "coins",
          "type": "tuple[]"
        },
        {
          "internalType": "string",
          "name": "memo",
          "type": "string"
        }
      ],
      "name": "returnVaultAssets",
      "outputs": [],
      "stateMutability": "payable",
      "type": "function"
    },
    {
      "inputs": [
        {
          "internalType": "address",
          "name": "router",
          "type": "address"
        },
        {
          "internalType": "address",
          "name": "newVault",
          "type": "address"
        },
        {
          "internalType": "address",
          "name": "asset",
          "type": "address"
        },
        {
          "internalType": "uint256",
          "name": "amount",
          "type": "uint256"
        },
        {
          "internalType": "string",
          "name": "memo",
          "type": "string"
        }
      ],
      "name": "transferAllowance",
      "outputs": [],
      "stateMutability": "nonpayable",
      "type": "function"
    },
    {
      "inputs": [
        {
          "internalType": "address payable",
          "name": "to",
          "type": "address"
        },
        {
          "internalType": "address",
          "name": "asset",
          "type": "address"
        },
        {
          "internalType": "uint256",
          "name": "amount",
          "type": "uint256"
        },
        {
          "internalType": "string",
          "name": "memo",
          "type": "string"
        }
      ],
      "name": "transferOut",
      "outputs": [],
      "stateMutability": "payable",
      "type": "function"
    },
    {
      "inputs": [
        {
          "internalType": "address payable",
          "name": "target",
          "type": "address"
        },
        {
          "internalType": "address",
          "name": "finalToken",
          "type": "address"
        },
        {
          "internalType": "address",
          "name": "to",
          "type": "address"
        },
        {
          "internalType": "uint256",
          "name": "amountOutMin",
          "type": "uint256"
        },
        {
          "internalType": "string",
          "name": "memo",
          "type": "string"
        }
      ],
      "name": "transferOutAndCall",
      "outputs": [],
      "stateMutability": "payable",
      "type": "function"
    },
    {
      "inputs": [
        {
          "internalType": "address",
          "name": "newOwner",
          "type": "address"
        }
      ],
      "name": "transferOwnership",
      "outputs": [],
      "stateMutability": "nonpayable",
      "type": "function"
    },
    {
      "inputs": [
        {
          "internalType": "address",
          "name": "vault",
          "type": "address"
        },
        {
          "internalType": "address",
          "name": "token",
          "type": "address"
        }
      ],
      "name": "vaultAllowance",
      "outputs": [
        {
          "internalType": "uint256",
          "name": "amount",
          "type": "uint256"
        }
      ],
      "stateMutability": "view",
      "type": "function"
    }
  ],
  "bytecode": "0x60808060405234610074576000805462010000600160b01b0319811633601081811b62010000600160b01b03169290921784559291901c6001600160a01b0316907f8be0079c531659141344cd1fd0a4f28419497f9722a3daafe3b4186f6b6457e09080a360018055611180908161007a8239f35b600080fdfe60806040908082526004918236101561001757600080fd5b600092833560e01c928362594c2714610cb75750826303b6a67314610c6e5782631b738b3214610bb35782632923e82e1461092b5782634039fd4b146107ad57826344bc937b14610534578263574da71714610341578263715018a6146102d95782638da5cb5b146102ad5782638f32d59b1461027d578263a6f9dae11461023f578263c4d66de8146100f457505063f2fde38b146100b557600080fd5b346100f15760203660031901126100f1576100ee6100d1610cdc565b6100e960018060a01b0360005460101c163314610dd2565b610e1d565b80f35b80fd5b9091503461023b57602036600319011261023b57610110610cdc565b83549160ff8360081c16159283809461022e575b8015610217575b156101bd5790600191848360ff1983161788556101ac575b505561014e33610e1d565b60018060a01b03166bffffffffffffffffffffffff60a01b6002541617600255610176575080f35b60207f7f26b83ff96e1f2b6a682f133852f6798a09c465da95921460cefb38474024989161ff001984541684555160018152a180f35b61ffff191661010117865538610143565b845162461bcd60e51b8152602081840152602e60248201527f496e697469616c697a61626c653a20636f6e747261637420697320616c72656160448201526d191e481a5b9a5d1a585b1a5e995960921b6064820152608490fd5b50303b15801561012b5750600160ff82161461012b565b50600160ff821610610124565b8280fd5b83346100f15760203660031901126100f1576100ee61025c610cdc565b6100e960018060a01b0360005460101c16331461027881610dd2565b610dd2565b8382346102a957816003193601126102a95760209060018060a01b0360005460101c1633149051908152f35b5080fd5b8382346102a957816003193601126102a9579054905160109190911c6001600160a01b03168152602090f35b83346100f157806003193601126100f15760018060a01b036103038160005460101c163314610dd2565b818054918260101c167f8be0079c531659141344cd1fd0a4f28419497f9722a3daafe3b4186f6b6457e08280a362010000600160b01b031916815580f35b909150608036600319011261023b57610358610cdc565b610360610cf7565b9067ffffffffffffffff90604435606435838111610530576103859036908701610d8b565b9461038e610ed3565b6001600160a01b039385851680610441575050505034938685818082159283610437575b8280929181928a8a1690f115610406575b50506103fc907fa9cd03aa3c1b4515114539cd53d22085129d495cb9e9f9af77864526240f1bf79495965b519384931696339684610f29565b0390a36001805580f35b86829161042d575b8280929181923390f1156104235786386103c3565b85513d88823e3d90fd5b6108fc915061040e565b6108fc91506103b2565b969596338a526003602052888a209060005260205287600020610465848254610f50565b9055875190602082019263a9059cbb60e01b845286861660248401528460448401526044835260808301918383109083111761051b5750885251889182919082895af16104b0610f73565b816104ec575b50156104e8577fa9cd03aa3c1b4515114539cd53d22085129d495cb9e9f9af77864526240f1bf7936103fc91966103ee565b8680fd5b8051801592508215610501575b5050386104b6565b6105149250602080918301019101610e7b565b38806104f9565b604190634e487b7160e01b6000525260246000fd5b8780fd5b915060a036600319011261023b5761054a610cdc565b610552610cf7565b906044359160643567ffffffffffffffff81116104e8576105769036908701610d8b565b9260843542101561077857610589610ed3565b6001600160a01b039182169586610600575050349086808380156105f6575b82809291819286891690f1156104e8577fef519b7eb82aaf6ac376a6df2d793843ebfd593de5f1a0601d3cc6ab49ebb395936103fc915b865194859485528760208601521695830190610e93565b6108fc91506105a8565b600254939493831693929187850361076957346107355786516302ccb1b360e41b815230838201908152602081810184905292968b938893929091839182908790829060400103925af1801561072b576106fd575b50836002541692833b1561023b57602490838a519586948593630852cd8d60e31b85528401525af180156106f3576106b6575b507fef519b7eb82aaf6ac376a6df2d793843ebfd593de5f1a0601d3cc6ab49ebb3959392916103fc916105df565b916103fc91976106e87fef519b7eb82aaf6ac376a6df2d793843ebfd593de5f1a0601d3cc6ab49ebb395969594610d23565b979150919293610688565b86513d8a823e3d90fd5b61071d9060203d8111610724575b6107158183610d4d565b810190610e7b565b5038610655565b503d61070b565b89513d85823e3d90fd5b865162461bcd60e51b8152602081840152600e60248201526d0eadccaf0e0cac6e8cac840cae8d60931b6044820152606490fd5b508551636448d6e960e11b8152fd5b845162461bcd60e51b8152602081880152600f60248201526e149bdd5d195c8e88195e1c1a5c9959608a1b6044820152606490fd5b90915060a036600319011261023b576107c4610cdc565b906107cd610cf7565b906107d6610d0d565b90606435916084359367ffffffffffffffff94858111610927576107fd9036908501610d8b565b95610806610ed3565b60018060a01b0380911695885191806020840194631230c53d60e21b8652169485602485015216948560448401528660648401526064835260a0830191838310908311176109145750885251889182919034885af1610863610f73565b50156108c6575b857f8e5841bcd195b858d53b38bcf91b38d47f3bc800469b6812d35451ab619c6f6c9596519485523460208601528401526060830152608082015260c060a0820152806108bc339460c0830190610e93565b0390a26001805580f35b86341581808261090b575b81808092883491f1156108e6575b505061086a565b8190610902575b8180809234903390f1156104235786386108df565b506108fc6108ed565b506108fc6108d1565b634e487b7160e01b8b526041905260248afd5b8880fd5b909150608036600319011261023b57610942610cdc565b9261094b610cf7565b936044359167ffffffffffffffff958684116102a957366023850112156102a9578385013594878611610ba05786519760209561098d878960051b018b610d4d565b878a52868a0180986024809160061b84010192368411610530578101915b838310610b465750505050606435908111610b42576109cc91369101610d8b565b6109d4610ed3565b6001600160a01b03938085163003610ae3575094958184169590835b8951811015610a2e5780610a248b89610a1a848b610a11610a299886610fb2565b51511693610fb2565b510151908b610fdc565b610fa3565b6109f0565b508051818152985189820181905294989397929695919460608501939189905b828210610ac1575050505093869791937f281daef48d91e5cd3d32db0784f6af69cd8d8d2e8c612a3568dca51ded51e08f8480610a99888c9b989a8c9b8c9b03908401523395610e93565b0390a35b82903415610ab7575b34921690f1156100f1576001805580f35b6108fc9150610aa6565b835180518d168752850151858701529485019492840192600190910190610a4e565b9550969391809391965092818716935b8551811015610b2d5780610a248a85610b0f610b28958b610fb2565b51511687610b1d858c610fb2565b51015190898c611049565b610af3565b50965086959150859450849350839250610a9d565b8380fd5b8b83360312610530578b518c810181811087821117610b8e578d5283356001600160a01b0381168103610b8a578152838b01358b8201528152918b019189016109ab565b8980fd5b634e487b7160e01b8a5260418852838afd5b634e487b7160e01b835260419052602482fd5b9091503461023b5760a036600319011261023b57610bcf610cdc565b610bd7610cf7565b90610be0610d0d565b91606435936084359067ffffffffffffffff821161053057610c0491369101610d8b565b94610c0d610ed3565b6001600160a01b03928084163003610c5a575084956103fc916103ee86977f05b90458f953d3fcb2d7fb25616a2fddeca749d0c47cc5c9832d0266b5346eea9786610fdc565b6001805580f35b9050610c699594939250611049565b610c53565b8382346102a957806003193601126102a95780602092610c8c610cdc565b610c94610cf7565b6001600160a01b0391821683526003865283832091168252845220549051908152f35b8490346102a957816003193601126102a9576002546001600160a01b03168152602090f35b600435906001600160a01b0382168203610cf257565b600080fd5b602435906001600160a01b0382168203610cf257565b604435906001600160a01b0382168203610cf257565b67ffffffffffffffff8111610d3757604052565b634e487b7160e01b600052604160045260246000fd5b90601f8019910116810190811067ffffffffffffffff821117610d3757604052565b67ffffffffffffffff8111610d3757601f01601f191660200190565b81601f82011215610cf257803590610da282610d6f565b92610db06040519485610d4d565b82845260208383010111610cf257816000926020809301838601378301015290565b15610dd957565b606460405162461bcd60e51b815260206004820152602060248201527f4f776e61626c653a2063616c6c6572206973206e6f7420746865206f776e65726044820152fd5b6000805462010000600160b01b03198116601084811b62010000600160b01b03169190911783556001600160a01b039384169391901c16907f8be0079c531659141344cd1fd0a4f28419497f9722a3daafe3b4186f6b6457e09080a3565b90816020910312610cf257518015158103610cf25790565b919082519283825260005b848110610ebf575050826000602080949584010152601f8019910116010190565b602081830181015184830182015201610e9e565b600260015414610ee4576002600155565b60405162461bcd60e51b815260206004820152601f60248201527f5265656e7472616e637947756172643a207265656e7472616e742063616c6c006044820152606490fd5b610f4d939260609260018060a01b0316825260208201528160408201520190610e93565b90565b91908203918211610f5d57565b634e487b7160e01b600052601160045260246000fd5b3d15610f9e573d90610f8482610d6f565b91610f926040519384610d4d565b82523d6000602084013e565b606090565b6000198114610f5d5760010190565b8051821015610fc65760209160051b010190565b634e487b7160e01b600052603260045260246000fd5b6000913383526003602052604083209160018060a01b03809216928385526020526040842061100c868254610f50565b905516825260036020526040822090825260205260408120908154928301809311611035575055565b634e487b7160e01b81526011600452602490fd5b90949360009233845260036020526040842092848060018060a01b0393848116968783526020526040822061107f8a8254610f50565b905560405163095ea7b360e01b602082019081526001600160a01b038616602483015260448083018c905282529083906110ba606482610d4d565b51925af16110c6610f73565b501561114657811691823b1561114657849596976111148692604051998a97889687956344bc937b60e01b87521660048601526024850152604484015260a0606484015260a4830190610e93565b600019608483015203925af190811561113a575061112f5750565b61113890610d23565b565b604051903d90823e3d90fd5b8480fdfea2646970667358221220d3d3011dbbd483943fbe5849388b334586e1ae29e8a17cee229e075e56d3e16e64736f6c63430008130033",
  "linkReferences": {},
  "deployedLinkReferences": {}
}