{
  "_format": "hh-sol-artifact-1",
  "contractName": "XTokenContract",
  "sourceName": "contracts/templates/omnichaintokens/XTokenContract.sol",
  "abi": [
    {
      "inputs": [
        {
          "internalType": "string",
          "name": "name",
          "type": "string"
        },
        {
          "internalType": "string",
          "name": "symbol",
          "type": "string"
        },
        {
          "internalType": "uint8",
          "name": "decimals_",
          "type": "uint8"
        }
      ],
      "stateMutability": "nonpayable",
      "type": "constructor"
    },
    {
      "anonymous": false,
      "inputs": [
        {
          "indexed": true,
          "internalType": "address",
          "name": "owner",
          "type": "address"
        },
        {
          "indexed": true,
          "internalType": "address",
          "name": "spender",
          "type": "address"
        },
        {
          "indexed": false,
          "internalType": "uint256",
          "name": "value",
          "type": "uint256"
        }
      ],
      "name": "Approval",
      "type": "event"
    },
    {
      "anonymous": false,
      "inputs": [
        {
          "indexed": false,
          "internalType": "address",
          "name": "omniChainContract",
          "type": "address"
        }
      ],
      "name": "OmniChainERC20ContractUpdated",
      "type": "event"
    },
    {
      "anonymous": false,
      "inputs": [
        {
          "indexed": true,
          "internalType": "bytes32",
          "name": "role",
          "type": "bytes32"
        },
        {
          "indexed": true,
          "internalType": "bytes32",
          "name": "previousAdminRole",
          "type": "bytes32"
        },
        {
          "indexed": true,
          "internalType": "bytes32",
          "name": "newAdminRole",
          "type": "bytes32"
        }
      ],
      "name": "RoleAdminChanged",
      "type": "event"
    },
    {
      "anonymous": false,
      "inputs": [
        {
          "indexed": true,
          "internalType": "bytes32",
          "name": "role",
          "type": "bytes32"
        },
        {
          "indexed": true,
          "internalType": "address",
          "name": "account",
          "type": "address"
        },
        {
          "indexed": true,
          "internalType": "address",
          "name": "sender",
          "type": "address"
        }
      ],
      "name": "RoleGranted",
      "type": "event"
    },
    {
      "anonymous": false,
      "inputs": [
        {
          "indexed": true,
          "internalType": "bytes32",
          "name": "role",
          "type": "bytes32"
        },
        {
          "indexed": true,
          "internalType": "address",
          "name": "account",
          "type": "address"
        },
        {
          "indexed": true,
          "internalType": "address",
          "name": "sender",
          "type": "address"
        }
      ],
      "name": "RoleRevoked",
      "type": "event"
    },
    {
      "anonymous": false,
      "inputs": [
        {
          "indexed": true,
          "internalType": "address",
          "name": "from",
          "type": "address"
        },
        {
          "indexed": true,
          "internalType": "address",
          "name": "to",
          "type": "address"
        },
        {
          "indexed": false,
          "internalType": "uint256",
          "name": "value",
          "type": "uint256"
        }
      ],
      "name": "Transfer",
      "type": "event"
    },
    {
      "inputs": [],
      "name": "ADMIN_ROLE",
      "outputs": [
        {
          "internalType": "bytes32",
          "name": "",
          "type": "bytes32"
        }
      ],
      "stateMutability": "view",
      "type": "function"
    },
    {
      "inputs": [],
      "name": "DEFAULT_ADMIN_ROLE",
      "outputs": [
        {
          "internalType": "bytes32",
          "name": "",
          "type": "bytes32"
        }
      ],
      "stateMutability": "view",
      "type": "function"
    },
    {
      "inputs": [
        {
          "internalType": "address",
          "name": "owner",
          "type": "address"
        },
        {
          "internalType": "address",
          "name": "spender",
          "type": "address"
        }
      ],
      "name": "allowance",
      "outputs": [
        {
          "internalType": "uint256",
          "name": "",
          "type": "uint256"
        }
      ],
      "stateMutability": "view",
      "type": "function"
    },
    {
      "inputs": [
        {
          "internalType": "address",
          "name": "spender",
          "type": "address"
        },
        {
          "internalType": "uint256",
          "name": "amount",
          "type": "uint256"
        }
      ],
      "name": "approve",
      "outputs": [
        {
          "internalType": "bool",
          "name": "",
          "type": "bool"
        }
      ],
      "stateMutability": "nonpayable",
      "type": "function"
    },
    {
      "inputs": [
        {
          "internalType": "address",
          "name": "account",
          "type": "address"
        }
      ],
      "name": "balanceOf",
      "outputs": [
        {
          "internalType": "uint256",
          "name": "",
          "type": "uint256"
        }
      ],
      "stateMutability": "view",
      "type": "function"
    },
    {
      "inputs": [
        {
          "internalType": "uint256",
          "name": "amount",
          "type": "uint256"
        }
      ],
      "name": "burn",
      "outputs": [],
      "stateMutability": "nonpayable",
      "type": "function"
    },
    {
      "inputs": [
        {
          "internalType": "address",
          "name": "account",
          "type": "address"
        },
        {
          "internalType": "uint256",
          "name": "amount",
          "type": "uint256"
        }
      ],
      "name": "burn",
      "outputs": [],
      "stateMutability": "nonpayable",
      "type": "function"
    },
    {
      "inputs": [
        {
          "internalType": "address",
          "name": "account",
          "type": "address"
        },
        {
          "internalType": "uint256",
          "name": "amount",
          "type": "uint256"
        }
      ],
      "name": "burnFrom",
      "outputs": [],
      "stateMutability": "nonpayable",
      "type": "function"
    },
    {
      "inputs": [],
      "name": "decimals",
      "outputs": [
        {
          "internalType": "uint8",
          "name": "",
          "type": "uint8"
        }
      ],
      "stateMutability": "view",
      "type": "function"
    },
    {
      "inputs": [
        {
          "internalType": "address",
          "name": "spender",
          "type": "address"
        },
        {
          "internalType": "uint256",
          "name": "subtractedValue",
          "type": "uint256"
        }
      ],
      "name": "decreaseAllowance",
      "outputs": [
        {
          "internalType": "bool",
          "name": "",
          "type": "bool"
        }
      ],
      "stateMutability": "nonpayable",
      "type": "function"
    },
    {
      "inputs": [
        {
          "internalType": "bytes32",
          "name": "role",
          "type": "bytes32"
        }
      ],
      "name": "getRoleAdmin",
      "outputs": [
        {
          "internalType": "bytes32",
          "name": "",
          "type": "bytes32"
        }
      ],
      "stateMutability": "view",
      "type": "function"
    },
    {
      "inputs": [
        {
          "internalType": "bytes32",
          "name": "role",
          "type": "bytes32"
        },
        {
          "internalType": "address",
          "name": "account",
          "type": "address"
        }
      ],
      "name": "grantRole",
      "outputs": [],
      "stateMutability": "nonpayable",
      "type": "function"
    },
    {
      "inputs": [
        {
          "internalType": "bytes32",
          "name": "role",
          "type": "bytes32"
        },
        {
          "internalType": "address",
          "name": "account",
          "type": "address"
        }
      ],
      "name": "hasRole",
      "outputs": [
        {
          "internalType": "bool",
          "name": "",
          "type": "bool"
        }
      ],
      "stateMutability": "view",
      "type": "function"
    },
    {
      "inputs": [
        {
          "internalType": "address",
          "name": "spender",
          "type": "address"
        },
        {
          "internalType": "uint256",
          "name": "addedValue",
          "type": "uint256"
        }
      ],
      "name": "increaseAllowance",
      "outputs": [
        {
          "internalType": "bool",
          "name": "",
          "type": "bool"
        }
      ],
      "stateMutability": "nonpayable",
      "type": "function"
    },
    {
      "inputs": [
        {
          "internalType": "address",
          "name": "account",
          "type": "address"
        },
        {
          "internalType": "uint256",
          "name": "amount",
          "type": "uint256"
        }
      ],
      "name": "mint",
      "outputs": [],
      "stateMutability": "nonpayable",
      "type": "function"
    },
    {
      "inputs": [],
      "name": "name",
      "outputs": [
        {
          "internalType": "string",
          "name": "",
          "type": "string"
        }
      ],
      "stateMutability": "view",
      "type": "function"
    },
    {
      "inputs": [],
      "name": "omniChainERC20Contract",
      "outputs": [
        {
          "internalType": "address",
          "name": "",
          "type": "address"
        }
      ],
      "stateMutability": "view",
      "type": "function"
    },
    {
      "inputs": [
        {
          "internalType": "bytes32",
          "name": "role",
          "type": "bytes32"
        },
        {
          "internalType": "address",
          "name": "account",
          "type": "address"
        }
      ],
      "name": "renounceRole",
      "outputs": [],
      "stateMutability": "nonpayable",
      "type": "function"
    },
    {
      "inputs": [
        {
          "internalType": "bytes32",
          "name": "role",
          "type": "bytes32"
        },
        {
          "internalType": "address",
          "name": "account",
          "type": "address"
        }
      ],
      "name": "revokeRole",
      "outputs": [],
      "stateMutability": "nonpayable",
      "type": "function"
    },
    {
      "inputs": [
        {
          "internalType": "address",
          "name": "_omniChainToERC20Contract",
          "type": "address"
        }
      ],
      "name": "setOmniChainContract",
      "outputs": [],
      "stateMutability": "nonpayable",
      "type": "function"
    },
    {
      "inputs": [
        {
          "internalType": "bytes4",
          "name": "interfaceId",
          "type": "bytes4"
        }
      ],
      "name": "supportsInterface",
      "outputs": [
        {
          "internalType": "bool",
          "name": "",
          "type": "bool"
        }
      ],
      "stateMutability": "view",
      "type": "function"
    },
    {
      "inputs": [],
      "name": "symbol",
      "outputs": [
        {
          "internalType": "string",
          "name": "",
          "type": "string"
        }
      ],
      "stateMutability": "view",
      "type": "function"
    },
    {
      "inputs": [],
      "name": "totalSupply",
      "outputs": [
        {
          "internalType": "uint256",
          "name": "",
          "type": "uint256"
        }
      ],
      "stateMutability": "view",
      "type": "function"
    },
    {
      "inputs": [
        {
          "internalType": "address",
          "name": "to",
          "type": "address"
        },
        {
          "internalType": "uint256",
          "name": "amount",
          "type": "uint256"
        }
      ],
      "name": "transfer",
      "outputs": [
        {
          "internalType": "bool",
          "name": "",
          "type": "bool"
        }
      ],
      "stateMutability": "nonpayable",
      "type": "function"
    },
    {
      "inputs": [
        {
          "internalType": "address",
          "name": "from",
          "type": "address"
        },
        {
          "internalType": "address",
          "name": "to",
          "type": "address"
        },
        {
          "internalType": "uint256",
          "name": "amount",
          "type": "uint256"
        }
      ],
      "name": "transferFrom",
      "outputs": [
        {
          "internalType": "bool",
          "name": "",
          "type": "bool"
        }
      ],
      "stateMutability": "nonpayable",
      "type": "function"
    }
  ],
  "bytecode": "0x60406080815234620004b75762001a5490813803806200001f81620004bc565b9384398201606083820312620004b75782516001600160401b0390818111620004b7578262000050918601620004e2565b60209283860151838111620004b75785916200006e918801620004e2565b9501519160ff8316809303620004b757815190808211620003b7576003908154926001948585811c95168015620004ac575b8886101462000496578190601f9586811162000440575b508890868311600114620003d957600092620003cd575b505060001982851b1c191690851b1782555b8751908111620003b75760049182548581811c91168015620003ac575b8882101462000397578481116200034c575b5086848311600114620002de578293949596979899600093620002d2575b505082861b92600019911b1c19161781555b60ff199380856006541617600655604d8111620002bd57600a0a91629896809280840293840403620002bd5733156200027b575060025490828201809211620002665750600255336000526000845284600020818154019055845190815260007fddf252ad1be2c89b69c2b068fc378daa952ba7f163c4a11628f55a4df523b3ef853393a37fa49807205ce4d355092ef5a8a18f56e8913cf4a201fbe287825b095693c217759283600052600581528460002033600052815260ff8560002054161562000216575b84516114ff9081620005558239f35b8360005260058152846000209033600052528360002091825416179055339033907f2f8788117e7eff1d82e926ec794901d17c78024a50270940304540a733656f0d600080a43880808062000207565b601190634e487b7160e01b6000525260246000fd5b865162461bcd60e51b815291820186905260248201527f45524332303a206d696e7420746f20746865207a65726f206164647265737300604482015260649150fd5b601182634e487b7160e01b6000525260246000fd5b0151915038806200012d565b90601f1983169184600052886000209260005b8181106200033657509a8488999a9b9c98969798106200031b575b50505050811b0181556200013f565b01519060f884600019921b161c19169055388080806200030c565b8c830151855593880193918a01918a01620002f1565b83600052876000208580850160051c8201928a86106200038d575b0160051c019086905b828110620003805750506200010f565b6000815501869062000370565b9250819262000367565b602284634e487b7160e01b6000525260246000fd5b90607f1690620000fd565b634e487b7160e01b600052604160045260246000fd5b015190503880620000ce565b90879350601f19831691866000528a6000209260005b8c82821062000429575050841162000410575b505050811b018255620000e0565b015160001983871b60f8161c1916905538808062000402565b8385015186558b97909501949384019301620003ef565b90915084600052886000208680850160051c8201928b86106200048c575b918991869594930160051c01915b8281106200047c575050620000b7565b600081558594508991016200046c565b925081926200045e565b634e487b7160e01b600052602260045260246000fd5b94607f1694620000a0565b600080fd5b6040519190601f01601f191682016001600160401b03811183821017620003b757604052565b919080601f84011215620004b75782516001600160401b038111620003b75760209062000518601f8201601f19168301620004bc565b92818452828287010111620004b75760005b8181106200054057508260009394955001015290565b85810183015184820184015282016200052a56fe608060408181526004918236101561001657600080fd5b600092833560e01c91826219247614610bf65750816301ffc9a714610ba057816306fdde0314610aab578163095ea7b314610a8157816318160ddd14610a6257816323b872dd14610a25578163248a9ca3146109fa5781632768b466146107825781632f2ff15d146106d5578163313ce567146106b357816336568abe1461062157816339509351146105d157816340c10f191461050057816342966c68146104e257816370a08231146104ab57816375b238fc1461047057816379cc67901461044057816391d14854146103f957816395d89b41146102f65781639dc29fac146102b9578163a217fddf1461029e578163a457c2d7146101f6578163a9059cbb146101c5578163d547741f14610182575063dd62ed3e1461013757600080fd5b3461017e578060031936011261017e5780602092610153610c6d565b61015b610c88565b6001600160a01b0391821683526001865283832091168252845220549051908152f35b5080fd5b919050346101c157806003193601126101c1576101be91356101b960016101a7610c88565b93838752600560205286200154610c9e565b610e9f565b80f35b8280fd5b50503461017e578060031936011261017e576020906101ef6101e5610c6d565b6024359033610f38565b5160018152f35b9050823461029b578260031936011261029b57610211610c6d565b918360243592338152600160205281812060018060a01b038616825260205220549082821061024a576020856101ef85850387336110a6565b608490602086519162461bcd60e51b8352820152602560248201527f45524332303a2064656372656173656420616c6c6f77616e63652062656c6f77604482015264207a65726f60d81b6064820152fd5b80fd5b50503461017e578160031936011261017e5751908152602090f35b50503461017e5736600319011261029b576101be6102d5610c6d565b6102ed60018060a01b0360065460081c16331461147d565b60243590611240565b83833461017e578160031936011261017e57805191809380549160019083821c928285169485156103ef575b60209586861081146103dc578589529081156103b85750600114610360575b61035c8787610352828c0383610e7d565b5191829182610c41565b0390f35b81529295507f8a35acfbc15ff81a39ae7d344fd709f28e8600b4aa8c65c6b64bfe7fe36bd19b5b8284106103a5575050508261035c9461035292820101948680610341565b8054868501880152928601928101610387565b60ff19168887015250505050151560051b83010192506103528261035c8680610341565b634e487b7160e01b845260228352602484fd5b93607f1693610322565b9050346101c157816003193601126101c1578160209360ff9261041a610c88565b90358252600586528282206001600160a01b039091168252855220549151911615158152f35b50503461017e5736600319011261029b576101be61045c610c6d565b6024359061046b8233836111a8565b611240565b50503461017e578160031936011261017e57602090517fa49807205ce4d355092ef5a8a18f56e8913cf4a201fbe287825b095693c217758152f35b50503461017e57602036600319011261017e5760209181906001600160a01b036104d3610c6d565b16815280845220549051908152f35b83903461017e57602036600319011261017e576101be903533611240565b919050346101c157806003193601126101c15761051b610c6d565b906024359160018060a01b039061053a8260065460081c16331461147d565b1692831561058f57506020827fddf252ad1be2c89b69c2b068fc378daa952ba7f163c4a11628f55a4df523b3ef926105758795600254610f15565b60025585855284835280852082815401905551908152a380f35b6020606492519162461bcd60e51b8352820152601f60248201527f45524332303a206d696e7420746f20746865207a65726f2061646472657373006044820152fd5b50503461017e578060031936011261017e576101ef60209261061a6105f4610c6d565b338352600186528483206001600160a01b03821684528652918490205460243590610f15565b90336110a6565b8391503461017e578260031936011261017e5761063c610c88565b90336001600160a01b0383160361065857906101be9135610e9f565b608490602085519162461bcd60e51b8352820152602f60248201527f416363657373436f6e74726f6c3a2063616e206f6e6c792072656e6f756e636560448201526e103937b632b9903337b91039b2b63360891b6064820152fd5b50503461017e578160031936011261017e5760209060ff600654169051908152f35b9050346101c157816003193601126101c15735906106f1610c88565b90828452600560205261070960018286200154610c9e565b828452600560209081528185206001600160a01b039093168086529290528084205460ff1615610737578380f35b82845260056020528084208285526020528320600160ff1982541617905533917f2f8788117e7eff1d82e926ec794901d17c78024a50270940304540a733656f0d8480a43880808380f35b8391503461017e57602090816003193601126101c1576107a0610c6d565b907fa49807205ce4d355092ef5a8a18f56e8913cf4a201fbe287825b095693c2177580855260058452858520338652845260ff86862054161561083857505060068054610100600160a81b031916600883901b610100600160a81b031617905592516001600160a01b03909316835290917fef09750c4f6ebcf4347af5580f900743cf23bc6ea6784c551f8c8e2439ba7fa79190a180f35b909391506108453361136e565b85519161085183610e4b565b604283528483019360603686378351156109e757603085538351906001918210156109d45790607860218601536041915b818311610969575050506109275761092393869361090f936109006048946108d79a519a8576020b1b1b2b9b9a1b7b73a3937b61d1030b1b1b7bab73a1604d1b8d978801528251928391603789019101610c1e565b8401917001034b99036b4b9b9b4b733903937b6329607d1b603784015251809386840190610c1e565b01036028810187520185610e7d565b5162461bcd60e51b81529283928301610c41565b0390fd5b50505080606493519262461bcd60e51b845283015260248201527f537472696e67733a20686578206c656e67746820696e73756666696369656e746044820152fd5b909192600f811660108110156109c1576f181899199a1a9b1b9c1cb0b131b232b360811b901a6109998588611347565b53881c9280156109ae57600019019190610882565b634e487b7160e01b825260118952602482fd5b634e487b7160e01b835260328a52602483fd5b634e487b7160e01b815260328852602490fd5b634e487b7160e01b815260328752602490fd5b9050346101c15760203660031901126101c15781602093600192358152600585522001549051908152f35b50503461017e57606036600319011261017e576020906101ef610a46610c6d565b610a4e610c88565b60443591610a5d8333836111a8565b610f38565b50503461017e578160031936011261017e576020906002549051908152f35b50503461017e578060031936011261017e576020906101ef610aa1610c6d565b60243590336110a6565b919050346101c157826003193601126101c157805191836003549060019082821c928281168015610b96575b6020958686108214610b835750848852908115610b615750600114610b08575b61035c8686610352828b0383610e7d565b929550600383527fc2575a0e9e593c00f959f8c92f12db2869c3395a3b0502d05e2516446f71f85b5b828410610b4e575050508261035c94610352928201019438610af7565b8054868501880152928601928101610b31565b60ff191687860152505050151560051b83010192506103528261035c38610af7565b634e487b7160e01b845260229052602483fd5b93607f1693610ad7565b9050346101c15760203660031901126101c157359063ffffffff60e01b82168092036101c15760209250637965db0b60e01b8214918215610be5575b50519015158152f35b6301ffc9a760e01b14915038610bdc565b84903461017e578160031936011261017e5760065460081c6001600160a01b03168152602090f35b60005b838110610c315750506000910152565b8181015183820152602001610c21565b60409160208252610c618151809281602086015260208686019101610c1e565b601f01601f1916010190565b600435906001600160a01b0382168203610c8357565b600080fd5b602435906001600160a01b0382168203610c8357565b600081815260209060058252604092838220338352835260ff848320541615610cc75750505050565b610cd03361136e565b845191610cdc83610e4b565b60428352848301936060368637835115610e375760308553835190600191821015610e375790607860218601536041915b818311610dc957505050610d87576108d7938593610d7193610d626048946109239951988576020b1b1b2b9b9a1b7b73a3937b61d1030b1b1b7bab73a1604d1b8b978801528251928391603789019101610c1e565b01036028810185520183610e7d565b5162461bcd60e51b815291829160048301610c41565b60648486519062461bcd60e51b825280600483015260248201527f537472696e67733a20686578206c656e67746820696e73756666696369656e746044820152fd5b909192600f81166010811015610e23576f181899199a1a9b1b9c1cb0b131b232b360811b901a610df98588611347565b5360041c928015610e0f57600019019190610d0d565b634e487b7160e01b82526011600452602482fd5b634e487b7160e01b83526032600452602483fd5b634e487b7160e01b81526032600452602490fd5b6080810190811067ffffffffffffffff821117610e6757604052565b634e487b7160e01b600052604160045260246000fd5b90601f8019910116810190811067ffffffffffffffff821117610e6757604052565b906000918083526005602052604083209160018060a01b03169182845260205260ff604084205416610ed057505050565b8083526005602052604083208284526020526040832060ff1981541690557ff6391f5c32d9c69d2a47ea670b442974b53935d1edc7fd64eb21e047a839171b339380a4565b91908201809211610f2257565b634e487b7160e01b600052601160045260246000fd5b6001600160a01b03908116918215611053571691821561100257600082815280602052604081205491808310610fae57604082827fddf252ad1be2c89b69c2b068fc378daa952ba7f163c4a11628f55a4df523b3ef958760209652828652038282205586815220818154019055604051908152a3565b60405162461bcd60e51b815260206004820152602660248201527f45524332303a207472616e7366657220616d6f756e7420657863656564732062604482015265616c616e636560d01b6064820152608490fd5b60405162461bcd60e51b815260206004820152602360248201527f45524332303a207472616e7366657220746f20746865207a65726f206164647260448201526265737360e81b6064820152608490fd5b60405162461bcd60e51b815260206004820152602560248201527f45524332303a207472616e736665722066726f6d20746865207a65726f206164604482015264647265737360d81b6064820152608490fd5b6001600160a01b0390811691821561115757169182156111075760207f8c5be1e5ebec7d5bd14f71427d1e84f3dd0314c0f7b2291e5b200ac8c7c3b925918360005260018252604060002085600052825280604060002055604051908152a3565b60405162461bcd60e51b815260206004820152602260248201527f45524332303a20617070726f766520746f20746865207a65726f206164647265604482015261737360f01b6064820152608490fd5b60405162461bcd60e51b8152602060048201526024808201527f45524332303a20617070726f76652066726f6d20746865207a65726f206164646044820152637265737360e01b6064820152608490fd5b9060018060a01b03808316600052600160205260406000209082166000526020526040600020549260001984036111e0575b50505050565b8084106111fb576111f29303916110a6565b388080806111da565b60405162461bcd60e51b815260206004820152601d60248201527f45524332303a20696e73756666696369656e7420616c6c6f77616e63650000006044820152606490fd5b6001600160a01b031680156112f8576000918183528260205260408320548181106112a857817fddf252ad1be2c89b69c2b068fc378daa952ba7f163c4a11628f55a4df523b3ef926020928587528684520360408620558060025403600255604051908152a3565b60405162461bcd60e51b815260206004820152602260248201527f45524332303a206275726e20616d6f756e7420657863656564732062616c616e604482015261636560f01b6064820152608490fd5b60405162461bcd60e51b815260206004820152602160248201527f45524332303a206275726e2066726f6d20746865207a65726f206164647265736044820152607360f81b6064820152608490fd5b908151811015611358570160200190565b634e487b7160e01b600052603260045260246000fd5b604051906060820182811067ffffffffffffffff821117610e6757604052602a82526020820160403682378251156113585760309053815160019081101561135857607860218401536029905b80821161140f5750506113cb5790565b606460405162461bcd60e51b815260206004820152602060248201527f537472696e67733a20686578206c656e67746820696e73756666696369656e746044820152fd5b9091600f81166010811015611468576f181899199a1a9b1b9c1cb0b131b232b360811b901a61143e8486611347565b5360041c9180156114535760001901906113bb565b60246000634e487b7160e01b81526011600452fd5b60246000634e487b7160e01b81526032600452fd5b1561148457565b60405162461bcd60e51b815260206004820152601c60248201527f58546f6b656e436f6e74726163743a20556e617574686f72697a6564000000006044820152606490fdfea2646970667358221220481178aacf8fe1214a0f2fba8cb0643441b032c6b156183cf6fe99a89290c67b64736f6c63430008130033",
  "linkReferences": {},
  "deployedLinkReferences": {}
}