{
  "_format": "hh-sol-artifact-1",
  "contractName": "CrossChainERC20Token",
  "sourceName": "contracts/rollupEndToEnd/CrossChainERC20Token.sol",
  "abi": [
    {
      "inputs": [
        {
          "internalType": "string",
          "name": "name_",
          "type": "string"
        },
        {
          "internalType": "string",
          "name": "symbol_",
          "type": "string"
        },
        {
          "internalType": "address",
          "name": "stateSender_",
          "type": "address"
        }
      ],
      "stateMutability": "nonpayable",
      "type": "constructor"
    },
    {
      "anonymous": false,
      "inputs": [
        {
          "indexed": true,
          "internalType": "address",
          "name": "owner",
          "type": "address"
        },
        {
          "indexed": true,
          "internalType": "address",
          "name": "spender",
          "type": "address"
        },
        {
          "indexed": false,
          "internalType": "uint256",
          "name": "value",
          "type": "uint256"
        }
      ],
      "name": "Approval",
      "type": "event"
    },
    {
      "anonymous": false,
      "inputs": [
        {
          "indexed": true,
          "internalType": "address",
          "name": "user",
          "type": "address"
        },
        {
          "indexed": false,
          "internalType": "uint256",
          "name": "amount",
          "type": "uint256"
        },
        {
          "indexed": false,
          "internalType": "uint256",
          "name": "depositId",
          "type": "uint256"
        }
      ],
      "name": "Deposit",
      "type": "event"
    },
    {
      "anonymous": false,
      "inputs": [
        {
          "indexed": true,
          "internalType": "address",
          "name": "newDojimaWrappedContract",
          "type": "address"
        }
      ],
      "name": "DojimaWrappedContractUpdated",
      "type": "event"
    },
    {
      "anonymous": false,
      "inputs": [
        {
          "indexed": true,
          "internalType": "bytes32",
          "name": "role",
          "type": "bytes32"
        },
        {
          "indexed": true,
          "internalType": "bytes32",
          "name": "previousAdminRole",
          "type": "bytes32"
        },
        {
          "indexed": true,
          "internalType": "bytes32",
          "name": "newAdminRole",
          "type": "bytes32"
        }
      ],
      "name": "RoleAdminChanged",
      "type": "event"
    },
    {
      "anonymous": false,
      "inputs": [
        {
          "indexed": true,
          "internalType": "bytes32",
          "name": "role",
          "type": "bytes32"
        },
        {
          "indexed": true,
          "internalType": "address",
          "name": "account",
          "type": "address"
        },
        {
          "indexed": true,
          "internalType": "address",
          "name": "sender",
          "type": "address"
        }
      ],
      "name": "RoleGranted",
      "type": "event"
    },
    {
      "anonymous": false,
      "inputs": [
        {
          "indexed": true,
          "internalType": "bytes32",
          "name": "role",
          "type": "bytes32"
        },
        {
          "indexed": true,
          "internalType": "address",
          "name": "account",
          "type": "address"
        },
        {
          "indexed": true,
          "internalType": "address",
          "name": "sender",
          "type": "address"
        }
      ],
      "name": "RoleRevoked",
      "type": "event"
    },
    {
      "anonymous": false,
      "inputs": [
        {
          "indexed": true,
          "internalType": "address",
          "name": "newStateSender",
          "type": "address"
        }
      ],
      "name": "StateSenderUpdated",
      "type": "event"
    },
    {
      "anonymous": false,
      "inputs": [
        {
          "indexed": true,
          "internalType": "address",
          "name": "from",
          "type": "address"
        },
        {
          "indexed": true,
          "internalType": "address",
          "name": "to",
          "type": "address"
        },
        {
          "indexed": false,
          "internalType": "uint256",
          "name": "value",
          "type": "uint256"
        }
      ],
      "name": "Transfer",
      "type": "event"
    },
    {
      "anonymous": false,
      "inputs": [
        {
          "indexed": true,
          "internalType": "address",
          "name": "user",
          "type": "address"
        },
        {
          "indexed": false,
          "internalType": "uint256",
          "name": "amount",
          "type": "uint256"
        },
        {
          "indexed": false,
          "internalType": "uint256",
          "name": "depositId",
          "type": "uint256"
        }
      ],
      "name": "Withdrawal",
      "type": "event"
    },
    {
      "inputs": [],
      "name": "ADMIN_ROLE",
      "outputs": [
        {
          "internalType": "bytes32",
          "name": "",
          "type": "bytes32"
        }
      ],
      "stateMutability": "view",
      "type": "function"
    },
    {
      "inputs": [],
      "name": "DEFAULT_ADMIN_ROLE",
      "outputs": [
        {
          "internalType": "bytes32",
          "name": "",
          "type": "bytes32"
        }
      ],
      "stateMutability": "view",
      "type": "function"
    },
    {
      "inputs": [],
      "name": "EXECUTE_STATE_ROLE",
      "outputs": [
        {
          "internalType": "bytes32",
          "name": "",
          "type": "bytes32"
        }
      ],
      "stateMutability": "view",
      "type": "function"
    },
    {
      "inputs": [
        {
          "internalType": "address",
          "name": "owner",
          "type": "address"
        },
        {
          "internalType": "address",
          "name": "spender",
          "type": "address"
        }
      ],
      "name": "allowance",
      "outputs": [
        {
          "internalType": "uint256",
          "name": "",
          "type": "uint256"
        }
      ],
      "stateMutability": "view",
      "type": "function"
    },
    {
      "inputs": [
        {
          "internalType": "address",
          "name": "spender",
          "type": "address"
        },
        {
          "internalType": "uint256",
          "name": "amount",
          "type": "uint256"
        }
      ],
      "name": "approve",
      "outputs": [
        {
          "internalType": "bool",
          "name": "",
          "type": "bool"
        }
      ],
      "stateMutability": "nonpayable",
      "type": "function"
    },
    {
      "inputs": [
        {
          "internalType": "address",
          "name": "account",
          "type": "address"
        }
      ],
      "name": "balanceOf",
      "outputs": [
        {
          "internalType": "uint256",
          "name": "",
          "type": "uint256"
        }
      ],
      "stateMutability": "view",
      "type": "function"
    },
    {
      "inputs": [
        {
          "internalType": "address",
          "name": "account",
          "type": "address"
        }
      ],
      "name": "crossChainBalanceOf",
      "outputs": [
        {
          "internalType": "uint256",
          "name": "",
          "type": "uint256"
        }
      ],
      "stateMutability": "view",
      "type": "function"
    },
    {
      "inputs": [],
      "name": "decimals",
      "outputs": [
        {
          "internalType": "uint8",
          "name": "",
          "type": "uint8"
        }
      ],
      "stateMutability": "view",
      "type": "function"
    },
    {
      "inputs": [
        {
          "internalType": "address",
          "name": "spender",
          "type": "address"
        },
        {
          "internalType": "uint256",
          "name": "subtractedValue",
          "type": "uint256"
        }
      ],
      "name": "decreaseAllowance",
      "outputs": [
        {
          "internalType": "bool",
          "name": "",
          "type": "bool"
        }
      ],
      "stateMutability": "nonpayable",
      "type": "function"
    },
    {
      "inputs": [
        {
          "internalType": "uint256",
          "name": "amount",
          "type": "uint256"
        }
      ],
      "name": "deposit",
      "outputs": [],
      "stateMutability": "payable",
      "type": "function"
    },
    {
      "inputs": [],
      "name": "depositIdCounter",
      "outputs": [
        {
          "internalType": "uint256",
          "name": "",
          "type": "uint256"
        }
      ],
      "stateMutability": "view",
      "type": "function"
    },
    {
      "inputs": [
        {
          "internalType": "uint256",
          "name": "amount",
          "type": "uint256"
        },
        {
          "internalType": "address",
          "name": "user",
          "type": "address"
        }
      ],
      "name": "depositToAddress",
      "outputs": [],
      "stateMutability": "payable",
      "type": "function"
    },
    {
      "inputs": [
        {
          "internalType": "uint256",
          "name": "",
          "type": "uint256"
        }
      ],
      "name": "deposits",
      "outputs": [
        {
          "internalType": "bytes32",
          "name": "depositHash",
          "type": "bytes32"
        },
        {
          "internalType": "uint256",
          "name": "createdAt",
          "type": "uint256"
        },
        {
          "internalType": "uint256",
          "name": "amount",
          "type": "uint256"
        }
      ],
      "stateMutability": "view",
      "type": "function"
    },
    {
      "inputs": [],
      "name": "dojimaWrappedContractAddress",
      "outputs": [
        {
          "internalType": "address",
          "name": "",
          "type": "address"
        }
      ],
      "stateMutability": "view",
      "type": "function"
    },
    {
      "inputs": [
        {
          "internalType": "uint256",
          "name": "id",
          "type": "uint256"
        },
        {
          "internalType": "bytes",
          "name": "data",
          "type": "bytes"
        }
      ],
      "name": "executeState",
      "outputs": [
        {
          "internalType": "bool",
          "name": "success",
          "type": "bool"
        }
      ],
      "stateMutability": "nonpayable",
      "type": "function"
    },
    {
      "inputs": [
        {
          "internalType": "bytes32",
          "name": "role",
          "type": "bytes32"
        }
      ],
      "name": "getRoleAdmin",
      "outputs": [
        {
          "internalType": "bytes32",
          "name": "",
          "type": "bytes32"
        }
      ],
      "stateMutability": "view",
      "type": "function"
    },
    {
      "inputs": [
        {
          "internalType": "bytes32",
          "name": "role",
          "type": "bytes32"
        },
        {
          "internalType": "address",
          "name": "account",
          "type": "address"
        }
      ],
      "name": "grantRole",
      "outputs": [],
      "stateMutability": "nonpayable",
      "type": "function"
    },
    {
      "inputs": [
        {
          "internalType": "bytes32",
          "name": "role",
          "type": "bytes32"
        },
        {
          "internalType": "address",
          "name": "account",
          "type": "address"
        }
      ],
      "name": "hasRole",
      "outputs": [
        {
          "internalType": "bool",
          "name": "",
          "type": "bool"
        }
      ],
      "stateMutability": "view",
      "type": "function"
    },
    {
      "inputs": [],
      "name": "inboundStateSender",
      "outputs": [
        {
          "internalType": "contract IInboundStateSender",
          "name": "",
          "type": "address"
        }
      ],
      "stateMutability": "view",
      "type": "function"
    },
    {
      "inputs": [
        {
          "internalType": "address",
          "name": "spender",
          "type": "address"
        },
        {
          "internalType": "uint256",
          "name": "addedValue",
          "type": "uint256"
        }
      ],
      "name": "increaseAllowance",
      "outputs": [
        {
          "internalType": "bool",
          "name": "",
          "type": "bool"
        }
      ],
      "stateMutability": "nonpayable",
      "type": "function"
    },
    {
      "inputs": [],
      "name": "name",
      "outputs": [
        {
          "internalType": "string",
          "name": "",
          "type": "string"
        }
      ],
      "stateMutability": "view",
      "type": "function"
    },
    {
      "inputs": [
        {
          "internalType": "bytes32",
          "name": "role",
          "type": "bytes32"
        },
        {
          "internalType": "address",
          "name": "account",
          "type": "address"
        }
      ],
      "name": "renounceRole",
      "outputs": [],
      "stateMutability": "nonpayable",
      "type": "function"
    },
    {
      "inputs": [
        {
          "internalType": "bytes32",
          "name": "role",
          "type": "bytes32"
        },
        {
          "internalType": "address",
          "name": "account",
          "type": "address"
        }
      ],
      "name": "revokeRole",
      "outputs": [],
      "stateMutability": "nonpayable",
      "type": "function"
    },
    {
      "inputs": [
        {
          "internalType": "bytes4",
          "name": "interfaceId",
          "type": "bytes4"
        }
      ],
      "name": "supportsInterface",
      "outputs": [
        {
          "internalType": "bool",
          "name": "",
          "type": "bool"
        }
      ],
      "stateMutability": "view",
      "type": "function"
    },
    {
      "inputs": [],
      "name": "symbol",
      "outputs": [
        {
          "internalType": "string",
          "name": "",
          "type": "string"
        }
      ],
      "stateMutability": "view",
      "type": "function"
    },
    {
      "inputs": [],
      "name": "totalSupply",
      "outputs": [
        {
          "internalType": "uint256",
          "name": "",
          "type": "uint256"
        }
      ],
      "stateMutability": "view",
      "type": "function"
    },
    {
      "inputs": [
        {
          "internalType": "address",
          "name": "recipient",
          "type": "address"
        },
        {
          "internalType": "uint256",
          "name": "amount",
          "type": "uint256"
        }
      ],
      "name": "transfer",
      "outputs": [
        {
          "internalType": "bool",
          "name": "",
          "type": "bool"
        }
      ],
      "stateMutability": "nonpayable",
      "type": "function"
    },
    {
      "inputs": [
        {
          "internalType": "address",
          "name": "sender",
          "type": "address"
        },
        {
          "internalType": "address",
          "name": "recipient",
          "type": "address"
        },
        {
          "internalType": "uint256",
          "name": "amount",
          "type": "uint256"
        }
      ],
      "name": "transferFrom",
      "outputs": [
        {
          "internalType": "bool",
          "name": "",
          "type": "bool"
        }
      ],
      "stateMutability": "nonpayable",
      "type": "function"
    },
    {
      "inputs": [
        {
          "internalType": "address",
          "name": "newDojimaWrappedContract",
          "type": "address"
        }
      ],
      "name": "updateDojimaWrappedContractAddress",
      "outputs": [],
      "stateMutability": "nonpayable",
      "type": "function"
    },
    {
      "inputs": [
        {
          "internalType": "address",
          "name": "newStateSender",
          "type": "address"
        }
      ],
      "name": "updateStateSender",
      "outputs": [],
      "stateMutability": "nonpayable",
      "type": "function"
    }
  ],
  "bytecode": "0x604060808152346200066f57620027ea803803806200001e8162000674565b9283398101906060818303126200066f5780516001600160401b0391908281116200066f5783620000519183016200069a565b91602093848301518281116200066f578691620000709185016200069a565b9201516001600160a01b038116908190036200066f578351918083116200056f5760038054936001968786811c9616801562000664575b898710146200064e578190601f96878111620005f8575b508990878311600114620005915760009262000585575b505060001982841b1c191690871b1781555b84519182116200056f5760049485548781811c9116801562000564575b898210146200054f5790818685949311620004f7575b5088908684116001146200048c5760009362000480575b505082871b92600019911b1c19161783555b83600655801562000423576000805260058086528660002033600052865260ff87600020541615620003e7575b7fa49807205ce4d355092ef5a8a18f56e8913cf4a201fbe287825b095693c21775806000528187528760002033600052875260ff88600020541615620003a9575b507f0e2cff25c9cb02b23af25512a7a858cbf5d880a04ea10d3e9cae237254bdcde590816000528087528760002083600052875260ff886000205416156200036c575b5050600780546001600160a01b03191691909117905533156200032b57506002546a084595161401484a000000908181018091116200031657600255336000526000845284600020818154019055845190815260007fddf252ad1be2c89b69c2b068fc378daa952ba7f163c4a11628f55a4df523b3ef853393a33015620002c857503360005281528160002030600052815260001980836000205582519081527f8c5be1e5ebec7d5bd14f71427d1e84f3dd0314c0f7b2291e5b200ac8c7c3b92530923392a3516120bd90816200070d8239f35b835162461bcd60e51b8152908101839052602260248201527f45524332303a20617070726f766520746f20746865207a65726f206164647265604482015261737360f01b6064820152608490fd5b601183634e487b7160e01b6000525260246000fd5b915091606493519262461bcd60e51b845283015260248201527f45524332303a206d696e7420746f20746865207a65726f2061646472657373006044820152fd5b81600052865286600020826000528652866000208560ff19825416179055813391600080516020620027ca833981519152600080a43880620001f4565b8060005281875287600020336000528752876000208660ff1982541617905533903390600080516020620027ca833981519152600080a438620001b1565b6000805280865286600020336000528652866000208560ff1982541617905533336000600080516020620027ca8339815191528180a462000170565b855162461bcd60e51b8152808401869052603160248201527f457468657265756d45524332303a20537461746553656e64657220616464726560448201527073732063616e6e6f74206265207a65726f60781b6064820152608490fd5b01519150388062000131565b9190889450601f19841692886000528a6000209360005b8c828210620004e05750508511620004c5575b50505050811b01835562000143565b01519060f884600019921b161c1916905538808080620004b6565b8385015187558c98909601959384019301620004a3565b9091925086600052886000208680860160051c8201928b871062000545575b918a9187969594930160051c01915b828110620005355750506200011a565b600081558695508a910162000525565b9250819262000516565b602287634e487b7160e01b6000525260246000fd5b90607f169062000104565b634e487b7160e01b600052604160045260246000fd5b015190503880620000d5565b90899350601f19831691856000528b6000209260005b8d828210620005e15750508411620005c8575b505050811b018155620000e7565b015160001983861b60f8161c19169055388080620005ba565b8385015186558d97909501949384019301620005a7565b90915083600052896000208780850160051c8201928c861062000644575b918b91869594930160051c01915b82811062000634575050620000be565b600081558594508b910162000624565b9250819262000616565b634e487b7160e01b600052602260045260246000fd5b95607f1695620000a7565b600080fd5b6040519190601f01601f191682016001600160401b038111838210176200056f57604052565b919080601f840112156200066f5782516001600160401b0381116200056f57602090620006d0601f8201601f1916830162000674565b928184528282870101116200066f5760005b818110620006f857508260009394955001015290565b8581018301518482018401528201620006e256fe6080604052600436101561001257600080fd5b60003560e01c806301ffc9a7146101f757806306fdde03146101f2578063095ea7b3146101ed57806318160ddd146101e857806323b872dd146101e3578063248a9ca3146101de5780632e7ef558146101d95780632f2ff15d146101d4578063313ce567146101cf57806336568abe146101ca57806339509351146101c5578063518882b7146101c0578063533573fe146101bb57806370a08231146101b657806375b238fc146101b1578063813bc1c6146101ac57806391d14854146101a757806395d89b41146101a25780639afd52fc1461019d5780639b621e1d14610198578063a217fddf14610193578063a457c2d71461018e578063a9059cbb14610189578063b02c43d014610184578063b6b55f251461017f578063bd27c1f41461017a578063d547741f14610175578063dd62ed3e14610170578063de8bc2ea1461016b5763e38f339a1461016657600080fd5b610ff3565b610f1f565b610ec7565b610e88565b610e4e565b610bd3565b610b90565b610b6a565b610abc565b610aa0565b610a77565b610971565b6108ae565b61085c565b6107f0565b6107b5565b61077b565b61075d565b610734565b6106dc565b610648565b61062c565b610563565b61053a565b61050b565b610440565b610422565b6103f1565b6102b9565b3461024d57602036600319011261024d5760043563ffffffff60e01b811680910361024d57602090637965db0b60e01b811490811561023c575b506040519015158152f35b6301ffc9a760e01b14905038610231565b600080fd5b600091031261024d57565b60005b8381106102705750506000910152565b8181015183820152602001610260565b906020916102998151809281855285808601910161025d565b601f01601f1916010190565b9060206102b6928181520190610280565b90565b3461024d576000806003193601126103c25760405190806003549060019180831c928082169283156103b8575b60209283861085146103a4578588526020880194908115610383575060011461032a575b6103268761031a81890382611523565b604051918291826102a5565b0390f35b600360005294509192917fc2575a0e9e593c00f959f8c92f12db2869c3395a3b0502d05e2516446f71f85b5b838610610372575050509101905061031a82610326388061030a565b805485870152948201948101610356565b60ff191685525050505090151560051b01905061031a82610326388061030a565b634e487b7160e01b82526022600452602482fd5b93607f16936102e6565b80fd5b600435906001600160a01b038216820361024d57565b602435906001600160a01b038216820361024d57565b3461024d57604036600319011261024d5761041761040d6103c5565b6024359033611676565b602060405160018152f35b3461024d57600036600319011261024d576020600254604051908152f35b3461024d57606036600319011261024d576104596103c5565b6104616103db565b6001600160a01b0382166000908152600160209081526040808320338452909152902060443591905492600184016104aa575b61049e9350611f50565b60405160018152602090f35b8284106104c6576104c18361049e95033383611676565b610494565b60405162461bcd60e51b815260206004820152601d60248201527f45524332303a20696e73756666696369656e7420616c6c6f77616e63650000006044820152606490fd5b3461024d57602036600319011261024d5760043560005260056020526020600160406000200154604051908152f35b3461024d57600036600319011261024d5760206040516000805160206120688339815191528152f35b3461024d57604036600319011261024d5760043561057f6103db565b600091808352600560205261059a6001604085200154611425565b8083526005602090815260408085206001600160a01b0385166000908152925290205460ff16156105c9578280f35b8083526005602090815260408085206001600160a01b038516600090815292529020805460ff1916600117905533916001600160a01b0316907f2f8788117e7eff1d82e926ec794901d17c78024a50270940304540a733656f0d8480a438808280f35b3461024d57600036600319011261024d57602060405160128152f35b3461024d57604036600319011261024d576106616103db565b336001600160a01b0382160361067f5761067d90600435611619565b005b60405162461bcd60e51b815260206004820152602f60248201527f416363657373436f6e74726f6c3a2063616e206f6e6c792072656e6f756e636560448201526e103937b632b9903337b91039b2b63360891b6064820152608490fd5b3461024d57604036600319011261024d576106f56103c5565b3360009081526001602090815260408083206001600160a01b0385168452909152902054602435810180911161072f576104179133611676565b611645565b3461024d57600036600319011261024d576007546040516001600160a01b039091168152602090f35b3461024d57600036600319011261024d576020600b54604051908152f35b3461024d57602036600319011261024d576001600160a01b0361079c6103c5565b1660005260006020526020604060002054604051908152f35b3461024d57600036600319011261024d5760206040517fa49807205ce4d355092ef5a8a18f56e8913cf4a201fbe287825b095693c217758152f35b3461024d57604036600319011261024d5767ffffffffffffffff60243581811161024d573660238201121561024d57806004013591821161024d57366024838301011161024d5761032691602461084a9201600435611b9d565b60405190151581529081906020820190565b3461024d57604036600319011261024d57602060ff6108a261087c6103db565b6004356000526005845260406000209060018060a01b0316600052602052604060002090565b54166040519015158152f35b3461024d576000806003193601126103c25760405190806004549060019180831c92808216928315610967575b60209283861085146103a4578588526020880194908115610383575060011461090e576103268761031a81890382611523565b600460005294509192917f8a35acfbc15ff81a39ae7d344fd709f28e8600b4aa8c65c6b64bfe7fe36bd19b5b838610610956575050509101905061031a82610326388061030a565b80548587015294820194810161093a565b93607f16936108db565b3461024d57602036600319011261024d5761098a6103c5565b6109926112ee565b6001600160a01b038116908115610a14576109ac90611218565b6007546109d2906109cd906001600160a01b03165b6001600160a01b031690565b611545565b600780546001600160a01b0319166001600160a01b0383161790557f0fc1b5f682346bbaab759a3de2956d0cb978e7f35ec9e0c42cd79ef395e3628a600080a2005b60405162461bcd60e51b815260206004820152603560248201527f457468657265756d45524332303a204e657720537461746553656e64657220616044820152746464726573732063616e6e6f74206265207a65726f60581b6064820152608490fd5b3461024d57600036600319011261024d576008546040516001600160a01b039091168152602090f35b3461024d57600036600319011261024d57602060405160008152f35b3461024d57604036600319011261024d57610ad56103c5565b60243590336000526001602052610b028160406000209060018060a01b0316600052602052604060002090565b5491808310610b175761049e92039033611676565b60405162461bcd60e51b815260206004820152602560248201527f45524332303a2064656372656173656420616c6c6f77616e63652062656c6f77604482015264207a65726f60d81b6064820152608490fd5b3461024d57604036600319011261024d57610417610b866103c5565b6024359033611f50565b3461024d57602036600319011261024d57600435600052600a60205260606040600020805490600260018201549101549060405192835260208301526040820152f35b60208060031936011261024d57600435610beb611b47565b610bf6811515611a2f565b604080516323b872dd60e01b81523360048201523060248201526044810183905292908360648101039382816000968188305af18015610e1857610c41918691610e21575b50611ab7565b336000908152600960205260409020610c5b848254611669565b9055610c70610c6b600b5461165b565b600b55565b8051468382019081523360601b6bffffffffffffffffffffffff191660208201526034810185905290928591610d029085605482010395610cb9601f1997888101835282611523565b519020610cc46117a6565b90815242838201528685820152610ce7600b54600052600a602052604060002090565b90604060029180518455602081015160018501550151910155565b600754610d17906001600160a01b03166109c1565b600854610d78906001600160a01b031695855193610d5985610d4d338483016014916001600160601b03199060601b1681520190565b03838101875286611523565b610d6c600b548a89519788948501611b03565b03908101845283611523565b803b15610e1d57610d9f9483855180978195829463f50aa84b60e01b845260048401611b25565b03925af1908115610e18577f90890809c654f11d6e72a28fa60149770a0d11ec6c92319d6ceb2bb0a4ea1a1592610def92610dff575b50600b549051938452602084015233929081906040820190565b0390a2610dfc6001600655565b80f35b80610e0c610e129261150a565b80610252565b38610dd5565b611aab565b8280fd5b610e419150843d8611610e47575b610e398183611523565b810190611a93565b38610c3b565b503d610e2f565b3461024d57602036600319011261024d576001600160a01b03610e6f6103c5565b1660005260096020526020604060002054604051908152f35b3461024d57604036600319011261024d5761067d600435610ea76103db565b90806000526005602052610ec2600160406000200154611425565b611619565b3461024d57604036600319011261024d576020610f16610ee56103c5565b610eed6103db565b6001600160a01b0391821660009081526001855260408082209290931681526020919091522090565b54604051908152f35b3461024d57602036600319011261024d57610f386103c5565b610f406112ee565b6001600160a01b03168015610f8857600880546001600160a01b031916821790557fcb7f85579d1d1f2a67c32adc4e0ce4860568a96984036ff429e5138e781b7683600080a2005b60405162461bcd60e51b815260206004820152603f60248201527f457468657265756d45524332303a204e657720446f6a696d615772617070656460448201527f436f6e747261637420616464726573732063616e6e6f74206265207a65726f006064820152608490fd5b60408060031936011261024d5760043561100b6103db565b611013611b47565b61101e821515611a2f565b82516323b872dd60e01b815233600482015230602482015260448101839052926020918460648101039483816000978189305af18015610e18576110689187916112015750611ab7565b6001600160a01b038116600090815260096020526040902061108b858254611669565b905561109b610c6b600b5461165b565b84825193611112818601866110d089874685916054939183526001600160601b03199060601b16602083015260348201520190565b03966110e4601f1998898101835282611523565b5190206110ef6117a6565b90815242838201528786820152610ce7600b54600052600a602052604060002090565b600754611127906001600160a01b03166109c1565b600854611170906001600160a01b03169686519361115d85610d4d898483016014916001600160601b03199060601b1681520190565b610d6c600b548b8a519788948501611b03565b803b15610e1d576111979583865180988195829463f50aa84b60e01b845260048401611b25565b03925af1928315610e18577f90890809c654f11d6e72a28fa60149770a0d11ec6c92319d6ceb2bb0a4ea1a15936111ee575b50600b54915193845260208401919091526001600160a01b0316918060408101610def565b80610e0c6111fb9261150a565b386111c9565b610e419150853d8711610e4757610e398183611523565b600080516020612068833981519152600081815260056020527f35659ac7f989260a34271bd98c7490a98c3633530dea95fdcd86ac75d1ad3c8a5490919061125f90611425565b8082526005602090815260408084206001600160a01b0386166000908152925290205460ff161561128f57505050565b8082526005602090815260408084206001600160a01b038616600090815292529020805460ff1916600117905533926001600160a01b0316917f2f8788117e7eff1d82e926ec794901d17c78024a50270940304540a733656f0d9080a4565b3360009081527fd8ef4509105c3edb0b04658b4528edc5ddd30ea5a81e623a2623c88db1eb54b6602052604090205460ff161561132757565b6113cc60486113b46113383361188e565b6113a661134361191f565b6040519485937f416363657373436f6e74726f6c3a206163636f756e7420000000000000000000602086015261138381518092602060378901910161025d565b84017001034b99036b4b9b9b4b733903937b6329607d1b603782015201906114dd565b03601f198101835282611523565b60405162461bcd60e51b8152918291600483016102a5565b0390fd5b3360009081527f35659ac7f989260a34271bd98c7490a98c3633530dea95fdcd86ac75d1ad3c89602052604090205460ff161561140957565b6113cc60486113b461141a3361188e565b6113a66113436119b0565b600081815260056020908152604080832033845290915290205460ff161561144a5750565b6114533361188e565b61145b6117c6565b91603061146784611808565b53607861147384611815565b5360415b60018111611496576113cc60486113b4856113a6886113438815611843565b90600f81169060108210156114d8576114d3916f181899199a1a9b1b9c1cb0b131b232b360811b901a6114c98487611825565b5360041c91611836565b611477565b6117f2565b906114f06020928281519485920161025d565b0190565b634e487b7160e01b600052604160045260246000fd5b67ffffffffffffffff811161151e57604052565b6114f4565b90601f8019910116810190811067ffffffffffffffff82111761151e57604052565b600080516020612068833981519152600081815260056020527f35659ac7f989260a34271bd98c7490a98c3633530dea95fdcd86ac75d1ad3c8a5490919061158c90611425565b8082526005602090815260408084206001600160a01b03861660009081529252902060ff905b54166115bd57505050565b8082526005602090815260408084206001600160a01b038616600090815292529020805460ff1916905533926001600160a01b0316917ff6391f5c32d9c69d2a47ea670b442974b53935d1edc7fd64eb21e047a839171b9080a4565b600090808252600560205260ff6115b284604085209060018060a01b0316600052602052604060002090565b634e487b7160e01b600052601160045260246000fd5b906001820180921161072f57565b9190820180921161072f57565b6001600160a01b03808216929190831561175557821693841561170557806116ef7f8c5be1e5ebec7d5bd14f71427d1e84f3dd0314c0f7b2291e5b200ac8c7c3b925946116d86117009560018060a01b03166000526001602052604060002090565b9060018060a01b0316600052602052604060002090565b556040519081529081906020820190565b0390a3565b60405162461bcd60e51b815260206004820152602260248201527f45524332303a20617070726f766520746f20746865207a65726f206164647265604482015261737360f01b6064820152608490fd5b60405162461bcd60e51b8152602060048201526024808201527f45524332303a20617070726f76652066726f6d20746865207a65726f206164646044820152637265737360e01b6064820152608490fd5b604051906060820182811067ffffffffffffffff82111761151e57604052565b604051906080820182811067ffffffffffffffff82111761151e57604052604282526060366020840137565b634e487b7160e01b600052603260045260246000fd5b8051156114d85760200190565b8051600110156114d85760210190565b9081518110156114d8570160200190565b801561072f576000190190565b1561184a57565b606460405162461bcd60e51b815260206004820152602060248201527f537472696e67733a20686578206c656e67746820696e73756666696369656e746044820152fd5b604051906060820182811067ffffffffffffffff82111761151e57604052602a8252604036602084013760306118c383611808565b5360786118cf83611815565b536029905b600182116118e7576102b6915015611843565b600f81169060108210156114d857611919916f181899199a1a9b1b9c1cb0b131b232b360811b901a6114c98486611825565b906118d4565b7fa49807205ce4d355092ef5a8a18f56e8913cf4a201fbe287825b095693c217756119486117c6565b90603061195483611808565b53607861196083611815565b536041905b60018211611978576102b6915015611843565b600f81169060108210156114d8576119aa916f181899199a1a9b1b9c1cb0b131b232b360811b901a6114c98486611825565b90611965565b6000805160206120688339815191526119c76117c6565b9060306119d383611808565b5360786119df83611815565b536041905b600182116119f7576102b6915015611843565b600f81169060108210156114d857611a29916f181899199a1a9b1b9c1cb0b131b232b360811b901a6114c98486611825565b906119e4565b15611a3657565b60405162461bcd60e51b815260206004820152602f60248201527f457468657265756d45524332303a20416d6f756e74206d75737420626520677260448201526e6561746572207468616e207a65726f60881b6064820152608490fd5b9081602091031261024d5751801515810361024d5790565b6040513d6000823e3d90fd5b15611abe57565b60405162461bcd60e51b815260206004820152601e60248201527f457468657265756d45524332303a205472616e73666572206661696c656400006044820152606490fd5b611b1b60409295949395606083526060830190610280565b9460208201520152565b6001600160a01b0390911681526040602082018190526102b692910190610280565b600260065414611b58576002600655565b60405162461bcd60e51b815260206004820152601f60248201527f5265656e7472616e637947756172643a207265656e7472616e742063616c6c006044820152606490fd5b611bbf611c8392601494611baf611b47565b611bb76113d0565b810190611cfb565b509301516001600160a01b03811693906020908290611bdf871515611d73565b611bea821515611a2f565b306000908152602081905260409020611c07908390541015611dcb565b6001600160a01b0381166000908152600960205260409020611c2d908390541015611e2c565b6001600160a01b0381166000908152600960205260409020611c50838254611e90565b905560405163a9059cbb60e01b81526001600160a01b039091166004820152602481019190915293849081906044820190565b03816000305af1928315610e18577fdf273cb619d95419a9cd0ec88123a0538c85064229baa6363788f743fff90deb93611cc491600091611ce35750611ab7565b604080519182526020820192909252a2600190611ce16001600655565b565b610e41915060203d8111610e4757610e398183611523565b909160608284031261024d5767ffffffffffffffff823581811161024d5783019084601f8301121561024d57813590811161151e5760405190602095611d4a87601f19601f8501160184611523565b81835286828501011161024d578581600092826040960183860137830101529383013592013590565b15611d7a57565b60405162461bcd60e51b815260206004820152602360248201527f457468657265756d45524332303a20496e76616c69642075736572206164647260448201526265737360e81b6064820152608490fd5b15611dd257565b60405162461bcd60e51b815260206004820152602c60248201527f457468657265756d45524332303a20496e73756666696369656e7420636f6e7460448201526b726163742062616c616e636560a01b6064820152608490fd5b15611e3357565b60405162461bcd60e51b815260206004820152602f60248201527f457468657265756d45524332303a20496e73756666696369656e742063726f7360448201526e732d636861696e2062616c616e636560881b6064820152608490fd5b9190820391821161072f57565b15611ea457565b60405162461bcd60e51b815260206004820152602360248201527f45524332303a207472616e7366657220746f20746865207a65726f206164647260448201526265737360e81b6064820152608490fd5b15611efc57565b60405162461bcd60e51b815260206004820152602660248201527f45524332303a207472616e7366657220616d6f756e7420657863656564732062604482015265616c616e636560d01b6064820152608490fd5b916001600160a01b03808416929091831561201457611ffe827fddf252ad1be2c89b69c2b068fc378daa952ba7f163c4a11628f55a4df523b3ef94611700941696611f9c881515611e9d565b611fe384611fbc8360018060a01b03166000526000602052604060002090565b54611fc982821015611ef5565b039160018060a01b03166000526000602052604060002090565b556001600160a01b0316600090815260208190526040902090565b8054820190556040519081529081906020820190565b60405162461bcd60e51b815260206004820152602560248201527f45524332303a207472616e736665722066726f6d20746865207a65726f206164604482015264647265737360d81b6064820152608490fdfe0e2cff25c9cb02b23af25512a7a858cbf5d880a04ea10d3e9cae237254bdcde5a2646970667358221220ecc5e4341a65a764be7d2c0becac7d42082ba9457140a333a32bfc0d196b179564736f6c634300081300332f8788117e7eff1d82e926ec794901d17c78024a50270940304540a733656f0d",
  "linkReferences": {},
  "deployedLinkReferences": {}
}