{
  "_format": "hh-sol-artifact-1",
  "contractName": "VotingContract",
  "sourceName": "contracts/dojimachain/rollups/common/VotingContract.sol",
  "abi": [
    {
      "inputs": [
        {
          "internalType": "address",
          "name": "registryAddress",
          "type": "address"
        }
      ],
      "stateMutability": "nonpayable",
      "type": "constructor"
    },
    {
      "anonymous": false,
      "inputs": [
        {
          "indexed": true,
          "internalType": "bytes32",
          "name": "role",
          "type": "bytes32"
        },
        {
          "indexed": true,
          "internalType": "bytes32",
          "name": "previousAdminRole",
          "type": "bytes32"
        },
        {
          "indexed": true,
          "internalType": "bytes32",
          "name": "newAdminRole",
          "type": "bytes32"
        }
      ],
      "name": "RoleAdminChanged",
      "type": "event"
    },
    {
      "anonymous": false,
      "inputs": [
        {
          "indexed": true,
          "internalType": "bytes32",
          "name": "role",
          "type": "bytes32"
        },
        {
          "indexed": true,
          "internalType": "address",
          "name": "account",
          "type": "address"
        },
        {
          "indexed": true,
          "internalType": "address",
          "name": "sender",
          "type": "address"
        }
      ],
      "name": "RoleGranted",
      "type": "event"
    },
    {
      "anonymous": false,
      "inputs": [
        {
          "indexed": true,
          "internalType": "bytes32",
          "name": "role",
          "type": "bytes32"
        },
        {
          "indexed": true,
          "internalType": "address",
          "name": "account",
          "type": "address"
        },
        {
          "indexed": true,
          "internalType": "address",
          "name": "sender",
          "type": "address"
        }
      ],
      "name": "RoleRevoked",
      "type": "event"
    },
    {
      "anonymous": false,
      "inputs": [
        {
          "indexed": true,
          "internalType": "uint128",
          "name": "rollupID",
          "type": "uint128"
        },
        {
          "indexed": true,
          "internalType": "uint128",
          "name": "withdrawID",
          "type": "uint128"
        },
        {
          "indexed": false,
          "internalType": "bytes32",
          "name": "txHash",
          "type": "bytes32"
        }
      ],
      "name": "VotingStarted",
      "type": "event"
    },
    {
      "anonymous": false,
      "inputs": [
        {
          "indexed": true,
          "internalType": "uint128",
          "name": "rollupID",
          "type": "uint128"
        },
        {
          "indexed": true,
          "internalType": "uint128",
          "name": "withdrawID",
          "type": "uint128"
        },
        {
          "indexed": false,
          "internalType": "bytes32",
          "name": "txHash",
          "type": "bytes32"
        }
      ],
      "name": "VotingStartedBefore",
      "type": "event"
    },
    {
      "inputs": [],
      "name": "DEFAULT_ADMIN_ROLE",
      "outputs": [
        {
          "internalType": "bytes32",
          "name": "",
          "type": "bytes32"
        }
      ],
      "stateMutability": "view",
      "type": "function"
    },
    {
      "inputs": [],
      "name": "STATE_SYNCER_ROLE",
      "outputs": [
        {
          "internalType": "bytes32",
          "name": "",
          "type": "bytes32"
        }
      ],
      "stateMutability": "view",
      "type": "function"
    },
    {
      "inputs": [
        {
          "internalType": "bytes32",
          "name": "role",
          "type": "bytes32"
        }
      ],
      "name": "getRoleAdmin",
      "outputs": [
        {
          "internalType": "bytes32",
          "name": "",
          "type": "bytes32"
        }
      ],
      "stateMutability": "view",
      "type": "function"
    },
    {
      "inputs": [
        {
          "internalType": "bytes32",
          "name": "role",
          "type": "bytes32"
        },
        {
          "internalType": "address",
          "name": "account",
          "type": "address"
        }
      ],
      "name": "grantRole",
      "outputs": [],
      "stateMutability": "nonpayable",
      "type": "function"
    },
    {
      "inputs": [
        {
          "internalType": "bytes32",
          "name": "role",
          "type": "bytes32"
        },
        {
          "internalType": "address",
          "name": "account",
          "type": "address"
        }
      ],
      "name": "hasRole",
      "outputs": [
        {
          "internalType": "bool",
          "name": "",
          "type": "bool"
        }
      ],
      "stateMutability": "view",
      "type": "function"
    },
    {
      "inputs": [
        {
          "internalType": "uint256",
          "name": "",
          "type": "uint256"
        },
        {
          "internalType": "bytes",
          "name": "data",
          "type": "bytes"
        }
      ],
      "name": "onStateReceive",
      "outputs": [],
      "stateMutability": "nonpayable",
      "type": "function"
    },
    {
      "inputs": [],
      "name": "outboundStateSender",
      "outputs": [
        {
          "internalType": "contract IOutboundStateSender",
          "name": "",
          "type": "address"
        }
      ],
      "stateMutability": "view",
      "type": "function"
    },
    {
      "inputs": [],
      "name": "registry",
      "outputs": [
        {
          "internalType": "contract RegistryContract",
          "name": "",
          "type": "address"
        }
      ],
      "stateMutability": "view",
      "type": "function"
    },
    {
      "inputs": [
        {
          "internalType": "bytes32",
          "name": "role",
          "type": "bytes32"
        },
        {
          "internalType": "address",
          "name": "account",
          "type": "address"
        }
      ],
      "name": "renounceRole",
      "outputs": [],
      "stateMutability": "nonpayable",
      "type": "function"
    },
    {
      "inputs": [
        {
          "internalType": "bytes32",
          "name": "role",
          "type": "bytes32"
        },
        {
          "internalType": "address",
          "name": "account",
          "type": "address"
        }
      ],
      "name": "revokeRole",
      "outputs": [],
      "stateMutability": "nonpayable",
      "type": "function"
    },
    {
      "inputs": [
        {
          "internalType": "uint128",
          "name": "",
          "type": "uint128"
        },
        {
          "internalType": "uint256",
          "name": "",
          "type": "uint256"
        }
      ],
      "name": "rollupWithdrawIDs",
      "outputs": [
        {
          "internalType": "uint128",
          "name": "",
          "type": "uint128"
        }
      ],
      "stateMutability": "view",
      "type": "function"
    },
    {
      "inputs": [
        {
          "internalType": "address",
          "name": "_outboundStateSender",
          "type": "address"
        },
        {
          "internalType": "address",
          "name": "_stateSyncerVerifier",
          "type": "address"
        }
      ],
      "name": "setGenesisContracts",
      "outputs": [],
      "stateMutability": "nonpayable",
      "type": "function"
    },
    {
      "inputs": [
        {
          "internalType": "uint128",
          "name": "withdrawID",
          "type": "uint128"
        }
      ],
      "name": "submitDummySignature",
      "outputs": [],
      "stateMutability": "nonpayable",
      "type": "function"
    },
    {
      "inputs": [
        {
          "internalType": "uint128",
          "name": "withdrawID",
          "type": "uint128"
        },
        {
          "internalType": "bytes",
          "name": "signature",
          "type": "bytes"
        }
      ],
      "name": "submitSignature",
      "outputs": [],
      "stateMutability": "nonpayable",
      "type": "function"
    },
    {
      "inputs": [
        {
          "internalType": "bytes4",
          "name": "interfaceId",
          "type": "bytes4"
        }
      ],
      "name": "supportsInterface",
      "outputs": [
        {
          "internalType": "bool",
          "name": "",
          "type": "bool"
        }
      ],
      "stateMutability": "view",
      "type": "function"
    },
    {
      "inputs": [
        {
          "internalType": "uint128",
          "name": "",
          "type": "uint128"
        }
      ],
      "name": "votings",
      "outputs": [
        {
          "internalType": "uint128",
          "name": "withdrawID",
          "type": "uint128"
        },
        {
          "internalType": "uint128",
          "name": "rollupID",
          "type": "uint128"
        },
        {
          "internalType": "bytes32",
          "name": "txHash",
          "type": "bytes32"
        },
        {
          "internalType": "uint256",
          "name": "amount",
          "type": "uint256"
        },
        {
          "internalType": "bytes",
          "name": "recipient",
          "type": "bytes"
        },
        {
          "internalType": "bool",
          "name": "completed",
          "type": "bool"
        }
      ],
      "stateMutability": "view",
      "type": "function"
    }
  ],
  "bytecode": "0x60803461012a57601f611dc638819003918201601f1916830192916001600160401b0384118385101761012f578083926040958652833960209283918101031261012a57516001600160a01b0381169081900361012a576001805580156100e75760018060a01b03196002541617600255600090818052818152828220338352815260ff83832054161561009c575b8251611c8090816101468239f35b818052818152828220338084529152828220805460ff191660011790559081907f2f8788117e7eff1d82e926ec794901d17c78024a50270940304540a733656f0d8180a4388061008e565b50606491519062461bcd60e51b82526004820152601860248201527f496e76616c6964207265676973747279206164647265737300000000000000006044820152fd5b600080fd5b634e487b7160e01b600052604160045260246000fdfe608080604052600436101561001357600080fd5b600090813560e01c90816301ffc9a7146113f157508063248a9ca3146113c557806326c53bea14610d1357806326f6f41914610bf65780632f2ff15d14610b48578063349baa2f14610a7e57806336568abe146109eb5780634dee4498146109b05780635a81dd1b146109875780637b1039991461095e57806383d47e5e146105bb57806391d1485414610570578063a217fddf14610554578063c0c9e35f1461016e578063d547741f1461012e5763f4eafe5a146100d157600080fd5b3461012b57604036600319011261012b576100ea611446565b602435916001600160801b03809216815260056020526040812090815484101561012b575060209261011b916115d3565b9190546040519260031b1c168152f35b80fd5b503461012b57604036600319011261012b5761016b60043561014e61155a565b908084528360205261016660016040862001546115f6565b61176d565b80f35b503461012b57604036600319011261012b57610188611446565b60243567ffffffffffffffff8111610550576101a890369060040161158c565b6003549091906001600160a01b0316156104f7576002600154146104b25760026001556001600160801b03811683526004602052604083209160018301546101f18115156118bd565b60048401549361020460ff861615611918565b600254815460405163726791c160e01b8152608082901c60048201529094918890829060249082906001600160a01b03165afa9081156104a7578891610485575b50516001600160a01b03169081156104475760038301600284015490604051916001600160801b031980891660208501528860801b1660308401528660408401528a9180549061029482611470565b916001811690811561041f57506001146103e2575b5050916102c8602082846102fe966103069896520380845201826114f0565b602081519101207f19457468657265756d205369676e6564204d6573736167653a0a3332000000008b52601c52603c8a20611b83565b919091611a69565b6001600160a01b0316036103a55760046001879660ff19161791015560018060a01b0360035416803b156103a1576040516310a70f2560e21b81526001600160801b0394909416600485015260809290921c6024840152604483015282908290606490829084905af1801561039657610382575b506001805580f35b61038b906114aa565b61012b57803861037a565b6040513d84823e3d90fd5b8480fd5b60405162461bcd60e51b8152602060048201526015602482015274496e76616c696420545353207369676e617475726560581b6044820152606490fd5b909192508b5260208b208b905b8282106104085750508201606001906102c860206102a9565b6001816020925460608589010152019101906103ef565b60ff1916606080880191909152831515909302860190920193506102c89150602090506102a9565b60405162461bcd60e51b8152602060048201526016602482015275496e76616c696420545353207075626c6963206b657960501b6044820152606490fd5b6104a191503d808a833e61049981836114f0565b8101906119d2565b38610245565b6040513d8a823e3d90fd5b60405162461bcd60e51b815260206004820152601f60248201527f5265656e7472616e637947756172643a207265656e7472616e742063616c6c006044820152606490fd5b60405162461bcd60e51b815260206004820152602b60248201527f566f74696e67436f6e74726163743a204f7574626f756e64537461746553656e60448201526a19195c881b9bdd081cd95d60aa1b6064820152608490fd5b8280fd5b503461012b578060031936011261012b57602090604051908152f35b503461012b57604036600319011261012b57604061058c61155a565b91600435815280602052209060018060a01b0316600052602052602060ff604060002054166040519015158152f35b503461012b57604036600319011261012b576001600160a01b0360043581811690819003610959576105eb61155a565b3360009081527fad3228b676f7d3cd4284a5443f17f1962b36e491b30a40b2405849e597ba5fb560209081526040909120549093919060ff161561078957821561073857169081156106e7576bffffffffffffffffffffffff60a01b60035416176003557fb737cb9002cff05f414da9df8b1cdaf43b188015b1b4ac404e2200119cd5b5c8918260005260008152604060002082600052815260ff6040600020541615610696578380f35b826000526000815260406000209082600052526040600020600160ff1982541617905533917f2f8788117e7eff1d82e926ec794901d17c78024a50270940304540a733656f0d600080a43880808380f35b60405162461bcd60e51b815260048101849052602360248201527f496e76616c696420537461746553796e6365725665726966696572206164647260448201526265737360e81b6064820152608490fd5b60405162461bcd60e51b815260048101859052602360248201527f496e76616c6964204f7574626f756e64537461746553656e646572206164647260448201526265737360e81b6064820152608490fd5b83610793336117f2565b9060006040516107a2816114d4565b604281528281019160603684378151156109455760308353815160019081101561093157607860218401536041905b8082116108c157505061087e5761084a936108599260489260405196879376020b1b1b2b9b9a1b7b73a3937b61d1030b1b1b7bab73a1604d1b88860152610821815180928a603789019101611512565b8401917001034b99036b4b9b9b4b733903937b6329607d1b603784015251809386840190611512565b010360288101855201836114f0565b61087a60405192839262461bcd60e51b845260048401526024830190611535565b0390fd5b6064836040519062461bcd60e51b825280600483015260248201527f537472696e67733a20686578206c656e67746820696e73756666696369656e746044820152fd5b9091600f8116601081101561091b576f181899199a1a9b1b9c1cb0b131b232b360811b901a6108f084866117e1565b5360041c9180156109055760001901906107d1565b634e487b7160e01b600052601160045260246000fd5b634e487b7160e01b600052603260045260246000fd5b634e487b7160e01b82526032600452602482fd5b634e487b7160e01b81526032600452602490fd5b600080fd5b503461012b578060031936011261012b576002546040516001600160a01b039091168152602090f35b503461012b578060031936011261012b576003546040516001600160a01b039091168152602090f35b503461012b578060031936011261012b5760206040517fb737cb9002cff05f414da9df8b1cdaf43b188015b1b4ac404e2200119cd5b5c88152f35b503461012b57604036600319011261012b57610a0561155a565b336001600160a01b03821603610a215761016b9060043561176d565b60405162461bcd60e51b815260206004820152602f60248201527f416363657373436f6e74726f6c3a2063616e206f6e6c792072656e6f756e636560448201526e103937b632b9903337b91039b2b63360891b6064820152608490fd5b503461012b57602036600319011261012b57610a98611446565b6001600160801b038116825260046020528160408120600181015490610abf8215156118bd565b6004810160018154610ad460ff821615611918565b60ff191617905560035490546001600160a01b039091169060801c813b15610b44576040516310a70f2560e21b81526001600160801b0395861660048201529416602485015260448401919091528290606490829084905af1801561039657610b3b575080f35b61016b906114aa565b8380fd5b503461012b57604036600319011261012b57600435610b6561155a565b81835282602052610b7c60016040852001546115f6565b818352602083815260408085206001600160a01b039093168086529290915283205460ff1615610baa578280f35b818352826020526040832081845260205260408320600160ff1982541617905533917f2f8788117e7eff1d82e926ec794901d17c78024a50270940304540a733656f0d8480a438808280f35b503461012b576020908160031936011261012b576001600160801b0380610c1b611446565b16825260048352604082209283549260019081860154600287015491600388016040519482825492610c4c84611470565b80895293838116908115610cf05750600114610cba575b505050506004610cae95969798610c7e8660ff9403876114f0565b015416946040519788978116885260801c908701526040860152606085015260c0608085015260c0840190611535565b90151560a08301520390f35b90809450528683205b828410610cdd5750505083018401600488610c7e86610c63565b8054878501890152928701928101610cc3565b60ff1916898b015250505050151560051b840185019050600488610c7e86610c63565b503461012b57604036600319011261012b5760243567ffffffffffffffff81116113c157366023820112156113c157806004013567ffffffffffffffff8111610550578101906024820191368311610b44577fb737cb9002cff05f414da9df8b1cdaf43b188015b1b4ac404e2200119cd5b5c8808552846020526040852033865260205260ff6040862054161561123e57508160a091031261055057610dbb6024820161145c565b91610dc86044830161145c565b9060848301359067ffffffffffffffff821161123a576024610dec9285010161158c565b6001600160801b0382168552600460205260016040862001546111e2578051156111a55760a4830135156111615760025460405163726791c160e01b81526001600160801b03861660048201526001600160a01b039187908290602490829086165afa90811561115657879161113c575b505116156110ff576040519060c0820182811067ffffffffffffffff8211176110eb576040526001600160801b038316825260208201906001600160801b03861682526040830160648601358152606084019060a48701358252608085019283528860a08601526001600160801b0386168952600460205260408920936001600160801b03865116906001600160801b0319905160801b161784555160018401555160028301555180519067ffffffffffffffff82116110d757610f246003840154611470565b601f8111611093575b50602090601f831160011461102157918060a094926004948b92611016575b50508160011b916000199060031b1c19161760038201555b01910151151560ff801983541691161790556001600160801b038316845260056020526040842080549068010000000000000000821015611002576001600160801b037f2c6a886301267a929ca739e2e918cfc2d9660fffe0f6438cd50298ac25b3f5a893610fdc84839460016020970181556115d3565b81549060031b9084808516831b921b19161790556064604051960135865216941692a380f35b634e487b7160e01b86526041600452602486fd5b015190503880610f4c565b906003840189526020892091895b601f198516811061107b57509260a0949260019260049583601f19811610611062575b505050811b016003820155610f64565b015160001960f88460031b161c19169055388080611052565b9192602060018192868501518155019401920161102f565b60038401895260208920601f840160051c8101602085106110d0575b601f830160051c820181106110c5575050610f2d565b8a81556001016110af565b50806110af565b634e487b7160e01b88526041600452602488fd5b634e487b7160e01b87526041600452602487fd5b60405162461bcd60e51b8152602060048201526015602482015274149bdb1b1d5c081b9bdd081c9959da5cdd195c9959605a1b6044820152606490fd5b61115091503d8089833e61049981836114f0565b38610e5d565b6040513d89823e3d90fd5b606460405162461bcd60e51b815260206004820152602060248201527f416d6f756e74206d7573742062652067726561746572207468616e207a65726f6044820152fd5b60405162461bcd60e51b8152602060048201526015602482015274149958da5c1a595b9d081b5d5cdd081899481cd95d605a1b6044820152606490fd5b60405162461bcd60e51b815260206004820152602a60248201527f566f74696e6720616c7265616479207374617274656420666f722074686973206044820152691dda5d1a191c985dd25160b21b6064820152608490fd5b8580fd5b8490611249336117f2565b909160405192611258846114d4565b604284526020840191606036843784511561094557603083538451906001918210156109455790607860218701536041915b8183116113535750505061130f5760486112e0926112ef9261087a9560405195869376020b1b1b2b9b9a1b7b73a3937b61d1030b1b1b7bab73a1604d1b6020860152610821815180926020603789019101611512565b010360288101845201826114f0565b60405162461bcd60e51b8152602060048201529182916024830190611535565b606460405162461bcd60e51b815260206004820152602060248201527f537472696e67733a20686578206c656e67746820696e73756666696369656e746044820152fd5b909192600f811660108110156113ad576f181899199a1a9b1b9c1cb0b131b232b360811b901a61138385896117e1565b5360041c9280156113995760001901919061128a565b634e487b7160e01b82526011600452602482fd5b634e487b7160e01b83526032600452602483fd5b5080fd5b503461012b57602036600319011261012b57600160406020926004358152808452200154604051908152f35b9050346113c15760203660031901126113c15760043563ffffffff60e01b81168091036105505760209250637965db0b60e01b8114908115611435575b5015158152f35b6301ffc9a760e01b1490503861142e565b600435906001600160801b038216820361095957565b35906001600160801b038216820361095957565b90600182811c921680156114a0575b602083101461148a57565b634e487b7160e01b600052602260045260246000fd5b91607f169161147f565b67ffffffffffffffff81116114be57604052565b634e487b7160e01b600052604160045260246000fd5b6080810190811067ffffffffffffffff8211176114be57604052565b90601f8019910116810190811067ffffffffffffffff8211176114be57604052565b60005b8381106115255750506000910152565b8181015183820152602001611515565b9060209161154e81518092818552858086019101611512565b601f01601f1916010190565b602435906001600160a01b038216820361095957565b67ffffffffffffffff81116114be57601f01601f191660200190565b81601f82011215610959578035906115a382611570565b926115b160405194856114f0565b8284526020838301011161095957816000926020809301838601378301015290565b919091805483101561091b57600052601060206000208360011c019260041b1690565b600090808252602090828252604092838120338252835260ff84822054161561161f5750505050565b611628336117f2565b91845190611635826114d4565b6042825284820192606036853782511561094557603084538251906001918210156109455790607860218501536041915b818311611727575050506116e557604861087a9386936116c9936116ba985198899376020b1b1b2b9b9a1b7b73a3937b61d1030b1b1b7bab73a1604d1b8a860152610821815180928c603789019101611512565b010360288101875201856114f0565b5192839262461bcd60e51b845260048401526024830190611535565b60648486519062461bcd60e51b825280600483015260248201527f537472696e67733a20686578206c656e67746820696e73756666696369656e746044820152fd5b909192600f811660108110156113ad576f181899199a1a9b1b9c1cb0b131b232b360811b901a61175785876117e1565b5360041c92801561139957600019019190611666565b9060009180835282602052604083209160018060a01b03169182845260205260ff60408420541661179d57505050565b80835282602052604083208284526020526040832060ff1981541690557ff6391f5c32d9c69d2a47ea670b442974b53935d1edc7fd64eb21e047a839171b339380a4565b90815181101561091b570160200190565b604051906060820182811067ffffffffffffffff8211176114be57604052602a825260208201604036823782511561091b5760309053815160019081101561091b57607860218401536029905b80821161184f57505061130f5790565b9091600f811660108110156118a8576f181899199a1a9b1b9c1cb0b131b232b360811b901a61187e84866117e1565b5360041c91801561189357600019019061183f565b60246000634e487b7160e01b81526011600452fd5b60246000634e487b7160e01b81526032600452fd5b156118c457565b60405162461bcd60e51b815260206004820152602660248201527f566f74696e67206e6f74207374617274656420666f7220746869732077697468604482015265191c985dd25160d21b6064820152608490fd5b1561191f57565b60405162461bcd60e51b815260206004820152602c60248201527f566f74696e6720616c726561647920636f6d706c6574656420666f722074686960448201526b1cc81dda5d1a191c985dd25160a21b6064820152608490fd5b51906001600160a01b038216820361095957565b81601f820112156109595780516119a381611570565b926119b160405194856114f0565b81845260208284010111610959576119cf9160208085019101611512565b90565b9060208282031261095957815167ffffffffffffffff92838211610959570190608082820312610959576040519260808401848110828211176114be57604052611a1b83611979565b845260208301518181116109595782611a3591850161198d565b6020850152611a4660408401611979565b6040850152606083015190811161095957611a61920161198d565b606082015290565b6005811015611b6d5780611a7a5750565b60018103611ac75760405162461bcd60e51b815260206004820152601860248201527f45434453413a20696e76616c6964207369676e617475726500000000000000006044820152606490fd5b60028103611b145760405162461bcd60e51b815260206004820152601f60248201527f45434453413a20696e76616c6964207369676e6174757265206c656e677468006044820152606490fd5b600314611b1d57565b60405162461bcd60e51b815260206004820152602260248201527f45434453413a20696e76616c6964207369676e6174757265202773272076616c604482015261756560f01b6064820152608490fd5b634e487b7160e01b600052602160045260246000fd5b906041815114600014611bb157611bad916020820151906060604084015193015160001a90611bbb565b9091565b5050600090600290565b9291907f7fffffffffffffffffffffffffffffff5d576e7357a4501ddfe92f46681b20a08311611c3e5791608094939160ff602094604051948552168484015260408301526060820152600093849182805260015afa15611c315781516001600160a01b03811615611c2b579190565b50600190565b50604051903d90823e3d90fd5b5050505060009060039056fea2646970667358221220c50442c79774b26b4f844e4e41aace1a5c22ee31fb1aea387c809efaf1069c8e64736f6c63430008130033",
  "linkReferences": {},
  "deployedLinkReferences": {}
}