{
  "_format": "hh-sol-artifact-1",
  "contractName": "TestCommitState",
  "sourceName": "contracts/test/TestCommitState.sol",
  "abi": [
    {
      "inputs": [],
      "name": "data",
      "outputs": [
        {
          "internalType": "bytes",
          "name": "",
          "type": "bytes"
        }
      ],
      "stateMutability": "view",
      "type": "function"
    },
    {
      "inputs": [],
      "name": "id",
      "outputs": [
        {
          "internalType": "uint256",
          "name": "",
          "type": "uint256"
        }
      ],
      "stateMutability": "view",
      "type": "function"
    },
    {
      "inputs": [
        {
          "internalType": "uint256",
          "name": "_id",
          "type": "uint256"
        },
        {
          "internalType": "bytes",
          "name": "_data",
          "type": "bytes"
        }
      ],
      "name": "onStateReceive",
      "outputs": [],
      "stateMutability": "nonpayable",
      "type": "function"
    }
  ],
  "bytecode": "0x6080806040523461001657610404908161001c8239f35b600080fdfe6040608081526004908136101561001557600080fd5b600091823560e01c90816326c53bea1461019d57816373d4a13a14610063575063af640d0f1461004457600080fd5b3461005f578160031936011261005f57602091549051908152f35b5080fd5b82843461019a578060031936011261019a57815181819260018054906100888261037b565b8086529181811690811561017c5750600114610123575b5050601f801994859203011682019482861067ffffffffffffffff871117610110575091849192828552602090818452845191828186015281955b8387106100f85750508394508582601f949501015201168101030190f35b868101820151898801890152958101958895506100da565b634e487b7160e01b825260419052602490fd5b8084528392507fb10e2d527612073b26eecdfd717e6a320cf44b4afac2b0732d9fcbe2b7fa0cf65b828410610161575050508201602001868061009f565b8054602085890181019190915287965090930192810161014b565b9150506020925060ff191682850152151560051b830101868061009f565b80fd5b83833461005f5736600319011261019a5760249182359067ffffffffffffffff908183116103735736602384011215610373578281013591821161037357818301368682011161037757836080910312610373576101fc8584016103b5565b50610209604484016103b5565b506084830135845b81811061035057505035835560019161022a835461037b565b601f81116102ee575b508390601f8311600114610272579084959183949593610265575b505050600019600383901b1c191690821b17905580f35b010135905084808061024e565b601f198316957fb10e2d527612073b26eecdfd717e6a320cf44b4afac2b0732d9fcbe2b7fa0cf692865b8881106102d6575084869798106102ba575b50505050811b01905580f35b60001960f88660031b161c1992010135169055848080806102ae565b8382018301358555938601936020918201910161029c565b7fb10e2d527612073b26eecdfd717e6a320cf44b4afac2b0732d9fcbe2b7fa0cf6601f840160051c81019160208510610346575b601f0160051c019084905b82811061033b575050610233565b86815501849061032d565b9091508190610322565b600019811461036157600101610211565b634e487b7160e01b8652601183528686fd5b8380fd5b8480fd5b90600182811c921680156103ab575b602083101461039557565b634e487b7160e01b600052602260045260246000fd5b91607f169161038a565b35906001600160a01b03821682036103c957565b600080fdfea264697066735822122072d4298f603812eb9bc621d516464ac6fc65f2b4198dae443b229ed2d0dfc40264736f6c63430008130033",
  "linkReferences": {},
  "deployedLinkReferences": {}
}