{
  "_format": "hh-sol-artifact-1",
  "contractName": "TestVotingContract",
  "sourceName": "contracts/test/rollup/TestVotingContract.sol",
  "abi": [
    {
      "inputs": [
        {
          "internalType": "address",
          "name": "registryAddress",
          "type": "address"
        }
      ],
      "stateMutability": "nonpayable",
      "type": "constructor"
    },
    {
      "anonymous": false,
      "inputs": [
        {
          "indexed": true,
          "internalType": "bytes32",
          "name": "role",
          "type": "bytes32"
        },
        {
          "indexed": true,
          "internalType": "bytes32",
          "name": "previousAdminRole",
          "type": "bytes32"
        },
        {
          "indexed": true,
          "internalType": "bytes32",
          "name": "newAdminRole",
          "type": "bytes32"
        }
      ],
      "name": "RoleAdminChanged",
      "type": "event"
    },
    {
      "anonymous": false,
      "inputs": [
        {
          "indexed": true,
          "internalType": "bytes32",
          "name": "role",
          "type": "bytes32"
        },
        {
          "indexed": true,
          "internalType": "address",
          "name": "account",
          "type": "address"
        },
        {
          "indexed": true,
          "internalType": "address",
          "name": "sender",
          "type": "address"
        }
      ],
      "name": "RoleGranted",
      "type": "event"
    },
    {
      "anonymous": false,
      "inputs": [
        {
          "indexed": true,
          "internalType": "bytes32",
          "name": "role",
          "type": "bytes32"
        },
        {
          "indexed": true,
          "internalType": "address",
          "name": "account",
          "type": "address"
        },
        {
          "indexed": true,
          "internalType": "address",
          "name": "sender",
          "type": "address"
        }
      ],
      "name": "RoleRevoked",
      "type": "event"
    },
    {
      "anonymous": false,
      "inputs": [
        {
          "indexed": true,
          "internalType": "uint128",
          "name": "rollupID",
          "type": "uint128"
        },
        {
          "indexed": true,
          "internalType": "uint128",
          "name": "withdrawID",
          "type": "uint128"
        },
        {
          "indexed": false,
          "internalType": "bytes32",
          "name": "txHash",
          "type": "bytes32"
        }
      ],
      "name": "VotingStarted",
      "type": "event"
    },
    {
      "anonymous": false,
      "inputs": [
        {
          "indexed": true,
          "internalType": "uint128",
          "name": "rollupID",
          "type": "uint128"
        },
        {
          "indexed": true,
          "internalType": "uint128",
          "name": "withdrawID",
          "type": "uint128"
        },
        {
          "indexed": false,
          "internalType": "bytes32",
          "name": "txHash",
          "type": "bytes32"
        }
      ],
      "name": "VotingStartedBefore",
      "type": "event"
    },
    {
      "inputs": [],
      "name": "DEFAULT_ADMIN_ROLE",
      "outputs": [
        {
          "internalType": "bytes32",
          "name": "",
          "type": "bytes32"
        }
      ],
      "stateMutability": "view",
      "type": "function"
    },
    {
      "inputs": [],
      "name": "STATE_SYNCER_ROLE",
      "outputs": [
        {
          "internalType": "bytes32",
          "name": "",
          "type": "bytes32"
        }
      ],
      "stateMutability": "view",
      "type": "function"
    },
    {
      "inputs": [
        {
          "internalType": "bytes32",
          "name": "role",
          "type": "bytes32"
        }
      ],
      "name": "getRoleAdmin",
      "outputs": [
        {
          "internalType": "bytes32",
          "name": "",
          "type": "bytes32"
        }
      ],
      "stateMutability": "view",
      "type": "function"
    },
    {
      "inputs": [
        {
          "internalType": "bytes32",
          "name": "role",
          "type": "bytes32"
        },
        {
          "internalType": "address",
          "name": "account",
          "type": "address"
        }
      ],
      "name": "grantRole",
      "outputs": [],
      "stateMutability": "nonpayable",
      "type": "function"
    },
    {
      "inputs": [
        {
          "internalType": "bytes32",
          "name": "role",
          "type": "bytes32"
        },
        {
          "internalType": "address",
          "name": "account",
          "type": "address"
        }
      ],
      "name": "hasRole",
      "outputs": [
        {
          "internalType": "bool",
          "name": "",
          "type": "bool"
        }
      ],
      "stateMutability": "view",
      "type": "function"
    },
    {
      "inputs": [
        {
          "internalType": "uint256",
          "name": "",
          "type": "uint256"
        },
        {
          "internalType": "bytes",
          "name": "data",
          "type": "bytes"
        }
      ],
      "name": "onStateReceive",
      "outputs": [],
      "stateMutability": "nonpayable",
      "type": "function"
    },
    {
      "inputs": [],
      "name": "outboundStateSender",
      "outputs": [
        {
          "internalType": "contract IOutboundStateSender",
          "name": "",
          "type": "address"
        }
      ],
      "stateMutability": "view",
      "type": "function"
    },
    {
      "inputs": [],
      "name": "registry",
      "outputs": [
        {
          "internalType": "contract RegistryContract",
          "name": "",
          "type": "address"
        }
      ],
      "stateMutability": "view",
      "type": "function"
    },
    {
      "inputs": [
        {
          "internalType": "bytes32",
          "name": "role",
          "type": "bytes32"
        },
        {
          "internalType": "address",
          "name": "account",
          "type": "address"
        }
      ],
      "name": "renounceRole",
      "outputs": [],
      "stateMutability": "nonpayable",
      "type": "function"
    },
    {
      "inputs": [
        {
          "internalType": "bytes32",
          "name": "role",
          "type": "bytes32"
        },
        {
          "internalType": "address",
          "name": "account",
          "type": "address"
        }
      ],
      "name": "revokeRole",
      "outputs": [],
      "stateMutability": "nonpayable",
      "type": "function"
    },
    {
      "inputs": [
        {
          "internalType": "uint128",
          "name": "",
          "type": "uint128"
        },
        {
          "internalType": "uint256",
          "name": "",
          "type": "uint256"
        }
      ],
      "name": "rollupWithdrawIDs",
      "outputs": [
        {
          "internalType": "uint128",
          "name": "",
          "type": "uint128"
        }
      ],
      "stateMutability": "view",
      "type": "function"
    },
    {
      "inputs": [
        {
          "internalType": "address",
          "name": "_outboundStateSender",
          "type": "address"
        },
        {
          "internalType": "address",
          "name": "_stateSyncerVerifier",
          "type": "address"
        }
      ],
      "name": "setGenesisContracts",
      "outputs": [],
      "stateMutability": "nonpayable",
      "type": "function"
    },
    {
      "inputs": [
        {
          "internalType": "uint128",
          "name": "withdrawID",
          "type": "uint128"
        }
      ],
      "name": "submitDummySignature",
      "outputs": [],
      "stateMutability": "nonpayable",
      "type": "function"
    },
    {
      "inputs": [
        {
          "internalType": "uint128",
          "name": "withdrawID",
          "type": "uint128"
        },
        {
          "internalType": "bytes",
          "name": "signature",
          "type": "bytes"
        }
      ],
      "name": "submitSignature",
      "outputs": [],
      "stateMutability": "nonpayable",
      "type": "function"
    },
    {
      "inputs": [
        {
          "internalType": "bytes4",
          "name": "interfaceId",
          "type": "bytes4"
        }
      ],
      "name": "supportsInterface",
      "outputs": [
        {
          "internalType": "bool",
          "name": "",
          "type": "bool"
        }
      ],
      "stateMutability": "view",
      "type": "function"
    },
    {
      "inputs": [
        {
          "internalType": "uint128",
          "name": "withdrawID",
          "type": "uint128"
        },
        {
          "internalType": "bytes",
          "name": "signature",
          "type": "bytes"
        }
      ],
      "name": "testVerifySignature",
      "outputs": [
        {
          "internalType": "bool",
          "name": "",
          "type": "bool"
        }
      ],
      "stateMutability": "view",
      "type": "function"
    },
    {
      "inputs": [
        {
          "internalType": "uint128",
          "name": "",
          "type": "uint128"
        }
      ],
      "name": "votings",
      "outputs": [
        {
          "internalType": "uint128",
          "name": "withdrawID",
          "type": "uint128"
        },
        {
          "internalType": "uint128",
          "name": "rollupID",
          "type": "uint128"
        },
        {
          "internalType": "bytes32",
          "name": "txHash",
          "type": "bytes32"
        },
        {
          "internalType": "uint256",
          "name": "amount",
          "type": "uint256"
        },
        {
          "internalType": "bytes",
          "name": "recipient",
          "type": "bytes"
        },
        {
          "internalType": "bool",
          "name": "completed",
          "type": "bool"
        }
      ],
      "stateMutability": "view",
      "type": "function"
    }
  ],
  "bytecode": "0x60803461012c57601f62001e8b38819003918201601f1916830192916001600160401b03841183851017610131578083926040958652833960209283918101031261012c57516001600160a01b0381169081900361012c576001805580156100e95760018060a01b03196002541617600255600090818052818152828220338352815260ff83832054161561009e575b8251611d439081620001488239f35b818052818152828220338084529152828220805460ff191660011790559081907f2f8788117e7eff1d82e926ec794901d17c78024a50270940304540a733656f0d8180a4388061008f565b50606491519062461bcd60e51b82526004820152601860248201527f496e76616c6964207265676973747279206164647265737300000000000000006044820152fd5b600080fd5b634e487b7160e01b600052604160045260246000fdfe608080604052600436101561001357600080fd5b600090813560e01c90816301ffc9a71461134257508063248a9ca31461131657806326c53bea14610c6457806326f6f41914610b475780632f2ff15d14610a99578063349baa2f146109cf57806336568abe1461093c5780634dee4498146109015780635a81dd1b146108d85780637b103999146108af57806383d47e5e1461050c57806391d14854146104c1578063a217fddf146104a5578063c0c9e35f14610225578063d547741f146101e5578063ddf3869e146101395763f4eafe5a146100dc57600080fd5b34610136576040366003190112610136576100f5611397565b602435916001600160801b038092168152600560205260408120908154841015610136575060209261012691611567565b9190546040519260031b1c168152f35b80fd5b5034610136576001600160801b0361015036611524565b911682526004602052604082209060018060a01b03806002541684845460801c60246040518094819363726791c160e01b835260048301525afa9081156101da57906101ad9493929186602097926101b7575b50505116916119fa565b6040519015158152f35b6101d392503d8091833e6101cb8183611441565b810190611963565b38806101a3565b6040513d87823e3d90fd5b5034610136576040366003190112610136576102226004356102056114ab565b908084528360205261021d600160408620015461158a565b611701565b80f35b50346101365761023436611524565b6003546001600160a01b03919082161561044c57600192600284541461040757600284556001600160801b038116855260046020526040852092848401549061027e821515611851565b6004850180549561029260ff8816156118ac565b82600254169560248a835460801c986040519283809263726791c160e01b82528c60048301525afa80156103fc5785918c916103e2575b5051169081156103a4576102dc926119fa565b156103675786889660ff191617905560035416803b15610363576040516310a70f2560e21b81526001600160801b039384166004820152939092166024840152604483015282908290606490829084905af1801561035857610340575b5050805580f35b610349906113fb565b610354578138610339565b5080fd5b6040513d84823e3d90fd5b8480fd5b60405162461bcd60e51b8152602060048201526015602482015274496e76616c696420545353207369676e617475726560581b6044820152606490fd5b60405162461bcd60e51b8152602060048201526016602482015275496e76616c696420545353207075626c6963206b657960501b6044820152606490fd5b6103f691503d808e833e6101cb8183611441565b386102c9565b6040513d8d823e3d90fd5b60405162461bcd60e51b815260206004820152601f60248201527f5265656e7472616e637947756172643a207265656e7472616e742063616c6c006044820152606490fd5b60405162461bcd60e51b815260206004820152602b60248201527f566f74696e67436f6e74726163743a204f7574626f756e64537461746553656e60448201526a19195c881b9bdd081cd95d60aa1b6064820152608490fd5b5034610136578060031936011261013657602090604051908152f35b50346101365760403660031901126101365760406104dd6114ab565b91600435815280602052209060018060a01b0316600052602052602060ff604060002054166040519015158152f35b5034610136576040366003190112610136576001600160a01b03600435818116908190036108aa5761053c6114ab565b3360009081527fad3228b676f7d3cd4284a5443f17f1962b36e491b30a40b2405849e597ba5fb560209081526040909120549093919060ff16156106da5782156106895716908115610638576bffffffffffffffffffffffff60a01b60035416176003557fb737cb9002cff05f414da9df8b1cdaf43b188015b1b4ac404e2200119cd5b5c8918260005260008152604060002082600052815260ff60406000205416156105e7578380f35b826000526000815260406000209082600052526040600020600160ff1982541617905533917f2f8788117e7eff1d82e926ec794901d17c78024a50270940304540a733656f0d600080a43880808380f35b60405162461bcd60e51b815260048101849052602360248201527f496e76616c696420537461746553796e6365725665726966696572206164647260448201526265737360e81b6064820152608490fd5b60405162461bcd60e51b815260048101859052602360248201527f496e76616c6964204f7574626f756e64537461746553656e646572206164647260448201526265737360e81b6064820152608490fd5b836106e433611786565b9060006040516106f381611425565b604281528281019160603684378151156108965760308353815160019081101561088257607860218401536041905b8082116108125750506107cf5761079b936107aa9260489260405196879376020b1b1b2b9b9a1b7b73a3937b61d1030b1b1b7bab73a1604d1b88860152610772815180928a603789019101611463565b8401917001034b99036b4b9b9b4b733903937b6329607d1b603784015251809386840190611463565b01036028810185520183611441565b6107cb60405192839262461bcd60e51b845260048401526024830190611486565b0390fd5b6064836040519062461bcd60e51b825280600483015260248201527f537472696e67733a20686578206c656e67746820696e73756666696369656e746044820152fd5b9091600f8116601081101561086c576f181899199a1a9b1b9c1cb0b131b232b360811b901a6108418486611775565b5360041c918015610856576000190190610722565b634e487b7160e01b600052601160045260246000fd5b634e487b7160e01b600052603260045260246000fd5b634e487b7160e01b82526032600452602482fd5b634e487b7160e01b81526032600452602490fd5b600080fd5b50346101365780600319360112610136576002546040516001600160a01b039091168152602090f35b50346101365780600319360112610136576003546040516001600160a01b039091168152602090f35b503461013657806003193601126101365760206040517fb737cb9002cff05f414da9df8b1cdaf43b188015b1b4ac404e2200119cd5b5c88152f35b5034610136576040366003190112610136576109566114ab565b336001600160a01b038216036109725761022290600435611701565b60405162461bcd60e51b815260206004820152602f60248201527f416363657373436f6e74726f6c3a2063616e206f6e6c792072656e6f756e636560448201526e103937b632b9903337b91039b2b63360891b6064820152608490fd5b5034610136576020366003190112610136576109e9611397565b6001600160801b038116825260046020528160408120600181015490610a10821515611851565b6004810160018154610a2560ff8216156118ac565b60ff191617905560035490546001600160a01b039091169060801c813b15610a95576040516310a70f2560e21b81526001600160801b0395861660048201529416602485015260448401919091528290606490829084905af1801561035857610a8c575080f35b610222906113fb565b8380fd5b503461013657604036600319011261013657600435610ab66114ab565b81835282602052610acd600160408520015461158a565b818352602083815260408085206001600160a01b039093168086529290915283205460ff1615610afb578280f35b818352826020526040832081845260205260408320600160ff1982541617905533917f2f8788117e7eff1d82e926ec794901d17c78024a50270940304540a733656f0d8480a438808280f35b50346101365760209081600319360112610136576001600160801b0380610b6c611397565b16825260048352604082209283549260019081860154600287015491600388016040519482825492610b9d846113c1565b80895293838116908115610c415750600114610c0b575b505050506004610bff95969798610bcf8660ff940387611441565b015416946040519788978116885260801c908701526040860152606085015260c0608085015260c0840190611486565b90151560a08301520390f35b90809450528683205b828410610c2e5750505083018401600488610bcf86610bb4565b8054878501890152928701928101610c14565b60ff1916898b015250505050151560051b840185019050600488610bcf86610bb4565b50346101365760403660031901126101365760243567ffffffffffffffff8111610354573660238201121561035457806004013567ffffffffffffffff811161118f578101906024820191368311610a95577fb737cb9002cff05f414da9df8b1cdaf43b188015b1b4ac404e2200119cd5b5c8808552846020526040852033865260205260ff6040862054161561119357508160a091031261118f57610d0c602482016113ad565b91610d19604483016113ad565b9060848301359067ffffffffffffffff821161118b576024610d3d928501016114dd565b6001600160801b038216855260046020526001604086200154611133578051156110f65760a4830135156110b25760025460405163726791c160e01b81526001600160801b03861660048201526001600160a01b039187908290602490829086165afa9081156110a757879161108d575b50511615611050576040519060c0820182811067ffffffffffffffff82111761103c576040526001600160801b038316825260208201906001600160801b03861682526040830160648601358152606084019060a48701358252608085019283528860a08601526001600160801b0386168952600460205260408920936001600160801b03865116906001600160801b0319905160801b161784555160018401555160028301555180519067ffffffffffffffff821161102857610e7560038401546113c1565b601f8111610fe4575b50602090601f8311600114610f7257918060a094926004948b92610f67575b50508160011b916000199060031b1c19161760038201555b01910151151560ff801983541691161790556001600160801b038316845260056020526040842080549068010000000000000000821015610f53576001600160801b037f2c6a886301267a929ca739e2e918cfc2d9660fffe0f6438cd50298ac25b3f5a893610f2d8483946001602097018155611567565b81549060031b9084808516831b921b19161790556064604051960135865216941692a380f35b634e487b7160e01b86526041600452602486fd5b015190503880610e9d565b906003840189526020892091895b601f1985168110610fcc57509260a0949260019260049583601f19811610610fb3575b505050811b016003820155610eb5565b015160001960f88460031b161c19169055388080610fa3565b91926020600181928685015181550194019201610f80565b60038401895260208920601f840160051c810160208510611021575b601f830160051c82018110611016575050610e7e565b8a8155600101611000565b5080611000565b634e487b7160e01b88526041600452602488fd5b634e487b7160e01b87526041600452602487fd5b60405162461bcd60e51b8152602060048201526015602482015274149bdb1b1d5c081b9bdd081c9959da5cdd195c9959605a1b6044820152606490fd5b6110a191503d8089833e6101cb8183611441565b38610dae565b6040513d89823e3d90fd5b606460405162461bcd60e51b815260206004820152602060248201527f416d6f756e74206d7573742062652067726561746572207468616e207a65726f6044820152fd5b60405162461bcd60e51b8152602060048201526015602482015274149958da5c1a595b9d081b5d5cdd081899481cd95d605a1b6044820152606490fd5b60405162461bcd60e51b815260206004820152602a60248201527f566f74696e6720616c7265616479207374617274656420666f722074686973206044820152691dda5d1a191c985dd25160b21b6064820152608490fd5b8580fd5b8280fd5b849061119e33611786565b9091604051926111ad84611425565b604284526020840191606036843784511561089657603083538451906001918210156108965790607860218701536041915b8183116112a85750505061126457604861123592611244926107cb9560405195869376020b1b1b2b9b9a1b7b73a3937b61d1030b1b1b7bab73a1604d1b6020860152610772815180926020603789019101611463565b01036028810184520182611441565b60405162461bcd60e51b8152602060048201529182916024830190611486565b606460405162461bcd60e51b815260206004820152602060248201527f537472696e67733a20686578206c656e67746820696e73756666696369656e746044820152fd5b909192600f81166010811015611302576f181899199a1a9b1b9c1cb0b131b232b360811b901a6112d88589611775565b5360041c9280156112ee576000190191906111df565b634e487b7160e01b82526011600452602482fd5b634e487b7160e01b83526032600452602483fd5b503461013657602036600319011261013657600160406020926004358152808452200154604051908152f35b9050346103545760203660031901126103545760043563ffffffff60e01b811680910361118f5760209250637965db0b60e01b8114908115611386575b5015158152f35b6301ffc9a760e01b1490503861137f565b600435906001600160801b03821682036108aa57565b35906001600160801b03821682036108aa57565b90600182811c921680156113f1575b60208310146113db57565b634e487b7160e01b600052602260045260246000fd5b91607f16916113d0565b67ffffffffffffffff811161140f57604052565b634e487b7160e01b600052604160045260246000fd5b6080810190811067ffffffffffffffff82111761140f57604052565b90601f8019910116810190811067ffffffffffffffff82111761140f57604052565b60005b8381106114765750506000910152565b8181015183820152602001611466565b9060209161149f81518092818552858086019101611463565b601f01601f1916010190565b602435906001600160a01b03821682036108aa57565b67ffffffffffffffff811161140f57601f01601f191660200190565b81601f820112156108aa578035906114f4826114c1565b926115026040519485611441565b828452602083830101116108aa57816000926020809301838601378301015290565b9060406003198301126108aa576004356001600160801b03811681036108aa57916024359067ffffffffffffffff82116108aa57611564916004016114dd565b90565b919091805483101561086c57600052601060206000208360011c019260041b1690565b600090808252602090828252604092838120338252835260ff8482205416156115b35750505050565b6115bc33611786565b918451906115c982611425565b6042825284820192606036853782511561089657603084538251906001918210156108965790607860218501536041915b8183116116bb575050506116795760486107cb93869361165d9361164e985198899376020b1b1b2b9b9a1b7b73a3937b61d1030b1b1b7bab73a1604d1b8a860152610772815180928c603789019101611463565b01036028810187520185611441565b5192839262461bcd60e51b845260048401526024830190611486565b60648486519062461bcd60e51b825280600483015260248201527f537472696e67733a20686578206c656e67746820696e73756666696369656e746044820152fd5b909192600f81166010811015611302576f181899199a1a9b1b9c1cb0b131b232b360811b901a6116eb8587611775565b5360041c9280156112ee576000190191906115fa565b9060009180835282602052604083209160018060a01b03169182845260205260ff60408420541661173157505050565b80835282602052604083208284526020526040832060ff1981541690557ff6391f5c32d9c69d2a47ea670b442974b53935d1edc7fd64eb21e047a839171b339380a4565b90815181101561086c570160200190565b604051906060820182811067ffffffffffffffff82111761140f57604052602a825260208201604036823782511561086c5760309053815160019081101561086c57607860218401536029905b8082116117e35750506112645790565b9091600f8116601081101561183c576f181899199a1a9b1b9c1cb0b131b232b360811b901a6118128486611775565b5360041c9180156118275760001901906117d3565b60246000634e487b7160e01b81526011600452fd5b60246000634e487b7160e01b81526032600452fd5b1561185857565b60405162461bcd60e51b815260206004820152602660248201527f566f74696e67206e6f74207374617274656420666f7220746869732077697468604482015265191c985dd25160d21b6064820152608490fd5b156118b357565b60405162461bcd60e51b815260206004820152602c60248201527f566f74696e6720616c726561647920636f6d706c6574656420666f722074686960448201526b1cc81dda5d1a191c985dd25160a21b6064820152608490fd5b51906001600160a01b03821682036108aa57565b81601f820112156108aa578051611937816114c1565b926119456040519485611441565b818452602082840101116108aa576115649160208085019101611463565b906020828203126108aa57815167ffffffffffffffff928382116108aa5701906080828203126108aa5760405192608084018481108282111761140f576040526119ac8361190d565b845260208301518181116108aa57826119c6918501611921565b60208501526119d76040840161190d565b604085015260608301519081116108aa576119f29201611921565b606082015290565b8054906001808201549060026003840193015460405193602093848601966001600160801b031990818116895260801b1660308701526040860152600092815491611a44836113c1565b92828116908115611b025750600114611ac6575b505050611aad94928483611a7993611ab59a99979552038084520182611441565b5190207f19457468657265756d205369676e6564204d6573736167653a0a333200000000600052601c52603c600020611c46565b929092611b2c565b6001600160a01b0391821691161490565b600090815285812093945091925b838310611aee575050508301606001908284611a79611a58565b805487840160600152918501918101611ad4565b60ff19166060808a019190915284151590940288019093019450859250869150611a799050611a58565b6005811015611c305780611b3d5750565b60018103611b8a5760405162461bcd60e51b815260206004820152601860248201527f45434453413a20696e76616c6964207369676e617475726500000000000000006044820152606490fd5b60028103611bd75760405162461bcd60e51b815260206004820152601f60248201527f45434453413a20696e76616c6964207369676e6174757265206c656e677468006044820152606490fd5b600314611be057565b60405162461bcd60e51b815260206004820152602260248201527f45434453413a20696e76616c6964207369676e6174757265202773272076616c604482015261756560f01b6064820152608490fd5b634e487b7160e01b600052602160045260246000fd5b906041815114600014611c7457611c70916020820151906060604084015193015160001a90611c7e565b9091565b5050600090600290565b9291907f7fffffffffffffffffffffffffffffff5d576e7357a4501ddfe92f46681b20a08311611d015791608094939160ff602094604051948552168484015260408301526060820152600093849182805260015afa15611cf45781516001600160a01b03811615611cee579190565b50600190565b50604051903d90823e3d90fd5b5050505060009060039056fea2646970667358221220053b251d266e3b2c91e4ef93670de81add8a7792145e2b59e53f1c7f7cff88bf64736f6c63430008130033",
  "linkReferences": {},
  "deployedLinkReferences": {}
}