{
  "_format": "hh-sol-artifact-1",
  "contractName": "BridgeERC20",
  "sourceName": "contracts/bridge/tokens/BridgeERC20.sol",
  "abi": [
    {
      "anonymous": false,
      "inputs": [
        {
          "indexed": true,
          "internalType": "address",
          "name": "owner",
          "type": "address"
        },
        {
          "indexed": true,
          "internalType": "address",
          "name": "spender",
          "type": "address"
        },
        {
          "indexed": false,
          "internalType": "uint256",
          "name": "value",
          "type": "uint256"
        }
      ],
      "name": "Approval",
      "type": "event"
    },
    {
      "anonymous": false,
      "inputs": [
        {
          "indexed": true,
          "internalType": "address",
          "name": "from",
          "type": "address"
        },
        {
          "indexed": true,
          "internalType": "address",
          "name": "to",
          "type": "address"
        },
        {
          "indexed": false,
          "internalType": "uint256",
          "name": "value",
          "type": "uint256"
        }
      ],
      "name": "Transfer",
      "type": "event"
    },
    {
      "inputs": [
        {
          "internalType": "address",
          "name": "owner",
          "type": "address"
        },
        {
          "internalType": "address",
          "name": "spender",
          "type": "address"
        }
      ],
      "name": "allowance",
      "outputs": [
        {
          "internalType": "uint256",
          "name": "",
          "type": "uint256"
        }
      ],
      "stateMutability": "view",
      "type": "function"
    },
    {
      "inputs": [
        {
          "internalType": "address",
          "name": "spender",
          "type": "address"
        },
        {
          "internalType": "uint256",
          "name": "amount",
          "type": "uint256"
        }
      ],
      "name": "approve",
      "outputs": [
        {
          "internalType": "bool",
          "name": "",
          "type": "bool"
        }
      ],
      "stateMutability": "nonpayable",
      "type": "function"
    },
    {
      "inputs": [
        {
          "internalType": "address",
          "name": "account",
          "type": "address"
        }
      ],
      "name": "balanceOf",
      "outputs": [
        {
          "internalType": "uint256",
          "name": "",
          "type": "uint256"
        }
      ],
      "stateMutability": "view",
      "type": "function"
    },
    {
      "inputs": [],
      "name": "bridgeManager",
      "outputs": [
        {
          "internalType": "address",
          "name": "",
          "type": "address"
        }
      ],
      "stateMutability": "view",
      "type": "function"
    },
    {
      "inputs": [
        {
          "internalType": "address",
          "name": "user",
          "type": "address"
        },
        {
          "internalType": "uint256",
          "name": "amount",
          "type": "uint256"
        }
      ],
      "name": "burn",
      "outputs": [],
      "stateMutability": "nonpayable",
      "type": "function"
    },
    {
      "inputs": [],
      "name": "connectedToken",
      "outputs": [
        {
          "internalType": "address",
          "name": "",
          "type": "address"
        }
      ],
      "stateMutability": "view",
      "type": "function"
    },
    {
      "inputs": [],
      "name": "decimals",
      "outputs": [
        {
          "internalType": "uint8",
          "name": "",
          "type": "uint8"
        }
      ],
      "stateMutability": "view",
      "type": "function"
    },
    {
      "inputs": [
        {
          "internalType": "address",
          "name": "spender",
          "type": "address"
        },
        {
          "internalType": "uint256",
          "name": "subtractedValue",
          "type": "uint256"
        }
      ],
      "name": "decreaseAllowance",
      "outputs": [
        {
          "internalType": "bool",
          "name": "",
          "type": "bool"
        }
      ],
      "stateMutability": "nonpayable",
      "type": "function"
    },
    {
      "inputs": [
        {
          "internalType": "address",
          "name": "spender",
          "type": "address"
        },
        {
          "internalType": "uint256",
          "name": "addedValue",
          "type": "uint256"
        }
      ],
      "name": "increaseAllowance",
      "outputs": [
        {
          "internalType": "bool",
          "name": "",
          "type": "bool"
        }
      ],
      "stateMutability": "nonpayable",
      "type": "function"
    },
    {
      "inputs": [
        {
          "internalType": "address",
          "name": "bridgeManager_",
          "type": "address"
        },
        {
          "internalType": "address",
          "name": "connectedToken_",
          "type": "address"
        },
        {
          "internalType": "string",
          "name": "name_",
          "type": "string"
        },
        {
          "internalType": "string",
          "name": "symbol_",
          "type": "string"
        },
        {
          "internalType": "uint8",
          "name": "decimals_",
          "type": "uint8"
        }
      ],
      "name": "initialize",
      "outputs": [],
      "stateMutability": "nonpayable",
      "type": "function"
    },
    {
      "inputs": [
        {
          "internalType": "address",
          "name": "user",
          "type": "address"
        },
        {
          "internalType": "uint256",
          "name": "amount",
          "type": "uint256"
        }
      ],
      "name": "mint",
      "outputs": [],
      "stateMutability": "nonpayable",
      "type": "function"
    },
    {
      "inputs": [],
      "name": "name",
      "outputs": [
        {
          "internalType": "string",
          "name": "",
          "type": "string"
        }
      ],
      "stateMutability": "view",
      "type": "function"
    },
    {
      "inputs": [
        {
          "internalType": "string",
          "name": "_name",
          "type": "string"
        },
        {
          "internalType": "string",
          "name": "_symbol",
          "type": "string"
        },
        {
          "internalType": "uint8",
          "name": "_decimals",
          "type": "uint8"
        }
      ],
      "name": "setupMetaData",
      "outputs": [],
      "stateMutability": "nonpayable",
      "type": "function"
    },
    {
      "inputs": [],
      "name": "symbol",
      "outputs": [
        {
          "internalType": "string",
          "name": "",
          "type": "string"
        }
      ],
      "stateMutability": "view",
      "type": "function"
    },
    {
      "inputs": [],
      "name": "totalSupply",
      "outputs": [
        {
          "internalType": "uint256",
          "name": "",
          "type": "uint256"
        }
      ],
      "stateMutability": "view",
      "type": "function"
    },
    {
      "inputs": [
        {
          "internalType": "address",
          "name": "to",
          "type": "address"
        },
        {
          "internalType": "uint256",
          "name": "amount",
          "type": "uint256"
        }
      ],
      "name": "transfer",
      "outputs": [
        {
          "internalType": "bool",
          "name": "",
          "type": "bool"
        }
      ],
      "stateMutability": "nonpayable",
      "type": "function"
    },
    {
      "inputs": [
        {
          "internalType": "address",
          "name": "from",
          "type": "address"
        },
        {
          "internalType": "address",
          "name": "to",
          "type": "address"
        },
        {
          "internalType": "uint256",
          "name": "amount",
          "type": "uint256"
        }
      ],
      "name": "transferFrom",
      "outputs": [
        {
          "internalType": "bool",
          "name": "",
          "type": "bool"
        }
      ],
      "stateMutability": "nonpayable",
      "type": "function"
    }
  ],
  "bytecode": "0x60808060405234610016576110a1908161001c8239f35b600080fdfe608060408181526004918236101561001657600080fd5b600092833560e01c91826306fdde03146108c457508163095ea7b31461089a5781630a8a49141461087157816314cc01a01461084457816318160ddd1461082557816323b872dd1461075b578163313ce5671461073957816339509351146106e957816340c10f191461061157816370a08231146105da5781638420ce991461049f57816395d89b41146103b85781639dc29fac1461026b578163a457c2d7146101c3578163a9059cbb14610192578163af1e6be71461012b575063dd62ed3e146100e057600080fd5b34610127578060031936011261012757806020926100fc6109de565b6101046109f9565b6001600160a01b0391821683526001865283832091168252845220549051908152f35b5080fd5b8390346101275760603660031901126101275767ffffffffffffffff813581811161018e5761015d9036908401610a47565b9160243591821161018e5761017491369101610a47565b6044359060ff8216820361018e5761018b92610daf565b80f35b8380fd5b5050346101275780600319360112610127576020906101bc6101b26109de565b6024359033610afb565b5160018152f35b905082346102685782600319360112610268576101de6109de565b918360243592338152600160205281812060018060a01b0386168252602052205490828210610217576020856101bc8585038733610c70565b608490602086519162461bcd60e51b8352820152602560248201527f45524332303a2064656372656173656420616c6c6f77616e63652062656c6f77604482015264207a65726f60d81b6064820152fd5b80fd5b8383346101275780600319360112610127576102856109de565b6024359060018060a01b03906102a38260055460081c163314610d72565b1691821561036c57828452836020528084205482811061031e57829084865285602052038185205560025482810390811161030b578493927fddf252ad1be2c89b69c2b068fc378daa952ba7f163c4a11628f55a4df523b3ef9260209260025551908152a380f35b634e487b7160e01b855260118652602485fd5b815162461bcd60e51b8152602081880152602260248201527f45524332303a206275726e20616d6f756e7420657863656564732062616c616e604482015261636560f01b6064820152608490fd5b5162461bcd60e51b8152602081860152602160248201527f45524332303a206275726e2066726f6d20746865207a65726f206164647265736044820152607360f81b6064820152608490fd5b9190503461049b578260031936011261049b57805191838154906103db82610a9e565b808652926001928084169081156104705750600114610414575b6104108686610406828b0383610a0f565b5191829182610995565b0390f35b815294507f8a35acfbc15ff81a39ae7d344fd709f28e8600b4aa8c65c6b64bfe7fe36bd19b5b828610610458575050506104068260206104109582010194386103f5565b8054602087870181019190915290950194810161043a565b905061041097508693506020925061040694915060ff191682840152151560051b82010194386103f5565b8280fd5b839150346101275760a0366003190112610127576104bb6109de565b906104c46109f9565b9067ffffffffffffffff906044358281116105d6576104e69036908301610a47565b916064359081116105d6576104fe9036908301610a47565b926084359460ff861686036105d2576005546001600160a01b0393909190600883901c851615806105c6575b15610572575061018b979850610100600160a81b039060081b1690610100600160a81b03191617600555166bffffffffffffffffffffffff60a01b6006541617600655610daf565b60849060208b519162461bcd60e51b8352820152602860248201527f427269646545524332303a20546f6b656e20697320616c726561647920696e696044820152671d1a585b1a5e995960c21b6064820152fd5b5084600654161561052a565b8680fd5b8580fd5b5050346101275760203660031901126101275760209181906001600160a01b036106026109de565b16815280845220549051908152f35b9190503461049b578060031936011261049b5761062c6109de565b906024359160018060a01b039061064b8260055460081c163314610d72565b169283156106a757506020827fddf252ad1be2c89b69c2b068fc378daa952ba7f163c4a11628f55a4df523b3ef926106868795600254610ad8565b60025585855284835280852061069d838254610ad8565b905551908152a380f35b6020606492519162461bcd60e51b8352820152601f60248201527f45524332303a206d696e7420746f20746865207a65726f2061646472657373006044820152fd5b5050346101275780600319360112610127576101bc60209261073261070c6109de565b338352600186528483206001600160a01b03821684528652918490205460243590610ad8565b9033610c70565b50503461012757816003193601126101275760209060ff600554169051908152f35b83915034610127576060366003190112610127576107776109de565b61077f6109f9565b91846044359460018060a01b0384168152600160205281812033825260205220549060001982036107b9575b6020866101bc878787610afb565b8482106107e257509183916107d7602096956101bc95033383610c70565b9193948193506107ab565b606490602087519162461bcd60e51b8352820152601d60248201527f45524332303a20696e73756666696369656e7420616c6c6f77616e63650000006044820152fd5b5050346101275781600319360112610127576020906002549051908152f35b505034610127578160031936011261012757600554905160089190911c6001600160a01b03168152602090f35b50503461012757816003193601126101275760065490516001600160a01b039091168152602090f35b5050346101275780600319360112610127576020906101bc6108ba6109de565b6024359033610c70565b8490843461049b578260031936011261049b57826003546108e481610a9e565b8085529160019180831690811561096d5750600114610910575b50505061040682610410940383610a0f565b9450600385527fc2575a0e9e593c00f959f8c92f12db2869c3395a3b0502d05e2516446f71f85b5b8286106109555750505061040682602061041095820101946108fe565b80546020878701810191909152909501948101610938565b61041097508693506020925061040694915060ff191682840152151560051b820101946108fe565b6020808252825181830181905290939260005b8281106109ca57505060409293506000838284010152601f8019910116010190565b8181018601518482016040015285016109a8565b600435906001600160a01b03821682036109f457565b600080fd5b602435906001600160a01b03821682036109f457565b90601f8019910116810190811067ffffffffffffffff821117610a3157604052565b634e487b7160e01b600052604160045260246000fd5b81601f820112156109f45780359067ffffffffffffffff8211610a315760405192610a7c601f8401601f191660200185610a0f565b828452602083830101116109f457816000926020809301838601378301015290565b90600182811c92168015610ace575b6020831014610ab857565b634e487b7160e01b600052602260045260246000fd5b91607f1691610aad565b91908201809211610ae557565b634e487b7160e01b600052601160045260246000fd5b6001600160a01b03908116918215610c1d5716918215610bcc57600082815280602052604081205491808310610b7857604082827fddf252ad1be2c89b69c2b068fc378daa952ba7f163c4a11628f55a4df523b3ef958760209652828652038282205586815220610b6d828254610ad8565b9055604051908152a3565b60405162461bcd60e51b815260206004820152602660248201527f45524332303a207472616e7366657220616d6f756e7420657863656564732062604482015265616c616e636560d01b6064820152608490fd5b60405162461bcd60e51b815260206004820152602360248201527f45524332303a207472616e7366657220746f20746865207a65726f206164647260448201526265737360e81b6064820152608490fd5b60405162461bcd60e51b815260206004820152602560248201527f45524332303a207472616e736665722066726f6d20746865207a65726f206164604482015264647265737360d81b6064820152608490fd5b6001600160a01b03908116918215610d215716918215610cd15760207f8c5be1e5ebec7d5bd14f71427d1e84f3dd0314c0f7b2291e5b200ac8c7c3b925918360005260018252604060002085600052825280604060002055604051908152a3565b60405162461bcd60e51b815260206004820152602260248201527f45524332303a20617070726f766520746f20746865207a65726f206164647265604482015261737360f01b6064820152608490fd5b60405162461bcd60e51b8152602060048201526024808201527f45524332303a20617070726f76652066726f6d20746865207a65726f206164646044820152637265737360e01b6064820152608490fd5b15610d7957565b60405162461bcd60e51b815260206004820152600e60248201526d24b73b30b634b21039b2b73232b960911b6044820152606490fd5b9091600592610dcb60018060a01b03855460081c163314610d72565b825167ffffffffffffffff91828211610a315760039180610dec8454610a9e565b96601f97888111610ffe575b50602090888311600114610f7c57600092610f71575b50508160011b9160001990851b1c19161782555b8051928311610a3157610e36600454610a9e565b858111610f11575b506020948311600114610e835760ff946000929184610e78575b50508260011b92600019911b1c1916176004555b1660ff19825416179055565b015191503880610e58565b919293601f1984169260046000527f8a35acfbc15ff81a39ae7d344fd709f28e8600b4aa8c65c6b64bfe7fe36bd19b9360005b818110610ef957509185939160ff97966001969410610edf575b50505050811b01600455610e6c565b01519060f884600019921b161c1916905538808080610ed0565b92946020600181928886015181550196019301610eb6565b60046000527f8a35acfbc15ff81a39ae7d344fd709f28e8600b4aa8c65c6b64bfe7fe36bd19b86808601891c82019260208710610f68575b01881c01905b818110610f5c5750610e3e565b60008155600101610f4f565b92508192610f49565b015190503880610e0e565b60008681527fc2575a0e9e593c00f959f8c92f12db2869c3395a3b0502d05e2516446f71f85b9350601f198516905b818110610fe65750908460019594939210610fce575b505050811b018255610e22565b015160001983871b60f8161c19169055388080610fc1565b92936020600181928786015181550195019301610fab565b90915060008581527fc2575a0e9e593c00f959f8c92f12db2869c3395a3b0502d05e2516446f71f85b898086018c1c82019360208710611062575b90869594939291018c1c01915b828110611054575050610df8565b818155859450600101611046565b9350819361103956fea26469706673582212205802bbe3891292790d2738a38ad08f75375433decc68450b993d435294c38a0a64736f6c63430008130033",
  "linkReferences": {},
  "deployedLinkReferences": {}
}