{
  "_format": "hh-sol-artifact-1",
  "contractName": "TestAccountBasedToken",
  "sourceName": "contracts/test/account_based_contracts/TestAccountBasedToken.sol",
  "abi": [
    {
      "inputs": [
        {
          "internalType": "address",
          "name": "",
          "type": "address"
        },
        {
          "internalType": "bytes",
          "name": "_token",
          "type": "bytes"
        },
        {
          "internalType": "string",
          "name": "name",
          "type": "string"
        },
        {
          "internalType": "string",
          "name": "symbol",
          "type": "string"
        },
        {
          "internalType": "uint8",
          "name": "decimals",
          "type": "uint8"
        }
      ],
      "stateMutability": "nonpayable",
      "type": "constructor"
    },
    {
      "anonymous": false,
      "inputs": [
        {
          "indexed": true,
          "internalType": "address",
          "name": "owner",
          "type": "address"
        },
        {
          "indexed": true,
          "internalType": "address",
          "name": "spender",
          "type": "address"
        },
        {
          "indexed": false,
          "internalType": "uint256",
          "name": "value",
          "type": "uint256"
        }
      ],
      "name": "Approval",
      "type": "event"
    },
    {
      "anonymous": false,
      "inputs": [
        {
          "indexed": true,
          "internalType": "address",
          "name": "previousAddress",
          "type": "address"
        },
        {
          "indexed": true,
          "internalType": "address",
          "name": "newAddress",
          "type": "address"
        }
      ],
      "name": "ChildChainChanged",
      "type": "event"
    },
    {
      "anonymous": false,
      "inputs": [
        {
          "indexed": true,
          "internalType": "bytes",
          "name": "token",
          "type": "bytes"
        },
        {
          "indexed": true,
          "internalType": "address",
          "name": "from",
          "type": "address"
        },
        {
          "indexed": false,
          "internalType": "uint256",
          "name": "amount",
          "type": "uint256"
        },
        {
          "indexed": false,
          "internalType": "uint256",
          "name": "input1",
          "type": "uint256"
        },
        {
          "indexed": false,
          "internalType": "uint256",
          "name": "output1",
          "type": "uint256"
        }
      ],
      "name": "Deposit",
      "type": "event"
    },
    {
      "anonymous": false,
      "inputs": [
        {
          "indexed": true,
          "internalType": "bytes",
          "name": "token",
          "type": "bytes"
        },
        {
          "indexed": true,
          "internalType": "address",
          "name": "from",
          "type": "address"
        },
        {
          "indexed": true,
          "internalType": "address",
          "name": "to",
          "type": "address"
        },
        {
          "indexed": false,
          "internalType": "uint256",
          "name": "amount",
          "type": "uint256"
        },
        {
          "indexed": false,
          "internalType": "uint256",
          "name": "input1",
          "type": "uint256"
        },
        {
          "indexed": false,
          "internalType": "uint256",
          "name": "input2",
          "type": "uint256"
        },
        {
          "indexed": false,
          "internalType": "uint256",
          "name": "output1",
          "type": "uint256"
        },
        {
          "indexed": false,
          "internalType": "uint256",
          "name": "output2",
          "type": "uint256"
        }
      ],
      "name": "LogFeeTransfer",
      "type": "event"
    },
    {
      "anonymous": false,
      "inputs": [
        {
          "indexed": true,
          "internalType": "bytes",
          "name": "token",
          "type": "bytes"
        },
        {
          "indexed": true,
          "internalType": "address",
          "name": "from",
          "type": "address"
        },
        {
          "indexed": true,
          "internalType": "address",
          "name": "to",
          "type": "address"
        },
        {
          "indexed": false,
          "internalType": "uint256",
          "name": "amount",
          "type": "uint256"
        },
        {
          "indexed": false,
          "internalType": "uint256",
          "name": "fromAddrOldBalance",
          "type": "uint256"
        },
        {
          "indexed": false,
          "internalType": "uint256",
          "name": "toAddrOldBalance",
          "type": "uint256"
        },
        {
          "indexed": false,
          "internalType": "uint256",
          "name": "fromAddrNewBalance",
          "type": "uint256"
        },
        {
          "indexed": false,
          "internalType": "uint256",
          "name": "toAddrNewBalance",
          "type": "uint256"
        }
      ],
      "name": "LogTransfer",
      "type": "event"
    },
    {
      "anonymous": false,
      "inputs": [
        {
          "indexed": true,
          "internalType": "address",
          "name": "previousOwner",
          "type": "address"
        },
        {
          "indexed": true,
          "internalType": "address",
          "name": "newOwner",
          "type": "address"
        }
      ],
      "name": "OwnershipTransferred",
      "type": "event"
    },
    {
      "anonymous": false,
      "inputs": [
        {
          "indexed": true,
          "internalType": "address",
          "name": "previousAddress",
          "type": "address"
        },
        {
          "indexed": true,
          "internalType": "address",
          "name": "newAddress",
          "type": "address"
        }
      ],
      "name": "ParentChanged",
      "type": "event"
    },
    {
      "anonymous": false,
      "inputs": [
        {
          "indexed": true,
          "internalType": "address",
          "name": "from",
          "type": "address"
        },
        {
          "indexed": true,
          "internalType": "address",
          "name": "to",
          "type": "address"
        },
        {
          "indexed": false,
          "internalType": "uint256",
          "name": "value",
          "type": "uint256"
        }
      ],
      "name": "Transfer",
      "type": "event"
    },
    {
      "anonymous": false,
      "inputs": [
        {
          "indexed": true,
          "internalType": "bytes",
          "name": "token",
          "type": "bytes"
        },
        {
          "indexed": true,
          "internalType": "address",
          "name": "from",
          "type": "address"
        },
        {
          "indexed": false,
          "internalType": "uint256",
          "name": "amount",
          "type": "uint256"
        },
        {
          "indexed": false,
          "internalType": "uint256",
          "name": "input1",
          "type": "uint256"
        },
        {
          "indexed": false,
          "internalType": "uint256",
          "name": "output1",
          "type": "uint256"
        }
      ],
      "name": "Withdraw",
      "type": "event"
    },
    {
      "inputs": [],
      "name": "CHAINID",
      "outputs": [
        {
          "internalType": "uint256",
          "name": "",
          "type": "uint256"
        }
      ],
      "stateMutability": "view",
      "type": "function"
    },
    {
      "inputs": [],
      "name": "EIP712_DOMAIN_SCHEMA_HASH",
      "outputs": [
        {
          "internalType": "bytes32",
          "name": "",
          "type": "bytes32"
        }
      ],
      "stateMutability": "view",
      "type": "function"
    },
    {
      "inputs": [],
      "name": "EIP712_TOKEN_TRANSFER_ORDER_SCHEMA_HASH",
      "outputs": [
        {
          "internalType": "bytes32",
          "name": "",
          "type": "bytes32"
        }
      ],
      "stateMutability": "view",
      "type": "function"
    },
    {
      "inputs": [],
      "name": "NETWORK_ID",
      "outputs": [
        {
          "internalType": "bytes",
          "name": "",
          "type": "bytes"
        }
      ],
      "stateMutability": "view",
      "type": "function"
    },
    {
      "inputs": [],
      "name": "_decimals",
      "outputs": [
        {
          "internalType": "uint8",
          "name": "",
          "type": "uint8"
        }
      ],
      "stateMutability": "view",
      "type": "function"
    },
    {
      "inputs": [],
      "name": "_name",
      "outputs": [
        {
          "internalType": "string",
          "name": "",
          "type": "string"
        }
      ],
      "stateMutability": "view",
      "type": "function"
    },
    {
      "inputs": [],
      "name": "_symbol",
      "outputs": [
        {
          "internalType": "string",
          "name": "",
          "type": "string"
        }
      ],
      "stateMutability": "view",
      "type": "function"
    },
    {
      "inputs": [
        {
          "internalType": "address",
          "name": "",
          "type": "address"
        },
        {
          "internalType": "address",
          "name": "",
          "type": "address"
        }
      ],
      "name": "allowance",
      "outputs": [
        {
          "internalType": "uint256",
          "name": "",
          "type": "uint256"
        }
      ],
      "stateMutability": "pure",
      "type": "function"
    },
    {
      "inputs": [
        {
          "internalType": "address",
          "name": "",
          "type": "address"
        },
        {
          "internalType": "uint256",
          "name": "",
          "type": "uint256"
        }
      ],
      "name": "approve",
      "outputs": [
        {
          "internalType": "bool",
          "name": "",
          "type": "bool"
        }
      ],
      "stateMutability": "pure",
      "type": "function"
    },
    {
      "inputs": [
        {
          "internalType": "address",
          "name": "account",
          "type": "address"
        }
      ],
      "name": "balanceOf",
      "outputs": [
        {
          "internalType": "uint256",
          "name": "",
          "type": "uint256"
        }
      ],
      "stateMutability": "view",
      "type": "function"
    },
    {
      "inputs": [
        {
          "internalType": "address",
          "name": "newAddress",
          "type": "address"
        }
      ],
      "name": "changeChildChain",
      "outputs": [],
      "stateMutability": "nonpayable",
      "type": "function"
    },
    {
      "inputs": [],
      "name": "childChain",
      "outputs": [
        {
          "internalType": "address",
          "name": "",
          "type": "address"
        }
      ],
      "stateMutability": "view",
      "type": "function"
    },
    {
      "inputs": [],
      "name": "decimals",
      "outputs": [
        {
          "internalType": "uint8",
          "name": "",
          "type": "uint8"
        }
      ],
      "stateMutability": "view",
      "type": "function"
    },
    {
      "inputs": [
        {
          "internalType": "address",
          "name": "user",
          "type": "address"
        },
        {
          "internalType": "uint256",
          "name": "amount",
          "type": "uint256"
        }
      ],
      "name": "deposit",
      "outputs": [],
      "stateMutability": "nonpayable",
      "type": "function"
    },
    {
      "inputs": [
        {
          "internalType": "bytes32",
          "name": "",
          "type": "bytes32"
        }
      ],
      "name": "disabledHashes",
      "outputs": [
        {
          "internalType": "bool",
          "name": "",
          "type": "bool"
        }
      ],
      "stateMutability": "view",
      "type": "function"
    },
    {
      "inputs": [
        {
          "internalType": "bytes32",
          "name": "hash",
          "type": "bytes32"
        },
        {
          "internalType": "bytes",
          "name": "sig",
          "type": "bytes"
        }
      ],
      "name": "ecrecovery",
      "outputs": [
        {
          "internalType": "address",
          "name": "result",
          "type": "address"
        }
      ],
      "stateMutability": "pure",
      "type": "function"
    },
    {
      "inputs": [],
      "name": "eip712DomainHash",
      "outputs": [
        {
          "internalType": "bytes32",
          "name": "",
          "type": "bytes32"
        }
      ],
      "stateMutability": "view",
      "type": "function"
    },
    {
      "inputs": [],
      "name": "getToken",
      "outputs": [
        {
          "internalType": "bytes",
          "name": "",
          "type": "bytes"
        }
      ],
      "stateMutability": "view",
      "type": "function"
    },
    {
      "inputs": [
        {
          "internalType": "address",
          "name": "spender",
          "type": "address"
        },
        {
          "internalType": "uint256",
          "name": "tokenIdOrAmount",
          "type": "uint256"
        },
        {
          "internalType": "bytes32",
          "name": "data",
          "type": "bytes32"
        },
        {
          "internalType": "uint256",
          "name": "expiration",
          "type": "uint256"
        }
      ],
      "name": "getTokenTransferOrderHash",
      "outputs": [
        {
          "internalType": "bytes32",
          "name": "orderHash",
          "type": "bytes32"
        }
      ],
      "stateMutability": "view",
      "type": "function"
    },
    {
      "inputs": [],
      "name": "isOwner",
      "outputs": [
        {
          "internalType": "bool",
          "name": "",
          "type": "bool"
        }
      ],
      "stateMutability": "view",
      "type": "function"
    },
    {
      "inputs": [],
      "name": "name",
      "outputs": [
        {
          "internalType": "string",
          "name": "",
          "type": "string"
        }
      ],
      "stateMutability": "view",
      "type": "function"
    },
    {
      "inputs": [
        {
          "internalType": "uint256",
          "name": "",
          "type": "uint256"
        },
        {
          "internalType": "bytes",
          "name": "data",
          "type": "bytes"
        }
      ],
      "name": "onStateReceive",
      "outputs": [],
      "stateMutability": "nonpayable",
      "type": "function"
    },
    {
      "inputs": [],
      "name": "owner",
      "outputs": [
        {
          "internalType": "address",
          "name": "",
          "type": "address"
        }
      ],
      "stateMutability": "view",
      "type": "function"
    },
    {
      "inputs": [],
      "name": "parent",
      "outputs": [
        {
          "internalType": "address",
          "name": "",
          "type": "address"
        }
      ],
      "stateMutability": "view",
      "type": "function"
    },
    {
      "inputs": [],
      "name": "renounceOwnership",
      "outputs": [],
      "stateMutability": "nonpayable",
      "type": "function"
    },
    {
      "inputs": [
        {
          "internalType": "address",
          "name": "newAddress",
          "type": "address"
        }
      ],
      "name": "setParent",
      "outputs": [],
      "stateMutability": "nonpayable",
      "type": "function"
    },
    {
      "inputs": [],
      "name": "symbol",
      "outputs": [
        {
          "internalType": "string",
          "name": "",
          "type": "string"
        }
      ],
      "stateMutability": "view",
      "type": "function"
    },
    {
      "inputs": [],
      "name": "token",
      "outputs": [
        {
          "internalType": "bytes",
          "name": "",
          "type": "bytes"
        }
      ],
      "stateMutability": "view",
      "type": "function"
    },
    {
      "inputs": [],
      "name": "totalSupply",
      "outputs": [
        {
          "internalType": "uint256",
          "name": "",
          "type": "uint256"
        }
      ],
      "stateMutability": "view",
      "type": "function"
    },
    {
      "inputs": [
        {
          "internalType": "address",
          "name": "to",
          "type": "address"
        },
        {
          "internalType": "uint256",
          "name": "value",
          "type": "uint256"
        }
      ],
      "name": "transfer",
      "outputs": [
        {
          "internalType": "bool",
          "name": "",
          "type": "bool"
        }
      ],
      "stateMutability": "nonpayable",
      "type": "function"
    },
    {
      "inputs": [
        {
          "internalType": "address",
          "name": "",
          "type": "address"
        },
        {
          "internalType": "address",
          "name": "",
          "type": "address"
        },
        {
          "internalType": "uint256",
          "name": "",
          "type": "uint256"
        }
      ],
      "name": "transferFrom",
      "outputs": [
        {
          "internalType": "bool",
          "name": "",
          "type": "bool"
        }
      ],
      "stateMutability": "pure",
      "type": "function"
    },
    {
      "inputs": [
        {
          "internalType": "address",
          "name": "newOwner",
          "type": "address"
        }
      ],
      "name": "transferOwnership",
      "outputs": [],
      "stateMutability": "nonpayable",
      "type": "function"
    },
    {
      "inputs": [
        {
          "internalType": "bytes",
          "name": "sig",
          "type": "bytes"
        },
        {
          "internalType": "uint256",
          "name": "amount",
          "type": "uint256"
        },
        {
          "internalType": "bytes32",
          "name": "data",
          "type": "bytes32"
        },
        {
          "internalType": "uint256",
          "name": "expiration",
          "type": "uint256"
        },
        {
          "internalType": "address",
          "name": "to",
          "type": "address"
        }
      ],
      "name": "transferWithSig",
      "outputs": [
        {
          "internalType": "address",
          "name": "from",
          "type": "address"
        }
      ],
      "stateMutability": "nonpayable",
      "type": "function"
    },
    {
      "inputs": [
        {
          "internalType": "uint256",
          "name": "amount",
          "type": "uint256"
        }
      ],
      "name": "withdraw",
      "outputs": [],
      "stateMutability": "payable",
      "type": "function"
    }
  ],
  "bytecode": "0x60a060409080825234620005b9576200235480380380916200002282856200060c565b833981019060a081830312620005b95780516001600160a01b03919082811603620005b95760208181015190926001600160401b03929091838111620005b957810190601f91868382011215620005b957868187620000849351910162000630565b9287820151858111620005b957876200009f91840162000694565b966060830151868111620005b957608091620000bd91850162000694565b9201519660ff88168803620005b95760008054336001600160a01b0319821681178355919389939291167f8be0079c531659141344cd1fd0a4f28419497f9722a3daafe3b4186f6b6457e08580a389516200011881620005be565b60528082527f454950373132446f6d61696e28737472696e67206e616d652c737472696e6720848301527f76657273696f6e2c75696e7432353620636861696e49642c61646472657373208c83015271766572696679696e67436f6e74726163742960701b60608301528b5191855b828110620005a45750508460728301528152620001a481620005be565b828151910120600e838c51620001ba81620005f0565b828152016d446f6a696d61204e6574776f726b60901b8152208b51620001e081620005f0565b600594818680935201640312e302e360dc1b8152208c51918b83019384528d830152606082015261057960808201523060a082015260a0815260c081018181108a82111762000590578c5251902095600196875580519081156200058c578882116200057857819062000255600254620006b4565b8b8982116200053d575b50508a90888311600114620004d6578692620004ca575b5050600019600383901b1c191690871b176002555b805190878211620004b6578190620002a5600954620006b4565b8a8882116200047b575b505089908783116001146200041557859262000409575b5050600019600383901b1c191690861b176009555b8251958611620003f557620002f2600a54620006b4565b848111620003b9575b5050859285116001146200035057939450849291908362000344575b50501b916000199060031b1c191617600a555b60805251611c4990816200070b8239608051816108830152f35b01519250388062000317565b600a815285812093958591601f198316915b888383106200039e575050501062000384575b505050811b01600a556200032a565b015160001960f88460031b161c1916905538808062000375565b85870151885590960195948501948793509081019062000362565b620003e391600a84528884209086808a01821c8301938b8b10620003eb575b01901c0190620006f1565b3880620002fb565b93508293620003d8565b634e487b7160e01b82526041600452602482fd5b015190503880620002c6565b600986528a86208994509190601f198416875b8d8282106200046457505084116200044a575b505050811b01600955620002db565b015160001960f88460031b161c191690553880806200043b565b8385015186558c9790950194938401930162000428565b620004a491600988528982892091818701891c8301938710620004ac575b01871c0190620006f1565b388a620002af565b9250819262000499565b634e487b7160e01b84526041600452602484fd5b01519050388062000276565b600287528b87208a94509190601f198416888e5b8282106200052557505084116200050b575b505050811b016002556200028b565b015160001960f88460031b161c19169055388080620004fc565b8385015186558d979095019493840193018e620004ea565b6200056691600289528a828a20918187018a1c83019387106200056e575b01881c0190620006f1565b388b6200025f565b925081926200055b565b634e487b7160e01b85526041600452602485fd5b8480fd5b634e487b7160e01b86526041600452602486fd5b8181018601518482018701528b950162000187565b600080fd5b608081019081106001600160401b03821117620005da57604052565b634e487b7160e01b600052604160045260246000fd5b604081019081106001600160401b03821117620005da57604052565b601f909101601f19168101906001600160401b03821190821017620005da57604052565b92906001600160401b038111620005da57604051602091906200065d601f8301601f19168401826200060c565b809482825282870111620005b95760005b828110620006825750600093949550010152565b8681015182820185015283016200066e565b9080601f83011215620005b9578151620006b19260200162000630565b90565b90600182811c92168015620006e6575b6020831014620006d057565b634e487b7160e01b600052602260045260246000fd5b91607f1691620006c4565b818110620006fd575050565b60008155600101620006f156fe6080604052600436101561001257600080fd5b60003560e01c806306fdde03146101b0578063095ea7b3146102235780631499c5921461021e57806318160ddd1461021957806319d27d9c1461021457806321df0da71461019257806323b872dd1461020f57806326c53bea1461020a57806328ce8b31146102055780632e1a7d4d14610200578063313ce567146101fb57806332424aa3146101fb57806342fc47fb146101f657806347e7ef24146101f157806360f96a8f146101ec57806370a08231146101e7578063715018a6146101e257806377d32e94146101dd5780638da5cb5b146101d85780638f32d59b146101d357806395d89b41146101bf578063a9059cbb146101ce578063abceeba2146101c9578063acd06cb3146101c4578063b09f1266146101bf578063b789543c146101ba578063cc79f97b146101b5578063d28d8852146101b0578063dd62ed3e146101ab578063e614d0d6146101a6578063ed9ef524146101a1578063f2fde38b1461019c578063f94dc4bc146101975763fc0c546a1461019257600080fd5b610649565b6110bf565b61104c565b610f4f565b610f34565b610e66565b610268565b610e49565b610df3565b610bc4565b610d88565b610d65565b610c6b565b610b9c565b610b73565b610b12565b610a6e565b610a31565b610a08565b6108d0565b6108a7565b610869565b610851565b61080e565b610717565b6106f0565b6104e1565b610495565b61038c565b61036b565b919082519283825260005b848110610254575050826000602080949584010152601f8019910116010190565b602081830181015184830182015201610233565b346103555760008060031936011261035257604051908060095461028b81610db9565b8085529160019180831690811561032857506001146102cd575b6102c9856102b5818703826107ec565b604051918291602083526020830190610228565b0390f35b9250600983527f6e1540171b6c0c960b71a7020d9f60077f6af931a8bbf590da0223dacf75c7af5b8284106103105750505081016020016102b5826102c96102a5565b805460208587018101919091529093019281016102f5565b8695506102c9969350602092506102b594915060ff191682840152151560051b82010192936102a5565b80fd5b600080fd5b6001600160a01b0381160361035557565b346103555760403660031901126103555761038760043561035a565b611bdb565b34610355576020366003190112610355576004356103a98161035a565b6000546001600160a01b03906103c29082163314611110565b81169081156104205760045461041e92906001600160a01b03167fc9e4c719f349d4c91a37138eb5cf0ba2670c592a764f8c0b18c603ba9178cc1d600080a360018060a01b03166001600160601b0360a01b6004541617600455565b005b60405162461bcd60e51b815260206004820152604160248201527f4163636f756e74204261736564204368696c6420746f6b656e3a206e6577207060448201527f6172656e74206164647265737320697320746865207a65726f206164647265736064820152607360f81b608482015260a490fd5b34610355576000366003190112610355576020600854604051908152f35b9181601f840112156103555782359167ffffffffffffffff8311610355576020838186019501011161035557565b346103555760a03660031901126103555760043567ffffffffffffffff8111610355576105129036906004016104b3565b9060243560643590608435926105278461035a565b81156105f3576102c9946105b86105be9261056561055e876105ce981580156105e9575b6105549061115b565b60443588336110dd565b309061121c565b9261058d610587610580866000526005602052604060002090565b5460ff1690565b156111be565b6105b16105a4856000526005602052604060002090565b805460ff19166001179055565b3691610acb565b90611608565b926001600160a01b0316836113cb565b506040516001600160a01b0390911681529081906020820190565b504381101561054b565b60405162461bcd60e51b815260206004820152602860248201527f4163636f756e74204261736564204261736520546f6b656e3a20696e76616c696044820152671908185b5bdd5b9d60c21b6064820152608490fd5b346103555760008060031936011261035257604051908060025461066c81610db9565b808552916001918083169081156103285750600114610695576102c9856102b5818703826107ec565b9250600283527f405787fa12a823e0f2b7631cc41b3ba8828b3321ca811111fa75cd3aa3bb5ace5b8284106106d85750505081016020016102b5826102c96102a5565b805460208587018101919091529093019281016106bd565b346103555760603660031901126103555761070c60043561035a565b61038760243561035a565b346103555760403660031901126103555760243567ffffffffffffffff81116103555761074a60409136906004016104b3565b90809291810103126103555780602061041e9235916107688361035a565b01359060018060a01b031681816000526006602052604060002054908110610791575b506116c9565b91503861078b565b634e487b7160e01b600052604160045260246000fd5b6040810190811067ffffffffffffffff8211176107cb57604052565b610799565b6080810190811067ffffffffffffffff8211176107cb57604052565b90601f8019910116810190811067ffffffffffffffff8211176107cb57604052565b34610355576000366003190112610355576102c960405161082e816107af565b600281526103e960f01b6020820152604051918291602083526020830190610228565b60203660031901126103555761041e600435336116c9565b3461035557600036600319011261035557602060405160ff7f0000000000000000000000000000000000000000000000000000000000000000168152f35b34610355576000366003190112610355576003546040516001600160a01b039091168152602090f35b34610355576040366003190112610355576004356108ed8161035a565b60243590811515806109f6575b15610995576001600160a01b03811660009081526006602052604090207f68ef7ce2640f8727da5ca0ea6d99bb00585c775e7fbfe863016ce3165d985ff290546109448484611ac5565b6001600160a01b0383166000908152600660205260409020549261099061096961132e565b9460405193849360018060a01b031697846040919493926060820195825260208201520152565b0390a3005b60405162461bcd60e51b815260206004820152603360248201527f4368696c6420424550323a20696e76616c69642075736572206164647265737360448201527208185b990819195c1bdcda5d08185b5bdd5b9d606a1b6064820152608490fd5b506001600160a01b03811615156108fa565b34610355576000366003190112610355576004546040516001600160a01b039091168152602090f35b3461035557602036600319011261035557600435610a4e8161035a565b60018060a01b031660005260066020526020604060002054604051908152f35b3461035557600080600319360112610352578054816001600160a01b038216610a98338214611110565b7f8be0079c531659141344cd1fd0a4f28419497f9722a3daafe3b4186f6b6457e08280a36001600160a01b031916815580f35b92919267ffffffffffffffff82116107cb5760405191610af5601f8201601f1916602001846107ec565b829481845281830111610355578281602093846000960137010152565b346103555760403660031901126103555760243567ffffffffffffffff8111610355573660238201121561035557610b61610b596020923690602481600401359101610acb565b600435611608565b6040516001600160a01b039091168152f35b34610355576000366003190112610355576000546040516001600160a01b039091168152602090f35b3461035557600036600319011261035557602060018060a01b03600054163314604051908152f35b3461035557600080600319360112610352576040519080600a54610be781610db9565b808552916001918083169081156103285750600114610c10576102c9856102b5818703826107ec565b9250600a83527fc65a7bb8d6351c1cf70c95a316cc6a92839c986682d98bc35f958f4883f9d2a85b828410610c535750505081016020016102b5826102c96102a5565b80546020858701810191909152909301928101610c38565b34610355576040366003190112610355576020610c96600435610c8d8161035a565b60243590611845565b6040519015158152f35b604051610cac816107d0565b605b8082526020907f546f6b656e5472616e736665724f726465722861646472657373207370656e64828401527f65722c75696e7432353620746f6b656e49644f72416d6f756e742c627974657360408401527f333220646174612c75696e743235362065787069726174696f6e2900000000006060840152604051928260005b838110610d51575050506000607b8401528252610d49826107d0565b815191012090565b818184010151828288010152018390610d2d565b34610355576000366003190112610355576020610d80610ca0565b604051908152f35b34610355576020366003190112610355576004356000526005602052602060ff604060002054166040519015158152f35b90600182811c92168015610de9575b6020831014610dd357565b634e487b7160e01b600052602260045260246000fd5b91607f1691610dc8565b34610355576080366003190112610355576020610d80610e29600435610e188161035a565b6064359060443590602435906110dd565b6001546042916040519161190160f01b8352600283015260228201522090565b346103555760003660031901126103555760206040516105798152f35b346103555760403660031901126103555761070c60043561035a565b604051610e8e816107d0565b60528082526020907f454950373132446f6d61696e28737472696e67206e616d652c737472696e6720828401527f76657273696f6e2c75696e7432353620636861696e49642c6164647265737320604084015271766572696679696e67436f6e74726163742960701b6060840152604051928260005b838110610f2057505050600060728401528252610d49826107d0565b818184010151828288010152018390610f04565b34610355576000366003190112610355576020610d80610e82565b3461035557602036600319011261035557600435610f6c8161035a565b6000546001600160a01b039190610f869083163314611110565b8181168015610fe25760035461041e93166001600160a01b03167f1f9f3556dd336016cdf20adaead7d5c73665dba664b60e8c17e9a4eb91ce1d39600080a360018060a01b03166001600160601b0360a01b6003541617600355565b608460405162461bcd60e51b815260206004820152604060248201527f4163636f756e74204261736564204368696c6420746f6b656e3a206e6577206360448201527f68696c64206164647265737320697320746865207a65726f20616464726573736064820152fd5b34610355576020366003190112610355576004356110698161035a565b6000805490916001600160a01b0380831691611086338414611110565b1680926001600160601b0360a01b161783557f8be0079c531659141344cd1fd0a4f28419497f9722a3daafe3b4186f6b6457e08380a380f35b34610355576000366003190112610355576020600154604051908152f35b9160a093916110ea610ca0565b93604051948552600180871b031660208501526040840152606083015260808201522090565b1561111757565b606460405162461bcd60e51b815260206004820152602060248201527f4f776e61626c653a2063616c6c6572206973206e6f7420746865206f776e65726044820152fd5b1561116257565b60405162461bcd60e51b815260206004820152602e60248201527f4163636f756e74204261736564204261736520546f6b656e3a205369676e617460448201526d1d5c99481a5cc8195e1c1a5c995960921b6064820152608490fd5b156111c557565b60405162461bcd60e51b815260206004820152602960248201527f4163636f756e74204261736564204261736520546f6b656e3a205369672064656044820152681858dd1a5d985d195960ba1b6064820152608490fd5b611224610e82565b6d446f6a696d61204e6574776f726b60901b6020604051611244816107af565b600e81520152640312e302e360dc1b6020604051611261816107af565b60058152015260405192602084019182527f221f8a440277f355573de882ed84f79b3742ae470474223812e292fd8a8bfa4460408501527f06c015bd22b4c69690933c1058878ebdfef31f9aaae40bbe86d8a09fe1b2972c6060850152610579608085015260018060a01b031660a084015260a0835260c083019280841067ffffffffffffffff8511176107cb57604084905251902061190160f01b8352600283015260228201526042902090565b90565b90816020910312610355575190565b6040513d6000823e3d90fd5b60405180600060025461134081610db9565b906001908181169081156113b4575060011461135f575b505003902090565b600260009081529192507f405787fa12a823e0f2b7631cc41b3ba8828b3321ca811111fa75cd3aa3bb5ace5b83831061139e5750505081013880611357565b805486840152859450602090920191810161138b565b60ff19168552505080151502820190503880611357565b6040516370a0823160e01b8082526001600160a01b038316600483015291939260209291908382602481305afa91821561153a5760009261157b575b506040518381526001600160a01b0382166004820152938085602481305afa94851561153a5760009561155c575b506114418683896119ab565b6040518481526001600160a01b03881660048201528181602481305afa90811561153a5760009161153f575b506040519485526001600160a01b03831660048601528185602481305afa90811561153a577fb04c113d65bb862cc6c362d7c4c1271731185b8d36753f810d184768e771c1fc956115039360009361150b575b50506114ca61132e565b9660405195869560018060a01b038091169b1699869192608093969594919660a084019784526020840152604083015260608201520152565b0390a4600190565b61152b929350803d10611533575b61152381836107ec565b810190611313565b9038806114c0565b503d611519565b611322565b6115569150823d84116115335761152381836107ec565b3861146d565b816115749296503d87116115335761152381836107ec565b9338611435565b611593919250843d86116115335761152381836107ec565b9038611407565b634e487b7160e01b600052601160045260246000fd5b60ff601b9116019060ff82116115c257565b61159a565b156115ce57565b60405162461bcd60e51b815260206004820152601260248201527122b93937b91034b71032b1b932b1b7bb32b960711b6044820152606490fd5b90600060418251036116c3575060208101519160ff604160408401519301511690601b82106116b3575b60ff8216601b81141590816116a7575b5061169e57611676600093602095604051948594859094939260ff6060936080840197845216602083015260408201520152565b838052039060015afa1561153a576000519061169c6001600160a01b03831615156115c7565b565b50505050600090565b601c9150141538611642565b906116bd906115b0565b90611632565b91505090565b6001600160a01b0381166000818152600660205260409020549092919083156117e8576001600160a01b03821660009081526006602052604090207feba6ac1619d393af4bf202dad828b057aaf28edd445663dc6ec4e30a43cc410a926117b89185905461173982821015611b7f565b036117568260018060a01b03166000526006602052604060002090565b556117648560085403600855565b6000867fddf252ad1be2c89b69c2b068fc378daa952ba7f163c4a11628f55a4df523b3ef6040518061179b8a829190602083019252565b0390a36001600160a01b0316600090815260066020526040902090565b54926117e36117c561132e565b94604051938493846040919493926060820195825260208201520152565b0390a3565b60405162461bcd60e51b815260206004820152601b60248201527f4368696c6420424550323a20696e76616c6964206164647265737300000000006044820152606490fd5b90816020910312610355575180151581036103555790565b6004549091906001600160a01b039081168015159182611877575b50506118705761131091336113cb565b5050600090565b600092509060646020926040519485938492631ffb811f60e01b8452336004850152891660248401528760448401525af190811561153a576000916118c0575b50153880611860565b6118e1915060203d81116118e7575b6118d981836107ec565b81019061182d565b386118b7565b503d6118cf565b156118f557565b60405162461bcd60e51b815260206004820152602860248201527f4368696c6420424550323a207472616e7366657220746f20746865207a65726f604482015267206164647265737360c01b6064820152608490fd5b1561195257565b60405162461bcd60e51b815260206004820152602b60248201527f4368696c6420424550323a207472616e7366657220616d6f756e74206578636560448201526a6564732062616c616e636560a81b6064820152608490fd5b916001600160a01b038084169290918315611a6d57611a57827fddf252ad1be2c89b69c2b068fc378daa952ba7f163c4a11628f55a4df523b3ef946117e39416966119f78815156118ee565b6001600160a01b0381166000908152600660205260409020611a3c90859054611a228282101561194b565b039160018060a01b03166000526006602052604060002090565b556001600160a01b0316600090815260066020526040902090565b8054820190556040519081529081906020820190565b60405162461bcd60e51b815260206004820152602a60248201527f4368696c6420424550323a207472616e736665722066726f6d20746865207a65604482015269726f206164647265737360b01b6064820152608490fd5b6001600160a01b03811691908215611b3a57600854908282018092116115c257600092611b2b6020927fddf252ad1be2c89b69c2b068fc378daa952ba7f163c4a11628f55a4df523b3ef9460085560018060a01b03166000526006602052604060002090565b818154019055604051908152a3565b60405162461bcd60e51b815260206004820152601b60248201527f4368696c6420424550323a20696e76616c6964206163636f756e7400000000006044820152606490fd5b15611b8657565b60405162461bcd60e51b815260206004820152602760248201527f4368696c6420424550323a206275726e20616d6f756e7420657863656564732060448201526662616c616e636560c81b6064820152608490fd5b60405162461bcd60e51b815260206004820152601060248201526f44697361626c6564206665617475726560801b6044820152606490fdfea2646970667358221220422be7a7ec989f24f1ec52d8744d1286e6c381f8e6a0d61e64a20010497e191f64736f6c63430008130033",
  "linkReferences": {},
  "deployedLinkReferences": {}
}