{
  "_format": "hh-sol-artifact-1",
  "contractName": "DepositManagerProxy",
  "sourceName": "contracts/depositManager/DepositManagerProxy.sol",
  "abi": [
    {
      "inputs": [
        {
          "internalType": "address",
          "name": "_proxyTo",
          "type": "address"
        },
        {
          "internalType": "address",
          "name": "_registry",
          "type": "address"
        },
        {
          "internalType": "address",
          "name": "_governance",
          "type": "address"
        }
      ],
      "stateMutability": "nonpayable",
      "type": "constructor"
    },
    {
      "anonymous": false,
      "inputs": [
        {
          "indexed": true,
          "internalType": "uint256",
          "name": "oldLimit",
          "type": "uint256"
        },
        {
          "indexed": true,
          "internalType": "uint256",
          "name": "newLimit",
          "type": "uint256"
        }
      ],
      "name": "MaxErc20DepositUpdate",
      "type": "event"
    },
    {
      "anonymous": false,
      "inputs": [
        {
          "indexed": false,
          "internalType": "string",
          "name": "chain",
          "type": "string"
        },
        {
          "indexed": true,
          "internalType": "address",
          "name": "owner",
          "type": "address"
        },
        {
          "indexed": true,
          "internalType": "address",
          "name": "token",
          "type": "address"
        },
        {
          "indexed": false,
          "internalType": "uint256",
          "name": "amountOrNFTId",
          "type": "uint256"
        },
        {
          "indexed": false,
          "internalType": "uint256",
          "name": "depositId",
          "type": "uint256"
        }
      ],
      "name": "NewDepositBlock",
      "type": "event"
    },
    {
      "anonymous": false,
      "inputs": [
        {
          "indexed": false,
          "internalType": "address",
          "name": "_prevOwner",
          "type": "address"
        },
        {
          "indexed": false,
          "internalType": "address",
          "name": "_newOwner",
          "type": "address"
        }
      ],
      "name": "OwnerUpdate",
      "type": "event"
    },
    {
      "anonymous": false,
      "inputs": [
        {
          "indexed": true,
          "internalType": "address",
          "name": "previousOwner",
          "type": "address"
        },
        {
          "indexed": true,
          "internalType": "address",
          "name": "newOwner",
          "type": "address"
        }
      ],
      "name": "OwnershipTransferred",
      "type": "event"
    },
    {
      "anonymous": false,
      "inputs": [
        {
          "indexed": true,
          "internalType": "address",
          "name": "_new",
          "type": "address"
        },
        {
          "indexed": true,
          "internalType": "address",
          "name": "_old",
          "type": "address"
        }
      ],
      "name": "ProxyUpdated",
      "type": "event"
    },
    {
      "stateMutability": "payable",
      "type": "fallback"
    },
    {
      "inputs": [],
      "name": "childChain",
      "outputs": [
        {
          "internalType": "address",
          "name": "",
          "type": "address"
        }
      ],
      "stateMutability": "view",
      "type": "function"
    },
    {
      "inputs": [],
      "name": "depositIdCounter",
      "outputs": [
        {
          "internalType": "uint256",
          "name": "",
          "type": "uint256"
        }
      ],
      "stateMutability": "view",
      "type": "function"
    },
    {
      "inputs": [
        {
          "internalType": "uint256",
          "name": "",
          "type": "uint256"
        }
      ],
      "name": "deposits",
      "outputs": [
        {
          "internalType": "bytes32",
          "name": "depositHash",
          "type": "bytes32"
        },
        {
          "internalType": "uint256",
          "name": "createdAt",
          "type": "uint256"
        }
      ],
      "stateMutability": "view",
      "type": "function"
    },
    {
      "inputs": [],
      "name": "governance",
      "outputs": [
        {
          "internalType": "contract IGovernance",
          "name": "",
          "type": "address"
        }
      ],
      "stateMutability": "view",
      "type": "function"
    },
    {
      "inputs": [],
      "name": "implementation",
      "outputs": [
        {
          "internalType": "address",
          "name": "",
          "type": "address"
        }
      ],
      "stateMutability": "view",
      "type": "function"
    },
    {
      "inputs": [],
      "name": "lock",
      "outputs": [],
      "stateMutability": "nonpayable",
      "type": "function"
    },
    {
      "inputs": [],
      "name": "locked",
      "outputs": [
        {
          "internalType": "bool",
          "name": "",
          "type": "bool"
        }
      ],
      "stateMutability": "view",
      "type": "function"
    },
    {
      "inputs": [],
      "name": "maxErc20Deposit",
      "outputs": [
        {
          "internalType": "uint256",
          "name": "",
          "type": "uint256"
        }
      ],
      "stateMutability": "view",
      "type": "function"
    },
    {
      "inputs": [],
      "name": "owner",
      "outputs": [
        {
          "internalType": "address",
          "name": "",
          "type": "address"
        }
      ],
      "stateMutability": "view",
      "type": "function"
    },
    {
      "inputs": [],
      "name": "proxyType",
      "outputs": [
        {
          "internalType": "uint256",
          "name": "proxyTypeId",
          "type": "uint256"
        }
      ],
      "stateMutability": "pure",
      "type": "function"
    },
    {
      "inputs": [],
      "name": "registry",
      "outputs": [
        {
          "internalType": "contract Registry",
          "name": "",
          "type": "address"
        }
      ],
      "stateMutability": "view",
      "type": "function"
    },
    {
      "inputs": [],
      "name": "renounceOwnership",
      "outputs": [],
      "stateMutability": "nonpayable",
      "type": "function"
    },
    {
      "inputs": [],
      "name": "stateSender",
      "outputs": [
        {
          "internalType": "contract IInboundStateSender",
          "name": "",
          "type": "address"
        }
      ],
      "stateMutability": "view",
      "type": "function"
    },
    {
      "inputs": [
        {
          "internalType": "address",
          "name": "newOwner",
          "type": "address"
        }
      ],
      "name": "transferOwnership",
      "outputs": [],
      "stateMutability": "nonpayable",
      "type": "function"
    },
    {
      "inputs": [],
      "name": "unlock",
      "outputs": [],
      "stateMutability": "nonpayable",
      "type": "function"
    },
    {
      "inputs": [
        {
          "internalType": "address",
          "name": "_newProxyTo",
          "type": "address"
        }
      ],
      "name": "updateImplementation",
      "outputs": [],
      "stateMutability": "nonpayable",
      "type": "function"
    }
  ],
  "bytecode": "0x6080346101c057601f61092538819003918201601f19168301916001600160401b038311848410176101c5578084926060946040528339810103126101c057610047816101db565b61005f6040610058602085016101db565b93016101db565b600080546001600160a01b0319808216339081178455929590946001600160a01b03949193909285167f8be0079c531659141344cd1fd0a4f28419497f9722a3daafe3b4186f6b6457e08880a383821691821561017b576100bf906101ef565b156101285783918560015460405198837fd32d24edea94f55e932d9a008afc425a8561462d1b1f57bc6e508e9a6b9509e18784169280a316176001551683600254161760025568056bc75e2d631000006008551690600354161760035561071a908161020b8239f35b60405162461bcd60e51b815260206004820152602560248201527f44455354494e4154494f4e5f414444524553535f49535f4e4f545f415f434f4e60448201526415149050d560da1b6064820152608490fd5b60405162461bcd60e51b815260206004820152601560248201527f494e56414c49445f50524f58595f4144445245535300000000000000000000006044820152606490fd5b600080fd5b634e487b7160e01b600052604160045260246000fd5b51906001600160a01b03821682036101c057565b6001600160a01b03811615610204573b151590565b5060009056fe6080604052600436106105f65760003560e01c8063025b22bc1461010c57806342fc47fb146101075780634555d5c914610102578063533573fe146100fd5780635aa6e675146100f85780635c60da1b146100f3578063715018a6146100ee5780637b103999146100e95780638da5cb5b146100e4578063a69df4b5146100df578063b02c43d0146100da578063cb10f94c146100d5578063cf309012146100d0578063e7af7ba1146100cb578063f2fde38b146100c65763f83d08ba036105f65761054d565b610495565b610477565b610451565b610428565b6103f3565b6103be565b610395565b61036c565b61030e565b6102e5565b6102bc565b61029e565b610282565b610259565b610138565b6020906003190112610133576004356001600160a01b03811681036101335790565b600080fd5b346101335761014636610111565b61014e610588565b6001600160a01b0390808216801561021c576101698261066e565b156101c9576001546101c793166001600160a01b0316907fd32d24edea94f55e932d9a008afc425a8561462d1b1f57bc6e508e9a6b9509e1600080a360018060a01b03166bffffffffffffffffffffffff60a01b6001541617600155565b005b60405162461bcd60e51b815260206004820152602560248201527f44455354494e4154494f4e5f414444524553535f49535f4e4f545f415f434f4e60448201526415149050d560da1b6064820152608490fd5b60405162461bcd60e51b8152602060048201526015602482015274494e56414c49445f50524f58595f4144445245535360581b6044820152606490fd5b34610133576000366003190112610133576007546040516001600160a01b039091168152602090f35b3461013357600036600319011261013357602060405160028152f35b34610133576000366003190112610133576020600554604051908152f35b34610133576000366003190112610133576002546040516001600160a01b039091168152602090f35b34610133576000366003190112610133576001546040516001600160a01b039091168152602090f35b346101335760008060031936011261036957610328610588565b80546001600160a01b03198116825581906001600160a01b03167f8be0079c531659141344cd1fd0a4f28419497f9722a3daafe3b4186f6b6457e08280a380f35b80fd5b34610133576000366003190112610133576003546040516001600160a01b039091168152602090f35b34610133576000366003190112610133576000546040516001600160a01b039091168152602090f35b34610133576000366003190112610133576103e460018060a01b03600254163314610689565b6001805460ff60a01b19169055005b346101335760203660031901126101335760043560005260066020526040806000206001815491015482519182526020820152f35b34610133576000366003190112610133576004546040516001600160a01b039091168152602090f35b3461013357600036600319011261013357602060ff60015460a01c166040519015158152f35b34610133576000366003190112610133576020600854604051908152f35b34610133576104a336610111565b6104ab610588565b6001600160a01b0390811680156104f957600080546001600160a01b03198116831782559092167f8be0079c531659141344cd1fd0a4f28419497f9722a3daafe3b4186f6b6457e08380a380f35b60405162461bcd60e51b815260206004820152602660248201527f4f776e61626c653a206e6577206f776e657220697320746865207a65726f206160448201526564647265737360d01b6064820152608490fd5b346101335760003660031901126101335761057360018060a01b03600254163314610689565b6001805460ff60a01b1916600160a01b179055005b6000546001600160a01b0316330361059c57565b606460405162461bcd60e51b815260206004820152602060248201527f4f776e61626c653a2063616c6c6572206973206e6f7420746865206f776e65726044820152fd5b634e487b7160e01b600052604160045260246000fd5b6001546001600160a01b031667ffffffffffffffff368110610669576040519136601f01601f19908116603f01168301918211838310176106695760009283926040523681526020810190368483378360203683010152519161270f195a01f46040513d91826000833e1561066757f35bfd5b6105e0565b6001600160a01b03811615610683573b151590565b50600090565b1561069057565b60405162461bcd60e51b815260206004820152602660248201527f4f6e6c7920676f7665726e616e636520636f6e747261637420697320617574686044820152651bdc9a5e995960d21b6064820152608490fdfea2646970667358221220c4082aab969b83b35aafab0132ede6d381ff7ed93e5d3ef47b1f58dd5757f12864736f6c63430008130033",
  "linkReferences": {},
  "deployedLinkReferences": {}
}