{
  "_format": "hh-sol-artifact-1",
  "contractName": "ChainIdMixin",
  "sourceName": "contracts/common/mixin/ChainIdMixin.sol",
  "abi": [
    {
      "inputs": [],
      "name": "CHAINID",
      "outputs": [
        {
          "internalType": "uint256",
          "name": "",
          "type": "uint256"
        }
      ],
      "stateMutability": "view",
      "type": "function"
    },
    {
      "inputs": [],
      "name": "NETWORK_ID",
      "outputs": [
        {
          "internalType": "bytes",
          "name": "",
          "type": "bytes"
        }
      ],
      "stateMutability": "view",
      "type": "function"
    }
  ],
  "bytecode": "0x608080604052346100165761011c908161001c8239f35b600080fdfe608060408181526004361015601357600080fd5b600091823560e01c90816328ce8b31146052575063cc79f97b14603557600080fd5b34604e5781600319360112604e57602090516105798152f35b5080fd5b90503460e2578260031936011260e25781810181811067ffffffffffffffff82111760ce578252600281526020906103e960f01b8282015282519382859384528251928382860152825b84811060b957505050828201840152601f01601f19168101030190f35b8181018301518882018801528795508201609c565b634e487b7160e01b84526041600452602484fd5b8280fdfea2646970667358221220e9beef40f06c82c1ab5497df14f2065e07204bd6de5f865eccdfe22997e2905064736f6c63430008130033",
  "linkReferences": {},
  "deployedLinkReferences": {}
}