{
  "_format": "hh-sol-artifact-1",
  "contractName": "DepositManager",
  "sourceName": "contracts/depositManager/DepositManager.sol",
  "abi": [
    {
      "inputs": [],
      "stateMutability": "nonpayable",
      "type": "constructor"
    },
    {
      "anonymous": false,
      "inputs": [
        {
          "indexed": true,
          "internalType": "uint256",
          "name": "oldLimit",
          "type": "uint256"
        },
        {
          "indexed": true,
          "internalType": "uint256",
          "name": "newLimit",
          "type": "uint256"
        }
      ],
      "name": "MaxErc20DepositUpdate",
      "type": "event"
    },
    {
      "anonymous": false,
      "inputs": [
        {
          "indexed": false,
          "internalType": "string",
          "name": "chain",
          "type": "string"
        },
        {
          "indexed": true,
          "internalType": "address",
          "name": "owner",
          "type": "address"
        },
        {
          "indexed": true,
          "internalType": "address",
          "name": "token",
          "type": "address"
        },
        {
          "indexed": false,
          "internalType": "uint256",
          "name": "amountOrNFTId",
          "type": "uint256"
        },
        {
          "indexed": false,
          "internalType": "uint256",
          "name": "depositId",
          "type": "uint256"
        }
      ],
      "name": "NewDepositBlock",
      "type": "event"
    },
    {
      "anonymous": false,
      "inputs": [
        {
          "indexed": true,
          "internalType": "address",
          "name": "previousOwner",
          "type": "address"
        },
        {
          "indexed": true,
          "internalType": "address",
          "name": "newOwner",
          "type": "address"
        }
      ],
      "name": "OwnershipTransferred",
      "type": "event"
    },
    {
      "inputs": [],
      "name": "_ETH_CHAIN",
      "outputs": [
        {
          "internalType": "string",
          "name": "",
          "type": "string"
        }
      ],
      "stateMutability": "view",
      "type": "function"
    },
    {
      "inputs": [],
      "name": "childChain",
      "outputs": [
        {
          "internalType": "address",
          "name": "",
          "type": "address"
        }
      ],
      "stateMutability": "view",
      "type": "function"
    },
    {
      "inputs": [
        {
          "internalType": "address",
          "name": "_token",
          "type": "address"
        },
        {
          "internalType": "uint256",
          "name": "_amount",
          "type": "uint256"
        }
      ],
      "name": "depositERC20",
      "outputs": [],
      "stateMutability": "nonpayable",
      "type": "function"
    },
    {
      "inputs": [
        {
          "internalType": "address",
          "name": "_token",
          "type": "address"
        },
        {
          "internalType": "address",
          "name": "_user",
          "type": "address"
        },
        {
          "internalType": "uint256",
          "name": "_amount",
          "type": "uint256"
        }
      ],
      "name": "depositERC20ForUser",
      "outputs": [],
      "stateMutability": "nonpayable",
      "type": "function"
    },
    {
      "inputs": [
        {
          "internalType": "address",
          "name": "_token",
          "type": "address"
        },
        {
          "internalType": "uint256",
          "name": "_tokenId",
          "type": "uint256"
        }
      ],
      "name": "depositERC721",
      "outputs": [],
      "stateMutability": "nonpayable",
      "type": "function"
    },
    {
      "inputs": [
        {
          "internalType": "address",
          "name": "_token",
          "type": "address"
        },
        {
          "internalType": "address",
          "name": "_user",
          "type": "address"
        },
        {
          "internalType": "uint256",
          "name": "_tokenId",
          "type": "uint256"
        }
      ],
      "name": "depositERC721ForUser",
      "outputs": [],
      "stateMutability": "nonpayable",
      "type": "function"
    },
    {
      "inputs": [],
      "name": "depositEther",
      "outputs": [],
      "stateMutability": "payable",
      "type": "function"
    },
    {
      "inputs": [],
      "name": "depositIdCounter",
      "outputs": [
        {
          "internalType": "uint256",
          "name": "",
          "type": "uint256"
        }
      ],
      "stateMutability": "view",
      "type": "function"
    },
    {
      "inputs": [
        {
          "internalType": "uint256",
          "name": "",
          "type": "uint256"
        }
      ],
      "name": "deposits",
      "outputs": [
        {
          "internalType": "bytes32",
          "name": "depositHash",
          "type": "bytes32"
        },
        {
          "internalType": "uint256",
          "name": "createdAt",
          "type": "uint256"
        }
      ],
      "stateMutability": "view",
      "type": "function"
    },
    {
      "inputs": [
        {
          "internalType": "uint256",
          "name": "depositID",
          "type": "uint256"
        },
        {
          "internalType": "bytes",
          "name": "stateData",
          "type": "bytes"
        }
      ],
      "name": "executeState",
      "outputs": [
        {
          "internalType": "bool",
          "name": "",
          "type": "bool"
        }
      ],
      "stateMutability": "nonpayable",
      "type": "function"
    },
    {
      "inputs": [],
      "name": "governance",
      "outputs": [
        {
          "internalType": "contract IGovernance",
          "name": "",
          "type": "address"
        }
      ],
      "stateMutability": "view",
      "type": "function"
    },
    {
      "inputs": [],
      "name": "lock",
      "outputs": [],
      "stateMutability": "nonpayable",
      "type": "function"
    },
    {
      "inputs": [],
      "name": "locked",
      "outputs": [
        {
          "internalType": "bool",
          "name": "",
          "type": "bool"
        }
      ],
      "stateMutability": "view",
      "type": "function"
    },
    {
      "inputs": [],
      "name": "maxErc20Deposit",
      "outputs": [
        {
          "internalType": "uint256",
          "name": "",
          "type": "uint256"
        }
      ],
      "stateMutability": "view",
      "type": "function"
    },
    {
      "inputs": [
        {
          "internalType": "address",
          "name": "",
          "type": "address"
        },
        {
          "internalType": "address",
          "name": "_user",
          "type": "address"
        },
        {
          "internalType": "uint256",
          "name": "_tokenId",
          "type": "uint256"
        },
        {
          "internalType": "bytes",
          "name": "",
          "type": "bytes"
        }
      ],
      "name": "onERC721Received",
      "outputs": [
        {
          "internalType": "bytes4",
          "name": "",
          "type": "bytes4"
        }
      ],
      "stateMutability": "nonpayable",
      "type": "function"
    },
    {
      "inputs": [],
      "name": "owner",
      "outputs": [
        {
          "internalType": "address",
          "name": "",
          "type": "address"
        }
      ],
      "stateMutability": "view",
      "type": "function"
    },
    {
      "inputs": [],
      "name": "registry",
      "outputs": [
        {
          "internalType": "contract Registry",
          "name": "",
          "type": "address"
        }
      ],
      "stateMutability": "view",
      "type": "function"
    },
    {
      "inputs": [],
      "name": "renounceOwnership",
      "outputs": [],
      "stateMutability": "nonpayable",
      "type": "function"
    },
    {
      "inputs": [],
      "name": "stateSender",
      "outputs": [
        {
          "internalType": "contract IInboundStateSender",
          "name": "",
          "type": "address"
        }
      ],
      "stateMutability": "view",
      "type": "function"
    },
    {
      "inputs": [
        {
          "internalType": "address",
          "name": "_user",
          "type": "address"
        },
        {
          "internalType": "uint256",
          "name": "_amount",
          "type": "uint256"
        },
        {
          "internalType": "bytes",
          "name": "",
          "type": "bytes"
        }
      ],
      "name": "tokenFallback",
      "outputs": [],
      "stateMutability": "nonpayable",
      "type": "function"
    },
    {
      "inputs": [
        {
          "internalType": "address",
          "name": "_token",
          "type": "address"
        },
        {
          "internalType": "address",
          "name": "_user",
          "type": "address"
        },
        {
          "internalType": "uint256",
          "name": "_amountOrNFTId",
          "type": "uint256"
        }
      ],
      "name": "transferAssets",
      "outputs": [],
      "stateMutability": "nonpayable",
      "type": "function"
    },
    {
      "inputs": [
        {
          "internalType": "address",
          "name": "newOwner",
          "type": "address"
        }
      ],
      "name": "transferOwnership",
      "outputs": [],
      "stateMutability": "nonpayable",
      "type": "function"
    },
    {
      "inputs": [],
      "name": "unlock",
      "outputs": [],
      "stateMutability": "nonpayable",
      "type": "function"
    },
    {
      "inputs": [],
      "name": "updateChildChainAndStateSender",
      "outputs": [],
      "stateMutability": "nonpayable",
      "type": "function"
    },
    {
      "inputs": [
        {
          "internalType": "uint256",
          "name": "maxDepositAmount",
          "type": "uint256"
        }
      ],
      "name": "updateMaxErc20Deposit",
      "outputs": [],
      "stateMutability": "nonpayable",
      "type": "function"
    },
    {
      "stateMutability": "payable",
      "type": "receive"
    }
  ],
  "bytecode": "0x608080604052346100705760008054336001600160a01b0319808316821784559290916001600160a01b0316907f8be0079c531659141344cd1fd0a4f28419497f9722a3daafe3b4186f6b6457e09080a36002541660025568056bc75e2d63100000600855611b9790816100768239f35b600080fdfe604060808152600480361015610027575b5050361561001d57600080fd5b61002561182f565b005b600091823560e01c918263072b153514610fd0578263150b7a0214610cff57826342be837914610bb757826342fc47fb14610b8e57826349f4cc17146108825782634b56c07114610825578263533573fe146108065782635aa6e675146107dd578263715018a6146107835782637b1039991461075a578263813bc1c6146106e457826383e5a488146106af5782638b9e4f93146106975782638da5cb5b1461066f57826397feb9261461064857826398ea5fca14610634578263a69df4b5146105fe578263b02c43d0146105cb578263c0ee0b8a146102f2578263cb10f94c146102c9578263cf309012146102a2578263d29a4bf614610278578263e7af7ba114610255578263f2fde38b1461018857505063f83d08ba1461014a5780610010565b3461018557806003193601126101855761016f60018060a01b036002541633146111cf565b6001805460ff60a01b1916600160a01b17905580f35b80fd5b90915034610251576020366003190112610251576101a4610fe8565b906101ad611177565b6001600160a01b039182169283156101ff575050600054826001600160601b0360a01b821617600055167f8be0079c531659141344cd1fd0a4f28419497f9722a3daafe3b4186f6b6457e0600080a380f35b906020608492519162461bcd60e51b8352820152602660248201527f4f776e61626c653a206e6577206f776e657220697320746865207a65726f206160448201526564647265737360d01b6064820152fd5b8280fd5b8382346102745781600319360112610274576020906008549051908152f35b5080fd5b838234610274573660031901126101855761029f610294610fe8565b6024359033906115cb565b80f35b83823461027457816003193601126102745760209060ff60015460a01c1690519015158152f35b909150346102515782600319360112610251575490516001600160a01b03909116815260209150f35b91503461025157606090816003193601126105c75761030f610fe8565b91602480359260443567ffffffffffffffff81116105c35761033490369088016110b4565b5060ff60015460a01c16610598576003548151636416c18360e01b815233818901526020976001600160a01b0392909190899082908790829087165afa90811561058e578a91610561575b50156105295760055493600185018095116105185790899291856005556103a461110b565b8551808b8d87818085018781985192839101916103c09261112f565b840192169d6001600160601b0319908d1b1690820152338b1b60348201528b6048820152036048810182526068016103f89082611092565b5190208551906104078261104c565b81528a810142815287865260068c52868620915182555190600101558282541692600754169261043561110b565b93865180958d820160a0905260c0820161044e91611152565b8c89830152338b8301528b60808301528960a083015203601f19810186526104769086611092565b813b15610514578580946104a8899788519889978896879563f50aa84b60e01b87528601528401526044830190611152565b03925af1801561050a576104f2575b5050600080516020611b42833981519152936104e26104d461110b565b835195808752860190611152565b968401528201528033940390a380f35b6104fb9061107e565b6105065786386104b7565b8680fd5b83513d84823e3d90fd5b8580fd5b634e487b7160e01b8a526011825289fd5b825162461bcd60e51b8152908101889052601381850152721513d2d15397d393d517d4d5541413d4951151606a1b6044820152606490fd5b6105819150893d8b11610587575b6105798183611092565b81019061123e565b3861037f565b503d61056f565b84513d8c823e3d90fd5b600660649260208893519362461bcd60e51b8552840152820152651b1bd8dad95960d21b6044820152fd5b8780fd5b8380fd5b90915034610251576020366003190112610251579181923581526006602052206001815491015482519182526020820152f35b833461018557806003193601126101855761062460018060a01b036002541633146111cf565b6001805460ff60a01b1916905580f35b83806003193601126101855761029f61182f565b838234610274573660031901126101855761029f610664610fe8565b602435903390611256565b838234610274578160031936011261027457905490516001600160a01b039091168152602090f35b83346101855761029f6106a936611017565b91611256565b8382346102745781600319360112610274576106e0906106cd61110b565b9051918291602083526020830190611152565b0390f35b9083346101855781600319360112610185576024359267ffffffffffffffff9081851161025157366023860112156102515784013590811161027457830136602482011161027457836080910312610185575061075260448361074b602460209601611003565b5001611003565b505160018152f35b83823461027457816003193601126102745760035490516001600160a01b039091168152602090f35b833461018557806003193601126101855761079c611177565b600080546001600160a01b0319811682556001600160a01b03167f8be0079c531659141344cd1fd0a4f28419497f9722a3daafe3b4186f6b6457e08280a380f35b83823461027457816003193601126102745760025490516001600160a01b039091168152602090f35b8382346102745781600319360112610274576020906005549051908152f35b839034610274576020366003190112610274573561084e60018060a01b036002541633146111cf565b801561027457806008547f010c0265813c273963aa5e8683cf5c45a3b744ba6369c22af0958ec5fcf16b208480a360085580f35b8390346102745761089236611017565b60035486516337b1d58560e01b815233818701529396929492936001600160a01b039182169160249160209081818581885afa908115610b84578a91610b4b575b5086811015610b395760ff1615610b00578899875190638b9c948960e01b825282828981895afa918215610ab957849184918d94610ac3575b50868b51809481936336a8279560e21b835216998a8d8301525afa908115610ab9578b91610a9c575b50156109ad5750505050803b156105145783516323b872dd60e01b8152309381019384526001600160a01b0390951660208401526040830191909152849184919082908490829060600103925af19081156109a4575061099457505080f35b61099d9061107e565b6101855780f35b513d84823e3d90fd5b9180939596949299979899168214600014610a025750803b156105145760449386928851998a978896627b8a6760e11b885287015216908401525af19081156109a457506109f9575080f35b61029f9061107e565b95978693986044928997969951968795869463a9059cbb60e01b8652168c8501528a8401525af1908115610a92578691610a75575b5015610a44575050505080f35b5162461bcd60e51b815292830152600f908201526e1514905394d1915497d19052531151608a1b6044820152606490fd5b610a8c9150833d8511610587576105798183611092565b86610a37565b82513d88823e3d90fd5b610ab39150833d8511610587576105798183611092565b8c610935565b89513d8d823e3d90fd5b9250925081813d8311610af9575b610adb8183611092565b81010312610af55782610aee859261122a565b928e61090c565b8a80fd5b503d610ad1565b856015846064938a519362461bcd60e51b8552840152820152744e6f7420612076616c69642070726564696361746560581b6044820152fd5b634e487b7160e01b8a5260218752838afd5b90508181813d8311610b7d575b610b628183611092565b81010312610b79575186811015610b79578b6108d3565b8980fd5b503d610b58565b88513d8c823e3d90fd5b83823461027457816003193601126102745760075490516001600160a01b039091168152602090f35b9150346102515782600319360112610251576003548151630c91702f60e31b8152906001600160a01b0390839083908690829085165afa908115610cf55785928692610cad575b508085549216938183168514801590610c9d575b15610c3557506001600160601b0360a01b92168260075416176007551617905580f35b5162461bcd60e51b8152602081870152603e60248201527f41746c65617374206f6e65206f6620737461746553656e646572206f7220636860448201527f696c64436861696e20616464726573732073686f756c64206368616e676500006064820152608490fd5b5081600754168285161415610c12565b925090508282813d8111610cee575b610cc68183611092565b81010312610cea57610ce36020610cdc8461122a565b930161122a565b9038610bfe565b8480fd5b503d610cbc565b83513d87823e3d90fd5b90833461018557608036600319011261018557610d1a610fe8565b506001600160a01b039060248035838116929091838303610274576044359460643567ffffffffffffffff81116105c757610d589036908a016110b4565b5060ff60015460a01c16610fa55780600354169787518099636416c18360e01b82523383830152818560209c8d935afa908115610f9b578591610f7e575b5015610f46576005549460018601809611610f345785600555610db761110b565b90610e0960688c8c51938180610dd787948501988981519384920161112f565b8301916001600160601b03199060601b16908201523360601b60348201528c6048820152036048810184520182611092565b519020885190610e188261104c565b815260018a820142815287875260068c528a872092518355519101558181541691600754169060a0610e868b610e61610e4f61110b565b8d5194859384015260c0830190611152565b8a8d8301523360608301528b60808301528960a083015203601f198101835282611092565b833b1561051457918580959392610ebd8c9896948951998a978896879563f50aa84b60e01b87528601528401526044830190611152565b03925af1908115610f29575090600080516020611b428339815191529291610f1a575b50610ee961110b565b90610efe865192606084526060840190611152565b9487830152858201528033940390a351630a85bd0160e11b8152f35b610f239061107e565b86610ee0565b8651903d90823e3d90fd5b634e487b7160e01b8552601182528385fd5b875162461bcd60e51b8152908101899052601381840152721513d2d15397d393d517d4d5541413d4951151606a1b6044820152606490fd5b610f9591508a3d8c11610587576105798183611092565b8a610d96565b89513d87823e3d90fd5b865162461bcd60e51b81526020818a0152600681840152651b1bd8dad95960d21b6044820152606490fd5b83346101855761029f610fe236611017565b916115cb565b600435906001600160a01b0382168203610ffe57565b600080fd5b35906001600160a01b0382168203610ffe57565b6060906003190112610ffe576001600160a01b03906004358281168103610ffe57916024359081168103610ffe579060443590565b6040810190811067ffffffffffffffff82111761106857604052565b634e487b7160e01b600052604160045260246000fd5b67ffffffffffffffff811161106857604052565b90601f8019910116810190811067ffffffffffffffff82111761106857604052565b81601f82011215610ffe5780359067ffffffffffffffff821161106857604051926110e9601f8401601f191660200185611092565b82845260208383010111610ffe57816000926020809301838601378301015290565b604051906111188261104c565b6008825267455448455245554d60c01b6020830152565b60005b8381106111425750506000910152565b8181015183820152602001611132565b9060209161116b8151809281855285808601910161112f565b601f01601f1916010190565b6000546001600160a01b0316330361118b57565b606460405162461bcd60e51b815260206004820152602060248201527f4f776e61626c653a2063616c6c6572206973206e6f7420746865206f776e65726044820152fd5b156111d657565b60405162461bcd60e51b815260206004820152602660248201527f4f6e6c7920676f7665726e616e636520636f6e747261637420697320617574686044820152651bdc9a5e995960d21b6064820152608490fd5b51906001600160a01b0382168203610ffe57565b90816020910312610ffe57518015158103610ffe5790565b9091600854811161158657604080516323b872dd60e01b815233600480830191909152306024830152604482018490526001600160a01b03858116966020949093909260009290918681606481878e5af19081156114f8578491611569575b501561152e5760ff60015460a01c16611502578060035416868a6024875180948193636416c18360e01b8352888301525afa9081156114f85784916114db575b50156114a257600554946001860180961161148f578560055561131661110b565b9085518091898083018581965192839101916113319261112f565b8201908581169c6001600160601b0319809260601b168c84015260601b1660348201528a60488201520360488101825260680161136e9082611092565b51902084519061137d8261104c565b815286810142815286855260068852858520915182555190600101558082541690600754166113aa61110b565b928551809489820160a0905260c082016113c391611152565b8b888301528c60608301528a60808301528860a083015203601f19810185526113ec9085611092565b823b15610cea579184939184611423969488519788958694859363f50aa84b60e01b85528401528a60248401526044830190611152565b03925af1908115611484575091600080516020611b428339815191529593916114699593611475575b5061145561110b565b938151958695606087526060870190611152565b938501528301520390a3565b61147e9061107e565b3861144c565b8351903d90823e3d90fd5b634e487b7160e01b845260118352602484fd5b835162461bcd60e51b815280830187905260136024820152721513d2d15397d393d517d4d5541413d4951151606a1b6044820152606490fd5b6114f29150873d8911610587576105798183611092565b386112f5565b85513d86823e3d90fd5b835162461bcd60e51b815280830187905260066024820152651b1bd8dad95960d21b6044820152606490fd5b835162461bcd60e51b815280830187905260156024820152741513d2d15397d514905394d1915497d19052531151605a1b6044820152606490fd5b6115809150873d8911610587576105798183611092565b386112b5565b60405162461bcd60e51b815260206004820152601d60248201527f657863656564206d6178696d756d206465706f73697420616d6f756e740000006044820152606490fd5b6001600160a01b03808216939192843b15610ffe57604080516323b872dd60e01b81523360048083019190915230602483015260448201869052906000908181606481838d5af1801561182557611816575b509060ff60015460a01c166117ea5784600354169483518096636416c18360e01b82528a848301528160246020998a935afa9081156114f85784916117cd575b50156114a257600554946001860180961161148f578560055561167e61110b565b9085518091898083018581965192839101916116999261112f565b8201908581169c6001600160601b0319809260601b168c84015260601b1660348201528a6048820152036048810182526068016116d69082611092565b5190208451906116e58261104c565b8152868101428152868552600688528585209151825551906001015580825416906007541661171261110b565b928551809489820160a0905260c0820161172b91611152565b8b888301528c60608301528a60808301528860a083015203601f19810185526117549085611092565b823b15610cea579161178a939185809488519687958694859363f50aa84b60e01b85528401528a60248401526044830190611152565b03925af1801561050a576117b9575b505091600080516020611b4283398151915293916114699361145561110b565b6117c3829161107e565b6101855780611799565b6117e49150873d8911610587576105798183611092565b3861165d565b606490602084519162461bcd60e51b835282015260066024820152651b1bd8dad95960d21b6044820152fd5b61181f9061107e565b3861161d565b84513d84823e3d90fd5b600354600060408051638b9c948960e01b81526020926004948483878160018060a01b038095165afa928315611825578293611b0a575b5080831695863b15610251578451630d0e30db60e41b815283818381348c5af18015611ac157611af7575b5060ff60015460a01c16611acb576024868360035416875192838092636416c18360e01b82528c878301525afa908115611ac1578491611aa4575b5015611a6b576005549360018501809511611a5857906119999291856005556118f361110b565b906119446068895180938c611911818401978881519384920161112f565b8201908d3360601b908301526001600160601b03199060601b166034820152346048820152036048810184520182611092565b5190208651906119538261104c565b8152600188820142815287875260068a528887209251835551910155818154169160075416906119be61198461110b565b885195869160a08c84015260c0830190611152565b338a8301528b60608301523460808301528860a083015203601f198101865285611092565b823b15610cea57916119f4939185809489519687958694859363f50aa84b60e01b85528401528b60248401526044830190611152565b03925af1801561182557611a44575b505090600080516020611b4283398151915291611a1e61110b565b91611a33815193606085526060850190611152565b9434908401528201528033930390a3565b611a4e829161107e565b6101855780611a03565b634e487b7160e01b845260118252602484fd5b845162461bcd60e51b815290810186905260136024820152721513d2d15397d393d517d4d5541413d4951151606a1b6044820152606490fd5b611abb9150873d8911610587576105798183611092565b386118cc565b86513d86823e3d90fd5b845162461bcd60e51b815290810186905260066024820152651b1bd8dad95960d21b6044820152606490fd5b611b039093919361107e565b9138611891565b9092508481813d8311611b3a575b611b228183611092565b8101031261027457611b339061122a565b9138611866565b503d611b1856fe68fee90123ba9d0a2d62dd0659908479218c7dcfceeb184a9634f5941d7da447a2646970667358221220d800881d54c48ae92d3cfc4d067f531058582036cae0fe755ada88ad8d91715864736f6c63430008130033",
  "linkReferences": {},
  "deployedLinkReferences": {}
}