{
  "_format": "hh-sol-artifact-1",
  "contractName": "OldRouter",
  "sourceName": "contracts/router/OldROuterContract.sol",
  "abi": [
    {
      "inputs": [],
      "stateMutability": "nonpayable",
      "type": "constructor"
    },
    {
      "anonymous": false,
      "inputs": [
        {
          "indexed": false,
          "internalType": "address",
          "name": "previousAdmin",
          "type": "address"
        },
        {
          "indexed": false,
          "internalType": "address",
          "name": "newAdmin",
          "type": "address"
        }
      ],
      "name": "AdminChanged",
      "type": "event"
    },
    {
      "anonymous": false,
      "inputs": [
        {
          "indexed": true,
          "internalType": "address",
          "name": "beacon",
          "type": "address"
        }
      ],
      "name": "BeaconUpgraded",
      "type": "event"
    },
    {
      "anonymous": false,
      "inputs": [
        {
          "indexed": true,
          "internalType": "address",
          "name": "to",
          "type": "address"
        },
        {
          "indexed": true,
          "internalType": "address",
          "name": "asset",
          "type": "address"
        },
        {
          "indexed": false,
          "internalType": "uint256",
          "name": "amount",
          "type": "uint256"
        },
        {
          "indexed": false,
          "internalType": "string",
          "name": "memo",
          "type": "string"
        }
      ],
      "name": "Deposit",
      "type": "event"
    },
    {
      "anonymous": false,
      "inputs": [
        {
          "indexed": false,
          "internalType": "uint8",
          "name": "version",
          "type": "uint8"
        }
      ],
      "name": "Initialized",
      "type": "event"
    },
    {
      "anonymous": false,
      "inputs": [
        {
          "indexed": true,
          "internalType": "address",
          "name": "previousOwner",
          "type": "address"
        },
        {
          "indexed": true,
          "internalType": "address",
          "name": "newOwner",
          "type": "address"
        }
      ],
      "name": "OwnershipTransferred",
      "type": "event"
    },
    {
      "anonymous": false,
      "inputs": [
        {
          "indexed": true,
          "internalType": "address",
          "name": "oldVault",
          "type": "address"
        },
        {
          "indexed": true,
          "internalType": "address",
          "name": "newVault",
          "type": "address"
        },
        {
          "indexed": false,
          "internalType": "address",
          "name": "asset",
          "type": "address"
        },
        {
          "indexed": false,
          "internalType": "uint256",
          "name": "amount",
          "type": "uint256"
        },
        {
          "indexed": false,
          "internalType": "string",
          "name": "memo",
          "type": "string"
        }
      ],
      "name": "TransferAllowance",
      "type": "event"
    },
    {
      "anonymous": false,
      "inputs": [
        {
          "indexed": true,
          "internalType": "address",
          "name": "vault",
          "type": "address"
        },
        {
          "indexed": true,
          "internalType": "address",
          "name": "to",
          "type": "address"
        },
        {
          "indexed": false,
          "internalType": "address",
          "name": "asset",
          "type": "address"
        },
        {
          "indexed": false,
          "internalType": "uint256",
          "name": "amount",
          "type": "uint256"
        },
        {
          "indexed": false,
          "internalType": "string",
          "name": "memo",
          "type": "string"
        }
      ],
      "name": "TransferOut",
      "type": "event"
    },
    {
      "anonymous": false,
      "inputs": [
        {
          "indexed": true,
          "internalType": "address",
          "name": "implementation",
          "type": "address"
        }
      ],
      "name": "Upgraded",
      "type": "event"
    },
    {
      "anonymous": false,
      "inputs": [
        {
          "indexed": true,
          "internalType": "address",
          "name": "oldVault",
          "type": "address"
        },
        {
          "indexed": true,
          "internalType": "address",
          "name": "newVault",
          "type": "address"
        },
        {
          "components": [
            {
              "internalType": "address",
              "name": "asset",
              "type": "address"
            },
            {
              "internalType": "uint256",
              "name": "amount",
              "type": "uint256"
            }
          ],
          "indexed": false,
          "internalType": "struct OldRouter.Coin[]",
          "name": "coins",
          "type": "tuple[]"
        },
        {
          "indexed": false,
          "internalType": "string",
          "name": "memo",
          "type": "string"
        }
      ],
      "name": "VaultTransfer",
      "type": "event"
    },
    {
      "inputs": [],
      "name": "RUNE",
      "outputs": [
        {
          "internalType": "address",
          "name": "",
          "type": "address"
        }
      ],
      "stateMutability": "view",
      "type": "function"
    },
    {
      "inputs": [
        {
          "internalType": "address",
          "name": "newOwner",
          "type": "address"
        }
      ],
      "name": "changeOwner",
      "outputs": [],
      "stateMutability": "nonpayable",
      "type": "function"
    },
    {
      "inputs": [
        {
          "internalType": "address payable",
          "name": "vault",
          "type": "address"
        },
        {
          "internalType": "address",
          "name": "asset",
          "type": "address"
        },
        {
          "internalType": "uint256",
          "name": "amount",
          "type": "uint256"
        },
        {
          "internalType": "string",
          "name": "memo",
          "type": "string"
        }
      ],
      "name": "deposit",
      "outputs": [],
      "stateMutability": "payable",
      "type": "function"
    },
    {
      "inputs": [
        {
          "internalType": "address payable",
          "name": "vault",
          "type": "address"
        },
        {
          "internalType": "address",
          "name": "asset",
          "type": "address"
        },
        {
          "internalType": "uint256",
          "name": "amount",
          "type": "uint256"
        },
        {
          "internalType": "string",
          "name": "memo",
          "type": "string"
        },
        {
          "internalType": "uint256",
          "name": "expiration",
          "type": "uint256"
        }
      ],
      "name": "depositWithExpiry",
      "outputs": [],
      "stateMutability": "payable",
      "type": "function"
    },
    {
      "inputs": [
        {
          "internalType": "address",
          "name": "rune",
          "type": "address"
        }
      ],
      "name": "initialize",
      "outputs": [],
      "stateMutability": "nonpayable",
      "type": "function"
    },
    {
      "inputs": [],
      "name": "owner",
      "outputs": [
        {
          "internalType": "address",
          "name": "",
          "type": "address"
        }
      ],
      "stateMutability": "view",
      "type": "function"
    },
    {
      "inputs": [],
      "name": "proxiableUUID",
      "outputs": [
        {
          "internalType": "bytes32",
          "name": "",
          "type": "bytes32"
        }
      ],
      "stateMutability": "view",
      "type": "function"
    },
    {
      "inputs": [],
      "name": "renounceOwnership",
      "outputs": [],
      "stateMutability": "nonpayable",
      "type": "function"
    },
    {
      "inputs": [
        {
          "internalType": "address",
          "name": "router",
          "type": "address"
        },
        {
          "internalType": "address payable",
          "name": "asgard",
          "type": "address"
        },
        {
          "components": [
            {
              "internalType": "address",
              "name": "asset",
              "type": "address"
            },
            {
              "internalType": "uint256",
              "name": "amount",
              "type": "uint256"
            }
          ],
          "internalType": "struct OldRouter.Coin[]",
          "name": "coins",
          "type": "tuple[]"
        },
        {
          "internalType": "string",
          "name": "memo",
          "type": "string"
        }
      ],
      "name": "returnVaultAssets",
      "outputs": [],
      "stateMutability": "payable",
      "type": "function"
    },
    {
      "inputs": [
        {
          "internalType": "address",
          "name": "router",
          "type": "address"
        },
        {
          "internalType": "address",
          "name": "newVault",
          "type": "address"
        },
        {
          "internalType": "address",
          "name": "asset",
          "type": "address"
        },
        {
          "internalType": "uint256",
          "name": "amount",
          "type": "uint256"
        },
        {
          "internalType": "string",
          "name": "memo",
          "type": "string"
        }
      ],
      "name": "transferAllowance",
      "outputs": [],
      "stateMutability": "nonpayable",
      "type": "function"
    },
    {
      "inputs": [
        {
          "internalType": "address payable",
          "name": "to",
          "type": "address"
        },
        {
          "internalType": "address",
          "name": "asset",
          "type": "address"
        },
        {
          "internalType": "uint256",
          "name": "amount",
          "type": "uint256"
        },
        {
          "internalType": "string",
          "name": "memo",
          "type": "string"
        }
      ],
      "name": "transferOut",
      "outputs": [],
      "stateMutability": "payable",
      "type": "function"
    },
    {
      "inputs": [
        {
          "internalType": "address",
          "name": "newOwner",
          "type": "address"
        }
      ],
      "name": "transferOwnership",
      "outputs": [],
      "stateMutability": "nonpayable",
      "type": "function"
    },
    {
      "inputs": [
        {
          "internalType": "address",
          "name": "newImplementation",
          "type": "address"
        }
      ],
      "name": "upgradeTo",
      "outputs": [],
      "stateMutability": "nonpayable",
      "type": "function"
    },
    {
      "inputs": [
        {
          "internalType": "address",
          "name": "newImplementation",
          "type": "address"
        },
        {
          "internalType": "bytes",
          "name": "data",
          "type": "bytes"
        }
      ],
      "name": "upgradeToAndCall",
      "outputs": [],
      "stateMutability": "payable",
      "type": "function"
    },
    {
      "inputs": [
        {
          "internalType": "address",
          "name": "vault",
          "type": "address"
        },
        {
          "internalType": "address",
          "name": "token",
          "type": "address"
        }
      ],
      "name": "vaultAllowance",
      "outputs": [
        {
          "internalType": "uint256",
          "name": "amount",
          "type": "uint256"
        }
      ],
      "stateMutability": "view",
      "type": "function"
    }
  ],
  "bytecode": "0x60a080604052346100dc57306080526000549060ff8260081c1661008a575060ff8082160361004f575b604051611d2190816100e282396080518181816105b3015281816106b00152610cce0152f35b60ff90811916176000557f7f26b83ff96e1f2b6a682f133852f6798a09c465da95921460cefb3847402498602060405160ff8152a138610029565b62461bcd60e51b815260206004820152602760248201527f496e697469616c697a61626c653a20636f6e747261637420697320696e697469604482015266616c697a696e6760c81b6064820152608490fd5b600080fdfe6080604081815260048036101561001557600080fd5b600092833560e01c90816303b6a673146115ae575080631b738b32146114e35780631fece7b4146111e95780632923e82e14610f545780633659cfe614610ca757806344bc937b1461090e5780634f1ef2861461066057806352d1902d1461059e578063574da717146103d3578063715018a6146103725780638da5cb5b1461034957806393e4eaa91461031c578063a6f9dae114610302578063c4d66de81461015c5763f2fde38b146100c857600080fd5b34610158576020366003190112610158576100e16115f4565b916100ea611768565b6001600160a01b038316156101065783610103846117c0565b80f35b906020608492519162461bcd60e51b8352820152602660248201527f4f776e61626c653a206e6577206f776e657220697320746865207a65726f206160448201526564647265737360d01b6064820152fd5b8280fd5b5034610158576020366003190112610158576101766115f4565b83549060ff8260081c1615918280936102f5575b80156102de575b156102845760ff198116600117865582610273575b5084549260ff8460081c161561021c575060018060a01b03166bffffffffffffffffffffffff60a01b60c954161760c955600160cb556101e4578280f35b61ff001916825551600181527f7f26b83ff96e1f2b6a682f133852f6798a09c465da95921460cefb384740249890602090a138808280f35b608490602086519162461bcd60e51b8352820152602b60248201527f496e697469616c697a61626c653a20636f6e7472616374206973206e6f74206960448201526a6e697469616c697a696e6760a81b6064820152fd5b61ffff1916610101178555386101a6565b845162461bcd60e51b8152602081860152602e60248201527f496e697469616c697a61626c653a20636f6e747261637420697320616c72656160448201526d191e481a5b9a5d1a585b1a5e995960921b6064820152608490fd5b50303b1580156101915750600160ff821614610191565b50600160ff82161061018a565b5034610158576020366003190112610158576100e16115f4565b50503461034557816003193601126103455760c95490516001600160a01b039091168152602090f35b5080fd5b50503461034557816003193601126103455760975490516001600160a01b039091168152602090f35b83346103d057806003193601126103d05761038b611768565b609780546001600160a01b031981169091556000906001600160a01b03167f8be0079c531659141344cd1fd0a4f28419497f9722a3daafe3b4186f6b6457e08280a380f35b80fd5b506103dd36611715565b939192906103f0600260cb541415611a68565b600260cb556001600160a01b0392848416806104a8575050503493868581808215928361049e575b8280929181928a8a1690f11561046d575b5050610462907fa9cd03aa3c1b4515114539cd53d22085129d495cb9e9f9af77864526240f1bf79495965b519384931696339684611aef565b0390a3600160cb5580f35b868291610494575b8280929181923390f11561048a578638610429565b85513d88823e3d90fd5b6108fc9150610475565b6108fc9150610418565b95949533895260ca60205287892090600052602052866000206104cc838254611b13565b90558651602081019163a9059cbb60e01b8352858516602483015283604483015260448252608082019082821067ffffffffffffffff8311176105895750885251889182919082895af161051e61195b565b8161055a575b5015610556577fa9cd03aa3c1b4515114539cd53d22085129d495cb9e9f9af77864526240f1bf7936104629196610454565b8680fd5b805180159250821561056f575b505038610524565b6105829250602080918301019101611ad7565b3880610567565b604190634e487b7160e01b6000525260246000fd5b5082346103d057806003193601126103d057507f00000000000000000000000000000000000000000000000000000000000000006001600160a01b031630036105f85760208251600080516020611cac8339815191528152f35b6020608492519162461bcd60e51b8352820152603860248201527f555550535570677261646561626c653a206d757374206e6f742062652063616c60448201527f6c6564207468726f7567682064656c656761746563616c6c00000000000000006064820152fd5b509080600319360112610158576106756115f4565b9060243567ffffffffffffffff811161090a573660238201121561090a576106a690369060248187013591016116c0565b6001600160a01b037f000000000000000000000000000000000000000000000000000000000000000081169291906106e030851415611809565b6106fd600080516020611cac83398151915294828654161461186a565b610705611768565b7f4910fdfa16fed3260ed0e7147f7cc6da11a60208b5b9406d12a635614ffd91435460ff161561073d575050505061010391506118cb565b82516352d1902d60e01b81526020959394918416919086818981865afa600091816108db575b506107c257855162461bcd60e51b8152808901889052602e60248201527f45524331393637557067726164653a206e657720696d706c656d656e7461746960448201526d6f6e206973206e6f74205555505360901b6064820152608490fd5b969192939495960361088657506107d8836118cb565b7fbc7cd75a20ee27fd9adebab32041f755214dbc6bffa90cc0225b39da2e5c2d3b600080a280511580159061087e575b610814575b5050505080f35b6000809161087495660819985a5b195960ca1b86519661083388611666565b602788527f416464726573733a206c6f772d6c6576656c2064656c65676174652063616c6c8389015287015281519101845af461086e61195b565b9161198b565b503880808061080d565b506001610808565b845162461bcd60e51b8152908101869052602960248201527f45524331393637557067726164653a20756e737570706f727465642070726f786044820152681a58589b195555525160ba1b6064820152608490fd5b90918882813d8311610903575b6108f28183611682565b810103126103d05750519038610763565b503d6108e8565b8480fd5b509060a0366003190112610158576109246115f4565b9161092d61160a565b926044359160643567ffffffffffffffff81116105565761095190369083016116f7565b92608435421015610c725761096b600260cb541415611a68565b600260cb556001600160a01b038681169690918891886109dc575050509050349086808380156109d2575b82809291819286891690f11561055657600080516020611ccc83398151915293610462915b865194859485528760208601521695830190611a28565b6108fc9150610996565b60c95484168903610ad4575060c95487516302ccb1b360e41b81523081870190815260208181018590529396879490939091839188169082908890829060400103925af18015610aca57610a9c575b508360c9541691823b15610a985760248492838b519586948593630852cd8d60e31b85528401525af18015610a8e57610a7a575b5050600080516020611ccc83398151915293610462916109bb565b610a8390611620565b610556578638610a5f565b87513d84823e3d90fd5b8380fd5b610abc9060203d8111610ac3575b610ab48183611682565b810190611ad7565b5038610a2b565b503d610aaa565b89513d86823e3d90fd5b87516370a0823160e01b808252308288015297602096909594919390929087856024818f5afa948515610c68578395610c33575b50908291828c518a8101926323b872dd60e01b8452336024830152306044830152606482015260648152610b3b8161164a565b51925af1610b4761195b565b81610c03575b5015610bff578751968752309087015283866024818b5afa958615610bf5578996610bbb575b5090610b926104629392600080516020611ccc83398151915297611b13565b938186168a5260ca8152878a2090896000525286600020610bb4858254611ab4565b90556109bb565b955091908386813d8311610bee575b610bd48183611682565b81010312610be9579451949091610b92610b73565b600080fd5b503d610bca565b87513d8b823e3d90fd5b8980fd5b80518015925087908315610c1b575b50505038610b4d565b610c2b9350820181019101611ad7565b388681610c12565b8880929650819394503d8311610c61575b610c4e8183611682565b81010312610be95751928b919082610b08565b503d610c44565b8b513d85823e3d90fd5b845162461bcd60e51b8152602081840152600f60248201526e149bdd5d195c8e88195e1c1a5c9959608a1b6044820152606490fd5b50903461015857602080600319360112610a9857610cc36115f4565b916001600160a01b037f00000000000000000000000000000000000000000000000000000000000000008116610cfb30821415611809565b610d18600080516020611cac83398151915291838354161461186a565b610d20611768565b8251908482019282841067ffffffffffffffff851117610f3f578385528883527f4910fdfa16fed3260ed0e7147f7cc6da11a60208b5b9406d12a635614ffd91435460ff1615610d7a5750505050505061010391506118cb565b8693949596169085516352d1902d60e01b815287818a81865afa60009181610f10575b50610dfc57865162461bcd60e51b8152808a01899052602e60248201527f45524331393637557067726164653a206e657720696d706c656d656e7461746960448201526d6f6e206973206e6f74205555505360901b6064820152608490fd5b979192949795939503610ebb5750610e13846118cb565b7fbc7cd75a20ee27fd9adebab32041f755214dbc6bffa90cc0225b39da2e5c2d3b600080a2815115801590610eb3575b610e50575b505050505080f35b610ea894600092660819985a5b195960ca1b837f416464726573733a206c6f772d6c6576656c2064656c65676174652063616c6c86955198610e918a611666565b60278a528901528701525190845af461086e61195b565b503880808080610e48565b506000610e43565b825162461bcd60e51b8152908101869052602960248201527f45524331393637557067726164653a20756e737570706f727465642070726f786044820152681a58589b195555525160ba1b6064820152608490fd5b90918982813d8311610f38575b610f278183611682565b810103126103d05750519038610d9d565b503d610f1d565b604188634e487b7160e01b6000525260246000fd5b50608036600319011261015857610f696115f4565b92610f7261160a565b936044359167ffffffffffffffff9586841161034557366023850112156103455783850135948786116111d657865197602095610fb4878960051b018b611682565b878a52868a0180986024809160061b840101923684116111d2578101915b8383106111765750505050606435908111610a9857610ff3913691016116f7565b611002600260cb541415611a68565b600260cb556001600160a01b03938085163003611117575094958184169590835b895181101561106157806110578b8961104d848b61104461105c9886611b2f565b51511693611b2f565b510151908b611b59565b611b20565b611023565b508051818152985189820181905294989397929695919460608501939189905b8282106110f5575050505093869791937f281daef48d91e5cd3d32db0784f6af69cd8d8d2e8c612a3568dca51ded51e08f84806110cc888c9b989a8c9b8c9b03908401523395611a28565b0390a35b829034156110eb575b34921690f1156103d057600160cb5580f35b6108fc91506110d9565b835180518d168752850151858701529485019492840192600190910190611081565b9550969391809391965092818716935b855181101561116157806110578a8561114361115c958b611b2f565b51511687611151858c611b2f565b51015190898c611bae565b611127565b509650869591508594508493508392506110d0565b8b833603126111d2578b51908c8201828110878211176111be578d528335906001600160a01b0382168203610be957828c928f94528286013583820152815201920191610fd2565b83604189634e487b7160e01b600052526000fd5b8780fd5b634e487b7160e01b835260419052602482fd5b50906111f436611715565b92919490611207600260cb541415611a68565b600260cb556001600160a01b038681169690929088908861126c5750505050349086808380156109d25782809291819286891690f11561055657600080516020611ccc8339815191529361046291865194859485528760208601521695830190611a28565b8460c997959496975416891460001461136b575060c95487516302ccb1b360e41b815230848201908152602081810189905288939091839188169082908790829060400103925af1801561136157611343575b508360c9541692833b1561015857602490838a519586948593630852cd8d60e31b85528401525af180156113395761130e575b50600080516020611ccc833981519152939291610462916109bb565b91610462919761132e600080516020611ccc833981519152969594611620565b9791509192936112f2565b86513d8a823e3d90fd5b61135a9060203d8111610ac357610ab48183611682565b50386112bf565b89513d85823e3d90fd5b87516370a0823160e01b808252308286015297966020969594919391929087856024818f5afa948515610c685783956114b2575b50908291828c518a8101926323b872dd60e01b84523360248301523060448301526064820152606481526113d28161164a565b51925af16113de61195b565b81611482575b5015610bff578751968752309087015283866024818b5afa958615610bf5578996611449575b50906114296104629392600080516020611ccc83398151915297611b13565b938186168a5260ca8152878a2090898b5252868920610bb4858254611ab4565b955091908386813d831161147b575b6114628183611682565b8101031261147757945194909161142961140a565b8880fd5b503d611458565b8051801592508790831561149a575b505050386113e4565b6114aa9350820181019101611ad7565b388681611491565b919094508782813d83116114dc575b6114cb8183611682565b81010312610158579051938261139f565b503d6114c1565b50346101585760a0366003190112610158576114fd6115f4565b9161150661160a565b604435916001600160a01b039190828416840361055657606435946084359067ffffffffffffffff821161147757611540913691016116f7565b95611550600260cb541415611a68565b600260cb55808416300361159a575084956104629161045486977f05b90458f953d3fcb2d7fb25616a2fddeca749d0c47cc5c9832d0266b5346eea9786611b59565b600160cb5580f35b90506115a99594939250611bae565b611592565b849084346101585780600319360112610158576020926115cc6115f4565b6115d461160a565b6001600160a01b03918216835260ca865283832091168252845220548152f35b600435906001600160a01b0382168203610be957565b602435906001600160a01b0382168203610be957565b67ffffffffffffffff811161163457604052565b634e487b7160e01b600052604160045260246000fd5b60a0810190811067ffffffffffffffff82111761163457604052565b6060810190811067ffffffffffffffff82111761163457604052565b90601f8019910116810190811067ffffffffffffffff82111761163457604052565b67ffffffffffffffff811161163457601f01601f191660200190565b9291926116cc826116a4565b916116da6040519384611682565b829481845281830111610be9578281602093846000960137010152565b9080601f83011215610be957816020611712933591016116c0565b90565b906080600319830112610be9576001600160a01b03916004358381168103610be957926024359081168103610be95791604435916064359067ffffffffffffffff8211610be957611712916004016116f7565b6097546001600160a01b0316330361177c57565b606460405162461bcd60e51b815260206004820152602060248201527f4f776e61626c653a2063616c6c6572206973206e6f7420746865206f776e65726044820152fd5b609780546001600160a01b039283166001600160a01b0319821681179092559091167f8be0079c531659141344cd1fd0a4f28419497f9722a3daafe3b4186f6b6457e0600080a3565b1561181057565b60405162461bcd60e51b815260206004820152602c60248201527f46756e6374696f6e206d7573742062652063616c6c6564207468726f7567682060448201526b19195b1959d85d1958d85b1b60a21b6064820152608490fd5b1561187157565b60405162461bcd60e51b815260206004820152602c60248201527f46756e6374696f6e206d7573742062652063616c6c6564207468726f7567682060448201526b6163746976652070726f787960a01b6064820152608490fd5b803b1561190057600080516020611cac83398151915280546001600160a01b0319166001600160a01b03909216919091179055565b60405162461bcd60e51b815260206004820152602d60248201527f455243313936373a206e657720696d706c656d656e746174696f6e206973206e60448201526c1bdd08184818dbdb9d1c9858dd609a1b6064820152608490fd5b3d15611986573d9061196c826116a4565b9161197a6040519384611682565b82523d6000602084013e565b606090565b919290156119ed575081511561199f575090565b3b156119a85790565b60405162461bcd60e51b815260206004820152601d60248201527f416464726573733a2063616c6c20746f206e6f6e2d636f6e74726163740000006044820152606490fd5b825190915015611a005750805190602001fd5b60405162461bcd60e51b815260206004820152908190611a24906024830190611a28565b0390fd5b919082519283825260005b848110611a54575050826000602080949584010152601f8019910116010190565b602081830181015184830182015201611a33565b15611a6f57565b60405162461bcd60e51b815260206004820152601f60248201527f5265656e7472616e637947756172643a207265656e7472616e742063616c6c006044820152606490fd5b91908201809211611ac157565b634e487b7160e01b600052601160045260246000fd5b90816020910312610be957518015158103610be95790565b611712939260609260018060a01b0316825260208201528160408201520190611a28565b91908203918211611ac157565b6000198114611ac15760010190565b8051821015611b435760209160051b010190565b634e487b7160e01b600052603260045260246000fd5b611baa9160409160009133835260ca6020528383209160018060a01b0380921692838552602052848420611b8e888254611b13565b905516825260ca60205282822090825260205220918254611ab4565b9055565b90949360009233845260ca6020526040842092848060018060a01b03938481169687835260205260408220611be48a8254611b13565b905560405163095ea7b360e01b602082019081526001600160a01b038616602483015260448083018c90528252908390611c1f606482611682565b51925af1611c2b61195b565b501561090a57811691823b1561090a5784959697611c798692604051998a97889687956344bc937b60e01b87521660048601526024850152604484015260a0606484015260a4830190611a28565b600019608483015203925af1908115611c9f5750611c945750565b611c9d90611620565b565b604051903d90823e3d90fdfe360894a13ba1a3210667c828492db98dca3e2076cc3735a920a3ca505d382bbcef519b7eb82aaf6ac376a6df2d793843ebfd593de5f1a0601d3cc6ab49ebb395a26469706673582212203a79a7e7df25ac1741a95437cda58dd083a2f953b58f2d5fd9db6a79563050ec64736f6c63430008130033",
  "linkReferences": {},
  "deployedLinkReferences": {}
}