{
  "_format": "hh-sol-artifact-1",
  "contractName": "WrappedCrossERC20Token",
  "sourceName": "contracts/rollupEndToEnd/WrappedCrossERC20Toke.sol",
  "abi": [
    {
      "inputs": [
        {
          "internalType": "string",
          "name": "name_",
          "type": "string"
        },
        {
          "internalType": "string",
          "name": "symbol_",
          "type": "string"
        },
        {
          "internalType": "address",
          "name": "stateSender_",
          "type": "address"
        },
        {
          "internalType": "address",
          "name": "stateSyncerVerifier_",
          "type": "address"
        }
      ],
      "stateMutability": "nonpayable",
      "type": "constructor"
    },
    {
      "inputs": [],
      "name": "InvalidAmount",
      "type": "error"
    },
    {
      "inputs": [
        {
          "internalType": "uint256",
          "name": "expected",
          "type": "uint256"
        },
        {
          "internalType": "uint256",
          "name": "actual",
          "type": "uint256"
        }
      ],
      "name": "InvalidMsgValue",
      "type": "error"
    },
    {
      "inputs": [
        {
          "internalType": "address",
          "name": "vault",
          "type": "address"
        }
      ],
      "name": "WithdrawEthFail",
      "type": "error"
    },
    {
      "anonymous": false,
      "inputs": [
        {
          "indexed": true,
          "internalType": "address",
          "name": "owner",
          "type": "address"
        },
        {
          "indexed": true,
          "internalType": "address",
          "name": "spender",
          "type": "address"
        },
        {
          "indexed": false,
          "internalType": "uint256",
          "name": "value",
          "type": "uint256"
        }
      ],
      "name": "Approval",
      "type": "event"
    },
    {
      "anonymous": false,
      "inputs": [
        {
          "indexed": false,
          "internalType": "bytes32",
          "name": "chainName",
          "type": "bytes32"
        },
        {
          "indexed": false,
          "internalType": "bytes",
          "name": "contractAddress",
          "type": "bytes"
        }
      ],
      "name": "ChainContractMappingUpdated",
      "type": "event"
    },
    {
      "anonymous": false,
      "inputs": [
        {
          "indexed": true,
          "internalType": "address",
          "name": "newEthereumERC20Token",
          "type": "address"
        }
      ],
      "name": "EthereumERC20TokenUpdated",
      "type": "event"
    },
    {
      "anonymous": false,
      "inputs": [
        {
          "indexed": true,
          "internalType": "address",
          "name": "newOutboundStateSender",
          "type": "address"
        }
      ],
      "name": "OutboundStateSenderUpdated",
      "type": "event"
    },
    {
      "anonymous": false,
      "inputs": [
        {
          "indexed": true,
          "internalType": "bytes32",
          "name": "role",
          "type": "bytes32"
        },
        {
          "indexed": true,
          "internalType": "bytes32",
          "name": "previousAdminRole",
          "type": "bytes32"
        },
        {
          "indexed": true,
          "internalType": "bytes32",
          "name": "newAdminRole",
          "type": "bytes32"
        }
      ],
      "name": "RoleAdminChanged",
      "type": "event"
    },
    {
      "anonymous": false,
      "inputs": [
        {
          "indexed": true,
          "internalType": "bytes32",
          "name": "role",
          "type": "bytes32"
        },
        {
          "indexed": true,
          "internalType": "address",
          "name": "account",
          "type": "address"
        },
        {
          "indexed": true,
          "internalType": "address",
          "name": "sender",
          "type": "address"
        }
      ],
      "name": "RoleGranted",
      "type": "event"
    },
    {
      "anonymous": false,
      "inputs": [
        {
          "indexed": true,
          "internalType": "bytes32",
          "name": "role",
          "type": "bytes32"
        },
        {
          "indexed": true,
          "internalType": "address",
          "name": "account",
          "type": "address"
        },
        {
          "indexed": true,
          "internalType": "address",
          "name": "sender",
          "type": "address"
        }
      ],
      "name": "RoleRevoked",
      "type": "event"
    },
    {
      "anonymous": false,
      "inputs": [
        {
          "indexed": true,
          "internalType": "address",
          "name": "from",
          "type": "address"
        },
        {
          "indexed": true,
          "internalType": "address",
          "name": "to",
          "type": "address"
        },
        {
          "indexed": false,
          "internalType": "uint256",
          "name": "value",
          "type": "uint256"
        }
      ],
      "name": "Transfer",
      "type": "event"
    },
    {
      "anonymous": false,
      "inputs": [
        {
          "indexed": true,
          "internalType": "address",
          "name": "user",
          "type": "address"
        },
        {
          "indexed": false,
          "internalType": "uint256",
          "name": "amount",
          "type": "uint256"
        },
        {
          "indexed": false,
          "internalType": "uint256",
          "name": "transferId",
          "type": "uint256"
        }
      ],
      "name": "WrappedTokensBurned",
      "type": "event"
    },
    {
      "anonymous": false,
      "inputs": [
        {
          "indexed": true,
          "internalType": "address",
          "name": "user",
          "type": "address"
        },
        {
          "indexed": false,
          "internalType": "uint256",
          "name": "amount",
          "type": "uint256"
        },
        {
          "indexed": false,
          "internalType": "uint256",
          "name": "depositId",
          "type": "uint256"
        }
      ],
      "name": "WrappedTokensMinted",
      "type": "event"
    },
    {
      "inputs": [],
      "name": "ADMIN_ROLE",
      "outputs": [
        {
          "internalType": "bytes32",
          "name": "",
          "type": "bytes32"
        }
      ],
      "stateMutability": "view",
      "type": "function"
    },
    {
      "inputs": [],
      "name": "DEFAULT_ADMIN_ROLE",
      "outputs": [
        {
          "internalType": "bytes32",
          "name": "",
          "type": "bytes32"
        }
      ],
      "stateMutability": "view",
      "type": "function"
    },
    {
      "inputs": [
        {
          "internalType": "address",
          "name": "owner",
          "type": "address"
        },
        {
          "internalType": "address",
          "name": "spender",
          "type": "address"
        }
      ],
      "name": "allowance",
      "outputs": [
        {
          "internalType": "uint256",
          "name": "",
          "type": "uint256"
        }
      ],
      "stateMutability": "view",
      "type": "function"
    },
    {
      "inputs": [
        {
          "internalType": "address",
          "name": "spender",
          "type": "address"
        },
        {
          "internalType": "uint256",
          "name": "amount",
          "type": "uint256"
        }
      ],
      "name": "approve",
      "outputs": [
        {
          "internalType": "bool",
          "name": "",
          "type": "bool"
        }
      ],
      "stateMutability": "nonpayable",
      "type": "function"
    },
    {
      "inputs": [
        {
          "internalType": "address",
          "name": "account",
          "type": "address"
        }
      ],
      "name": "balanceOf",
      "outputs": [
        {
          "internalType": "uint256",
          "name": "",
          "type": "uint256"
        }
      ],
      "stateMutability": "view",
      "type": "function"
    },
    {
      "inputs": [
        {
          "internalType": "bytes32",
          "name": "",
          "type": "bytes32"
        }
      ],
      "name": "chainContractMappings",
      "outputs": [
        {
          "internalType": "bytes",
          "name": "",
          "type": "bytes"
        }
      ],
      "stateMutability": "view",
      "type": "function"
    },
    {
      "inputs": [],
      "name": "decimals",
      "outputs": [
        {
          "internalType": "uint8",
          "name": "",
          "type": "uint8"
        }
      ],
      "stateMutability": "view",
      "type": "function"
    },
    {
      "inputs": [
        {
          "internalType": "address",
          "name": "spender",
          "type": "address"
        },
        {
          "internalType": "uint256",
          "name": "subtractedValue",
          "type": "uint256"
        }
      ],
      "name": "decreaseAllowance",
      "outputs": [
        {
          "internalType": "bool",
          "name": "",
          "type": "bool"
        }
      ],
      "stateMutability": "nonpayable",
      "type": "function"
    },
    {
      "inputs": [
        {
          "internalType": "bytes32",
          "name": "destinationChain",
          "type": "bytes32"
        }
      ],
      "name": "getChainContractMapping",
      "outputs": [
        {
          "internalType": "bytes",
          "name": "",
          "type": "bytes"
        }
      ],
      "stateMutability": "view",
      "type": "function"
    },
    {
      "inputs": [
        {
          "internalType": "bytes32",
          "name": "role",
          "type": "bytes32"
        }
      ],
      "name": "getRoleAdmin",
      "outputs": [
        {
          "internalType": "bytes32",
          "name": "",
          "type": "bytes32"
        }
      ],
      "stateMutability": "view",
      "type": "function"
    },
    {
      "inputs": [
        {
          "internalType": "bytes32",
          "name": "role",
          "type": "bytes32"
        },
        {
          "internalType": "address",
          "name": "account",
          "type": "address"
        }
      ],
      "name": "grantRole",
      "outputs": [],
      "stateMutability": "nonpayable",
      "type": "function"
    },
    {
      "inputs": [
        {
          "internalType": "bytes32",
          "name": "role",
          "type": "bytes32"
        },
        {
          "internalType": "address",
          "name": "account",
          "type": "address"
        }
      ],
      "name": "hasRole",
      "outputs": [
        {
          "internalType": "bool",
          "name": "",
          "type": "bool"
        }
      ],
      "stateMutability": "view",
      "type": "function"
    },
    {
      "inputs": [
        {
          "internalType": "address",
          "name": "spender",
          "type": "address"
        },
        {
          "internalType": "uint256",
          "name": "addedValue",
          "type": "uint256"
        }
      ],
      "name": "increaseAllowance",
      "outputs": [
        {
          "internalType": "bool",
          "name": "",
          "type": "bool"
        }
      ],
      "stateMutability": "nonpayable",
      "type": "function"
    },
    {
      "inputs": [],
      "name": "name",
      "outputs": [
        {
          "internalType": "string",
          "name": "",
          "type": "string"
        }
      ],
      "stateMutability": "view",
      "type": "function"
    },
    {
      "inputs": [
        {
          "internalType": "uint256",
          "name": "id",
          "type": "uint256"
        },
        {
          "internalType": "bytes",
          "name": "data",
          "type": "bytes"
        }
      ],
      "name": "onStateReceive",
      "outputs": [],
      "stateMutability": "nonpayable",
      "type": "function"
    },
    {
      "inputs": [],
      "name": "outboundStateSender",
      "outputs": [
        {
          "internalType": "contract IOutboundStateSender",
          "name": "",
          "type": "address"
        }
      ],
      "stateMutability": "view",
      "type": "function"
    },
    {
      "inputs": [
        {
          "internalType": "bytes32",
          "name": "role",
          "type": "bytes32"
        },
        {
          "internalType": "address",
          "name": "account",
          "type": "address"
        }
      ],
      "name": "renounceRole",
      "outputs": [],
      "stateMutability": "nonpayable",
      "type": "function"
    },
    {
      "inputs": [
        {
          "internalType": "bytes32",
          "name": "role",
          "type": "bytes32"
        },
        {
          "internalType": "address",
          "name": "account",
          "type": "address"
        }
      ],
      "name": "revokeRole",
      "outputs": [],
      "stateMutability": "nonpayable",
      "type": "function"
    },
    {
      "inputs": [
        {
          "internalType": "bytes4",
          "name": "interfaceId",
          "type": "bytes4"
        }
      ],
      "name": "supportsInterface",
      "outputs": [
        {
          "internalType": "bool",
          "name": "",
          "type": "bool"
        }
      ],
      "stateMutability": "view",
      "type": "function"
    },
    {
      "inputs": [],
      "name": "symbol",
      "outputs": [
        {
          "internalType": "string",
          "name": "",
          "type": "string"
        }
      ],
      "stateMutability": "view",
      "type": "function"
    },
    {
      "inputs": [],
      "name": "totalSupply",
      "outputs": [
        {
          "internalType": "uint256",
          "name": "",
          "type": "uint256"
        }
      ],
      "stateMutability": "view",
      "type": "function"
    },
    {
      "inputs": [
        {
          "internalType": "address",
          "name": "to",
          "type": "address"
        },
        {
          "internalType": "uint256",
          "name": "amount",
          "type": "uint256"
        }
      ],
      "name": "transfer",
      "outputs": [
        {
          "internalType": "bool",
          "name": "",
          "type": "bool"
        }
      ],
      "stateMutability": "nonpayable",
      "type": "function"
    },
    {
      "inputs": [
        {
          "internalType": "address",
          "name": "from",
          "type": "address"
        },
        {
          "internalType": "address",
          "name": "to",
          "type": "address"
        },
        {
          "internalType": "uint256",
          "name": "amount",
          "type": "uint256"
        }
      ],
      "name": "transferFrom",
      "outputs": [
        {
          "internalType": "bool",
          "name": "",
          "type": "bool"
        }
      ],
      "stateMutability": "nonpayable",
      "type": "function"
    },
    {
      "inputs": [
        {
          "internalType": "bytes32",
          "name": "destinationChain",
          "type": "bytes32"
        },
        {
          "internalType": "bytes",
          "name": "user",
          "type": "bytes"
        },
        {
          "internalType": "uint256",
          "name": "amount",
          "type": "uint256"
        },
        {
          "internalType": "uint256",
          "name": "gasFee",
          "type": "uint256"
        },
        {
          "internalType": "bytes",
          "name": "destinationContractAddress",
          "type": "bytes"
        }
      ],
      "name": "transferToChain",
      "outputs": [],
      "stateMutability": "payable",
      "type": "function"
    },
    {
      "inputs": [
        {
          "internalType": "bytes32",
          "name": "chainName",
          "type": "bytes32"
        },
        {
          "internalType": "bytes",
          "name": "contractAddress",
          "type": "bytes"
        }
      ],
      "name": "updateChainContractMapping",
      "outputs": [],
      "stateMutability": "nonpayable",
      "type": "function"
    },
    {
      "inputs": [
        {
          "internalType": "address",
          "name": "newStateSender",
          "type": "address"
        }
      ],
      "name": "updateStateSender",
      "outputs": [],
      "stateMutability": "nonpayable",
      "type": "function"
    }
  ],
  "bytecode": "0x60406080815234620005e857620023ab803803806200001e81620005ed565b9283398101608082820312620005e85781516001600160401b0390818111620005e857826200004f91850162000613565b6020928385015190838211620005e8576200006c91860162000613565b936200008860606200008088840162000685565b920162000685565b90825193808511620004e85760038054956001958688811c98168015620005dd575b89891014620005c7578190601f9889811162000571575b5089908983116001146200050a57600092620004fe575b505060001982841b1c191690861b1781555b8751918211620004e85760049788548681811c91168015620004dd575b89821014620004c8579081888594931162000470575b5088908884116001146200040557600093620003f9575b505082861b92600019911b1c19161786555b60068390556001600160a01b03908116918215620003905716918215620003275760008052600585528660002033600052855260ff87600020541615620002ea575b7fa49807205ce4d355092ef5a8a18f56e8913cf4a201fbe287825b095693c217759081600052600586528760002033600052865260ff88600020541615620002aa575b505060018060a01b031990816007541617600755600854161760085533156200026b5750600254683635c9adc5dea00000928382018092116200025657506000917fddf252ad1be2c89b69c2b068fc378daa952ba7f163c4a11628f55a4df523b3ef9160025533835282815284832084815401905584519384523393a351611cf090816200069b8239f35b601190634e487b7160e01b6000525260246000fd5b90606493519262461bcd60e51b845283015260248201527f45524332303a206d696e7420746f20746865207a65726f2061646472657373006044820152fd5b816000526005865287600020336000528652876000209060ff19825416179055339033906000805160206200238b833981519152600080a43880620001cb565b600080526005855286600020336000528552866000208160ff19825416179055333360006000805160206200238b8339815191528180a462000188565b865162461bcd60e51b8152808701869052603860248201527f5772617070656443726f737345524332303a20496e76616c696420737461746560448201527f2073796e636572207665726966696572206164647265737300000000000000006064820152608490fd5b875162461bcd60e51b8152808801879052603560248201527f5772617070656443726f737345524332303a20537461746553656e646572206160448201527f6464726573732063616e6e6f74206265207a65726f00000000000000000000006064820152608490fd5b01519150388062000134565b9190879450601f198416928b6000528a6000209360005b8c8282106200045957505085116200043e575b50505050811b01865562000146565b01519060f884600019921b161c19169055388080806200042f565b8385015187558b989096019593840193016200041c565b9091925089600052886000208880860160051c8201928b8710620004be575b91899187969594930160051c01915b828110620004ae5750506200011d565b600081558695508991016200049e565b925081926200048f565b60228a634e487b7160e01b6000525260246000fd5b90607f169062000107565b634e487b7160e01b600052604160045260246000fd5b015190503880620000d8565b90889350601f19831691856000528b6000209260005b8d8282106200055a575050841162000541575b505050811b018155620000ea565b015160001983861b60f8161c1916905538808062000533565b8385015186558c9790950194938401930162000520565b90915083600052896000208980850160051c8201928c8610620005bd575b918a91869594930160051c01915b828110620005ad575050620000c1565b600081558594508a91016200059d565b925081926200058f565b634e487b7160e01b600052602260045260246000fd5b97607f1697620000aa565b600080fd5b6040519190601f01601f191682016001600160401b03811183821017620004e857604052565b919080601f84011215620005e85782516001600160401b038111620004e85760209062000649601f8201601f19168301620005ed565b92818452828287010111620005e85760005b8181106200067157508260009394955001015290565b85810183015184820184015282016200065b565b51906001600160a01b0382168203620005e85756fe6080604052600436101561001257600080fd5b60003560e01c806301ffc9a7146101b257806306fdde03146101ad578063095ea7b3146101a857806318160ddd146101a357806323b872dd1461019e578063248a9ca31461019957806326c53bea146101945780632783d84f1461018f5780632f2ff15d1461018a578063313ce5671461018557806336568abe14610180578063395093511461017b5780635a81dd1b1461017657806370a082311461017157806375b238fc1461016c57806391d148541461016757806395d89b41146101625780639afd52fc1461015d578063a217fddf14610158578063a457c2d714610153578063a9059cbb1461014e578063b9d2297614610144578063d547741f14610149578063d6726b3714610144578063d8617a841461013f5763dd62ed3e1461013a57600080fd5b6110c8565b610eca565b610d4d565b610d9e565b610d27565b610c79565b610c5d565b610b89565b610ae2565b610a90565b610a55565b610a1b565b6109f2565b61099a565b610906565b6108ea565b610821565b6106bb565b6104ce565b61049f565b6103d4565b6103b6565b610385565b610274565b346102085760203660031901126102085760043563ffffffff60e01b811680910361020857602090637965db0b60e01b81149081156101f7575b506040519015158152f35b6301ffc9a760e01b149050386101ec565b600080fd5b600091031261020857565b60005b83811061022b5750506000910152565b818101518382015260200161021b565b9060209161025481518092818552858086019101610218565b601f01601f1916010190565b90602061027192818152019061023b565b90565b346102085760008060031936011261035657604051908060035461029781610ddd565b8085529160019180831690811561032c57506001146102d1575b6102cd856102c181870382610642565b60405191829182610260565b0390f35b9250600383527fc2575a0e9e593c00f959f8c92f12db2869c3395a3b0502d05e2516446f71f85b5b8284106103145750505081016020016102c1826102cd6102b1565b805460208587018101919091529093019281016102f9565b8695506102cd969350602092506102c194915060ff191682840152151560051b82010192936102b1565b80fd5b600435906001600160a01b038216820361020857565b602435906001600160a01b038216820361020857565b34610208576040366003190112610208576103ab6103a1610359565b6024359033611545565b602060405160018152f35b34610208576000366003190112610208576020600254604051908152f35b34610208576060366003190112610208576103ed610359565b6103f561036f565b6001600160a01b03821660009081526001602090815260408083203384529091529020604435919054926001840161043e575b6104329350611429565b60405160018152602090f35b82841061045a576104558361043295033383611545565b610428565b60405162461bcd60e51b815260206004820152601d60248201527f45524332303a20696e73756666696369656e7420616c6c6f77616e63650000006044820152606490fd5b346102085760203660031901126102085760043560005260056020526020600160406000200154604051908152f35b346102085760403660031901126102085760243567ffffffffffffffff808211610208573660238301121561020857816004013581811161020857820160248101903682116102085783606091031261020857602483013591821161020857602461053b92840101610664565b906044810135918051156105bc577f6c60c84244d7ec3805cfbe049a3491825c2d51e846a1e480b684ce42b364e305916105b7601460649301519461059f8160018060a01b0388169761058f89151561185a565b61059a8215156118b6565b61191e565b60408051918252929093013560208401528291820190565b0390a2005b60405162461bcd60e51b815260206004820152602960248201527f5772617070656443726f737345524332303a20496e76616c69642061646472656044820152680e6e640d8cadccee8d60bb1b6064820152608490fd5b634e487b7160e01b600052604160045260246000fd5b67ffffffffffffffff811161063d57604052565b610613565b90601f8019910116810190811067ffffffffffffffff82111761063d57604052565b81601f820112156102085780359067ffffffffffffffff821161063d5760405192610699601f8401601f191660200185610642565b8284526020838301011161020857816000926020809301838601378301015290565b346102085760403660031901126102085767ffffffffffffffff600435602435828111610208576106f0903690600401610664565b6106f8611120565b6000918083526020600981526040842090835195861161063d57610726866107208454610ddd565b84611c4f565b80601f87116001146107935750948085967f5a2091c6c2e10c7cdba84047a6191524b248b1548b97af446d4d19d2a9ce6e059691610788575b508160011b916000199060031b1c19161790555b61078260405192839283611ca3565b0390a180f35b90508401513861075f565b90601f1987166107a884600052602060002090565b9287905b8282106108095750509187917f5a2091c6c2e10c7cdba84047a6191524b248b1548b97af446d4d19d2a9ce6e059798600194106107f0575b5050811b019055610773565b86015160001960f88460031b161c1916905538806107e4565b80600185968294968b015181550195019301906107ac565b346102085760403660031901126102085760043561083d61036f565b600091808352600560205261085860016040852001546111fe565b8083526005602090815260408085206001600160a01b0385166000908152925290205460ff1615610887578280f35b8083526005602090815260408085206001600160a01b038516600090815292529020805460ff1916600117905533916001600160a01b0316907f2f8788117e7eff1d82e926ec794901d17c78024a50270940304540a733656f0d8480a438808280f35b3461020857600036600319011261020857602060405160128152f35b346102085760403660031901126102085761091f61036f565b336001600160a01b0382160361093d5761093b906004356112cd565b005b60405162461bcd60e51b815260206004820152602f60248201527f416363657373436f6e74726f6c3a2063616e206f6e6c792072656e6f756e636560448201526e103937b632b9903337b91039b2b63360891b6064820152608490fd5b34610208576040366003190112610208576109b3610359565b3360009081526001602090815260408083206001600160a01b038516845290915290205460243581018091116109ed576103ab9133611545565b611360565b34610208576000366003190112610208576007546040516001600160a01b039091168152602090f35b34610208576020366003190112610208576001600160a01b03610a3c610359565b1660005260006020526020604060002054604051908152f35b346102085760003660031901126102085760206040517fa49807205ce4d355092ef5a8a18f56e8913cf4a201fbe287825b095693c217758152f35b3461020857604036600319011261020857602060ff610ad6610ab061036f565b6004356000526005845260406000209060018060a01b0316600052602052604060002090565b54166040519015158152f35b3461020857600080600319360112610356576040519080600454610b0581610ddd565b8085529160019180831690811561032c5750600114610b2e576102cd856102c181870382610642565b9250600483527f8a35acfbc15ff81a39ae7d344fd709f28e8600b4aa8c65c6b64bfe7fe36bd19b5b828410610b715750505081016020016102c1826102cd6102b1565b80546020858701810191909152909301928101610b56565b3461020857602036600319011261020857610ba2610359565b610baa611120565b6001600160a01b03168015610bf257600780546001600160a01b031916821790557f0e150c9e1f3b538a8570bafe0ceb11021b2c17e155dce5d608e105d1de255128600080a2005b60405162461bcd60e51b815260206004820152603960248201527f5772617070656443726f737345524332303a204e657720537461746553656e6460448201527f657220616464726573732063616e6e6f74206265207a65726f000000000000006064820152608490fd5b3461020857600036600319011261020857602060405160008152f35b3461020857604036600319011261020857610c92610359565b60243590336000526001602052610cbf8160406000209060018060a01b0316600052602052604060002090565b5491808310610cd45761043292039033611545565b60405162461bcd60e51b815260206004820152602560248201527f45524332303a2064656372656173656420616c6c6f77616e63652062656c6f77604482015264207a65726f60d81b6064820152608490fd5b34610208576040366003190112610208576103ab610d43610359565b6024359033611429565b346102085760203660031901126102085760043560005260096020526102cd610d83610d8a604060002060405192838092610e17565b0382610642565b60405191829160208352602083019061023b565b346102085760403660031901126102085761093b600435610dbd61036f565b90806000526005602052610dd86001604060002001546111fe565b6112cd565b90600182811c92168015610e0d575b6020831014610df757565b634e487b7160e01b600052602260045260246000fd5b91607f1691610dec565b9060009291805491610e2883610ddd565b918282526001938481169081600014610e8a5750600114610e4a575b50505050565b90919394506000526020928360002092846000945b838610610e76575050505001019038808080610e44565b805485870183015294019385908201610e5f565b9294505050602093945060ff191683830152151560051b01019038808080610e44565b90610ec8610ec19260405193848092610e17565b0383610642565b565b60a03660031901126102085767ffffffffffffffff6004803560243583811161020857610efa9036908401610664565b91604435926064359460843590811161020857610f1a9036908401610664565b600260065414611084576002600655610f5c81516020830120610f4f610f4a876000526009602052604060002090565b610ead565b60208151910120146119d3565b85340361105d578495610f8d86610f853360018060a01b03166000526000602052604060002090565b541015611a45565b610f978633611b1a565b600754610fc8906001600160a01b031693610fba60405198899260208401611aaf565b03601f198101885287610642565b823b1561020857600094610ff2604051978896879586946338d1822d60e11b865233928601611ad3565b03925af180156110585761103f575b506040805191825242602083015233917fde82b59a4b1c6f2e5422098038bbb929498431b1ebb8eff35794cb6acb39bee79190a261093b6001600655565b8061104c61105292610629565b8061020d565b38611001565b611b0e565b60408051631f89f67160e01b815280850188815234602082015290918291010390fd5b0390fd5b60405162461bcd60e51b8152602081850152601f60248201527f5265656e7472616e637947756172643a207265656e7472616e742063616c6c006044820152606490fd5b346102085760403660031901126102085760206111176110e6610359565b6110ee61036f565b6001600160a01b0391821660009081526001855260408082209290931681526020919091522090565b54604051908152f35b3360009081527fd8ef4509105c3edb0b04658b4528edc5ddd30ea5a81e623a2623c88db1eb54b6602052604090205460ff161561115957565b61108060486111e661116a33611738565b6111d86111756117c9565b6040519485937f416363657373436f6e74726f6c3a206163636f756e742000000000000000000060208601526111b5815180926020603789019101610218565b84017001034b99036b4b9b9b4b733903937b6329607d1b603782015201906112b6565b03601f198101835282610642565b60405162461bcd60e51b815291829160048301610260565b600081815260056020908152604080832033845290915290205460ff16156112235750565b61122c33611738565b611234611670565b916030611240846116b2565b53607861124c846116bf565b5360415b6001811161126f5761108060486111e6856111d88861117588156116ed565b90600f81169060108210156112b1576112ac916f181899199a1a9b1b9c1cb0b131b232b360811b901a6112a284876116cf565b5360041c916116e0565b611250565b61169c565b906112c960209282815194859201610218565b0190565b600090808252600560205260ff6112f984604085209060018060a01b0316600052602052604060002090565b541661130457505050565b8082526005602090815260408084206001600160a01b038616600090815292529020805460ff1916905533926001600160a01b0316917ff6391f5c32d9c69d2a47ea670b442974b53935d1edc7fd64eb21e047a839171b9080a4565b634e487b7160e01b600052601160045260246000fd5b1561137d57565b60405162461bcd60e51b815260206004820152602360248201527f45524332303a207472616e7366657220746f20746865207a65726f206164647260448201526265737360e81b6064820152608490fd5b156113d557565b60405162461bcd60e51b815260206004820152602660248201527f45524332303a207472616e7366657220616d6f756e7420657863656564732062604482015265616c616e636560d01b6064820152608490fd5b916001600160a01b0380841692909183156114f2576114d7827fddf252ad1be2c89b69c2b068fc378daa952ba7f163c4a11628f55a4df523b3ef946114ed941696611475881515611376565b6114bc846114958360018060a01b03166000526000602052604060002090565b546114a2828210156113ce565b039160018060a01b03166000526000602052604060002090565b556001600160a01b0316600090815260208190526040902090565b8054820190556040519081529081906020820190565b0390a3565b60405162461bcd60e51b815260206004820152602560248201527f45524332303a207472616e736665722066726f6d20746865207a65726f206164604482015264647265737360d81b6064820152608490fd5b6001600160a01b03808216929190831561161f5782169384156115cf57806115be7f8c5be1e5ebec7d5bd14f71427d1e84f3dd0314c0f7b2291e5b200ac8c7c3b925946115a76114ed9560018060a01b03166000526001602052604060002090565b9060018060a01b0316600052602052604060002090565b556040519081529081906020820190565b60405162461bcd60e51b815260206004820152602260248201527f45524332303a20617070726f766520746f20746865207a65726f206164647265604482015261737360f01b6064820152608490fd5b60405162461bcd60e51b8152602060048201526024808201527f45524332303a20617070726f76652066726f6d20746865207a65726f206164646044820152637265737360e01b6064820152608490fd5b604051906080820182811067ffffffffffffffff82111761063d57604052604282526060366020840137565b634e487b7160e01b600052603260045260246000fd5b8051156112b15760200190565b8051600110156112b15760210190565b9081518110156112b1570160200190565b80156109ed576000190190565b156116f457565b606460405162461bcd60e51b815260206004820152602060248201527f537472696e67733a20686578206c656e67746820696e73756666696369656e746044820152fd5b604051906060820182811067ffffffffffffffff82111761063d57604052602a82526040366020840137603061176d836116b2565b536078611779836116bf565b536029905b60018211611791576102719150156116ed565b600f81169060108210156112b1576117c3916f181899199a1a9b1b9c1cb0b131b232b360811b901a6112a284866116cf565b9061177e565b7fa49807205ce4d355092ef5a8a18f56e8913cf4a201fbe287825b095693c217756117f2611670565b9060306117fe836116b2565b53607861180a836116bf565b536041905b60018211611822576102719150156116ed565b600f81169060108210156112b157611854916f181899199a1a9b1b9c1cb0b131b232b360811b901a6112a284866116cf565b9061180f565b1561186157565b60405162461bcd60e51b815260206004820152602760248201527f5772617070656443726f737345524332303a20496e76616c69642075736572206044820152666164647265737360c81b6064820152608490fd5b156118bd57565b60405162461bcd60e51b815260206004820152603360248201527f5772617070656443726f737345524332303a20416d6f756e74206d7573742062604482015272652067726561746572207468616e207a65726f60681b6064820152608490fd5b6001600160a01b0381169190821561198e57600254908282018092116109ed576002919091556001600160a01b0316600090815260208181526040822091927fddf252ad1be2c89b69c2b068fc378daa952ba7f163c4a11628f55a4df523b3ef92818154019055604051908152a3565b60405162461bcd60e51b815260206004820152601f60248201527f45524332303a206d696e7420746f20746865207a65726f2061646472657373006044820152606490fd5b156119da57565b60405162461bcd60e51b815260206004820152603e60248201527f5772617070656443726f737345524332303a2044657374696e6174696f6e206360448201527f6f6e7472616374206164647265737320646f6573206e6f74206d6174636800006064820152608490fd5b15611a4c57565b60405162461bcd60e51b815260206004820152603560248201527f5772617070656443726f737345524332303a20496e73756666696369656e74206044820152747772617070656420746f6b656e2062616c616e636560581b6064820152608490fd5b604090611ac960009395949560608352606083019061023b565b9460208201520152565b906102719492611af091835260806020840152608083019061023b565b6001600160a01b03909316604082015280830360609091015261023b565b6040513d6000823e3d90fd5b6001600160a01b038116908115611c00576001600160a01b038116600090815260208190526040902054838110611bb057837fddf252ad1be2c89b69c2b068fc378daa952ba7f163c4a11628f55a4df523b3ef92611b926000966114ed94039160018060a01b03166000526000602052604060002090565b55611ba08160025403600255565b6040519081529081906020820190565b60405162461bcd60e51b815260206004820152602260248201527f45524332303a206275726e20616d6f756e7420657863656564732062616c616e604482015261636560f01b6064820152608490fd5b60405162461bcd60e51b815260206004820152602160248201527f45524332303a206275726e2066726f6d20746865207a65726f206164647265736044820152607360f81b6064820152608490fd5b90601f8111611c5d57505050565b600091825260208220906020601f850160051c83019410611c99575b601f0160051c01915b828110611c8e57505050565b818155600101611c82565b9092508290611c79565b60409061027193928152816020820152019061023b56fea2646970667358221220c1eb3ee35827e167267c974462a3b2b1687981d309a42bb1e169fd2f37c42ac564736f6c634300081300332f8788117e7eff1d82e926ec794901d17c78024a50270940304540a733656f0d",
  "linkReferences": {},
  "deployedLinkReferences": {}
}