{
  "_format": "hh-sol-artifact-1",
  "contractName": "DojimaValidatorSet",
  "sourceName": "contracts/DojimaValidatorSet.sol",
  "abi": [
    {
      "inputs": [],
      "stateMutability": "nonpayable",
      "type": "constructor"
    },
    {
      "anonymous": false,
      "inputs": [
        {
          "indexed": true,
          "internalType": "uint256",
          "name": "id",
          "type": "uint256"
        },
        {
          "indexed": true,
          "internalType": "uint256",
          "name": "startBlock",
          "type": "uint256"
        },
        {
          "indexed": true,
          "internalType": "uint256",
          "name": "endBlock",
          "type": "uint256"
        }
      ],
      "name": "NewSpan",
      "type": "event"
    },
    {
      "inputs": [],
      "name": "CHAIN",
      "outputs": [
        {
          "internalType": "bytes32",
          "name": "",
          "type": "bytes32"
        }
      ],
      "stateMutability": "view",
      "type": "function"
    },
    {
      "inputs": [],
      "name": "DOJIMACHAIN_ID",
      "outputs": [
        {
          "internalType": "bytes32",
          "name": "",
          "type": "bytes32"
        }
      ],
      "stateMutability": "view",
      "type": "function"
    },
    {
      "inputs": [],
      "name": "FIRST_END_BLOCK",
      "outputs": [
        {
          "internalType": "uint256",
          "name": "",
          "type": "uint256"
        }
      ],
      "stateMutability": "view",
      "type": "function"
    },
    {
      "inputs": [],
      "name": "ROUND_TYPE",
      "outputs": [
        {
          "internalType": "bytes32",
          "name": "",
          "type": "bytes32"
        }
      ],
      "stateMutability": "view",
      "type": "function"
    },
    {
      "inputs": [],
      "name": "SPRINT",
      "outputs": [
        {
          "internalType": "uint256",
          "name": "",
          "type": "uint256"
        }
      ],
      "stateMutability": "view",
      "type": "function"
    },
    {
      "inputs": [],
      "name": "SYSTEM_ADDRESS",
      "outputs": [
        {
          "internalType": "address",
          "name": "",
          "type": "address"
        }
      ],
      "stateMutability": "view",
      "type": "function"
    },
    {
      "inputs": [],
      "name": "VOTE_TYPE",
      "outputs": [
        {
          "internalType": "uint8",
          "name": "",
          "type": "uint8"
        }
      ],
      "stateMutability": "view",
      "type": "function"
    },
    {
      "inputs": [
        {
          "internalType": "bytes32",
          "name": "rootHash",
          "type": "bytes32"
        },
        {
          "internalType": "bytes32",
          "name": "leaf",
          "type": "bytes32"
        },
        {
          "internalType": "bytes",
          "name": "proof",
          "type": "bytes"
        }
      ],
      "name": "checkMembership",
      "outputs": [
        {
          "internalType": "bool",
          "name": "",
          "type": "bool"
        }
      ],
      "stateMutability": "pure",
      "type": "function"
    },
    {
      "inputs": [
        {
          "internalType": "uint256",
          "name": "newSpan",
          "type": "uint256"
        },
        {
          "internalType": "uint256",
          "name": "startBlock",
          "type": "uint256"
        },
        {
          "internalType": "uint256",
          "name": "endBlock",
          "type": "uint256"
        },
        {
          "internalType": "bytes",
          "name": "validatorBytes",
          "type": "bytes"
        },
        {
          "internalType": "bytes",
          "name": "producerBytes",
          "type": "bytes"
        }
      ],
      "name": "commitSpan",
      "outputs": [],
      "stateMutability": "nonpayable",
      "type": "function"
    },
    {
      "inputs": [],
      "name": "currentSpanNumber",
      "outputs": [
        {
          "internalType": "uint256",
          "name": "",
          "type": "uint256"
        }
      ],
      "stateMutability": "view",
      "type": "function"
    },
    {
      "inputs": [],
      "name": "currentSprint",
      "outputs": [
        {
          "internalType": "uint256",
          "name": "",
          "type": "uint256"
        }
      ],
      "stateMutability": "view",
      "type": "function"
    },
    {
      "inputs": [],
      "name": "getCurrentSpan",
      "outputs": [
        {
          "internalType": "uint256",
          "name": "number",
          "type": "uint256"
        },
        {
          "internalType": "uint256",
          "name": "startBlock",
          "type": "uint256"
        },
        {
          "internalType": "uint256",
          "name": "endBlock",
          "type": "uint256"
        }
      ],
      "stateMutability": "view",
      "type": "function"
    },
    {
      "inputs": [
        {
          "internalType": "uint256",
          "name": "number",
          "type": "uint256"
        }
      ],
      "name": "getDojimaValidators",
      "outputs": [
        {
          "internalType": "address[]",
          "name": "",
          "type": "address[]"
        },
        {
          "internalType": "uint256[]",
          "name": "",
          "type": "uint256[]"
        }
      ],
      "stateMutability": "view",
      "type": "function"
    },
    {
      "inputs": [],
      "name": "getInitialValidators",
      "outputs": [
        {
          "internalType": "address[]",
          "name": "",
          "type": "address[]"
        },
        {
          "internalType": "uint256[]",
          "name": "",
          "type": "uint256[]"
        }
      ],
      "stateMutability": "view",
      "type": "function"
    },
    {
      "inputs": [],
      "name": "getNextSpan",
      "outputs": [
        {
          "internalType": "uint256",
          "name": "number",
          "type": "uint256"
        },
        {
          "internalType": "uint256",
          "name": "startBlock",
          "type": "uint256"
        },
        {
          "internalType": "uint256",
          "name": "endBlock",
          "type": "uint256"
        }
      ],
      "stateMutability": "view",
      "type": "function"
    },
    {
      "inputs": [
        {
          "internalType": "uint256",
          "name": "span",
          "type": "uint256"
        }
      ],
      "name": "getProducersTotalStakeBySpan",
      "outputs": [
        {
          "internalType": "uint256",
          "name": "",
          "type": "uint256"
        }
      ],
      "stateMutability": "view",
      "type": "function"
    },
    {
      "inputs": [
        {
          "internalType": "uint256",
          "name": "span",
          "type": "uint256"
        }
      ],
      "name": "getSpan",
      "outputs": [
        {
          "internalType": "uint256",
          "name": "number",
          "type": "uint256"
        },
        {
          "internalType": "uint256",
          "name": "startBlock",
          "type": "uint256"
        },
        {
          "internalType": "uint256",
          "name": "endBlock",
          "type": "uint256"
        }
      ],
      "stateMutability": "view",
      "type": "function"
    },
    {
      "inputs": [
        {
          "internalType": "uint256",
          "name": "number",
          "type": "uint256"
        }
      ],
      "name": "getSpanByBlock",
      "outputs": [
        {
          "internalType": "uint256",
          "name": "",
          "type": "uint256"
        }
      ],
      "stateMutability": "view",
      "type": "function"
    },
    {
      "inputs": [
        {
          "internalType": "uint256",
          "name": "span",
          "type": "uint256"
        },
        {
          "internalType": "bytes32",
          "name": "dataHash",
          "type": "bytes32"
        },
        {
          "internalType": "bytes",
          "name": "sigs",
          "type": "bytes"
        }
      ],
      "name": "getStakePowerBySigs",
      "outputs": [
        {
          "internalType": "uint256",
          "name": "",
          "type": "uint256"
        }
      ],
      "stateMutability": "view",
      "type": "function"
    },
    {
      "inputs": [
        {
          "internalType": "uint256",
          "name": "span",
          "type": "uint256"
        },
        {
          "internalType": "address",
          "name": "signer",
          "type": "address"
        }
      ],
      "name": "getValidatorBySigner",
      "outputs": [
        {
          "components": [
            {
              "internalType": "bytes",
              "name": "id",
              "type": "bytes"
            },
            {
              "internalType": "uint256",
              "name": "power",
              "type": "uint256"
            },
            {
              "internalType": "address",
              "name": "signer",
              "type": "address"
            }
          ],
          "internalType": "struct DojimaValidatorSet.Validator",
          "name": "result",
          "type": "tuple"
        }
      ],
      "stateMutability": "view",
      "type": "function"
    },
    {
      "inputs": [],
      "name": "getValidators",
      "outputs": [
        {
          "internalType": "address[]",
          "name": "",
          "type": "address[]"
        },
        {
          "internalType": "uint256[]",
          "name": "",
          "type": "uint256[]"
        }
      ],
      "stateMutability": "view",
      "type": "function"
    },
    {
      "inputs": [
        {
          "internalType": "uint256",
          "name": "span",
          "type": "uint256"
        }
      ],
      "name": "getValidatorsTotalStakeBySpan",
      "outputs": [
        {
          "internalType": "uint256",
          "name": "",
          "type": "uint256"
        }
      ],
      "stateMutability": "view",
      "type": "function"
    },
    {
      "inputs": [
        {
          "internalType": "bytes32",
          "name": "left",
          "type": "bytes32"
        },
        {
          "internalType": "bytes32",
          "name": "right",
          "type": "bytes32"
        }
      ],
      "name": "innerNode",
      "outputs": [
        {
          "internalType": "bytes32",
          "name": "",
          "type": "bytes32"
        }
      ],
      "stateMutability": "pure",
      "type": "function"
    },
    {
      "inputs": [
        {
          "internalType": "address",
          "name": "signer",
          "type": "address"
        }
      ],
      "name": "isCurrentProducer",
      "outputs": [
        {
          "internalType": "bool",
          "name": "",
          "type": "bool"
        }
      ],
      "stateMutability": "view",
      "type": "function"
    },
    {
      "inputs": [
        {
          "internalType": "address",
          "name": "signer",
          "type": "address"
        }
      ],
      "name": "isCurrentValidator",
      "outputs": [
        {
          "internalType": "bool",
          "name": "",
          "type": "bool"
        }
      ],
      "stateMutability": "view",
      "type": "function"
    },
    {
      "inputs": [
        {
          "internalType": "uint256",
          "name": "span",
          "type": "uint256"
        },
        {
          "internalType": "address",
          "name": "signer",
          "type": "address"
        }
      ],
      "name": "isProducer",
      "outputs": [
        {
          "internalType": "bool",
          "name": "",
          "type": "bool"
        }
      ],
      "stateMutability": "view",
      "type": "function"
    },
    {
      "inputs": [
        {
          "internalType": "uint256",
          "name": "span",
          "type": "uint256"
        },
        {
          "internalType": "address",
          "name": "signer",
          "type": "address"
        }
      ],
      "name": "isValidator",
      "outputs": [
        {
          "internalType": "bool",
          "name": "",
          "type": "bool"
        }
      ],
      "stateMutability": "view",
      "type": "function"
    },
    {
      "inputs": [
        {
          "internalType": "bytes32",
          "name": "d",
          "type": "bytes32"
        }
      ],
      "name": "leafNode",
      "outputs": [
        {
          "internalType": "bytes32",
          "name": "",
          "type": "bytes32"
        }
      ],
      "stateMutability": "pure",
      "type": "function"
    },
    {
      "inputs": [
        {
          "internalType": "uint256",
          "name": "",
          "type": "uint256"
        },
        {
          "internalType": "uint256",
          "name": "",
          "type": "uint256"
        }
      ],
      "name": "producers",
      "outputs": [
        {
          "internalType": "bytes",
          "name": "id",
          "type": "bytes"
        },
        {
          "internalType": "uint256",
          "name": "power",
          "type": "uint256"
        },
        {
          "internalType": "address",
          "name": "signer",
          "type": "address"
        }
      ],
      "stateMutability": "view",
      "type": "function"
    },
    {
      "inputs": [
        {
          "internalType": "uint256",
          "name": "",
          "type": "uint256"
        }
      ],
      "name": "spanNumbers",
      "outputs": [
        {
          "internalType": "uint256",
          "name": "",
          "type": "uint256"
        }
      ],
      "stateMutability": "view",
      "type": "function"
    },
    {
      "inputs": [
        {
          "internalType": "uint256",
          "name": "",
          "type": "uint256"
        }
      ],
      "name": "spans",
      "outputs": [
        {
          "internalType": "uint256",
          "name": "number",
          "type": "uint256"
        },
        {
          "internalType": "uint256",
          "name": "startBlock",
          "type": "uint256"
        },
        {
          "internalType": "uint256",
          "name": "endBlock",
          "type": "uint256"
        }
      ],
      "stateMutability": "view",
      "type": "function"
    },
    {
      "inputs": [
        {
          "internalType": "uint256",
          "name": "",
          "type": "uint256"
        },
        {
          "internalType": "uint256",
          "name": "",
          "type": "uint256"
        }
      ],
      "name": "validators",
      "outputs": [
        {
          "internalType": "bytes",
          "name": "id",
          "type": "bytes"
        },
        {
          "internalType": "uint256",
          "name": "power",
          "type": "uint256"
        },
        {
          "internalType": "address",
          "name": "signer",
          "type": "address"
        }
      ],
      "stateMutability": "view",
      "type": "function"
    }
  ],
  "bytecode": "0x608080604052346100165761229e908161001c8239f35b600080fdfe6080604052600436101561001257600080fd5b60003560e01c8063047a6c5b146102175780631270b5741461021257806323c2a2b41461020d57806323f2a73f146102085780632bc06564146102035780632de3a180146101fe5780632eddf352146101f95780633434735f146101f457806335ddfeea146101ef57806343ee8213146101ea57806344c15cb1146101e557806344d6528f146101e05780634dbc959f146101db57806355614fcc146101d657806357b7a1f4146101d1578063582a8d08146101cc57806360c8614d146101c757806365b3a1e2146101c257806366332354146101bd578063687a9bd6146101b857806370ba5707146101b357806398ab2b62146101ae5780639d11b807146101a9578063af26aa96146101a4578063b71d7a691461019f578063b7ab4db51461019a578063c1b3c91914610195578063c4ad51bd14610190578063d5b844eb1461018b578063dcf2793a14610186578063e3b7c924146101815763f59cf5651461017c57600080fd5b610217565b61113c565b611105565b6110e9565b6110ae565b61106f565b611030565b611012565b610fbf565b610ed3565b610e98565b610e6c565b610e05565b610ca7565b610c8e565b610c30565b610c12565b610be6565b610b3f565b610b23565b610abc565b610956565b61091b565b610856565b610731565b61065c565b610633565b610617565b6105f1565b6102f7565b610299565b346102685760203660031901126102685760043560005260026020526040600020805461026460026001840154930154604051938493846040919493926060820195825260208201520152565b0390f35b600080fd5b602435906001600160a01b038216820361026857565b600435906001600160a01b038216820361026857565b346102685760403660031901126102685760206102bf6102b761026d565b6004356114ea565b6040519015158152f35b9181601f840112156102685782359167ffffffffffffffff8311610268576020838186019501011161026857565b346102685760a03660031901126102685760443567ffffffffffffffff602435600435606435838111610268576103329036906004016102c9565b936084359081116102685761034b9036906004016102c9565b90916003600160a01b031933016105b75761046361045e610459610396936103d7996103bd6103b76103b16103ac8f8e9061039c8f6103894361120b565b9d8e80156105af57611814565b14611777565b6103a78282116117b5565b6111d6565b611814565b603f1690565b1561184b565b6103e08a6001809d81996000526002602052604060002090565b015411156118cb565b6103fe6103f78a6000526002602052604060002090565b541561192d565b6104496104096107c9565b8a815260209b8c82015260409d8e82015261042e8b6000526002602052604060002090565b90604060029180518455602081015160018501550151910155565b6104528961196f565b3691610801565b611e7f565b611ea5565b6000825b61052e575b5050506104596104819261045e923691610801565b936000845b61048c57005b855181101561052c57806105216104af6104a9610526948a61130a565b51611ea5565b6104c3866000526001602052604060002090565b61051c6104d86104d2846112dd565b5161202c565b926104fd6104f76104f16104eb846112ea565b51611fbe565b926112fa565b51611f9f565b906105066107c9565b9485528a8501526001600160a01b031687840152565b611a31565b6112ce565b84610486565b005b81518110156105aa578061052161054b6104a96105a4948661130a565b8b61051c8b6105648c6000526000602052604060002090565b926105716104d2866112dd565b946105846104f76104f16104eb846112ea565b9261058d6107c9565b9687528601526001600160a01b0390911690840152565b82610467565b61046c565b6103ac611b8e565b60405162461bcd60e51b81526020600482015260126024820152714e6f742053797374656d204164646573732160701b6044820152606490fd5b346102685760403660031901126102685760206102bf61060f61026d565b600435611420565b3461026857600036600319011261026857602060405160408152f35b34610268576040366003190112610268576020610654602435600435611d42565b604051908152f35b346102685760208060031936011261026857600060043581528082526040918282208054610689816112b6565b91610696865193846107a7565b81835284528284208490848085015b8484106106ed575050505050825b81518410156106e3576106d76106dd91846106ce878661130a565b5101519061183e565b936112ce565b926106b3565b8451908152602090f35b6001916003918a516106fe8161076a565b61070786610d34565b81528486015483820152848060a01b036002870154168c82015281520192019201919085906106a5565b34610268576000366003190112610268576040516002600160a01b038152602090f35b634e487b7160e01b600052604160045260246000fd5b6060810190811067ffffffffffffffff82111761078657604052565b610754565b6040810190811067ffffffffffffffff82111761078657604052565b90601f8019910116810190811067ffffffffffffffff82111761078657604052565b604051906107d68261076a565b565b604051906107d68261078b565b67ffffffffffffffff811161078657601f01601f191660200190565b92919261080d826107e5565b9161081b60405193846107a7565b829481845281830111610268578281602093846000960137010152565b9080601f830112156102685781602061085393359101610801565b90565b346102685760603660031901126102685760243560443567ffffffffffffffff81116102685761088a903690600401610838565b90809161089a6021825104611cd3565b9182610909575b5091906021925b818411156108bf5760405160043584148152602090f35b600019848201908101519051929391926108f8929160001a60f81b6001600160f81b03191661090057906108f291611d42565b93611822565b9291906108a8565b6108f291611d42565b610914919350611cf5565b91386108a1565b346102685760003660031901126102685760206040517f24174377f9995fcf28ebdaeec9b87ddcb18f4b186b369e756a333f03893c24328152f35b346102685760603660031901126102685767ffffffffffffffff6024356004356044358381116102685761098e903690600401610838565b6000908190825b81518782169080821015610a6957906109ba8993926109b383611830565b1115611d8f565b6040805191600180840191870101604284015b808310610a5657505060418352601f01601f191690526109ed9088611da8565b6109f7818861131e565b90610a028189611420565b80610a41575b610a21575b50501660410186811115610995575b61115a565b610a3891955095602060419493979601519061183e565b94909138610a0d565b506001600160a01b0386811690821611610a08565b90918251815260208091019201906109cd565b604051868152602090f35b60005b838110610a875750506000910152565b8181015183820152602001610a77565b90602091610ab081518092818552858086019101610a74565b601f01601f1916010190565b3461026857604036600319011261026857610ae0610ad861026d565b60043561131e565b604051809160208252610aff8151606060208501526080840190610a97565b6020820151604084810191909152909101516001600160a01b031660608301520390f35b346102685760003660031901126102685760206106544361120b565b346102685760203660031901126102685760206102bf610b5d610283565b610b664361120b565b611420565b6040810190604081528251809252606081019160208094019060005b818110610bc9575050508281830391015281808451928381520193019160005b828110610bb5575050505090565b835185529381019392810192600101610ba7565b82516001600160a01b031685529385019391850191600101610b87565b3461026857602036600319011261026857610c02600435611625565b9061026460405192839283610b6b565b34610268576020366003190112610268576020610654600435611cf5565b3461026857600036600319011261026857610c4a4361120b565b60018101809111610a1c5760005260026020526040600020805461026460026001840154930154604051938493846040919493926060820195825260208201520152565b3461026857600036600319011261026857610c02611732565b3461026857600036600319011261026857602060405160ff8152f35b634e487b7160e01b600052603260045260246000fd5b8054821015610cf5576000526003602060002091020190600090565b610cc3565b90600182811c92168015610d2a575b6020831014610d1457565b634e487b7160e01b600052602260045260246000fd5b91607f1691610d09565b9060405191826000825492610d4884610cfa565b908184526001948581169081600014610db55750600114610d72575b50506107d6925003836107a7565b9093915060005260209081600020936000915b818310610d9d5750506107d693508201013880610d64565b85548884018501529485019487945091830191610d85565b9150506107d694506020925060ff191682840152151560051b8201013880610d64565b919392610def604092606085526060850190610a97565b60208401959095526001600160a01b0316910152565b34610268576040366003190112610268576024356004356000526001602052604060002090815481101561026857610e3c91610cd9565b50610e4681610d34565b6001820154600290920154604051928392610264926001600160a01b0316919084610dd8565b346102685760203660031901126102685760206102bf610e8a610283565b610e934361120b565b6114ea565b346102685760003660031901126102685760206040517f0932bdf85fc8aa10ac3c22f02317f8f53d4b4f52235ed1eabb3a4cbbe08b5c418152f35b34610268576020806003193601126102685760006004358152600191828152826040918284208054610f04816112b6565b91610f11865193846107a7565b818352865282862086908484015b838310610f6e575050505084925b610f3c575b8351858152602090f35b9091938151851015610f6857610f5a610f6091846106ce888661130a565b946112ce565b919085610f2d565b93610f32565b85600391899893949596979851610f848161076a565b610f8d86610d34565b8152858501548382015260028601546001600160a01b03168b82015281528b9897969590930193919091019101610f1f565b3461026857600036600319011261026857610fd94361120b565b60005260026020526040600020805461026460026001840154930154604051938493846040919493926060820195825260208201520152565b3461026857602036600319011261026857602061065460043561120b565b3461026857600036600319011261026857610c0243611625565b600354811015610cf55760036000526000805160206122498339815191520190600090565b34610268576020366003190112610268576004356003548110156102685760209060036000526000805160206122498339815191520154604051908152f35b346102685760003660031901126102685760206040517f6784108628bb46ca38406981c15d3f445c08955c04dc23f14d7a923bbb24a5278152f35b3461026857600036600319011261026857602060405160028152f35b34610268576040366003190112610268576024356004356000526000602052604060002090815481101561026857610e3c91610cd9565b346102685760003660031901126102685760206040514360061c8152f35b634e487b7160e01b600052601160045260246000fd5b8015610a1c576000190190565b600019810191908211610a1c57565b60bf19810191908211610a1c57565b607f19810191908211610a1c57565b6020039060208211610a1c57565b60f619810191908211610a1c57565b60b619810191908211610a1c57565b91908203918211610a1c57565b906040516111f08161076a565b60406002829480548452600181015460208501520154910152565b6003549081805b611241575050806112235750600090565b6112376112326108539261117d565b61104a565b90549060031b1c90565b61126b6112666112566112376112328561117d565b6000526002602052604060002090565b6111e3565b8260208201511115806112a9575b8061129b575b611293575061128d90611170565b80611212565b925050505190565b50604081015183111561127f565b5060408101511515611279565b67ffffffffffffffff81116107865760051b60200190565b6000198114610a1c5760010190565b805115610cf55760200190565b805160011015610cf55760400190565b805160021015610cf55760600190565b8051821015610cf55760209160051b010190565b9060409081519161132e8361076a565b60608352600060209381858201528183820152948152808452818120805490611356826112b6565b95611363855197886107a7565b82875280870191845280842084925b8484106113de5750505050505b83518110156113d7576113a582611396838761130a565b5101516001600160a01b031690565b6001600160a01b038481169116146113c5576113c0906112ce565b61137f565b929150506113d3925061130a565b5190565b5050505090565b60038360019289516113ef8161076a565b6113f886610d34565b81528486015483820152848060a01b036002870154168b820152815201920193019290611372565b906000918252602082815260409081842080549061143d826112b6565b9261144a855194856107a7565b82845280840191875280872087925b8484106114a8575050505050835b81518110156113d75761147e83611396838561130a565b6001600160a01b0385811691161461149e57611499906112ce565b611467565b5050505050600190565b60038360019289516114b98161076a565b6114c286610d34565b81528486015483820152848060a01b036002870154168b820152815201920193019290611459565b60009081526001916020838152604090818420805490611509826112b6565b92611516855194856107a7565b82845280840191875280872087925b84841061158f5750505050509084929184955b611546575b50505050905090565b805186101561158a5761155d82611396888461130a565b6001600160a01b038481169116146115815761157a8495966112ce565b9594611538565b50505091505090565b61153d565b98600383829a9b89516115a18161076a565b6115aa86610d34565b8152858501548382015260028601546001600160a01b03168b82015281529a9b9a959092019492019101611525565b604051906115e68261078b565b6001825260203681840137565b906115fd826112b6565b61160a60405191826107a7565b828152809261161b601f19916112b6565b0190602036910137565b60ff811115611725576116379061120b565b90816000526001806020526116506040600020546115f3565b908061166f611669866000526001602052604060002090565b546115f3565b946000915b611680575b5050509190565b611694816000526001602052604060002090565b548210156117205761171a826116ee6116d560026116c688976116c1886000526001602052604060002090565b610cd9565b5001546001600160a01b031690565b6116df838961130a565b6001600160a01b039091169052565b83611707826116c1866000526001602052604060002090565b500154611714828a61130a565b526112ce565b91611674565b611679565b5061172e611732565b9091565b61173a6115d9565b90815115610cf557730fe14f0612fdcbef05dcb8bd33dcbd02dafa46fa60208301526117646115d9565b91825115610cf557606460208401529190565b1561177e57565b60405162461bcd60e51b815260206004820152600f60248201526e125b9d985b1a59081cdc185b881a59608a1b6044820152606490fd5b156117bc57565b60405162461bcd60e51b815260206004820152602a60248201527f456e6420626c6f636b206d7573742062652067726561746572207468616e20736044820152697461727420626c6f636b60b01b6064820152608490fd5b9060018201809211610a1c57565b9060218201809211610a1c57565b9060418201809211610a1c57565b91908201809211610a1c57565b1561185257565b60405162461bcd60e51b815260206004820152604560248201527f446966666572656e6365206265747765656e20737461727420616e6420656e6460448201527f20626c6f636b206d75737420626520696e206d756c7469706c6573206f6620736064820152641c1c9a5b9d60da1b608482015260a490fd5b156118d257565b60405162461bcd60e51b815260206004820152602d60248201527f537461727420626c6f636b206d7573742062652067726561746572207468616e60448201526c1031bab93932b73a1039b830b760991b6064820152608490fd5b1561193457565b60405162461bcd60e51b81526020600482015260136024820152725370616e20616c72656164792065786973747360681b6044820152606490fd5b600354600160401b811015610786576001810180600355811015610cf55760036000526000805160206122498339815191520155565b600354600160401b811015610786576001810180600355811015610cf557600090600382526000805160206122498339815191520155565b90601f81116119eb57505050565b600091825260208220906020601f850160051c83019410611a27575b601f0160051c01915b828110611a1c57505050565b818155600101611a10565b9092508290611a07565b91908254600160401b81101561078657611a52906001948582018155610cd9565b919091611b7857805193845167ffffffffffffffff811161078657611a8181611a7b8654610cfa565b866119dd565b6020958690601f8311600114611b0057926107d696978360409460029794611ad497600092611af5575b5050600019600383901b1c191690831b1787555b8201519086015501516001600160a01b031690565b910180546001600160a01b0319166001600160a01b03909216919091179055565b015190503880611aab565b90601f19831691611b1687600052602060002090565b9260005b818110611b63575094846002979482946107d69b9c94604098611ad49a10611b4a575b505050811b018755611abf565b015160001960f88460031b161c19169055388080611b3d565b82840151855593860193928a01928a01611b1a565b634e487b7160e01b600052600060045260246000fd5b611b96611732565b9190611ba06107c9565b60008152602090600082820152611bcd60409160ff8382015261042e600080526002602052604060002090565b611bd56119a5565b60005b8351811015611c83576000808052602052611c7e906105217fad3228b676f7d3cd4284a5443f17f1962b36e491b30a40b2405849e597ba5fb55b845190611c3782611c29868a830160209181520190565b03601f1981018452836107a7565b61051c611c44858c61130a565b51611c5f611c52878c61130a565b516001600160a01b031690565b90611c686107c9565b948552898501526001600160a01b031687840152565b611bd8565b5060005b8351811015611ccb57600080526001602052611cc6906105217fa6eef7e35abe7026729641147f7915573c7e97b47efa546f5f6e3230263bcb49611c12565b611c87565b505050509050565b90602182029180830460211490151715610a1c57565b6040513d6000823e3d90fd5b6000611d2a60209260405184810191848352602182015260218152611d198161076a565b604051928392839251928391610a74565b8101039060025afa15611d3d5760005190565b611ce9565b604051916020830191600160f81b835260218401526041830152604182526080820182811067ffffffffffffffff8211176107865760209281611d2a600094826040528351928391610a74565b1561026857565b60ff601b9116019060ff8211610a1c57565b9060006041825103611e60575060208101519160ff604160408401519301511690601b8210611e50575b60ff8216601b8114159081611e44575b50611e3b57611e16600093602095604051948594859094939260ff6060936080840197845216602083015260408201520152565b838052039060015afa15611d3d576000516108536001600160a01b0382161515611d8f565b50505050600090565b601c9150141538611de2565b90611e5a90611d96565b90611dd2565b91505090565b60405190611e738261078b565b60006020838281520152565b611e87611e66565b50602081519160405192611e9a8461078b565b835201602082015290565b611eae81611f78565b1561026857611ebc81612079565b611ec5816112b6565b91611ed360405193846107a7565b818352601f19611ee2836112b6565b0160005b818110611f61575050611f07602080920151611f018161215c565b9061183e565b6000905b838210611f19575050505090565b611f5581611f29611f5b936120db565b90611f326107d8565b8281528187820152611f44868a61130a565b52611f4f858961130a565b5061183e565b916112ce565b90611f0b565b602090611f6c611e66565b82828801015201611ee6565b805115611f9957602060c09101515160001a10611f9457600190565b600090565b50600090565b6015815103610268576001600160a01b0390611fba90611fbe565b1690565b80518015159081611ff4575b501561026857611fd990612000565b90519060208110611fe8575090565b6020036101000a900490565b60219150111538611fca565b906020820191612010835161215c565b925190838201809211610a1c5751928303928311610a1c579190565b8051156102685761203f61085391612000565b61204b819392936107e5565b9261205960405194856107a7565b818452601f19612068836107e5565b0136602086013783602001906121cb565b805115611f9957600090602081019081516120938161215c565b8101809111610a1c57915190518101809111610a1c5791905b8281106120b95750905090565b6120c2816120db565b8101809111610a1c576120d590916112ce565b906120ac565b805160001a9060808210156120f1575050600190565b60b882101561210757506103ac6108539161119b565b9060c081101561212b5760b51991600160b783602003016101000a91015104010190565b9060f882101561214257506103ac6108539161118c565b60010151602082900360f7016101000a90040160f5190190565b5160001a608081101561216f5750600090565b60b8811080156121a6575b156121855750600190565b60c081101561219a576103ac610853916111c7565b6103ac610853916111b8565b5060c0811015801561217a575060f8811061217a565b601f8111610a1c576101000a90565b9290919283156122425792915b60209384841061220d5780518252848101809111610a1c57938101809111610a1c5791601f198101908111610a1c57916121d8565b919350918061221b57505050565b61222f61222a612234926111aa565b6121bc565b61117d565b905182518216911916179052565b5091505056fec2575a0e9e593c00f959f8c92f12db2869c3395a3b0502d05e2516446f71f85ba2646970667358221220cd374de57fb65a360f2075d75bd5ee2a3b4ef346cf43947ce3286c4de3c6298264736f6c63430008130033",
  "linkReferences": {},
  "deployedLinkReferences": {}
}