{
  "_format": "hh-sol-artifact-1",
  "contractName": "RouterEVM",
  "sourceName": "contracts/router/RouterEVM.sol",
  "abi": [
    {
      "inputs": [],
      "name": "InvalidAsset",
      "type": "error"
    },
    {
      "anonymous": false,
      "inputs": [
        {
          "indexed": true,
          "internalType": "address",
          "name": "to",
          "type": "address"
        },
        {
          "indexed": true,
          "internalType": "address",
          "name": "asset",
          "type": "address"
        },
        {
          "indexed": false,
          "internalType": "uint256",
          "name": "amount",
          "type": "uint256"
        },
        {
          "indexed": false,
          "internalType": "string",
          "name": "memo",
          "type": "string"
        }
      ],
      "name": "Deposit",
      "type": "event"
    },
    {
      "anonymous": false,
      "inputs": [
        {
          "indexed": false,
          "internalType": "uint8",
          "name": "version",
          "type": "uint8"
        }
      ],
      "name": "Initialized",
      "type": "event"
    },
    {
      "anonymous": false,
      "inputs": [
        {
          "indexed": true,
          "internalType": "address",
          "name": "previousOwner",
          "type": "address"
        },
        {
          "indexed": true,
          "internalType": "address",
          "name": "newOwner",
          "type": "address"
        }
      ],
      "name": "OwnershipTransferred",
      "type": "event"
    },
    {
      "anonymous": false,
      "inputs": [
        {
          "indexed": true,
          "internalType": "address",
          "name": "oldVault",
          "type": "address"
        },
        {
          "indexed": true,
          "internalType": "address",
          "name": "newVault",
          "type": "address"
        },
        {
          "indexed": false,
          "internalType": "address",
          "name": "asset",
          "type": "address"
        },
        {
          "indexed": false,
          "internalType": "uint256",
          "name": "amount",
          "type": "uint256"
        },
        {
          "indexed": false,
          "internalType": "string",
          "name": "memo",
          "type": "string"
        }
      ],
      "name": "TransferAllowance",
      "type": "event"
    },
    {
      "anonymous": false,
      "inputs": [
        {
          "indexed": true,
          "internalType": "address",
          "name": "vault",
          "type": "address"
        },
        {
          "indexed": true,
          "internalType": "address",
          "name": "to",
          "type": "address"
        },
        {
          "indexed": false,
          "internalType": "address",
          "name": "asset",
          "type": "address"
        },
        {
          "indexed": false,
          "internalType": "uint256",
          "name": "amount",
          "type": "uint256"
        },
        {
          "indexed": false,
          "internalType": "string",
          "name": "memo",
          "type": "string"
        }
      ],
      "name": "TransferOut",
      "type": "event"
    },
    {
      "anonymous": false,
      "inputs": [
        {
          "indexed": true,
          "internalType": "address",
          "name": "vault",
          "type": "address"
        },
        {
          "indexed": false,
          "internalType": "address",
          "name": "target",
          "type": "address"
        },
        {
          "indexed": false,
          "internalType": "uint256",
          "name": "amount",
          "type": "uint256"
        },
        {
          "indexed": false,
          "internalType": "address",
          "name": "finalAsset",
          "type": "address"
        },
        {
          "indexed": false,
          "internalType": "address",
          "name": "to",
          "type": "address"
        },
        {
          "indexed": false,
          "internalType": "uint256",
          "name": "amountOutMin",
          "type": "uint256"
        },
        {
          "indexed": false,
          "internalType": "string",
          "name": "memo",
          "type": "string"
        }
      ],
      "name": "TransferOutAndCall",
      "type": "event"
    },
    {
      "anonymous": false,
      "inputs": [
        {
          "indexed": true,
          "internalType": "address",
          "name": "oldVault",
          "type": "address"
        },
        {
          "indexed": true,
          "internalType": "address",
          "name": "newVault",
          "type": "address"
        },
        {
          "components": [
            {
              "internalType": "address",
              "name": "asset",
              "type": "address"
            },
            {
              "internalType": "uint256",
              "name": "amount",
              "type": "uint256"
            }
          ],
          "indexed": false,
          "internalType": "struct RouterEVM.Coin[]",
          "name": "coins",
          "type": "tuple[]"
        },
        {
          "indexed": false,
          "internalType": "string",
          "name": "memo",
          "type": "string"
        }
      ],
      "name": "VaultTransfer",
      "type": "event"
    },
    {
      "inputs": [],
      "name": "NATIVE_TOKEN",
      "outputs": [
        {
          "internalType": "address",
          "name": "",
          "type": "address"
        }
      ],
      "stateMutability": "view",
      "type": "function"
    },
    {
      "inputs": [
        {
          "internalType": "address",
          "name": "newOwner",
          "type": "address"
        }
      ],
      "name": "changeOwner",
      "outputs": [],
      "stateMutability": "nonpayable",
      "type": "function"
    },
    {
      "inputs": [
        {
          "internalType": "address payable",
          "name": "vault",
          "type": "address"
        },
        {
          "internalType": "address",
          "name": "asset",
          "type": "address"
        },
        {
          "internalType": "uint256",
          "name": "amount",
          "type": "uint256"
        },
        {
          "internalType": "string",
          "name": "memo",
          "type": "string"
        },
        {
          "internalType": "uint256",
          "name": "expiration",
          "type": "uint256"
        }
      ],
      "name": "depositWithExpiry",
      "outputs": [],
      "stateMutability": "payable",
      "type": "function"
    },
    {
      "inputs": [
        {
          "internalType": "address",
          "name": "_dojToken",
          "type": "address"
        }
      ],
      "name": "initialize",
      "outputs": [],
      "stateMutability": "nonpayable",
      "type": "function"
    },
    {
      "inputs": [],
      "name": "isOwner",
      "outputs": [
        {
          "internalType": "bool",
          "name": "",
          "type": "bool"
        }
      ],
      "stateMutability": "view",
      "type": "function"
    },
    {
      "inputs": [],
      "name": "owner",
      "outputs": [
        {
          "internalType": "address",
          "name": "",
          "type": "address"
        }
      ],
      "stateMutability": "view",
      "type": "function"
    },
    {
      "inputs": [],
      "name": "renounceOwnership",
      "outputs": [],
      "stateMutability": "nonpayable",
      "type": "function"
    },
    {
      "inputs": [
        {
          "internalType": "address",
          "name": "router",
          "type": "address"
        },
        {
          "internalType": "address payable",
          "name": "fortuna",
          "type": "address"
        },
        {
          "components": [
            {
              "internalType": "address",
              "name": "asset",
              "type": "address"
            },
            {
              "internalType": "uint256",
              "name": "amount",
              "type": "uint256"
            }
          ],
          "internalType": "struct RouterEVM.Coin[]",
          "name": "coins",
          "type": "tuple[]"
        },
        {
          "internalType": "string",
          "name": "memo",
          "type": "string"
        }
      ],
      "name": "returnVaultAssets",
      "outputs": [],
      "stateMutability": "payable",
      "type": "function"
    },
    {
      "inputs": [
        {
          "internalType": "address",
          "name": "router",
          "type": "address"
        },
        {
          "internalType": "address",
          "name": "newVault",
          "type": "address"
        },
        {
          "internalType": "address",
          "name": "asset",
          "type": "address"
        },
        {
          "internalType": "uint256",
          "name": "amount",
          "type": "uint256"
        },
        {
          "internalType": "string",
          "name": "memo",
          "type": "string"
        }
      ],
      "name": "transferAllowance",
      "outputs": [],
      "stateMutability": "nonpayable",
      "type": "function"
    },
    {
      "inputs": [
        {
          "internalType": "address payable",
          "name": "to",
          "type": "address"
        },
        {
          "internalType": "address",
          "name": "asset",
          "type": "address"
        },
        {
          "internalType": "uint256",
          "name": "amount",
          "type": "uint256"
        },
        {
          "internalType": "string",
          "name": "memo",
          "type": "string"
        }
      ],
      "name": "transferOut",
      "outputs": [],
      "stateMutability": "payable",
      "type": "function"
    },
    {
      "inputs": [
        {
          "internalType": "address payable",
          "name": "target",
          "type": "address"
        },
        {
          "internalType": "address",
          "name": "finalToken",
          "type": "address"
        },
        {
          "internalType": "address",
          "name": "to",
          "type": "address"
        },
        {
          "internalType": "uint256",
          "name": "amountOutMin",
          "type": "uint256"
        },
        {
          "internalType": "string",
          "name": "memo",
          "type": "string"
        }
      ],
      "name": "transferOutAndCall",
      "outputs": [],
      "stateMutability": "payable",
      "type": "function"
    },
    {
      "inputs": [
        {
          "internalType": "address",
          "name": "newOwner",
          "type": "address"
        }
      ],
      "name": "transferOwnership",
      "outputs": [],
      "stateMutability": "nonpayable",
      "type": "function"
    },
    {
      "inputs": [
        {
          "internalType": "address",
          "name": "vault",
          "type": "address"
        },
        {
          "internalType": "address",
          "name": "token",
          "type": "address"
        }
      ],
      "name": "vaultAllowance",
      "outputs": [
        {
          "internalType": "uint256",
          "name": "amount",
          "type": "uint256"
        }
      ],
      "stateMutability": "view",
      "type": "function"
    }
  ],
  "bytecode": "0x60808060405234610074576000805462010000600160b01b0319811633601081811b62010000600160b01b03169290921784559291901c6001600160a01b0316907f8be0079c531659141344cd1fd0a4f28419497f9722a3daafe3b4186f6b6457e09080a360018055610ffe908161007a8239f35b600080fdfe60806040908082526004918236101561001757600080fd5b600092833560e01c92836303b6a67314610b17575082631b738b3214610a5c5782632923e82e146107d457826331f7d964146107ab5782634039fd4b1461062d57826344bc937b14610517578263574da71714610339578263715018a6146102d75782638da5cb5b146102ab5782638f32d59b1461027c578263a6f9dae11461023f578263c4d66de8146100f457505063f2fde38b146100b657600080fd5b346100f15760203660031901126100f1576100ee6100d2610b5d565b6100e960018060a01b03845460101c163314610c5b565b610ca6565b80f35b80fd5b9091503461023b57602036600319011261023b57610110610b5d565b83549160ff8360081c16159283809461022e575b8015610217575b156101bd5790600191848360ff1983161788556101ac575b505561014e33610ca6565b60018060a01b03166bffffffffffffffffffffffff60a01b6002541617600255610176575080f35b60207f7f26b83ff96e1f2b6a682f133852f6798a09c465da95921460cefb38474024989161ff001984541684555160018152a180f35b61ffff191661010117865538610143565b845162461bcd60e51b8152602081840152602e60248201527f496e697469616c697a61626c653a20636f6e747261637420697320616c72656160448201526d191e481a5b9a5d1a585b1a5e995960921b6064820152608490fd5b50303b15801561012b5750600160ff82161461012b565b50600160ff821610610124565b8280fd5b83346100f15760203660031901126100f1576100ee61025c610b5d565b6100e960018060a01b03845460101c16331461027781610c5b565b610c5b565b8382346102a757816003193601126102a75760209160018060a01b03905460101c1633149051908152f35b5080fd5b8382346102a757816003193601126102a7579054905160109190911c6001600160a01b03168152602090f35b83346100f157806003193601126100f157805481601082901c6001600160a01b0316610304338214610c5b565b7f8be0079c531659141344cd1fd0a4f28419497f9722a3daafe3b4186f6b6457e08280a362010000600160b01b031916815580f35b909150608036600319011261023b57610350610b5d565b90610359610b78565b90604435906064359067ffffffffffffffff82116104d75761037d91369101610c14565b92610386610d44565b6002546001600160a01b039290848416908416810361043f57505034938685818082159283610435575b8280929181928a8a1690f115610404575b50506103fa907fa9cd03aa3c1b4515114539cd53d22085129d495cb9e9f9af77864526240f1bf79495965b519384931696339684610d9a565b0390a36001805580f35b86829161042b575b8280929181923390f1156104215786386103c1565b85513d88823e3d90fd5b6108fc915061040c565b6108fc91506103b0565b9493943388526003602052868820908852602052858720610461828254610dc1565b905586808751602081019063a9059cbb60e01b825286861660248201528460448201526044815261049181610ba4565b519082895af161049f610de4565b816104db575b50156104d7577fa9cd03aa3c1b4515114539cd53d22085129d495cb9e9f9af77864526240f1bf7936103fa91966103ec565b8680fd5b80518015925082156104f0575b5050386104a5565b8192509060209181010312610513576020015180151581036105135738806104e8565b8780fd5b915060a036600319011261023b5761052d610b5d565b91610536610b78565b9260643567ffffffffffffffff8111610629576105569036908401610c14565b916084354210156105f457610569610d44565b6002546001600160a01b03958616959190821686036105e65750349086808380156105dc575b82809291819286891690f1156104d7577fef519b7eb82aaf6ac376a6df2d793843ebfd593de5f1a0601d3cc6ab49ebb395936103fa91865194859485528760208601521695830190610d04565b6108fc915061058f565b8451636448d6e960e11b8152fd5b606490602085519162461bcd60e51b8352820152600f60248201526e149bdd5d195c8e88195e1c1a5c9959608a1b6044820152fd5b8580fd5b90915060a036600319011261023b57610644610b5d565b9061064d610b78565b90610656610b8e565b90606435916084359367ffffffffffffffff948581116107a75761067d9036908501610c14565b95610686610d44565b60018060a01b0380911695885191806020840194631230c53d60e21b8652169485602485015216948560448401528660648401526064835260a0830191838310908311176107945750885251889182919034885af16106e3610de4565b5015610746575b857f8e5841bcd195b858d53b38bcf91b38d47f3bc800469b6812d35451ab619c6f6c9596519485523460208601528401526060830152608082015260c060a08201528061073c339460c0830190610d04565b0390a26001805580f35b86341581808261078b575b81808092883491f115610766575b50506106ea565b8190610782575b8180809234903390f11561042157863861075f565b506108fc61076d565b506108fc610751565b634e487b7160e01b8b526041905260248afd5b8880fd5b8382346102a757816003193601126102a75760025490516001600160a01b039091168152602090f35b909150608036600319011261023b576107eb610b5d565b926107f4610b78565b936044359167ffffffffffffffff958684116102a757366023850112156102a7578385013594878611610a4957865197602095610836878960051b018b610bd6565b878a52868a0180986024809160061b84010192368411610513578101915b8383106109ef57505050506064359081116109eb5761087591369101610c14565b61087d610d44565b6001600160a01b0393808516300361098c575094958184169590835b89518110156108d757806108cd8b896108c3848b6108ba6108d29886610e23565b51511693610e23565b510151908b610e4d565b610e14565b610899565b508051818152985189820181905294989397929695919460608501939189905b82821061096a575050505093869791937f281daef48d91e5cd3d32db0784f6af69cd8d8d2e8c612a3568dca51ded51e08f8480610942888c9b989a8c9b8c9b03908401523395610d04565b0390a35b82903415610960575b34921690f1156100f1576001805580f35b6108fc915061094f565b835180518d1687528501518587015294850194928401926001909101906108f7565b9550969391809391965092818716935b85518110156109d657806108cd8a856109b86109d1958b610e23565b515116876109c6858c610e23565b51015190898c610eba565b61099c565b50965086959150859450849350839250610946565b8380fd5b8b83360312610513578b518c810181811087821117610a37578d5283356001600160a01b0381168103610a33578152838b01358b8201528152918b01918901610854565b8980fd5b634e487b7160e01b8a5260418852838afd5b634e487b7160e01b835260419052602482fd5b9091503461023b5760a036600319011261023b57610a78610b5d565b610a80610b78565b90610a89610b8e565b91606435936084359067ffffffffffffffff821161051357610aad91369101610c14565b94610ab6610d44565b6001600160a01b03928084163003610b03575084956103fa916103ec86977f05b90458f953d3fcb2d7fb25616a2fddeca749d0c47cc5c9832d0266b5346eea9786610e4d565b6001805580f35b9050610b129594939250610eba565b610afc565b9250503461023b578060031936011261023b57602092610b35610b5d565b610b3d610b78565b6001600160a01b0391821683526003865283832091168252845220548152f35b600435906001600160a01b0382168203610b7357565b600080fd5b602435906001600160a01b0382168203610b7357565b604435906001600160a01b0382168203610b7357565b6080810190811067ffffffffffffffff821117610bc057604052565b634e487b7160e01b600052604160045260246000fd5b90601f8019910116810190811067ffffffffffffffff821117610bc057604052565b67ffffffffffffffff8111610bc057601f01601f191660200190565b81601f82011215610b7357803590610c2b82610bf8565b92610c396040519485610bd6565b82845260208383010111610b7357816000926020809301838601378301015290565b15610c6257565b606460405162461bcd60e51b815260206004820152602060248201527f4f776e61626c653a2063616c6c6572206973206e6f7420746865206f776e65726044820152fd5b6000805462010000600160b01b03198116601084811b62010000600160b01b03169190911783556001600160a01b039384169391901c16907f8be0079c531659141344cd1fd0a4f28419497f9722a3daafe3b4186f6b6457e09080a3565b919082519283825260005b848110610d30575050826000602080949584010152601f8019910116010190565b602081830181015184830182015201610d0f565b600260015414610d55576002600155565b60405162461bcd60e51b815260206004820152601f60248201527f5265656e7472616e637947756172643a207265656e7472616e742063616c6c006044820152606490fd5b610dbe939260609260018060a01b0316825260208201528160408201520190610d04565b90565b91908203918211610dce57565b634e487b7160e01b600052601160045260246000fd5b3d15610e0f573d90610df582610bf8565b91610e036040519384610bd6565b82523d6000602084013e565b606090565b6000198114610dce5760010190565b8051821015610e375760209160051b010190565b634e487b7160e01b600052603260045260246000fd5b6000913383526003602052604083209160018060a01b038092169283855260205260408420610e7d868254610dc1565b905516825260036020526040822090825260205260408120908154928301809311610ea6575055565b634e487b7160e01b81526011600452602490fd5b93909293600092338452600360205260409485852093858060018060a01b039485811697888352602052898220610ef28c8254610dc1565b9055895196828760208a019263095ea7b360e01b845216988960248201528d604482015260448152610f2381610ba4565b51925af1610f2f610de4565b501561062957833b15610629578594939291610f7a869289519a8b97889687956344bc937b60e01b87521660048601526024850152604484015260a0606484015260a4830190610d04565b600019608483015203925af18015610fbc57610f9557505050565b67ffffffffffffffff8311610fa8575052565b634e487b7160e01b81526041600452602490fd5b509051903d90823e3d90fdfea26469706673582212203eae1511c90749b4ee21ce11236aa6ecac27268681fba4a281c960469f21d3c664736f6c63430008130033",
  "linkReferences": {},
  "deployedLinkReferences": {}
}