{
  "_format": "hh-sol-artifact-1",
  "contractName": "TestDOJ",
  "sourceName": "contracts/test/dojima_chain_contracts/TestDOJToken.sol",
  "abi": [
    {
      "inputs": [],
      "stateMutability": "nonpayable",
      "type": "constructor"
    },
    {
      "anonymous": false,
      "inputs": [
        {
          "indexed": true,
          "internalType": "address",
          "name": "owner",
          "type": "address"
        },
        {
          "indexed": true,
          "internalType": "address",
          "name": "spender",
          "type": "address"
        },
        {
          "indexed": false,
          "internalType": "uint256",
          "name": "value",
          "type": "uint256"
        }
      ],
      "name": "Approval",
      "type": "event"
    },
    {
      "anonymous": false,
      "inputs": [
        {
          "indexed": false,
          "internalType": "bytes32",
          "name": "chainName",
          "type": "bytes32"
        },
        {
          "indexed": false,
          "internalType": "bytes",
          "name": "contractAddress",
          "type": "bytes"
        }
      ],
      "name": "ChainContractMappingUpdated",
      "type": "event"
    },
    {
      "anonymous": false,
      "inputs": [
        {
          "indexed": false,
          "internalType": "address",
          "name": "_outboundStateSender",
          "type": "address"
        },
        {
          "indexed": false,
          "internalType": "address",
          "name": "_stateSyncerVerifier",
          "type": "address"
        }
      ],
      "name": "Initialize",
      "type": "event"
    },
    {
      "anonymous": false,
      "inputs": [
        {
          "indexed": false,
          "internalType": "uint8",
          "name": "version",
          "type": "uint8"
        }
      ],
      "name": "Initialized",
      "type": "event"
    },
    {
      "anonymous": false,
      "inputs": [
        {
          "indexed": true,
          "internalType": "address",
          "name": "previousOwner",
          "type": "address"
        },
        {
          "indexed": true,
          "internalType": "address",
          "name": "newOwner",
          "type": "address"
        }
      ],
      "name": "OwnershipTransferred",
      "type": "event"
    },
    {
      "anonymous": false,
      "inputs": [
        {
          "indexed": true,
          "internalType": "bytes32",
          "name": "role",
          "type": "bytes32"
        },
        {
          "indexed": true,
          "internalType": "bytes32",
          "name": "previousAdminRole",
          "type": "bytes32"
        },
        {
          "indexed": true,
          "internalType": "bytes32",
          "name": "newAdminRole",
          "type": "bytes32"
        }
      ],
      "name": "RoleAdminChanged",
      "type": "event"
    },
    {
      "anonymous": false,
      "inputs": [
        {
          "indexed": true,
          "internalType": "bytes32",
          "name": "role",
          "type": "bytes32"
        },
        {
          "indexed": true,
          "internalType": "address",
          "name": "account",
          "type": "address"
        },
        {
          "indexed": true,
          "internalType": "address",
          "name": "sender",
          "type": "address"
        }
      ],
      "name": "RoleGranted",
      "type": "event"
    },
    {
      "anonymous": false,
      "inputs": [
        {
          "indexed": true,
          "internalType": "bytes32",
          "name": "role",
          "type": "bytes32"
        },
        {
          "indexed": true,
          "internalType": "address",
          "name": "account",
          "type": "address"
        },
        {
          "indexed": true,
          "internalType": "address",
          "name": "sender",
          "type": "address"
        }
      ],
      "name": "RoleRevoked",
      "type": "event"
    },
    {
      "anonymous": false,
      "inputs": [
        {
          "indexed": false,
          "internalType": "bytes32",
          "name": "destinationChain",
          "type": "bytes32"
        },
        {
          "indexed": false,
          "internalType": "bytes",
          "name": "user",
          "type": "bytes"
        },
        {
          "indexed": false,
          "internalType": "uint256",
          "name": "amount",
          "type": "uint256"
        }
      ],
      "name": "TokensTransferredToDestinationChain",
      "type": "event"
    },
    {
      "anonymous": false,
      "inputs": [
        {
          "indexed": true,
          "internalType": "address",
          "name": "from",
          "type": "address"
        },
        {
          "indexed": true,
          "internalType": "address",
          "name": "to",
          "type": "address"
        },
        {
          "indexed": false,
          "internalType": "uint256",
          "name": "value",
          "type": "uint256"
        }
      ],
      "name": "Transfer",
      "type": "event"
    },
    {
      "inputs": [],
      "name": "ADMIN_ROLE",
      "outputs": [
        {
          "internalType": "bytes32",
          "name": "",
          "type": "bytes32"
        }
      ],
      "stateMutability": "view",
      "type": "function"
    },
    {
      "inputs": [],
      "name": "DEFAULT_ADMIN_ROLE",
      "outputs": [
        {
          "internalType": "bytes32",
          "name": "",
          "type": "bytes32"
        }
      ],
      "stateMutability": "view",
      "type": "function"
    },
    {
      "inputs": [],
      "name": "MINTER_ROLE",
      "outputs": [
        {
          "internalType": "bytes32",
          "name": "",
          "type": "bytes32"
        }
      ],
      "stateMutability": "view",
      "type": "function"
    },
    {
      "inputs": [],
      "name": "TOKEN_NAME",
      "outputs": [
        {
          "internalType": "string",
          "name": "",
          "type": "string"
        }
      ],
      "stateMutability": "view",
      "type": "function"
    },
    {
      "inputs": [],
      "name": "TOKEN_SYMBOL",
      "outputs": [
        {
          "internalType": "string",
          "name": "",
          "type": "string"
        }
      ],
      "stateMutability": "view",
      "type": "function"
    },
    {
      "inputs": [
        {
          "internalType": "address",
          "name": "",
          "type": "address"
        },
        {
          "internalType": "address",
          "name": "",
          "type": "address"
        }
      ],
      "name": "allowance",
      "outputs": [
        {
          "internalType": "uint256",
          "name": "",
          "type": "uint256"
        }
      ],
      "stateMutability": "pure",
      "type": "function"
    },
    {
      "inputs": [
        {
          "internalType": "address",
          "name": "",
          "type": "address"
        },
        {
          "internalType": "uint256",
          "name": "",
          "type": "uint256"
        }
      ],
      "name": "approve",
      "outputs": [
        {
          "internalType": "bool",
          "name": "",
          "type": "bool"
        }
      ],
      "stateMutability": "pure",
      "type": "function"
    },
    {
      "inputs": [
        {
          "internalType": "address",
          "name": "account",
          "type": "address"
        }
      ],
      "name": "balanceOf",
      "outputs": [
        {
          "internalType": "uint256",
          "name": "",
          "type": "uint256"
        }
      ],
      "stateMutability": "view",
      "type": "function"
    },
    {
      "inputs": [
        {
          "internalType": "bytes32",
          "name": "",
          "type": "bytes32"
        }
      ],
      "name": "chainContractMappings",
      "outputs": [
        {
          "internalType": "bytes",
          "name": "",
          "type": "bytes"
        }
      ],
      "stateMutability": "view",
      "type": "function"
    },
    {
      "inputs": [],
      "name": "decimals",
      "outputs": [
        {
          "internalType": "uint8",
          "name": "",
          "type": "uint8"
        }
      ],
      "stateMutability": "view",
      "type": "function"
    },
    {
      "inputs": [
        {
          "internalType": "address",
          "name": "spender",
          "type": "address"
        },
        {
          "internalType": "uint256",
          "name": "subtractedValue",
          "type": "uint256"
        }
      ],
      "name": "decreaseAllowance",
      "outputs": [
        {
          "internalType": "bool",
          "name": "",
          "type": "bool"
        }
      ],
      "stateMutability": "nonpayable",
      "type": "function"
    },
    {
      "inputs": [
        {
          "internalType": "bytes32",
          "name": "role",
          "type": "bytes32"
        }
      ],
      "name": "getRoleAdmin",
      "outputs": [
        {
          "internalType": "bytes32",
          "name": "",
          "type": "bytes32"
        }
      ],
      "stateMutability": "view",
      "type": "function"
    },
    {
      "inputs": [
        {
          "internalType": "bytes32",
          "name": "role",
          "type": "bytes32"
        },
        {
          "internalType": "address",
          "name": "account",
          "type": "address"
        }
      ],
      "name": "grantRole",
      "outputs": [],
      "stateMutability": "nonpayable",
      "type": "function"
    },
    {
      "inputs": [
        {
          "internalType": "bytes32",
          "name": "role",
          "type": "bytes32"
        },
        {
          "internalType": "address",
          "name": "account",
          "type": "address"
        }
      ],
      "name": "hasRole",
      "outputs": [
        {
          "internalType": "bool",
          "name": "",
          "type": "bool"
        }
      ],
      "stateMutability": "view",
      "type": "function"
    },
    {
      "inputs": [
        {
          "internalType": "address",
          "name": "spender",
          "type": "address"
        },
        {
          "internalType": "uint256",
          "name": "addedValue",
          "type": "uint256"
        }
      ],
      "name": "increaseAllowance",
      "outputs": [
        {
          "internalType": "bool",
          "name": "",
          "type": "bool"
        }
      ],
      "stateMutability": "nonpayable",
      "type": "function"
    },
    {
      "inputs": [
        {
          "internalType": "address",
          "name": "_outboundStateSender",
          "type": "address"
        },
        {
          "internalType": "address",
          "name": "_stateSyncerVerifier",
          "type": "address"
        }
      ],
      "name": "initialize",
      "outputs": [],
      "stateMutability": "nonpayable",
      "type": "function"
    },
    {
      "inputs": [],
      "name": "name",
      "outputs": [
        {
          "internalType": "string",
          "name": "",
          "type": "string"
        }
      ],
      "stateMutability": "view",
      "type": "function"
    },
    {
      "inputs": [
        {
          "internalType": "uint256",
          "name": "",
          "type": "uint256"
        },
        {
          "internalType": "bytes",
          "name": "data",
          "type": "bytes"
        }
      ],
      "name": "onStateReceive",
      "outputs": [],
      "stateMutability": "nonpayable",
      "type": "function"
    },
    {
      "inputs": [],
      "name": "outboundStateSender",
      "outputs": [
        {
          "internalType": "contract IOutboundStateSender",
          "name": "",
          "type": "address"
        }
      ],
      "stateMutability": "view",
      "type": "function"
    },
    {
      "inputs": [],
      "name": "owner",
      "outputs": [
        {
          "internalType": "address",
          "name": "",
          "type": "address"
        }
      ],
      "stateMutability": "view",
      "type": "function"
    },
    {
      "inputs": [],
      "name": "renounceOwnership",
      "outputs": [],
      "stateMutability": "nonpayable",
      "type": "function"
    },
    {
      "inputs": [
        {
          "internalType": "bytes32",
          "name": "role",
          "type": "bytes32"
        },
        {
          "internalType": "address",
          "name": "account",
          "type": "address"
        }
      ],
      "name": "renounceRole",
      "outputs": [],
      "stateMutability": "nonpayable",
      "type": "function"
    },
    {
      "inputs": [
        {
          "internalType": "bytes32",
          "name": "role",
          "type": "bytes32"
        },
        {
          "internalType": "address",
          "name": "account",
          "type": "address"
        }
      ],
      "name": "revokeRole",
      "outputs": [],
      "stateMutability": "nonpayable",
      "type": "function"
    },
    {
      "inputs": [],
      "name": "stateVerifier",
      "outputs": [
        {
          "internalType": "contract StateSyncerVerifier",
          "name": "",
          "type": "address"
        }
      ],
      "stateMutability": "view",
      "type": "function"
    },
    {
      "inputs": [
        {
          "internalType": "bytes4",
          "name": "interfaceId",
          "type": "bytes4"
        }
      ],
      "name": "supportsInterface",
      "outputs": [
        {
          "internalType": "bool",
          "name": "",
          "type": "bool"
        }
      ],
      "stateMutability": "view",
      "type": "function"
    },
    {
      "inputs": [],
      "name": "symbol",
      "outputs": [
        {
          "internalType": "string",
          "name": "",
          "type": "string"
        }
      ],
      "stateMutability": "view",
      "type": "function"
    },
    {
      "inputs": [],
      "name": "totalSupply",
      "outputs": [
        {
          "internalType": "uint256",
          "name": "",
          "type": "uint256"
        }
      ],
      "stateMutability": "view",
      "type": "function"
    },
    {
      "inputs": [
        {
          "internalType": "address",
          "name": "to",
          "type": "address"
        },
        {
          "internalType": "uint256",
          "name": "amount",
          "type": "uint256"
        }
      ],
      "name": "transfer",
      "outputs": [
        {
          "internalType": "bool",
          "name": "",
          "type": "bool"
        }
      ],
      "stateMutability": "nonpayable",
      "type": "function"
    },
    {
      "inputs": [
        {
          "internalType": "address",
          "name": "",
          "type": "address"
        },
        {
          "internalType": "address",
          "name": "",
          "type": "address"
        },
        {
          "internalType": "uint256",
          "name": "",
          "type": "uint256"
        }
      ],
      "name": "transferFrom",
      "outputs": [
        {
          "internalType": "bool",
          "name": "",
          "type": "bool"
        }
      ],
      "stateMutability": "pure",
      "type": "function"
    },
    {
      "inputs": [
        {
          "internalType": "address",
          "name": "newOwner",
          "type": "address"
        }
      ],
      "name": "transferOwnership",
      "outputs": [],
      "stateMutability": "nonpayable",
      "type": "function"
    },
    {
      "inputs": [
        {
          "internalType": "bytes32",
          "name": "destinationChain",
          "type": "bytes32"
        },
        {
          "internalType": "bytes",
          "name": "user",
          "type": "bytes"
        },
        {
          "internalType": "uint256",
          "name": "amount",
          "type": "uint256"
        },
        {
          "internalType": "bytes",
          "name": "destinationContractAddress",
          "type": "bytes"
        }
      ],
      "name": "transferToDestinationChain",
      "outputs": [],
      "stateMutability": "nonpayable",
      "type": "function"
    },
    {
      "inputs": [
        {
          "internalType": "bytes32",
          "name": "chainName",
          "type": "bytes32"
        },
        {
          "internalType": "bytes",
          "name": "contractAddress",
          "type": "bytes"
        }
      ],
      "name": "updateChainContractMapping",
      "outputs": [],
      "stateMutability": "nonpayable",
      "type": "function"
    }
  ],
  "bytecode": "0x6080346200036d576001600160401b0390604090808201838111828210176200026d578252600e81526020926d2a32b9ba102227a5102a37b5b2b760911b84830152825190838201828110828211176200026d5784526003808352622a27a560e91b8684015283518281116200026d578154906001958683811c9316801562000362575b898410146200034c578190601f93848111620002f6575b5089908483116001146200028f5760009262000283575b505060001982851b1c191690861b1782555b83519283116200026d576004938454978689811c9916801562000262575b818a10146200024d578883869798999a11620001f1575b508092851160011462000183575060009362000177575b505082851b92600019911b1c19161790555b60065560078054336001600160a01b0319821681179092559151916001600160a01b03167f8be0079c531659141344cd1fd0a4f28419497f9722a3daafe3b4186f6b6457e0600080a3611ffd9081620003738239f35b0151915038806200010f565b929190879550601f1985168760005284600020946000905b828210620001d75750508511620001bc575b50505050811b01905562000121565b01519060f884600019921b161c1916905538808080620001ad565b8484015187558a989096019593840193908101906200019b565b90919293945086600052816000208480880160051c82019284891062000243575b918a91899897969594930160051c01915b82811062000233575050620000f8565b600081558897508a910162000223565b9250819262000212565b602286634e487b7160e01b6000525260246000fd5b98607f1698620000e1565b634e487b7160e01b600052604160045260246000fd5b015190503880620000b1565b90889350601f19831691866000528b6000209260005b8d828210620002df5750508411620002c6575b505050811b018255620000c3565b015160001983871b60f8161c19169055388080620002b8565b8385015186558c97909501949384019301620002a5565b90915084600052896000208480850160051c8201928c861062000342575b918a91869594930160051c01915b828110620003325750506200009a565b600081558594508a910162000322565b9250819262000314565b634e487b7160e01b600052602260045260246000fd5b92607f169262000083565b600080fdfe6080604052600436101561001257600080fd5b60003560e01c806301ffc9a71461020d57806306fdde0314610208578063095ea7b31461019a57806318160ddd1461020357806318821400146101fe5780631fa98100146101f957806323b872dd146101f4578063248a9ca3146101ef57806326c53bea146101ea5780632783d84f146101e55780632a905318146101e05780632f2ff15d146101db578063313ce567146101d657806336568abe146101d1578063395093511461019a578063485cc955146101cc5780635a81dd1b146101c757806370a08231146101c2578063715018a6146101bd57806375b238fc146101b85780638da5cb5b146101b357806391caa941146101ae57806391d14854146101a957806395d89b41146101a4578063a217fddf1461019f578063a457c2d71461019a578063a9059cbb14610195578063d539139314610190578063d547741f1461018b578063d6726b3714610186578063dd62ed3e146101815763f2fde38b1461017c57600080fd5b61110d565b6110f4565b6110a3565b610f77565b610f3c565b610e38565b6103e0565b610e1c565b610d75565b610d23565b610cfa565b610cd1565b610c96565b610c38565b610bfe565b610bd5565b610ae0565b610a4e565b610a32565b610969565b610925565b6107bf565b6106d2565b6106a3565b610681565b610530565b61048a565b6103ff565b6102cf565b346102635760203660031901126102635760043563ffffffff60e01b811680910361026357602090637965db0b60e01b8114908115610252575b506040519015158152f35b6301ffc9a760e01b14905038610247565b600080fd5b600091031261026357565b60005b8381106102865750506000910152565b8181015183820152602001610276565b906020916102af81518092818552858086019101610273565b601f01601f1916010190565b9060206102cc928181520190610296565b90565b34610263576000806003193601126103b15760405190806003546102f281610fb6565b80855291600191808316908115610387575060011461032c575b6103288561031c81870382610468565b604051918291826102bb565b0390f35b9250600383527fc2575a0e9e593c00f959f8c92f12db2869c3395a3b0502d05e2516446f71f85b5b82841061036f57505050810160200161031c8261032861030c565b80546020858701810191909152909301928101610354565b8695506103289693506020925061031c94915060ff191682840152151560051b820101929361030c565b80fd5b600435906001600160a01b038216820361026357565b602435906001600160a01b038216820361026357565b34610263576040366003190112610263576103f96103b4565b50611c81565b34610263576000366003190112610263576020600254604051908152f35b634e487b7160e01b600052604160045260246000fd5b67ffffffffffffffff811161044757604052565b61041d565b6040810190811067ffffffffffffffff82111761044757604052565b90601f8019910116810190811067ffffffffffffffff82111761044757604052565b34610263576000366003190112610263576103286040516104aa8161044c565b600e81526d2a32b9ba102227a5102a37b5b2b760911b6020820152604051918291602083526020830190610296565b81601f820112156102635780359067ffffffffffffffff8211610447576040519261050e601f8401601f191660200185610468565b8284526020838301011161026357816000926020809301838601378301015290565b346102635760803660031901126102635767ffffffffffffffff600435602435828111610263576105659036906004016104d9565b916064359081116102635761057e9036906004016104d9565b9060026006541461063c5760026006558151156105e1576105d5926105cc835160208501206105bf6105ba85600052600a602052604060002090565b611086565b6020815191012014611cb9565b60443591611dac565b6105df6001600655565b005b60405162461bcd60e51b815260206004820152602d60248201527f544f4a546f6b656e20496e76616c69642064657374696e6174696f6e20636f6e60448201526c7472616374206164647265737360981b6064820152608490fd5b60405162461bcd60e51b815260206004820152601f60248201527f5265656e7472616e637947756172643a207265656e7472616e742063616c6c006044820152606490fd5b346102635760603660031901126102635761069a6103b4565b506103f96103ca565b346102635760203660031901126102635760043560005260056020526020600160406000200154604051908152f35b346102635760403660031901126102635760243567ffffffffffffffff8082116102635736602383011215610263578160040135818111610263578201602481019036821161026357836060916107276112b3565b0312610263576024830135918211610263576024610747928401016104d9565b90601482510361077b57601491909101516105df916044906107736001600160a01b0384161515611f5b565b013590611bc2565b606460405162461bcd60e51b815260206004820152602060248201527f544f4a546f6b656e3a20496e76616c69642061646472657373206c656e6774686044820152fd5b346102635760403660031901126102635767ffffffffffffffff600435602435828111610263576107f49036906004016104d9565b6107fc6111d1565b6000918083526020600a8152604084209083519586116104475761082a866108248454610fb6565b84611c16565b80601f87116001146108975750948085967f5a2091c6c2e10c7cdba84047a6191524b248b1548b97af446d4d19d2a9ce6e05969161088c575b508160011b916000199060031b1c19161790555b61088660405192839283611c6a565b0390a180f35b905084015138610863565b90601f1987166108ac84600052602060002090565b9287905b82821061090d5750509187917f5a2091c6c2e10c7cdba84047a6191524b248b1548b97af446d4d19d2a9ce6e059798600194106108f4575b5050811b019055610877565b86015160001960f88460031b161c1916905538806108e8565b80600185968294968b015181550195019301906108b0565b34610263576000366003190112610263576103286040516109458161044c565b60038152622a27a560e91b6020820152604051918291602083526020830190610296565b34610263576040366003190112610263576004356109856103ca565b60009180835260056020526109a06001604085200154611308565b8083526005602090815260408085206001600160a01b0385166000908152925290205460ff16156109cf578280f35b8083526005602090815260408085206001600160a01b038516600090815292529020805460ff1916600117905533916001600160a01b0316907f2f8788117e7eff1d82e926ec794901d17c78024a50270940304540a733656f0d8480a438808280f35b3461026357600036600319011261026357602060405160128152f35b3461026357604036600319011261026357610a676103ca565b336001600160a01b03821603610a83576105df90600435611500565b60405162461bcd60e51b815260206004820152602f60248201527f416363657373436f6e74726f6c3a2063616e206f6e6c792072656e6f756e636560448201526e103937b632b9903337b91039b2b63360891b6064820152608490fd5b3461026357604036600319011261026357610af96103b4565b610b46610b046103ca565b60075492610b2960ff8560a81c161580958196610bc3575b8115610ba0575b50611934565b6007805460ff60a01b1916600160a01b17905583610b8857611997565b610b4c57005b6007805460ff60a81b19169055604051600181527f7f26b83ff96e1f2b6a682f133852f6798a09c465da95921460cefb384740249890602090a1005b6007805460ff60a81b1916600160a81b179055611997565b303b15915081610bb2575b5038610b23565b60a01c60ff16600114905038610bab565b9050600160ff8260a01c161090610b1c565b34610263576000366003190112610263576009546040516001600160a01b039091168152602090f35b34610263576020366003190112610263576001600160a01b03610c1f6103b4565b1660005260006020526020604060002054604051908152f35b34610263576000806003193601126103b157610c52611593565b600780546001600160a01b0319811690915581906001600160a01b03167f8be0079c531659141344cd1fd0a4f28419497f9722a3daafe3b4186f6b6457e08280a380f35b346102635760003660031901126102635760206040517fa49807205ce4d355092ef5a8a18f56e8913cf4a201fbe287825b095693c217758152f35b34610263576000366003190112610263576007546040516001600160a01b039091168152602090f35b34610263576000366003190112610263576008546040516001600160a01b039091168152602090f35b3461026357604036600319011261026357602060ff610d69610d436103ca565b6004356000526005845260406000209060018060a01b0316600052602052604060002090565b54166040519015158152f35b34610263576000806003193601126103b1576040519080600454610d9881610fb6565b808552916001918083169081156103875750600114610dc1576103288561031c81870382610468565b9250600483527f8a35acfbc15ff81a39ae7d344fd709f28e8600b4aa8c65c6b64bfe7fe36bd19b5b828410610e0457505050810160200161031c8261032861030c565b80546020858701810191909152909301928101610de9565b3461026357600036600319011261026357602060405160008152f35b3461026357604036600319011261026357610e516103b4565b6024353315610ee9576001600160a01b03821691610ebb90610e74841515611601565b336000908152602081905260409020839054610e9282821015611659565b33600090815260208190526040808220939092039092556001600160a01b039290921681522090565b8054820190556040519081523390600080516020611fa883398151915290602090a360405160018152602090f35b60405162461bcd60e51b815260206004820152602560248201527f45524332303a207472616e736665722066726f6d20746865207a65726f206164604482015264647265737360d81b6064820152608490fd5b346102635760003660031901126102635760206040517f9f2df0fed2c77648de5860a4cc508cd0818c85b8b8a1ab4ceeef8d981c8956a68152f35b34610263576040366003190112610263576105df600435610f966103ca565b90806000526005602052610fb1600160406000200154611308565b611500565b90600182811c92168015610fe6575b6020831014610fd057565b634e487b7160e01b600052602260045260246000fd5b91607f1691610fc5565b906000929180549161100183610fb6565b9182825260019384811690816000146110635750600114611023575b50505050565b90919394506000526020928360002092846000945b83861061104f57505050500101903880808061101d565b805485870183015294019385908201611038565b9294505050602093945060ff191683830152151560051b0101903880808061101d565b906110a161109a9260405193848092610ff0565b0383610468565b565b3461026357602036600319011261026357600435600052600a6020526103286110d96110e0604060002060405192838092610ff0565b0382610468565b604051918291602083526020830190610296565b346102635760403660031901126102635761069a6103b4565b34610263576020366003190112610263576111266103b4565b61112e611593565b6001600160a01b0390811690811561117d57600754826001600160601b0360a01b821617600755167f8be0079c531659141344cd1fd0a4f28419497f9722a3daafe3b4186f6b6457e0600080a3005b60405162461bcd60e51b815260206004820152602660248201527f4f776e61626c653a206e6577206f776e657220697320746865207a65726f206160448201526564647265737360d01b6064820152608490fd5b3360009081527fd8ef4509105c3edb0b04658b4528edc5ddd30ea5a81e623a2623c88db1eb54b6602052604090205460ff161561120a57565b6112af604861129761121b33611781565b611289611226611812565b6040519485937f416363657373436f6e74726f6c3a206163636f756e74200000000000000000006020860152611266815180926020603789019101610273565b84017001034b99036b4b9b9b4b733903937b6329607d1b603782015201906113c0565b03601f198101835282610468565b60405162461bcd60e51b8152918291600483016102bb565b0390fd5b3360009081527f15a28d26fa1bf736cf7edc9922607171ccb09c3c73b808e7772a3013e068a522602052604090205460ff16156112ec57565b6112af60486112976112fd33611781565b6112896112266118a3565b600081815260056020908152604080832033845290915290205460ff161561132d5750565b61133633611781565b61133e6116b4565b91603061134a846116f6565b53607861135684611703565b5360415b60018111611379576112af604861129785611289886112268815611736565b90600f81169060108210156113bb576113b6916f181899199a1a9b1b9c1cb0b131b232b360811b901a6113ac8487611713565b5360041c91611724565b61135a565b6116e0565b906113d360209282815194859201610273565b0190565b6001600160a01b03811660009081527f15a28d26fa1bf736cf7edc9922607171ccb09c3c73b808e7772a3013e068a522602052604081207f9f2df0fed2c77648de5860a4cc508cd0818c85b8b8a1ab4ceeef8d981c8956a69060ff905b54161561144057505050565b8082526005602090815260408084206001600160a01b038616600090815292529020805460ff1916600117905533926001600160a01b0316917f2f8788117e7eff1d82e926ec794901d17c78024a50270940304540a733656f0d9080a4565b6001600160a01b03811660009081527fd8ef4509105c3edb0b04658b4528edc5ddd30ea5a81e623a2623c88db1eb54b6602052604081207fa49807205ce4d355092ef5a8a18f56e8913cf4a201fbe287825b095693c217759060ff90611434565b600090808252600560205260ff61152c84604085209060018060a01b0316600052602052604060002090565b541661153757505050565b8082526005602090815260408084206001600160a01b038616600090815292529020805460ff1916905533926001600160a01b0316917ff6391f5c32d9c69d2a47ea670b442974b53935d1edc7fd64eb21e047a839171b9080a4565b6007546001600160a01b031633036115a757565b606460405162461bcd60e51b815260206004820152602060248201527f4f776e61626c653a2063616c6c6572206973206e6f7420746865206f776e65726044820152fd5b634e487b7160e01b600052601160045260246000fd5b1561160857565b60405162461bcd60e51b815260206004820152602360248201527f45524332303a207472616e7366657220746f20746865207a65726f206164647260448201526265737360e81b6064820152608490fd5b1561166057565b60405162461bcd60e51b815260206004820152602660248201527f45524332303a207472616e7366657220616d6f756e7420657863656564732062604482015265616c616e636560d01b6064820152608490fd5b604051906080820182811067ffffffffffffffff82111761044757604052604282526060366020840137565b634e487b7160e01b600052603260045260246000fd5b8051156113bb5760200190565b8051600110156113bb5760210190565b9081518110156113bb570160200190565b8015611731576000190190565b6115eb565b1561173d57565b606460405162461bcd60e51b815260206004820152602060248201527f537472696e67733a20686578206c656e67746820696e73756666696369656e746044820152fd5b604051906060820182811067ffffffffffffffff82111761044757604052602a8252604036602084013760306117b6836116f6565b5360786117c283611703565b536029905b600182116117da576102cc915015611736565b600f81169060108210156113bb5761180c916f181899199a1a9b1b9c1cb0b131b232b360811b901a6113ac8486611713565b906117c7565b7fa49807205ce4d355092ef5a8a18f56e8913cf4a201fbe287825b095693c2177561183b6116b4565b906030611847836116f6565b53607861185383611703565b536041905b6001821161186b576102cc915015611736565b600f81169060108210156113bb5761189d916f181899199a1a9b1b9c1cb0b131b232b360811b901a6113ac8486611713565b90611858565b7f9f2df0fed2c77648de5860a4cc508cd0818c85b8b8a1ab4ceeef8d981c8956a66118cc6116b4565b9060306118d8836116f6565b5360786118e483611703565b536041905b600182116118fc576102cc915015611736565b600f81169060108210156113bb5761192e916f181899199a1a9b1b9c1cb0b131b232b360811b901a6113ac8486611713565b906118e9565b1561193b57565b60405162461bcd60e51b815260206004820152602e60248201527f496e697469616c697a61626c653a20636f6e747261637420697320616c72656160448201526d191e481a5b9a5d1a585b1a5e995960921b6064820152608490fd5b6001600160a01b038083169291908315611ab65781168015611a55577fdc90fed0326ba91706deeac7eb34ac9f8b680734f9d782864dc29704d23bed6a93611a0b611a28926119e5866113d7565b6119ee3361149f565b60018060a01b03166001600160601b0360a01b6009541617600955565b60018060a01b03166001600160601b0360a01b6008541617600855565b611a3133611b12565b604080516001600160a01b039283168152929091166020830152819081015b0390a1565b60405162461bcd60e51b815260206004820152603360248201527f544f4a546f6b656e204f7574626f756e64537461746553656e64657220616464604482015272726573732063616e6e6f74206265207a65726f60681b6064820152608490fd5b60405162461bcd60e51b815260206004820152602e60248201527f544f4a546f6b656e20496e76616c69642073746174652073796e63657220766560448201526d726966696572206164647265737360901b6064820152608490fd5b6001600160a01b038116908115611b7d576002546b204fce5e3e2502611000000091828201809211611731576002919091556001600160a01b031660009081526020818152604082209192600080516020611fa8833981519152925b818154019055604051908152a3565b60405162461bcd60e51b815260206004820152601f60248201527f45524332303a206d696e7420746f20746865207a65726f2061646472657373006044820152606490fd5b6001600160a01b03811691908215611b7d5760025490828201809211611731576002919091556001600160a01b031660009081526020818152604082209192600080516020611fa883398151915292611b6e565b90601f8111611c2457505050565b600091825260208220906020601f850160051c83019410611c60575b601f0160051c01915b828110611c5557505050565b818155600101611c49565b9092508290611c40565b6040906102cc939281528160208201520190610296565b60405162461bcd60e51b815260206004820152601060248201526f44697361626c6564206665617475726560801b6044820152606490fd5b15611cc057565b60405162461bcd60e51b815260206004820152603160248201527f544f4a546f6b656e2045697468657220636861696e206e616d65206f72207573604482015270195c881b9bdd081c9959da5cdd195c9959607a1b6064820152608490fd5b604090611d39600093959495606083526060830190610296565b9460208201520152565b906102cc9492611d60918352608060208401526080830190610296565b6001600160a01b039093166040820152808303606090910152610296565b6040513d6000823e3d90fd5b939291611da7906040928652606060208701526060860190610296565b930152565b90913315611f0c5733600090815260208190526040902054818110611ebc57336000908152602081905260409020908290039055611ded8160025403600255565b6040518181526000903390600080516020611fa883398151915290602090a36009546001600160a01b031693604051611e2e81611289858860208401611d1f565b853b1561026357611e5c95600092836040518099819582946338d1822d60e11b845233908b60048601611d43565b03925af1908115611eb7577e51d0c293c83bcd025c47998f70c8c3cb78d30f5bc47289a41175076a2dbb4f94611a5092611e9e575b5060405193849384611d8a565b80611eab611eb192610433565b80610268565b38611e91565b611d7e565b60405162461bcd60e51b815260206004820152602260248201527f45524332303a206275726e20616d6f756e7420657863656564732062616c616e604482015261636560f01b6064820152608490fd5b60405162461bcd60e51b815260206004820152602160248201527f45524332303a206275726e2066726f6d20746865207a65726f206164647265736044820152607360f81b6064820152608490fd5b15611f6257565b60405162461bcd60e51b815260206004820152601960248201527f544f4a546f6b656e3a20496e76616c69642061646472657373000000000000006044820152606490fdfeddf252ad1be2c89b69c2b068fc378daa952ba7f163c4a11628f55a4df523b3efa2646970667358221220b72d4bead09c98deb0e49af69a489a9d75ffeec21ddbfa64eb9bff140fbd9f1864736f6c63430008130033",
  "linkReferences": {},
  "deployedLinkReferences": {}
}