{
  "_format": "hh-sol-artifact-1",
  "contractName": "LibTokenTransferOrder",
  "sourceName": "contracts/common/misc/LibTokenTransferOrder.sol",
  "abi": [
    {
      "inputs": [],
      "name": "CHAINID",
      "outputs": [
        {
          "internalType": "uint256",
          "name": "",
          "type": "uint256"
        }
      ],
      "stateMutability": "view",
      "type": "function"
    },
    {
      "inputs": [],
      "name": "EIP712_DOMAIN_SCHEMA_HASH",
      "outputs": [
        {
          "internalType": "bytes32",
          "name": "",
          "type": "bytes32"
        }
      ],
      "stateMutability": "view",
      "type": "function"
    },
    {
      "inputs": [],
      "name": "EIP712_TOKEN_TRANSFER_ORDER_SCHEMA_HASH",
      "outputs": [
        {
          "internalType": "bytes32",
          "name": "",
          "type": "bytes32"
        }
      ],
      "stateMutability": "view",
      "type": "function"
    },
    {
      "inputs": [],
      "name": "NETWORK_ID",
      "outputs": [
        {
          "internalType": "bytes",
          "name": "",
          "type": "bytes"
        }
      ],
      "stateMutability": "view",
      "type": "function"
    },
    {
      "inputs": [],
      "name": "eip712DomainHash",
      "outputs": [
        {
          "internalType": "bytes32",
          "name": "",
          "type": "bytes32"
        }
      ],
      "stateMutability": "view",
      "type": "function"
    },
    {
      "inputs": [
        {
          "internalType": "address",
          "name": "spender",
          "type": "address"
        },
        {
          "internalType": "uint256",
          "name": "tokenIdOrAmount",
          "type": "uint256"
        },
        {
          "internalType": "bytes32",
          "name": "data",
          "type": "bytes32"
        },
        {
          "internalType": "uint256",
          "name": "expiration",
          "type": "uint256"
        }
      ],
      "name": "getTokenTransferOrderHash",
      "outputs": [
        {
          "internalType": "bytes32",
          "name": "orderHash",
          "type": "bytes32"
        }
      ],
      "stateMutability": "view",
      "type": "function"
    }
  ],
  "bytecode": "0x60803461017c576001600160401b039060808101828111828210176101525760409081526052908183526020917f454950373132446f6d61696e28737472696e67206e616d652c737472696e6720838501527f76657273696f6e2c75696e7432353620636861696e49642c61646472657373208285015271766572696679696e67436f6e74726163742960701b60608501528151938360005b838110610168575050506000607285015283526080830192808410858511176101525760a0600e9185845282815186830120966100d481610181565b52016d446f6a696d61204e6574776f726b60901b81522060058383516100f981610181565b82815201640312e302e360dc1b81522090825193840194855282840152606083015261057960808301523060a083015260a0825260c08201938285109085111761015257839052519020600055610411908161019d8239f35b634e487b7160e01b600052604160045260246000fd5b818184010151828289010152018490610098565b600080fd5b604081019081106001600160401b038211176101525760405256fe6080604052600436101561001257600080fd5b6000803560e01c90816328ce8b311461007a57508063abceeba214610075578063b789543c14610070578063cc79f97b1461006b578063e614d0d6146100665763f94dc4bc1461006157600080fd5b6103bd565b6102e3565b6102c6565b610235565b61020d565b346100cc57806003193601126100cc576100be6040610097610101565b602081016103e960f01b815282519384926020845251809281602086015285850190610125565b601f01601f19168101030190f35b80fd5b6080810190811067ffffffffffffffff8211176100eb57604052565b634e487b7160e01b600052604160045260246000fd5b604051906040820182811067ffffffffffffffff8211176100eb5760405260028252565b60005b8381106101385750506000910152565b8181015183820152602001610128565b604051610154816100cf565b605b8082526020907f546f6b656e5472616e736665724f726465722861646472657373207370656e64828401527f65722c75696e7432353620746f6b656e49644f72416d6f756e742c627974657360408401527f333220646174612c75696e743235362065787069726174696f6e2900000000006060840152604051928260005b8381106101f9575050506000607b84015282526101f1826100cf565b815191012090565b8181840101518282880101520183906101d5565b34610230576000366003190112610230576020610228610148565b604051908152f35b600080fd5b34610230576080366003190112610230576004356001600160a01b03811690819003610230576102b260a06102c29261026c610148565b90604051918252602082015260243560408201526044356060820152606435608082015220604290600054906040519161190160f01b8352600283015260228201522090565b6040519081529081906020820190565b0390f35b346102305760003660031901126102305760206040516105798152f35b3461023057600036600319011261023057604051610300816100cf565b6052908181526020917f454950373132446f6d61696e28737472696e67206e616d652c737472696e6720838301527f76657273696f6e2c75696e7432353620636861696e49642c6164647265737320604083015271766572696679696e67436f6e74726163742960701b60608301526040519160005b8281106103aa576102c2848685600060728401528252610395826100cf565b81519101206040519081529081906020820190565b8181018501518482018601528401610376565b34610230576000366003190112610230576020600054604051908152f3fea26469706673582212201a4969cc6822caa9de716f7c3feae78933f496015425dfc659c68347d55813db64736f6c63430008130033",
  "linkReferences": {},
  "deployedLinkReferences": {}
}