{
  "_format": "hh-sol-artifact-1",
  "contractName": "TestStateReceiver",
  "sourceName": "contracts/test/TestStateReceiver.sol",
  "abi": [
    {
      "inputs": [
        {
          "internalType": "uint256",
          "name": "syncTime",
          "type": "uint256"
        },
        {
          "internalType": "bytes",
          "name": "recordBytes",
          "type": "bytes"
        }
      ],
      "name": "commitState",
      "outputs": [
        {
          "internalType": "bool",
          "name": "success",
          "type": "bool"
        }
      ],
      "stateMutability": "nonpayable",
      "type": "function"
    },
    {
      "inputs": [],
      "name": "dummySystem",
      "outputs": [
        {
          "internalType": "address",
          "name": "",
          "type": "address"
        }
      ],
      "stateMutability": "view",
      "type": "function"
    },
    {
      "inputs": [],
      "name": "lastStateId",
      "outputs": [
        {
          "internalType": "uint256",
          "name": "",
          "type": "uint256"
        }
      ],
      "stateMutability": "view",
      "type": "function"
    },
    {
      "inputs": [
        {
          "internalType": "address",
          "name": "_system",
          "type": "address"
        }
      ],
      "name": "setSystemAddress",
      "outputs": [],
      "stateMutability": "nonpayable",
      "type": "function"
    }
  ],
  "bytecode": "0x60808060405234610016576108ca908161001c8239f35b600080fdfe6080604052600436101561001257600080fd5b6000803560e01c908163062101971461005a5750806319494a17146100555780635407ca67146100505763d02919171461004b57600080fd5b610253565b610235565b610099565b34610096576020366003190112610096576004356001600160a01b038116908190036100925781546001600160a01b03191617815580f35b5080fd5b80fd5b346102305760403660031901126102305760243567ffffffffffffffff808211610230573660238301121561023057816004013590811161023057366024828401011161023057600080546001600160a01b031633036101f65761013261012d6101ab94836020819680602461010e826102e4565b9561011c60405197886102b3565b828752018386013783010152610452565b610490565b61014461013e82610300565b516105a9565b61016a6101656001546101608461015a8361036d565b1461038d565b6103d9565b600155565b61018e61018861018261017c85610323565b5161058a565b93610333565b51610670565b63ffffffff833b166101af575b6040518515158152806020810188565b0390f35b8394506101d86101e6859260405192839160208301966313629df560e11b8852602484016103e8565b03601f1981018352826102b3565b5192624c4b40f13880808061019b565b60405162461bcd60e51b81526020600482015260126024820152714e6f742053797374656d204164646573732160701b6044820152606490fd5b600080fd5b34610230576000366003190112610230576020600154604051908152f35b34610230576000366003190112610230576000546040516001600160a01b039091168152602090f35b634e487b7160e01b600052604160045260246000fd5b6040810190811067ffffffffffffffff8211176102ae57604052565b61027c565b90601f8019910116810190811067ffffffffffffffff8211176102ae57604052565b604051906102e282610292565b565b67ffffffffffffffff81116102ae57601f01601f191660200190565b80511561030d5760200190565b634e487b7160e01b600052603260045260246000fd5b80516001101561030d5760400190565b80516002101561030d5760600190565b805182101561030d5760209160051b010190565b634e487b7160e01b600052601160045260246000fd5b906001820180921161037b57565b610357565b9190820180921161037b57565b1561039457565b60405162461bcd60e51b815260206004820152601b60248201527f537461746549647320617265206e6f742073657175656e7469616c00000000006044820152606490fd5b600019811461037b5760010190565b90929192815260209260408483015280519081604084015260005b82811061042557505060609293506000838284010152601f8019910116010190565b818101860151848201606001528501610403565b6040519061044682610292565b60006020838281520152565b61045a610439565b5060208151916040519261046d84610292565b835201602082015290565b67ffffffffffffffff81116102ae5760051b60200190565b61049981610563565b15610230576104a7816106c0565b6104b081610478565b916104be60405193846102b3565b818352601f196104cd83610478565b0160005b81811061054c5750506104f26020809201516104ec816107a8565b90610380565b6000905b838210610504575050505090565b6105408161051461054693610722565b9061051d6102d5565b828152818782015261052f868a610343565b5261053a8589610343565b50610380565b916103d9565b906104f6565b602090610557610439565b828288010152016104d1565b80511561058457602060c09101515160001a1061057f57600190565b600090565b50600090565b6015815103610230576001600160a01b03906105a5906105a9565b1690565b805180151590816105df575b5015610230576105c490610644565b905190602081106105d3575090565b6020036101000a900490565b602191501115386105b5565b60bf1981019190821161037b57565b607f1981019190821161037b57565b602003906020821161037b57565b60001981019190821161037b57565b60f61981019190821161037b57565b60b61981019190821161037b57565b90602082019161065483516107a8565b92519083820180921161037b575192830392831161037b579190565b805115610230576106836106bd91610644565b61068f819392936102e4565b9261069d60405194856102b3565b818452601f196106ac836102e4565b013660208601378360200190610817565b90565b80511561058457600090602081019081516106da816107a8565b810180911161037b5791519051810180911161037b5791905b8281106107005750905090565b61070981610722565b810180911161037b5761071c90916103d9565b906106f3565b805160001a906080821015610738575050600190565b60b8821015610753575061074e6106bd916105fa565b61036d565b9060c08110156107775760b51991600160b783602003016101000a91015104010190565b9060f882101561078e575061074e6106bd916105eb565b60010151602082900360f7016101000a90040160f5190190565b5160001a60808110156107bb5750600090565b60b8811080156107f2575b156107d15750600190565b60c08110156107e65761074e6106bd91610635565b61074e6106bd91610626565b5060c081101580156107c6575060f881106107c6565b601f811161037b576101000a90565b92909192831561088e5792915b602093848410610859578051825284810180911161037b5793810180911161037b5791601f19810190811161037b5791610824565b919350918061086757505050565b61087b61087661088092610609565b610808565b610617565b905182518216911916179052565b5091505056fea2646970667358221220b80ab176caff554c5811d6ee07ac2fe5611780d68bb3c4d8d4c0f7ef0d4f2b4964736f6c63430008130033",
  "linkReferences": {},
  "deployedLinkReferences": {}
}