{
  "_format": "hh-sol-artifact-1",
  "contractName": "GovernanceLockable",
  "sourceName": "contracts/common/mixin/GovernanceLockable.sol",
  "abi": [
    {
      "inputs": [
        {
          "internalType": "address",
          "name": "governance",
          "type": "address"
        }
      ],
      "stateMutability": "nonpayable",
      "type": "constructor"
    },
    {
      "inputs": [],
      "name": "governance",
      "outputs": [
        {
          "internalType": "contract IGovernance",
          "name": "",
          "type": "address"
        }
      ],
      "stateMutability": "view",
      "type": "function"
    },
    {
      "inputs": [],
      "name": "lock",
      "outputs": [],
      "stateMutability": "nonpayable",
      "type": "function"
    },
    {
      "inputs": [],
      "name": "locked",
      "outputs": [
        {
          "internalType": "bool",
          "name": "",
          "type": "bool"
        }
      ],
      "stateMutability": "view",
      "type": "function"
    },
    {
      "inputs": [],
      "name": "unlock",
      "outputs": [],
      "stateMutability": "nonpayable",
      "type": "function"
    }
  ],
  "bytecode": "0x60803461008357601f61023838819003918201601f19168301916001600160401b038311848410176100885780849260209460405283398101031261008357516001600160a01b03811681036100835760008054610100600160a81b03191660089290921b610100600160a81b0316919091179055604051610199908161009f8239f35b600080fd5b634e487b7160e01b600052604160045260246000fdfe608080604052600436101561001357600080fd5b600090813560e01c9081635aa6e675146100dd57508063a69df4b5146100a9578063cf309012146100875763f83d08ba1461004d57600080fd5b34610084578060031936011261008457805460019061007a33600883901c6001600160a01b031614610108565b60ff191617815580f35b80fd5b503461008457806003193601126100845760ff60209154166040519015158152f35b503461008457806003193601126100845780546100d433600883901c6001600160a01b031614610108565b60ff1916815580f35b905034610104578160031936011261010457905460081c6001600160a01b03168152602090f35b5080fd5b1561010f57565b60405162461bcd60e51b815260206004820152602660248201527f4f6e6c7920676f7665726e616e636520636f6e747261637420697320617574686044820152651bdc9a5e995960d21b6064820152608490fdfea2646970667358221220cece607b0b239a1a9fbdcc0bb9c02ee520d71cdb5f80475ec470a7e480e1dc3164736f6c63430008130033",
  "linkReferences": {},
  "deployedLinkReferences": {}
}