{
  "_format": "hh-sol-artifact-1",
  "contractName": "ChildChain",
  "sourceName": "contracts/dojimachain/evm/ChildChain.sol",
  "abi": [
    {
      "inputs": [
        {
          "internalType": "address",
          "name": "_outboundStateSender",
          "type": "address"
        }
      ],
      "stateMutability": "nonpayable",
      "type": "constructor"
    },
    {
      "anonymous": false,
      "inputs": [
        {
          "indexed": false,
          "internalType": "string",
          "name": "chain",
          "type": "string"
        },
        {
          "indexed": true,
          "internalType": "address",
          "name": "rootToken",
          "type": "address"
        },
        {
          "indexed": true,
          "internalType": "address",
          "name": "token",
          "type": "address"
        },
        {
          "indexed": false,
          "internalType": "uint8",
          "name": "decimals",
          "type": "uint8"
        }
      ],
      "name": "NewToken",
      "type": "event"
    },
    {
      "anonymous": false,
      "inputs": [
        {
          "indexed": true,
          "internalType": "address",
          "name": "previousOwner",
          "type": "address"
        },
        {
          "indexed": true,
          "internalType": "address",
          "name": "newOwner",
          "type": "address"
        }
      ],
      "name": "OwnershipTransferred",
      "type": "event"
    },
    {
      "anonymous": false,
      "inputs": [
        {
          "indexed": true,
          "internalType": "address",
          "name": "previousAddress",
          "type": "address"
        },
        {
          "indexed": true,
          "internalType": "address",
          "name": "newAddress",
          "type": "address"
        }
      ],
      "name": "StateSyncerAddressChanged",
      "type": "event"
    },
    {
      "anonymous": false,
      "inputs": [
        {
          "indexed": false,
          "internalType": "string",
          "name": "chain",
          "type": "string"
        },
        {
          "indexed": true,
          "internalType": "address",
          "name": "rootToken",
          "type": "address"
        },
        {
          "indexed": true,
          "internalType": "address",
          "name": "childToken",
          "type": "address"
        },
        {
          "indexed": true,
          "internalType": "address",
          "name": "user",
          "type": "address"
        },
        {
          "indexed": false,
          "internalType": "uint256",
          "name": "amount",
          "type": "uint256"
        },
        {
          "indexed": false,
          "internalType": "uint256",
          "name": "depositId",
          "type": "uint256"
        }
      ],
      "name": "TokenDeposited",
      "type": "event"
    },
    {
      "anonymous": false,
      "inputs": [
        {
          "indexed": false,
          "internalType": "string",
          "name": "chain",
          "type": "string"
        },
        {
          "indexed": true,
          "internalType": "address",
          "name": "rootToken",
          "type": "address"
        },
        {
          "indexed": true,
          "internalType": "address",
          "name": "childToken",
          "type": "address"
        },
        {
          "indexed": true,
          "internalType": "address",
          "name": "user",
          "type": "address"
        },
        {
          "indexed": false,
          "internalType": "uint256",
          "name": "amount",
          "type": "uint256"
        },
        {
          "indexed": false,
          "internalType": "uint256",
          "name": "withdrawlId",
          "type": "uint256"
        }
      ],
      "name": "TokenWithdrawn",
      "type": "event"
    },
    {
      "inputs": [
        {
          "internalType": "address",
          "name": "owner",
          "type": "address"
        },
        {
          "internalType": "address",
          "name": "rootToken",
          "type": "address"
        },
        {
          "internalType": "string",
          "name": "chain",
          "type": "string"
        },
        {
          "internalType": "string",
          "name": "name",
          "type": "string"
        },
        {
          "internalType": "string",
          "name": "symbol",
          "type": "string"
        },
        {
          "internalType": "uint8",
          "name": "decimals",
          "type": "uint8"
        },
        {
          "internalType": "bool",
          "name": "_isERC721",
          "type": "bool"
        }
      ],
      "name": "addToken",
      "outputs": [
        {
          "internalType": "address",
          "name": "token",
          "type": "address"
        }
      ],
      "stateMutability": "nonpayable",
      "type": "function"
    },
    {
      "inputs": [
        {
          "internalType": "address",
          "name": "newAddress",
          "type": "address"
        }
      ],
      "name": "changeStateSyncerAddress",
      "outputs": [],
      "stateMutability": "nonpayable",
      "type": "function"
    },
    {
      "inputs": [
        {
          "internalType": "string",
          "name": "",
          "type": "string"
        },
        {
          "internalType": "uint256",
          "name": "",
          "type": "uint256"
        }
      ],
      "name": "deposits",
      "outputs": [
        {
          "internalType": "bool",
          "name": "",
          "type": "bool"
        }
      ],
      "stateMutability": "view",
      "type": "function"
    },
    {
      "inputs": [],
      "name": "isCallerStateSyncer",
      "outputs": [
        {
          "internalType": "bool",
          "name": "",
          "type": "bool"
        }
      ],
      "stateMutability": "view",
      "type": "function"
    },
    {
      "inputs": [
        {
          "internalType": "string",
          "name": "",
          "type": "string"
        },
        {
          "internalType": "address",
          "name": "",
          "type": "address"
        }
      ],
      "name": "isERC721",
      "outputs": [
        {
          "internalType": "bool",
          "name": "",
          "type": "bool"
        }
      ],
      "stateMutability": "view",
      "type": "function"
    },
    {
      "inputs": [],
      "name": "isOwner",
      "outputs": [
        {
          "internalType": "bool",
          "name": "",
          "type": "bool"
        }
      ],
      "stateMutability": "view",
      "type": "function"
    },
    {
      "inputs": [
        {
          "internalType": "string",
          "name": "chain",
          "type": "string"
        },
        {
          "internalType": "address",
          "name": "rootToken",
          "type": "address"
        },
        {
          "internalType": "address",
          "name": "token",
          "type": "address"
        },
        {
          "internalType": "bool",
          "name": "isErc721",
          "type": "bool"
        }
      ],
      "name": "mapToken",
      "outputs": [],
      "stateMutability": "nonpayable",
      "type": "function"
    },
    {
      "inputs": [
        {
          "internalType": "uint256",
          "name": "",
          "type": "uint256"
        },
        {
          "internalType": "bytes",
          "name": "data",
          "type": "bytes"
        }
      ],
      "name": "onStateReceive",
      "outputs": [],
      "stateMutability": "nonpayable",
      "type": "function"
    },
    {
      "inputs": [],
      "name": "outboundStateSender",
      "outputs": [
        {
          "internalType": "contract IOutboundStateSender",
          "name": "",
          "type": "address"
        }
      ],
      "stateMutability": "view",
      "type": "function"
    },
    {
      "inputs": [],
      "name": "owner",
      "outputs": [
        {
          "internalType": "address",
          "name": "",
          "type": "address"
        }
      ],
      "stateMutability": "view",
      "type": "function"
    },
    {
      "inputs": [],
      "name": "renounceOwnership",
      "outputs": [],
      "stateMutability": "nonpayable",
      "type": "function"
    },
    {
      "inputs": [],
      "name": "stateSyncer",
      "outputs": [
        {
          "internalType": "address",
          "name": "",
          "type": "address"
        }
      ],
      "stateMutability": "view",
      "type": "function"
    },
    {
      "inputs": [
        {
          "internalType": "string",
          "name": "",
          "type": "string"
        },
        {
          "internalType": "address",
          "name": "",
          "type": "address"
        }
      ],
      "name": "tokens",
      "outputs": [
        {
          "internalType": "address",
          "name": "",
          "type": "address"
        }
      ],
      "stateMutability": "view",
      "type": "function"
    },
    {
      "inputs": [
        {
          "internalType": "address",
          "name": "newOwner",
          "type": "address"
        }
      ],
      "name": "transferOwnership",
      "outputs": [],
      "stateMutability": "nonpayable",
      "type": "function"
    },
    {
      "inputs": [
        {
          "internalType": "address",
          "name": "_outboundStateSender",
          "type": "address"
        }
      ],
      "name": "updateOutboundStateSender",
      "outputs": [],
      "stateMutability": "nonpayable",
      "type": "function"
    },
    {
      "inputs": [
        {
          "internalType": "string",
          "name": "chain",
          "type": "string"
        },
        {
          "internalType": "address",
          "name": "rootToken",
          "type": "address"
        },
        {
          "internalType": "address",
          "name": "user",
          "type": "address"
        },
        {
          "internalType": "uint256",
          "name": "amountOrTokenId",
          "type": "uint256"
        },
        {
          "internalType": "uint256",
          "name": "withdrawId",
          "type": "uint256"
        },
        {
          "internalType": "bytes32",
          "name": "destinationChain",
          "type": "bytes32"
        },
        {
          "internalType": "bytes",
          "name": "destinationContract",
          "type": "bytes"
        }
      ],
      "name": "withdrawTokens",
      "outputs": [],
      "stateMutability": "nonpayable",
      "type": "function"
    },
    {
      "inputs": [
        {
          "internalType": "string",
          "name": "",
          "type": "string"
        },
        {
          "internalType": "uint256",
          "name": "",
          "type": "uint256"
        }
      ],
      "name": "withdraws",
      "outputs": [
        {
          "internalType": "bool",
          "name": "",
          "type": "bool"
        }
      ],
      "stateMutability": "view",
      "type": "function"
    }
  ],
  "bytecode": "0x6080346101e257601f62005cdf38819003918201601f19168301926001600160401b0392909190838511838610176101e757808392604096875283396020928391810103126101e257516001600160a01b038082169290918390036101e25760008054336001600160a01b031980831682178455949091167f8be0079c531659141344cd1fd0a4f28419497f9722a3daafe3b4186f6b6457e08380a361100180846001541617600155817f98e6a46aa139a033b9c7f3ae4ad1c103ffdce3e7cf509326808ba8c4b5af11c08180a3855194858701908111868210176101ce57908691825260069586815265444f4a494d4160d01b8482015282519084835b8981106101b95750505080600288602693015220737d07395335b1e69dc8fed0488367d1db53ad50ad8252835220611010838254161790558215610150575082541617905551615ae19081620001fe8239f35b60849085519062461bcd60e51b82526004820152603460248201527f4368696c6420436861696e204554483a20496e76616c6964204f7574626f756e60448201527f64537461746553656e64657220616464726573730000000000000000000000006064820152fd5b828101820151848201528a95508691016100fd565b634e487b7160e01b82526041600452602482fd5b600080fd5b634e487b7160e01b600052604160045260246000fdfe60406080815260043610156200001457600080fd5b600090813560e01c8063119762a91462000ff45780631c3895ad1462000fca57806326c53bea1462000cab5780635a81dd1b1462000c81578063715018a61462000c1a57806380c5486e1462000b21578063832b66dc1462000ac95780638488024c1462000a915780638da5cb5b1462000a685780638f32d59b1462000a3e578063904276411462000987578063c01a420a1462000618578063df5550071462000554578063e61c0f4914620001df578063f2fde38b1462000166578063f4ef4d69146200013c5763fbabc61c14620000ec57600080fd5b34620001385760ff81602093846200011d62000108366200119b565b92908186519382858094519384920162001176565b81016004815203019020908252855220541690519015158152f35b5080fd5b5034620001385781600319360112620001385760015490516001600160a01b039091168152602090f35b8234620001dc576020366003190112620001dc576200018462001103565b6000546001600160a01b03906200019f9082163314620011d1565b82546001600160a01b031981169282169283178455167f8be0079c531659141344cd1fd0a4f28419497f9722a3daafe3b4186f6b6457e08380a380f35b80fd5b5034620001385760e0366003190112620001385767ffffffffffffffff90600435828111620005505762000218903690600401620010b4565b9162000223620010d5565b906200022e620010ec565b9360c4358281116200054c57366023820112156200054c576200025c9036906024816004013591016200105e565b9060018060a01b03946200027686600054163314620011d1565b805195825196602081818601996200029081838d62001176565b810160058152030190209460843595868b5260205260ff838b205416620004ef57825160208180620002c78c895192839162001176565b81016005815203019020868b52602052828a20600160ff1982541617905581835160208180620002fc8d8a5192839162001176565b81016002815203019020971696876000526020526200033c602083856000205416996200032b8b151562001244565b855180938192895192839162001176565b810160038152030190208760005260205260ff836000205416600014620004e75781885b1694853b15620004d9578a8451632e1a7d4d60e01b81528181602481836064359c8d60048401525af18015620004dd57620004c1575b505082600654169284519a8960208d01528a868d015216998a60608201528660808201528760a082015260a0815260c081019281841090841117620004ab578b93838652803b15620004a75783858d82946200041283976338d1822d60e11b865260a43560c4840152608060e48401526101448301906200121d565b9161010482015260c319818303016101248201526200043560bf1992826200121d565b0301925af180156200049d5762000481575b50507f0884715aedb270cf56d7f65f9d45feab7c68857eeef84760b014f51cd771ef2a936200047b9151938493846200129d565b0390a480f35b6200048c9062001049565b6200049957873862000447565b8780fd5b83513d84823e3d90fd5b8480fd5b634e487b7160e01b600052604160045260246000fd5b620004cc9062001049565b620004d9578a3862000396565b8a80fd5b86513d84823e3d90fd5b818862000360565b825162461bcd60e51b815260206004820152603060248201527f436861696e20436861696e3a20616c7265616479207769746864726177616c2060448201526f199bdc881d1a194819da5d995b88125960821b6064820152608490fd5b8680fd5b8380fd5b50346200013857602036600319011262000138576200057262001103565b6000546001600160a01b039182916200058f9083163314620011d1565b16918215620005d55750816001549182167f98e6a46aa139a033b9c7f3ae4ad1c103ffdce3e7cf509326808ba8c4b5af11c08580a36001600160a01b0319161760015580f35b5162461bcd60e51b815260206004820152601d60248201527f53746174652073796e6365723a20696e76616c696420616464726573730000006044820152606490fd5b5034620001385760e036600319011262000138576200063662001103565b9062000641620010d5565b60443567ffffffffffffffff8111620004a75762000664903690600401620010b4565b9060643567ffffffffffffffff8111620009835762000688903690600401620010b4565b60843567ffffffffffffffff81116200054c57620006ab903690600401620010b4565b9460a4359560ff87168703620004995760c435151560c435036200097e57620006e060018060a01b03600054163314620011d1565b85516020818751620006f68183858c0162001176565b810160028152030190209360018060a01b0316938460005260205260018060a01b03866000205416620009435760c435156200088d5785519261249f928385019385851067ffffffffffffffff861117620008795785949262000791949262000782926200360d88396001600160a01b031684526020840188905260808a85018190528401906200121d565b9160608184039101526200121d565b039086f09485156200086e57507fd2461d2309acc0cf0cc3bb344850c2be443f8723a2a58404721a1a887f2947ec6200085f60209660018060a01b031693855188818351620007e4818385880162001176565b8101600381520301902084600052885285600020600160ff198254161790555b85518881835162000819818385880162001176565b81016002815203019020846000528852856000209460018060a01b0316968795866001600160601b0360a01b82541617905560ff8751938493898552898501906200121d565b9116898301520390a351908152f35b8351903d90823e3d90fd5b634e487b7160e01b8b52604160045260248bfd5b85519261234b928385019385851067ffffffffffffffff8611176200087957620008f29286959492620008e392620012c288396001600160a01b031685526020850188905260a08a86018190528501906200121d565b9083820360608501526200121d565b90608060ff8916910152039086f09485156200086e57506020946001600160a01b0316917fd2461d2309acc0cf0cc3bb344850c2be443f8723a2a58404721a1a887f2947ec906200085f9062000804565b855162461bcd60e51b8152602060048201526014602482015273151bdad95b88185b1c9958591e481b585c1c195960621b6044820152606490fd5b600080fd5b8580fd5b5034620001385760203660031901126200013857620009a562001103565b6000546001600160a01b039190620009c19083163314620011d1565b16908115620009e157506001600160601b0360a01b600654161760065580f35b5162461bcd60e51b815260206004820152603160248201527f4368696c6420426561636f6e3a20496e76616c6964204f7574626f756e64537460448201527061746553656e646572206164647265737360781b6064820152608490fd5b5034620001385781600319360112620001385760209060018060a01b036000541633149051908152f35b50346200013857816003193601126200013857905490516001600160a01b039091168152602090f35b5034620001385760ff816020938462000aae62000108366200119b565b81016005815203019020908252855220541690519015158152f35b503462000138576020908162000af862000ae3366200112f565b92908185519382858094519384920162001176565b810160038152030190209060018060a01b0316600052825260ff81600020541690519015158152f35b503462000138576080366003190112620001385760043567ffffffffffffffff811162000c165762000b58903690600401620010b4565b9062000b63620010d5565b62000b6d620010ec565b606435938415158095036200097e5762000bf29160209160018060a01b039162000b9d83600054163314620011d1565b8651928083519486818187019762000bb781838b62001176565b810160028152030190209716968760005285528760002091166001600160601b0360a01b825416179055855193849283925192839162001176565b81016003815203019020906000526020526000209060ff8019835416911617905580f35b8280fd5b8234620001dc5780600319360112620001dc576000546001600160a01b039062000c489082163314620011d1565b8180549182167f8be0079c531659141344cd1fd0a4f28419497f9722a3daafe3b4186f6b6457e08280a36001600160a01b031916815580f35b5034620001385781600319360112620001385760065490516001600160a01b039091168152602090f35b5034620001385780600319360112620001385767ffffffffffffffff60248035828111620004a75736602382011215620004a757806004013583811162000983578101928284013681116200054c576001546001600160a01b0395908616330362000f69578360a09103126200054c57838301359182116200054c578362000d3692840101620010b4565b62000d44604483016200111a565b62000d52606484016200111a565b95858060a460848701359601359316971694815196878086516020928162000d808593848c019e8f62001176565b81016004815203019020858c52815260ff848c20541662000f0157908162000db58c938b8751809381928c5192839162001176565b810160048152030190208684528152848320600160ff1982541617905562000de9818b8751809381928c5192839162001176565b81016002815203019020898452815262000e22818387862054169b62000e118d151562001244565b8751809381928c5192839162001176565b81016003815203019020908984525260ff848320541660001462000efa57885b1691823b15620001385760448a838995875196879586946311f9fbc960e21b865260048601528401525af1801562000ef05762000eaf575b507faf620b726a2b5047b4e6179bc1fcda760a24dde19fec5df2f18ad9dd457e0b679392916200047b9151938493846200129d565b916200047b919862000ee47faf620b726a2b5047b4e6179bc1fcda760a24dde19fec5df2f18ad9dd457e0b6796959462001049565b98915091929362000e7a565b82513d8b823e3d90fd5b8862000e42565b608490603b8486519262461bcd60e51b845260048401528201527f4368696c6420436861696e3a204465706f73697420616c7265616479206d616460448201527f6520776974682074686520676976656e206465706f73697420496400000000006064820152fd5b865162461bcd60e51b8152602060048201526035818701527f53746174652073796e6365723a2063616c6c6572206973206e6f7420746865206044820152741cdd185d19481cde5b98d95c8818dbdb9d1c9858dd605a1b6064820152608490fd5b5034620001385781600319360112620001385760209060018060a01b036001541633149051908152f35b503462000138576020818193620010246200100f366200112f565b94908185519382858094519384920162001176565b6002908201908152030190206001600160a01b03938416825285522054915191168152f35b67ffffffffffffffff8111620004ab57604052565b92919267ffffffffffffffff91828111620004ab5760405192601f8201601f19908116603f0116840190811184821017620004ab576040528294818452818301116200097e578281602093846000960137010152565b9080601f830112156200097e57816020620010d2933591016200105e565b90565b602435906001600160a01b03821682036200097e57565b604435906001600160a01b03821682036200097e57565b600435906001600160a01b03821682036200097e57565b35906001600160a01b03821682036200097e57565b60406003198201126200097e576004359067ffffffffffffffff82116200097e576200115e91600401620010b4565b906024356001600160a01b03811681036200097e5790565b60005b8381106200118a5750506000910152565b818101518382015260200162001179565b60406003198201126200097e576004359067ffffffffffffffff82116200097e57620011ca91600401620010b4565b9060243590565b15620011d957565b606460405162461bcd60e51b815260206004820152602060248201527f4f776e61626c653a2063616c6c6572206973206e6f7420746865206f776e65726044820152fd5b90602091620012388151809281855285808601910162001176565b601f01601f1916010190565b156200124c57565b60405162461bcd60e51b8152602060048201526024808201527f4368696c6420436861696e3a20746f6b656e206973206e6f7420726567697374604482015263195c995960e21b6064820152608490fd5b620012b7604092959493956060835260608301906200121d565b946020820152015256fe60a0604090808252346200053b576200234b80380380916200002282856200058e565b8339810160a0828203126200053b576200003c82620005b2565b506020906200004d828401620005b2565b838501516001600160401b0392908381116200053b578162000071918701620005c7565b9060608601518481116200053b576080916200008f918801620005c7565b9501519460ff861686036200053b57600080546001600160a01b031980821633908117845588926001600160a01b03919082167f8be0079c531659141344cd1fd0a4f28419497f9722a3daafe3b4186f6b6457e08680a38a51620000f38162000540565b60528082527f454950373132446f6d61696e28737472696e67206e616d652c737472696e6720858301527f76657273696f6e2c75696e7432353620636861696e49642c61646472657373208d83015271766572696679696e67436f6e74726163742960701b60608301528c5191865b8281106200052657505085607283015281526200017f8162000540565b8381519101208b600e858251620001968162000572565b828152016d446f6a696d61204e6574776f726b60901b8152208151620001bc8162000572565b600596818880935201640312e302e360dc1b815220908251928d8401948552830152606082015261057960808201523060a082015260a0815260c081018181108b82111762000512578d5251902096600197885561100180846006541617600655857f98e6a46aa139a033b9c7f3ae4ad1c103ffdce3e7cf509326808ba8c4b5af11c08180a3169081156200050e5760025416176002558351868111620004fa57600a54948686811c96168015620004ef575b89871014620004db578190601f9687811162000489575b5089908783116001146200042357859262000417575b5050600019600383901b1c191690861b17600a555b82519586116200040357600b54908582811c92168015620003f8575b88831014620003e4578482116200039d575b5050859285116001146200033457939450849291908362000328575b50501b916000199060031b1c191617600b555b60805251611d0c90816200063f8239608051816108db0152f35b015192503880620002fb565b600b815285812093958591601f198316915b8883831062000382575050501062000368575b505050811b01600b556200030e565b015160001960f88460031b161c1916905538808062000359565b85870151885590960195948501948793509081019062000346565b600b83528783209085808901821c8301938a8a10620003da575b01901c019085905b828110620003ce5750620002df565b838155018590620003bf565b93508293620003b7565b634e487b7160e01b83526022600452602483fd5b91607f1691620002cd565b634e487b7160e01b82526041600452602482fd5b0151905038806200029c565b600a86528a86208994509190601f198416875b8d82821062000472575050841162000458575b505050811b01600a55620002b1565b015160001960f88460031b161c1916905538808062000449565b8385015186558c9790950194938401930162000436565b909150600a855289852087808501861c8201928c8610620004d1575b918a918695949301871c01915b828110620004c257505062000286565b8781558594508a9101620004b2565b92508192620004a5565b634e487b7160e01b84526022600452602484fd5b95607f16956200026f565b634e487b7160e01b83526041600452602483fd5b8380fd5b634e487b7160e01b87526041600452602487fd5b8181018701518482018801528c960162000162565b600080fd5b608081019081106001600160401b038211176200055c57604052565b634e487b7160e01b600052604160045260246000fd5b604081019081106001600160401b038211176200055c57604052565b601f909101601f19168101906001600160401b038211908210176200055c57604052565b51906001600160a01b03821682036200053b57565b919080601f840112156200053b578251906001600160401b0382116200055c576040519160209162000603601f8301601f19168401856200058e565b8184528282870101116200053b5760005b8181106200062a57508260009394955001015290565b85810183015184820184015282016200061456fe6080604052600436101561001257600080fd5b60003560e01c806306fdde03146101db578063095ea7b3146102535780631499c5921461024e57806318160ddd1461024957806319d27d9c146102445780631c3895ad1461023f57806321df0da7146101b357806323b872dd1461023a57806326c53bea1461023557806328ce8b31146102305780632e1a7d4d1461022b578063313ce5671461022657806332424aa31461022657806342fc47fb1461022157806347e7ef241461021c57806360f96a8f1461021757806370a0823114610212578063715018a61461020d57806377d32e94146102085780638da5cb5b146102035780638f32d59b146101fe57806395d89b41146101ea578063a9059cbb146101f9578063abceeba2146101f4578063acd06cb3146101ef578063b09f1266146101ea578063b789543c146101e5578063cc79f97b146101e0578063d28d8852146101db578063dd62ed3e146101d6578063df555007146101d1578063e614d0d6146101cc578063ed9ef524146101c7578063f2fde38b146101c2578063f4ef4d69146101bd578063f94dc4bc146101b85763fc0c546a146101b357600080fd5b6106af565b611262565b611239565b6111c6565b6110cb565b6110b0565b610f2f565b610f13565b610298565b610ef6565b610ea0565b610c8a565b610e6f565b610e4c565b610d52565b610c62565b610c39565b610bd8565b610b34565b610af7565b610ace565b610928565b6108ff565b6108c1565b6108a9565b610866565b6106ff565b6106d8565b610687565b610538565b6104ec565b6103e6565b6103c5565b919082519283825260005b848110610284575050826000602080949584010152601f8019910116010190565b602081830181015184830182015201610263565b346103af576000806003193601126103ac576040519080600a549160019183831c928085169182156103a2575b602095868610841461038e5785885287949360208601939291811561036f5750600114610314575b5050506102fc92500383610844565b610310604051928284938452830190610258565b0390f35b600a6000527fc65a7bb8d6351c1cf70c95a316cc6a92839c986682d98bc35f958f4883f9d2a895909350905b86828510610359575050506102fc9350013880806102ed565b8654858501529581019588955090930192610340565b925050506102fc9491925060ff19168252151560051b013880806102ed565b634e487b7160e01b82526022600452602482fd5b93607f16936102c5565b80fd5b600080fd5b6001600160a01b038116036103af57565b346103af5760403660031901126103af576103e16004356103b4565b611b8a565b346103af5760203660031901126103af57600435610403816103b4565b6000546001600160a01b039061041c90821633146112b3565b811690811561048b576004546104899290610447906001600160a01b03165b6001600160a01b031690565b7fc9e4c719f349d4c91a37138eb5cf0ba2670c592a764f8c0b18c603ba9178cc1d600080a360018060a01b03166001600160601b0360a01b6004541617600455565b005b60405162461bcd60e51b815260206004820152603360248201527f4368696c6420746f6b656e3a206e657720706172656e74206164647265737320604482015272697320746865207a65726f206164647265737360681b6064820152608490fd5b346103af5760003660031901126103af576020600954604051908152f35b9181601f840112156103af5782359167ffffffffffffffff83116103af57602083818601950101116103af57565b346103af5760a03660031901126103af5760043567ffffffffffffffff81116103af5761056990369060040161050a565b90602435606435906084359261057e846103b4565b811561064a576103109461060f610615926105bc6105b58761062598158015610640575b6105ab906112fe565b6044358833611280565b309061137f565b926105e46105de6105d7866000526005602052604060002090565b5460ff1690565b15611341565b6106086105fb856000526005602052604060002090565b805460ff19166001179055565b3691610b91565b90611c15565b926001600160a01b031683611491565b506040516001600160a01b0390911681529081906020820190565b50438110156105a2565b60405162461bcd60e51b8152602060048201526015602482015274115490cc8c0e881a5b9d985b1a5908185b5bdd5b9d605a1b6044820152606490fd5b346103af5760003660031901126103af57602060018060a01b03600654163314604051908152f35b346103af5760003660031901126103af576002546040516001600160a01b039091168152602090f35b346103af5760603660031901126103af576106f46004356103b4565b6103e16024356103b4565b346103af5760403660031901126103af5760243567ffffffffffffffff81116103af5761073090369060040161050a565b6006546001600160a01b039291908316330361078e5781604091810103126103af57610489916020823592610764846103b4565b0135911681816000526007602052604060002054908110610786575b50611664565b915038610780565b60405162461bcd60e51b815260206004820152603560248201527f53746174652073796e6365723a2063616c6c6572206973206e6f7420746865206044820152741cdd185d19481cde5b98d95c8818dbdb9d1c9858dd605a1b6064820152608490fd5b634e487b7160e01b600052604160045260246000fd5b6040810190811067ffffffffffffffff82111761082357604052565b6107f1565b6080810190811067ffffffffffffffff82111761082357604052565b90601f8019910116810190811067ffffffffffffffff82111761082357604052565b346103af5760003660031901126103af5761031060405161088681610807565b600281526103e960f01b6020820152604051918291602083526020830190610258565b60203660031901126103af5761048960043533611664565b346103af5760003660031901126103af57602060405160ff7f0000000000000000000000000000000000000000000000000000000000000000168152f35b346103af5760003660031901126103af576003546040516001600160a01b039091168152602090f35b346103af5760403660031901126103af57600435610945816103b4565b600354602435906001600160a01b039081163303610a6d5781151580610a62575b15610a06576001600160a01b03831660009081526007602052604090207f4e2ca0515ed1aef1395f66b5303bb5d6f1bf9d61a353fa53f73f8ac9973fa9f6919054936109b28482611a65565b600254610a01906001600160a01b03166001600160a01b038316600090815260076020526040902090969054908460405195869516981696846040919493926060820195825260208201520152565b0390a3005b60405162461bcd60e51b815260206004820152602e60248201527f45524332303a20696e76616c69642075736572206164647265737320616e642060448201526d19195c1bdcda5d08185b5bdd5b9d60921b6064820152608490fd5b508083161515610966565b60405162461bcd60e51b815260206004820152603360248201527f4368696c6420746f6b656e3a2063616c6c6572206973206e6f742074686520636044820152721a1a5b190818da185a5b8818dbdb9d1c9858dd606a1b6064820152608490fd5b346103af5760003660031901126103af576004546040516001600160a01b039091168152602090f35b346103af5760203660031901126103af57600435610b14816103b4565b60018060a01b031660005260076020526020604060002054604051908152f35b346103af576000806003193601126103ac578054816001600160a01b038216610b5e3382146112b3565b7f8be0079c531659141344cd1fd0a4f28419497f9722a3daafe3b4186f6b6457e08280a36001600160a01b031916815580f35b92919267ffffffffffffffff82116108235760405191610bbb601f8201601f191660200184610844565b8294818452818301116103af578281602093846000960137010152565b346103af5760403660031901126103af5760243567ffffffffffffffff81116103af57366023820112156103af57610c27610c1f6020923690602481600401359101610b91565b600435611c15565b6040516001600160a01b039091168152f35b346103af5760003660031901126103af576000546040516001600160a01b039091168152602090f35b346103af5760003660031901126103af57602060018060a01b03600054163314604051908152f35b346103af576000806003193601126103ac576040519080600b549160019183831c92808516918215610d48575b602095868610841461038e5785885287949360208601939291811561036f5750600114610ced575050506102fc92500383610844565b600b6000527f0175b7a638427703f0dbe7bb9bbf987a2551717b34e79f33b5b1008d1fa01db995909350905b86828510610d32575050506102fc9350013880806102ed565b8654858501529581019588955090930192610d19565b93607f1693610cb7565b346103af5760403660031901126103af576020610d7d600435610d74816103b4565b602435906117de565b6040519015158152f35b604051610d9381610828565b605b8082526020907f546f6b656e5472616e736665724f726465722861646472657373207370656e64828401527f65722c75696e7432353620746f6b656e49644f72416d6f756e742c627974657360408401527f333220646174612c75696e743235362065787069726174696f6e2900000000006060840152604051928260005b838110610e38575050506000607b8401528252610e3082610828565b815191012090565b818184010151828288010152018390610e14565b346103af5760003660031901126103af576020610e67610d87565b604051908152f35b346103af5760203660031901126103af576004356000526005602052602060ff604060002054166040519015158152f35b346103af5760803660031901126103af576020610e67610ed6600435610ec5816103b4565b606435906044359060243590611280565b6001546042916040519161190160f01b8352600283015260228201522090565b346103af5760003660031901126103af5760206040516105798152f35b346103af5760403660031901126103af576106f46004356103b4565b346103af5760203660031901126103af57600435610f4c816103b4565b6000546001600160a01b039190610f6690831633146112b3565b8181168015610fb95761048992600654167f98e6a46aa139a033b9c7f3ae4ad1c103ffdce3e7cf509326808ba8c4b5af11c0600080a360018060a01b03166001600160601b0360a01b6006541617600655565b60405162461bcd60e51b815260206004820152601d60248201527f53746174652073796e6365723a20696e76616c696420616464726573730000006044820152606490fd5b60405161100a81610828565b60528082526020907f454950373132446f6d61696e28737472696e67206e616d652c737472696e6720828401527f76657273696f6e2c75696e7432353620636861696e49642c6164647265737320604084015271766572696679696e67436f6e74726163742960701b6060840152604051928260005b83811061109c57505050600060728401528252610e3082610828565b818184010151828288010152018390611080565b346103af5760003660031901126103af576020610e67610ffe565b346103af5760203660031901126103af576004356110e8816103b4565b6000546001600160a01b039061110190821633146112b3565b8116908115611166576003546104899290611124906001600160a01b031661043b565b7f1f9f3556dd336016cdf20adaead7d5c73665dba664b60e8c17e9a4eb91ce1d39600080a360018060a01b03166001600160601b0360a01b6003541617600355565b60405162461bcd60e51b815260206004820152603260248201527f4368696c6420746f6b656e3a206e6577206368696c64206164647265737320696044820152717320746865207a65726f206164647265737360701b6064820152608490fd5b346103af5760203660031901126103af576004356111e3816103b4565b6000805490916001600160a01b03808316916112003384146112b3565b1680926001600160601b0360a01b161783557f8be0079c531659141344cd1fd0a4f28419497f9722a3daafe3b4186f6b6457e08380a380f35b346103af5760003660031901126103af576006546040516001600160a01b039091168152602090f35b346103af5760003660031901126103af576020600154604051908152f35b9160a0939161128d610d87565b93604051948552600180871b031660208501526040840152606083015260808201522090565b156112ba57565b606460405162461bcd60e51b815260206004820152602060248201527f4f776e61626c653a2063616c6c6572206973206e6f7420746865206f776e65726044820152fd5b1561130557565b60405162461bcd60e51b815260206004820152601460248201527314da59db985d1d5c99481a5cc8195e1c1a5c995960621b6044820152606490fd5b1561134857565b60405162461bcd60e51b815260206004820152600f60248201526e14da59c819195858dd1a5d985d1959608a1b6044820152606490fd5b611387610ffe565b6d446f6a696d61204e6574776f726b60901b60206040516113a781610807565b600e81520152640312e302e360dc1b60206040516113c481610807565b60058152015260405192602084019182527f221f8a440277f355573de882ed84f79b3742ae470474223812e292fd8a8bfa4460408501527f06c015bd22b4c69690933c1058878ebdfef31f9aaae40bbe86d8a09fe1b2972c6060850152610579608085015260018060a01b031660a084015260a0835260c083019280841067ffffffffffffffff85111761082357604084905251902061190160f01b8352600283015260228201526042902090565b90565b908160209103126103af575190565b6040513d6000823e3d90fd5b6040516370a0823160e01b8082526001600160a01b03831660048301529193602093909291908482602481305afa91821561160457600092611645575b506040518381526001600160a01b0382166004820152948086602481305afa95861561160457600096611626575b5061150885838961193a565b6002546040518581526001600160a01b03898116600483015290911696908281602481305afa90811561160457600091611609575b506040519586526001600160a01b03841660048701528286602481305afa918215611604577fe6497e3ee548a3372136af2fcb0696db31fc6cf20260707645068bd3fe97f3c4966115cd946000946115d5575b505060405195869560018060a01b03808092169c169a1698869192608093969594919660a084019784526020840152604083015260608201520152565b0390a4600190565b6115f5929450803d106115fd575b6115ed8183610844565b810190611476565b913880611590565b503d6115e3565b611485565b6116209150833d85116115fd576115ed8183610844565b3861153d565b8161163e9297503d88116115fd576115ed8183610844565b94386114fc565b61165d919250853d87116115fd576115ed8183610844565b90386114ce565b6001600160a01b038082166000818152600760205260409020549093929091908415611781576001600160a01b03811660009081526007602052604090207febff2602b3f468259e1e99f613fed6691f3a6526effe6ef3e768ba7ae7a36c4f9361177c918690546116d782821015611b33565b036116f48460018060a01b03166000526007602052604060002090565b556117028660095403600955565b6000877fddf252ad1be2c89b69c2b068fc378daa952ba7f163c4a11628f55a4df523b3ef604051806117398b829190602083019252565b0390a36002546001600160a01b03938416600090815260076020526040902093169254906040519485941696846040919493926060820195825260208201520152565b0390a3565b60405162461bcd60e51b815260206004820152601e60248201527f45524332303a20696e76616c6964206163636f756e74206164647265737300006044820152606490fd5b908160209103126103af575180151581036103af5790565b6004549091906001600160a01b039081168015159182611810575b5050611809576114739133611491565b5050600090565b600092509060646020926040519485938492631ffb811f60e01b8452336004850152891660248401528760448401525af190811561160457600091611859575b501538806117f9565b61187a915060203d8111611880575b6118728183610844565b8101906117c6565b38611850565b503d611868565b1561188e57565b60405162461bcd60e51b815260206004820152602360248201527f45524332303a207472616e7366657220746f20746865207a65726f206164647260448201526265737360e81b6064820152608490fd5b156118e657565b60405162461bcd60e51b815260206004820152602660248201527f45524332303a207472616e7366657220616d6f756e7420657863656564732062604482015265616c616e636560d01b6064820152608490fd5b916001600160a01b0380841692909183156119fc576119e6827fddf252ad1be2c89b69c2b068fc378daa952ba7f163c4a11628f55a4df523b3ef9461177c941696611986881515611887565b6001600160a01b03811660009081526007602052604090206119cb908590546119b1828210156118df565b039160018060a01b03166000526007602052604060002090565b556001600160a01b0316600090815260076020526040902090565b8054820190556040519081529081906020820190565b60405162461bcd60e51b815260206004820152602560248201527f45524332303a207472616e736665722066726f6d20746865207a65726f206164604482015264647265737360d81b6064820152608490fd5b634e487b7160e01b600052601160045260246000fd5b6001600160a01b03811691908215611adf5760095490828201809211611ada57600092611acb6020927fddf252ad1be2c89b69c2b068fc378daa952ba7f163c4a11628f55a4df523b3ef9460095560018060a01b03166000526007602052604060002090565b818154019055604051908152a3565b611a4f565b60405162461bcd60e51b815260206004820152602660248201527f45524332303a206d696e7420746f20696e76616c6964206163636f756e74206160448201526564647265737360d01b6064820152608490fd5b15611b3a57565b60405162461bcd60e51b815260206004820152602260248201527f45524332303a206275726e20616d6f756e7420657863656564732062616c616e604482015261636560f01b6064820152608490fd5b60405162461bcd60e51b815260206004820152601060248201526f44697361626c6564206665617475726560801b6044820152606490fd5b60ff601b9116019060ff8211611ada57565b15611bdb57565b60405162461bcd60e51b815260206004820152601260248201527122b93937b91034b71032b1b932b1b7bb32b960711b6044820152606490fd5b9060006041825103611cd0575060208101519160ff604160408401519301511690601b8210611cc0575b60ff8216601b8114159081611cb4575b50611cab57611c83600093602095604051948594859094939260ff6060936080840197845216602083015260408201520152565b838052039060015afa156116045760005190611ca96001600160a01b0383161515611bd4565b565b50505050600090565b601c9150141538611c4f565b90611cca90611bc2565b90611c3f565b9150509056fea2646970667358221220d1042ffd1f7a6d48f01a354188916256ca2956297617630e5dbf6a2c5ef7ea2564736f6c634300081300336080604090808252346200052a576200249f80380380916200002282856200057d565b833981016080828203126200052a576200003c82620005a1565b506020906200004d828401620005a1565b838501516001600160401b0394908581116200052a578362000071918301620005b6565b9260608201518681116200052a576200008b9201620005b6565b600080546001600160a01b0319808216339081178455929790966001600160a01b039690949193909287167f8be0079c531659141344cd1fd0a4f28419497f9722a3daafe3b4186f6b6457e08a80a3838951620000e8816200052f565b60528082527f454950373132446f6d61696e28737472696e67206e616d652c737472696e6720838301527f76657273696f6e2c75696e7432353620636861696e49642c61646472657373208c83015271766572696679696e67436f6e74726163742960701b60608301528b51918b5b828110620005155750508a6072830152815262000174816200052f565b818151910120600e828c516200018a8162000561565b828152016d446f6a696d61204e6574776f726b60901b8152208b51620001b08162000561565b600597818980935201640312e302e360dc1b8152208c51918483019384528d830152606082015261057960808201523060a082015260a0815260c081018181108782111762000501578c525190209460019586558351858111620004ed57600654948786811c96168015620004e2575b84871014620004ce578190601f9687811162000479575b5084908d88841160011462000413579262000407575b5050600019600383901b1c191690871b176006555b8251948511620003f357600754908682811c92168015620003e8575b83831014620003d4578482116200038d575b505080928411600114620003235750928293918392899462000317575b50501b916000199060031b1c1916176007555b611001948584600c541617600c555194847f98e6a46aa139a033b9c7f3ae4ad1c103ffdce3e7cf509326808ba8c4b5af11c08180a3169182156200031457506002541617600255611e7190816200062e8239f35b80fd5b015192503880620002ad565b919083601f19811660078b52848b20948b905b8883831062000372575050501062000358575b505050811b01600755620002c0565b015160001960f88460031b161c1916905538808062000349565b85870151885590960195948501948793509081019062000336565b60078b52828b209085808801821c830193858910620003ca575b01901c019086905b828110620003be575062000290565b8b8155018690620003af565b93508293620003a7565b634e487b7160e01b8b52602260045260248bfd5b91607f16916200027e565b634e487b7160e01b8a52604160045260248afd5b0151905038806200024d565b91908a9450601f19841660068452878420935b8882821062000462575050841162000448575b505050811b0160065562000262565b015160001960f88460031b161c1916905538808062000439565b8385015186558d9790950194938401930162000426565b90915060068d52848d2087808501861c820192878610620004c4575b8594939101861c909101908a908f5b838210620004b55750505062000237565b81558594508b91018f620004a4565b9250819262000495565b634e487b7160e01b8c52602260045260248cfd5b95607f169562000220565b634e487b7160e01b8b52604160045260248bfd5b634e487b7160e01b8c52604160045260248cfd5b81810185015184820186015288940162000157565b600080fd5b608081019081106001600160401b038211176200054b57604052565b634e487b7160e01b600052604160045260246000fd5b604081019081106001600160401b038211176200054b57604052565b601f909101601f19168101906001600160401b038211908210176200054b57604052565b51906001600160a01b03821682036200052a57565b919080601f840112156200052a578251906001600160401b0382116200054b5760405191602091620005f2601f8301601f19168401856200057d565b8184528282870101116200052a5760005b8181106200061957508260009394955001015290565b85810183015184820184015282016200060356fe6080604052600436101561001257600080fd5b60003560e01c806301ffc9a71461026757806306fdde0314610262578063081812fc1461025d578063095ea7b3146102585780631499c5921461025357806319d27d9c1461024e5780631c3895ad1461024957806323b872dd1461024457806326c53bea1461023f57806328ce8b311461023a5780632e1a7d4d1461023557806342842e0e1461023057806342fc47fb1461022b57806347e7ef241461022657806360f96a8f146102215780636352211e1461021c57806370a0823114610217578063715018a61461021257806377d32e941461020d5780638da5cb5b146102085780638f32d59b1461020357806395d89b41146101fe578063a22cb465146101f9578063abceeba2146101f4578063acd06cb3146101ef578063b789543c146101ea578063b88d4fde146101e5578063c87b56dd146101e0578063cc79f97b146101db578063df555007146101d6578063e614d0d6146101d1578063e985e9c5146101cc578063ed9ef524146101c7578063f2fde38b146101c2578063f4ef4d69146101bd578063f94dc4bc146101b85763fc0c546a146101b357600080fd5b611500565b6114e2565b6114b9565b611446565b61134b565b61131f565b611304565b611183565b611166565b6110f9565b6110a2565b61104c565b61101b565b610ff8565b610f0c565b610e3f565b610e17565b610dee565b610db0565b610d01565b610c5c565b610c2c565b610c03565b610a53565b610a2a565b610a02565b61099d565b61095a565b6107aa565b610793565b61073f565b610605565b6104d1565b610479565b610451565b610345565b610283565b6001600160e01b031981160361027e57565b600080fd5b3461027e57602036600319011261027e5760206004356102a28161026c565b63ffffffff60e01b166380ac58cd60e01b81149081156102e0575b81156102cf575b506040519015158152f35b6301ffc9a760e01b149050386102c4565b635b5e139f60e01b811491506102bd565b919082519283825260005b84811061031d575050826000602080949584010152601f8019910116010190565b6020818301810151848301820152016102fc565b9060206103429281815201906102f1565b90565b3461027e5760008060031936011261044e5760405190806006549060019180831c92808216928315610444575b602092838610851461043057858852602088019490811561040f57506001146103b6575b6103b2876103a68189038261091c565b60405191829182610331565b0390f35b600660005294509192917ff652222313e28459528d920b65115c16c04f3efc82aaedc97be59f3f377c0d3f5b8386106103fe57505050910190506103a6826103b23880610396565b8054858701529482019481016103e2565b60ff191685525050505090151560051b0190506103a6826103b23880610396565b634e487b7160e01b82526022600452602482fd5b93607f1693610372565b80fd5b3461027e5760203660031901121561049557600080fd5b6001600160a01b0381160361027e57565b3461027e57604036600319011261027e57610495600435610468565b60405162461bcd60e51b815260206004820152601060248201526f44697361626c6564206665617475726560801b6044820152606490fd5b0390fd5b3461027e57602036600319011261027e576004356104ee81610468565b6000546001600160a01b039061050790821633146119b0565b8116908115610576576004546105749290610532906001600160a01b03165b6001600160a01b031690565b7fc9e4c719f349d4c91a37138eb5cf0ba2670c592a764f8c0b18c603ba9178cc1d600080a360018060a01b03166001600160601b0360a01b6004541617600455565b005b60405162461bcd60e51b815260206004820152603360248201527f4368696c6420746f6b656e3a206e657720706172656e74206164647265737320604482015272697320746865207a65726f206164647265737360681b6064820152608490fd5b9181601f8401121561027e5782359167ffffffffffffffff831161027e576020838186019501011161027e57565b3461027e5760a036600319011261027e5760043567ffffffffffffffff811161027e576106369036906004016105d7565b90602435606435906084359261064b84610468565b82158015610735575b156106f9576103b2946106d26106d89261067f6106786106df97604435883361197d565b3090611a39565b926106a76106a161069a866000526005602052604060002090565b5460ff1690565b156119fb565b6106cb6106be856000526005602052604060002090565b805460ff19166001179055565b3691610d5e565b90611d7c565b9283611cc8565b6040516001600160a01b0390911681529081906020820190565b60405162461bcd60e51b815260206004820152601460248201527314da59db985d1d5c99481a5cc8195e1c1a5c995960621b6044820152606490fd5b5082431115610654565b3461027e57600036600319011261027e57602060018060a01b03600c54163314604051908152f35b606090600319011261027e5760043561077f81610468565b9060243561078c81610468565b9060443590565b3461027e576105746107a436610767565b91611c1a565b3461027e57604036600319011261027e5760243567ffffffffffffffff811161027e576107db9036906004016105d7565b600c546001600160a01b039291908316330361084a57816040918101031261027e577f9b1bfa7fa9ee420a16e124f794c35ac9f90472acc99140eb2f6447c714cad8eb60208083359361082d85610468565b01359361083985611b79565b8060025416936040519586521693a3005b60405162461bcd60e51b815260206004820152603560248201527f53746174652073796e6365723a2063616c6c6572206973206e6f7420746865206044820152741cdd185d19481cde5b98d95c8818dbdb9d1c9858dd605a1b6064820152608490fd5b634e487b7160e01b600052604160045260246000fd5b6040810190811067ffffffffffffffff8211176108df57604052565b6108ad565b6020810190811067ffffffffffffffff8211176108df57604052565b6080810190811067ffffffffffffffff8211176108df57604052565b90601f8019910116810190811067ffffffffffffffff8211176108df57604052565b67ffffffffffffffff81116108df57601f01601f191660200190565b3461027e57600036600319011261027e576103b260405161097a816108c3565b600281526103e960f01b60208201526040519182916020835260208301906102f1565b602036600319011261027e576004356109b581611575565b6001600160a01b0390339082160361027e576109d082611b79565b600254166040519182527f9b1bfa7fa9ee420a16e124f794c35ac9f90472acc99140eb2f6447c714cad8eb60203393a3005b3461027e57610574610a1336610767565b9060405192610a21846108e4565b60008452611598565b3461027e57600036600319011261027e576003546040516001600160a01b039091168152602090f35b3461027e57604036600319011261027e57600435610a7081610468565b600354602435906001600160a01b039081163303610ba257821691821561027e57600082815260086020526040902054610b2c9190610ab8906001600160a01b031615611b2d565b600083815260086020526040902054610ada906001600160a01b031615611b2d565b6001600160a01b038116600090815260096020526040902060018154019055610b0d836000526008602052604060002090565b80546001600160a01b0319166001600160a01b03909216919091179055565b7f5548c837ab068cf56a2c2479df0882a4922fd203edb7517321831d95078c5f62604051828460007fddf252ad1be2c89b69c2b068fc378daa952ba7f163c4a11628f55a4df523b3ef8180a46002548190610b9d90610b93906001600160a01b0316610526565b9482526020820190565b0390a3005b60405162461bcd60e51b815260206004820152603360248201527f4368696c6420746f6b656e3a2063616c6c6572206973206e6f742074686520636044820152721a1a5b190818da185a5b8818dbdb9d1c9858dd606a1b6064820152608490fd5b3461027e57600036600319011261027e576004546040516001600160a01b039091168152602090f35b3461027e57602036600319011261027e576020610c4a600435611575565b6040516001600160a01b039091168152f35b3461027e57602036600319011261027e57600435610c7981610468565b6001600160a01b03168015610caa5760005260096020526103b2604060002054604051918291829190602083019252565b60405162461bcd60e51b815260206004820152602960248201527f4552433732313a2061646472657373207a65726f206973206e6f7420612076616044820152683634b21037bbb732b960b91b6064820152608490fd5b3461027e5760008060031936011261044e578054816001600160a01b038216610d2b3382146119b0565b7f8be0079c531659141344cd1fd0a4f28419497f9722a3daafe3b4186f6b6457e08280a36001600160a01b031916815580f35b929192610d6a8261093e565b91610d78604051938461091c565b82948184528183011161027e578281602093846000960137010152565b9080601f8301121561027e5781602061034293359101610d5e565b3461027e57604036600319011261027e5760243567ffffffffffffffff811161027e57610c4a610de66020923690600401610d95565b600435611d7c565b3461027e57600036600319011261027e576000546040516001600160a01b039091168152602090f35b3461027e57600036600319011261027e57602060018060a01b03600054163314604051908152f35b3461027e5760008060031936011261044e5760405190806007549060019180831c92808216928315610ef8575b602092838610851461043057858852602088019490811561040f5750600114610e9f576103b2876103a68189038261091c565b600760005294509192917fa66cc928b5edb82af9bd49922954155ab7b0942694bea4ce44661d9a8736c6885b838610610ee757505050910190506103a6826103b23880610396565b805485870152948201948101610ecb565b93607f1693610e6c565b8015150361027e57565b3461027e57604036600319011261027e57610f28600435610468565b610495602435610f02565b604051610f3f81610900565b605b8082526020907f546f6b656e5472616e736665724f726465722861646472657373207370656e64828401527f65722c75696e7432353620746f6b656e49644f72416d6f756e742c627974657360408401527f333220646174612c75696e743235362065787069726174696f6e2900000000006060840152604051928260005b838110610fe4575050506000607b8401528252610fdc82610900565b815191012090565b818184010151828288010152018390610fc0565b3461027e57600036600319011261027e576020611013610f33565b604051908152f35b3461027e57602036600319011261027e576004356000526005602052602060ff604060002054166040519015158152f35b3461027e57608036600319011261027e57602061101361108260043561107181610468565b60643590604435906024359061197d565b6001546042916040519161190160f01b8352600283015260228201522090565b3461027e57608036600319011261027e576004356110bf81610468565b6024356110cb81610468565b6064359167ffffffffffffffff831161027e576110ef610574933690600401610d95565b9160443591611598565b3461027e57602036600319011261027e57600435600090815260086020526040902054611130906001600160a01b03161515611529565b600060405161113e816108e4565b526103b260405161114e816108e4565b600081526040519182916020835260208301906102f1565b3461027e57600036600319011261027e5760206040516105798152f35b3461027e57602036600319011261027e576004356111a081610468565b6000546001600160a01b0391906111ba90831633146119b0565b818116801561120d5761057492600c54167f98e6a46aa139a033b9c7f3ae4ad1c103ffdce3e7cf509326808ba8c4b5af11c0600080a360018060a01b03166001600160601b0360a01b600c541617600c55565b60405162461bcd60e51b815260206004820152601d60248201527f53746174652073796e6365723a20696e76616c696420616464726573730000006044820152606490fd5b60405161125e81610900565b60528082526020907f454950373132446f6d61696e28737472696e67206e616d652c737472696e6720828401527f76657273696f6e2c75696e7432353620636861696e49642c6164647265737320604084015271766572696679696e67436f6e74726163742960701b6060840152604051928260005b8381106112f057505050600060728401528252610fdc82610900565b8181840101518282880101520183906112d4565b3461027e57600036600319011261027e576020611013611252565b3461027e57604036600319011261027e5761133b600435610468565b611346602435610468565b610495565b3461027e57602036600319011261027e5760043561136881610468565b6000546001600160a01b039061138190821633146119b0565b81169081156113e65760035461057492906113a4906001600160a01b0316610526565b7f1f9f3556dd336016cdf20adaead7d5c73665dba664b60e8c17e9a4eb91ce1d39600080a360018060a01b03166001600160601b0360a01b6003541617600355565b60405162461bcd60e51b815260206004820152603260248201527f4368696c6420746f6b656e3a206e6577206368696c64206164647265737320696044820152717320746865207a65726f206164647265737360701b6064820152608490fd5b3461027e57602036600319011261027e5760043561146381610468565b6000805490916001600160a01b03808316916114803384146119b0565b1680926001600160601b0360a01b161783557f8be0079c531659141344cd1fd0a4f28419497f9722a3daafe3b4186f6b6457e08380a380f35b3461027e57600036600319011261027e57600c546040516001600160a01b039091168152602090f35b3461027e57600036600319011261027e576020600154604051908152f35b3461027e57600036600319011261027e576002546040516001600160a01b039091168152602090f35b1561153057565b60405162461bcd60e51b815260206004820152601860248201527f4552433732313a20696e76616c696420746f6b656e20494400000000000000006044820152606490fd5b6000908152600860205260409020546001600160a01b0316610342811515611529565b9291906001600160a01b036115ac83611575565b16331415806113465780611346576115f257836115cd83836115d2976116fa565b6118ba565b156115d957565b60405162461bcd60e51b8152806104cd6004820161164d565b60405162461bcd60e51b815260206004820152602d60248201527f4552433732313a2063616c6c6572206973206e6f7420746f6b656e206f776e6560448201526c1c881bdc88185c1c1c9bdd9959609a1b6064820152608490fd5b60809060208152603260208201527f4552433732313a207472616e7366657220746f206e6f6e20455243373231526560408201527131b2b4bb32b91034b6b83632b6b2b73a32b960711b60608201520190565b156116a757565b60405162461bcd60e51b815260206004820152602560248201527f4552433732313a207472616e736665722066726f6d20696e636f72726563742060448201526437bbb732b960d91b6064820152608490fd5b61171e9061170784611575565b6001600160a01b03828116939091821684146116a0565b83169283156117e7576117856117c0926117448561173e6105268a611575565b146116a0565b61176b61175b88600052600a602052604060002090565b80546001600160a01b0319169055565b6001600160a01b0316600090815260096020526040902090565b80546000190190556001600160a01b038116600090815260096020526040902060018154019055610b0d856000526008602052604060002090565b7fddf252ad1be2c89b69c2b068fc378daa952ba7f163c4a11628f55a4df523b3ef600080a4565b60405162461bcd60e51b8152602060048201526024808201527f4552433732313a207472616e7366657220746f20746865207a65726f206164646044820152637265737360e01b6064820152608490fd5b9081602091031261027e57516103428161026c565b6001600160a01b039182168152911660208201526040810191909152608060608201819052610342929101906102f1565b6040513d6000823e3d90fd5b3d156118b5573d9061189b8261093e565b916118a9604051938461091c565b82523d6000602084013e565b606090565b92909190823b15611974576118ed926020926000604051809681958294630a85bd0160e11b9a8b8552336004860161184d565b03926001600160a01b03165af160009181611944575b506119365761191061188a565b805190816119315760405162461bcd60e51b8152806104cd6004820161164d565b602001fd5b6001600160e01b0319161490565b61196691925060203d811161196d575b61195e818361091c565b810190611838565b9038611903565b503d611954565b50505050600190565b9160a0939161198a610f33565b93604051948552600180871b031660208501526040840152606083015260808201522090565b156119b757565b606460405162461bcd60e51b815260206004820152602060248201527f4f776e61626c653a2063616c6c6572206973206e6f7420746865206f776e65726044820152fd5b15611a0257565b60405162461bcd60e51b815260206004820152600f60248201526e14da59c819195858dd1a5d985d1959608a1b6044820152606490fd5b611a41611252565b6d446f6a696d61204e6574776f726b60901b6020604051611a61816108c3565b600e81520152640312e302e360dc1b6020604051611a7e816108c3565b60058152015260405192602084019182527f221f8a440277f355573de882ed84f79b3742ae470474223812e292fd8a8bfa4460408501527f06c015bd22b4c69690933c1058878ebdfef31f9aaae40bbe86d8a09fe1b2972c6060850152610579608085015260018060a01b031660a084015260a0835260c083019280841067ffffffffffffffff8511176108df57604084905251902061190160f01b8352600283015260228201526042902090565b15611b3457565b60405162461bcd60e51b815260206004820152601c60248201527f4552433732313a20746f6b656e20616c7265616479206d696e746564000000006044820152606490fd5b611b8281611575565b50611b8c81611575565b6000828152600a6020908152604080832080546001600160a01b03199081169091556001600160a01b0390941680845260098352818420805460001901905585845260089092528220919290919081541690557fddf252ad1be2c89b69c2b068fc378daa952ba7f163c4a11628f55a4df523b3ef8280a4565b9081602091031261027e575161034281610f02565b600454909291906001600160a01b039081168015159182611c4c575b5050611c4757611c4592611cc8565b565b505050565b600092509060646020926040519485938492631ffb811f60e01b8452336004850152881660248401528860448401525af1908115611cc357600091611c95575b50153880611c36565b611cb6915060203d8111611cbc575b611cae818361091c565b810190611c05565b38611c8c565b503d611ca4565b61187e565b9190611cd58282856116fa565b7f6eabe333476233fd382224f233210cb808a7bc4c4de64f9d76628bf63c677b1a602060018060a01b038080600254169460405196875216951693a4565b60ff601b9116019060ff8211611d2557565b634e487b7160e01b600052601160045260246000fd5b15611d4257565b60405162461bcd60e51b815260206004820152601260248201527122b93937b91034b71032b1b932b1b7bb32b960711b6044820152606490fd5b9060006041825103611e35575060208101519160ff604160408401519301511690601b8210611e25575b60ff8216601b8114159081611e19575b50611e1057611dea600093602095604051948594859094939260ff6060936080840197845216602083015260408201520152565b838052039060015afa15611cc35760005190611c456001600160a01b0383161515611d3b565b50505050600090565b601c9150141538611db6565b90611e2f90611d13565b90611da6565b9150509056fea2646970667358221220922efd1d2ea02aeb8e7057651bbb193e318bcee198c021efe68f30d7d5de8d1c64736f6c63430008130033a264697066735822122089aef12a64f344af56fff53969b067dee6fd24545c3a3fb85bb39fc09efb1c2864736f6c63430008130033",
  "linkReferences": {},
  "deployedLinkReferences": {}
}