{
  "_format": "hh-sol-artifact-1",
  "contractName": "StateReceiver",
  "sourceName": "contracts/dojimachain/StateReceiver.sol",
  "abi": [
    {
      "inputs": [],
      "name": "SYSTEM_ADDRESS",
      "outputs": [
        {
          "internalType": "address",
          "name": "",
          "type": "address"
        }
      ],
      "stateMutability": "view",
      "type": "function"
    },
    {
      "inputs": [
        {
          "internalType": "uint256",
          "name": "syncTime",
          "type": "uint256"
        },
        {
          "internalType": "bytes",
          "name": "recordBytes",
          "type": "bytes"
        }
      ],
      "name": "commitState",
      "outputs": [
        {
          "internalType": "bool",
          "name": "success",
          "type": "bool"
        }
      ],
      "stateMutability": "nonpayable",
      "type": "function"
    },
    {
      "inputs": [],
      "name": "lastStateId",
      "outputs": [
        {
          "internalType": "uint256",
          "name": "",
          "type": "uint256"
        }
      ],
      "stateMutability": "view",
      "type": "function"
    }
  ],
  "bytecode": "0x608080604052346100165761088f908161001c8239f35b600080fdfe6080604052600436101561001257600080fd5b6000803560e01c90816319494a171461004a575080633434735f1461004557635407ca671461004057600080fd5b6100e3565b6100bb565b346100b85760403660031901126100b85760243567ffffffffffffffff918282116100b857366023830112156100b85781600401359283116100b85736602484840101116100b8576100b46100a28460248501610101565b60405190151581529081906020820190565b0390f35b80fd5b346100de5760003660031901126100de576040516002600160a01b038152602090f35b600080fd5b346100de5760003660031901126100de576020600054604051908152f35b6003600160a01b031933016102075760009161011c816102a9565b9161012a6040519384610278565b81835236828201116102035782846020846101569561015195838599013783010152610417565b610455565b610168610162826102c5565b5161056e565b61018583546101808361017a83610332565b14610352565b61039e565b83556101ab6101a561019f610199856102e8565b5161054f565b936102f8565b51610635565b63ffffffff833b166101bf575b5050505090565b6101e56101f3859260405192839160208301966313629df560e11b8852602484016103ad565b03601f198101835282610278565b5192624c4b40f1803880806101b8565b8380fd5b60405162461bcd60e51b81526020600482015260126024820152714e6f742053797374656d204164646573732160701b6044820152606490fd5b634e487b7160e01b600052604160045260246000fd5b6040810190811067ffffffffffffffff82111761027357604052565b610241565b90601f8019910116810190811067ffffffffffffffff82111761027357604052565b604051906102a782610257565b565b67ffffffffffffffff811161027357601f01601f191660200190565b8051156102d25760200190565b634e487b7160e01b600052603260045260246000fd5b8051600110156102d25760400190565b8051600210156102d25760600190565b80518210156102d25760209160051b010190565b634e487b7160e01b600052601160045260246000fd5b906001820180921161034057565b61031c565b9190820180921161034057565b1561035957565b60405162461bcd60e51b815260206004820152601b60248201527f537461746549647320617265206e6f742073657175656e7469616c00000000006044820152606490fd5b60001981146103405760010190565b90929192815260209260408483015280519081604084015260005b8281106103ea57505060609293506000838284010152601f8019910116010190565b8181018601518482016060015285016103c8565b6040519061040b82610257565b60006020838281520152565b61041f6103fe565b5060208151916040519261043284610257565b835201602082015290565b67ffffffffffffffff81116102735760051b60200190565b61045e81610528565b156100de5761046c81610685565b6104758161043d565b916104836040519384610278565b818352601f196104928361043d565b0160005b8181106105115750506104b76020809201516104b18161076d565b90610345565b6000905b8382106104c9575050505090565b610505816104d961050b936106e7565b906104e261029a565b82815281878201526104f4868a610308565b526104ff8589610308565b50610345565b9161039e565b906104bb565b60209061051c6103fe565b82828801015201610496565b80511561054957602060c09101515160001a1061054457600190565b600090565b50600090565b60158151036100de576001600160a01b039061056a9061056e565b1690565b805180151590816105a4575b50156100de5761058990610609565b90519060208110610598575090565b6020036101000a900490565b6021915011153861057a565b60bf1981019190821161034057565b607f1981019190821161034057565b602003906020821161034057565b60001981019190821161034057565b60f61981019190821161034057565b60b61981019190821161034057565b906020820191610619835161076d565b9251908382018092116103405751928303928311610340579190565b8051156100de5761064861068291610609565b610654819392936102a9565b926106626040519485610278565b818452601f19610671836102a9565b0136602086013783602001906107dc565b90565b805115610549576000906020810190815161069f8161076d565b8101809111610340579151905181018091116103405791905b8281106106c55750905090565b6106ce816106e7565b8101809111610340576106e1909161039e565b906106b8565b805160001a9060808210156106fd575050600190565b60b88210156107185750610713610682916105bf565b610332565b9060c081101561073c5760b51991600160b783602003016101000a91015104010190565b9060f88210156107535750610713610682916105b0565b60010151602082900360f7016101000a90040160f5190190565b5160001a60808110156107805750600090565b60b8811080156107b7575b156107965750600190565b60c08110156107ab57610713610682916105fa565b610713610682916105eb565b5060c0811015801561078b575060f8811061078b565b601f8111610340576101000a90565b9290919283156108535792915b60209384841061081e5780518252848101809111610340579381018091116103405791601f19810190811161034057916107e9565b919350918061082c57505050565b61084061083b610845926105ce565b6107cd565b6105dc565b905182518216911916179052565b5091505056fea2646970667358221220c66077192e81d79f551c599eb45c88feb518dfd3d9e5f5d9f0c8f8ab2ba93c2b64736f6c63430008130033",
  "linkReferences": {},
  "deployedLinkReferences": {}
}