{
  "_format": "hh-sol-artifact-1",
  "contractName": "DRC20_OLD",
  "sourceName": "contracts/dojimachain/DRC20_OLD.sol",
  "abi": [
    {
      "anonymous": false,
      "inputs": [
        {
          "indexed": true,
          "internalType": "address",
          "name": "previousAddress",
          "type": "address"
        },
        {
          "indexed": true,
          "internalType": "address",
          "name": "newAddress",
          "type": "address"
        }
      ],
      "name": "ChildChainChanged",
      "type": "event"
    },
    {
      "anonymous": false,
      "inputs": [
        {
          "indexed": true,
          "internalType": "address",
          "name": "token",
          "type": "address"
        },
        {
          "indexed": true,
          "internalType": "address",
          "name": "from",
          "type": "address"
        },
        {
          "indexed": false,
          "internalType": "uint256",
          "name": "amount",
          "type": "uint256"
        },
        {
          "indexed": false,
          "internalType": "uint256",
          "name": "input1",
          "type": "uint256"
        },
        {
          "indexed": false,
          "internalType": "uint256",
          "name": "output1",
          "type": "uint256"
        }
      ],
      "name": "Deposit",
      "type": "event"
    },
    {
      "anonymous": false,
      "inputs": [
        {
          "indexed": true,
          "internalType": "address",
          "name": "token",
          "type": "address"
        },
        {
          "indexed": true,
          "internalType": "address",
          "name": "from",
          "type": "address"
        },
        {
          "indexed": true,
          "internalType": "address",
          "name": "to",
          "type": "address"
        },
        {
          "indexed": false,
          "internalType": "uint256",
          "name": "amount",
          "type": "uint256"
        },
        {
          "indexed": false,
          "internalType": "uint256",
          "name": "input1",
          "type": "uint256"
        },
        {
          "indexed": false,
          "internalType": "uint256",
          "name": "input2",
          "type": "uint256"
        },
        {
          "indexed": false,
          "internalType": "uint256",
          "name": "output1",
          "type": "uint256"
        },
        {
          "indexed": false,
          "internalType": "uint256",
          "name": "output2",
          "type": "uint256"
        }
      ],
      "name": "LogFeeTransfer",
      "type": "event"
    },
    {
      "anonymous": false,
      "inputs": [
        {
          "indexed": true,
          "internalType": "address",
          "name": "token",
          "type": "address"
        },
        {
          "indexed": true,
          "internalType": "address",
          "name": "from",
          "type": "address"
        },
        {
          "indexed": true,
          "internalType": "address",
          "name": "to",
          "type": "address"
        },
        {
          "indexed": false,
          "internalType": "uint256",
          "name": "amount",
          "type": "uint256"
        },
        {
          "indexed": false,
          "internalType": "uint256",
          "name": "input1",
          "type": "uint256"
        },
        {
          "indexed": false,
          "internalType": "uint256",
          "name": "input2",
          "type": "uint256"
        },
        {
          "indexed": false,
          "internalType": "uint256",
          "name": "output1",
          "type": "uint256"
        },
        {
          "indexed": false,
          "internalType": "uint256",
          "name": "output2",
          "type": "uint256"
        }
      ],
      "name": "LogTransfer",
      "type": "event"
    },
    {
      "anonymous": false,
      "inputs": [
        {
          "indexed": true,
          "internalType": "address",
          "name": "previousOwner",
          "type": "address"
        },
        {
          "indexed": true,
          "internalType": "address",
          "name": "newOwner",
          "type": "address"
        }
      ],
      "name": "OwnershipTransferred",
      "type": "event"
    },
    {
      "anonymous": false,
      "inputs": [
        {
          "indexed": true,
          "internalType": "address",
          "name": "previousAddress",
          "type": "address"
        },
        {
          "indexed": true,
          "internalType": "address",
          "name": "newAddress",
          "type": "address"
        }
      ],
      "name": "ParentChanged",
      "type": "event"
    },
    {
      "anonymous": false,
      "inputs": [
        {
          "indexed": true,
          "internalType": "address",
          "name": "from",
          "type": "address"
        },
        {
          "indexed": true,
          "internalType": "address",
          "name": "to",
          "type": "address"
        },
        {
          "indexed": false,
          "internalType": "uint256",
          "name": "value",
          "type": "uint256"
        }
      ],
      "name": "Transfer",
      "type": "event"
    },
    {
      "anonymous": false,
      "inputs": [
        {
          "indexed": true,
          "internalType": "address",
          "name": "token",
          "type": "address"
        },
        {
          "indexed": true,
          "internalType": "address",
          "name": "from",
          "type": "address"
        },
        {
          "indexed": false,
          "internalType": "uint256",
          "name": "amount",
          "type": "uint256"
        },
        {
          "indexed": false,
          "internalType": "uint256",
          "name": "input1",
          "type": "uint256"
        },
        {
          "indexed": false,
          "internalType": "uint256",
          "name": "output1",
          "type": "uint256"
        }
      ],
      "name": "Withdraw",
      "type": "event"
    },
    {
      "inputs": [],
      "name": "CHAINID",
      "outputs": [
        {
          "internalType": "uint256",
          "name": "",
          "type": "uint256"
        }
      ],
      "stateMutability": "view",
      "type": "function"
    },
    {
      "inputs": [],
      "name": "EIP712_DOMAIN_SCHEMA_HASH",
      "outputs": [
        {
          "internalType": "bytes32",
          "name": "",
          "type": "bytes32"
        }
      ],
      "stateMutability": "view",
      "type": "function"
    },
    {
      "inputs": [],
      "name": "EIP712_TOKEN_TRANSFER_ORDER_SCHEMA_HASH",
      "outputs": [
        {
          "internalType": "bytes32",
          "name": "",
          "type": "bytes32"
        }
      ],
      "stateMutability": "view",
      "type": "function"
    },
    {
      "inputs": [],
      "name": "NETWORK_ID",
      "outputs": [
        {
          "internalType": "bytes",
          "name": "",
          "type": "bytes"
        }
      ],
      "stateMutability": "view",
      "type": "function"
    },
    {
      "inputs": [
        {
          "internalType": "address",
          "name": "",
          "type": "address"
        },
        {
          "internalType": "address",
          "name": "",
          "type": "address"
        }
      ],
      "name": "allowance",
      "outputs": [
        {
          "internalType": "uint256",
          "name": "",
          "type": "uint256"
        }
      ],
      "stateMutability": "pure",
      "type": "function"
    },
    {
      "inputs": [
        {
          "internalType": "address",
          "name": "",
          "type": "address"
        },
        {
          "internalType": "uint256",
          "name": "",
          "type": "uint256"
        }
      ],
      "name": "approve",
      "outputs": [
        {
          "internalType": "bool",
          "name": "",
          "type": "bool"
        }
      ],
      "stateMutability": "pure",
      "type": "function"
    },
    {
      "inputs": [
        {
          "internalType": "address",
          "name": "account",
          "type": "address"
        }
      ],
      "name": "balanceOf",
      "outputs": [
        {
          "internalType": "uint256",
          "name": "",
          "type": "uint256"
        }
      ],
      "stateMutability": "view",
      "type": "function"
    },
    {
      "inputs": [
        {
          "internalType": "address",
          "name": "newAddress",
          "type": "address"
        }
      ],
      "name": "changeChildChain",
      "outputs": [],
      "stateMutability": "nonpayable",
      "type": "function"
    },
    {
      "inputs": [],
      "name": "childChain",
      "outputs": [
        {
          "internalType": "address",
          "name": "",
          "type": "address"
        }
      ],
      "stateMutability": "view",
      "type": "function"
    },
    {
      "inputs": [],
      "name": "currentSupply",
      "outputs": [
        {
          "internalType": "uint256",
          "name": "",
          "type": "uint256"
        }
      ],
      "stateMutability": "view",
      "type": "function"
    },
    {
      "inputs": [],
      "name": "decimals",
      "outputs": [
        {
          "internalType": "uint8",
          "name": "",
          "type": "uint8"
        }
      ],
      "stateMutability": "pure",
      "type": "function"
    },
    {
      "inputs": [
        {
          "internalType": "address",
          "name": "user",
          "type": "address"
        },
        {
          "internalType": "uint256",
          "name": "amount",
          "type": "uint256"
        }
      ],
      "name": "deposit",
      "outputs": [],
      "stateMutability": "nonpayable",
      "type": "function"
    },
    {
      "inputs": [
        {
          "internalType": "bytes32",
          "name": "",
          "type": "bytes32"
        }
      ],
      "name": "disabledHashes",
      "outputs": [
        {
          "internalType": "bool",
          "name": "",
          "type": "bool"
        }
      ],
      "stateMutability": "view",
      "type": "function"
    },
    {
      "inputs": [
        {
          "internalType": "bytes32",
          "name": "hash",
          "type": "bytes32"
        },
        {
          "internalType": "bytes",
          "name": "sig",
          "type": "bytes"
        }
      ],
      "name": "ecrecovery",
      "outputs": [
        {
          "internalType": "address",
          "name": "result",
          "type": "address"
        }
      ],
      "stateMutability": "pure",
      "type": "function"
    },
    {
      "inputs": [],
      "name": "eip712DomainHash",
      "outputs": [
        {
          "internalType": "bytes32",
          "name": "",
          "type": "bytes32"
        }
      ],
      "stateMutability": "view",
      "type": "function"
    },
    {
      "inputs": [
        {
          "internalType": "address",
          "name": "spender",
          "type": "address"
        },
        {
          "internalType": "uint256",
          "name": "tokenIdOrAmount",
          "type": "uint256"
        },
        {
          "internalType": "bytes32",
          "name": "data",
          "type": "bytes32"
        },
        {
          "internalType": "uint256",
          "name": "expiration",
          "type": "uint256"
        }
      ],
      "name": "getTokenTransferOrderHash",
      "outputs": [
        {
          "internalType": "bytes32",
          "name": "orderHash",
          "type": "bytes32"
        }
      ],
      "stateMutability": "view",
      "type": "function"
    },
    {
      "inputs": [
        {
          "internalType": "address",
          "name": "_childChain",
          "type": "address"
        },
        {
          "internalType": "address",
          "name": "_token",
          "type": "address"
        }
      ],
      "name": "initialize",
      "outputs": [],
      "stateMutability": "nonpayable",
      "type": "function"
    },
    {
      "inputs": [],
      "name": "isOwner",
      "outputs": [
        {
          "internalType": "bool",
          "name": "",
          "type": "bool"
        }
      ],
      "stateMutability": "view",
      "type": "function"
    },
    {
      "inputs": [],
      "name": "name",
      "outputs": [
        {
          "internalType": "string",
          "name": "",
          "type": "string"
        }
      ],
      "stateMutability": "pure",
      "type": "function"
    },
    {
      "inputs": [],
      "name": "owner",
      "outputs": [
        {
          "internalType": "address",
          "name": "",
          "type": "address"
        }
      ],
      "stateMutability": "view",
      "type": "function"
    },
    {
      "inputs": [],
      "name": "parent",
      "outputs": [
        {
          "internalType": "address",
          "name": "",
          "type": "address"
        }
      ],
      "stateMutability": "view",
      "type": "function"
    },
    {
      "inputs": [],
      "name": "renounceOwnership",
      "outputs": [],
      "stateMutability": "nonpayable",
      "type": "function"
    },
    {
      "inputs": [
        {
          "internalType": "address",
          "name": "",
          "type": "address"
        }
      ],
      "name": "setParent",
      "outputs": [],
      "stateMutability": "pure",
      "type": "function"
    },
    {
      "inputs": [],
      "name": "symbol",
      "outputs": [
        {
          "internalType": "string",
          "name": "",
          "type": "string"
        }
      ],
      "stateMutability": "pure",
      "type": "function"
    },
    {
      "inputs": [],
      "name": "token",
      "outputs": [
        {
          "internalType": "address",
          "name": "",
          "type": "address"
        }
      ],
      "stateMutability": "view",
      "type": "function"
    },
    {
      "inputs": [],
      "name": "totalSupply",
      "outputs": [
        {
          "internalType": "uint256",
          "name": "",
          "type": "uint256"
        }
      ],
      "stateMutability": "pure",
      "type": "function"
    },
    {
      "inputs": [
        {
          "internalType": "address",
          "name": "to",
          "type": "address"
        },
        {
          "internalType": "uint256",
          "name": "value",
          "type": "uint256"
        }
      ],
      "name": "transfer",
      "outputs": [
        {
          "internalType": "bool",
          "name": "",
          "type": "bool"
        }
      ],
      "stateMutability": "payable",
      "type": "function"
    },
    {
      "inputs": [
        {
          "internalType": "address",
          "name": "",
          "type": "address"
        },
        {
          "internalType": "address",
          "name": "",
          "type": "address"
        },
        {
          "internalType": "uint256",
          "name": "",
          "type": "uint256"
        }
      ],
      "name": "transferFrom",
      "outputs": [
        {
          "internalType": "bool",
          "name": "",
          "type": "bool"
        }
      ],
      "stateMutability": "pure",
      "type": "function"
    },
    {
      "inputs": [
        {
          "internalType": "address",
          "name": "newOwner",
          "type": "address"
        }
      ],
      "name": "transferOwnership",
      "outputs": [],
      "stateMutability": "nonpayable",
      "type": "function"
    },
    {
      "inputs": [
        {
          "internalType": "bytes",
          "name": "",
          "type": "bytes"
        },
        {
          "internalType": "uint256",
          "name": "",
          "type": "uint256"
        },
        {
          "internalType": "bytes32",
          "name": "",
          "type": "bytes32"
        },
        {
          "internalType": "uint256",
          "name": "",
          "type": "uint256"
        },
        {
          "internalType": "address",
          "name": "",
          "type": "address"
        }
      ],
      "name": "transferWithSig",
      "outputs": [
        {
          "internalType": "address",
          "name": "",
          "type": "address"
        }
      ],
      "stateMutability": "pure",
      "type": "function"
    },
    {
      "inputs": [
        {
          "internalType": "uint256",
          "name": "amount",
          "type": "uint256"
        }
      ],
      "name": "withdraw",
      "outputs": [],
      "stateMutability": "payable",
      "type": "function"
    }
  ],
  "bytecode": "0x6080346101e55760008054336001600160a01b0319821681178355906001600160a01b03167f8be0079c531659141344cd1fd0a4f28419497f9722a3daafe3b4186f6b6457e08380a36001600160401b039160808101838111828210176101d15760409081526052908183526020917f454950373132446f6d61696e28737472696e67206e616d652c737472696e6720838501527f76657273696f6e2c75696e7432353620636861696e49642c61646472657373208285015271766572696679696e67436f6e74726163742960701b606085015281519383865b8381106101bd5750505084607285015283526080830192808410868511176101a95760a0600e918584528281518683012096610114816101ea565b52016d446f6a696d61204e6574776f726b60901b8152206005838351610139816101ea565b82815201640312e302e360dc1b81522090825193840194855282840152606083015261057960808301523060a083015260a0825260c082019482861090861117610195578490525190206001556006556112a1908161021c8239f35b634e487b7160e01b84526041600452602484fd5b634e487b7160e01b85526041600452602485fd5b8181840101518282890101520184906100d9565b634e487b7160e01b83526041600452602483fd5b600080fd5b604081019081106001600160401b0382111761020557604052565b634e487b7160e01b600052604160045260246000fdfe6080604052600436101561001257600080fd5b60003560e01c806306fdde0314610207578063095ea7b3146102025780631499c592146101fd57806318160ddd146101f857806319d27d9c146101f357806323b872dd146101ee57806328ce8b31146101e95780632e1a7d4d146101e4578063313ce567146101df57806342fc47fb146101da57806347e7ef24146101d5578063485cc955146101d057806360f96a8f146101cb57806370a08231146101c6578063715018a6146101c1578063771282f6146101bc57806377d32e94146101b75780638da5cb5b146101b25780638f32d59b146101ad57806395d89b41146101a8578063a9059cbb146101a3578063abceeba21461019e578063acd06cb314610199578063b789543c14610194578063cc79f97b1461018f578063dd62ed3e1461018a578063e614d0d614610185578063ed9ef52414610180578063f2fde38b1461017b578063f94dc4bc146101765763fc0c546a1461017157600080fd5b610db6565b610d98565b610d67565b610c74565b610b9a565b610b81565b610b64565b610ae4565b610ab3565b610a90565b61099f565b61095b565b610933565b61090a565b610877565b610859565b6107f9565b6107d5565b6107ac565b6106f4565b6105c5565b61059c565b610580565b6104b9565b610476565b6103c3565b610366565b61033f565b6102ed565b6102ce565b61024c565b919082519283825260005b848110610238575050826000602080949584010152601f8019910116010190565b602081830181015184830182015201610217565b3461029d57600036600319011261029d5761029960405161026c816103fb565b600c81526b2237b534b6b0902a37b5b2b760a11b602082015260405191829160208352602083019061020c565b0390f35b600080fd5b600435906001600160a01b038216820361029d57565b602435906001600160a01b038216820361029d57565b3461029d57604036600319011261029d576102e76102a2565b5061106a565b3461029d57602036600319011261029d576103066102a2565b5060405162461bcd60e51b815260206004820152601060248201526f44697361626c6564206665617475726560801b6044820152606490fd5b3461029d57600036600319011261029d5760206040516b204fce5e3e250261100000008152f35b3461029d5760a036600319011261029d5760043567ffffffffffffffff80821161029d573660238301121561029d57816004013590811161029d573691016024011161029d576084356001600160a01b0381161461106a57600080fd5b3461029d57606036600319011261029d576103dc6102a2565b506102e76102b8565b634e487b7160e01b600052604160045260246000fd5b6040810190811067ffffffffffffffff82111761041757604052565b6103e5565b6080810190811067ffffffffffffffff82111761041757604052565b90601f8019910116810190811067ffffffffffffffff82111761041757604052565b67ffffffffffffffff811161041757601f01601f191660200190565b3461029d57600036600319011261029d57610299604051610496816103fb565b600281526103e960f01b602082015260405191829160208352602083019061020c565b602036600319011261029d5760043533319060065481810390811161057b5760065580151580610572575b1561053757600254604080519283526020830193909352338031938301939093526001600160a01b0316907febff2602b3f468259e1e99f613fed6691f3a6526effe6ef3e768ba7ae7a36c4f90606090a3005b60405162461bcd60e51b8152602060048201526013602482015272125b9cdd59999a58da595b9d08185b5bdd5b9d606a1b6044820152606490fd5b508034146104e4565b610e71565b3461029d57600036600319011261029d57602060405160128152f35b3461029d57600036600319011261029d576003546040516001600160a01b039091168152602090f35b3461029d57604036600319011261029d576105de6102a2565b60243560018060a01b03906000926105fa838554163314610ddf565b8115928315806106e9575b15610698578131918584838316809761062861062384600654610e87565b600655565b839061068f575b839283928392f11561068a57600254604080519586526020860194909452903192840192909252166001600160a01b0316907f4e2ca0515ed1aef1395f66b5303bb5d6f1bf9d61a353fa53f73f8ac9973fa9f690606090a380f35b610e94565b506108fc61062f565b60405162461bcd60e51b815260206004820152602360248201527f496e73756666696369656e7420616d6f756e74206f7220696e76616c6964207560448201526239b2b960e91b6064820152608490fd5b508082161515610605565b3461029d57604036600319011261029d5761070d6102a2565b6107156102b8565b9060075460ff811661075b5760ff1916600117600755600280546001600160a01b0319166001600160a01b039093169290921790915561075990610e2a565b610e2a565b005b60405162461bcd60e51b815260206004820152602360248201527f54686520636f6e747261637420697320616c726561647920696e697469616c696044820152621e995960ea1b6064820152608490fd5b3461029d57600036600319011261029d576004546040516001600160a01b039091168152602090f35b3461029d57602036600319011261029d5760206107f06102a2565b31604051908152f35b3461029d57600080600319360112610856578054816001600160a01b038216610823338214610ddf565b7f8be0079c531659141344cd1fd0a4f28419497f9722a3daafe3b4186f6b6457e08280a36001600160a01b031916815580f35b80fd5b3461029d57600036600319011261029d576020600654604051908152f35b3461029d57604036600319011261029d5760243567ffffffffffffffff811161029d573660238201121561029d578060040135906108b48261045a565b6108c16040519182610438565b828152366024848401011161029d5760006020846102999560246108f0960183860137830101526004356111aa565b6040516001600160a01b0390911681529081906020820190565b3461029d57600036600319011261029d576000546040516001600160a01b039091168152602090f35b3461029d57600036600319011261029d57602060018060a01b03600054163314604051908152f35b3461029d57600036600319011261029d5761029960405161097b816103fb565b60038152622227a560e91b602082015260405191829160208352602083019061020c565b604036600319011261029d5760206109c16109b86102a2565b60243590610ea0565b6040519015158152f35b6040516109d78161041c565b605b8082526020907f546f6b656e5472616e736665724f726465722861646472657373207370656e64828401527f65722c75696e7432353620746f6b656e49644f72416d6f756e742c627974657360408401527f333220646174612c75696e743235362065787069726174696f6e2900000000006060840152604051928260005b838110610a7c575050506000607b8401528252610a748261041c565b815191012090565b818184010151828288010152018390610a58565b3461029d57600036600319011261029d576020610aab6109cb565b604051908152f35b3461029d57602036600319011261029d576004356000526005602052602060ff604060002054166040519015158152f35b3461029d57608036600319011261029d57610299604260a0610b046102a2565b610b0c6109cb565b90604051918252600180841b0316602082015260243560408201526044356060820152606435608082015220600154906040519161190160f01b83526002830152602282015220604051918291829190602083019252565b3461029d57600036600319011261029d5760206040516105798152f35b3461029d57604036600319011261029d576103dc6102a2565b3461029d57600036600319011261029d57604051610bb78161041c565b6052908181526020917f454950373132446f6d61696e28737472696e67206e616d652c737472696e6720838301527f76657273696f6e2c75696e7432353620636861696e49642c6164647265737320604083015271766572696679696e67436f6e74726163742960701b60608301526040519160005b828110610c6157610299848685600060728401528252610c4c8261041c565b81519101206040519081529081906020820190565b8181018501518482018601528401610c2d565b3461029d57602036600319011261029d57610c8d6102a2565b6000546001600160a01b0390610ca69082163314610ddf565b8116908115610d075760035461075992906001600160a01b03167f1f9f3556dd336016cdf20adaead7d5c73665dba664b60e8c17e9a4eb91ce1d39600080a360018060a01b03166bffffffffffffffffffffffff60a01b6003541617600355565b60405162461bcd60e51b815260206004820152603260248201527f4368696c6420746f6b656e3a206e6577206368696c64206164647265737320696044820152717320746865207a65726f206164647265737360701b6064820152608490fd5b3461029d57602036600319011261029d57610759610d836102a2565b61075460018060a01b03600054163314610ddf565b3461029d57600036600319011261029d576020600154604051908152f35b3461029d57600036600319011261029d576002546040516001600160a01b039091168152602090f35b15610de657565b606460405162461bcd60e51b815260206004820152602060248201527f4f776e61626c653a2063616c6c6572206973206e6f7420746865206f776e65726044820152fd5b600080546001600160a01b039283166001600160a01b03198216811783559216907f8be0079c531659141344cd1fd0a4f28419497f9722a3daafe3b4186f6b6457e09080a3565b634e487b7160e01b600052601160045260246000fd5b9190820180921161057b57565b6040513d6000823e3d90fd5b90803403611063576040516370a0823160e01b808252336004830152602092918381602481305afa90811561068a57600091611046575b506040518281526001600160a01b0386166004820152908482602481305afa91821561068a57600092611027575b50610f118487336110b1565b6002546040518481523360048201526001600160a01b0390911695908181602481305afa90811561068a5760009161100a575b506040519485526001600160a01b03881660048601528185602481305afa90811561068a577fe6497e3ee548a3372136af2fcb0696db31fc6cf20260707645068bd3fe97f3c495610fd393600093610fdb575b505060405194859460018060a01b03809b169a339a1698869192608093969594919660a084019784526020840152604083015260608201520152565b0390a4600190565b610ffb929350803d10611003575b610ff38183610438565b8101906110a2565b903880610f97565b503d610fe9565b6110219150823d841161100357610ff38183610438565b38610f44565b61103f919250853d871161100357610ff38183610438565b9038610f05565b61105d9150843d861161100357610ff38183610438565b38610ed7565b5050600090565b60405162461bcd60e51b815260206004820152601060248201526f44697361626c6564206665617475726560801b6044820152606490fd5b9081602091031261029d575190565b6001600160a01b0391821692919030841461111a57600083858115611110575b600092839283928392f11561068a577fddf252ad1be2c89b69c2b068fc378daa952ba7f163c4a11628f55a4df523b3ef916020916040519485521692a3565b6108fc92506110d1565b60405162461bcd60e51b8152602060048201526015602482015274063616e206e6f742073656e6420746f20445243323605c1b6044820152606490fd5b60ff601b9116019060ff821161057b57565b1561117057565b60405162461bcd60e51b815260206004820152601260248201527122b93937b91034b71032b1b932b1b7bb32b960711b6044820152606490fd5b9060006041825103611265575060208101519160ff604160408401519301511690601b8210611255575b60ff8216601b8114159081611249575b5061124057611218600093602095604051948594859094939260ff6060936080840197845216602083015260408201520152565b838052039060015afa1561068a576000519061123e6001600160a01b0383161515611169565b565b50505050600090565b601c91501415386111e4565b9061125f90611157565b906111d4565b9150509056fea26469706673582212203bb2e005b5406c9a416032a451780e64a4e2311bfa20adf8672588c9e9f5522464736f6c63430008130033",
  "linkReferences": {},
  "deployedLinkReferences": {}
}