{
  "_format": "hh-sol-artifact-1",
  "contractName": "LibEIP712Domain",
  "sourceName": "contracts/common/misc/EIP712.sol",
  "abi": [
    {
      "inputs": [],
      "stateMutability": "nonpayable",
      "type": "constructor"
    },
    {
      "inputs": [],
      "name": "CHAINID",
      "outputs": [
        {
          "internalType": "uint256",
          "name": "",
          "type": "uint256"
        }
      ],
      "stateMutability": "view",
      "type": "function"
    },
    {
      "inputs": [],
      "name": "EIP712_DOMAIN_SCHEMA_HASH",
      "outputs": [
        {
          "internalType": "bytes32",
          "name": "",
          "type": "bytes32"
        }
      ],
      "stateMutability": "view",
      "type": "function"
    },
    {
      "inputs": [],
      "name": "NETWORK_ID",
      "outputs": [
        {
          "internalType": "bytes",
          "name": "",
          "type": "bytes"
        }
      ],
      "stateMutability": "view",
      "type": "function"
    },
    {
      "inputs": [],
      "name": "eip712DomainHash",
      "outputs": [
        {
          "internalType": "bytes32",
          "name": "",
          "type": "bytes32"
        }
      ],
      "stateMutability": "view",
      "type": "function"
    }
  ],
  "bytecode": "0x60803461017c576001600160401b039060808101828111828210176101525760409081526052908183526020917f454950373132446f6d61696e28737472696e67206e616d652c737472696e6720838501527f76657273696f6e2c75696e7432353620636861696e49642c61646472657373208285015271766572696679696e67436f6e74726163742960701b60608501528151938360005b838110610168575050506000607285015283526080830192808410858511176101525760a0600e9185845282815186830120966100d481610181565b52016d446f6a696d61204e6574776f726b60901b81522060058383516100f981610181565b82815201640312e302e360dc1b81522090825193840194855282840152606083015261057960808301523060a083015260a0825260c08201938285109085111761015257839052519020600055610265908161019d8239f35b634e487b7160e01b600052604160045260246000fd5b818184010151828289010152018490610098565b600080fd5b604081019081106001600160401b038211176101525760405256fe60806040818152600436101561001457600080fd5b600091823560e01c90816328ce8b311461019657508063cc79f97b1461017a578063e614d0d61461006d5763f94dc4bc1461004e57600080fd5b34610069578160031936011261006957602091549051908152f35b5080fd5b5034610069578160031936011261006957805167ffffffffffffffff9160808201838111838210176101665781526052938483526020947f454950373132446f6d61696e28737472696e67206e616d652c737472696e6720868501527f76657273696f6e2c75696e7432353620636861696e49642c61646472657373208385015271766572696679696e67436f6e74726163742960701b606085015282519386835b83811061015357505050816072850152835260808301938385109085111761013f57508290528281519101208152f35b634e487b7160e01b81526041600452602490fd5b828101820151878201830152810161010f565b634e487b7160e01b85526041600452602485fd5b5034610069578160031936011261006957602090516105798152f35b90503461022b578260031936011261022b5781810181811067ffffffffffffffff821117610217578252600281526020906103e960f01b8282015282519382859384528251928382860152825b84811061020157505050828201840152601f01601f19168101030190f35b81810183015188820188015287955082016101e3565b634e487b7160e01b84526041600452602484fd5b8280fdfea2646970667358221220a948182c37d9a3b8b2023e02b804ecf4c1621e2024f3b9af5eaac37d812ab71464736f6c63430008130033",
  "linkReferences": {},
  "deployedLinkReferences": {}
}